:020000040800F2
:100000000000022065080208BDFF0108BFFF0108CB
:10001000C1FF0108C3FF0108C5FF0108000000007F
:10002000000000000000000000000000C1F1010815
:10003000C7FF01080000000051F20108C9FF0108D4
:10004000B5080208B5080208B5080208B508020894
:10005000B5080208B5080208B5080208B508020884
:10006000B5080208B5080208B5080208B508020874
:10007000B5080208B5080208B5080208B508020864
:10008000B5080208B5080208B5080208000000001B
:10009000000000000000000000000000B508020899
:1000A000B5080208B5080208B5080208B508020834
:1000B000B5080208B5080208B5080208B508020824
:1000C000B5080208B5080208B5080208B508020814
:1000D000B5080208E1FF0108B508020800000000A9
:1000E000B5080208B5080208B508020800000000BB
:1000F000000000000000000000000000B508020839
:1001000000000000EDFF0108B5080208B50802086C
:1001100000000000000000000000000000000000DF
:10012000B5080208B5080208F9FF01080500020831
:10013000B5080208000000000000000000000000F8
:100140000000000000000000000000001100020894
:100150001D000208B508020829000208B5080208B7
:10016000B5080208B5080208000000000000000001
:10017000000000000000000000000000000000007F
:1001800000000000B50802080000000000000000A8
:08019000B5080208B5080208D9
:1001A00010B5054C237833B9044B13B10448AFF3B1
:1001B00000800123237010BD5003002000000000C8
:1001C0003C55020808B5034B1BB103490348AFF384
:1001D000008008BD00000000540300203C550208C8
:1001E00010F8012B11F8013B012A28BF9A42F7D0E1
:1001F000D01A7047034613F8012B002AFBD1181AB6
:1002000001387047000000000000000000000000FE
:1002100001F0FF01102A2BDB10F0070F08D010F8B7
:10022000013B013A8B422DD010F0070F42B3F6D1BB
:10023000F0B441EA012141EA014122F007047FF0D4
:1002400000070023F0E80256083C85EA010586EA2B
:10025000010685FA47F5A3FA87F586FA47F6A5FA67
:1002600087F68EB9EED1F0BC01F0FF0102F0070273
:1002700032B110F8013B013A83EA010313B1F8D11E
:100280000020704701387047002D06BF35460338FF
:10029000073815F0010F07D1013015F4807F02BF38
:1002A000013015F4C03F0130F0BC0138704700BF89
:1002B00081F0004102E000BF83F0004330B54FEA17
:1002C00041044FEA430594EA050F08BF90EA020F84
:1002D0001FBF54EA000C55EA020C7FEA645C7FEA17
:1002E000655C00F0E2804FEA5454D4EB5555B8BF3A
:1002F0006D420CDD2C4480EA020281EA030382EAAB
:10030000000083EA010180EA020281EA0303362D3C
:1003100088BF30BD11F0004F4FEA01314FF4801C0F
:100320004CEA113102D0404261EB410113F0004F21
:100330004FEA03334CEA133302D0524263EB4303D8
:1003400094EA050F00F0A780A4F10104D5F1200E76
:100350000DDB02FA0EFC22FA05F2801841F10001D1
:1003600003FA0EF2801843FA05F359410EE0A5F1A5
:1003700020050EF1200E012A03FA0EFC28BF4CF0D6
:10038000020C43FA05F3C01851EBE37101F000458C
:1003900007D54FF0000EDCF1000C7EEB00006EEB99
:1003A0000101B1F5801F1BD3B1F5001F0CD3490823
:1003B0005FEA30004FEA3C0C04F101044FEA44527A
:1003C00012F5800F80F09A80BCF1004F08BF5FEA01
:1003D000500C50F1000041EB045141EA050130BDE1
:1003E0005FEA4C0C404141EB0101013C28BFB1F5F3
:1003F000801FE9D291F0000F04BF01460020B1FA3E
:1004000081F308BF2033A3F10B03B3F120020CDA10
:100410000C3208DD02F1140CC2F10C0201FA0CF0EE
:1004200021FA02F10CE002F11402D8BFC2F1200C53
:1004300001FA02F120FA0CFCDCBF41EA0C01904009
:10044000E41AA2BF01EB0451294330BD6FEA040452
:100450001F3C1CDA0C340EDC04F11404C4F120023D
:1004600020FA04F001FA02F340EA030021FA04F34F
:1004700045EA030130BDC4F10C04C4F1200220FAA6
:1004800002F001FA04F340EA0300294630BD21FAE4
:1004900004F0294630BD94F0000F83F4801306BFAA
:1004A00081F480110134013D4EE77FEA645C18BF9E
:1004B0007FEA655C29D094EA050F08BF90EA020F35
:1004C00005D054EA000C04BF1946104630BD91EA2D
:1004D000030F1EBF0021002030BD5FEA545C05D130
:1004E0004000494128BF41F0004130BD14F580046F
:1004F0003CBF01F5801130BD01F0004545F0FE41E3
:1005000041F470014FF0000030BD7FEA645C1ABF17
:10051000194610467FEA655C1CBF0B46024650EA4E
:10052000013406BF52EA033591EA030F41F400217A
:1005300030BD00BF90F0000F04BF0021704730B500
:100540004FF4806404F132044FF000054FF00001D5
:1005500050E700BF90F0000F04BF0021704730B596
:100560004FF4806404F1320410F0004548BF40426B
:100570004FF000013EE700BF42004FEAE2014FEAC0
:1005800031014FEA02701FBF12F07F4393F07F4F9B
:1005900081F06051704732F07F4208BF704793F09E
:1005A0007F4F04BF41F40021704730B54FF46074B1
:1005B00001F0004521F000411CE700BF50EA0102B4
:1005C00008BF704730B54FF000050AE050EA01025D
:1005D00008BF704730B511F0004502D5404261EBCD
:1005E00041014FF4806404F132045FEA915C3FF40E
:1005F000D8AE4FF003025FEADC0C18BF03325FEAAB
:10060000DC0C18BF033202EBDC02C2F1200300FA5B
:1006100003FC20FA02F001FA03FE40EA0E0021FA80
:1006200002F11444BDE600BF70B54FF0FF0C4CF46E
:10063000E06C1CEA11541DBF1CEA135594EA0C0F20
:1006400095EA0C0F00F0DEF82C4481EA030621EA5B
:100650004C5123EA4C5350EA013518BF52EA033596
:1006600041F4801143F4801338D0A0FB02CE4FF048
:100670000005E1FB02E506F00042E0FB03E54FF078
:100680000006E1FB03569CF0000F18BF4EF0010E70
:10069000A4F1FF04B6F5007F64F5407404D25FEA6C
:1006A0004E0E6D4146EB060642EAC62141EA55511F
:1006B0004FEAC52040EA5E504FEACE2EB4F1FD0C61
:1006C00088BFBCF5E06F1ED8BEF1004F08BF5FEADF
:1006D000500E50F1000041EB045170BD06F0004691
:1006E00046EA010140EA020081EA0301B4EB5C043E
:1006F000C2BFD4EB0C0541EA045170BD41F4801136
:100700004FF0000E013C00F3AB8014F1360FDEBF5A
:10071000002001F0004170BDC4F10004203C35DA36
:100720000C341BDC04F11404C4F1200500FA05F3B9
:1007300020FA04F001FA05F240EA020001F000425A
:1007400021F0004110EBD37021FA04F642EB0601D0
:100750005EEA430E08BF20EAD37070BDC4F10C04FA
:10076000C4F1200500FA04F320FA05F001FA04F2BE
:1007700040EA020001F0004110EBD37041F10001AA
:100780005EEA430E08BF20EAD37070BDC4F12005B5
:1007900000FA05F24EEA020E20FA04F301FA05F21D
:1007A00043EA020321FA04F001F0004121FA04F2C5
:1007B00020EA020000EBD3705EEA430E08BF20EA95
:1007C000D37070BD94F0000F0FD101F000464000CF
:1007D00041EB010111F4801F08BF013CF7D041EA51
:1007E000060195F0000F18BF704703F00046520055
:1007F00043EB030313F4801F08BF013DF7D043EA26
:100800000603704794EA0C0F0CEA135518BF95EADB
:100810000C0F0CD050EA410618BF52EA4306D1D162
:1008200081EA030101F000414FF0000070BD50EA81
:10083000410606BF1046194652EA430619D094EA0B
:100840000C0F02D150EA013613D195EA0C0F05D1F5
:1008500052EA03361CBF104619460AD181EA030149
:1008600001F0004141F0FE4141F470014FF0000001
:1008700070BD41F0FE4141F4780170BD70B54FF09C
:10088000FF0C4CF4E06C1CEA11541DBF1CEA13551C
:1008900094EA0C0F95EA0C0F00F0A7F8A4EB0504FE
:1008A00081EA030E52EA03354FEA013100F08880F5
:1008B0004FEA03334FF0805545EA131343EA1263BE
:1008C0004FEA022245EA111545EA10654FEA002673
:1008D0000EF000419D4208BF964244F1FD0404F52C
:1008E000407402D25B084FEA3202B61A65EB030588
:1008F0005B084FEA32024FF480104FF4002CB6EB45
:10090000020E75EB030E22BFB61A754640EA0C00C4
:100910005B084FEA3202B6EB020E75EB030E22BF04
:10092000B61A754640EA5C005B084FEA3202B6EB45
:10093000020E75EB030E22BFB61A754640EA9C0004
:100940005B084FEA3202B6EB020E75EB030E22BFD4
:10095000B61A754640EADC0055EA060E18D04FEA92
:10096000051545EA16754FEA06164FEAC30343EA32
:1009700052734FEAC2025FEA1C1CC0D111F4801FFF
:100980000BD141EA00014FF000004FF0004CB6E7F8
:1009900011F4801F04BF01430020B4F1FD0C88BF97
:1009A000BCF5E06F3FF6AFAEB5EB030C04BFB6EBA2
:1009B000020C5FEA500C50F1000041EB045170BD95
:1009C0000EF0004E4EEA113114EB5C04C2BFD4EBC2
:1009D0000C0541EA045170BD41F480114FF0000E46
:1009E000013C90E645EA060E8DE60CEA135594EAC2
:1009F0000C0F08BF95EA0C0F3FF43BAF94EA0C0FC5
:100A00000AD150EA01347FF434AF95EA0C0F7FF439
:100A100025AF104619462CE795EA0C0F06D152EA8D
:100A200003353FF4FDAE1046194622E750EA410671
:100A300018BF52EA43067FF4C5AE50EA41047FF482
:100A40000DAF52EA43057FF4EBAE12E74FF0FF3CE7
:100A500006E000BF4FF0010C02E000BF4FF0010CB8
:100A60004DF804CD4FEA410C7FEA6C5C4FEA430C31
:100A700018BF7FEA6C5C1BD001B050EA410C0CBF80
:100A800052EA430C91EA030F02BF90EA020F0020E2
:100A9000704710F1000F91EA030F58BF994208BF49
:100AA00090422CBFD8176FEAE37040F00100704706
:100AB0004FEA410C7FEA6C5C02D150EA013C07D15D
:100AC0004FEA430C7FEA6C5CD6D152EA033CD3D0A8
:100AD0005DF8040B704700BF8446104662468C46A2
:100AE0001946634600E000BF01B5FFF7B7FF0028D5
:100AF00048BF10F1000F01BD4DF808EDFFF7F4FFFE
:100B00000CBF012000205DF808FB00BF4DF808ED88
:100B1000FFF7EAFF34BF012000205DF808FB00BFAB
:100B20004DF808EDFFF7E0FF94BF012000205DF8CD
:100B300008FB00BF4DF808EDFFF7CEFF94BF012082
:100B400000205DF808FB00BF4DF808EDFFF7C4FF7B
:100B500034BF012000205DF808FB00BF4FEA410CC4
:100B60007FEA6C5C02D150EA013C0AD14FEA430CA7
:100B70007FEA6C5C02D152EA033C02D14FF00000E4
:100B800070474FF0010070474FEA410212F5001222
:100B900015D211D56FF47873B3EB625212D94FEAC4
:100BA000C12343F0004343EA505311F0004F23FAAE
:100BB00002F018BF404270474FF00000704750EA03
:100BC000013005D111F0004008BF6FF000407047C0
:100BD0004FF00000704700BF4A0011D212F500121A
:100BE00011D20DD56FF47873B3EB62520ED44FEA85
:100BF000C12343F0004343EA505323FA02F0704705
:100C00004FF00000704750EA013002D14FF0FF3042
:100C100070474FF0000070474FEA4102B2F1E043E5
:100C200024BFB3F5001CDCF1FE5C0DD901F0004CD3
:100C30004FEAC0024CEA5070B2F1004F40EB830023
:100C400008BF20F00100704711F0804F21D113F14F
:100C50003872BCBF01F00040704741F480114FEA88
:100C60005252C2F11802C2F1200C10FA0CF320FA11
:100C700002F018BF40F001004FEAC1234FEAD3232E
:100C800003FA0CFC40EA0C0023FA02F34FEA430398
:100C9000CCE77FEA625307D150EA01331EBF4FF021
:100CA000FE4040F44000704701F0004040F0FE403C
:100CB00040F40000704700BF53B94AB9002908BF8B
:100CC00000281CBF4FF0FF314FF0FF3000F0A0B9FB
:100CD000ADF1080C6DE904CE00F03CF8DDF804E05D
:100CE000DDE9022304B0704738B500220023044632
:100CF0000D46FFF70BFF28B920462946BDE83840CE
:100D000000F00AB8204605F1004100F005F8404225
:100D100061EB410138BD00BFD0B50C4B0022064647
:100D20000F46FFF781FCFFF757FF0446FFF702FC71
:100D3000074B0022FFF778FC02460B463046394647
:100D4000FFF7BAFAFFF748FF2146D0BD0000F03D9B
:100D50000000F0412DE9F047089D0C46002B4ED1D4
:100D600094468C458646B2FA82F262D94AB1C2F103
:100D70002003914020FA03F30CFA02FC194300FA15
:100D800002FE4FEA1C471FFA8CF6B1FBF7F44FEA5C
:100D90001E4307FB141143EA014304FB06F1994289
:100DA0000AD91CEB030304F1FF3080F01281994251
:100DB00040F20F81023C6344591A1FFA8EF3B1FBD3
:100DC000F7F007FB101143EA014300FB06F69E42D1
:100DD0000AD91CEB030300F1FF3180F0FC809E4236
:100DE00040F2F980634402389B1B40EA0440002132
:100DF0001DB1D3400022C5E90032BDE8F0878B4227
:100E000005D90DB1C5E9000100210846F5E7B3FA9F
:100E100083F1002946D1A34202D39042C0F0F08072
:100E2000861A64EB03030120002DE6D0C5E90063B8
:100E3000E3E7002A40F09080A1EB0C044FEA1C4845
:100E40001FFA8CF70121B4FBF8F64FEA1E4308FBAA
:100E5000164443EA044307FB06F0984208D91CEB0A
:100E6000030306F1FF3402D2984200F2CD802646F9
:100E70001C1A1FFA8EF3B4FBF8F008FB104443EA87
:100E8000044300FB07F79F4208D91CEB030300F162
:100E9000FF3402D29F4200F2B0802046DB1B40EAC2
:100EA0000640A5E7C1F120068B4022FA06F71F4352
:100EB00020FA06FC04FA01F343EA0C03F44000FABA
:100EC00001F8380C4FEA1349B4FBF0FE1FFA87FC17
:100ED00000FB1E4449EA04440EFB0CF9A14502FA4A
:100EE00001F20AD93C190EF1FF3A80F08480A14545
:100EF00040F28180AEF1020E3C44A4EB09041FFADB
:100F000083F9B4FBF0F300FB134449EA044403FB08
:100F10000CFCA44507D93C1903F1FF3067D2A44566
:100F200065D9023B3C4443EA0E40A0FB0293A4EB8C
:100F30000C049C42CE469C4651D34ED055B1B8EBE2
:100F40000E0364EB0C0404FA06F6CB401E43CC40BF
:100F5000C5E90064002150E7C2F1200320FA03F143
:100F60000CFA02FC24FA03F394400C434FEA1C48A9
:100F700000FA02FE1FFA8CF7B3FBF8F008FB103101
:100F8000230C43EA014300FB07F1994208D91CEB0B
:100F9000030300F1FF362CD299422AD90238634468
:100FA0005B1AA4B2B3FBF8F108FB113344EA034423
:100FB00001FB07F3A34208D91CEB040401F1FF363F
:100FC00013D2A34211D902396444E41A41EA004120
:100FD00039E70446F0E6084606E7C845AED2B9EB65
:100FE000020E63EB070C0138A8E73146EDE7034634
:100FF00099E73046D4E7D6467FE7634402384DE7A9
:101000000646234608460FE7023E634430E700BF2A
:10101000704700BF03798B4228BF0431C91AC9B297
:101020004171704708B503681B699847B0FA80F0B2
:10103000400908BD10B509F017F8204909F038F843
:101040000FF062FE1E490FF01DFF0FF05DFE1D49FF
:101050000FF05CFF0FF058FE03681B68984713F011
:101060005DFD036818495B6A984705F017FE17494C
:10107000002205F071FE05F011FE03681B68984719
:101080001348FFF7CFFF30B10EF0ECFF0368BDE867
:1010900010401B6818470F48FFF7C4FF10B103F05A
:1010A000B1FCF3E703F06EFF0B4B836603F06AFFBE
:1010B00003681B68984700F089FBE7E76C03002092
:1010C000A40300208403002068DB012020DB012032
:1010D0008804002078040020D003002000BEFEE732
:1010E000704700002DE9F0473D4ADFF840913D4F41
:1010F0003D4BBA601021C9E902210822FA603B4A3F
:101100003B49916000244FF48060C2E90034D06014
:10111000DFF81C81374ADFF81CA1C9F8003001252F
:10112000C8E90035C7E90035C2E900340223D360BD
:101130004FF06413CAF804302F4B304ECAF8003019
:101140002F4BCAF808304FF0051373602D4B3360F6
:1011500006F10C002C4B9160C8E90215C9F8045047
:10116000B36013F091F9294B294A1A60294AC3F850
:101170008420A3F88840284B284818604FF4F07268
:1011800027481C760321C3E901124FF4A071C3E97B
:10119000031259610571C180224D0281C3E907A97B
:1011A000C3E909872146204B03604471C66004747B
:1011B000C0F81240C0F81640C0F81A40FFF72AFFE6
:1011C0004FF400404023C5E900034220C5E903462F
:1011D0002C726C610FF042FDE860BDE8F08700BF43
:1011E000000002409804002010FD0208880400203E
:1011F000000402407804002080FD02085C04002006
:10120000C4DA012034FD020828D90120D0030020CF
:10121000D0FD020870DC0120A4030020E48A02084B
:10122000840300206C030020BC8A0208B80400205C
:10123000A80400206C04002008B5074BD86810B142
:1012400001211FF038FB0548054B40F80C3BBDE879
:10125000084013F023B900BF6C0300205C04002099
:1012600034FD02084FF00000704700F5005090F880
:10127000C407002818BF0320704712F0ADBFF8B5AF
:101280000446002840D00E784F7826BB00F5FA556A
:10129000EB691C351B692846984760B32B682846C4
:1012A0001B6C984738B3DFB10121284613F0CEFFFD
:1012B000062E1ED103F066FE90F86E3304F5AD5491
:1012C0001434DBB103F05EFE04F028F80021204660
:1012D00013F0BCFF0DE0012E0DD100F50355D7E74B
:1012E0003946284613F0B2FF23682946DB692046B9
:1012F00098470020F8BD002FDAD1FAE703F042FE4C
:1013000003F0D6FF0121E2E70120F3E708B51DF065
:10131000CFFBBDE808401DF09DBA000010B5074B9B
:10132000044640F8483B13F0B5FA04F1240013F0EA
:1013300007F9201D13F004F9204610BD04FE020831
:1013400010B50446FFF7EAFF204668211FF0B3FA04
:10135000204610BD054A02600022C0E90122C0E912
:101360000322C0E90522C261704700BFE49502086C
:1013700010B50446FFF7EEFF044B23600023C4E9D9
:10138000083384F82830E362204610BDE893020851
:1013900010B50446FFF7DEFF064B23600122002351
:1013A00084F82C20C4E90833A362236384F8343022
:1013B000204610BD389502082DE9F8430446FFF792
:1013C000C9FF1C4B236000256FF07F43DFF8689056
:1013D00023634FF001084FF080774FF0FF36C4E9E8
:1013E0000855C4E90A55A58604F13800FFF7B2FF95
:1013F000C4E91655C4E91B76C4F83890256684F80C
:101400006480A566A4F8785004F17C00FFF7A2FF81
:10141000C4E92B5784F8A880C4E92755C4F87C9008
:10142000C4F8A450C4F8B460A4F8BC502046BDE889
:10143000F88300BF6CFE02089493020838B5044696
:10144000FFF788FF1C4B236000254FF47F420123E8
:10145000C4E90D234FF00041C4E90F536FF000437E
:10146000C4E911134FF0FF33E364C4E90855A562E2
:1014700084F82C50256304F15000FFF779FF04F144
:101480008000FFF785FF04F1B800FFF781FF2946D0
:10149000182204F1F00021F0ABFE1022294604F5D9
:1014A000847021F0A5FE84F818510FF02DFCC4F8CB
:1014B0001C01204638BD00BF305B02082DE9F8430F
:1014C00005460026FFF746FFC5E90866C5E90A6636
:1014D000304BDFF8CC902B602E6305F1340405F51A
:1014E0005D774FF0FF382046FFF734FFC4F80090D7
:1014F00084F82060C4F82C8084F83060C4E9096660
:101500003434BC42EFD105F2F46620463834FFF79C
:101510003FFFB442F9D105F5975614362046C03442
:10152000FFF74AFFB442F9D1204605F58054002662
:10153000FFF710FF184BC4F8F43205F59850C4F8C3
:1015400014631830FFF738FF05F59E501830FFF789
:1015500033FF05F5A4501830FFF70AFF05F5A65034
:101560000830FFF7F7FE0D4BC4F8C834C4F8E86440
:10157000C4F8EC64C4F8F06484F8F464C4F8F86463
:10158000C4F8FC640FF0C0FBC4F800052846BDE8B1
:10159000F88300BF7C6C0208909402083C94020817
:1015A000408B020870B50A2300250446C0E90055A7
:1015B000C0E9025503611430FFF7CCFE2E4B636186
:1015C000C4E90D5504F13C00FFF7D2FE04F16C00B4
:1015D000FFF7C0FE294BE36604F18C00FFF7D8FE4D
:1015E00004F1C400FFF72AFF04F5F270FFF7E4FEF0
:1015F00004F52970FFF7E0FE04F55970FFF7DCFEF3
:101600001F4B93E8070004F2244585E8070004F522
:10161000866603F10C023C3310685168354603C5F9
:1016200008329A422E46F7D104F58C60FFF7C4FECB
:1016300004F5A460FFF7C0FE0FF066FB002384F8FA
:10164000F03584F80836C4F8E005C4F8E435C4F889
:10165000E835C4F8EC35C4F8F435C4F8F835C4F806
:10166000FC35C4F80036C4F80436C4F80C36C4F8A7
:101670001036204670BD00BF8C9502083C940208CD
:10168000585502084D4B70B510220446222140F8EF
:10169000043B002312F079FF00230822202104F1EB
:1016A000240012F072FF04F51F5304330025636415
:1016B0001423C4E91253424B84F85050C4E9153442
:1016C0004FF48063A4F85E30022384F86030204633
:1016D0003C4B63663C4B84F85C50294640F8683BC1
:1016E000402221F085FDC4E92A5504F1B000FFF73E
:1016F000E5FE04F5AD501430FFF75EFE04F5B3507F
:101700001430FFF735FE04F5B5500430FFF740FE06
:1017100004F5B6501C30FFF73BFE04F5B85014300A
:10172000FFF736FE04F5BA5504F5F0560C350C36C5
:10173000284605F59075FFF781FEB542F8D104F50E
:10174000FA561C3628463835FFF722FEAE42F9D14C
:101750003046FFF731FE04F500501C30FFF72CFE39
:1017600004F503501C30FFF727FE04F5065004F57E
:1017700000551C30FFF716FF032385F8B0370FF034
:10178000C3FAC5F8B40705F089FAC5F8B80703F03D
:10179000F9FBC5F8BC0708F067FC002385F8D837CB
:1017A000C5F8C007C5F8CC37C5F8D037C5F8D43769
:1017B000C5F8DC37C5F8E037204670BD04FE0208E6
:1017C0005D4301084C5A0208DC5A020810B50A4C65
:1017D0002368BFF35B8FDB070CD420461FF06DF846
:1017E00040B10648FFF74EFF054820F065FC204653
:1017F0001FF06FF8014810BDC8040020CC04002081
:10180000C92300082DE9F04F00F5005785B0D7F83F
:10181000B4370546D3F8A0400E46002969D0083CED
:10182000032294FBF2F4D3F8A4B012F03DF903685C
:10183000DB689847804612F037F90368DB68984701
:1018400005F5FA5909F11C0908EB480800EB4000BE
:101850004FF0010AABEB08032849CDF808A000229D
:10186000CDE90040484613F053FBFFF74FFD00233E
:1018700001461A46484613F0F4FC05F58058CEB1EF
:10188000B8F9682FCDF808A0B8F96E3F1B49CDE92B
:10189000004305F500561C36B8F9663F0532304660
:1018A00013F036FBFFF732FD002301461A4630469F
:1018B00013F0D7FCD7F8B4371049D3F8A020012390
:1018C0000293B8F96E3FCDE9004305F503551C3589
:1018D000B8F9663F121B284613F01AFBFFF716FDF6
:1018E000002301461A46284605B0BDE8F04F13F024
:1018F000B8BC04EBD4746410043C94E7940403086B
:10190000034603F5005300F5FA50D3F8BC3793F8BB
:101910008C33022B0CBF024902491C3013F09FBBD1
:10192000585A02085D5A020800F50052D2F8BC2746
:1019300092F88C23012A05D821B100F5FA501C3009
:1019400013F08DBBFFF7DCBF00F5005300F503502B
:10195000D3F8BC2792F88C33052B00F11C0008D17A
:1019600092F80D344F2B01D1054900E0054913F0E1
:1019700076BB002BF8D0092BF6D00349F7E700BF60
:10198000746B0208615A02089568020800F500525B
:10199000D2F8BC2792F88C23012A05D121B100F599
:1019A00003501C3013F05BBBFFF7CEBF70B500F1E6
:1019B00064030446002553F8042F8A4218D1D4F852
:1019C000AC301A3354F8230003681B69984704F1BC
:1019D000B000C4F8AC50294605F030F8D4F8AC306B
:1019E0001A3354F823000368BDE87040DB681847D9
:1019F0000135102DDFD170BDD0F8AC301A3370B581
:101A0000044650F8230003680D461B69984704F10B
:101A1000B000C4F8AC50294605F010F8D4F8AC304A
:101A20001A3354F823000368BDE87040DB68184798
:101A300073B500F5AD5614368E4204460D4614D1EA
:101A400000F50054D4F8BC0790F86E334BB103F0A6
:101A500065FC0021304613F0F9FB4FF0000002B0A6
:101A600070BD03F025FC0121F4E700F1B0039942B9
:101A700004D190F8DC10FFF7BFFFEEE7D0F8AC30F0
:101A80001A3350F8230003689B699847C0B20828AE
:101A9000E3D104F5FA531C339D420CD104F50054F4
:101AA000D4F8BC0790F88C33022B14BF812182211B
:101AB00003F0EEFBD1E704F503531C339D42CCD178
:101AC00004F50054D4F8BC0790F88C13D0F88423A4
:101AD000052913D190F80D34C0F888234F2B4FF00F
:101AE000000380F80D3480F8703301D11821DFE74E
:101AF0000B49019301AA04F099F8AEE7002309B15C
:101B0000092906D180F80D3480F87033C0F8882395
:101B1000ECE780F87033C0F888231921C8E700BFCC
:101B2000685A0208F7B5044600F1B00504F50056FE
:101B3000284604F00EFE28221021D6F8B437CDE94D
:101B4000002100221146D3F8A0300027284604F0D7
:101B50008BFFC4F8A87011F0F5FE39460346744AAD
:101B6000284604F0FDFE734AD4F8A810284604F075
:101B70008FFED4F8A8707B1CC4F8A83002F070FE69
:101B80001A3744F82700D4F8A87011F0DBFE394664
:101B9000694A0346284604F0E3FED4F8A8707B1C8B
:101BA000C4F8A83008F0FAFE1A3744F82700D4F831
:101BB000A87011F0C7FE39460346604A284604F073
:101BC000CFFED4F8A8707B1CC4F8A83001F02EFF1B
:101BD0001A37D6F8BC3744F8270093F831349BB94C
:101BE000D4F8A87011F0AEFE39460346544A284690
:101BF00004F0B6FED4F8A8707B1CC4F8A8300DF031
:101C0000C9F81A3744F82700D4F8A87011F09AFEE2
:101C1000394603464B4A284604F0A2FED4F8A87081
:101C20007B1CC4F8A8300CF099FA1A37D6F8BC37E8
:101C300044F8270093F8313463BBD4F8A87011F04E
:101C400081FE39460346404A284604F089FED4F80E
:101C5000A8707B1CC4F8A8300AF034FC1A37D6F8F8
:101C6000BC3744F8270093F831349BB9D4F8A870F6
:101C700011F068FE39460346344A284604F070FEE7
:101C8000D4F8A8707B1CC4F8A83007F0DDFC1A3724
:101C900044F82700D6F8BC3793F83134022B13D11F
:101CA000D4F8A87011F04EFE39460346284A28465B
:101CB00004F056FED4F8A8707B1CC4F8A83005F0D8
:101CC000B1FB1A3744F82700D4F8A87011F03AFE97
:101CD0003946204A0346284604F042FED4F8A8704C
:101CE0007B1CC4F8A8300DF0F5FD1A37D4F8A820F5
:101CF00044F82700D6F8B437019228220092002237
:101D00001146D3F8A030284604F0AEFE284604F071
:101D100063FF0023214628461A4604F059FF4FF47A
:101D2000FA61284603B0BDE8F04004F0CFBC00BF24
:101D30006C5A02083C000020705A0208795A0208C6
:101D4000845A0208915A02089E5A0208A45A0208AC
:101D5000B75A0208CA5A02082DE9F04F044689B062
:101D600004F5005708F080F908F0A6F9D7F8B45741
:101D700008F07AF98168003918BF012128460FF070
:101D8000ACF897F8B017D7F8B4070FF0ECFBD7F81A
:101D9000B4379C4AC3F89820D3F8A46011F084FEAD
:101DA0000368DB689847054611F0CCFD0368DB68E3
:101DB0009847D7F8B437D3F8A0300493824611F08F
:101DC000C1FD026892689047834611F0BBFD02682E
:101DD000D268904705EB45058B4A049B04F5B35840
:101DE000023E4FF0060908F11408761B400000255A
:101DF00009FB1B33CDE901250090A6EB4A024046C2
:101E0000294610F00BFE4FF47A71404611F0A4FC05
:101E1000D7F8BC0703F082FAD7F8B437D3F8A0B0EC
:101E200011F090FD03689B68984704F58056824640
:101E3000B6F97E36049311F085FD026892689047EA
:101E40000121029104F5AD5808F11408B6F986167F
:101E5000049B019109FB00F00BF1FF3209FB1A22F0
:101E60006A490090404613F053F82A462B464046F4
:101E7000214613F0F6F94046294613F0E7F94FF4EE
:101E80007A71404611F068FCB6F98636B6F97E964E
:101E900003EBD37309EB630911F054FD0368DB68AE
:101EA0009847804611F04EFD04F5B55A6FF07F4B10
:101EB0000AF1040A0422A9EB580355490190CDF810
:101EC00000B0504610F0DBFFB6F9AC16079111F0E8
:101ED00039FD03689B689847804611F0E5FD03686B
:101EE0009B689847B6F982360493069011F0DCFDA2
:101EF0000368DB689847059011F0D6FDDDE90621FF
:101F0000049B04F5B659A3F1020C059B09F11C09C9
:101F10000A4408EB8808ACEB03033D49CDE900B067
:101F20004244484610F0ABFFB6F9BC25059211F0CB
:101F3000F5FD03689B689847B6F97E3604338346FF
:101F4000049311F0EBFD04F5B858059A049B019039
:101F5000FF2108F1140800910B2101FB1B224046D0
:101F60002B4910F08CFF40F2E931504611F0F4FBA0
:101F700040F2EA31484611F0EFFB40F2EB314046C7
:101F800011F0EAFB29462046FFF73CFC2046FFF70C
:101F9000C9FD04F16408D4F8A830AB4226D8A06E7D
:101FA0000023C4F8AC300368DB68984704F51F537E
:101FB0000C3301934323009321462346154AD7F857
:101FC000B80704F0E9FE04F5BA5504F5F0540C35F1
:101FD0000C342846002105F5907500F034FEA5422A
:101FE000F7D14FF0000009B0BDE8F08F58F8040FAA
:101FF000B6F97E260368283A9B6828219847013560
:10200000C9E700BF40404000808080006C5A020851
:10201000940403087F1200082DE9F04100F50055F3
:102020000446D5F8BC0790F88C1303F049F8014634
:1020300004F5B5500022043011F06EF8D5F8BC0755
:1020400090F80D1403F044F8014604F5B650002250
:102050001C3011F061F8D5F8BC1791F8052413462F
:102060006FF3861304F5B85081F80534C2F380127B
:1020700001F20E41143011F04FF804F5BA560C3647
:102080000027F9B2D5F8BC0703F055F8013701462F
:10209000304600F0D8FD062F06F59076F1D104F514
:1020A0008057D5F8BC3797F8E82593F8FF3304F547
:1020B000AD501430002A37D0002B0CBFFF214FF455
:1020C0007F4113F00FF8D5F8BC3793F82B24002686
:1020D00083F82B64BAB1D4F8AC301A3304F1640835
:1020E00054F8230003681B6998472046FFF71AFD40
:1020F000D4F8A830B3421DD8A06E0023C4F8AC3089
:102100000368DB689847D4F8AC301A33142154F8CC
:10211000230003685B699847D5F8B4070EF0D9FE31
:102120004FF00000BDE8F081002B0CBF6FF07F4145
:10213000FF21C6E758F8040FB7F97E260368283A4E
:102140009B68282198470136D2E7000010B5034B61
:102150000360044611F024FB204610BD38950208A8
:1021600010B50446FFF7F2FF204638211EF0A3FB0E
:10217000204610BD38B5094B094D0360044640F8B0
:102180007C5F11F00DFB204640F8385F11F008FB32
:10219000204611F005FB204638BD00BF6CFE02084A
:1021A0009493020810B50446FFF7E4FF2046C021CF
:1021B0001EF081FB204610BD0A4B10B5044640F8C6
:1021C000B83BFFF7C3FF04F18000FFF7BFFF2046D5
:1021D000054B40F8503F11F0E3FA204611F0E0FAC9
:1021E000204610BD305B0208E893020838B504466B
:1021F00000F5A460FFF7BEFF04F58C60FFF7BAFF9F
:102200004FF45975635960191B68C03D9847B5F57F
:10221000927FF7D104F1C400FFF7CEFF04F18C00E8
:10222000FFF794FF2046094B40F86C3F11F0B8FAD5
:102230002046074B40F83C3F11F0B2FA2046054BD0
:1022400040F8143F11F0ACFA204638BD3C94020827
:10225000E89302088C95020810B50446FFF7ACFF1E
:1022600020464FF490711EF026FB204610BD000062
:1022700070B5244B036000F580550446224BC5F829
:10228000C83400F5A650083011F08AFA1F4BC5F883
:10229000983404F5A450183011F082FA04F59E50D9
:1022A0001830FFF767FF04F598501830FFF762FF0A
:1022B000174BC5F8F43204F59750143011F070FA4A
:1022C00041F2342540F23466635960191B68C03D01
:1022D0009847B542F8D140F2BC65635960191B6854
:1022E000383D9847B5F54F7FF7D14FF45075635996
:1022F00060191B689847343DF9D1204611F050FA17
:10230000204670BD7C6C02083C940208E8930208E9
:10231000909402082A4B70B50360044600F50650FD
:102320001C30FFF763FF04F503501C30FFF722FF5A
:1023300004F500501C30FFF71DFF04F5FA501C3067
:10234000FFF718FF41F6247541F6D456635960191A
:102350001B68383D9847B542F8D141F6EC4541F24B
:102360002C66635960191B68A5F590759847B542AE
:10237000F7D104F5B8501430FFF7E8FE04F5B65075
:102380001C30FFF7E3FE04F5B5500430FFF7DEFE26
:1023900004F580530B4AC3F8742604F5B350143087
:1023A00011F0FEF904F5AD501430FFF7E3FE04F12F
:1023B000B000FFF75DFF2046FEF7B0FF204670BD7E
:1023C000DC5A0208E893020808B50248FFF7A2FFAA
:1023D00008BD00BFCC04002010B50446FFF79AFFEB
:1023E000204642F2E4711EF066FA204610BD10B598
:1023F0000446FFF73DFF204641F204511EF05BFA10
:10240000204610BD08B558B109B9002008BD0269C1
:10241000D0F81031C43001FB023100F014FCF4E7B5
:102420000120F3E7C0E900128360704701694B1E89
:1024300010B559420446594100F5F27012F006FFFA
:102440002169A1F10A025142514104F5297012F0AB
:10245000FDFE2169A1F164004142414104F559703A
:10246000BDE8104012F0F2BE32B901207047484377
:1024700001339342FBD1704708460123F9E700007E
:1024800037B504460D466C3011F066F9691C04F14D
:10249000140011F061F9A91C04F58C6011F05CF9CD
:1024A000E91C04F5A46011F057F904F0F7FB0546A8
:1024B000FEF72CFF04F2E45301460D4A0093284630
:1024C000234604F098FC04F0E9FB0546FEF71EFFE6
:1024D00004F2FC5301930323014600932846054A66
:1024E000234604F059FC4FF0000003B030BD00BF9C
:1024F000052400087F2800082DE9F04F89B0C94D58
:1025000005921E462B68DFF830B3BFF35B8F13F0E4
:10251000010F04460F460CD128461EF0CEF940B1FB
:10252000D4F8E0352846D3F8A030CBF800301EF0C0
:10253000D0F911F007FA6FF07F4304F18C05009396
:1025400000231A4639460190284610F098FC284688
:102550009DF8541010F0A7FDB4F99C30DBF8001082
:10256000C91A082200234908284604F1140A11F068
:1025700031F95146284611F073F90121284611F02E
:10258000EBF8DBF80030B4F99A70A3F1100811F001
:102590008BFA0368DB689847149B029304F1C40527
:1025A00008370D2300EB80003A4601930090434624
:1025B0002846082100F07AFA4FF47F420421284689
:1025C00000F034FB11F070FA02220146284600F0B8
:1025D00044FCDDE91212284600F074FB314628461F
:1025E00000F031FB11F060FA00270346052228466F
:1025F000059900F048FC5146284684F8D97011F03E
:102600002FF92846012111F0A7F804F584630493FB
:1026100004F5866804F5F275B4F9D4900323A9F1A2
:102620000809B9FBF3F902F0ADFC149A06460A2139
:102630002046FFF719FF049A009052F8043F0492D5
:1026400041461022304602F0AFFE4046FDF7D2FD73
:10265000059B754AC0F11001404420F0FFFCB4F91D
:10266000CC2009F1040307FB0322B4F9D23007920E
:102670000833069311F018FA0168C96888470126E3
:1026800000EB8000DDE906324146CDE9009002967C
:10269000284612F03DFCFEF739FE644A2346014607
:1026A000284612F0DEFD2846002112F0CFFD284614
:1026B000032112F05FFD5146284611F0D1F82B6836
:1026C00028469B68314637449847032F08F1100885
:1026D00005F1C005A0D1149A022A28BF02220A21BE
:1026E0002046FFF7C1FE2061C02000FB024000250C
:1026F000314600F5F27012F0A9FD02960195B4F989
:10270000F231083304F13C070093DBF800302A462D
:102710002946384610F082F93846042110F0D2F9E3
:1027200038464FF6FF7110F0DDF92946384610F0B3
:10273000ECF95146384611F093F82946384611F025
:102740000BF8D4F8E025B4F94E30D2F8A420009369
:10275000D21A02EBD272DBF80030324129465046E1
:1027600010F026FFD4F8E035D3F8A42000922946D3
:102770002A4604F16C00D3F8A03010F0D6F9D4F852
:10278000E03584F88160D3F8A4A011F08DF90368D6
:10279000DB689847D4F8E035D3F8A02002EBD2727A
:1027A00042FA06F7814611F07FF90368DB68984723
:1027B00004F58C68043F09EB490900EB4000CDE9C2
:1027C0000070AAEB09032A4619490296404612F006
:1027D0009FFBFEF79BFD23460146144A404612F03C
:1027E00040FDD4F8E035B4F97024D3F8A010029677
:1027F000B4F97234CDE9002304F5A467B4F96A345E
:102800008A1A38460B4912F083FBFEF77FFD074A10
:1028100001462346384612F024FD284609B0BDE89B
:10282000F08F00BFB02C0020005B02087F2800085A
:10283000045B0208075B0208B42C002010B50446B4
:1028400004F02CFA04F2E45104F0EDFA04F026FA54
:1028500004F2FC5104F0BBFA04F1140010F093FFF1
:1028600004F16C0010F08FFF04F58C6010F08BFF0A
:1028700004F5A46010F087FF4FF0000010BD2DE9B3
:10288000F0410446002867D000F58C678F4216D1CE
:10289000FFF7D4FF206858B10368D4E901125D68DE
:1028A0002346A8472046FFF7C1FD0020BDE8F08180
:1028B0006368002BF6D0A06821469847F2E700F540
:1028C000A4658D4202D1FFF7B9FFEBE700F5F27383
:1028D000994202D101232361E4E700F5297399426B
:1028E00001D10A23F7E700F55973994201D1642316
:1028F000F1E791F800804E78B8F1000F17D13C3025
:1029000046B14FF47F4110F0EDF80121384612F046
:102910009DFCC7E74FF47F0110F0E4F831463846DC
:1029200012F094FC39462046FFF7A9FFBAE7B8F148
:10293000010FB7D13C302EB1FF2110F0D3F8414642
:102940002846E4E74FF47F0110F0CCF831462846E2
:1029500012F07CFC2946E6E70120A7E7B0F9080061
:102960007047B0F90A007047B0F90C007047B0F931
:102970000E007047B0F910007047B0F912007047B0
:10298000407D7047417570472DE9F341089E04462C
:102990001D46B0F90A30B0F90800301A0090EB1A61
:1029A00004F1500090460F460FF0A5FDB4F9082041
:1029B000B4F90A30B21A0092EB1A4246394604F1D1
:1029C000B80010F0ECF994F818317BB1B4F9082094
:1029D000B4F90A30B61AEB1A4246394604F18000BF
:1029E000089602B0BDE8F04110F0D9B902B0BDE8D8
:1029F000F0812DE9F341089E04461D46B0F90830E8
:102A0000B0F90A00301A0090EB1A04F15000904619
:102A10000F460FF0C5FDB4F90A20B4F90830B21A18
:102A20000092EB1A4246394604F1B80010F057F90B
:102A300094F818317BB1B4F90A20B4F90830B61A09
:102A4000EB1A4246394604F18000089602B0BDE810
:102A5000F04110F044B902B0BDE8F08170B5044611
:102A600005291AD8DFE801F0030F191903170B49DC
:102A700004F1500010F049F8236820469B6CBDE833
:102A8000704000211847006A28B10368D4E9091290
:102A90005D682346A8470021EAE770BD808080007A
:102AA00010B103689B681847704700002DE9FF4785
:102AB0000446DDE90C751E464FF0FF30E064301827
:102AC000218101440E9BA181791E62810A44E28129
:102AD000EA1AC4E90E2326826782012100204FF002
:102AE0000A0C83425BDC216404F58470002B5AD00D
:102AF000009310211346364A20F0B0FA013504F154
:102B0000F00A5046FDF776FBA84252D1002501237A
:102B10002A462946CDE9015304F150003346009777
:102B20000FF07CFF10F0C0FF04F1B8096FF07F4890
:102B3000514601902B462A464846CDF8008010F0B9
:102B40009EF9D4E90E329E18D4F8E800B4F910A02A
:102B50000136AA4218BF0136FFF7A2FFB4F9CA2016
:102B6000F6B2BA1A00FB16A102EBD2722B46521033
:102B70004908484610F02EFE10F096FF2B46CDE98E
:102B80000080144904F180002A4610F078F9236887
:102B90009B6C2946204604B0BDE8F04718470CFB63
:102BA00001F101309DE7134610210B4A20F056FA3F
:102BB000A5E704F1EF0100239D4294BF002201220A
:102BC00001335201182B01F8012FF5D19EE700BF08
:102BD0000E5B0208940403081F5B0208C36F99424E
:102BE00010B5044609D050300FF06CFF2368204622
:102BF0009B6CBDE810400021184710BD10B5036F55
:102C0000C0E90C12044690F82C00002818BF1146A9
:102C100099420AD004F150000FF064FF2368204667
:102C20009B6CBDE810400021184710BD38B5154613
:102C30000446FFF7D3FF294620464FF47F42BDE804
:102C40003840FFF7DBBF436C99420A46B8BF1A46CB
:102C5000836C9A42A8BF1A46C36C934273B504466C
:102C60002ED0C264E56BB83004F1F00104F5847332
:102C70005DB90092182210F07CFA236820469B6C04
:102C800000219847012002B070BD266C92FBF6F53A
:102C900006FB1522002AB8BF5242CDE90052182285
:102CA00010F067FAE36C002BE7DA226C93FBF2F387
:102CB000002BE2D1A36B23442D2283F8EE20DCE726
:102CC0000020E0E7C0E91112C16CFFF7BCBF90F82B
:102CD0001831022B2DE9F041044600F08580D0E93F
:102CE0000E72013B1744B0F91050002A18BF01378B
:102CF00000F1B806042B00F29D80DFE803F02F9B63
:102D000003527C00D0F8E800FFF7CAFEB4F9CA30DD
:102D1000B4F91220D21AB4F99030A91EC91A94F845
:102D2000E4307B4300FB131102EBD27230460023E8
:102D30005210490810F04EFDB4F9C450D4F8B00058
:102D4000B4F9C67004F18006023510B10368DB687F
:102D5000984700233A1A2946304643E0B0F9CA3072
:102D6000B0F91220B0F99010D21AB0F99230D21AFC
:102D7000691A02EBD272002352104908803010F019
:102D800029FDD4F8E800B4F91050FFF789FE94F853
:102D9000E430B4F98E207B4300FB13510023490833
:102DA000DAE7D0F8E800FFF77BFEB4F9CA30B4F9EF
:102DB000122094F8E410D21A794300FB115102EB6F
:102DC000D272002352104908304610F003FDB4F9C6
:102DD0009030B4F91010B4F9C620C91A490800237C
:102DE00004F1800010F0F6FC236820469B6CBDE8DF
:102DF000F04100211847D0F8E800FFF751FEB4F980
:102E0000CA30B4F9122094F8E410D21A794300FBC6
:102E1000115102EBD272002352104908304610F0D3
:102E2000D9FCB4F9C400B4F99010B4F9C620002359
:102E3000411AD5E7D0F8E800FFF732FEB4F9CA30FE
:102E4000B4F91220D21A94F8E43002EBD2727B4328
:102E500000FB135152100023A1E770B500F1B80632
:102E600004461546304610F0E3F8E9B2304610F05B
:102E70001AF92046FFF72BFF236820469B6CBDE81C
:102E800070400021184770B500F1800604460D46D9
:102E900080F818211946304610F0CAF82946304605
:102EA000002210F039F92046FFF711FF2368204671
:102EB0009B6CBDE870400021184790F82C308B4285
:102EC00010B5044611D0D0E90C2380F82C1000294D
:102ED0000CBF1146194650300FF004FE23682046FF
:102EE0009B6CBDE810400021184710BDC0E90812D6
:102EF0008362704710B5D0B109B9002010BD0379C5
:102F0000052B0ED84FF490725343C2188468D2F840
:102F1000AC2103F5B07301FB04211844FFF793FEC5
:102F2000EBE7D0F8643F00F618701944F6E701208B
:102F3000E4E72DE9F843044603F0B0FE04F59851A8
:102F400003F071FF04F5B07504F1100700264FF48B
:102F5000907941F24C782B682846DB689847FEF759
:102F600035FC09FB06F303EB08020344104453F855
:102F70000830DB689847D5F8C03605F5D860DB68BF
:102F800098473B683846DB6801369847062E05F5BA
:102F9000907507F13807DED141F2380541F2782605
:102FA00063596019DB68C0359847B542F8D104F61B
:102FB000187010F0E8FB04F56E6010F0E4FB04F507
:102FC000955004F58054183010F0DDFBD4F8F00271
:102FD0000368DB689847D4F8F4020368DB68984715
:102FE0004FF00000BDE8F88300F580532DE9F04F65
:102FF000D3F8FC32D3F82C34062B8DB028BF06232F
:103000000233B2FBF3F2A2F108030C1D04938346D2
:1030100010F04AFD0368DB689847049B00EB8000D2
:10302000984207D210F040FD0368DB68984700EB38
:1030300080030493049B0694043B5B080793049B62
:103040000833099300235E465F4605930BF58054D1
:10305000D4E9BE23D2F8A01093F83024D3F82C344E
:103060000598062B28BF06239842C0F0F7800BF581
:1030700093580BF594570BF5815508F11808133741
:10308000183500264FF003094FF4907AD4F8FC323B
:1030900093F83024D3F82C34002A14BF3946414623
:1030A000062B28BF0623013B0AFB03F3D4F8F822C2
:1030B000069103F5B0705B44D2F8A020D3F86031DC
:1030C00092FBF9F2724304325B6B059258449847C5
:1030D00001230293049B0193D4F8F832D3F8A03073
:1030E00093FBF9F3083BDDE90521009300F10803A8
:1030F000284611F00DFFFEF709F9002301461A4694
:10310000284612F0AEF801362846032112F032F8B4
:10311000032E08F1090807F10C0705F1C005B5D128
:1031200010F010FC03689B689847D4F8F832B4F9A3
:103130004690D3F8A080054610F004FC03689B6815
:103140009847A8F110034FF00A0808FB05F1052283
:1031500000250BF61877CDE9012509F10809049A35
:10316000009208FB10334A4638460C31FFF79EFCAC
:10317000FF2204213846FFF759FD10F095FC02228A
:1031800001463846FFF769FE42F2107238460121C7
:10319000FFF798FD4FF496713846FFF754FDD4F8C9
:1031A000FC32A84C93F83024A74BAA4208BF1C4617
:1031B00010F07AFC3246034621463846FFF763FE9C
:1031C000FEF7A4F82B4601462A4638460127FFF7AA
:1031D0008DFE8BF82D7F10F0B5FB0BF56E646FF054
:1031E0007F462B462A4601909849009620460FF0CC
:1031F00046FE204602210FF056FFBBF92A3FBBF9DD
:10320000221F03EBD37301EB6301BBF9F23E03EB27
:10321000D372A1EB62022B460421204610F0DAFAA9
:103220000BF587503946CBF80880183012F00EF8AD
:10323000BBF96841BBF96A7110F036FC0834CDE97E
:10324000006008370BF5955081493B4622461830FF
:103250000FF015FE28460DB0BDE8F08F002A14BF10
:1032600004220322A1F108030292072206F5B07599
:10327000019203EBD373049A00925B10069ADFF875
:10328000DC91062091FBF0F12846FFF70FFCFF22AE
:1032900004212846FFF7CAFC10F006FC0222014672
:1032A0002846FFF7DAFD9DF814A0D4F8FC02514639
:1032B00001F041FF01462846FFF7C5FCD4F8FC3277
:1032C000644A93F83034002B08BF4A46904610F009
:1032D000EBFB4146034603222846FFF7D4FDFEF7E9
:1032E00015F800231A4601462846FFF7FFFDD6F8D9
:1032F0006031012128465B6C9847D6F8603128463A
:103300001B6B9847D6F86031011D0B915B6B28460B
:103310009847079BC31A0893D4F8F832D3F8A02033
:10332000D6F860310A921B6B284698470A9A0B9987
:10333000131AD4F8FC2292F83024002A14BF042275
:1033400003220292082206F502680192079A00926F
:10335000083B4046089AFFF7A9FB3F4A0221404636
:10336000FFF764FC10F0A0FB012201464046FFF786
:1033700074FD00214046FFF766FCD4F8FC32354A64
:1033800093F83034002B18BF914610F051FB032204
:10339000034649464046FFF776FD5146D4F8FC0205
:1033A00001F084FE814610F0CDFA6FF07F4307F103
:1033B0001008009300231A464946019040460FF03A
:1033C0005EFD022140460FF06EFE3B699B6908934B
:1033D000D6F8603128469B6A98473B6982469B6BCA
:1033E0004046984700EBD0700AEBDA734FEA600A68
:1033F000CAEB630AD6F860312846DB6A9847D6F8EC
:1034000060318146DB6B284698473B6900EBD07002
:1034100009EB6005DB6B4046984700EBD070A5EBED
:1034200060020023089D51464046A847059B099A23
:1034300001330593069B134406F5907638370693BF
:1034400006E600BF885B0208815B0208935B020806
:10345000940403087C5B020880808000FE620208FE
:103460002DE9F04F04468BB000F1100905464FF0EE
:10347000000800F58057D7F8FC32D3F82C34062B1F
:1034800028BF062398453AD341F2380541F2782601
:10349000635960199B686521C0359847B542F7D1DB
:1034A000642104F6187010F057F9642104F56E6079
:1034B00010F052F904F595506521183010F04CF9D0
:1034C000D7F8F002036866219B689847D7F8F402A2
:1034D000036866219B68984703F0E0FB0546FDF70B
:1034E00015FF04F59853014600932846414A2346A8
:1034F00003F081FC4FF000000BB0BDE8F08FFEF749
:1035000065F94FF4907303FB08F341F24C7B06938B
:1035100003EB0B06D5F82038049005F5026A064443
:103520009B6A5046984705F5B0730593D5F860310E
:103530000790DB6A05989847D5F8203809909B6B6F
:1035400050469847D5F820180890C96B50468847D0
:10355000D7F8FC1291F83014002914BF042103217C
:1035600002910821DDE90832CDE9000107993046D2
:10357000FFF79CFA204A02213046FFF757FB10F074
:1035800093FA012201463046FFF767FCD7F8FC3278
:103590001A4993F830241A4B002A08BF194607919C
:1035A00010F046FA0322034607993046FFF76BFCFA
:1035B000D5F8603105989B6864219847069A049B6A
:1035C0001344642153F80B3030469B689847D5F874
:1035D000203864219B6850469847D9F80030484607
:1035E0009B686421984708F1010805F5907509F179
:1035F000380940E7F52E0008808080007C5B0208D7
:10360000FE620208017905292DE9F84398BF0021DF
:10361000044688BF012100F61870FFF74EFC04F540
:10362000B076002504F580594FF6FF77E9B2D9F856
:10363000FC02D6F84C8001F07EFD4FF47F424045FD
:1036400014BF3946FF213046FFF7D8FA2179A1EBA4
:10365000050CDCF1000141EB0C0130460135FFF7B0
:103660002CFC062D06F59076E0D1A1684B1E594240
:1036700004F581505941183011F0E8FDA168A1F11D
:103680000A02514204F587505141183011F0DEFD15
:10369000A168A1F164004142414104F58D50183008
:1036A000BDE8F84311F0D2BD2DE9F04700F5805791
:1036B0000446D7F8FC3293F8312400F59550022ADD
:1036C00000F1180033D193F800542F492F4B0022FA
:1036D000954218BF19460FF01FFD01F053FC237BE4
:1036E00090F88C63B34202D0032B23D02673FEF7ED
:1036F0006DF82749FEF718F9FEF768F82549FEF737
:1037000045F90025A0462E46D7F8FC02D0F82C3407
:10371000062B28BF06239D4208F5907923D316B1C6
:103720002046FFF76FFF4FF00000BDE8F0871A4911
:103730000022D0E7012ED9D104F5B0780025D7F8C2
:10374000FC02D0F82C34062B28BF06239D42CDD294
:10375000E9B201F0F0FC01464046FFF774FA01358A
:1037600008F59078EBE7E9B2D9F88CA001F0E3FC1A
:10377000AAEB000108F50260FFF765FA3043C6B214
:103780000135C846C0E700BF995B0208097A020804
:10379000A05B0208A45B02089404030800F58153AF
:1037A00018339942F7B5044608D10123A3600025D8
:1037B0002046FFF727FF284603B0F0BD00F58753EA
:1037C0001833994201D10A23F0E700F58D531833DD
:1037D000994201D16423E9E700F58055D5F8F0322C
:1037E0008B4214D1D5F8FC0290F88C33012B49D1CF
:1037F0000193D4F8643F642253430093D4F8EC332C
:10380000D4F8CC22D4F8AC1102F08CFBCFE7D5F879
:10381000F4328B421FD1D5F8FC3293F88C33012B54
:1038200030D100F5B0770026D5F8FC02D0F82C3462
:10383000062B28BF06239E42B9D297F82C3033B10D
:10384000F1B201F078FC01463846FFF7FCF9013689
:1038500007F59077E8E700F6187399420FD000F566
:10386000B07291424FF000030AD04FF490700133D0
:10387000062B9CD000FB0325A942F8D100E00623CB
:10388000237194E7082593E72DE9F84F624B036015
:10389000062303710A23836000230646037300F1A5
:1038A000100400F5B07520463834FDF771FDAC42C8
:1038B000F9D106F50265204604F59074FDF7BEFDCA
:1038C000AC42F8D106F56E65204604F59074FDF71C
:1038D000B5FDAC42F8D12046FDF75AFD06F618704A
:1038E000FDF7ACFD06F5815406F59358DFF834B1C9
:1038F000DFF834A1183408F1180800252046FDF738
:1039000029FD6FF07F4323630127C4F800B084F8DA
:10391000345084F83550C4E90855C4E90A5504F117
:1039200038004FF0FF39FDF715FDC4F838A02566C3
:1039300084F86470A56684F86C5084F86D5084F83F
:103940006E5084F86F70C4F87090A4F87850C4E991
:10395000165504F17C00FDF7FDFCC4F87CA0C4F80A
:10396000A45084F8A870C4F8AC5084F8B05084F81F
:10397000B15084F8B25084F8B370C4F8B490A4F88D
:10398000BC50C4E92755C0344445B7D1234B06F594
:10399000805404F51E7203F118071868596815461B
:1039A00003C50833BB422A46F7D119889B78AB7010
:1039B0001B4B298004F2932203F1240153F8040BDA
:1039C00042F8040B8B42F9D106F595501830FDF7FB
:1039D000DFFCFDF7FBFE00F5FA501C30C4F8F002E6
:1039E000FDF7F4FE00F503501C30C4F8F4020DF0AE
:1039F0008BF9C4F8F80201F0C5FA002384F80C33FF
:103A0000C4F8FC02C4E9C033C4E9C433C4F80833C1
:103A10003046BDE8F88F00BFB45B02089455020839
:103A2000AF5502086CFE02089493020810B50A4CC8
:103A30002368BFF35B8FDB070CD420461CF03DFFEF
:103A400040B10648FFF720FF05481EF035FB204631
:103A50001CF03FFF014810BDB82C0020BC2C0020FA
:103A6000F13A0008F8B5204B036000F580531F4E73
:103A7000C3F8B862044600F5955018300FF090FE78
:103A800041F2B81540F67877635960191B68C03D5C
:103A90009847BD42F8D104F61870FEF78DFBC4F8C4
:103AA000E06E04F56E600FF07BFE4FF45C656359C9
:103AB00060191B68A5F590759847B5F5E06FF6D1CC
:103AC000635960191B68A5F590759847402DF7D18B
:103AD0004FF49475635960191B68383D984715F188
:103AE000280FF7D12046F8BDB45B020838950208CC
:103AF00008B50248FFF7B6FF08BD00BFBC2C002088
:103B000010B50446FFF7AEFF204641F218311CF015
:103B1000D2FE204610BD70B190F85830052B06D863
:103B200000EB8300C36B0B44C36300207047436DFD
:103B30000B444365F9E7012070472DE9F041044645
:103B400003F0ACF804F5A251183104F5805603F0E7
:103B50006AF9201D0FF017FED6F84C04FEF76EFE32
:103B600004F1600804F507674FF4D87563596019CC
:103B7000DB689847D8F800304046DB6898473B68D8
:103B80003846DB6805F590759847B5F5076F08F17D
:103B9000380807F1C007E9D140F6E85541F2E807D7
:103BA00063596019DB68C0359847BD42F8D104F508
:103BB0004F600FF0E8FD04F55B600FF0E4FD04F5E5
:103BC0008B5008300FF0DFFD04F5945008300FF0F3
:103BD000DAFD04F596500FF0D6FD04F59C500FF079
:103BE000D2FDD6F840040368DB689847D6F8440451
:103BF0000368DB689847D6F848040368DB68984791
:103C0000FDF7E4FD0021FDF7FDFD4FF00000BDE8EC
:103C1000F08100002DE9F743044604F58059FDF7D3
:103C2000D5FDFDF76DFEFDF7D1FDFDF78DFED9F851
:103C3000543493F83124022A0BD193F800046F49CD
:103C40006F4B0022904218BF194604F55B600FF0DD
:103C500063FA04F5D8760025D9F85404D0F82C344A
:103C6000062B28BF06239D42C0F0948004F1380340
:103C7000002653F8045F002D00F09780E36D5D434C
:103C800003F00CF8D0F88C30E26D142B38BF1423FD
:103C900053433C2253430A22B3FBF2F336B9D9F81B
:103CA000542492F83124022A08BF6D42002700975D
:103CB0002A46F1B2D9F8540402F078F80E3604EB33
:103CC0008606C5B27760D9F8543493F8213404F5E8
:103CD0009656002B6ED04B49304611F0C0F9D9F8FA
:103CE000543493F8203404F59C57002B64D0464993
:103CF000384611F0B4F9D9F8543403F58363D3EDA1
:103D0000007AFCEEE77A04F58B5017EE903A083013
:103D100099B2FEF798FF636DB3B1D9F8B4210A21C7
:103D200004F58B5001FB03210830FEF78CFFD9F816
:103D300054040023636590F820342BB190F82124BB
:103D4000D9F8B41102F002FCD9F8543493F8FF33D7
:103D500004F54F6804F507649BB3D9F8543493F81D
:103D60008C3303F0FD03012B30D1404611F037FABC
:103D70002046C03411F033FAA045F9D1384611F08D
:103D80002EFAD9F8543493F82034304683B311F026
:103D900041FA2FE0E9B201F0CEF901463046FEF7D4
:103DA00052FF013506F5907656E70136062E7FF470
:103DB00060AF88E715498FE71549384611F04FF98C
:103DC000A9E706F051F90379032BC6D0D9F84C04C2
:103DD000FEF734FD404611F01DFA2046C03411F0C4
:103DE00019FAA045F9D1384611F014FA3046CEE759
:103DF00011F0F5F9284603B0BDE8F083995B02089D
:103E0000097A0208D05B0208D45B0208D15B020881
:103E1000D95B02082DE9F74F0446012104300FF069
:103E20009BFC04F5D87604F5076704F16009B046F9
:103E30004FF0000BBA4604F58055D5F85434D3F84A
:103E40002C34062B28BF06239B4572D340F6E85737
:103E500041F2E808E359E0199B686421C0379847AC
:103E60004745F7D1062384F858303046002106F53F
:103E70009076FFF722F8B245F7D1D5F8543493F88D
:103E80003134022B09D1652104F55B600FF064FC2D
:103E9000632104F54F600FF05FFC04F58B50642143
:103EA00008300FF059FC04F59450652108300FF0EC
:103EB00053FC642104F596500FF04EFC642104F588
:103EC0009C500FF049FCD5F85434B3F83234DB077A
:103ED0000FD5FDF77BFC0121FDF794FC2149D5F8B6
:103EE000440411F0BCF8D5F84404036866219B68CB
:103EF0009847D5F84004036866219B689847D5F831
:103F00004804036866219B68984702F0C7FE05468F
:103F1000FDF7FCF904F5A253183301460093284637
:103F2000114A234602F067FF4FF0000003B0BDE8DE
:103F3000F08FD8F8003064219B6840469847D9F844
:103F4000003064219B68484698473B6838469B6828
:103F5000642198470BF1010B08F5907809F13809B5
:103F6000C0376AE7DF5B0208173B00082DE9F04F16
:103F70008DB0CDE908120D1D04460FF095FD0368C4
:103F8000DB689847099B1E1F04F58053361AD3F847
:103F90005434D3F82C34062B28BF06230233B6FB47
:103FA000F3F6A6F1080304930FF07EFD0368DB68C7
:103FB0009847049B00EB8000984207D20FF074FDF5
:103FC0000368DB68984700EB8003049304F50763FC
:103FD0000693049B079508330A930023A046A14645
:103FE000059304F58055D5F85434D5F85024059838
:103FF000D2F8A01093F83024D3F82C34062B28BF25
:1040000006239842C0F0588104F58757083704F614
:10401000E8584FF000094FF4907B4FF0010AD5F8B3
:104020005034D3F8A020D5F8543493F83014143A0F
:104030009208002940F015823946D3F82C34062B1B
:1040400028BF0623013B0BFB03F303F5D870234481
:10405000CDE90512D3F8B03120445B6B9847069A3E
:10406000049B0599CDF808A002F1040C09FB0CFC97
:10407000CDE900230CF1040200F10803404610F0E2
:1040800047FFFDF743F9002301461A46404611F069
:10409000E8F809F101094046032111F06BF8B9F184
:1040A000040F07F10C0708F1C008B8D1012104F68C
:1040B000687011F0CBF8D5F8543493F83034002BF5
:1040C00040F0D281D5F85031E3654FF00108CDF8CA
:1040D0000880B4F9C2310193B4F9B8317049083B92
:1040E00004F54F670093B4F9BA310422384610F052
:1040F0000FFFFDF70BF9002301461A46384611F071
:10410000B0F8B4F9B871B4F9BAA10FF0CDFC6FF002
:104110007F4908370AF1080A019053463A4604F5E8
:104120005B605F49CDF800900EF0A9FED5F85034E1
:10413000DDE90821D3F8A0304FF0000A0A44052138
:10414000CDE9011A04F58B570499009103EBD37361
:10415000083743FA08F3043A063B521A384604215A
:10416000FEF7A4FCFF2204213846FEF75FFD0FF0A6
:104170009BFC022201463846FEF76FFED5F8543408
:104180003846B3F83614FEF75EFDD5F85434384699
:10419000B3F83424B3F83614FEF794FD0FF084FC22
:1041A0004049034603223846FEF76DFEFDF7AEF8A0
:1041B0005346524601463846FEF798FE414685F87A
:1041C0007D813846FEF779FE0FF06EFC04F59457BA
:1041D0000837CDE9009053465246384632490EF032
:1041E0004EFEB5F97221B5F9701153460832083107
:1041F00038460FF0EFFA049BB5F97421CDF808802A
:104200000193B5F978312949043B03EBD37343FAA1
:1042100008F304F596570093B5F972310532384624
:1042200010F076FEFDF772F85346014652463846C6
:1042300011F017F8049BB5F9CC22CDF80880019352
:10424000B5F9D032009304F59C57B5F9CA32184934
:104250000532384610F05CFEFDF758F8524601462C
:104260005346384610F0FDFFB4F9F67DB5F97251AA
:104270000FF01AFC0368DB68984706460FF014FC41
:10428000ED1B0422AD1BCDE900900A49A01807EBF5
:1042900055030EF0F4FD50460DB0BDE8F08F00BFA1
:1042A00094040308E85B0208EC5B0208D15B020897
:1042B000D95B0208245C0208002A14BF04220322EE
:1042C0000292082208F5D877A1F108030192049A16
:1042D00000920620079A91FBF0F19B0093FBF0F30C
:1042E0003846FEF7E3FBFF2204213846FEF79EFC2A
:1042F0000FF0DAFB022201463846FEF7AEFD002140
:104300003846FEF7A0FCD5F85434594993F83024C8
:10431000584B002A08BF19468A460FF0C5FB514684
:10432000034603223846FEF7AEFDFCF7EFFF0023FD
:104330001A4601463846FEF7D9FDD8F8B0310121BA
:104340005B6C384698479DF81410D5F8540400F07B
:10435000ADFE83460FF0F6FA6FF07F4309F1600A75
:10436000009300231A465946019050460EF087FDEF
:10437000022150460EF097FED9F860309B691E4628
:10438000D8F8B03138469B6A9847D9F86020834600
:10439000926B5046904700EBD0700BEBDB734110F3
:1043A000C1EB6301D8F8B0310B91DB6A384698470E
:1043B000D8F8B0218346D26B38469047D9F86030A0
:1043C00000EBD0700BEB600BDB6B5046984700EBBB
:1043D000D070ABEB60020B9900235046B047D8F881
:1043E000B03138461B6B9847D8F8B0318346DB6A4A
:1043F00038469847D5F850240B90D2F8A030D8F81A
:10440000B0213846126B1E469047D8F8B01182464C
:10441000C96B38468847A6EB0A0A0121AAF10802AF
:10442000CDE901010B9B1449069800920BF104029F
:1044300010F06EFDFCF76AFF00231A46014606984D
:1044400010F00FFF059B0A9A01330593069BC033BA
:104450000693079B134408F5907809F138090793F0
:10446000C1E507F13001E8E5D5F860312CE600BF81
:104470007C5B0208FE620208E45B020810B50021C2
:10448000044600F6E85010F0E1FE04F6A8600021B2
:1044900010F0DCFE04F66870002110F0D7FE04F581
:1044A00081500021BDE81040083010F0CFBE000060
:1044B0002DE9F04F00F5805689B0D6F840348B4294
:1044C00004460D4600F00581D6F848348B4200F0D2
:1044D0000081D6F844348B420BD100237E49D6F8B4
:1044E0005404079307AA01F0A1FB002009B0BDE81E
:1044F000F08F00F54F6399420DD1D6F8540490F82F
:10450000003423B100237549079307AAEBE77449E8
:10451000079307AAE7E7D6F84C348B4207D1D3F8C4
:104520001021197BD6F8540401F042FEDDE700F5B6
:104530009C5399420ED1D6F8540490F8203413B10C
:1045400002F056F8D1E790F82124D6F8B41101F022
:10455000FDFFCAE700F59653994212D000F6E853E2
:10456000994217D000F6A863994226D000F66873E6
:10457000994224D000F581530833994224D103276E
:1045800009E0D6F8540490F8211481F0010102F0FA
:104590000BF8AAE700272046FFF770FF0121284605
:1045A00010F054FED6F8543493F830344BB907F277
:1045B000524754F82730E36597E70127EBE70227D6
:1045C000E9E707F25647F4E700F5D87700F5076A00
:1045D000B9464FF00008CDF810A0A94570D199F860
:1045E0002C305FFA88FB002B3DD0D6F84C34D6F83F
:1045F00054040593594600F059FDD6F8543493F805
:104600003034002B14BF0422032201464FF0020075
:10461000D9F84C30CDE90220324A3348CDE90020A8
:104620003248334A08BF02460598FDF765FFD6F8C1
:104630004CB4FCF76BFE002301461A465846FDF7C2
:10464000F1FED6F84C0442F21071C0F80C80FDF770
:1046500017FF08F10108B8F1060F09F590790AF182
:10466000C00ABAD115E03E4630460021FEF725FCCF
:10467000049B06F590769E42F6D104F58B500021FE
:104680000830FEF71AFC01214846FEF716FC84F8B4
:1046900058B004F58B530833AB427FF426AF0121A9
:1046A0002846FEF70AFC062384F8583038460021D5
:1046B000FEF703FC049B07F590779F42F6D114E7C1
:1046C0005545C6D1D6F854045FFA88F101F042FD91
:1046D000BFE708200AE700BFF45B0208F85B0208A6
:1046E000FC5B0208806967FF80969800FE62020802
:1046F0007C5B0208F8B5564B044640F8043BFCF7D7
:1047000047FE1822002104F13C001EF071FD002339
:104710006365062384F858300123E36504F16005DE
:1047200004F5D87628463835FCF732FEB542F9D183
:1047300004F50766284605F59075FCF77FFEB5423F
:10474000F8D104F54F662846C035FCF735FEB54272
:10475000F9D12846FCF730FE04F55B60FCF718FE43
:1047600004F5875604F6E85508362846C035FCF7A8
:1047700023FEB542F9D1374B04F5805505F1E80623
:1047800003F1300718685968324603C20833BB4248
:104790001646F7D1304B03F1300C05F58C776246A5
:1047A000186859683E4603C6083363453746F7D153
:1047B0000FCA05F5A47686E80F00284B0FCB05F548
:1047C000AC7686E80F0004F58B500830FCF736FE17
:1047D00004F594500830FCF7DBFD04F59650FCF727
:1047E000EBFD04F59C50FCF7E7FDFCF7EFFF00F54F
:1047F000FA501C30C5F84004FCF7E8FF00F5005003
:104800001C30C5F84404FCF7E1FF00F503501C30F0
:10481000C5F84804FCF7DAFF00F506501C30C5F86F
:104820004C040CF071FAC5F8500400F0ABFB002307
:1048300085F86434C5F85404C5F85834C5F85C34B8
:10484000C5F86034C5F86834C5F86C342046F8BD46
:10485000085C0208D45502080456020844560208AF
:1048600010B50A4C2368BFF35B8FDB070CD42046DE
:104870001CF023F840B10648FFF73CFF05481DF047
:104880001BFC20461CF025F8014810BDD43F002039
:10489000D83F002035490008254B70B50360044619
:1048A00000F59C50FDF766FC04F59650FDF762FCA0
:1048B00004F594500830FDF749FC04F58B5008309E
:1048C000FDF77AFC41F2280540F628566359601935
:1048D0001B68C03D9847B542F8D104F55B60FDF711
:1048E00035FC04F54F60FDF745FC4FF44365635913
:1048F00060191B68C03D9847B5F5F66FF7D14FF4C6
:10490000EA65635960191B68A5F590759847902D65
:10491000F7D14FF4BC75635960191B68383D98474F
:10492000282DF8D1201DFDF711FC204670BD00BFD9
:10493000085C020808B50248FFF7AEFF08BD00BFDB
:10494000D83F002010B50446FFF7A6FF204641F2ED
:1049500070411BF0B0FF204610BD4FF000007047C3
:104960004FF0000070474FF00000704708B5806EB0
:1049700003210CF0F8FD4FF0000008BD61B990F87C
:10498000313083F0010380F83130012213B1034943
:104990000DF012BB0249FBE7704700BF000000208A
:1049A0001400002010B5034B036004460EF0F8FE1F
:1049B000204610BD408B020810B50446FFF7F2FFF9
:1049C000204634211BF077FF204610BD10B5034B65
:1049D00003600446FCF7A2FC204610BD605C0208A0
:1049E00008B50248FFF7F2FF08BD00BF3C550020A4
:1049F00010B50446FFF7EAFF20466C211BF05BFF71
:104A0000204610BD70B51E4E3568BFF35B8F15F0A4
:104A1000010532D130461BF050FF70B3194C1A4BD0
:104A20002046102240F8043B02212B460FF0ADFD3A
:104A30002A4629462B4604F124000FF0A6FD134B0D
:104A4000E564C4E915344FF48063A4F85E300223B2
:104A500084F860300E4B63660E4B2360C4E9115539
:104A600084F8505084F85C500CF04EF9A0660A4867
:104A70001DF022FB30461BF02CFF024870BD00BF2A
:104A8000385500203C55002004FE02085D43010813
:104A90003E5C0208605C0208E149000838B500236A
:104AA00001608380837104460CF02EF9A0601DF034
:104AB00043FB062590FBF5F303FB15000130207145
:104AC0001DF03AFB90FBF5F303FB150001300123C9
:104AD0006071A371204638BD2DE9F041044600689D
:104AE00003681B6B98470646206803689B6A9847D3
:104AF0000746206803685B6B984705462068036893
:104B0000DB6A984794F904202B18F01900EBD07059
:104B100003EBD37312EB60004FEA6303114604D436
:104B2000A568D5F8A050A84202DB524222710021AC
:104B300094F90500C318024604D4A568D5F8A4501A
:104B4000AB4202DB404260710022206803689C692E
:104B50000123A446BDE8F0416047000038B5044693
:104B60001D46084B0DF002FA074B236084F83150C4
:104B700025B904492A4620460DF01EFA0123637523
:104B8000204638BD000000208C5C02082DE9F0436F
:104B90000022ADF5177D05461146012343A8FFF716
:104BA000DDFFAB6EBDF91E11D3F8A420BDF91C01C9
:104BB000DFF85882521AD3F8A010091A02EBD27209
:104BC00001EBD17100235210491043A80EF002FEF0
:104BD0004FF0FF1601274FF4004143A80EF0BCFD33
:104BE0001E239622CDE90067782117A80EF04AF817
:104BF000282117A800240EF0AFFD4FF47F03CDE964
:104C0000003478221E23962121A80EF03BF8322191
:104C100021A80EF0A1FD4FF47F4978232222CDE98F
:104C200000392E21602305A80DF0E0FF1E2105A804
:104C30000EF092FD4C232222CDE900382E216E2366
:104C40000EA80DF0D3FF1E210EA80EF085FD0EF06C
:104C5000B5FE22460A23CDE900606A4950A80EF04D
:104C600059F9462150A80EF077FD0EF0E1FE2246DC
:104C70001423CDE9008063495EA80EF04BF9502162
:104C80005EA80EF069FD0EF049FF4FF6FF78224650
:104C90001E235C490190CDF800806CA80EF03AF913
:104CA0005A216CA80EF058FD0EF0C2FE22463223A7
:104CB000CDE901605349CDF800907AA80EF096F93D
:104CC00064217AA80EF048FD0EF002FEFF2622466F
:104CD00046234C490190009688A80EF01BF96E21DE
:104CE00088A80EF039FDCDE901670A262246642323
:104CF000214600962BA80DF0C3FE31462BA80EF0DE
:104D00002BFD1423462200966421CDE9018737A8A4
:104D10000DF0B6FE142137A80EF01EFD0C200BF08E
:104D20009BFF394C17A90646FFF7B8FE0C202660FA
:104D30000BF092FF21A90646FFF7B0FE0C2066603B
:104D40000BF08AFF05A90646FFF7A8FE0C20A66017
:104D50000BF082FF0EA90646FFF7A0FE0C20E660CE
:104D60000BF07AFF50A90646FFF798FE0C2026614B
:104D70000BF072FF5EA90646FFF790FE0C206661FD
:104D80000BF06AFF6CA90646FFF788FE0C20A661AF
:104D90000BF062FF7AA90646FFF780FE0C20E66161
:104DA0000BF05AFF88A90646FFF778FE0C20266212
:104DB0000BF052FF2BA90646FFF770FE0C2066622F
:104DC0000BF04AFF37A90646FFF768FEA662A86EF9
:104DD0004FF0FF310CF069F8C4B2002CF7D10A4E45
:104DE00056F8040B0134FFF777FE0B2CF8D1A86EB0
:104DF0000CF060F8A86E0CF06CF801200FF037FD95
:104E0000E5E700BF485C02084854002000FFFF00AF
:104E1000034BD3F85C23034B1A615A62704700BFFF
:104E20008C8B02080000002008B5806E03689B6828
:104E300098474FF0000008BD08B528B905F014F9EF
:104E40000079C31E5842584108BD70B50446806EB3
:104E500003681B6A984780B9D4F83834002B60D0B7
:104E600094F8FF03FFF7E8FF00285AD1D4F838344C
:104E7000C4F888330024204670BDD4F83854D5B91E
:104E800094F86C303F2B39D194F86F33002BF1D06C
:104E90000FF0EBFCC4F87403A06E84F86F53036842
:104EA000DB69012204F16C019847C0B20628D3D017
:104EB0002228DFD1D0E794F8FF03FFF7BDFF0028D9
:104EC000CAD094F87033002BC6D194F80D34002B5F
:104ED000CCD104F2BC454FF0FF3128460FF0E6FA82
:104EE0000FF0C3FC012384F87033D4F83834C4F8CD
:104EF0007C03C4F8883328460FF0FDFA04F16C05F2
:104F00004FF4807204F23C4128461EF098F9A66ED8
:104F10002846FBF76FF933680246DB6929463046BD
:104F2000C2E704F587610023012220460FF0F9F95A
:104F3000C4B201200FF09DFC9DE7000010B5064BA8
:104F40000360044600F2BC400FF0A8FA2046FCF7CC
:104F5000E5F9204610BD00BF4C6C020808B50248B8
:104F6000FFF7ECFF08BD00BFAC55002010B50446AC
:104F7000FFF7E4FF204640F2BC611BF09CFC20469A
:104F800010BD00002DE9F041DFF81C81D8F8005079
:104F9000BFF35B8F15F0010572D140461BF08DFC0D
:104FA00000286DD0384C394B394F2046102240F83C
:104FB000043B22212B460FF0E8FA2B4620218422C5
:104FC00004F124000FF0E1FA324A84F85050C4E9A9
:104FD00015244FF48062A4F85E20022204F5876352
:104FE00084F860202C4A6266C4E911352B4A22609D
:104FF0000123C4E9E1352A4AE36484F85C30A4F86B
:105000002A3404F2BC400323C4E9DD55C4E9DF556A
:10501000A566C4F86C2384F8705384F80154C4F86E
:105020002C34C4F83054C4F834540FF02DFA0FCF98
:1050300004F598650FC597E8070007F10C0685E8A9
:1050400007000FCE04F2DC450FC50FCE0FC596E862
:10505000070085E80700502207F1380104F5A16038
:105060001EF02DFA4FF4B27207F1880104F5AB601F
:105070001EF025FA0B481DF01FF840461BF029FCD6
:105080000148BDE8F08100BFAC55002004FE0208D5
:10509000545602085D430108F86202084C6C02088D
:1050A000000001015D4F0008A8550020D0F82C3405
:1050B0009942A8BF062101F5987150F82100704768
:1050C0000B2928BF002100EB8100D0F8DC047047D9
:1050D000582928BF582101F5AB7150F821007047BD
:1050E000D0F82C34994270B504460D4621DA00F20E
:1050F000BC464FF0FF3130460FF0D8F994F8303409
:10510000002B42F2107308BF4FF47A7307EE903A07
:1051100004EB850595EDE47AF8EEE77A304667EE24
:10512000877AFDEEE77A17EE904A0FF0E4F9204611
:1051300070BD0024FBE7D0F82C34994270B50546C9
:105140000C4625DA00F2BC464FF0FF3130460FF036
:10515000ADF995F8303405EB8404D4EDEA7A94ED9A
:10516000E47A002B42F2107308BF4FF47A7337EEE3
:10517000677A07EE903AF8EEE77A304667EE877A7C
:10518000FDEEE77A17EE904A0FF0B5F9204670BDB4
:105190000024FBE7D0F82C34994270B504460D4644
:1051A00021DA00F2BC464FF0FF3130460FF07EF9B5
:1051B00094F83034002B42F2107308BF4FF47A7326
:1051C00007EE903A04EB850595EDF07AF8EEE77A74
:1051D000304667EE877AFDEEE77A17EE904A0FF0D9
:1051E0008AF9204670BD0024FBE7D0F82C349942A0
:1051F00070B505460C4625DA00F2BC464FF0FF318B
:1052000030460FF053F995F8303405EB8404D4EDB3
:10521000EA7A94EDF07A002B42F2107308BF4FF453
:105220007A7337EE677A07EE903AF8EEE77A30460F
:1052300067EE877AFDEEE77A17EE904A0FF05BF99A
:10524000204670BD0024FBE790F87023D0F8883327
:1052500022B9994202D190F80D047047994234BFA7
:1052600054205520704710B50446FFF7EDFF40B9B4
:10527000D4F88003D4F8783398422CBF0020012062
:1052800010BD542802D1D4F87C03F3E70020F7E7DF
:1052900000B5A3B000238DF80810012201A90193E5
:1052A0008DF809300FF03DF823B05DF804FB0000E5
:1052B00010B5044604F0D8FE027972B916484FF4CE
:1052C000005110F047FB94F808346FF3000384F8A2
:1052D0000834012384F86E3310BD04F0C5FE037951
:1052E000012B0CD194F86E33002BECD18B2120468E
:1052F000FFF7CEFF0FF0B9FAC4F87803E3E704F044
:10530000B3FE0379022BDED1034800224FF4005193
:1053100010F020FBE6E700BF0008024038B5044665
:1053200004F0A2FE0579BDB91E4801224FF40051D8
:1053300010F010FB84F86E53D4F88423C4F888234B
:1053400094F80824002363F3000284F8703384F88F
:105350000D3484F8082424E004F086FE0379012B40
:105360000DD194F86E3333B194F8FF331BB18B2118
:105370002046FFF78DFF002384F86E33DCE704F04E
:1053800073FE0379022B06D1064801224FF4005127
:1053900010F0E0FAE5E704F067FE94F86E33002BB6
:1053A000CAD038BD0008024073B5069D83EAE37495
:1053B0001846A4EBE37442F210739D420E46114668
:1053C00012D1B4FBF5F305FB1344264ACDE90034B2
:1053D000254B13EA200338BF1346244A30461DF0FC
:1053E0003DFE304602B070BDB5F57A7F0DD1B4FBFD
:1053F000F5F305FB13441B4ACDE900341A4B13EABD
:10540000200338BF13461A4AE8E7642D0DD1B4FBD8
:10541000F5F305FB1344134ACDE90034124B13EAAC
:10542000200338BF1346134AD8E70A2D0DD1B4FB29
:10543000F5F305FB13440B4ACDE900340A4B13EA9C
:10544000200338BF13460C4AC8E7064A064B0094AF
:1054500013EA200338BF1346084A30461DF0FEFD0C
:10546000BFE700BF94040308136C0208016302083D
:105470000D630208196302082563020831630208FC
:10548000F7B5DDE9087600970C461546FFF78CFF67
:105490004EB12046FAF7AEFE044B054A0096291A93
:1054A00020441DF0DBFD204603B0F0BD6406030878
:1054B000376302082DE9F0410F4605463A21384688
:1054C0001DF09EFE38B3002300F8013B1CF0FDFDEB
:1054D000C4B205F59B68002658F8041F3846FAF751
:1054E0007FFE08B9F6B203E001360B2EF4D1002698
:1054F00095F88C33B34203D195F88D23A2420CD09A
:1055000013B9012385F82A3485F88C6385F88D4317
:105510000120BDE8F0810446DBE70020F9E710B583
:1055200010460C461CF0CEFD51EC100BFBF774FB43
:1055300094ED007A07EE900AB4EE677AF1EE10FA75
:1055400016BF01200020C4ED007A10BD10B5104632
:105550000C461CF0BAFD22680346824216BF0120A9
:105560000020236010BD2DE9F041002506460C46C1
:1055700090462F46D6F82C34AB4202DC3846BDE8C4
:10558000F08108EB850122463046FFF7C8FF2C2149
:10559000002818BF074620461DF032FE0028EDD037
:1055A000441C0135E6E790F8FC3310B5044663B3BC
:1055B000D0EDEA7AF5EE407AF1EE10FA0FD1D0EDA7
:1055C000EB7AF5EE407AF1EE10FA08D1D0EDEC7AF4
:1055D000F5EE407AF1EE10FA14BF0123002394F89F
:1055E000042463F3C302002384F80424C4F8A8331A
:1055F000C4F8AC33C4F8B03394F8043494F8FD2301
:1056000062F3451384F8043410BD00F56A72FFF7A5
:10561000AAFF94F8043460F3C30384F80434EBE77E
:1056200070B50E4604462C2130461DF0E9FD0546B6
:10563000002305F8013B324604F57C712046FFF754
:1056400085FF28B194F8063443F0010384F806344A
:105650002C2128461DF0D4FD0646002306F8013B08
:105660002A4604F57D712046FFF770FF28B194F8B3
:10567000063443F0020384F80634324604F224412F
:105680002046FFF763FF28B194F8063443F0040383
:1056900084F8063470BD70B50D4604462C212846AA
:1056A0001DF0AEFD0646002306F8013B2A4604F530
:1056B0007E712046FFF733FF28B194F8053443F09C
:1056C000020384F805342C2130461DF099FD05466F
:1056D000F0B1002305F8013B324604F58361204612
:1056E000FFF71DFF28B194F8053443F0040384F854
:1056F000053465B12A4604F21C412046FFF70FFF2E
:1057000028B194F8053443F0040384F8053470BDDF
:1057100004F21C4300221A60DEE700002DE9F84382
:1057200000F5B676B84904463046FAF759FD054605
:1057300048B90FF09AF884F87053C4F8800384F8DD
:105740000D54BDE8F88394F86C31242B2AD13D2107
:1057500030461DF055FD054620B3002305F8013BFA
:1057600004F26D101CF0B1FC0D280CD016380A287C
:1057700018D80A2816D8DFE800F064151515151595
:105780001515717E8B00284694F830741CF09DFC32
:10579000874207D028461CF098FC84F83004012387
:1057A00084F82B3494F86C313C2B40F06F8101234A
:1057B00084F86F330FF059F89449C4F8780304F271
:1057C0006D101DF04FFD0546F8B101462046FFF76C
:1057D00071FE28B194F8043443F0020384F80434D1
:1057E00094F80C3463B194F88C33052B08D094F8FA
:1057F0000534002262F3C30384F80C2484F80534D2
:10580000824900201DF02EFD0546814FDFF81482ED
:10581000DFF814920026002D47D1002E91D194F884
:105820000E34002B94F805341ABF84F80E6401225C
:10583000002262F3861384F80534002384F80134CF
:105840007FE72846B4F832741CF03FFC8742A9D0A9
:1058500028461CF03AFCA4F83204A0E72846B4F825
:1058600034741CF036FC87429CD028461CF031FC76
:10587000A4F8340493E72846B4F836741CF029FCE5
:1058800087428FD028461CF024FCA4F8360486E713
:10589000284694F831741CF018FC874282D02846C0
:1058A0001CF013FC84F8310479E7052239462846B8
:1058B0001DF0B3FCE8B994F8FC3343B9012384F834
:1058C000FC3394F8043443F0080384F8043404F5FA
:1058D0006472691D2046FFF746FE94F8043460F3B5
:1058E000820384F80434494900201DF0BBFC0546BE
:1058F00091E70522414628461DF08FFC30B994F807
:10590000FC33002BE3D084F8FC03DAE7032249469A
:1059100028461DF082FC20B9E91C2046FFF7BBFE9B
:10592000E1E73C49042228461DF077FC20B9291DF7
:105930002046FFF738FED6E73749032228461DF0F8
:105940006CFC10BB04F20D42023504F2174106460E
:1059500002F8016F15F8013F83B13E2B0ED094F889
:10596000053443F0400384F805342B78137003F0BA
:10597000DF03502B08BF01209142E9D1002384F8B6
:10598000173484F801040126ADE724490222284691
:105990001DF043FC68B9AB78A3F1310043424341A9
:1059A00084F8003494F8053443F0200384F8053477
:1059B00099E71B49022228461DF02FFCC8BB94F82A
:1059C0000434A4F8280443F04003023584F820048A
:1059D00084F80434012240F2011115F8013B002B38
:1059E00081D04D2B0CD006D8432B1FD0462BF4D1A1
:1059F00084F82824F1E7532BEFD1A4F82024ECE716
:105A000084F82924E9E700BF3C6302083F630208E9
:105A1000416302085163020856630208965B02085C
:105A20005A630208476302084D630208A4F8201471
:105A3000D3E74F49032228461DF0EFFB20B9E91CAC
:105A40002046FFF7EDFD4EE74A49042228461DF0A7
:105A5000E4FB00287FF447AF2A7994F8FF33A2F1E2
:105A600031014A424A419A4209D083F0010384F845
:105A7000FF3394F8043443F0010384F8043494F8B9
:105A8000083443F0010384F808342CE75B2B43D13E
:105A900004F26D153849042228461DF0BEFB18BBE0
:105AA00004F5707204F271112046FFF75CFD94F862
:105AB000063460F3C30384F80634304904222846D0
:105AC0001DF0ABFB00287FF43CAE04F2711204F22F
:105AD0002C412046FFF73AFDD4F82C34022B16DC7B
