:020000040800F2
:1000000000000220F1B7010849AF01084BAF010819
:100010004DAF01084FAF010851AF010800000000CB
:10002000000000000000000000000000D1A1010855
:1000300053AF01080000000061A2010855AF01089C
:1000400041B8010841B8010841B8010841B80108A8
:1000500041B8010841B8010841B8010841B8010898
:1000600041B8010841B8010841B8010841B8010888
:1000700041B8010841B8010841B8010841B8010878
:1000800041B8010841B8010841B80108000000006A
:1000900000000000000000000000000041B801085E
:1000A00041B8010841B8010841B8010841B8010848
:1000B00041B8010841B8010841B8010841B8010838
:1000C00041B8010841B8010841B8010841B8010828
:1000D00041B801086DAF010841B8010800000000F7
:1000E00041B8010841B8010841B80108000000000A
:1000F00000000000000000000000000041B80108FE
:100100000000000079AF010841B8010841B80108BA
:1001100000000000000000000000000000000000DF
:1001200041B8010841B8010885AF010891AF010845
:1001300041B80108000000000000000000000000BD
:100140000000000000000000000000009DAF01085A
:10015000A9AF010841B80108B5AF010841B80108CD
:1001600041B8010841B8010800000000000000008B
:10017000000000000000000000000000000000007F
:100180000000000041B8010800000000000000006D
:0801900041B8010841B8010863
:1001A00010B5054C237833B9044B13B10448AFF3B1
:1001B00000800123237010BD5003002000000000C8
:1001C000BC04020808B5034B1BB103490348AFF355
:1001D000008008BD0000000054030020BC04020899
:1001E00010F8012B11F8013B012A28BF9A42F7D0E1
:1001F000D01A7047034613F8012B002AFBD1181AB6
:1002000001387047000000000000000000000000FE
:1002100001F0FF01102A2BDB10F0070F08D010F8B7
:10022000013B013A8B422DD010F0070F42B3F6D1BB
:10023000F0B441EA012141EA014122F007047FF0D4
:1002400000070023F0E80256083C85EA010586EA2B
:10025000010685FA47F5A3FA87F586FA47F6A5FA67
:1002600087F68EB9EED1F0BC01F0FF0102F0070273
:1002700032B110F8013B013A83EA010313B1F8D11E
:100280000020704701387047002D06BF35460338FF
:10029000073815F0010F07D1013015F4807F02BF38
:1002A000013015F4C03F0130F0BC0138704700BF89
:1002B00081F0004102E000BF83F0004330B54FEA17
:1002C00041044FEA430594EA050F08BF90EA020F84
:1002D0001FBF54EA000C55EA020C7FEA645C7FEA17
:1002E000655C00F0E2804FEA5454D4EB5555B8BF3A
:1002F0006D420CDD2C4480EA020281EA030382EAAB
:10030000000083EA010180EA020281EA0303362D3C
:1003100088BF30BD11F0004F4FEA01314FF4801C0F
:100320004CEA113102D0404261EB410113F0004F21
:100330004FEA03334CEA133302D0524263EB4303D8
:1003400094EA050F00F0A780A4F10104D5F1200E76
:100350000DDB02FA0EFC22FA05F2801841F10001D1
:1003600003FA0EF2801843FA05F359410EE0A5F1A5
:1003700020050EF1200E012A03FA0EFC28BF4CF0D6
:10038000020C43FA05F3C01851EBE37101F000458C
:1003900007D54FF0000EDCF1000C7EEB00006EEB99
:1003A0000101B1F5801F1BD3B1F5001F0CD3490823
:1003B0005FEA30004FEA3C0C04F101044FEA44527A
:1003C00012F5800F80F09A80BCF1004F08BF5FEA01
:1003D000500C50F1000041EB045141EA050130BDE1
:1003E0005FEA4C0C404141EB0101013C28BFB1F5F3
:1003F000801FE9D291F0000F04BF01460020B1FA3E
:1004000081F308BF2033A3F10B03B3F120020CDA10
:100410000C3208DD02F1140CC2F10C0201FA0CF0EE
:1004200021FA02F10CE002F11402D8BFC2F1200C53
:1004300001FA02F120FA0CFCDCBF41EA0C01904009
:10044000E41AA2BF01EB0451294330BD6FEA040452
:100450001F3C1CDA0C340EDC04F11404C4F120023D
:1004600020FA04F001FA02F340EA030021FA04F34F
:1004700045EA030130BDC4F10C04C4F1200220FAA6
:1004800002F001FA04F340EA0300294630BD21FAE4
:1004900004F0294630BD94F0000F83F4801306BFAA
:1004A00081F480110134013D4EE77FEA645C18BF9E
:1004B0007FEA655C29D094EA050F08BF90EA020F35
:1004C00005D054EA000C04BF1946104630BD91EA2D
:1004D000030F1EBF0021002030BD5FEA545C05D130
:1004E0004000494128BF41F0004130BD14F580046F
:1004F0003CBF01F5801130BD01F0004545F0FE41E3
:1005000041F470014FF0000030BD7FEA645C1ABF17
:10051000194610467FEA655C1CBF0B46024650EA4E
:10052000013406BF52EA033591EA030F41F400217A
:1005300030BD00BF90F0000F04BF0021704730B500
:100540004FF4806404F132044FF000054FF00001D5
:1005500050E700BF90F0000F04BF0021704730B596
:100560004FF4806404F1320410F0004548BF40426B
:100570004FF000013EE700BF42004FEAE2014FEAC0
:1005800031014FEA02701FBF12F07F4393F07F4F9B
:1005900081F06051704732F07F4208BF704793F09E
:1005A0007F4F04BF41F40021704730B54FF46074B1
:1005B00001F0004521F000411CE700BF50EA0102B4
:1005C00008BF704730B54FF000050AE050EA01025D
:1005D00008BF704730B511F0004502D5404261EBCD
:1005E00041014FF4806404F132045FEA915C3FF40E
:1005F000D8AE4FF003025FEADC0C18BF03325FEAAB
:10060000DC0C18BF033202EBDC02C2F1200300FA5B
:1006100003FC20FA02F001FA03FE40EA0E0021FA80
:1006200002F11444BDE600BF70B54FF0FF0C4CF46E
:10063000E06C1CEA11541DBF1CEA135594EA0C0F20
:1006400095EA0C0F00F0DEF82C4481EA030621EA5B
:100650004C5123EA4C5350EA013518BF52EA033596
:1006600041F4801143F4801338D0A0FB02CE4FF048
:100670000005E1FB02E506F00042E0FB03E54FF078
:100680000006E1FB03569CF0000F18BF4EF0010E70
:10069000A4F1FF04B6F5007F64F5407404D25FEA6C
:1006A0004E0E6D4146EB060642EAC62141EA55511F
:1006B0004FEAC52040EA5E504FEACE2EB4F1FD0C61
:1006C00088BFBCF5E06F1ED8BEF1004F08BF5FEADF
:1006D000500E50F1000041EB045170BD06F0004691
:1006E00046EA010140EA020081EA0301B4EB5C043E
:1006F000C2BFD4EB0C0541EA045170BD41F4801136
:100700004FF0000E013C00F3AB8014F1360FDEBF5A
:10071000002001F0004170BDC4F10004203C35DA36
:100720000C341BDC04F11404C4F1200500FA05F3B9
:1007300020FA04F001FA05F240EA020001F000425A
:1007400021F0004110EBD37021FA04F642EB0601D0
:100750005EEA430E08BF20EAD37070BDC4F10C04FA
:10076000C4F1200500FA04F320FA05F001FA04F2BE
:1007700040EA020001F0004110EBD37041F10001AA
:100780005EEA430E08BF20EAD37070BDC4F12005B5
:1007900000FA05F24EEA020E20FA04F301FA05F21D
:1007A00043EA020321FA04F001F0004121FA04F2C5
:1007B00020EA020000EBD3705EEA430E08BF20EA95
:1007C000D37070BD94F0000F0FD101F000464000CF
:1007D00041EB010111F4801F08BF013CF7D041EA51
:1007E000060195F0000F18BF704703F00046520055
:1007F00043EB030313F4801F08BF013DF7D043EA26
:100800000603704794EA0C0F0CEA135518BF95EADB
:100810000C0F0CD050EA410618BF52EA4306D1D162
:1008200081EA030101F000414FF0000070BD50EA81
:10083000410606BF1046194652EA430619D094EA0B
:100840000C0F02D150EA013613D195EA0C0F05D1F5
:1008500052EA03361CBF104619460AD181EA030149
:1008600001F0004141F0FE4141F470014FF0000001
:1008700070BD41F0FE4141F4780170BD70B54FF09C
:10088000FF0C4CF4E06C1CEA11541DBF1CEA13551C
:1008900094EA0C0F95EA0C0F00F0A7F8A4EB0504FE
:1008A00081EA030E52EA03354FEA013100F08880F5
:1008B0004FEA03334FF0805545EA131343EA1263BE
:1008C0004FEA022245EA111545EA10654FEA002673
:1008D0000EF000419D4208BF964244F1FD0404F52C
:1008E000407402D25B084FEA3202B61A65EB030588
:1008F0005B084FEA32024FF480104FF4002CB6EB45
:10090000020E75EB030E22BFB61A754640EA0C00C4
:100910005B084FEA3202B6EB020E75EB030E22BF04
:10092000B61A754640EA5C005B084FEA3202B6EB45
:10093000020E75EB030E22BFB61A754640EA9C0004
:100940005B084FEA3202B6EB020E75EB030E22BFD4
:10095000B61A754640EADC0055EA060E18D04FEA92
:10096000051545EA16754FEA06164FEAC30343EA32
:1009700052734FEAC2025FEA1C1CC0D111F4801FFF
:100980000BD141EA00014FF000004FF0004CB6E7F8
:1009900011F4801F04BF01430020B4F1FD0C88BF97
:1009A000BCF5E06F3FF6AFAEB5EB030C04BFB6EBA2
:1009B000020C5FEA500C50F1000041EB045170BD95
:1009C0000EF0004E4EEA113114EB5C04C2BFD4EBC2
:1009D0000C0541EA045170BD41F480114FF0000E46
:1009E000013C90E645EA060E8DE60CEA135594EAC2
:1009F0000C0F08BF95EA0C0F3FF43BAF94EA0C0FC5
:100A00000AD150EA01347FF434AF95EA0C0F7FF439
:100A100025AF104619462CE795EA0C0F06D152EA8D
:100A200003353FF4FDAE1046194622E750EA410671
:100A300018BF52EA43067FF4C5AE50EA41047FF482
:100A40000DAF52EA43057FF4EBAE12E74FF0FF3CE7
:100A500006E000BF4FF0010C02E000BF4FF0010CB8
:100A60004DF804CD4FEA410C7FEA6C5C4FEA430C31
:100A700018BF7FEA6C5C1BD001B050EA410C0CBF80
:100A800052EA430C91EA030F02BF90EA020F0020E2
:100A9000704710F1000F91EA030F58BF994208BF49
:100AA00090422CBFD8176FEAE37040F00100704706
:100AB0004FEA410C7FEA6C5C02D150EA013C07D15D
:100AC0004FEA430C7FEA6C5CD6D152EA033CD3D0A8
:100AD0005DF8040B704700BF8446104662468C46A2
:100AE0001946634600E000BF01B5FFF7B7FF0028D5
:100AF00048BF10F1000F01BD4DF808EDFFF7F4FFFE
:100B00000CBF012000205DF808FB00BF4DF808ED88
:100B1000FFF7EAFF34BF012000205DF808FB00BFAB
:100B20004DF808EDFFF7E0FF94BF012000205DF8CD
:100B300008FB00BF4DF808EDFFF7CEFF94BF012082
:100B400000205DF808FB00BF4DF808EDFFF7C4FF7B
:100B500034BF012000205DF808FB00BF4FEA410CC4
:100B60007FEA6C5C02D150EA013C0AD14FEA430CA7
:100B70007FEA6C5C02D152EA033C02D14FF00000E4
:100B800070474FF0010070474FEA410212F5001222
:100B900015D211D56FF47873B3EB625212D94FEAC4
:100BA000C12343F0004343EA505311F0004F23FAAE
:100BB00002F018BF404270474FF00000704750EA03
:100BC000013005D111F0004008BF6FF000407047C0
:100BD0004FF00000704700BF4A0011D212F500121A
:100BE00011D20DD56FF47873B3EB62520ED44FEA85
:100BF000C12343F0004343EA505323FA02F0704705
:100C00004FF00000704750EA013002D14FF0FF3042
:100C100070474FF0000070474FEA4102B2F1E043E5
:100C200024BFB3F5001CDCF1FE5C0DD901F0004CD3
:100C30004FEAC0024CEA5070B2F1004F40EB830023
:100C400008BF20F00100704711F0804F21D113F14F
:100C50003872BCBF01F00040704741F480114FEA88
:100C60005252C2F11802C2F1200C10FA0CF320FA11
:100C700002F018BF40F001004FEAC1234FEAD3232E
:100C800003FA0CFC40EA0C0023FA02F34FEA430398
:100C9000CCE77FEA625307D150EA01331EBF4FF021
:100CA000FE4040F44000704701F0004040F0FE403C
:100CB00040F40000704700BF53B94AB9002908BF8B
:100CC00000281CBF4FF0FF314FF0FF3000F0A0B9FB
:100CD000ADF1080C6DE904CE00F03CF8DDF804E05D
:100CE000DDE9022304B0704738B500220023044632
:100CF0000D46FFF70BFF28B920462946BDE83840CE
:100D000000F00AB8204605F1004100F005F8404225
:100D100061EB410138BD00BFD0B50C4B0022064647
:100D20000F46FFF781FCFFF757FF0446FFF702FC71
:100D3000074B0022FFF778FC02460B463046394647
:100D4000FFF7BAFAFFF748FF2146D0BD0000F03D9B
:100D50000000F0412DE9F047089D0C46002B4ED1D4
:100D600094468C458646B2FA82F262D94AB1C2F103
:100D70002003914020FA03F30CFA02FC194300FA15
:100D800002FE4FEA1C471FFA8CF6B1FBF7F44FEA5C
:100D90001E4307FB141143EA014304FB06F1994289
:100DA0000AD91CEB030304F1FF3080F01281994251
:100DB00040F20F81023C6344591A1FFA8EF3B1FBD3
:100DC000F7F007FB101143EA014300FB06F69E42D1
:100DD0000AD91CEB030300F1FF3180F0FC809E4236
:100DE00040F2F980634402389B1B40EA0440002132
:100DF0001DB1D3400022C5E90032BDE8F0878B4227
:100E000005D90DB1C5E9000100210846F5E7B3FA9F
:100E100083F1002946D1A34202D39042C0F0F08072
:100E2000861A64EB03030120002DE6D0C5E90063B8
:100E3000E3E7002A40F09080A1EB0C044FEA1C4845
:100E40001FFA8CF70121B4FBF8F64FEA1E4308FBAA
:100E5000164443EA044307FB06F0984208D91CEB0A
:100E6000030306F1FF3402D2984200F2CD802646F9
:100E70001C1A1FFA8EF3B4FBF8F008FB104443EA87
:100E8000044300FB07F79F4208D91CEB030300F162
:100E9000FF3402D29F4200F2B0802046DB1B40EAC2
:100EA0000640A5E7C1F120068B4022FA06F71F4352
:100EB00020FA06FC04FA01F343EA0C03F44000FABA
:100EC00001F8380C4FEA1349B4FBF0FE1FFA87FC17
:100ED00000FB1E4449EA04440EFB0CF9A14502FA4A
:100EE00001F20AD93C190EF1FF3A80F08480A14545
:100EF00040F28180AEF1020E3C44A4EB09041FFADB
:100F000083F9B4FBF0F300FB134449EA044403FB08
:100F10000CFCA44507D93C1903F1FF3067D2A44566
:100F200065D9023B3C4443EA0E40A0FB0293A4EB8C
:100F30000C049C42CE469C4651D34ED055B1B8EBE2
:100F40000E0364EB0C0404FA06F6CB401E43CC40BF
:100F5000C5E90064002150E7C2F1200320FA03F143
:100F60000CFA02FC24FA03F394400C434FEA1C48A9
:100F700000FA02FE1FFA8CF7B3FBF8F008FB103101
:100F8000230C43EA014300FB07F1994208D91CEB0B
:100F9000030300F1FF362CD299422AD90238634468
:100FA0005B1AA4B2B3FBF8F108FB113344EA034423
:100FB00001FB07F3A34208D91CEB040401F1FF363F
:100FC00013D2A34211D902396444E41A41EA004120
:100FD00039E70446F0E6084606E7C845AED2B9EB65
:100FE000020E63EB070C0138A8E73146EDE7034634
:100FF00099E73046D4E7D6467FE7634402384DE7A9
:101000000646234608460FE7023E634430E700BF2A
:10101000704700BF03798B4228BF0431C91AC9B297
:101020004171704708B503681B699847B0FA80F0B2
:10103000400908BD10B505F01DFD204905F03CFD37
:101040000AF0C8FF1E490BF083F80AF0C3FF1D49E0
:101050000BF0C2F80AF0BEFF03681B6898470EF059
:1010600015FF036818495B6A984705F089F9174925
:10107000002205F0E3F905F083F903681B6898473F
:101080001348FFF7CFFF30B10AF0FCF90368BDE861
:1010900010401B6818470F48FFF7C4FF10B103F05A
:1010A0005DF9F3E703F06AFC0B4B836603F066FC23
:1010B00003681B68984700F025FBE7E76C030020F6
:1010C000A403002084030020A4D801205CD80120C0
:1010D0008804002078040020D003002000BEFEE732
:1010E000704700002DE9F0473D4ADFF840913D4F41
:1010F0003D4BBA601021C9E902210822FA603B4A3F
:101100003B49916000244FF48060C2E90034D06014
:10111000DFF81C81374ADFF81CA1C9F8003001252F
:10112000C8E90035C7E90035C2E900340223D360BD
:101130004FF06413CAF804302F4B304ECAF8003019
:101140002F4BCAF808304FF0051373602D4B3360F6
:1011500006F10C002C4B9160C8E90215C9F8045047
:10116000B3600EF049FB294B294A1A60294AC3F89B
:101170008420A3F88840284B284818604FF4F07268
:1011800027481C760321C3E901124FF4A071C3E97B
:10119000031259610571C180224D0281C3E907A97B
:1011A000C3E909872146204B03604471C66004747B
:1011B000C0F81240C0F81640C0F81A40FFF72AFFE6
:1011C0004FF400404023C5E900034220C5E903462F
:1011D0002C726C610AF0A8FEE860BDE8F08700BFE1
:1011E000000002409804002068A70208880400203C
:1011F0000004024078040020D8A702085C04002004
:1012000000D801208CA7020864D60120D00300205A
:1012100028A80208ACD90120A40300203C3502080C
:10122000840300206C03002014350208B804002059
:10123000A80400206C04002008B5074BD86810B142
:1012400001211AF0FEFA0548054B40F80C3BBDE8B9
:1012500008400EF0DBBA00BF6C0300205C040020E5
:101260008CA702084FF00000704700F5805090F8FE
:10127000A808002818BF032070470EF065B9F8B51C
:1012800000F580550446D5F8A00890F8881303F0BF
:1012900099FB014604F5B550002204300DF0F4F836
:1012A000D5F8A00890F8D91303F094FB014604F593
:1012B000B65000221C300DF0E7F8D5F8A03895F8AC
:1012C000E82593F8CB3304F5AD501430A2B3002BCE
:1012D0000CBFFF214FF47F410FF06BF8D5F8A03819
:1012E00093F8F723002683F8F763AAB1D4F8AC305B
:1012F0001A3304F1640754F8230003681B69984704
:10130000D4F8A830B3421DD8D4F8AC301A3354F80E
:1013100023000368DB689847D4F8AC301A331421F3
:1013200054F8230003685B699847D5F898080AF0D9
:1013300036FF4FF00000F8BD002B0CBF6FF07F416F
:10134000FF21C9E757F8040FB5F97E260368283A4C
:101350009B68282198470136D2E7F8B50446002853
:1013600040D00E784F7826BB00F5B8556B69143520
:101370001B692846984760B32B6828461B6C984722
:1013800038B3DFB1012128460FF0C8F8062E1ED170
:1013900003F0F4FA90F86F3304F5AD541434DBB174
:1013A00003F0ECFA03F01EFC002120460FF0B6F823
:1013B0000DE0012E0DD100F5BE55D7E73946284680
:1013C0000FF0ACF823682946DB69204698470020D7
:1013D000F8BD002FDAD1FAE703F0D0FA03F0CCFB26
:1013E0000121E2E70120F3E710B5074B044640F87E
:1013F000483B0EF007FC04F124000EF059FA201DC2
:101400000EF056FA204610BD5CA8020810B504463E
:10141000FFF7EAFF204668211AF013FA204610BDB4
:10142000054A02600022C0E90122C0E90322C0E9A6
:101430000522C261704700BF3C40020810B5044657
:10144000FFF7EEFF064B23600122002384F82C20D7
:10145000C4E90833A362236384F83430204610BD06
:10146000903F02082DE9F8430446FFF7D9FF1C4BD3
:10147000236000256FF07F43DFF8689023634FF00F
:1014800001084FF080774FF0FF36C4E90855C4E9F2
:101490000A55A58604F13800FFF7C2FFC4E91655C6
:1014A000C4E91B76C4F83890256684F86480A56684
:1014B000A4F8785004F17C00FFF7B2FFC4E92B5781
:1014C00084F8A880C4E92755C4F87C90C4F8A450D7
:1014D000C4F8B460A4F8BC502046BDE8F88300BF4F
:1014E000C4A80208EC3D02082DE9F8430546002691
:1014F000FFF796FFC5E90866C5E90A66354BDFF8D0
:10150000E4902B602E6305F1340405F55D774FF010
:10151000FF382046FFF784FFC4F8009084F820606D
:10152000C4F82C8084F83060C4E909663434BC42C5
:10153000EFD105F2F46620463834FFF77FFFB4425E
:10154000F9D105F5975614362046C034FFF78AFFC7
:10155000B442F9D1204605F580540026FFF760FF1C
:101560001D4BC4F8F43205F59850C4F814631830D4
:10157000FFF778FF05F59E501830FFF773FF05F56C
:10158000A4501830FFF74CFF144BC4F8983405F5FD
:10159000A650C4F8B864C4F8BC6484F8C064C4F845
:1015A000C4640830FFF73CFF0D4BC4F8C834C4F8DE
:1015B000E864C4F8EC64C4F8F06484F8F464C4F833
:1015C000F864C4F8FC640AF005FDC4F80005284678
:1015D000BDE8F883CC1A0208E83E0208403E020843
:1015E000943E020898350208414B70B5102204461B
:1015F000222140F8043B00230EF07FF9002308224B
:10160000202104F124000EF078F904F5C5530833C5
:10161000002663641423C4E91263364B84F85060D7
:10162000C4E915344FF48063A4F85E30022384F8D3
:1016300060302046304B6366304B84F85C6040225B
:10164000314640F8683B1CF093FDC4E92A6604F17A
:10165000B000FFF749FF04F5AD501430FFF702FF6B
:1016600004F5B35004F580551430FFF7D9FE244B30
:10167000C5F8743604F5B550C5F89466C5F8986693
:1016800085F89C66C5F8A0660430FFF7D7FE04F520
:10169000B6501C30FFF7D2FE04F5B8501430FFF7F7
:1016A000E1FE04F5BE501430FFF7DCFE032385F89D
:1016B00094380AF08FFCC5F8980804F061FEC5F86C
:1016C0009C0803F05BF9C5F8A00805F0D3F985F88C
:1016D000BC68C5F8A408C5F8B068C5F8B468C5F812
:1016E000B868C5F8C068C5F8C468204670BD00BFBA
:1016F0005CA80208CDF60008E008020840090208CC
:10170000403E020810B50A4C2368BFF35B8FDB072D
:101710000CD420461AF097F840B10648FFF764FF52
:1017200005481BF08DFC20461AF099F8014810BDC1
:10173000C8040020CC040020E51E00082DE9F04F6D
:1017400000F5805785B0D7F89838DFF8B490D3F813
:10175000A4A0044600F5B8580DF05EFB0368DB68F2
:101760009847D7F89838D3F8A02002EBD2725610D9
:1017700005460DF051FB0368DB68984708F1140833
:101780004FF0010B043E05EB450500EB4000AAEBD2
:10179000050349460022CDE90060CDF808B0404677
:1017A0000EF06EFD18F090F918F060F80023014675
:1017B0001A4640460EF0BDFED7F89838B7F92427F0
:1017C000D3F8A010CDF808B0B7F92637CDE900233B
:1017D00004F5BE541434B7F91E378A1A2046494618
:1017E0000EF04EFD18F070F918F040F80023014695
:1017F0001A46204605B0BDE8F04F0EF09ABE00BF75
:10180000571202082DE9F04F044689B004F58056BE
:1018100005F030F905F054F9D6F8985805F02AF992
:101820004179003918BF012128460AF0BCFC96F81E
:101830009418D6F898080BF051F8D6F89838D84A8A
:10184000C3F89820D3F8A4700DF0E6FA0368DB68BB
:10185000984705460DF02EFA0368DB689847D6F8DE
:101860009838D3F8A030059382460DF023FA026829
:101870009268904783460DF01DFA0268D26890473F
:1018800005EB4505C74A059B04F5B359023F4FF0E8
:10189000060809F114097F1B40000025294608FBB2
:1018A0001B33CDE901250090A7EB4A0248460CF016
:1018B0006FFAB6F98636B6F97E2603EBD37302EBE0
:1018C000630305930DF0F6F90268D26890478246EB
:1018D0000DF0F0F904F5B557059BB34901900437B5
:1018E0006FF07F4B0422A3EB5A033846CDF800B0CB
:1018F0000CF07DFC0DF0DEF903689B689847B6F9A3
:10190000B216069107900DF087FA0368DB689847D6
:1019100005900DF081FADDE90531079A04F5B65A14
:101920000AF11C0AD200CB1ACDE900B09E495046FC
:101930000CF05DFC4FF47A7148460DF0C5F840F2AA
:10194000E93138460DF0C0F840F2E93150460DF06B
:10195000BBF8D6F8A00803F045F9D6F89838D3F8C4
:10196000A0A00DF0A7F903689B689847B6F97EB66A
:1019700081460DF09FF903689B6898470123029305
:1019800004F5AD571437B6F986368849019308FB3C
:1019900000F00AF1FF3208FB192200905B4638463E
:1019A0000EF06EFC2B462A46384621460EF0C1FD4D
:1019B000384629460EF0B2FD4FF47A7138460DF0E4
:1019C00083F82046FFF7BAFE4FF028091022D6F818
:1019D0009838CDE9009204F1B007D3F8A0302A4638
:1019E0002946384604F0F4FAC4F8A8500DF062F91C
:1019F0006E4A03462946384604F002FC6C4AD4F885
:101A0000A810384604F094FBD4F8A88008F101032C
:101A1000C4F8A83002F092FB08F11A0844F8280034
:101A2000D4F8A8800DF046F94146624A034638468C
:101A300004F0E6FBD4F8A88008F10103C4F8A8304C
:101A400005F094FC08F11A0844F82800D4F8A8809E
:101A50000DF030F94146584A0346384604F0D0FBB1
:101A6000D4F8A88008F10103C4F8A83001F04CFDB7
:101A700008F11A0844F82800D4F8A8800DF01AF9E3
:101A8000414603464D4A384604F0BAFB4C4AD4F866
:101A9000A810384604F04CFBD4F8A88008F10103E4
:101AA000C4F8A83008F06EFC08F11A0844F82800C1
:101AB000D4F8A8800DF0FEF84146424A0346384665
:101AC00004F09EFBD4F8A88008F10103C4F8A83004
:101AD00007F030FE08F11A0844F82800D4F8A8806E
:101AE0000DF0E8F84146384A0346384604F088FBD2
:101AF000D4F8A88008F10103C4F8A83006F084FAED
:101B000008F11A0844F82800D4F8A8800DF0D2F89B
:101B100041462E4A0346384604F072FBD4F8A880AA
:101B200008F10103C4F8A83009F050F808F11A08C8
:101B3000D4F8A82044F82800D6F89838CDE90092C7
:101B40003846D3F8A0302A46294604F041FA3846F0
:101B50002B462A46214604F0D6FB38464FF4FA615C
:101B600004F054F904F16407D4F8A830AB4231D83A
:101B7000A06E03680025DB68C4F8AC50984704F5F4
:101B8000C5531033019343230093D6F89C08104AA1
:101B90002346214604F072FC284609B0BDE8F08FC8
:101BA000404040008080800057120208EC08020884
:101BB0003C000020F0080208F908020804090208A5
:101BC0002800002011090208190902081F0902084B
:101BD0005B13000857F8040FB6F97E260368283A0D
:101BE0009B68282198470135BEE700BF034603F5EF
:101BF000805300F5B850D3F8A03893F88833022BFF
:101C00000CBF0249024914300EF090BB28090208AB
:101C10002D09020800F58052D2F8A02892F88823F6
:101C2000012A05D121B100F5B85014300EF07EBB69
:101C3000FFF7DCBF00F5805300F5BE50D3F8A038A5
:101C400093F88833052B00F1140002D103490EF0FC
:101C50006DBB0BB90249FAE70249F8E731090208FE
:101C6000A5190208C616020800F58052D2F8A0286D
:101C700092F88823012A05D121B100F5BE50143015
:101C80000EF054BBFFF7D6BFD0F8AC301A3370B5A6
:101C9000044650F8230003680D461B69984704F179
:101CA000B000C4F8AC50294604F018FBD4F8AC30AE
:101CB0001A3354F823000368BDE87040DB68184706
:101CC00070B500F5AD5614368E4204460D4613D15C
:101CD00000F58054D4F8A00890F86F3343B102F0B7
:101CE00081FF002130460EF019FC4FF0000070BD5E
:101CF00002F042FF0121F5E700F1B003994204D15F
:101D000090F8DC10FFF7C0FFEFE7D0F8AC301A33E3
:101D100050F8230003689B699847C0B20828E4D1B3
:101D200004F5B85314339D420CD104F58054D4F813
:101D3000A00890F88833022B14BF8121822102F081
:101D40000CFFD2E704F5BE5314339D42CDD104F508
:101D50008054D4F8A00890F88833052B02D103F002
:101D60006FFBC2E7D0F880232BB980F87133C0F83D
:101D700084231821E3E7002380F87133C0F884231B
:101D80001921DCE738B5094B094D0360044640F8DA
:101D90007C5F0CF0BDFE204640F8385F0CF0B8FECA
:101DA00020460CF0B5FE204638BD00BFC4A802088E
:101DB000EC3D020810B50446FFF7E4FF2046C021C1
:101DC00019F03FFD204610BD70B5244B036000F5AF
:101DD00080550446224BC5F8C83400F5A65008309B
:101DE0000CF096FE1F4BC5F8983404F5A45018303B
:101DF0000CF08EFE04F59E501830FFF7C3FF04F57B
:101E000098501830FFF7BEFF174BC5F8F43204F5B1
:101E1000975014300CF07CFE41F2342540F23466C9
:101E2000635960191B68C03D9847B542F8D140F22C
:101E3000BC65635960191B68383D9847B5F54F7FFD
:101E4000F7D14FF45075635960191B689847343DBA
:101E5000F9D120460CF05CFE204670BDCC1A020879
:101E6000943E0208403E0208E83E02081A4B70B554
:101E70000446036000F5BE501430FFF783FF04F5FD
:101E8000B85004F580551430FFF77CFF134EC5F8A9
:101E9000DC6604F5B6501C300CF03AFE04F5B55083
:101EA000C5F8A46604300CF033FE0D4BC5F874364B
:101EB00004F5B35014300CF02BFE04F5AD50143083
:101EC000FFF760FF04F1B000FFF77EFF2046FFF749
:101ED0008BFA204670BD00BF40090208903F0208FF
:101EE000403E020808B50248FFF7C0FF08BD00BF2A
:101EF000CC04002010B50446FFF7B8FF204641F699
:101F0000C80119F09EFC204610BD10B50446FFF72D
:101F10005BFF204641F2045119F093FC204610BDAE
:101F200008B598B109B9002008BD8269D0F8103110
:101F300001FB023103699942B8BF194643699942CE
:101F4000A8BF1946CC3000F022FCECE70120EBE7FB
:101F500008B517F0B9FDBDE8084017F087BCC0E927
:101F600000128360704781694B1E10B559420446C8
:101F7000594100F5F2700EF0D1FAA169A1F10A02FF
:101F80005142514104F529700EF0C8FAA169A1F13E
:101F900064004142414104F55970BDE810400EF023
:101FA000BDBA000037B504460D4674300CF08CFD08
:101FB000691C04F11C000CF087FDA91C04F58C6061
:101FC0000CF082FDE91C04F5A4600CF07DFD04F02A
:101FD000D7F90546FFF7BCFF04F2E45301460D4A6A
:101FE00000932846234604F078FA04F0C9F9054620
:101FF000FFF7AEFF04F2FC53019303230146009365
:102000002846054A234604F039FA4FF0000003B091
:1020100030BD00BF211F00089B2300082DE9F04FB1
:1020200089B00F460592DDE91212C0E90412C44DD1
:10203000DFF820B39942B8BF19462B68BFF35B8F16
:1020400091420E46A8BF164613F0010F04460CD16C
:10205000284619F0F8FB40B1D4F8E0352846D3F80B
:10206000A030CBF8003019F0FAFB0CF023FE6FF033
:102070007F4304F19405009300231A4639460190EA
:1020800028460CF0B4F8284602210CF0C4F9B4F943
:10209000A430DBF80010C91A08220023490828469A
:1020A00004F11C0A0CF04EFD514628460CF090FD40
:1020B000012128460CF008FDDBF80030B4F9A270CD
:1020C000A3F110080CF0A8FE0368DB689847149B86
:1020D000029304F1CC0508370D2300EB80003A464B
:1020E0000193009043462846082100F099FA4FF4E6
:1020F0007F420421284600F03DFB0CF08DFE0222B9
:102100000146284600F040FC3146284600F03FFBDF
:102110000CF082FE0027034605222846059900F0B0
:1021200049FC5146284684F8E1700CF051FD2846E0
:1021300001210CF0C9FC04F58463049304F586685E
:1021400004F5F275B4F9DC900323A9F10809B9FB91
:10215000F3F902F013FC049A52F8043F04920121AF
:102160000A22149E8E4200F2E7804146009210221D
:1021700002F07EFD4046FEF73DF8059B714AC0F136
:10218000100140441BF02AFFB4F9D42009F10403E4
:1021900007FB0322B4F9DA300792083306930CF0F8
:1021A0003BFE0168C9688847012600EB8000DDE935
:1021B00006324146CDE90090029628460EF060F8BE
:1021C000FFF7C6FE604A2346014628460EF0B1F9E5
:1021D000284600210EF0A2F9284603210EF031F91D
:1021E000514628460CF0F4FC2B6828469B68314683
:1021F00037449847032F08F1100805F1C005A1D115
:102200000A230025A361314604F529700EF086F9F2
:1022100002960195B4F9F231083304F144070093B2
:10222000DBF800302A46294638460BF0B1FD384627
:1022300004210BF001FE38464FF6FF710BF00CFE47
:10224000294638460BF01BFE514638460CF0C0FCC0
:10225000294638460CF038FCD4F8E025B4F956305D
:10226000D2F8A4200093D21A02EBD272DBF800302D
:102270003241294650460CF053FBD4F8E035D3F8F0
:10228000A420009229462A4604F17400D3F8A03015
:102290000BF005FED4F8E03584F88960D3F8A4A0EB
:1022A0000CF0BAFD0368DB689847D4F8E035D3F842
:1022B000A02002EBD27242FA06F781460CF0ACFD88
:1022C0000368DB68984704F58C68043F09EB49090B
:1022D00000EB4000CDE90070AAEB09032A461B4938
:1022E000029640460DF0CCFFFFF732FE2346014632
:1022F000154A40460EF01DF9D4F8E035B4F97024C3
:10230000D3F8A0100296B4F97234CDE9002304F595
:10231000A467B4F96A348A1A38460D490DF0B0FF43
:10232000FFF716FE084A0146234638460EF001F92B
:10233000284609B0BDE8F08F0A267243013110E744
:10234000941D0020640902089B2300086809020804
:102350006B090208981D002010B5044604F010F81F
:1023600004F2E45104F0D1F804F00AF804F2FC514C
:1023700004F09FF804F11C000CF0BDFB04F17400A4
:102380000CF0B9FB04F58C600CF0B5FB04F5A4600F
:102390000CF0B1FB4FF0000010BD2DE9F0410446F8
:1023A000002867D000F58C678F4216D1FFF7D4FF65
:1023B000206858B10368D4E901125D682346A84734
:1023C0002046FFF7D0FD0020BDE8F0816368002BB8
:1023D000F6D0A06821469847F2E700F5A4658D4243
:1023E00002D1FFF7B9FFEBE700F5F273994202D192
:1023F0000123A361E4E700F52973994201D10A237F
:10240000F7E700F55973994201D16423F1E791F898
:1024100000804E78B8F1000F17D1443046B14FF428
:102420007F410BF019FD012138460EF077F8C7E720
:102430004FF47F010BF010FD314638460EF06EF878
:1024400039462046FFF7A9FFBAE7B8F1010FB7D127
:1024500044302EB1FF210BF0FFFC41462846E4E753
:102460004FF47F010BF0F8FC314628460EF056F889
:102470002946E6E70120A7E7B0F908007047B0F960
:102480000A007047B0F90C007047B0F90E007047B1
:10249000B0F910007047B0F912007047407D7047E6
:1024A000417570472DE9F341089E04461D46B0F979
:1024B0000A30B0F90800301A0090EB1A04F1480015
:1024C00090460F460BF0D1F9B4F90820B4F90A3060
:1024D000B21A0092EB1A4246394604F1B0000BF0F2
:1024E00018FE94F810317BB1B4F90820B4F90A3021
:1024F000B61AEB1A4246394604F17800089602B043
:10250000BDE8F0410BF005BE02B0BDE8F0812DE959
:10251000F341089E04461D46B0F90830B0F90A00A0
:10252000301A0090EB1A04F1480090460F460BF069
:10253000F1F9B4F90A20B4F90830B21A0092EB1A92
:102540004246394604F1B0000BF083FD94F8103197
:102550007BB1B4F90A20B4F90830B61AEB1A424636
:10256000394604F17800089602B0BDE8F0410BF05E
:1025700070BD02B0BDE8F08170B5044605291AD8D7
:10258000DFE801F0030F191903170B4904F14800A4
:102590000BF075FC236820469B6CBDE87040002161
:1025A0001847006A28B10368D4E909125D68234618
:1025B000A8470021EAE770BD8080800010B1036861
:1025C0009B6818477047000038B50C4B0C4D0360F2
:1025D000044640F8B05F0CF09BFA204640F8785F64
:1025E0000CF096FA2046074B40F8483F0CF090FA62
:1025F00020460CF08DFA204638BD00BF9409020831
:10260000903F0208403E020810B50446FFF7DCFF89
:1026100020464FF48C7119F014F9204610BD0000CB
:102620002DE9FF470C9E01811F464FF0FF334364A5
:10263000FB181944731E0E9D42811A440D9B818123
:102640005B1BC281C0E90E35044607824682012227
:1026500000210A208D4256DC226404F58070002D92
:1026600054D02D4A009510211BF0B8FC0025012301
:102670002A462946CDE9015300963B4604F148001D
:102680000BF086FB0CF0C8FB04F1B0086FF07F473D
:1026900004F1E80101902B462A46404600970BF0D2
:1026A000A6FDD4E90E3203EB0209D4F8E000B4F938
:1026B00010A009F10109AA4218BF09F10109FFF7A9
:1026C0007DFFB4F9C2305FFA89F9F61A00FB19A14F
:1026D00006EBD6762B467210490840460CF032FACB
:1026E0000CF09AFB2B46CDE900700C4904F1780000
:1026F0002A460BF07CFD23689B6C2946204604B0DB
:10270000BDE8F047184742430131A3E7044A1021CE
:102710001BF064FCAAE700BF720902085712020806
:1027200083090208436F994210B5044609D0483026
:102730000BF082FB236820469B6CBDE81040002113
:10274000184710BD10B5836EC0E90C12044690F80E
:102750002C00002818BF114699420AD004F1480005
:102760000BF07AFB236820469B6CBDE810400021EB
:10277000184710BD38B515460446FFF7D3FF294664
:1027800020464FF47F42BDE83840FFF7DBBF436C83
:102790008B4273B50A4604462ED04164E56BB030D7
:1027A00004F1E80104F580735DB9009218220BF082
:1027B00098FE236820469B6C00219847012002B0B8
:1027C00070BD266C92FBF6F506FB1522002AB8BFF9
:1027D0005242CDE9005218220BF083FE636C002BAD
:1027E000E7DA226C93FBF2F3002BE2D1A36B2344D4
:1027F0002D2283F8E620DCE70020E0E790F8103196
:10280000022B2DE9F041044600F08580D0E90E72DC
:10281000013B1744B0F91050002A18BF013700F1EE
:10282000B006042B00F29D80DFE803F02F9B0352DB
:102830007C00D0F8E000FFF7C1FEB4F9C230B4F973
:102840001220D21AB4F98830A91EC91A94F8DC30C3
:102850007B4300FB131102EBD2723046002352106F
:1028600049080CF06FF9B4F9BC50D4F8A800B4F9D9
:10287000BE7004F17806023510B10368DB68984732
:1028800000233A1A2946304643E0B0F9C230B0F985
:102890001220B0F98810D21AB0F98A30D21A691A07
:1028A00002EBD27200235210490878300CF04AF93A
:1028B000D4F8E000B4F91050FFF780FE94F8DC3053
:1028C000B4F986207B4300FB135100234908DAE763
:1028D000D0F8E000FFF772FEB4F9C230B4F912206C
:1028E00094F8DC10D21A794300FB115102EBD2723A
:1028F00000235210490830460CF024F9B4F988300E
:10290000B4F91010B4F9BE20C91A4908002304F123
:1029100078000CF017F9236820469B6CBDE8F04165
:1029200000211847D0F8E000FFF748FEB4F9C230A4
:10293000B4F9122094F8DC10D21A794300FB11513B
:1029400002EBD27200235210490830460CF0FAF81C
:10295000B4F9BC00B4F98810B4F9BE200023411AC0
:10296000D5E7D0F8E000FFF729FEB4F9C230B4F99A
:102970001220D21A94F8DC3002EBD2727B4300FBB7
:10298000135152100023A1E770B500F1B0060446C0
:10299000154630460BF004FDE9B230460BF03BFD26
:1029A0002046FFF72BFF236820469B6CBDE8704054
:1029B0000021184770B500F1780604460D4680F8EE
:1029C0001021194630460BF0EBFC29463046002218
:1029D0000BF05AFD2046FFF711FF236820469B6C41
:1029E000BDE870400021184790F82C308B4210B59C
:1029F000044611D0D0E90C2380F82C1000290CBF1C
:102A00001146194648300BF027FA236820469B6C84
:102A1000BDE810400021184710BDC0E908128362CC
:102A2000704710B5D8B109B9002010BD0379022B49
:102A30000DD84FF48C725343C2188468D2F8FC202E
:102A4000B83301FB04211844FFF7A1FEECE7D0F8EE
:102A50000C3B194421EAE17100F6C820F4E701209B
:102A6000E3E770B5044603F08BFC04F6A86103F0BD
:102A70004CFD04F1B80510262B682846DB68984702
:102A8000D5F8483305F55270DB689847D5F890368D
:102A900005F5D260DB689847A359A019DB68383682
:102AA0009847B82E05F58C75E6D14FF43E6563590D
:102AB0006019DB68C0359847B5F5626FF7D104F649
:102AC000C8200CF018F804F529600CF014F804F58F
:102AD00066600CF010F8D4F8980E0368DB6898472D
:102AE000D4F89C0E0368DB6898474FF0000070BD77
:102AF00073B5044600F1B80510262B6864219B6865
:102B000028469847D5F8483364219B6805F55270EC
:102B10009847D5F8903664219B6805F5D2609847B0
:102B2000A359A0199B68642138369847B82E05F53B
:102B30008C75E2D14FF43E65635960199B6865213D
:102B4000C0359847B5F5626FF6D1642104F6C82008
:102B50000BF0BAFF642104F529600BF0B5FF652185
:102B600004F566600BF0B0FFD4F8980E0368662198
:102B70009B689847D4F89C0E036866219B68984729
:102B800003F0FEFB0546FFF7E3F904F6A8630146F0
:102B900000932846034A234603F09FFC4FF00000B1
:102BA00002B070BD232A00082DE9F04F8DB0834696
:102BB0000D460CF031F90368DB68984700EB8003A1
:102BC0000593043B5B080893059B083309932B1D71
:102BD0005C4606935F464FF0000ADBF8A42EDBF854
:102BE000A03E92F8F823D3F8A010A94E002A14BFF3
:102BF00004220322A1F108030292072204F1B8057E
:102C0000019203EBD373059A00925B10069A06209B
:102C100091FBF0F12846FFF703FDFF22042128462F
:102C2000FFF7A8FD0CF0F8F8022201462846FFF74E
:102C3000ABFE5FFA8AF31946DBF8A40E079301F0A6
:102C4000FAFE01462846FFF7A2FDDBF8A43E914AB2
:102C500093F8F833002B08BF16460CF0DDF8314628
:102C6000034605222846FFF7A5FEFFF771F900236A
:102C70001A4601462846FFF7D0FED4F8B8300121A5
:102C800028465B6C9847D4F8B83028461B6B9847A9
:102C9000D4F8B83000F10408DB6A28469847DBF81E
:102CA000A03ED3F8A020D4F8B8300A9281461B6B1E
:102CB000284698470A9A131ADBF8A42E92F8F823AC
:102CC0000721002A14BF0422032204F58066019123
:102CD00008990292083B4A46304600914146FFF768
:102CE0009FFC6D4A02213046FFF744FD0CF094F83A
:102CF000012201463046FFF747FE00213046FFF72C
:102D000046FDDBF8A43E634A93F8F8336049002B94
:102D100008BF114688460CF043F84146032203469B
:102D20003046FFF747FED4F8003430469B6A984798
:102D3000D4F8B8300B905B6B28469847D4F8003431
:102D40008146DB6B30469847D4F80034A9EB000984
:102D50009B6B30469847D4F800240A90D26B3046DB
:102D60009047DBF8A42E0B9992F8F823484E002ADE
:102D700014BF0422032204F5E9680723CDE9000308
:102D800002920A9B4A464046FFF74AFC424A022109
:102D90004046FFF7EFFC0CF03FF8012201464046A9
:102DA000FFF7F2FD00214046FFF7F1FCDBF8A43EFF
:102DB000384A93F8F833002B08BF16460BF0F0FFA3
:102DC0000322034631464046FFF7F4FD0799DBF83E
:102DD000A40E01F0EFFD80460BF06CFF6FF07F4317
:102DE00007F11006009300231A4641460190304631
:102DF0000BF0FDF9022130460BF00DFB3B699B699E
:102E00000793D4F8B83028469B6A98473B698146B7
:102E10009B6B3046984700EBD07009EBD9734FEAB3
:102E20006009C9EB6309D4F8B8302846DB6A9847D3
:102E3000D4F8B8308046DB6B284698473B6900EBF6
:102E4000D07008EB6005DB6B3046984700EBD07024
:102E5000A5EB60020023079D49463046A847069B24
:102E6000099A0AF1010A1344BAF1030F04F58C74AC
:102E700007F1380706937FF4B0AE0BF53A730BF504
:102E800062690BF63B680BF53E650027079305E08A
:102E9000E00902085611020880808000DBF8A43E99
:102EA000079893F8F833002B14BF41464946DBF8E6
:102EB000A03E0891D3F8A04094FBFAF47C43231D74
:102EC0000693DBF8E8325B6B9847DBF8A02E0446EC
:102ED000D2F8A06096FBFAF60BF09EFF0268D2686B
:102EE0009047083E012300EB8000069A0899029360
:102EF000CDE9006004F1080328460DF0C1F9FFF7A1
:102F000027F8002301461A4628460DF012FB013728
:102F1000284603210DF095FA032F09F1090908F15C
:102F20000C0805F1C005B9D1DBF8A03EBBF9EE2BCA
:102F3000D3F8A01005980090A1F1080300240BF627
:102F4000C825042603EBD37301EBD1715B10CDE9E7
:102F50000164284608324910FFF762FB3146FF2220
:102F60002846FFF707FC0BF057FF022201462846D0
:102F7000FFF70AFD4FF496712846FFF708FCDBF8CF
:102F8000A43E344E93F8F823334BA24208BF1E46AA
:102F90000BF042FF3146034605222846FFF70AFDA3
:102FA000FEF7D6FF01270146234622462846FFF7B3
:102FB00034FD8BF8DD7A0BF07DFE0BF529656FF0A3
:102FC0007F462346224601902449009628460BF06E
:102FD0000EF9284602210BF01EFABBF9DA3ABBF9CA
:102FE000D20ABBF9D81A03EBD37300EB6300BBF929
:102FF000A23A03EBD372DBF8A03ED3F8A03003EB88
:10300000D373C1EB630101EBD171A0EB62022346E4
:10301000394128460BF096FD0A23CBF80830394693
:103020000BF54A600DF07AFABBF9C050BBF9C270DB
:103030000BF0F2FE08350837CDE9006008490BF5C2
:1030400066603B462A460BF0D2F820460DB0BDE83C
:10305000F08F00BFEC090208E5090208F709020831
:103060005712020838B50446FEF7DAF91C4B236004
:1030700000254FF47F420123C4E90D23C4E90F5317
:103080004FF0FF336364C4E90855A56284F82C50FF
:10309000256304F14800FEF7C3F9124BA364C4E9A9
:1030A0001A5584F87050656704F17800FEF7C6F988
:1030B00004F1B000FEF7C2F92946182204F1E80035
:1030C0001BF056F81022294604F580701BF050F8CA
:1030D00084F8105108F07EFFC4F81401204638BD72
:1030E00094090208403E0208017902292DE9F041C5
:1030F00098BF0021044688BF012100F6C820FFF7D1
:1031000073FC04F1B80600254FF6FF77E9B2D4F856
:10311000A40ED6F8448001F08EFC4FF47F42404567
:1031200014BF3946FF213046FFF70CFB2179A1EB94
:10313000050CDCF1000141EB0C0130460135FFF7D5
:1031400053FC032D06F58C76E0D1A1684B1E594245
:10315000594104F53E600DF0E1F9A168A1F10A02C0
:103160005142514104F54A600DF0D8F9A168A1F12E
:1031700064004142414104F55660BDE8F0410DF064
:10318000CDB900002DE9F041D0F8A43E93F8F92321
:10319000022A044600F5666048D193F8CC532F49C3
:1031A0002F4B0022954218BF19460BF06DF901F024
:1031B000E5FB237B90F88863B34202D0032B38D021
:1031C0002673FEF79FFA2749FEF724FDFEF79AFAC9
:1031D0002549FEF749FD00272646B846F9B2D4F83E
:1031E000A40E01F028FC014606F58060FFF7CFFA37
:1031F000D6F8FC10D6F844340546C91A06F5E9603D
:10320000FFF7C5FA0137054348EA0505032F5FFAC2
:1032100085F806F58C76E1D1B8F1000F02D0204692
:10322000FFF762FF4FF00000BDE8F0810F49002278
:10323000BBE7012EC4D104F1B8070025E9B2D4F8E8
:10324000A40E01F0F8FB013501463846FFF79FFA5E
:10325000032D07F58C77F1D1B2E700BF070A02080A
:10326000FE0902080E0A0208120A02085712020892
:1032700000F53E63994273B5044608D10123A3606B
:1032800000252046FFF730FF284602B070BD00F54C
:103290004A63994201D10A23F1E700F55663994246
:1032A00001D16423EBE7D0F8983E8B4214D1D0F8DB
:1032B000A40E90F88833012B43D10193D4F80C3B32
:1032C000642253430093D4F82C33D4F81422D4F856
:1032D000FC1002F045FAD3E7D0F89C3E8B4217D1A0
:1032E000D0F8A43E93F88833012B2AD100F1B80618
:1032F0000025E9B2D4F8A40E01F09DFB013501468A
:103300003046FFF744FA032D06F58C76F1D1B7E786
:1033100000F6C82399420DD000F1B80399420CD0B1
:1033200000F5E87399420AD000F53A739942A7D1A3
:10333000022300E003232371A2E70023FBE701231C
:10334000F9E708259DE700002DE9F84F694B036078
:103350000323037100260A23054683600673103099
:10336000FEF76CF805F14800FEF768F805F18000FB
:10337000FEF764F805F1B800FFF774FE05F5E87094
:10338000FFF770FE05F53A70FFF76CFE05F58060FB
:10339000FFF768FE05F5A360FFF764FE05F5C6605C
:1033A000FFF760FE05F5E960FFF75CFE05F50660D6
:1033B000FFF758FE05F67810FFF754FE05F5296073
:1033C000FEF73CF805F6C820FFF74CFEDFF830B1F9
:1033D000DFF8309105F53E6405F5626A2046FEF798
:1033E0001FF86FF07F4323630127C4F800B084F80F
:1033F000346084F83560C4E90866C4E90A6604F1FB
:1034000038004FF0FF38FEF70BF8C4F83890266606
:1034100084F86470A66684F86C6084F86D6084F843
:103420006E6084F86F70C4F87080A4F87860C4E9A6
:10343000166604F17C00FDF7F3FFC4F87C90C4F835
:10344000A46084F8A870C4F8AC6084F8B06084F814
:10345000B16084F8B26084F8B370C4F8B480A4F8A2
:10346000BC60C4E92766C0345445B7D1224B03F190
:10347000180618685968224603C20833B342144636
:10348000F7D11A889B78A3701C4B228003F124018A
:1034900005F63B6253F8040B42F8040B8B42F9D15A
:1034A00005F56660FDF7CAFFFEF72CF900F5B85088
:1034B0001430C5F8980EFEF725F900F5BE5014300B
:1034C000C5F89C0E08F086FDC5F8A00E01F056FA6E
:1034D000002385F8B43EC5F8A40EC5F8A83EC5F88B
:1034E000AC3EC5F8B03EC5F8B83EC5F8BC3E28466F
:1034F000BDE8F88F240A0208D8040208F304020881
:10350000C4A80208EC3D020810B50A4C2368BFF3BA
:103510005B8FDB070CD4204618F095F940B10648C4
:10352000FFF712FF054819F08BFD204618F097F9B8
:10353000014810BD9C1D0020A01D0020D9350008A9
:1035400070B5234B234E0360C0F8606E044600F54F
:1035500066600BF0DDFA4FF45665635960191B681D
:10356000C03D9847B5F5326FF7D104F6C820FFF794
:103570002BF8C4F8906A04F529600BF0C9FA40F6FC
:103580007815635960191B68A5F58C759847B5F5D2
:10359000C66FF6D1635960191B68A5F58C759847FD
:1035A000B5F53A7FF6D1635960191B68A5F58C759E
:1035B000984715F1600FF6D18025635960191B6893
:1035C000383D984715F1280FF7D1204670BD00BF50
:1035D000240A0208903F020808B50248FFF7B0FF2E
:1035E00008BD00BFA01D002010B50446FFF7A8FFCE
:1035F00020464FF46C6118F024F9204610BD58B1F4
:1036000090F84830022B01D90020704700EB83006E
:10361000C36B1944C163F7E701207047F8B504464E
:1036200002F0AEFE04F58F5102F06FFF201D0BF08B
:1036300062FA04F6B830FEF78FFE04F1500704F585
:103640008866F82563596019DB6898473B683846F7
:10365000DB68984733683046DB6805F58C7598471A
:10366000B5F5886F07F1380706F1C006EAD14FF4C7
:10367000EF6540F6782663596019DB68C0359847D6
:10368000B542F8D104F5D0600BF035FA04F5E860E6
:103690000BF031FA04F6F82004F580540BF02BFA05
:1036A000D4F8CC010368DB689847D4F8D0010368EC
:1036B000DB6898474FF00000F8BD00002DE9F347A4
:1036C00000F580570446D7F8D83193F8F923022A39
:1036D0000BD193F8CC034B494B4B0022904218BFBF
:1036E000194604F5E8600AF0CFFEFEF70BF8FEF786
:1036F0007DFAFEF707F8FEF79DFA04F1F8060025BB
:10370000E9B2D7F8D80101F096F901350146304603
:10371000FFF73DF8032D06F58C76F1D1E56B002D12
:103720005CD1256C002D5BD1656C45B30226E36C42
:103730005D4302F025FED0F88C30E26C142B38BFCC
:10374000142353433C2253430A22B3FBF2F336B90A
:10375000D7F8D82192F8F923022A08BF6D424FF01A
:103760000008CDF800802A463146D7F8D80101F08C
:103770003DFF0E3604EB8606C5B2C6F80480D7F8C6
:10378000D83193F8CB2304F6F82A04F5D06904F570
:10379000886804F5A06704F5B8661ABB93F86E2331
:1037A00002BB93F8883303F0FD03012B1AD004F613
:1037B000B830FEF7D1FD50460CF094FE48460CF0B0
:1037C00091FE40460CF08EFE38460CF08BFE3046E3
:1037D0000CF088FE284602B0BDE8F0870026A6E778
:1037E0000126A4E750460CF061FE48460CF05EFE50
:1037F00040460CF05BFE38460CF058FE30460CF0AC
:1038000055FEE7E7070A0208FE0902082DE9F04F16
:103810008DB0044608910A920BF0FEFA0368DB684B
:10382000984700EB8003079304F588630593079B93
:1038300008330993089B0433069304F58053264606
:10384000A0464FF0000A0493049A049BD2F8D821B2
:10385000D3F8D43192F8F823D3F8A000002A14BF8B
:10386000042203220292072206F1F805A0F10803C0
:103870000192079A00920621069A9B0093FBF1F3AE
:1038800090FBF1F12846FEF7CBFEFF2204212846EB
:10389000FEF770FF0BF0C0FA022201462846FFF740
:1038A00073F800212846FEF772FF049BC44AD3F840
:1038B000D83193F8F813C34B002914BF91469946A9
:1038C0000BF0AAFA4946034603222846FFF772F88E
:1038D000FEF73EFB00231A4601462846FFF79DF8F7
:1038E000D6F8F83028465B6C01219847049B5FFAB4
:1038F0008AF1D3F8D80101F05DF883460BF0DAF9CC
:103900006FF07F4308F15009009300231A4659468F
:10391000019048460AF06BFC022148460AF07BFD04
:10392000D8F850309B691F46D6F8F83028469B6A75
:103930009847D8F850208346926B4846904700EB52
:10394000D0700BEBDB734110C1EB6301D6F8F8309C
:103950000B91DB6A28469847D6F8F8208346D26B4D
:1039600028469047D8F8503000EBD0700BEB600B36
:10397000DB6B4846984700EBD070ABEB60020B99CD
:1039800000234846B847D6F8F83028461B6B9847BE
:10399000D6F8F8308346DB6A28469847049BD3F86C
:1039A000D431D3F8A020D6F8F8300B921B6B074621
:1039B00028469847D6F8F8108146C96B28468847AC
:1039C0000B9A8149A2EB09090125A9F108030BF122
:1039D0000402CDE90105009305983B460CF050FC2C
:1039E000FEF7B6FA00231A46014605980CF0A1FD31
:1039F000059B099AC0330593069BAA441344BAF168
:103A0000030F06F58C7608F1380806937FF41CAF97
:103A100004F54A7304F6782A04F5EF684FF00009BC
:103A20001F46049BD3F8D431D3F8A060049BD3F88D
:103A3000D83193F8F833143EB608002B40F0BA8022
:103A40005146D4F8283305915B6B38469847834636
:103A50000BF0E2F90268D2689047321D09FB02F2CE
:103A600000EB8000059902950BF108030432CDE9C3
:103A7000006040460CF004FCFEF76AFA00230146A1
:103A80001A4640460CF055FD09F101094046032154
:103A90000CF0D7FCB9F1040F0AF10C0A08F1C008C8
:103AA000BFD1012104F6F8000CF038FD049BD3F8D7
:103AB000D83193F8F833002B7FD1D4F8E03AE3649F
:103AC0004FF00109CDF80890B4F90A310193B4F927
:103AD00000313E49083B04F5D0650093B4F902314A
:103AE000042228460CF0CCFBFEF732FA00230146F4
:103AF0001A4628460CF01DFDB4F90051B4F90281B4
:103B00000BF08AF96FF07F46083508F108082A465D
:103B10002E490190434604F5E86000960AF067FBE1
:103B20000BF07AF90368DB689847049BD3F8D4312B
:103B30000546D3F8A0700BF06FF90368DB6898476F
:103B40000A9B089A2249CDF808901A4404F6F828EE
:103B5000083F043A05EB850500EB8000531BCDE9D7
:103B60000070042240460CF08BFBFEF7F1F90023B5
:103B700001461A4640460CF0DCFCB4F98687B4F9DD
:103B8000025B0BF049F90368DB68984707460BF0C6
:103B900043F9A5EB08050422ED1BCDE900600D49B2
:103BA000A01808EB55030AF022FB4FF000000DB0FF
:103BB000BDE8F08F0AF1300143E7D4F8F03A7EE730
:103BC000E009020856110208400A020857120208CA
:103BD000440A02087C0A0208F7B5044601210430B1
:103BE0000AF072FF04F1500704F58866F82563595E
:103BF00064219B68601998473B6864219B6838463C
:103C00009847336830469B68642105F58C75984762
:103C1000B5F5886F07F1380706F1C006E7D14FF414
:103C2000EF6540F67826635960199B686421C035BA
:103C30009847B542F7D1032384F84830002104F1B6
:103C4000F800FEF7D1FE04F58055002104F504705C
:103C5000FEF7CAFE002104F54A70FEF7C5FED5F84E
:103C6000D83193F8F933022B09D1652104F5E860C6
:103C70000AF02AFF632104F5D0600AF025FF6621CF
:103C800004F6F8200AF020FFD5F8CC01036866217D
:103C90009B689847D5F8D001036866219B689847D0
:103CA00002F06EFB0546FEF753F904F58F5301460B
:103CB00000932846034A234602F00FFC4FF0000011
:103CC00003B0F0BDFF35000870B50A230025044697
:103CD000C0E90055C0E90255C0E9045583611C30B4
:103CE000FDF79EFB314BE361C4E90F5504F144003D
:103CF000FDF796FB2E4B6364C4E9195584F86C50AC
:103D0000256704F17400FDF78BFB2A4B636704F110
:103D10009400FDF793FB04F1CC00FFF7A3F904F541
:103D2000F270FDF79FFB04F52970FDF79BFB04F58E
:103D30005970FDF797FB204B93E8070004F22445E8
:103D400085E8070004F5866603F10C023C33106831
:103D50005168354603C508329A422E46F7D104F51C
:103D60008C60FDF77FFB04F5A460FDF77BFB08F09A
:103D700031F9002384F8F03584F80836C4F8E005FA
:103D8000C4F8E435C4F8E835C4F8EC35C4F8F435C3
:103D9000C4F8F835C4F8FC35C4F80036C4F8043665
:103DA000C4F80C36C4F81036204670BDE43F020853
:103DB000403E0208943E02081805020810B5002192
:103DC000044600F5EF600CF0A9FB04F63800002172
:103DD0000CF0A4FB04F6F80000210CF09FFB04F6A5
:103DE000B8100021BDE810400CF098BB2DE9FF4150
:103DF00000F580560446D6F8CC318B420D4600F0D3
:103E0000EC80D6F8D0318B4200F0E78000F5D0632B
:103E100099420DD1D6F8D80190F8CC332BB101F0EE
:103E2000D1FB002004B0BDE8F08101F0D5FBF8E73C
:103E300000F6F82088422AD194F82C3B04F58868D3
:103E400004F5A06704F5B865A3B9D6F8D83193F89E
:103E5000881301290ED10CF061FB614940460CF03A
:103E600065FA5F4938460CF061FA5D4928460CF066
:103E70005DFAD6E700210CF051FB5A4940460CF0A0
:103E800055FA584938460CF051FA5649EEE704F60F
:103E9000B838884519D004F5EF67B9421ED004F64A
:103EA0003807B9422DD004F6F807B9422BD004F6F2
:103EB000B817B94229D004F1F800814241D004F585
:103EC0008863994276D100253EE0D4F8C82C94F856
:103ED000C41BD6F8D80101F087FDA2E700252046D3
:103EE000FFF76CFF012138460CF018FBD6F8D831EB
:103EF00093F8F8335BB905F2B62554F82530E3643E
:103F00008FE70125EBE70225E9E70325E7E705F25F
:103F1000BA25F2E701260021FEF766FD002104F52F
:103F20000470FEF761FD002104F54A70FEF75CFDA8
:103F300001212846FEF758FD84F8486071E7022603
:103F4000E9E70026E7E7012594F82C3BD6F8D801ED
:103F5000E9B213B901F01CFD63E700F02BFDD6F8C0
:103F6000D83193F8F833002B4FF48C7303FB0543DF
:103F700014BF04220322D3F83C31029201461A4AAC
:103F80001A48CDE900201A481A4A08BF024640469E
:103F9000FEF744F8FDF7DCFF002301461A464046D1
:103FA000FDF7DDFFC4F8C45B42F210714046FDF737
:103FB000F9FF36E704F504739942ABD004F5A0632A
:103FC0009942C0D004F54A739942B8D004F5B86359
:103FD00099427FF426AF0225B6E7082022E700BF0A
:103FE000132C0208400A0208806967FF8096980037
:103FF00056110208E0090208F8B54C4B044640F897
:10400000043BFDF71BFA0023C4E90F336364032369
:1040100084F848300123E36404F15000FDF70EFA00
:1040200004F18800FDF70AFA04F1C000FDF706FA72
:1040300004F1F800FFF716F804F50470FFF712F822
:1040400004F54A70FFF70EF804F58860FDF70AFAE8
:1040500004F5A060FDF706FA04F5B860FDF702FA72
:1040600004F5D060FDF7FEF904F5E860FDF7E6F928
:1040700004F5EF6504F678262846C035FDF7F2F919
:10408000B542F9D12A4B03F13006186859682A461F
:1040900003C20833B3421546F7D1264B03F130076C
:1040A00004F6A8263A4618685968354603C5083309
:1040B000BB422E46F7D10FCA04F6D82585E80F007B
:1040C0001D4B0FCB04F6E82585E80F0004F6F82019
:1040D000FDF7C8F904F6B830FFF7F6FDFDF712FB5F
:1040E00004F5805500F5B8501430C5F8CC01FDF743
:1040F00009FB00F5BE501430C5F8D00107F06AFF87
:10410000C5F8D40100F03AFCC5F8D80102F0B2FCC1
:10411000002385F8EC31C5F8DC01C5E97833C5E941
:104120007C33C5F8E8312046F8BD00BF600A0208BC
:104130005405020884050208C405020810B50A4C9B
:104140002368BFF35B8FDB070CD4204617F07BFBA3
:1041500040B10648FFF750FF054818F071FF2046B0
:1041600017F07DFB014810BD602C0020642C00205E
:104170008D42000810B5034B036004460AF0C8FCEA
:10418000204610BD903F020810B50446FFF7F2FF2D
:104190002046382117F055FB204610BD38B504469F
:1041A00000F5A460FDF7EEFD04F58C60FDF7EAFD77
:1041B0004FF45975635960191B68C03D9847B5F5B0
:1041C000927FF7D104F1CC00FEF7FEF904F19400E0
:1041D000FFF7D0FF2046094B40F8743F0AF098FCE7
:1041E0002046074B40F8443F0AF092FC2046054B1E
:1041F00040F81C3F0AF08CFC204638BD943E020873
:10420000403E0208E43F020838B51F4B03600446F5
:1042100000F6B830FFF7C2FF04F6F820FDF7B2FD54
:1042200040F6B815635960191B68C03D9847B5F54D
:10423000D76FF7D104F5E860FFF79CFF04F5D06075
:10424000FDF7A0FD4FF4B865635960191B68C03DC8
:104250009847B5F5607FF7D14FF44A7563596019F7
:104260001B68A5F58C75984715F1200FF6D1C02570
:10427000635960191B68383D9847182DF8D1201DE7
:10428000FFF778FF204638BD600A020808B50248EB
:10429000FFF7BAFF08BD00BF642C002010B504462C
:1042A000FFF7B2FF204641F2F81117F0CAFA204694
:1042B00010BD4FF0000070474FF0000070474FF006
:1042C0000000704708B5806E032108F007FB4FF02F
:1042D000000008BD61B990F8313083F0010380F827
:1042E0003130012213B1034909F020B80249FBE73C
:1042F000704700BF000000201400002010B5034BE1
:10430000036004460AF004FC204610BD98350208FC
:1043100010B50446FFF7F2FF2046342117F091FA5A
:10432000204610BD10B5034B03600446FDF75CF852
:10433000204610BDB80A020808B50248FFF7F2FF90
:1043400008BD00BF503F002010B50446FFF7EAFF4C
:1043500020466C2117F075FA204610BD70B51E4E30
:104360003568BFF35B8F15F0010532D1304617F089
:104370006AFA70B3194C1A4B2046102240F8043BDD
:1043800002212B460BF0B9FA2A4629462B4604F1A6
:1043900024000BF0B2FA134BE564C4E915344FF472
:1043A0008063A4F85E30022384F860300E4B6366AD
:1043B0000E4B2360C4E9115584F8505084F85C50CA
:1043C00007F008FEA0660A4818F03AFE304617F0DB
:1043D00046FA024870BD00BF4C3F0020503F00200D
:1043E0005CA80208CDF60008960A0208B80A02087E
:1043F0003943000838B50023016083808371044687
:1044000007F0E8FDA06018F057FE062590FBF5F3D5
:1044100003FB15000130207118F04EFE90FBF5F300
:1044200003FB1500013001236071A371204638BDE4
:104430002DE9F0410446006803681B6B9847064667
:10444000206803689B6A98470746206803685B6B8F
:104450009847054620680368DB6A984794F904206A
:104460002B18F01900EBD07003EBD37312EB600044
:104470004FEA6303114604D4A568D5F8A050A842BA
:1044800002DB52422271002194F90500C318024652
:1044900004D4A568D5F8A450AB4202DB4042607159
:1044A0000022206803689C690123A446BDE8F0410E
:1044B0006047000038B504461D46084B08F010FF61
:1044C000074B236084F8315025B904492A46204619
:1044D00008F02CFF01236375204638BD0000002042
:1044E000E40A02082DE9F0430022ADF5177D0546E8
:1044F0001146012343A8FFF7DDFFAB6EBDF91E1186
:10450000D3F8A420BDF91C01DFF85882521AD3F861
:10451000A010091A02EBD27201EBD17100235210E4
:10452000491043A80AF00EFB4FF0FF1601274FF485
:10453000004143A80AF0C8FA1E239622CDE900677D
:10454000782117A809F058FD282117A800240AF09F
:10455000BBFA4FF47F03CDE9003478221E23962165
:1045600021A809F049FD322121A80AF0ADFA4FF443
:104570007F4978232222CDE900392E21602305A826
:1045800009F0EEFC1E2105A80AF09EFA4C23222217
:10459000CDE900382E216E230EA809F0E1FC1E2182
:1045A0000EA80AF091FA0AF0C1FB22460A23CDE9CF
:1045B00000606A4950A809F065FE462150A80AF03B
:1045C00083FA0AF0EDFB22461423CDE9008063490B
:1045D0005EA809F057FE50215EA80AF075FA0AF0AD
:1045E00055FC4FF6FF7822461E235C490190CDF81A
:1045F00000806CA809F046FE5A216CA80AF064FA03
:104600000AF0CEFB22463223CDE901605349CDF8B2
:1046100000907AA809F0A2FE64217AA80AF054FA60
:104620000AF00EFBFF26224646234C4901900096D5
:1046300088A809F027FE6E2188A80AF045FACDE97E
:1046400001670A2622466423214600962BA809F01A
:10465000D1FB31462BA80AF037FA142346220096E4
:104660006421CDE9018737A809F0C4FB142137A8DC
:104670000AF02AFA0C2007F055FC394C17A9064617
:10468000FFF7B8FE0C20266007F04CFC21A9064677
:10469000FFF7B0FE0C20666007F044FC05A9064653
:1046A000FFF7A8FE0C20A66007F03CFC0EA906460A
:1046B000FFF7A0FE0C20E66007F034FC50A9064688
:1046C000FFF798FE0C20266107F02CFC5EA9064639
:1046D000FFF790FE0C20666107F024FC6CA90646EB
:1046E000FFF788FE0C20A66107F01CFC7AA906469D
:1046F000FFF780FE0C20E66107F014FC88A906464F
:10470000FFF778FE0C20266207F00CFC2BA906466A
:10471000FFF770FE0C20666207F004FC37A906461E
:10472000FFF768FEA662A86E4FF0FF3107F023FD89
:10473000C4B2002CF7D10A4E56F8040B0134FFF72F
:1047400077FE0B2CF8D1A86E07F01AFDA86E07F0C3
:1047500026FD01200BF043FAE5E700BFA00A02089E
:104760005C3E002000FFFF00034BD3F85C23034BAB
:104770001A615A62704700BFE43502080000002049
:1047800008B5806E03689B6898474FF0000008BD2D
:1047900070B50446806E03681B6A9847B0B9062559
:1047A000D4F8FC3333B194F8CB331BB994F86E339F
:1047B000002B4CD00023012204F57F7120460AF023
:1047C00068FFC5B201200BF00CFA40E0D4F8FC33CE
:1047D000C3B904F16C054FF4807204F5806128467A
:1047E00019F0EDFCA66E2846FBF704FD336802467F
:1047F0002946DB6930469847C5B2062DCFD0222D19
:1048000024D1CDE794F8CB2312B994F86E2302B3E8
:1048100094F87123EAB994F8D923AAB90BF0DDF919
:1048200004F59065C4F87C034FF0FF3128460AF088
:10483000F5FF012384F87133D4F8FC33C4F88433D2
:1048400028460BF010F8C4E7C4F884330025284646
:1048500070BD0625A7E7000010B5064B03600446AF
:1048600000F590600AF0D2FF2046FCF7BDFD20461F
:1048700010BD00BF7C1A020808B50248FFF7ECFF24
:1048800008BD00BFC03F002010B50446FFF7E4FF9D
:10489000204640F2746116F0D4FF204610BD00009F
:1048A000F8B5314B314F0446102240F8043B222129
:1048B00000230BF022F800238422202104F124009D
:1048C0000BF01BF82A49C4E915144FF48061A4F8D1
:1048D0005E10022184F860102649616604F57F733A
:1048E000254963640122002321604FF08071C4E9EF
:1048F0001232C4E9DD33C4E9DF3284F8503084F881
:104900005C20A366C4F86C13A4F87023C4F8843345
:10491000A4F8F623A4F8F83304F590600AF06CFFCD
:1049200097E80F0004F2844507F1100685E80F00B0
:104930000FCE04F294450FC50FCE0FC596E80700C1
:1049400085E8070007F13C01502204F5986019F052
:1049500076FD4FF4B27207F18C0104F5A26019F0F4
:104960006EFD2046F8BD00BF5CA80208D405020811
:10497000CDF60008501102087C1A020810B50A4C46
:104980002368BFF35B8FDB070CD4204616F05BFF78
:1049900040B10648FFF784FF054818F051FB204658
:1049A00016F05DFF014810BDBC3F0020C03F002055
:1049B00079480008032928BF032100EB8100D0F8C3
:1049C000840470470B2928BF002100EB8100D0F838
:1049D00094047047582928BF582101F5A27150F856
:1049E00021007047022970B505460C4621D800F514
:1049F00090664FF0FF3130460AF010FF95F8F8331B
:104A0000002B42F2107308BF4FF47A7307EE903A0E
:104A100005EB840494EDE37AF8EEE77A304667EE2E
:104A2000877AFDEEE77A17EE904A0AF01CFF2046DF
:104A300070BD0024FBE7022970B505460C4625D859
:104A400000F590664FF0FF3130460AF0E7FE95F82A
:104A5000F83305EB8404D4EDE67A94EDE37A002B89
:104A600042F2107308BF4FF47A7337EE677A07EE9D
:104A7000903AF8EEE77A304667EE877AFDEEE77A0D
:104A800017EE904A0AF0EFFE204670BD0024FBE7C7
:104A9000022970B505460C4621D800F590664FF006
:104AA000FF3130460AF0BAFE95F8F833002B42F297
:104AB000107308BF4FF47A7307EE903A05EB840445
:104AC00094EDE97AF8EEE77A304667EE877AFDEE04
:104AD000E77A17EE904A0AF0C6FE204670BD002421
:104AE000FBE7022970B505460C4625D800F590660F
:104AF0004FF0FF3130460AF091FE95F8F83305EBA0
:104B00008404D4EDE67A94EDE97A002B42F2107336
:104B100008BF4FF47A7337EE677A07EE903AF8EEF3
:104B2000E77A304667EE877AFDEEE77A17EE904A2D
:104B30000AF099FE204670BD0024FBE790F871232F
:104B4000D0F8843322B9994202D190F8D903704742
:104B5000994234BF54205520704700B5A3B00023BC
:104B60008DF80810012201A901938DF809300AF08F
:104B700090FD23B05DF804FB10B5044601F07AFF08
:104B8000027972B916484FF400510CF04BF894F8C2
:104B9000D4336FF3000384F8D433012384F86F33E4
:104BA00010BD01F067FF0379012B0CD194F86F332E
:104BB000002BECD18B212046FFF7CFFF0BF00DF837
:104BC000C4F87803E3E701F055FF0379022BDED147
:104BD000034800224FF400510CF024F8E6E700BF30
:104BE0000008024038B5044601F044FF0579BDB91C
:104BF0001E4801224FF400510CF014F884F86F5352
:104C0000D4F88023C4F8842394F8D423002363F3D6
:104C1000000284F8713384F8D93384F8D42324E073
:104C200001F028FF0379012B0DD194F86F3333B1D4
:104C300094F8CB331BB18B212046FFF78EFF002366
:104C400084F86F33DCE701F015FF0379022B06D1FE
:104C5000064801224FF400510BF0E4FFE5E701F0B4
:104C600009FF94F86F33002BCAD038BD000802400A
:104C700073B5069D83EAE3741846A4EBE37442F22D
:104C800010739D420E46114612D1B4FBF5F305FB9D
:104C90001344264ACDE90034254B13EA200338BFDC
:104CA0001346244A304619F099F9304602B070BDD7
:104CB000B5F57A7F0DD1B4FBF5F305FB13441B4A20
:104CC000CDE900341A4B13EA200338BF13461A4AC1
:104CD000E8E7642D0DD1B4FBF5F305FB1344134A4B
:104CE000CDE90034124B13EA200338BF1346134AB0
:104CF000D8E70A2D0DD1B4FBF5F305FB13440B4A9D
:104D0000CDE900340A4B13EA200338BF13460C4A9E
:104D1000C8E7064A064B009413EA200338BF13463F
:104D2000084A304619F05AF9BFE700BF5712020887
:104D3000591102085B110208671102087311020879
:104D40007F1102088B1102082DE9F0410F4605463C
:104D50003A21384619F014FA38B3002300F8013B21
:104D600018F077F9C4B205F59268002658F8041FC8
:104D70003846FBF735FA08B9F6B203E001360B2ED8
:104D8000F4D1002695F88833B34203D195F88923EE
:104D9000A2420CD013B9012385F8F63385F8886355
:104DA00085F889430120BDE8F0810446DBE7002057
:104DB000F9E710B510460C4618F048F951EC100B05
:104DC000FBF72AFF94ED007A07EE900AB4EE677ABB
:104DD000F1EE10FA16BF01200020C4ED007A10BDDC
:104DE00010B510460C4618F034F92268034682428A
:104DF00016BF01200020236010BD2DE9F0410746B9
:104E00000C46154602F10C08002629462246384673
:104E1000FFF7CFFF2C21002818BF0646204619F0C7
:104E2000AFF920B10435454500F10104EDD130461C
:104E3000BDE8F08190F8C83310B5044663B3D0EDF7
:104E4000E67AF5EE407AF1EE10FA0FD1D0EDE77A7E
:104E5000F5EE407AF1EE10FA08D1D0EDE87AF5EEF1
:104E6000407AF1EE10FA14BF0123002394F8D02306
:104E700063F3C302002384F8D023C4F89833C4F842
:104E80009C33C4F8A03394F8D03394F8C92362F368
:104E9000451384F8D03310BD00F56672FFF7ADFFFF
:104EA00094F8D03360F3C30384F8D033EBE770B5E4
:104EB0000E4604462C21304619F062F905460023BF
:104EC00005F8013B324604F56F712046FFF788FF75
:104ED00028B194F8D23343F0010384F8D2332C2163
:104EE000284619F04DF90646002306F8013B2A46EC
:104EF00004F570712046FFF773FF28B194F8D233A0
:104F000043F0020384F8D233324604F57C71204624
:104F1000FFF766FF28B194F8D23343F0040384F816
:104F2000D23370BD70B50D4604462C21284619F0C9
:104F300027F90646002306F8013B2A4604F571715D
:104F40002046FFF736FF28B194F8D13343F002032F
:104F500084F8D1332C21304619F012F9054610B1EE
:104F6000002305F8013B324604F579712046FFF72E
:104F700020FF28B194F8D13343F0040384F8D133EF
:104F800065B12A4604F57A712046FFF712FF28B171
:104F900094F8D13343F0040384F8D13370BD00009A
:104FA0002DE9F84300F5B6760446B9493046FBF7DB
:104FB00017F928B984F8710384F8D903BDE8F88398
:104FC00094F86C31242B10D13D21304619F0D8F8DB
:104FD000054650B1002305F8013B04F26D1018F0AE
:104FE00038F80D284DD020285BD094F86C313C2B3C
:104FF00040F03581012384F870330AF0EEFDA549B5
:10500000C4F8780304F26D1019F0ECF80546F8B115
:1050100001462046FFF798FE28B194F8D03343F0BC
:10502000020384F8D03394F8D83363B194F888330A
:10503000052B08D094F8D133002262F3C30384F81F
:10504000D82384F8D1339349002019F0CBF80546D2
:10505000914FDFF86482DFF86492002675BB002E62
:10506000ACD194F8DA33002B94F8D13314BF012279
:10507000002262F3861384F8D1339FD084F8DA6378
:105080009CE7284694F8F87317F0E3FF8742ACD00A
:10509000284617F0DEFF84F8F803012384F8F7337D
:1050A000A3E7284694F8F97317F0D3FF87429CD002
:1050B000284617F0CEFF84F8F903EEE705223946BB
:1050C000284619F06AF8E8B994F8C83343B90123BF
:1050D00084F8C83394F8D03343F0080384F8D0330D
:1050E00004F56372691D2046FFF787FE94F8D033FC
:1050F00060F3820384F8D0336649002019F072F817
:105100000546ABE705224146284619F046F830B976
:1051100094F8C833002BE3D084F8C803DAE70322FD
:105120004946284619F039F820B9E91C2046FFF70E
:10513000F9FEE1E759490422284619F02EF820B972
:10514000291D2046FFF776FED6E75549032228465B
:1051500019F023F8A8B904F2DA36033529463046A7
:10516000FBF73EF894F8D133003818BF012060F304
:10517000861384F8D1333046294619F058F90126B0
:10518000BAE748490222284619F007F868B9AB780F
:10519000A3F131004342434184F8CC3394F8D13336
:1051A00043F0200384F8D133A6E73F490222284682
:1051B00018F0F3FF30BB94F8D033A4F8F40343F0B5
:1051C00040030235A4F8EC0384F8D033012240F206
:1051D000011115F8013B002B8ED04D2B0CD006D8B9
:1051E000432B0CD0462BF4D184F8F423F1E7532B56
:1051F000EFD1A4F8EC23ECE784F8F523E9E7A4F871
:10520000EC13E6E729490322284618F0C6FF20B927
:10521000E91C2046FFF74BFE6EE72549042228468D
:1052200018F0BBFF00287FF467AF2A7994F8CB33DE
:10523000A2F131014A424A419A4209D083F0010366
:1052400084F8CB3394F8D03343F0010384F8D0339F
:1052500094F8D43343F0010384F8D4334CE75B2B48
:1052600042D104F26D1513490422284618F095FF27
:1052700030BB04F5697204F271112046FFF7BDFDE1
:1052800094F8D23360F3C30384F8D23396E600BFB8
:10529000911102089411020896110208A611020841
:1052A000AB110208C32B0208AF110208B2110208A9
:1052B000B6110208BB1102089C110208A2110208D3
:1052C0001F490422284618F068FF00287FF476AEB4
:1052D00004F56C7204F271112046FFF78EFD94F80C
:1052E000D23360F30413CFE716490622304618F094
:1052F00054FF054670B904F5B97017F0AAFE94F88A
:10530000D13384F8D90343F0100384F8D13384F8FF
:10531000715353E60C490622304618F03EFF002830
:105320007FF44CAE04F5B97017F093FE94F8D133C6
:1053300084F8D80343F0080384F8D1333EE600BF75
:10534000C0110208C5110208CC11020873B500266D
:1053500004468DF80760A06E03680DF107011B6914
:105360009847C0B208B102B070BD9DF80720182A56
:1053700002D1A4F86C63EEE70A2AB4F86C3301D0CA
:105380000D2A13D1002BF4D02344002204F590659C
:1053900083F86C214FF0FF3128460AF03FFA20468F
:1053A000FFF7FEFD28460AF05EFAE2E7B3F5FE7F5E
:1053B0009FBF591C1B19A4F86C1383F86C21CAE712
:1053C00070B5044600F590664FF0FF3130460AF0A4
:1053D00025FAD4F880536B1C012B38BF0123C4F885
:1053E000803330460AF03FFA284670BD70B590F819
:1053F000CB33A2B004460D46164613B990F86E336F
:105400008BB194F8883373B12046FFF7D9FF6A1E39
:1054100001900DF107017F3512F8013F01F8013FBE
:1054200023B1AA42F8D10C2022B070BD1A4601A9BE
:1054300020460AF02EF9019B3360C0B2F4E7000069
:1054400007B50022044980F8D92301AAFFF7CEFF4F
:1054500003B05DF804FB00BFBA1A020807B50349A0
:1054600001AAFFF7C3FF03B05DF804FBB51A0208F9
:1054700010B50446FFF76AFF0AF0AFFBD4F87833A3
:10548000C01AB0F5967F81BF002384F888330123CA
:1054900084F8703394F8CB3313B994F86E3313B1A6
:1054A00094F8883363B994F871334BB1002384F8CE
:1054B0007133D4F88033C4F88433562384F8D93355
:1054C00001F0D8FA0379012B0DD194F86F2394F8E9
:1054D000CB3372B994F8CB3363B994F86E334BB9CC
:1054E0004FF0000010BD01F0C5FA0379022BF1D195
:1054F000EBE773B394F8F6332BB12046FFF7AEFF1A
:10550000002384F8F63394F8CB331BB994F86E3348
:10551000002BE5D094F87033002BE1D00AF05DFB4E
:10552000D4F87433C01A6428DAD9A06E03681B6AF1
:1055300098470028D4D00AF050FBC4F87403A06E3A
:105540001549002384F8703303680122DB6998470A
:10555000C6E794F86E33002BCCD194F8D433DB0734
:1055600011D58B212046FFF7F8FA0AF036FB94F8A4
:10557000D433C4F87403002262F3000384F8702368
:1055800084F8D433A6E70AF028FBD4F87833C01A9D
:10559000B0F5967FE5D89DE7D311020807B503491A
:1055A00001AAFFF723FF03B05DF804FBB01A02085D
:1055B00007B5034901AAFFF719FF03B05DF804FB23
:1055C000AA1A020807B5034901AAFFF70FFF03B0A3
:1055D0005DF804FBA51A020807B5034901AAFFF705
:1055E00005FF03B05DF804FBA01A02082DE9F041A5
:1055F0000229AEB004460D4617461E464FD890F815
:10560000CB331BB990F86E33002B4AD094F8883313
:1056100003F0FD03012B44D12046FFF7D1FE94F89F
:10562000F8330D90002B0DF1140842F2107308BFEF
:105630004FF47A73009310223B4641462046FFF711
:1056400017FB09AF642300931022334639462046E6
:10565000FFF70EFB94F8F8139DF8D000124B134A95
:10566000CDE9028704EB8505002818BF1A46D5F856
:105670008434CDE900230E4A0E4B0EA8002908BF42
:1056800013460D4A802118F0A9FC00231A460DA9E3
:10569000204609F0FEFFC0B22EB0BDE8F081022026
:1056A000FAE70C20F8E700BFDD110208E11102085B
:1056B000D5110208D9110208E51102082DE9F041BF
:1056C0000229AAB004460D4617461E463ED890F859
:1056D000CB331BB990F86E33002B39D094F8883354
:1056E00003F0FD03012B33D12046FFF769FE94F848
:1056F000F8330990002B0DF1140842F2107308BF23
:105700004FF47A73009310223B4641462046FFF740
:10571000AFFA94F8F8130F4ACDE9018604EB85053A
:105720000AA8D5F8843400930B4B002908BF134610
:105730000A4A802118F052FC00231A4609A9204683
:1057400009F0A7FFC0B22AB0BDE8F0810220FAE755
:105750000C20F8E7D5110208D9110208F611020849
:105760002DE9F0431E4690F8CB33BBB00446884683
:1057700091461BB990F86E33002B6DD094F88833A6
:1057800003F0FD03012B67D12046FFF719FE94F8C3
:10579000F833199042F21075002B14BF2B464FF4CA
:1057A0007A7309AF00931022434639462046FFF72B
:1057B0005FFA94F8F833002B14BF2B464FF47A733A
:1057C0000DF13408009310224B4641462046FFF766
:1057D0004FFA94F8F833002B08BF4FF47A750DF1A7
:1057E000440900953346102249462046FFF740FA07
:1057F00015AD642300931022429B29462046FFF7F3
:1058000037FA94F8F8139DF80C01144B144ACDE9BB
:105810000695002818BF1A46D4F88C34CDE90483C5
:10582000D4F88834CDE90273D4F88434CDE9002368
:105830000C4A0D4B1AA8002908BF13460B4A8021B9
:1058400018F0CCFB00231A4619A9204609F021FFC5
:10585000C0B23BB0BDE8F0830C20FAE7DD110208CE
:10586000E1110208D5110208D91102080C12020830
:105870002DE9F043994690F8CB33BBB004460F4670
:1058800090461BB990F86E33002B71D094F8883392
:10589000013B022B6CD82046FFF792FD94F8F833B9
:1058A000199042F21075002B14BF2B464FF47A73F7
:1058B00009AE009310223B4631462046FFF7D8F947
:1058C00094F8F833002B14BF2B464FF47A730DAFC6
:1058D00000931022434639462046FFF7C9F994F851
:1058E000F833002B08BF4FF47A750DF1440800958A
:1058F0004B46102241462046FFF7BAF915AD642306
:1059000000931022429B29462046FFF7B1F99DF8EB
:105910001001184B184A94F8F8139DF80CC105971C
:10592000CDE90685002818BF1A46144B1448BCF16F
:10593000000F18BF1846D4F88834CDE90363D4F8B3
:1059400084340092CDE901030E4A0F4B1AA80029B6
:1059500008BF13460D4A802118F040FB00231A4669
:1059600019A9204609F095FEC0B23BB0BDE8F0830E
:105970000C20FAE7DD110208E111020825120208E5
:1059800029120208D5110208D91102082D120208A5
:1059900030B50229A3B004460D461FD890F8CB338A
:1059A00013B990F86E33DBB194F88833012B17D11B
:1059B0002046FFF705FD04EB85050A4AD5F8843437
:1059C0000190802102A818F009FB00231A4601A9C2
:1059D000204609F05EFEC0B223B030BD0220FBE7D6
:1059E0000C20F9E747120208F0B50229A9B00446D5
:1059F0000D46164639D890F8CB331BB990F86E3364
:105A0000002B34D094F88833012B30D12046FFF797
:105A1000D7FC94F8F8330790002B03AF42F21073D1
:105A200008BF4FF47A73009310223346394620465C
:105A300004EB8505FFF71CF994F8F8130197D5F8E6
:105A400084340C4A00930C4B08A8002908BF134665
:105A50000A4A802118F0C2FA00231A4607A92046F4
:105A600009F017FEC0B229B0F0BD0220FBE70C2000
:105A7000F9E700BFD5110208D9110208581202082F
:105A80002DE9F0410229AEB004460D4690461F466E
:105A90005AD890F8CB331BB990F86E33002B55D001
:105AA00094F88833012B51D12046FFF789FC94F8F4
:105AB000F8330D90002B05AE42F2107308BF4FF47F
:105AC0007A7300931022434631462046FFF7D0F800
:105AD0000DF124086423009310223B4641462046E2
