:020000040800F2
:100000000000022021AF010879A601087BA60108A3
:100010007DA601087FA6010881A601080000000056
:10002000000000000000000000000000019901082D
:1000300083A60108000000009199010885A6010827
:1000400071AF010871AF010871AF010871AF01080C
:1000500071AF010871AF010871AF010871AF0108FC
:1000600071AF010871AF010871AF010871AF0108EC
:1000700071AF010871AF010871AF010871AF0108DC
:1000800071AF010871AF010871AF010800000000F5
:1000900000000000000000000000000071AF010837
:1000A00071AF010871AF010871AF010871AF0108AC
:1000B00071AF010871AF010871AF010871AF01089C
:1000C00071AF010871AF010871AF010871AF01088C
:1000D00071AF01089DA6010871AF01080000000082
:1000E00071AF010871AF010871AF01080000000095
:1000F00000000000000000000000000071AF0108D7
:1001000000000000A9A6010871AF010871AF010845
:1001100000000000000000000000000000000000DF
:1001200071AF010871AF0108B5A60108C1A60108A9
:1001300071AF010800000000000000000000000096
:10014000000000000000000000000000CDA6010833
:10015000D9A6010871AF0108E5A6010871AF010831
:1001600071AF010871AF010800000000000000003D
:10017000000000000000000000000000000000007F
:100180000000000071AF0108000000000000000046
:0801900071AF010871AF010815
:1001A00010B5054C237833B9044B13B10448AFF3B1
:1001B00000800123237010BD5003002000000000C8
:1001C000ECFB010808B5034B1BB103490348AFF32F
:1001D000008008BD0000000054030020ECFB010873
:1001E00010F8012B11F8013B012A28BF9A42F7D0E1
:1001F000D01A7047034613F8012B002AFBD1181AB6
:1002000001387047000000000000000000000000FE
:1002100001F0FF01102A2BDB10F0070F08D010F8B7
:10022000013B013A8B422DD010F0070F42B3F6D1BB
:10023000F0B441EA012141EA014122F007047FF0D4
:1002400000070023F0E80256083C85EA010586EA2B
:10025000010685FA47F5A3FA87F586FA47F6A5FA67
:1002600087F68EB9EED1F0BC01F0FF0102F0070273
:1002700032B110F8013B013A83EA010313B1F8D11E
:100280000020704701387047002D06BF35460338FF
:10029000073815F0010F07D1013015F4807F02BF38
:1002A000013015F4C03F0130F0BC0138704700BF89
:1002B00081F0004102E000BF83F0004330B54FEA17
:1002C00041044FEA430594EA050F08BF90EA020F84
:1002D0001FBF54EA000C55EA020C7FEA645C7FEA17
:1002E000655C00F0E2804FEA5454D4EB5555B8BF3A
:1002F0006D420CDD2C4480EA020281EA030382EAAB
:10030000000083EA010180EA020281EA0303362D3C
:1003100088BF30BD11F0004F4FEA01314FF4801C0F
:100320004CEA113102D0404261EB410113F0004F21
:100330004FEA03334CEA133302D0524263EB4303D8
:1003400094EA050F00F0A780A4F10104D5F1200E76
:100350000DDB02FA0EFC22FA05F2801841F10001D1
:1003600003FA0EF2801843FA05F359410EE0A5F1A5
:1003700020050EF1200E012A03FA0EFC28BF4CF0D6
:10038000020C43FA05F3C01851EBE37101F000458C
:1003900007D54FF0000EDCF1000C7EEB00006EEB99
:1003A0000101B1F5801F1BD3B1F5001F0CD3490823
:1003B0005FEA30004FEA3C0C04F101044FEA44527A
:1003C00012F5800F80F09A80BCF1004F08BF5FEA01
:1003D000500C50F1000041EB045141EA050130BDE1
:1003E0005FEA4C0C404141EB0101013C28BFB1F5F3
:1003F000801FE9D291F0000F04BF01460020B1FA3E
:1004000081F308BF2033A3F10B03B3F120020CDA10
:100410000C3208DD02F1140CC2F10C0201FA0CF0EE
:1004200021FA02F10CE002F11402D8BFC2F1200C53
:1004300001FA02F120FA0CFCDCBF41EA0C01904009
:10044000E41AA2BF01EB0451294330BD6FEA040452
:100450001F3C1CDA0C340EDC04F11404C4F120023D
:1004600020FA04F001FA02F340EA030021FA04F34F
:1004700045EA030130BDC4F10C04C4F1200220FAA6
:1004800002F001FA04F340EA0300294630BD21FAE4
:1004900004F0294630BD94F0000F83F4801306BFAA
:1004A00081F480110134013D4EE77FEA645C18BF9E
:1004B0007FEA655C29D094EA050F08BF90EA020F35
:1004C00005D054EA000C04BF1946104630BD91EA2D
:1004D000030F1EBF0021002030BD5FEA545C05D130
:1004E0004000494128BF41F0004130BD14F580046F
:1004F0003CBF01F5801130BD01F0004545F0FE41E3
:1005000041F470014FF0000030BD7FEA645C1ABF17
:10051000194610467FEA655C1CBF0B46024650EA4E
:10052000013406BF52EA033591EA030F41F400217A
:1005300030BD00BF90F0000F04BF0021704730B500
:100540004FF4806404F132044FF000054FF00001D5
:1005500050E700BF90F0000F04BF0021704730B596
:100560004FF4806404F1320410F0004548BF40426B
:100570004FF000013EE700BF42004FEAE2014FEAC0
:1005800031014FEA02701FBF12F07F4393F07F4F9B
:1005900081F06051704732F07F4208BF704793F09E
:1005A0007F4F04BF41F40021704730B54FF46074B1
:1005B00001F0004521F000411CE700BF50EA0102B4
:1005C00008BF704730B54FF000050AE050EA01025D
:1005D00008BF704730B511F0004502D5404261EBCD
:1005E00041014FF4806404F132045FEA915C3FF40E
:1005F000D8AE4FF003025FEADC0C18BF03325FEAAB
:10060000DC0C18BF033202EBDC02C2F1200300FA5B
:1006100003FC20FA02F001FA03FE40EA0E0021FA80
:1006200002F11444BDE600BF70B54FF0FF0C4CF46E
:10063000E06C1CEA11541DBF1CEA135594EA0C0F20
:1006400095EA0C0F00F0DEF82C4481EA030621EA5B
:100650004C5123EA4C5350EA013518BF52EA033596
:1006600041F4801143F4801338D0A0FB02CE4FF048
:100670000005E1FB02E506F00042E0FB03E54FF078
:100680000006E1FB03569CF0000F18BF4EF0010E70
:10069000A4F1FF04B6F5007F64F5407404D25FEA6C
:1006A0004E0E6D4146EB060642EAC62141EA55511F
:1006B0004FEAC52040EA5E504FEACE2EB4F1FD0C61
:1006C00088BFBCF5E06F1ED8BEF1004F08BF5FEADF
:1006D000500E50F1000041EB045170BD06F0004691
:1006E00046EA010140EA020081EA0301B4EB5C043E
:1006F000C2BFD4EB0C0541EA045170BD41F4801136
:100700004FF0000E013C00F3AB8014F1360FDEBF5A
:10071000002001F0004170BDC4F10004203C35DA36
:100720000C341BDC04F11404C4F1200500FA05F3B9
:1007300020FA04F001FA05F240EA020001F000425A
:1007400021F0004110EBD37021FA04F642EB0601D0
:100750005EEA430E08BF20EAD37070BDC4F10C04FA
:10076000C4F1200500FA04F320FA05F001FA04F2BE
:1007700040EA020001F0004110EBD37041F10001AA
:100780005EEA430E08BF20EAD37070BDC4F12005B5
:1007900000FA05F24EEA020E20FA04F301FA05F21D
:1007A00043EA020321FA04F001F0004121FA04F2C5
:1007B00020EA020000EBD3705EEA430E08BF20EA95
:1007C000D37070BD94F0000F0FD101F000464000CF
:1007D00041EB010111F4801F08BF013CF7D041EA51
:1007E000060195F0000F18BF704703F00046520055
:1007F00043EB030313F4801F08BF013DF7D043EA26
:100800000603704794EA0C0F0CEA135518BF95EADB
:100810000C0F0CD050EA410618BF52EA4306D1D162
:1008200081EA030101F000414FF0000070BD50EA81
:10083000410606BF1046194652EA430619D094EA0B
:100840000C0F02D150EA013613D195EA0C0F05D1F5
:1008500052EA03361CBF104619460AD181EA030149
:1008600001F0004141F0FE4141F470014FF0000001
:1008700070BD41F0FE4141F4780170BD70B54FF09C
:10088000FF0C4CF4E06C1CEA11541DBF1CEA13551C
:1008900094EA0C0F95EA0C0F00F0A7F8A4EB0504FE
:1008A00081EA030E52EA03354FEA013100F08880F5
:1008B0004FEA03334FF0805545EA131343EA1263BE
:1008C0004FEA022245EA111545EA10654FEA002673
:1008D0000EF000419D4208BF964244F1FD0404F52C
:1008E000407402D25B084FEA3202B61A65EB030588
:1008F0005B084FEA32024FF480104FF4002CB6EB45
:10090000020E75EB030E22BFB61A754640EA0C00C4
:100910005B084FEA3202B6EB020E75EB030E22BF04
:10092000B61A754640EA5C005B084FEA3202B6EB45
:10093000020E75EB030E22BFB61A754640EA9C0004
:100940005B084FEA3202B6EB020E75EB030E22BFD4
:10095000B61A754640EADC0055EA060E18D04FEA92
:10096000051545EA16754FEA06164FEAC30343EA32
:1009700052734FEAC2025FEA1C1CC0D111F4801FFF
:100980000BD141EA00014FF000004FF0004CB6E7F8
:1009900011F4801F04BF01430020B4F1FD0C88BF97
:1009A000BCF5E06F3FF6AFAEB5EB030C04BFB6EBA2
:1009B000020C5FEA500C50F1000041EB045170BD95
:1009C0000EF0004E4EEA113114EB5C04C2BFD4EBC2
:1009D0000C0541EA045170BD41F480114FF0000E46
:1009E000013C90E645EA060E8DE60CEA135594EAC2
:1009F0000C0F08BF95EA0C0F3FF43BAF94EA0C0FC5
:100A00000AD150EA01347FF434AF95EA0C0F7FF439
:100A100025AF104619462CE795EA0C0F06D152EA8D
:100A200003353FF4FDAE1046194622E750EA410671
:100A300018BF52EA43067FF4C5AE50EA41047FF482
:100A40000DAF52EA43057FF4EBAE12E74FF0FF3CE7
:100A500006E000BF4FF0010C02E000BF4FF0010CB8
:100A60004DF804CD4FEA410C7FEA6C5C4FEA430C31
:100A700018BF7FEA6C5C1BD001B050EA410C0CBF80
:100A800052EA430C91EA030F02BF90EA020F0020E2
:100A9000704710F1000F91EA030F58BF994208BF49
:100AA00090422CBFD8176FEAE37040F00100704706
:100AB0004FEA410C7FEA6C5C02D150EA013C07D15D
:100AC0004FEA430C7FEA6C5CD6D152EA033CD3D0A8
:100AD0005DF8040B704700BF8446104662468C46A2
:100AE0001946634600E000BF01B5FFF7B7FF0028D5
:100AF00048BF10F1000F01BD4DF808EDFFF7F4FFFE
:100B00000CBF012000205DF808FB00BF4DF808ED88
:100B1000FFF7EAFF34BF012000205DF808FB00BFAB
:100B20004DF808EDFFF7E0FF94BF012000205DF8CD
:100B300008FB00BF4DF808EDFFF7CEFF94BF012082
:100B400000205DF808FB00BF4DF808EDFFF7C4FF7B
:100B500034BF012000205DF808FB00BF4FEA410CC4
:100B60007FEA6C5C02D150EA013C0AD14FEA430CA7
:100B70007FEA6C5C02D152EA033C02D14FF00000E4
:100B800070474FF0010070474FEA410212F5001222
:100B900015D211D56FF47873B3EB625212D94FEAC4
:100BA000C12343F0004343EA505311F0004F23FAAE
:100BB00002F018BF404270474FF00000704750EA03
:100BC000013005D111F0004008BF6FF000407047C0
:100BD0004FF00000704700BF4A0011D212F500121A
:100BE00011D20DD56FF47873B3EB62520ED44FEA85
:100BF000C12343F0004343EA505323FA02F0704705
:100C00004FF00000704750EA013002D14FF0FF3042
:100C100070474FF0000070474FEA4102B2F1E043E5
:100C200024BFB3F5001CDCF1FE5C0DD901F0004CD3
:100C30004FEAC0024CEA5070B2F1004F40EB830023
:100C400008BF20F00100704711F0804F21D113F14F
:100C50003872BCBF01F00040704741F480114FEA88
:100C60005252C2F11802C2F1200C10FA0CF320FA11
:100C700002F018BF40F001004FEAC1234FEAD3232E
:100C800003FA0CFC40EA0C0023FA02F34FEA430398
:100C9000CCE77FEA625307D150EA01331EBF4FF021
:100CA000FE4040F44000704701F0004040F0FE403C
:100CB00040F40000704700BF53B94AB9002908BF8B
:100CC00000281CBF4FF0FF314FF0FF3000F0A0B9FB
:100CD000ADF1080C6DE904CE00F03CF8DDF804E05D
:100CE000DDE9022304B0704738B500220023044632
:100CF0000D46FFF70BFF28B920462946BDE83840CE
:100D000000F00AB8204605F1004100F005F8404225
:100D100061EB410138BD00BFD0B50C4B0022064647
:100D20000F46FFF781FCFFF757FF0446FFF702FC71
:100D3000074B0022FFF778FC02460B463046394647
:100D4000FFF7BAFAFFF748FF2146D0BD0000F03D9B
:100D50000000F0412DE9F047089D0C46002B4ED1D4
:100D600094468C458646B2FA82F262D94AB1C2F103
:100D70002003914020FA03F30CFA02FC194300FA15
:100D800002FE4FEA1C471FFA8CF6B1FBF7F44FEA5C
:100D90001E4307FB141143EA014304FB06F1994289
:100DA0000AD91CEB030304F1FF3080F01281994251
:100DB00040F20F81023C6344591A1FFA8EF3B1FBD3
:100DC000F7F007FB101143EA014300FB06F69E42D1
:100DD0000AD91CEB030300F1FF3180F0FC809E4236
:100DE00040F2F980634402389B1B40EA0440002132
:100DF0001DB1D3400022C5E90032BDE8F0878B4227
:100E000005D90DB1C5E9000100210846F5E7B3FA9F
:100E100083F1002946D1A34202D39042C0F0F08072
:100E2000861A64EB03030120002DE6D0C5E90063B8
:100E3000E3E7002A40F09080A1EB0C044FEA1C4845
:100E40001FFA8CF70121B4FBF8F64FEA1E4308FBAA
:100E5000164443EA044307FB06F0984208D91CEB0A
:100E6000030306F1FF3402D2984200F2CD802646F9
:100E70001C1A1FFA8EF3B4FBF8F008FB104443EA87
:100E8000044300FB07F79F4208D91CEB030300F162
:100E9000FF3402D29F4200F2B0802046DB1B40EAC2
:100EA0000640A5E7C1F120068B4022FA06F71F4352
:100EB00020FA06FC04FA01F343EA0C03F44000FABA
:100EC00001F8380C4FEA1349B4FBF0FE1FFA87FC17
:100ED00000FB1E4449EA04440EFB0CF9A14502FA4A
:100EE00001F20AD93C190EF1FF3A80F08480A14545
:100EF00040F28180AEF1020E3C44A4EB09041FFADB
:100F000083F9B4FBF0F300FB134449EA044403FB08
:100F10000CFCA44507D93C1903F1FF3067D2A44566
:100F200065D9023B3C4443EA0E40A0FB0293A4EB8C
:100F30000C049C42CE469C4651D34ED055B1B8EBE2
:100F40000E0364EB0C0404FA06F6CB401E43CC40BF
:100F5000C5E90064002150E7C2F1200320FA03F143
:100F60000CFA02FC24FA03F394400C434FEA1C48A9
:100F700000FA02FE1FFA8CF7B3FBF8F008FB103101
:100F8000230C43EA014300FB07F1994208D91CEB0B
:100F9000030300F1FF362CD299422AD90238634468
:100FA0005B1AA4B2B3FBF8F108FB113344EA034423
:100FB00001FB07F3A34208D91CEB040401F1FF363F
:100FC00013D2A34211D902396444E41A41EA004120
:100FD00039E70446F0E6084606E7C845AED2B9EB65
:100FE000020E63EB070C0138A8E73146EDE7034634
:100FF00099E73046D4E7D6467FE7634402384DE7A9
:101000000646234608460FE7023E634430E700BF2A
:10101000704700BF03798B4228BF0431C91AC9B297
:101020004171704708B503681B699847B0FA80F0B2
:10103000400908BD10B505F0BBFC204905F0DAFCFD
:101040000AF05AFB1E490AF015FC0AF055FB1D492F
:101050000AF054FC0AF050FB03681B6898470EF036
:10106000A7FA036818495B6A984705F027F91749FA
:10107000002205F081F905F021F903681B68984703
:101080001348FFF7CFFF30B109F08CFD0368BDE8CE
:1010900010401B6818470F48FFF7C4FF10B103F05A
:1010A00047F9F3E703F054FC0B4B836603F050FC65
:1010B00003681B68984700F0DDFAE7E76C0300203F
:1010C000A403002084030020ECD90120A4D901202E
:1010D0008804002078040020D003002000BEFEE732
:1010E00000BEFEE72DE9F0473D4ADFF840913D4F55
:1010F0003D4BBA601021C9E902210822FA603B4A3F
:101100003B49916000244FF48060C2E90034D06014
:10111000DFF81C81374ADFF81CA1C9F8003001252F
:10112000C8E90035C7E90035C2E900340223D360BD
:101130004FF06413CAF804302F4B304ECAF8003019
:101140002F4BCAF808304FF0051373602D4B3360F6
:1011500006F10C002C4B9160C8E90215C9F8045047
:10116000B3600DF0DBFE294B294A1A60294AC3F807
:101170008420A3F88840284B284818604FF4F07268
:1011800027481C760321C3E901124FF4A071C3E97B
:10119000031259610571C180224D0281C3E907A97B
:1011A000C3E909872146204B03604471C66004747B
:1011B000C0F81240C0F81640C0F81A40FFF72AFFE6
:1011C0004FF4004348F20200C5E90033C5E9034685
:1011D0002C726C610AF03CFAE860BDE8F08700BF51
:1011E0000000024098040020209E0208880400208D
:1011F0000004024078040020909E02085C04002055
:1012000048D90120449E0208ACD70120D003002019
:10121000E09E0208F4DA0120A4030020F42B020867
:10122000840300206C030020CC2B0208B8040020AB
:10123000A80400206C04002008B5074BD86810B142
:10124000012119F096FE0548054B40F80C3BBDE81E
:1012500008400DF06DBE00BF6C0300205C04002050
:10126000449E02084FF00000704700F5805090F84F
:101270008808002818BF032070470DF0F7BC2DE93F
:10128000F04100F580550446D5F8800890F88813A1
:1012900003F082FB014604F5B450002204300CF048
:1012A00085FCD5F8800890F8D91303F07DFB014642
:1012B00004F5B55000221C300CF078FCD5F88038CD
:1012C00095F8C82593F8CB3304F5AC501430002AB8
:1012D00035D0002B0CBFFF214FF47F410EF0FBFBFC
:1012E000D5F8803893F8F723002683F8F763AAB17E
:1012F000D4F8AC301A3304F1640754F823000368BF
:101300001B699847D4F8A830B3421ED8D4F8AC3043
:101310001A3354F823000368DB689847D4F8AC30DC
:101320001A33142154F8230003685B699847D5F8F1
:1013300078080AF0C6FA4FF00000BDE8F081002BF3
:101340000CBF6FF07F41FF21C8E7D5F8783857F818
:10135000040FD3F8A4300168B5F96626D1F80880E7
:10136000283B9A1A2821C0470136CBE710B5074B16
:10137000044640F8483B0DF0D7FF04F124000DF07F
:1013800029FE201D0DF026FE204610BD149F0208E8
:1013900010B50446FFF7EAFF2046682119F0E9FD81
:1013A000204610BD054A02600022C0E90122C0E9C2
:1013B0000322C0E90522C261704700BFF43602086B
:1013C00010B50446FFF7EEFF064B23600122002311
:1013D00084F82C20C4E90833A362236384F83430F2
:1013E000204610BD483602082DE9F8430446FFF7B1
:1013F000D9FF1C4B236000256FF07F43DFF8689016
:1014000023634FF001084FF080774FF0FF36C4E9B7
:101410000855C4E90A55A58604F13800FFF7C2FF54
:10142000C4E91655C4E91B76C4F83890256684F8DB
:101430006480A566A4F8785004F17C00FFF7B2FF41
:10144000C4E92B5784F8A880C4E92755C4F87C90D8
:10145000C4F8A450C4F8B460A4F8BC502046BDE859
:10146000F88300BF7C9F0208A43402082DE9F843EA
:1014700005460026FFF796FFC5E90866C5E90A6636
:10148000314BDFF8D0902B602E6305F1340405F565
:101490005D774FF0FF382046FFF784FFC4F80090D7
:1014A00084F82060C4F82C8084F83060C4E90966B0
:1014B0003434BC42EFD105F2F46620463834FFF7ED
:1014C0007FFFB442F9D105F5975614362046C03453
:1014D000FFF78AFFB442F9D1204605F58054002673
:1014E000FFF760FF194BC4F8F43205F59850C4F8C3
:1014F00014631830FFF778FF05F59E501830FFF79A
:1015000073FF05F5A4501830FFF74CFF104BC4F8DB
:101510009834C4F8B864C4F8BC6484F8C064C4F8EF
:10152000C464C4F8C864C4F8CC64C4F8D06484F853
:10153000D464C4F8D864C4F8DC640AF0DDF8C4F8F4
:10154000E0042846BDE8F883EC110208A035020843
:10155000F8340208502C0208414B70B510220446A2
:10156000222140F8043B00230DF059FD00230822FE
:10157000202104F124000DF052FD04F5C45308337A
:10158000002663641423C4E91263364B84F8506068
:10159000C4E915344FF48063A4F85E30022384F864
:1015A00060302046304B6366304B84F85C604022EC
:1015B000314640F8683B1CF073F9C4E92A6604F12F
:1015C000B000FFF753FF04F5AC501430FFF70CFFE9
:1015D00004F5B25004F580551430FFF7E3FE244BB8
:1015E000C5F8543604F5B450C5F87466C5F8786685
:1015F00085F87C66C5F880660430FFF7E1FE04F5E7
:10160000B5501C30FFF7DCFE04F5B7501430FFF77F
:10161000EBFE04F5BD501430FFF7E6FE032385F81A
:1016200074380AF069F8C5F8780804F047FEC5F880
:101630007C0803F08DF9C5F8800805F0B9F985F844
:101640009C68C5F88408C5F89068C5F89468C5F822
:101650009868C5F8A068C5F8A468204670BD00BFAA
:10166000149F0208F1ED0008100002086C00020847
:10167000F834020810B50A4C2368BFF35B8FDB0710
:101680000CD4204619F077FC40B10648FFF764FF00
:1016900005481BF06DF8204619F079FC014810BD93
:1016A000C8040020CC040020A11E00082DE9F04F42
:1016B00000F5805785B0D7F87838DFF8B490D3F8C4
:1016C000A4A0044600F5B7580CF038FF0368DB68A7
:1016D0009847D7F87838D3F8A02002EBD27256108A
:1016E00005460CF02BFF0368DB68984708F11408E7
:1016F0004FF0010B043E05EB450500EB4000AAEB63
:10170000050349460022CDE90060CDF808B0404607
:101710000EF048F917F06AFD17F03AFC0023014675
:101720001A4640460EF097FAD7F87838B7F90427EA
:10173000D3F8A010CDF808B0B7F90637CDE90023EB
:1017400004F5BD541434B7F9FE368A1A20464946CA
:101750000EF028F917F04AFD17F01AFC0023014695
:101760001A46204605B0BDE8F04F0EF074BA00BF2F
:10177000830902082DE9F04F044689B004F580562C
:1017800005F016F905F03AF9D6F8785805F010F991
:101790004179003918BF012128460AF096F896F8D9
:1017A0007418D6F878080AF02BFCD6F87838D84A9E
:1017B000C3F89820D3F8A4700CF0C0FE0368DB686F
:1017C000984705460CF008FE0368DB689847D6F892
:1017D0007838D3F8A030059382460CF0FDFD0268FE
:1017E0009268904783460CF0F7FD0268D2689047F4
:1017F00005EB4505C74A059B04F5B259023F4FF07A
:10180000060809F114097F1B40000025294608FB42
:101810001B33CDE901250090A7EB4A0248460BF0A7
:1018200049FEB6F96636B6F95E2603EBD37302EBD2
:10183000630305930CF0D0FD0268D268904782469E
:101840000CF0CAFD04F5B457059BB3490190043769
:101850006FF07F4B0422A3EB5A033846CDF800B05B
:101860000CF057F80CF0B8FD03689B689847B6F980
:101870009216069107900CF061FE0368DB689847AA
:1018800005900CF05BFEDDE90531079A04F5B55AC9
:101890000AF11C0AD200CB1ACDE900B09E4950468D
:1018A0000CF037F84FF47A7148460CF09FFC40F288
:1018B000E93138460CF09AFC40F2E93150460CF020
:1018C00095FCD6F8800803F077F9D6F87838D3F885
:1018D000A0A00CF081FD03689B689847B6F95EB63E
:1018E00081460CF079FD03689B68984701230293B9
:1018F00004F5AC571437B6F966368849019308FBEE
:1019000000F00AF1FF3208FB192200905B463846CE
:101910000EF048F82B462A46384621460EF09BF931
:10192000384629460EF08CF94FF47A7138460CF09F
:101930005DFC2046FFF7BAFE4FF028091022D6F8CA
:101940007838CDE9009204F1B007D3F8A0302A46E8
:101950002946384604F0ECFAC4F8A8500CF03CFDD7
:101960006E4A03462946384604F0E8FB6C4AD4F830
:10197000A810384604F07AFBD4F8A88008F10103D7
:10198000C4F8A83002F0C4FB08F11A0844F8280093
:10199000D4F8A8800CF020FD4146624A0346384640
:1019A00004F0CCFBD4F8A88008F10103C4F8A830F7
:1019B00005F086FC08F11A0844F82800D4F8A8803D
:1019C0000CF00AFD4146584A0346384604F0B6FB7F
:1019D000D4F8A88008F10103C4F8A83001F080FD14
:1019E00008F11A0844F82800D4F8A8800CF0F4FC98
:1019F000414603464D4A384604F0A0FB4C4AD4F811
:101A0000A810384604F032FBD4F8A88008F101038E
:101A1000C4F8A83008F046F808F11A0844F828007D
:101A2000D4F8A8800CF0D8FC4146424A0346384618
:101A300004F084FBD4F8A88008F10103C4F8A830AE
:101A400007F048FA08F11A0844F82800D4F8A880EA
:101A50000CF0C2FC4146384A0346384604F06EFB9F
:101A6000D4F8A88008F10103C4F8A83006F01CFAE5
:101A700008F11A0844F82800D4F8A8800CF0ACFC4F
:101A800041462E4A0346384604F058FBD4F8A88055
:101A900008F10103C4F8A83008F028FC08F11A087E
:101AA000D4F8A82044F82800D6F87838CDE9009278
:101AB0003846D3F8A0302A46294604F039FA384689
:101AC0002B462A46214604F0BCFB38464FF4FA6107
:101AD00004F052F904F16407D4F8A830AB4231D8CD
:101AE000A06E03680025DB68C4F8AC50984704F585
:101AF000C4531033019343230093D6F87C08104A53
:101B00002346214604F058FC284609B0BDE8F08F72
:101B10004040400080808000830902081C000208C9
:101B20003C000020200002082900020834000208BE
:101B30002800002041000208490002084F00020866
:101B40009D1C0008D6F8783857F8040FD3F8A43055
:101B50000168B6F96626D1F80880283B9A1A282130
:101B6000C0470135B8E700BF034603F5805300F5D1
:101B7000B750D3F8803893F88833022B0CBF024952
:101B8000024914300DF064BF580002085D000208DD
:101B900000F5805300F5BD50D3F8803893F88833B2
:101BA000052B00F1140000D013B902490DF050BF0D
:101BB0000149FBE7CB100208EC0D0208D0F8AC306D
:101BC0001A3370B5044650F8230003680D461B69AC
:101BD000984704F1B000C4F8AC50294604F01CFB4F
:101BE000D4F8AC301A3354F823000368BDE87040D1
:101BF000DB68184770B500F5AC5614368E420446C3
:101C00000D4613D100F58054D4F8800890F86F3356
:101C100043B102F0D1FF002130460EF011F84FF031
:101C2000000070BD02F092FF0121F5E700F1B00362
:101C3000994204D190F8DC10FFF7C0FFEFE7D0F82D
:101C4000AC301A3350F8230003689B699847C0B240
:101C50000828E4D104F5B75314339D420CD104F5A0
:101C60008054D4F8800890F88833022B14BF812167
:101C7000822102F05CFFD2E704F5BD5314339D428C
:101C8000CDD104F58054D4F8800890F88833052B22
:101C900000D00BB91821ECE71921EAE7F8B50446A2
:101CA000002854D00E784F78E6B900F5B7556B6927
:101CB00014351B692846984720B32B6828461B6CAF
:101CC0009847F8B19FB1012128460DF0B9FF022EC7
:101CD0001BD1D4F8AC1099B10139C9B22046FFF735
:101CE0006DFF0DE0012E0DD100F5BD55DFE7394642
:101CF00028460DF0A5FF23682946DB692046984752
:101D00000020F8BD002FE2D1FAE7042E06D1D4E975
:101D10002A31013B9942F3D20131DEE7062EEFD1A1
:101D200002F016FE90F86F3304F5AC54143443B14E
:101D300002F00EFE02F040FF002120460DF080FF71
:101D4000DEE702F005FE02F001FF0121F5E70120C8
:101D5000D7E7000038B5094B094D0360044640F849
:101D60007C5F0CF067FA204640F8385F0CF062FAAE
:101D700020460CF05FFA204638BD00BF7C9F020869
:101D8000A434020810B50446FFF7E4FF2046C02142
:101D900019F0EFF8204610BD70B5204B036000F538
:101DA00080551F4BC5F89834044600F5A4501830F0
:101DB0000CF040FA04F59E501830FFF7CBFF04F505
:101DC00098501830FFF7C6FF164BC5F8F43204F5EB
:101DD000975014300CF02EFA41F2342540F234665C
:101DE000635960191B68C03D9847B542F8D140F26D
:101DF000BC65635960191B68383D9847B5F54F7F3E
:101E0000F7D14FF45075635960191B689847343DFA
:101E1000F9D120460CF00EFA204670BDEC110208F4
:101E2000F8340208A03502081A4B70B50446036066
:101E300000F5BD501430FFF78DFF04F5B75004F5E1
:101E400080551430FFF786FF134EC5F8BC6604F5C5
:101E5000B5501C300CF0EEF904F5B450C5F88466AA
:101E600004300CF0E7F90D4BC5F8543604F5B250C8
:101E700014300CF0DFF904F5AC501430FFF76AFFB2
:101E800004F1B000FFF788FF2046FFF76FFA204605
:101E900070BD00BF6C00020848360208F834020822
:101EA00008B50248FFF7C0FF08BD00BFCC04002002
:101EB00010B50446FFF7B8FF204641F6A80119F017
:101EC00058F8204610BD10B50446FFF765FF2046C0
:101ED00041F2E44119F04DF8204610BD08B598B123
:101EE00009B9002008BD8269D0F8103101FB023128
:101EF00003699942B8BF194643699942A8BF194678
:101F0000CC3000F022FCECE70120EBE708B517F03D
:101F10006DF9BDE8084017F03BB8C0E900128360D6
:101F2000704781694B1E10B559420446594100F56E
:101F3000F2700DF085FEA169A1F10A0251425141F2
:101F400004F529700DF07CFEA169A1F16400414205
:101F5000414104F55970BDE810400DF071BE00001C
:101F600037B504460D4674300CF040F9691C04F195
:101F70001C000CF03BF9A91C04F58C600CF036F940
:101F8000E91C04F5A4600CF031F904F097F905465A
:101F9000FFF7BCFF04F2E45301460D4A00932846C4
:101FA000234604F038FA04F089F90546FFF7AEFF3E
:101FB00004F2FC5301930323014600932846054A8B
:101FC000234604F0F9F94FF0000003B030BD00BF24
:101FD000DD1E0008572300082DE9F04F89B00F4699
:101FE0000592DDE91212C0E90412C44DDFF820B3F6
:101FF0009942B8BF19462B68BFF35B8F91420E46DA
:10200000A8BF164613F0010F04460CD1284618F05D
:10201000B2FF40B1D4F8E0352846D3F8A030CBF871
:10202000003018F0B4FF0CF0D7F96FF07F4304F1E3
:102030009405009300231A463946019028460BF078
:1020400068FC284602210BF078FDB4F9A430DBF8D7
:102050000010C91A082200234908284604F11C0A66
:102060000CF002F9514628460CF044F901212846AB
:102070000CF0BCF8DBF80030B4F9A270A3F1100842
:102080000CF05CFA0368DB689847149B029304F138
:10209000CC0508370D2300EB80003A4601930090F1
:1020A00043462846082100F099FA4FF47F42042164
:1020B000284600F03DFB0CF041FA0222014628467A
:1020C00000F040FC3146284600F03FFB0CF036FAA9
:1020D0000027034605222846059900F049FC514691
:1020E000284684F8E1700CF005F9284601210CF02F
:1020F0007DF804F58463049304F5866804F5F275AD
:10210000B4F9DC900323A9F10809B9FBF3F902F053
:102110001FFC049A52F8043F049201210A22149EE3
:102120008E4200F2E78041460092102202F08AFDC2
:102130004046FEF75FF8059B714AC0F1100140442C
:102140001BF0E4FAB4F9D42009F1040307FB0322DD
:10215000B4F9DA300792083306930CF0EFF901680E
:10216000C9688847012600EB8000DDE90632414658
:10217000CDE90090029628460DF014FCFFF7C6FE4C
:10218000604A2346014628460DF065FD2846002199
:102190000DF056FD284603210DF0E5FC514628467A
:1021A0000CF0A8F82B6828469B68314637449847BE
:1021B000032F08F1100805F1C005A1D10A2300255D
:1021C000A361314604F529700DF03AFD02960195A0
:1021D000B4F9F231083304F144070093DBF800301E
:1021E0002A46294638460BF065F9384604210BF09B
:1021F000B5F938464FF6FF710BF0C0F9294638465D
:102200000BF0CFF9514638460CF074F829463846A1
:102210000BF0ECFFD4F8E025B4F95630D2F8A42046
:102220000093D21A02EBD272DBF800303241294619
:1022300050460BF007FFD4F8E035D3F8A420009205
:1022400029462A4604F17400D3F8A0300BF0B9F9FE
:10225000D4F8E03584F88960D3F8A4A00CF06EF9C6
:102260000368DB689847D4F8E035D3F8A02002EB88
:10227000D27242FA06F781460CF060F90368DB6817
:10228000984704F58C68043F09EB490900EB4000CE
:10229000CDE90070AAEB09032A461B490296404685
:1022A0000DF080FBFFF732FE23460146154A4046FB
:1022B0000DF0D1FCD4F8E035B4F97024D3F8A010B7
:1022C0000296B4F97234CDE9002304F5A467B4F999
:1022D0006A348A1A38460D490DF064FBFFF716FE82
:1022E000084A0146234638460DF0B5FC284609B099
:1022F000BDE8F08F0A267243013110E7741D0020FB
:102300009000020857230008940002089700020872
:10231000781D002010B5044603F0D0FF04F2E4510C
:1023200004F091F803F0CAFF04F2FC5104F05FF8E6
:1023300004F11C000BF071FF04F174000BF06DFF51
:1023400004F58C600BF069FF04F5A4600BF065FFE9
:102350004FF0000010BD2DE9F0410446002867D081
:1023600000F58C678F4216D1FFF7D4FF206858B173
:102370000368D4E901125D682346A8472046FFF7A9
:10238000D0FD0020BDE8F0816368002BF6D0A06886
:1023900021469847F2E700F5A4658D4202D1FFF788
:1023A000B9FFEBE700F5F273994202D10123A36173
:1023B000E4E700F52973994201D10A23F7E700F514
:1023C0005973994201D16423F1E791F800804E7866
:1023D000B8F1000F17D1443046B14FF47F410BF0F4
:1023E000CDF8012138460DF02BFCC7E74FF47F01F3
:1023F0000BF0C4F8314638460DF022FC3946204631
:10240000FFF7A9FFBAE7B8F1010FB7D144302EB1F9
:10241000FF210BF0B3F841462846E4E74FF47F0173
:102420000BF0ACF8314628460DF00AFC2946E6E7E9
:102430000120A7E7B0F908007047B0F90A0070471B
:10244000B0F90C007047B0F90E007047B0F91000F9
:102450007047B0F912007047407D70474175704772
:102460002DE9F341089E04461D46B0F90A30B0F943
:102470000800301A0090EB1A04F1480090460F460D
:102480000AF085FDB4F90820B4F90A30B21A0092B6
:10249000EB1A4246394604F1B0000BF0CCF994F83F
:1024A00010317BB1B4F90820B4F90A30B61AEB1A2E
:1024B0004246394604F17800089602B0BDE8F04182
:1024C0000BF0B9B902B0BDE8F0812DE9F341089EE7
:1024D00004461D46B0F90830B0F90A00301A0090E1
:1024E000EB1A04F1480090460F460AF0A5FDB4F936
:1024F0000A20B4F90830B21A0092EB1A4246394663
:1025000004F1B0000BF037F994F810317BB1B4F955
:102510000A20B4F90830B61AEB1A4246394604F1DB
:102520007800089602B0BDE8F0410BF024B902B083
:10253000BDE8F08170B5044605291AD8DFE801F03E
:10254000030F191903170B4904F148000BF029F880
:10255000236820469B6CBDE8704000211847006A44
:1025600028B10368D4E909125D682346A847002111
:10257000EAE770BD8080800010B103689B6818474F
:102580007047000038B50C4B0C4D0360044640F812
:10259000B05F0BF04FFE204640F8785F0BF04AFE2C
:1025A0002046074B40F8483F0BF044FE20460BF016
:1025B00041FE204638BD00BFC00002084836020870
:1025C000F834020810B50446FFF7DCFF20464FF44C
:1025D0008C7118F0CEFC204610BD00002DE9FF479D
:1025E0000C9E01811F464FF0FF334364FB181944D2
:1025F000731E0E9D42811A440D9B81815B1BC2811B
:10260000C0E90E35044607824682012200210A20D5
:102610008D4256DC226404F58070002D54D02D4A82
:10262000009510211BF072F8002501232A46294647
:10263000CDE9015300963B4604F148000AF03AFF09
:102640000BF07CFF04F1B0086FF07F4704F1E80164
:1026500001902B462A46404600970BF05AF9D4E9E0
:102660000E3203EB0209D4F8E000B4F910A009F12E
:102670000109AA4218BF09F10109FFF77DFFB4F96A
:10268000C2305FFA89F9F61A00FB19A106EBD6767B
:102690002B467210490840460BF0E6FD0BF04EFF4A
:1026A0002B46CDE900700C4904F178002A460BF066
:1026B00030F923689B6C2946204604B0BDE8F047FA
:1026C000184742430131A3E7044A10211BF01EF8CA
:1026D000AAE700BF9E00020883090208AF000208B3
:1026E000436F994210B5044609D048300AF036FFCE
:1026F000236820469B6CBDE810400021184710BDA0
:1027000010B5836EC0E90C12044690F82C00002826
:1027100018BF114699420AD004F148000AF02EFF72
:10272000236820469B6CBDE810400021184710BD6F
:1027300038B515460446FFF7D3FF294620464FF427
:102740007F42BDE83840FFF7DBBF436C8B4273B577
:102750000A4604462ED04164E56BB03004F1E8012E
:1027600004F580735DB9009218220BF04CFA2368CF
:1027700020469B6C00219847012002B070BD266C5A
:1027800092FBF6F506FB1522002AB8BF5242CDE9AE
:10279000005218220BF037FA636C002BE7DA226C38
:1027A00093FBF2F3002BE2D1A36B23442D2283F899
:1027B000E620DCE70020E0E790F81031022B2DE95D
:1027C000F041044600F08580D0E90E72013B1744C9
:1027D000B0F91050002A18BF013700F1B006042BE1
:1027E00000F29D80DFE803F02F9B03527C00D0F8BD
:1027F000E000FFF7C1FEB4F9C230B4F91220D21ADA
:10280000B4F98830A91EC91A94F8DC307B4300FB68
:10281000131102EBD27230460023521049080BF01C
:1028200023FDB4F9BC50D4F8A800B4F9BE7004F18B
:102830007806023510B10368DB68984700233A1A1E
:102840002946304643E0B0F9C230B0F91220B0F961
:102850008810D21AB0F98A30D21A691A02EBD272F1
:1028600000235210490878300BF0FEFCD4F8E00049
:10287000B4F91050FFF780FE94F8DC30B4F98620EC
:102880007B4300FB135100234908DAE7D0F8E0004E
:10289000FFF772FEB4F9C230B4F9122094F8DC10DC
:1028A000D21A794300FB115102EBD272002352106D
:1028B000490830460BF0D8FCB4F98830B4F9101050
:1028C000B4F9BE20C91A4908002304F178000BF0BE
:1028D000CBFC236820469B6CBDE8F04100211847E3
:1028E000D0F8E000FFF748FEB4F9C230B4F9122086
:1028F00094F8DC10D21A794300FB115102EBD2722A
:1029000000235210490830460BF0AEFCB4F9BC006D
:10291000B4F98810B4F9BE200023411AD5E7D0F8E5
:10292000E000FFF729FEB4F9C230B4F91220D21A40
:1029300094F8DC3002EBD2727B4300FB135152104F
:102940000023A1E770B500F1B006044615463046F5
:102950000BF0B8F8E9B230460BF0EFF82046FFF77D
:102960002BFF236820469B6CBDE870400021184770
:1029700070B500F1780604460D4680F8102119461E
:1029800030460BF09FF82946304600220BF00EF936
:102990002046FFF711FF236820469B6CBDE870407E
:1029A0000021184790F82C308B4210B5044611D006
:1029B000D0E90C2380F82C1000290CBF11461946D1
:1029C00048300AF0DBFD236820469B6CBDE81040D0
:1029D0000021184710BDC0E908128362704710B586
:1029E000D8B109B9002010BD0379022B0DD84FF4DE
:1029F0008C725343C2188468D2F8FC20B83301FBB0
:102A000004211844FFF7A1FEECE7D0F80C3B194471
:102A100021EAE17100F6C820F4E70120E3E770B590
:102A2000044603F04BFC04F6A86103F00CFD04F12E
:102A3000B80510262B682846DB689847D5F8483338
:102A400005F55270DB689847D5F8903605F5D260E9
:102A5000DB689847A359A019DB6838369847B82E29
:102A600005F58C75E6D14FF43E6563596019DB6856
:102A7000C0359847B5F5626FF7D104F6C8200BF062
:102A8000CCFB04F529600BF0C8FB04F566600BF085
:102A9000C4FBD4F8980E0368DB689847D4F89C0E02
:102AA0000368DB6898474FF0000070BD73B50446BB
:102AB00000F1B80510262B6864219B6828469847CA
:102AC000D5F8483364219B6805F552709847D5F8CE
:102AD000903664219B6805F5D2609847A359A019E8
:102AE0009B68642138369847B82E05F58C75E2D17D
:102AF0004FF43E65635960199B686521C03598475E
:102B0000B5F5626FF6D1642104F6C8200BF06EFBB8
:102B1000642104F529600BF069FB652104F566600A
:102B20000BF064FBD4F8980E036866219B68984705
:102B3000D4F89C0E036866219B68984703F0BEFB9F
:102B40000546FFF7E3F904F6A8630146009328461B
:102B5000034A234603F05FFC4FF0000002B070BD53
:102B6000DF2900082DE9F04F8DB083460D460BF0AC
:102B7000E5FC0368DB68984700EB80030593043BA2
:102B80005B080893059B083309932B1D5C4606934D
:102B90005F464FF0000ADBF8A42EDBF8A03E92F867
:102BA000F823D3F8A010A94E002A14BF0422032250
:102BB000A1F108030292072204F1B805019203EB88
:102BC000D373059A00925B10069A062091FBF0F1F0
:102BD0002846FFF703FDFF2204212846FFF7A8FD42
:102BE0000BF0ACFC022201462846FFF7ABFE5FFA71
:102BF0008AF31946DBF8A40E079301F006FF01469D
:102C00002846FFF7A2FDDBF8A43E914A93F8F8337B
:102C1000002B08BF16460BF091FC314603460522F7
:102C20002846FFF7A5FEFFF771F900231A46014673
:102C30002846FFF7D0FED4F8B830012128465B6C57
:102C40009847D4F8B83028461B6B9847D4F8B8306A
:102C500000F10408DB6A28469847DBF8A03ED3F869
:102C6000A020D4F8B8300A9281461B6B28469847BA
:102C70000A9A131ADBF8A42E92F8F8230721002AE7
:102C800014BF0422032204F5806601910899029280
:102C9000083B4A46304600914146FFF79FFC6D4A8B
:102CA00002213046FFF744FD0BF048FC01220146AB
:102CB0003046FFF747FE00213046FFF746FDDBF8C0
:102CC000A43E634A93F8F8336049002B08BF1146CD
:102CD00088460BF0F7FB4146032203463046FFF7D8
:102CE00047FED4F8003430469B6A9847D4F8B83091
:102CF0000B905B6B28469847D4F800348146DB6B19
:102D000030469847D4F80034A9EB00099B6B304655
:102D10009847D4F800240A90D26B30469047DBF8ED
:102D2000A42E0B9992F8F823484E002A14BF0422CF
:102D3000032204F5E9680723CDE9000302920A9B08
:102D40004A464046FFF74AFC424A02214046FFF706
:102D5000EFFC0BF0F3FB012201464046FFF7F2FDCA
:102D600000214046FFF7F1FCDBF8A43E384A93F817
:102D7000F833002B08BF16460BF0A4FB03220346D2
:102D800031464046FFF7F4FD0799DBF8A40E01F049
:102D9000FBFD80460BF020FB6FF07F4307F1100630
:102DA000009300231A464146019030460AF0B1FDD7
:102DB000022130460AF0C1FE3B699B690793D4F8B3
:102DC000B83028469B6A98473B6981469B6B3046E2
:102DD000984700EBD07009EBD9734FEA6009C9EB53
:102DE0006309D4F8B8302846DB6A9847D4F8B8307D
:102DF0008046DB6B284698473B6900EBD07008EBB8
:102E00006005DB6B3046984700EBD070A5EB6002A5
:102E10000023079D49463046A847069B099A0AF1B8
:102E2000010A1344BAF1030F04F58C7407F1380753
:102E300006937FF4B0AE0BF53A730BF562690BF6AF
:102E40003B680BF53E650027079305E00C0102087F
:102E50008208020880808000DBF8A43E079893F87F
:102E6000F833002B14BF41464946DBF8A03E0891D9
:102E7000D3F8A04094FBFAF47C43231D0693DBF8BF
:102E8000E8325B6B9847DBF8A02E0446D2F8A060CE
:102E900096FBFAF60BF052FB0268D2689047083EA8
:102EA000012300EB8000069A08990293CDE90060A7
:102EB00004F1080328460CF075FDFFF727F80023FE
:102EC00001461A4628460CF0C6FE01372846032163
:102ED0000CF049FE032F09F1090908F10C0805F16E
:102EE000C005B9D1DBF8A03EBBF9EE2BD3F8A0109A
:102EF00005980090A1F1080300240BF6C8250426CC
:102F000003EBD37301EBD1715B10CDE9016428466B
:102F100008324910FFF762FB3146FF222846FFF7CF
:102F200007FC0BF00BFB022201462846FFF70AFDC7
:102F30004FF496712846FFF708FCDBF8A43E344EA8
:102F400093F8F823334BA24208BF1E460BF0F6FA63
:102F50003146034605222846FFF70AFDFEF7D6FF55
:102F600001270146234622462846FFF734FD8BF809
:102F7000DD7A0BF031FA0BF529656FF07F462346B9
:102F8000224601902449009628460AF0C2FC2846B1
:102F900002210AF0D2FDBBF9DA3ABBF9D20ABBF939
:102FA000D81A03EBD37300EB6300BBF9A23A03EB2F
:102FB000D372DBF8A03ED3F8A03003EBD373C1EBA0
:102FC000630101EBD171A0EB62022346394128462F
:102FD0000BF04AF90A23CBF8083039460BF54A6062
:102FE0000CF02EFEBBF9C050BBF9C2700BF0A6FA74
:102FF00008350837CDE9006008490BF566603B46A7
:103000002A460AF086FC20460DB0BDE8F08F00BFCE
:1030100018010208110102082301020883090208AD
:1030200038B50446FEF7BEF91C4B236000254FF46B
:103030007F420123C4E90D23C4E90F534FF0FF334E
:103040006364C4E90855A56284F82C50256304F133
:103050004800FEF7A7F9124BA364C4E91A5584F897
:103060007050656704F17800FEF7AAF904F1B0002A
:10307000FEF7A6F92946182204F1E8001AF010FC20
:103080001022294604F580701AF00AFC84F81051C9
:1030900008F032FBC4F81401204638BDC000020815
:1030A000F8340208017902292DE9F04198BF002186
:1030B000044688BF012100F6C820FFF773FC04F125
:1030C000B80600254FF6FF77E9B2D4F8A40ED6F87B
:1030D000448001F09AFC4FF47F42404514BF3946CA
:1030E000FF213046FFF70CFB2179A1EB050CDCF149
:1030F000000141EB0C0130460135FFF753FC032D75
:1031000006F58C76E0D1A1684B1E5942594104F571
:103110003E600CF095FDA168A1F10A0251425141B7
:1031200004F54A600CF08CFDA168A1F164004142F5
:10313000414104F55660BDE8F0410CF081BD00004E
:103140002DE9F041D0F8A43E93F8F923022A044671
:1031500000F566604ED193F8CC533649364B0022C9
:10316000954218BF19460AF021FD01F0F1FB237BBF
:1031700090F88863B34202D0032B3ED02673D4F874
:10318000A43E93F88833012B4BD12C49D4F8980EE8
:103190000CF05EFC2A49D4F89C0E0CF059FC002778
:1031A0002646B846F9B2D4F8A40E01F02EFC01462A
:1031B00006F58060FFF7C9FAD6F8FC10D6F844345B
:1031C0000546C91A06F5E960FFF7BFFA013705435E
:1031D00048EA0505032F5FFA85F806F58C76E1D1FC
:1031E000B8F1000F02D02046FFF75CFF4FF000005F
:1031F000BDE8F08113490022B5E7012EBED104F1EC
:10320000B8070025E9B2D4F8A40E01F0FEFB0135A1
:1032100001463846FFF799FA032D07F58C77F1D16F
:10322000ACE7FEF727FAFEF79FFCFEF723FAFEF75E
:10323000AFFCB4E7330102082A0102083A01020890
:103240003E0102088309020800F53E63994273B506
:10325000044608D10123A36000252046FFF722FF82
:10326000284602B070BD00F54A63994201D10A2395
:10327000F1E700F55663994201D16423EBE7D0F8FA
:10328000983E8B4214D1D0F8A40E90F88833012BCD
:1032900043D10193D4F80C3B642253430093D4F8F8
:1032A0002C33D4F81422D4F8FC1002F031FAD3E70E
:1032B000D0F89C3E8B4217D1D0F8A43E93F88833C7
:1032C000012B2AD100F1B8060025E9B2D4F8A40EEA
:1032D00001F09BFB013501463046FFF736FA032D1E
:1032E00006F58C76F1D1B7E700F6C82399420DD0E8
:1032F00000F1B80399420CD000F5E87399420AD066
:1033000000F53A739942A7D1022300E00323237109
:10331000A2E70023FBE70123F9E708259DE700006A
:103320002DE9F84F694B03600323037100260A233C
:103330000546836006731030FEF742F805F1480039
:10334000FEF73EF805F18000FEF73AF805F1B80007
:10335000FFF766FE05F5E870FFF762FE05F53A70C7
:10336000FFF75EFE05F58060FFF75AFE05F5A360E6
:10337000FFF756FE05F5C660FFF752FE05F5E9605A
:10338000FFF74EFE05F50660FFF74AFE05F67810DA
:10339000FFF746FE05F52960FEF712F805F6C8208E
:1033A000FFF73EFEDFF830B1DFF8309105F53E64FF
:1033B00005F5626A2046FDF7F5FF6FF07F43236352
:1033C0000127C4F800B084F8346084F83560C4E99B
:1033D0000866C4E90A6604F138004FF0FF38FDF7CB
:1033E000E1FFC4F83890266684F86470A66684F815
:1033F0006C6084F86D6084F86E6084F86F70C4F857
:103400007080A4F87860C4E9166604F17C00FDF7CA
:10341000C9FFC4F87C90C4F8A46084F8A870C4F80C
:10342000AC6084F8B06084F8B16084F8B26084F86D
:10343000B370C4F8B480A4F8BC60C4E92766C03493
:103440005445B7D1224B03F1180618685968224633
:1034500003C20833B3421446F7D11A889B78A3708D
:103460001C4B228003F1240105F63B6253F8040B48
:1034700042F8040B8B42F9D105F56660FDF7A0FF19
:10348000FEF7F8F800F5B7501430C5F8980EFEF7BF
:10349000F1F800F5BD501430C5F89C0E08F02CF979
:1034A000C5F8A00E01F054FA002385F8B43EC5F823
:1034B000A40EC5F8A83EC5F8AC3EC5F8B03EC5F8A8
:1034C000B83EC5F8BC3E2846BDE8F88F500102085A
:1034D00008FC010823FC01087C9F0208A4340208B0
:1034E00010B50A4C2368BFF35B8FDB070CD4204672
:1034F00017F041FD40B10648FFF712FF054819F0EB
:1035000037F9204617F043FD014810BD7C1D00200F
:10351000801D0020B135000870B5234B234E036099
:10352000C0F8606E044600F566600AF083FE4FF452
:103530005665635960191B68C03D9847B5F5326FF1
:10354000F7D104F6C820FFF71DF8C4F8906A04F517
:1035500029600AF06FFE40F67815635960191B6800
:10356000A5F58C759847B5F5C66FF6D16359601906
:103570001B68A5F58C759847B5F53A7FF6D1635968
:1035800060191B68A5F58C75984715F1600FF6D189
:103590008025635960191B68383D984715F1280F3D
:1035A000F7D1204670BD00BF50010208483602081E
:1035B00008B50248FFF7B0FF08BD00BF801D00201E
:1035C00010B50446FFF7A8FF20464FF46C6117F0D2
:1035D000D0FC204610BD58B190F84830022B01D9DC
:1035E0000020704700EB8300C36B1944C163F7E709
:1035F00001207047F8B5044602F060FE04F58F51D3
:1036000002F021FF201D0AF008FE04F6B830FEF794
:1036100081FE04F1500704F58866F82563596019A6
:10362000DB6898473B683846DB6898473368304624
:10363000DB6805F58C759847B5F5886F07F1380795
:1036400006F1C006EAD14FF4EF6540F678266359DB
:103650006019DB68C0359847B542F8D104F5D060F1
:103660000AF0DBFD04F5E8600AF0D7FD04F6F82067
:1036700004F580540AF0D1FDD4F8CC010368DB686E
:103680009847D4F8D0010368DB6898474FF00000F2
:10369000F8BD00002DE9F34700F580570446D7F840
:1036A000D83193F8F923022A0BD193F8CC034B4974
:1036B0004B4B0022904218BF194604F5E8600AF00F
:1036C00075FAFDF7D7FFFEF74FFAFDF7D3FFFEF7C8
:1036D0005FFA04F1F8060025E9B2D7F8D80101F045
:1036E00094F9013501463046FFF72FF8032D06F512
:1036F0008C76F1D1E56B002D5CD1256C002D5BD172
:10370000656C45B30226E36C5D4302F0D7FDD0F84B
:103710008C30E26C142B38BF142353433C225343A8
:103720000A22B3FBF2F336B9D7F8D82192F8F9237D
:10373000022A08BF6D424FF00008CDF800802A46EB
:103740003146D7F8D80101F029FF0E3604EB860682
:10375000C5B2C6F80480D7F8D83193F8CB2304F665
:10376000F82A04F5D06904F5886804F5A06704F523
:10377000B8661ABB93F86E2302BB93F8883303F044
:10378000FD03012B1AD004F6B830FEF7C3FD5046F6
:103790000CF03AFA48460CF037FA40460CF034FA8E
:1037A00038460CF031FA30460CF02EFA284602B0BA
:1037B000BDE8F0870026A6E70126A4E750460CF0F6
:1037C00007FA48460CF004FA40460CF001FA384675
:1037D0000CF0FEF930460CF0FBF9E7E73301020884
:1037E0002A0102082DE9F04F8DB004460D460A92D9
:1037F0000AF0A4FE0368DB68984700EB8003089397
:1038000004F588630693089B083309932B1D0793DF
:1038100004F580532646A0464FF0000A0593059A0A
:10382000059BD2F8D821D3F8D43192F8F823D3F8F5
:10383000A000002A14BF042203220292072206F1EC
:10384000F805A0F108030192089A00920621079A50
:103850009B0093FBF1F390FBF1F12846FEF7BEFECF
:10386000FF2204212846FEF763FF0AF067FE0222CA
:1038700001462846FFF766F800212846FEF765FF57
:10388000059BC44AD3F8D83193F8F813C24B0029EA
:1038900014BF914699460AF051FE49460346032259
:1038A0002846FFF765F8FEF731FB00231A4601466C
:1038B0002846FFF790F8D6F8F83028465B6C0121CF
:1038C0009847059B5FFA8AF1D3F8D80101F05CF8BC
:1038D00083460AF081FD6FF07F4308F150090093A1
:1038E00000231A465946019048460AF012F8022170
:1038F00048460AF022F9D8F850309B691F46D6F89E
:10390000F83028469B6A9847D8F850208346926B37
:103910004846904700EBD0700BEBDB734110C1EBD6
:103920006301D6F8F8300B91DB6A28469847D6F841
:10393000F8208346D26B28469047D8F8503000EBE9
:10394000D0700BEB600BDB6B4846984700EBD070F8
:10395000ABEB60020B9900234846B847D6F8F83025
:1039600028461B6B9847D6F8F8308346DB6A284612
:103970009847059BD3F8D431D3F8A020D6F8F83077
:103980000B921B6B074628469847D6F8F8108146DD
:10399000C96B284688470B9A8049A2EB0909012583
:1039A000A9F108030BF10402CDE901050093069883
:1039B0003B460BF0F7FFFEF7A9FA00231A46014633
:1039C00006980CF048F9069B099AC0330693079BAA
:1039D000AA441344BAF1030F06F58C7608F13808AF
:1039E00007937FF41CAF04F54A7304F6782A04F5B4
:1039F000EF684FF000091F46059BD3F8D431D3F888
:103A0000A060059BD3F8D83193F8F833143EB6087C
:103A1000002B40F0B8805146D4F8283306915B6BF8
:103A20003846984783460AF089FD0268D268904775
:103A3000321D09FB02F200EB8000069902950BF1A2
:103A400008030432CDE9006040460BF0ABFFFEF7FF
:103A50005DFA002301461A4640460CF0FCF809F1D5
:103A60000109404603210CF07EF8B9F1040F0AF178
:103A70000C0A08F1C008BFD1012104F6F8000CF0CF
:103A8000DFF8059BD3F8D83193F8F833002B7DD1BC
:103A9000D4F8E03AE3644FF00109CDF80890B4F9A6
:103AA0000A310193B4F900313D49083B04F5D06572
:103AB0000093B4F90231042228460BF073FFFEF79D
:103AC00025FA002301461A4628460CF0C4F8B4F93A
:103AD0000051B4F902810AF031FD6FF07F460835DC
:103AE00008F108082A462E490190434604F5E8608B
:103AF000009609F00EFF0AF021FD0368DB68984785
:103B0000059BD3F8D4310546D3F8A0700AF016FD12
:103B10000368DB6898470A9B2249CDF8089004F6B1
:103B2000F828083F05EB850500EB8000043BCDE954
:103B300000705B1B042240460BF034FFFEF7E6F9F1
:103B4000002301461A4640460CF085F8B4F98687F2
:103B5000B4F9025B0AF0F2FC0368DB689847074699
:103B60000AF0ECFCA5EB08050422ED1BCDE9006092
:103B70000D49A01808EB550309F0CBFE4FF00000EB
:103B80000DB0BDE8F08F0AF1300145E7D4F8F03A06
:103B900080E700BF0C010208820802086C010208DD
:103BA0008309020870010208A8010208F7B504465B
:103BB000012104300AF01AFB04F1500704F588666D
:103BC000F825635964219B68601998473B68642114
:103BD0009B6838469847336830469B68642105F5F2
:103BE0008C759847B5F5886F07F1380706F1C00660
:103BF000E7D14FF4EF6540F67826635960199B686A
:103C00006421C0359847B542F7D1032384F8483082
:103C1000002104F1F800FEF7C5FE04F580550021EF
:103C200004F50470FEF7BEFE002104F54A70FEF7AD
:103C3000B9FED5F8D83193F8F933022B09D16521B3
:103C400004F5E8600AF0D2FA632104F5D0600AF0C6
:103C5000CDFA662104F6F8200AF0C8FAD5F8CC01AE
:103C6000036866219B689847D5F8D00103686621F0
:103C70009B68984702F022FB0546FEF747F904F5DA
:103C80008F53014600932846034A234602F0C3FBA4
:103C90004FF0000003B0F0BDD735000870B50A231F
:103CA00000250446C0E90055C0E90255C0E90455A5
:103CB00083611C30FDF776FB314BE361C4E90F559E
:103CC00004F14400FDF76EFB2E4B6364C4E9195503
:103CD00084F86C50256704F17400FDF763FB2A4BF0
:103CE000636704F19400FDF76BFB04F1CC00FFF770
:103CF00097F904F5F270FDF777FB04F52970FDF7ED
:103D000073FB04F55970FDF76FFB204B93E8070038
:103D100004F2244585E8070004F5866603F10C02E9
:103D20003C3310685168354603C508329A422E4626
:103D3000F7D104F58C60FDF757FB04F5A460FDF79F
:103D400053FB07F0D9FC002384F8F03584F80836DB
:103D5000C4F8E005C4F8E435C4F8E835C4F8EC3537
:103D6000C4F8F435C4F8F835C4F8FC35C4F80036A6
:103D7000C4F80436C4F80C36C4F81036204670BDBA
:103D80009C360208F83402084C35020848FC010849
:103D900010B50021044600F5EF600BF051FF04F66A
:103DA000380000210BF04CFF04F6F80000210BF066
:103DB00047FF04F6B8100021BDE810400BF040BFEB
:103DC0002DE9FF4100F580560446D6F8CC318B42F0
:103DD0000D4600F0EC80D6F8D0318B4200F0E78041
:103DE00000F5D06399420DD1D6F8D80190F8CC33C4
:103DF0002BB101F0BFFB002004B0BDE8F08101F061
:103E0000C3FBF8E700F6F82088422AD194F82C3B4F
:103E100004F5886804F5A06704F5B865A3B9D6F879
:103E2000D83193F8881301290ED10BF009FF6149AD
:103E300040460BF00DFE5F4938460BF009FE5D4928
:103E400028460BF005FED6E700210BF0F9FE5A4993
:103E500040460BF0FDFD584938460BF0F9FD564938
:103E6000EEE704F6B838884519D004F5EF67B94293
:103E70001ED004F63807B9422DD004F6F807B9422F
:103E80002BD004F6B817B94229D004F1F8008142CA
:103E900041D004F58863994276D100253EE0D4F8FC
:103EA000C82C94F8C41BD6F8D80101F075FDA2E720
:103EB00000252046FFF76CFF012138460BF0C0FEBD
:103EC000D6F8D83193F8F8335BB905F2B62554F833
:103ED0002530E3648FE70125EBE70225E9E70325B9
:103EE000E7E705F2BA25F2E701260021FEF75AFDC1
:103EF000002104F50470FEF755FD002104F54A7019
:103F0000FEF750FD01212846FEF74CFD84F848607D
:103F100071E70226E9E70026E7E7012594F82C3B44
:103F2000D6F8D801E9B213B901F00AFD63E700F051
:103F30002BFDD6F8D83193F8F833002B4FF48C735F
:103F400003FB054314BF04220322D3F83C31029241
:103F500001461A4A1A48CDE900201A481A4A08BFF1
:103F600002464046FEF738F8FDF7D0FF0023014631
:103F70001A464046FDF7D1FFC4F8C45B42F2107107
:103F80004046FDF7EDFF36E704F504739942ABD0E8
:103F900004F5A0639942C0D004F54A739942B8D0A1
:103FA00004F5B86399427FF426AF0225B6E70820EE
:103FB00022E700BF332302086C010208806967FF13
:103FC00080969800820802080C010208F8B54C4B54
:103FD000044640F8043BFDF7F3F90023C4E90F332E
:103FE0006364032384F848300123E36404F1500040
:103FF000FDF7E6F904F18800FDF7E2F904F1C000ED
:10400000FDF7DEF904F1F800FFF70AF804F5047093
:10401000FFF706F804F54A70FFF702F804F5886028
:10402000FDF7E2F904F5A060FDF7DEF904F5B860EC
:10403000FDF7DAF904F5D060FDF7D6F904F5E8608C
:10404000FDF7BEF904F5EF6504F678262846C0357D
:10405000FDF7CAF9B542F9D12A4B03F130061868C9
:1040600059682A4603C20833B3421546F7D1264B96
:1040700003F1300704F6A8263A4618685968354611
:1040800003C50833BB422E46F7D10FCA04F6D82524
:1040900085E80F001D4B0FCB04F6E82585E80F00DF
:1040A00004F6F820FDF7A0F904F6B830FFF7F6FDA6
:1040B000FDF7E0FA04F5805500F5B7501430C5F867
:1040C000CC01FDF7D7FA00F5BD501430C5F8D0018A
:1040D00007F012FBC5F8D40100F03AFCC5F8D8018E
:1040E00002F066FC002385F8EC31C5F8DC01C5E977
:1040F0007833C5E97C33C5F8E8312046F8BD00BF08
:104100008C01020884FC0108B4FC0108F4FC0108DD
:1041100010B50A4C2368BFF35B8FDB070CD4204635
:1041200016F029FF40B10648FFF750FF054818F088
:104130001FFB204616F02BFF014810BD402C00202D
:10414000442C00206142000810B5034B0360044674
:104150000AF070F8204610BD4836020810B5044633
:10416000FFF7F2FF2046382116F003FF204610BD6E
:1041700038B5044600F5A460FDF7ECFD04F58C604D
:10418000FDF7E8FD4FF45975635960191B68C03D90
:104190009847B5F5927FF7D104F1CC00FEF7F2F91C
:1041A00004F19400FFF7D0FF2046094B40F8743F1C
:1041B0000AF040F82046074B40F8443F0AF03AF82E
:1041C0002046054B40F81C3F0AF034F8204638BD25
:1041D0004C350208F83402089C36020838B51F4BEB
:1041E0000360044600F6B830FFF7C2FF04F6F8207B
:1041F000FDF7B0FD40F6B815635960191B68C03D66
:104200009847B5F5D76FF7D104F5E860FFF79CFF45
:1042100004F5D060FDF79EFD4FF4B8656359601951
:104220001B68C03D9847B5F5607FF7D14FF44A75DC
:10423000635960191B68A5F58C75984715F1200F17
:10424000F6D1C025635960191B68383D9847182D71
:10425000F8D1201DFFF778FF204638BD8C010208F9
:1042600008B50248FFF7BAFF08BD00BF442C002084
:1042700010B50446FFF7B2FF204641F2F81116F0E0
:1042800078FE204610BD4FF0000070474FF0000050
:1042900070474FF00000704708B5806E032107F0AB
:1042A000AFFE4FF0000008BD61B990F8313083F0E7
:1042B000010380F83130012213B1034908F0C8BB73
:1042C0000249FBE7704700BF0000002014000020F7
:1042D00010B5034B0360044609F0ACFF204610BD47
:1042E000502C020810B50446FFF7F2FF2046342197
:1042F00016F03FFE204610BD10B5034B0360044688
:10430000FDF734F8204610BDE401020808B5024864
:10431000FFF7F2FF08BD00BF303F002010B5044694
:10432000FFF7EAFF20466C2116F023FE204610BD61
:1043300070B51E4E3568BFF35B8F15F0010532D1A5
:10434000304616F018FE70B3194C1A4B2046102256
:1043500040F8043B02212B460AF061FE2A4629461A
:104360002B4604F124000AF05AFE134BE564C4E91D
:1043700015344FF48063A4F85E30022384F8603073
:104380000E4B63660E4B2360C4E9115584F8505000
:1043900084F85C5007F0B0F9A0660A4818F0E8F914
:1043A000304616F0F4FD024870BD00BF2C3F0020DF
:1043B000303F0020149F0208F1ED0008C2010208FE
:1043C000E40102080D43000838B500230160838032
:1043D0008371044607F090F9A06018F005FA0625ED
:1043E00090FBF5F303FB15000130207118F0FCF988
:1043F00090FBF5F303FB1500013001236071A371FD
:10440000204638BD2DE9F0410446006803681B6B67
:1044100098470646206803689B6A984707462068C5
:1044200003685B6B9847054620680368DB6A98471A
:1044300094F904202B18F01900EBD07003EBD37320
:1044400012EB60004FEA6303114604D4A568D5F867
:10445000A050A84202DB52422271002194F90500CB
:10446000C318024604D4A568D5F8A450AB4202DBB9
:10447000404260710022206803689C690123A446C1
:10448000BDE8F0416047000038B504461D46084BC2
:1044900008F0B8FA074B236084F8315025B9044975
:1044A0002A46204608F0D4FA01236375204638BD19
:1044B00000000020100202082DE9F0430022ADF5B3
:1044C000177D05461146012343A8FFF7DDFFAB6EBC
:1044D000BDF91E11D3F8A420BDF91C01DFF85882E4
:1044E000521AD3F8A010091A02EBD27201EBD17163
:1044F00000235210491043A809F0B6FE4FF0FF16F2
:1045000001274FF4004143A809F070FE1E239622B4
:10451000CDE90067782117A809F000F9282117A82C
:10452000002409F063FE4FF47F03CDE900347822C4
:104530001E23962121A809F0F1F8322121A809F0C3
:1045400055FE4FF47F4978232222CDE900392E21F0
:10455000602305A809F096F81E2105A809F046FE7B
:104560004C232222CDE900382E216E230EA809F01B
:1045700089F81E210EA809F039FE09F069FF2246CC
:104580000A23CDE900606A4950A809F00DFA4621D6
:1045900050A809F02BFE09F095FF22461423CDE91F
:1045A000008063495EA809F0FFF950215EA809F078
:1045B0001DFE09F0FDFF4FF6FF7822461E235C49E1
:1045C0000190CDF800806CA809F0EEF95A216CA892
:1045D00009F00CFE09F076FF22463223CDE9016096
:1045E0005349CDF800907AA809F04AFA64217AA8D4
:1045F00009F0FCFD09F0B6FEFF26224646234C4991
:104600000190009688A809F0CFF96E2188A809F0DA
:10461000EDFDCDE901670A26224664232146009676
:104620002BA808F079FF31462BA809F0DFFD1423F1
:10463000462200966421CDE9018737A808F06CFF77
:10464000142137A809F0D2FD0C2006F0FFFF394CE9
:1046500017A90646FFF7B8FE0C20266006F0F6FF05
:1046600021A90646FFF7B0FE0C20666006F0EEFFBB
:1046700005A90646FFF7A8FE0C20A66006F0E6FF97
:104680000EA90646FFF7A0FE0C20E66006F0DEFF4E
:1046900050A90646FFF798FE0C20266106F0D6FFCB
:1046A0005EA90646FFF790FE0C20666106F0CEFF7D
:1046B0006CA90646FFF788FE0C20A66106F0C6FF2F
:1046C0007AA90646FFF780FE0C20E66106F0BEFFE1
:1046D00088A90646FFF778FE0C20266206F0B6FF92
:1046E0002BA90646FFF770FE0C20666206F0AEFFAF
:1046F00037A90646FFF768FEA662A86E4FF0FF31A5
:1047000007F0CBF8C4B2002CF7D10A4E56F8040BD0
:104710000134FFF777FE0B2CF8D1A86E07F0C2F832
:10472000A86E07F0CEF801200AF0EBFDE5E700BF28
:10473000CC0102083C3E002000FFFF00034BD3F8F1
:104740005C23034B1A615A62704700BF9C2C02081D
:104750000000002008B5806E03689B6898474FF002
:10476000000008BD70B50446806E03681B6A984758
:10477000B0B90625D4F8FC3333B194F8CB331BB968
:1047800094F86E33002B4CD00023012204F57F7186
:1047900020460AF010FBC5B201200AF0B4FD40E04B
:1047A000D4F8FC33C3B904F16C054FF4807204F5FE
:1047B0008061284619F09BF8A66E2846FBF71AFD83
:1047C000336802462946DB6930469847C5B2062D54
:1047D000CFD0222D24D1CDE794F8CB2312B994F871
:1047E0006E2302B394F87123EAB994F8D923AAB9D5
:1047F0000AF085FD04F59065C4F87C034FF0FF31A5
:1048000028460AF09DFB012384F87133D4F8FC3369
:10481000C4F8843328460AF0B8FBC4E7C4F88433EC
:104820000025284670BD0625A7E7000010B5064BF9
:104830000360044600F590600AF07AFB2046FCF71E
:1048400095FD204610BD00BFA411020808B502481E
:10485000FFF7ECFF08BD00BFA03F002010B50446E5
:10486000FFF7E4FF204640F2746116F082FB204619
:1048700010BD0000F8B5314B314F0446102240F80E
:10488000043B222100230AF0CAFB002384222021BA
:1048900004F124000AF0C3FB2A49C4E915144FF4BB
:1048A0008061A4F85E10022184F8601026496166D8
:1048B00004F57F73254963640122002321604FF0D2
:1048C0008071C4E91232C4E9DD33C4E9DF3284F80F
:1048D000503084F85C20A366C4F86C13A4F87023ED
:1048E000C4F88433A4F8F623A4F8F83304F59060F0
:1048F0000AF014FB97E80F0004F2844507F1100654
:1049000085E80F000FCE04F294450FC50FCE0FC5FA
:1049100096E8070085E8070007F13C01502204F5FE
:10492000986019F024F94FF4B27207F18C0104F584
:10493000A26019F01CF92046F8BD00BF149F0208C0
:1049400004FD0108F1ED00087C080208A41102082A
:1049500010B50A4C2368BFF35B8FDB070CD42046ED
:1049600016F009FB40B10648FFF784FF054817F031
:10497000FFFE204616F00BFB014810BD9C3F0020B7
:10498000A03F00204D480008032928BF032100EB69
:104990008100D0F8840470470B2928BF002100EB68
:1049A0008100D0F894047047582928BF582101F598
:1049B000A27150F821007047022970B505460C46D7
:1049C00021D800F590664FF0FF3130460AF0B8FA72
:1049D00095F8F833002B42F2107308BF4FF47A7346
:1049E00007EE903A05EB840494EDE37AF8EEE77A6B
:1049F000304667EE877AFDEEE77A17EE904A0AF0C6
:104A0000C4FA204670BD0024FBE7022970B50546B4
:104A10000C4625D800F590664FF0FF3130460AF07D
:104A20008FFA95F8F83305EB8404D4EDE67A94ED2B
:104A3000E37A002B42F2107308BF4FF47A7337EE1B
:104A4000677A07EE903AF8EEE77A304667EE877AB3
:104A5000FDEEE77A17EE904A0AF097FA204670BD0D
:104A60000024FBE7022970B505460C4621D800F565
:104A700090664FF0FF3130460AF062FA95F8F8334D
:104A8000002B42F2107308BF4FF47A7307EE903A8E
:104A900005EB840494EDE97AF8EEE77A304667EEA8
:104AA000877AFDEEE77A17EE904A0AF06EFA204612
:104AB00070BD0024FBE7022970B505460C4625D8D9
:104AC00000F590664FF0FF3130460AF039FA95F85C
:104AD000F83305EB8404D4EDE67A94EDE97A002B03
:104AE00042F2107308BF4FF47A7337EE677A07EE1D
:104AF000903AF8EEE77A304667EE877AFDEEE77A8D
:104B000017EE904A0AF041FA204670BD0024FBE7F8
:104B100090F87123D0F8843322B9994202D190F8E9
:104B2000D9037047994234BF54205520704700B5CF
:104B3000A3B000238DF80810012201A901938DF87C
:104B400009300AF038F923B05DF804FB10B50446CB
:104B500001F02EFF027972B916484FF400510BF0A4
:104B6000F3FB94F8D4336FF3000384F8D4330123B8
:104B700084F86F3310BD01F01BFF0379012B0CD1BA
:104B800094F86F33002BECD18B212046FFF7CFFF39
:104B90000AF0B5FBC4F87803E3E701F009FF0379F5
:104BA000022BDED1034800224FF400510BF0CCFB66
:104BB000E6E700BF0008024038B5044601F0F8FE01
:104BC0000579BDB91E4801224FF400510BF0BCFB22
:104BD00084F86F53D4F88023C4F8842394F8D42342
:104BE000002363F3000284F8713384F8D93384F826
:104BF000D42324E001F0DCFE0379012B0DD194F8DD
:104C00006F3333B194F8CB331BB18B212046FFF7C0
:104C10008EFF002384F86F33DCE701F0C9FE0379CF
:104C2000022B06D1064801224FF400510BF08CFBF9
:104C3000E5E701F0BDFE94F86F33002BCAD038BD14
:104C40000008024073B5069D83EAE3741846A4EB9E
:104C5000E37442F210739D420E46114612D1B4FB2A
:104C6000F5F305FB1344264ACDE90034254B13EA3E
:104C7000200338BF1346244A304618F047FD30461B
:104C800002B070BDB5F57A7F0DD1B4FBF5F305FB2D
:104C900013441B4ACDE900341A4B13EA200338BFF2
:104CA00013461A4AE8E7642D0DD1B4FBF5F305FB72
:104CB0001344134ACDE90034124B13EA200338BFE2
:104CC0001346134AD8E70A2D0DD1B4FBF5F305FBC3
:104CD00013440B4ACDE900340A4B13EA200338BFD2
:104CE00013460C4AC8E7064A064B009413EA200311
:104CF00038BF1346084A304618F008FDBFE700BF2A
:104D00008309020885080208870802089308020838
:104D10009F080208AB080208B70802082DE9F04115
:104D20000F4605463A21384618F0C2FD38B3002335
:104D300000F8013B17F025FDC4B205F59268002686
:104D400058F8041F3846FBF74BFA08B9F6B203E0EF
:104D500001360B2EF4D1002695F88833B34203D1E7
:104D600095F88923A2420CD013B9012385F8F633B4
:104D700085F8886385F889430120BDE8F081044601
:104D8000DBE70020F9E710B510460C4617F0F6FCFB
:104D900051EC100BFBF740FF94ED007A07EE900A00
:104DA000B4EE677AF1EE10FA16BF01200020C4EDD0
:104DB000007A10BD10B510460C4617F0E2FC2268D0
:104DC0000346824216BF01200020236010BD2DE95A
:104DD000F04107460C46154602F10C08002629460C
:104DE00022463846FFF7CFFF2C21002818BF064681
:104DF000204618F05DFD20B10435454500F1010461
:104E0000EDD13046BDE8F08190F8C83310B50446C6
:104E100063B3D0EDE67AF5EE407AF1EE10FA0FD1F9
:104E2000D0EDE77AF5EE407AF1EE10FA08D1D0ED48
:104E3000E87AF5EE407AF1EE10FA14BF0123002370
:104E400094F8D02363F3C302002384F8D023C4F87A
:104E50009833C4F89C33C4F8A03394F8D03394F852
:104E6000C92362F3451384F8D03310BD00F5667290
:104E7000FFF7ADFF94F8D03360F3C30384F8D03369
:104E8000EBE770B50E4604462C21304618F010FDB5
:104E90000546002305F8013B324604F56F712046B4
:104EA000FFF788FF28B194F8D23343F0010384F868
:104EB000D2332C21284618F0FBFC0646002306F8C6
:104EC000013B2A4604F570712046FFF773FF28B1B5
:104ED00094F8D23343F0020384F8D233324604F517
:104EE0007C712046FFF766FF28B194F8D23343F077
:104EF000040384F8D23370BD70B50D4604462C21EE
:104F0000284618F0D5FC0646002306F8013B2A4641
:104F100004F571712046FFF736FF28B194F8D133BC
:104F200043F0020384F8D1332C21304618F0C0FC42
:104F3000054610B1002305F8013B324604F57971AE
:104F40002046FFF720FF28B194F8D13343F0040343
:104F500084F8D13365B12A4604F57A712046FFF70B
:104F600012FF28B194F8D13343F0040384F8D1330D
:104F700070BD00002DE9F84300F5B6760446B94946
:104F80003046FBF72DF928B984F8710384F8D9036A
:104F9000BDE8F88394F86C31242B10D13D213046C4
:104FA00018F086FC054650B1002305F8013B04F2D9
:104FB0006D1017F0E6FB0D284DD020285BD094F83B
:104FC0006C313C2B40F03581012384F870330AF0BA
:104FD00096F9A549C4F8780304F26D1018F09AFC0C
:104FE0000546F8B101462046FFF798FE28B194F82F
:104FF000D03343F0020384F8D03394F8D83363B14C
:1050000094F88833052B08D094F8D133002262F34A
:10501000C30384F8D82384F8D1339349002018F0CF
:1050200079FC0546914FDFF86482DFF86492002630
:1050300075BB002EACD194F8DA33002B94F8D13341
:1050400014BF0122002262F3861384F8D1339FD06B
:1050500084F8DA639CE7284694F8F87317F091FB1C
:105060008742ACD0284617F08CFB84F8F803012364
:1050700084F8F733A3E7284694F8F97317F081FB17
:1050800087429CD0284617F07CFB84F8F903EEE7B2
:1050900005223946284618F018FCE8B994F8C833B8
:1050A00043B9012384F8C83394F8D03343F008039C
:1050B00084F8D03304F56372691D2046FFF787FE3C
:1050C00094F8D03360F3820384F8D033664900202B
:1050D00018F020FC0546ABE705224146284618F0AB
:1050E000F4FB30B994F8C833002BE3D084F8C8033C
:1050F000DAE703224946284618F0E7FB20B9E91C05
:105100002046FFF7F9FEE1E759490422284618F046
:10511000DCFB20B9291D2046FFF776FED6E755496E
:105120000322284618F0D1FBA8B904F2DA36033579
:1051300029463046FBF754F894F8D133003818BFAD
:10514000012060F3861384F8D1333046294618F0E5
:1051500006FD0126BAE748490222284618F0B5FBA9
:1051600068B9AB78A3F131004342434184F8CC33B2
:1051700094F8D13343F0200384F8D133A6E73F49B4
:105180000222284618F0A1FB30BB94F8D033A4F8D3
:10519000F40343F040030235A4F8EC0384F8D03361
:1051A000012240F2011115F8013B002B8ED04D2B4E
:1051B0000CD006D8432B0CD0462BF4D184F8F42322
:1051C000F1E7532BEFD1A4F8EC23ECE784F8F523B7
:1051D000E9E7A4F8EC13E6E729490322284618F08A
:1051E00074FB20B9E91C2046FFF74BFE6EE725490A
:1051F0000422284618F069FB00287FF467AF2A795B
:1052000094F8CB33A2F131014A424A419A4209D083
:1052100083F0010384F8CB3394F8D03343F00103D7
:1052200084F8D03394F8D43343F0010384F8D433B2
:105230004CE75B2B42D104F26D151349042228463A
:1052400018F043FB30BB04F5697204F2711120467B
:10525000FFF7BDFD94F8D23360F3C30384F8D23373
:1052600096E600BFBD080208C0080208C20802088E
:10527000D2080208D7080208E3220208DB08020865
:10528000DE080208E2080208E7080208C808020867
:10529000CE0802081F490422284618F016FB0028F1
:1052A0007FF476AE04F56C7204F271112046FFF7BC
:1052B0008EFD94F8D23360F30413CFE7164906222B
:1052C000304618F002FB054670B904F5B97017F0C6
:1052D00058FA94F8D13384F8D90343F0100384F8D2
:1052E000D13384F8715353E60C490622304618F046
:1052F000ECFA00287FF44CAE04F5B97017F041FACF
:1053000094F8D13384F8D80343F0080384F8D133F8
:105310003EE600BFEC080208F1080208F80802089F
:1053200073B5002604468DF80760A06E03680DF182
:1053300007011B699847C0B208B102B070BD9DF863
:105340000720182A02D1A4F86C63EEE70A2AB4F801
:105350006C3301D00D2A13D1002BF4D0234400224A
:1053600004F5906583F86C214FF0FF31284609F071
:10537000E7FD2046FFF7FEFD284609F006FEE2E7BE
:10538000B3F5FE7F9FBF591C1B19A4F86C1383F85B
:105390006C21CAE770B5044600F590664FF0FF3106
:1053A000304609F0CDFDD4F880536B1C012B38BF7B
:1053B0000123C4F88033304609F0E7FD284670BD6C
:1053C00070B590F8CB33A2B004460D46164613B91B
:1053D00090F86E338BB194F8883373B12046FFF7A1
:1053E000D9FF6A1E01900DF107017F3512F8013FC8
:1053F00001F8013F23B1AA42F8D10C2022B070BDC0
:105400001A4601A9204609F0D6FC019B3360C0B2C0
:10541000F4E7000007B5034901AAFFF7D1FF03B085
:105420005DF804FBDD11020810B50446FFF778FFB4
:1054300009F065FFD4F87833C01AB0F5967F81BFC4
:10544000002384F88833012384F8703394F8CB3335
:1054500013B994F86E3313B194F8883343B994F8C0
:1054600071332BB1002384F87133562384F8D93378
:1054700001F09EFA0379012B0DD194F86F2394F873
:10548000CB3372B994F8CB3363B994F86E334BB91C
:105490004FF0000010BD01F08BFA0379022BF1D11F
:1054A000EBE773B394F8F6332BB12046FFF7B2FF66
:1054B000002384F8F63394F8CB331BB994F86E3399
:1054C000002BE5D094F87033002BE1D009F017FFE2
:1054D000D4F87433C01A6428DAD9A06E03681B6A42
:1054E00098470028D4D009F00AFFC4F87403A06ECE
:1054F0001549002384F8703303680122DB6998475B
:10550000C6E794F86E33002BCCD194F8D433DB0784
:1055100011D58B212046FFF70AFB09F0F0FE94F825
:10552000D433C4F87403002262F3000384F87023B8
:1055300084F8D433A6E709F0E2FED4F87833C01A31
:10554000B0F5967FE5D89DE7FF08020807B5034947
:1055500001AAFFF735FF03B05DF804FBD81102087C
:1055600007B5034901AAFFF72BFF03B05DF804FB61
:10557000D211020807B5034901AAFFF721FF03B0C2
:105580005DF804FBCD11020807B5034901AAFFF736
:1055900017FF03B05DF804FBC81102082DE9F041C4
:1055A0000229AEB004460D4617461E464FD890F865
:1055B000CB331BB990F86E33002B4AD094F8883364
:1055C00003F0FD03012B44D12046FFF7E3FE94F8DE
:1055D000F8330D90002B0DF1140842F2107308BF40
:1055E0004FF47A73009310223B4641462046FFF762
:1055F00029FB09AF64230093102233463946204625
:10560000FFF720FB94F8F8139DF8D000124B134AD3
:10561000CDE9028704EB8505002818BF1A46D5F8A6
:105620008434CDE900230E4A0E4B0EA8002908BF92
:1056300013460D4A802118F069F800231A460DA977
:10564000204609F0B8FBC0B22EB0BDE8F0810220C0
:10565000FAE70C20F8E700BF090902080D09020863
:105660000109020805090208110902082DE9F041A3
:105670000229AAB004460D4617461E463ED890F8A9
:10568000CB331BB990F86E33002B39D094F88833A4
:1056900003F0FD03012B33D12046FFF77BFE94F886
:1056A000F8330990002B0DF1140842F2107308BF73
:1056B0004FF47A73009310223B4641462046FFF791
:1056C000C1FA94F8F8130F4ACDE9018604EB850579
:1056D0000AA8D5F8843400930B4B002908BF134661
:1056E0000A4A802118F012F800231A4609A9204618
:1056F00009F061FBC0B22AB0BDE8F0810220FAE7F0
:105700000C20F8E70109020805090208220902082D
:105710002DE9F0431E4690F8CB33BBB004468846D3
:1057200091461BB990F86E33002B6DD094F88833F6
:1057300003F0FD03012B67D12046FFF72BFE94F801
:10574000F833199042F21075002B14BF2B464FF41A
:105750007A7309AF00931022434639462046FFF77B
:1057600071FA94F8F833002B14BF2B464FF47A7378
:105770000DF13408009310224B4641462046FFF7B6
:1057800061FA94F8F833002B08BF4FF47A750DF1E5
:10579000440900953346102249462046FFF752FA45
:1057A00015AD642300931022429B29462046FFF743
:1057B00049FA94F8F8139DF80C01144B144ACDE9FA
:1057C0000695002818BF1A46D4F88C34CDE9048316
:1057D000D4F88834CDE90273D4F88434CDE90023B9
:1057E0000C4A0D4B1AA8002908BF13460B4A80210A
:1057F00017F08CFF00231A4619A9204609F0DBFA9E
:10580000C0B23BB0BDE8F0830C20FAE709090208FA
:105810000D090208010902080509020838090208F1
:105820002DE9F043994690F8CB33BBB004460F46C0
:1058300090461BB990F86E33002B71D094F88833E2
:10584000013B022B6CD82046FFF7A4FD94F8F833F7
:10585000199042F21075002B14BF2B464FF47A7347
:1058600009AE009310223B4631462046FFF7EAF985
:1058700094F8F833002B14BF2B464FF47A730DAF16
:1058800000931022434639462046FFF7DBF994F88F
:10589000F833002B08BF4FF47A750DF144080095DA
:1058A0004B46102241462046FFF7CCF915AD642344
:1058B00000931022429B29462046FFF7C3F99DF82A
:1058C0001001184B184A94F8F8139DF80CC105976D
:1058D000CDE90685002818BF1A46144B1448BCF1C0
:1058E000000F18BF1846D4F88834CDE90363D4F804
:1058F00084340092CDE901030E4A0F4B1AA8002907
:1059000008BF13460D4A802117F000FF00231A46F6
:1059100019A9204609F04FFAC0B23BB0BDE8F083A8
:105920000C20FAE7090902080D09020851090208CA
:105930005509020801090208050902085909020867
:1059400030B50229A3B004460D461FD890F8CB33DA
:1059500013B990F86E33DBB194F88833012B17D16B
:105960002046FFF717FD04EB85050A4AD5F8843475
:105970000190802102A817F0C9FE00231A4601A950
:10598000204609F018FAC0B223B030BD0220FBE770
:105990000C20F9E773090208F0B50229A9B0044602
:1059A0000D46164639D890F8CB331BB990F86E33B4
:1059B000002B34D094F88833012B30D12046FFF7E8
:1059C000E9FC94F8F8330790002B03AF42F2107310
:1059D00008BF4FF47A7300931022334639462046AD
:1059E00004EB8505FFF72EF994F8F8130197D5F825
:1059F00084340C4A00930C4B08A8002908BF1346B6
:105A00000A4A802117F082FE00231A4607A9204681
:105A100009F0D1F9C0B229B0F0BD0220FBE70C209B
:105A2000F9E700BF01090208050902088409020814
:105A30002DE9F0410229AEB004460D4690461F46BE
:105A40005AD890F8CB331BB990F86E33002B55D051
:105A500094F88833012B51D12046FFF79BFC94F832
:105A6000F8330D90002B05AE42F2107308BF4FF4CF
:105A70007A7300931022434631462046FFF7E2F83E
:105A80000DF124086423009310223B464146204632
:105A9000FFF7D8F805F5907594F8F823E7B1CDE94C
:105AA000016804EB850516496B680093154B0EA839
:105AB000002A18BF0B46144A802117F027FE002346
:105AC0001A460DA9204609F076F9349B0D9A1A6002
:105AD000C0B22EB0BDE8F08104EB850501966B687D
