:020000040800F2
:1000000000000220A5FB0108FDF20108FFF2010833
:1000100001F3010803F3010805F3010800000000E3
:1000200000000000000000000000000001E50108E1
:1000300007F301080000000091E5010809F3010839
:10004000F5FB0108F5FB0108F5FB0108F5FB0108CC
:10005000F5FB0108F5FB0108F5FB0108F5FB0108BC
:10006000F5FB0108F5FB0108F5FB0108F5FB0108AC
:10007000F5FB0108F5FB0108F5FB0108F5FB01089C
:10008000F5FB0108F5FB0108F5FB01080000000085
:10009000000000000000000000000000F5FB010867
:1000A000F5FB0108F5FB0108F5FB0108F5FB01086C
:1000B000F5FB0108F5FB0108F5FB0108F5FB01085C
:1000C000F5FB0108F5FB0108F5FB0108F5FB01084C
:1000D000F5FB010821F30108F5FB01080000000011
:1000E000F5FB0108F5FB0108F5FB01080000000025
:1000F000000000000000000000000000F5FB010807
:10010000000000002DF30108F5FB0108F5FB0108D4
:1001100000000000000000000000000000000000DF
:10012000F5FB0108F5FB010839F3010845F3010867
:10013000F5FB0108000000000000000000000000C6
:1001400000000000000000000000000051F3010862
:100150005DF30108F5FB010869F30108F5FB0108EF
:10016000F5FB0108F5FB010800000000000000009D
:10017000000000000000000000000000000000007F
:1001800000000000F5FB0108000000000000000076
:08019000F5FB0108F5FB010875
:1001A00010B5054C237833B9044B13B10448AFF3B1
:1001B00000800123237010BD5003002000000000C8
:1001C0007448020808B5034B1BB103490348AFF359
:1001D000008008BD0000000054030020744802089D
:1001E00010F8012B11F8013B012A28BF9A42F7D0E1
:1001F000D01A7047034613F8012B002AFBD1181AB6
:1002000001387047000000000000000000000000FE
:1002100001F0FF01102A2BDB10F0070F08D010F8B7
:10022000013B013A8B422DD010F0070F42B3F6D1BB
:10023000F0B441EA012141EA014122F007047FF0D4
:1002400000070023F0E80256083C85EA010586EA2B
:10025000010685FA47F5A3FA87F586FA47F6A5FA67
:1002600087F68EB9EED1F0BC01F0FF0102F0070273
:1002700032B110F8013B013A83EA010313B1F8D11E
:100280000020704701387047002D06BF35460338FF
:10029000073815F0010F07D1013015F4807F02BF38
:1002A000013015F4C03F0130F0BC0138704700BF89
:1002B00081F0004102E000BF83F0004330B54FEA17
:1002C00041044FEA430594EA050F08BF90EA020F84
:1002D0001FBF54EA000C55EA020C7FEA645C7FEA17
:1002E000655C00F0E2804FEA5454D4EB5555B8BF3A
:1002F0006D420CDD2C4480EA020281EA030382EAAB
:10030000000083EA010180EA020281EA0303362D3C
:1003100088BF30BD11F0004F4FEA01314FF4801C0F
:100320004CEA113102D0404261EB410113F0004F21
:100330004FEA03334CEA133302D0524263EB4303D8
:1003400094EA050F00F0A780A4F10104D5F1200E76
:100350000DDB02FA0EFC22FA05F2801841F10001D1
:1003600003FA0EF2801843FA05F359410EE0A5F1A5
:1003700020050EF1200E012A03FA0EFC28BF4CF0D6
:10038000020C43FA05F3C01851EBE37101F000458C
:1003900007D54FF0000EDCF1000C7EEB00006EEB99
:1003A0000101B1F5801F1BD3B1F5001F0CD3490823
:1003B0005FEA30004FEA3C0C04F101044FEA44527A
:1003C00012F5800F80F09A80BCF1004F08BF5FEA01
:1003D000500C50F1000041EB045141EA050130BDE1
:1003E0005FEA4C0C404141EB0101013C28BFB1F5F3
:1003F000801FE9D291F0000F04BF01460020B1FA3E
:1004000081F308BF2033A3F10B03B3F120020CDA10
:100410000C3208DD02F1140CC2F10C0201FA0CF0EE
:1004200021FA02F10CE002F11402D8BFC2F1200C53
:1004300001FA02F120FA0CFCDCBF41EA0C01904009
:10044000E41AA2BF01EB0451294330BD6FEA040452
:100450001F3C1CDA0C340EDC04F11404C4F120023D
:1004600020FA04F001FA02F340EA030021FA04F34F
:1004700045EA030130BDC4F10C04C4F1200220FAA6
:1004800002F001FA04F340EA0300294630BD21FAE4
:1004900004F0294630BD94F0000F83F4801306BFAA
:1004A00081F480110134013D4EE77FEA645C18BF9E
:1004B0007FEA655C29D094EA050F08BF90EA020F35
:1004C00005D054EA000C04BF1946104630BD91EA2D
:1004D000030F1EBF0021002030BD5FEA545C05D130
:1004E0004000494128BF41F0004130BD14F580046F
:1004F0003CBF01F5801130BD01F0004545F0FE41E3
:1005000041F470014FF0000030BD7FEA645C1ABF17
:10051000194610467FEA655C1CBF0B46024650EA4E
:10052000013406BF52EA033591EA030F41F400217A
:1005300030BD00BF90F0000F04BF0021704730B500
:100540004FF4806404F132044FF000054FF00001D5
:1005500050E700BF90F0000F04BF0021704730B596
:100560004FF4806404F1320410F0004548BF40426B
:100570004FF000013EE700BF42004FEAE2014FEAC0
:1005800031014FEA02701FBF12F07F4393F07F4F9B
:1005900081F06051704732F07F4208BF704793F09E
:1005A0007F4F04BF41F40021704730B54FF46074B1
:1005B00001F0004521F000411CE700BF50EA0102B4
:1005C00008BF704730B54FF000050AE050EA01025D
:1005D00008BF704730B511F0004502D5404261EBCD
:1005E00041014FF4806404F132045FEA915C3FF40E
:1005F000D8AE4FF003025FEADC0C18BF03325FEAAB
:10060000DC0C18BF033202EBDC02C2F1200300FA5B
:1006100003FC20FA02F001FA03FE40EA0E0021FA80
:1006200002F11444BDE600BF70B54FF0FF0C4CF46E
:10063000E06C1CEA11541DBF1CEA135594EA0C0F20
:1006400095EA0C0F00F0DEF82C4481EA030621EA5B
:100650004C5123EA4C5350EA013518BF52EA033596
:1006600041F4801143F4801338D0A0FB02CE4FF048
:100670000005E1FB02E506F00042E0FB03E54FF078
:100680000006E1FB03569CF0000F18BF4EF0010E70
:10069000A4F1FF04B6F5007F64F5407404D25FEA6C
:1006A0004E0E6D4146EB060642EAC62141EA55511F
:1006B0004FEAC52040EA5E504FEACE2EB4F1FD0C61
:1006C00088BFBCF5E06F1ED8BEF1004F08BF5FEADF
:1006D000500E50F1000041EB045170BD06F0004691
:1006E00046EA010140EA020081EA0301B4EB5C043E
:1006F000C2BFD4EB0C0541EA045170BD41F4801136
:100700004FF0000E013C00F3AB8014F1360FDEBF5A
:10071000002001F0004170BDC4F10004203C35DA36
:100720000C341BDC04F11404C4F1200500FA05F3B9
:1007300020FA04F001FA05F240EA020001F000425A
:1007400021F0004110EBD37021FA04F642EB0601D0
:100750005EEA430E08BF20EAD37070BDC4F10C04FA
:10076000C4F1200500FA04F320FA05F001FA04F2BE
:1007700040EA020001F0004110EBD37041F10001AA
:100780005EEA430E08BF20EAD37070BDC4F12005B5
:1007900000FA05F24EEA020E20FA04F301FA05F21D
:1007A00043EA020321FA04F001F0004121FA04F2C5
:1007B00020EA020000EBD3705EEA430E08BF20EA95
:1007C000D37070BD94F0000F0FD101F000464000CF
:1007D00041EB010111F4801F08BF013CF7D041EA51
:1007E000060195F0000F18BF704703F00046520055
:1007F00043EB030313F4801F08BF013DF7D043EA26
:100800000603704794EA0C0F0CEA135518BF95EADB
:100810000C0F0CD050EA410618BF52EA4306D1D162
:1008200081EA030101F000414FF0000070BD50EA81
:10083000410606BF1046194652EA430619D094EA0B
:100840000C0F02D150EA013613D195EA0C0F05D1F5
:1008500052EA03361CBF104619460AD181EA030149
:1008600001F0004141F0FE4141F470014FF0000001
:1008700070BD41F0FE4141F4780170BD70B54FF09C
:10088000FF0C4CF4E06C1CEA11541DBF1CEA13551C
:1008900094EA0C0F95EA0C0F00F0A7F8A4EB0504FE
:1008A00081EA030E52EA03354FEA013100F08880F5
:1008B0004FEA03334FF0805545EA131343EA1263BE
:1008C0004FEA022245EA111545EA10654FEA002673
:1008D0000EF000419D4208BF964244F1FD0404F52C
:1008E000407402D25B084FEA3202B61A65EB030588
:1008F0005B084FEA32024FF480104FF4002CB6EB45
:10090000020E75EB030E22BFB61A754640EA0C00C4
:100910005B084FEA3202B6EB020E75EB030E22BF04
:10092000B61A754640EA5C005B084FEA3202B6EB45
:10093000020E75EB030E22BFB61A754640EA9C0004
:100940005B084FEA3202B6EB020E75EB030E22BFD4
:10095000B61A754640EADC0055EA060E18D04FEA92
:10096000051545EA16754FEA06164FEAC30343EA32
:1009700052734FEAC2025FEA1C1CC0D111F4801FFF
:100980000BD141EA00014FF000004FF0004CB6E7F8
:1009900011F4801F04BF01430020B4F1FD0C88BF97
:1009A000BCF5E06F3FF6AFAEB5EB030C04BFB6EBA2
:1009B000020C5FEA500C50F1000041EB045170BD95
:1009C0000EF0004E4EEA113114EB5C04C2BFD4EBC2
:1009D0000C0541EA045170BD41F480114FF0000E46
:1009E000013C90E645EA060E8DE60CEA135594EAC2
:1009F0000C0F08BF95EA0C0F3FF43BAF94EA0C0FC5
:100A00000AD150EA01347FF434AF95EA0C0F7FF439
:100A100025AF104619462CE795EA0C0F06D152EA8D
:100A200003353FF4FDAE1046194622E750EA410671
:100A300018BF52EA43067FF4C5AE50EA41047FF482
:100A40000DAF52EA43057FF4EBAE12E74FF0FF3CE7
:100A500006E000BF4FF0010C02E000BF4FF0010CB8
:100A60004DF804CD4FEA410C7FEA6C5C4FEA430C31
:100A700018BF7FEA6C5C1BD001B050EA410C0CBF80
:100A800052EA430C91EA030F02BF90EA020F0020E2
:100A9000704710F1000F91EA030F58BF994208BF49
:100AA00090422CBFD8176FEAE37040F00100704706
:100AB0004FEA410C7FEA6C5C02D150EA013C07D15D
:100AC0004FEA430C7FEA6C5CD6D152EA033CD3D0A8
:100AD0005DF8040B704700BF8446104662468C46A2
:100AE0001946634600E000BF01B5FFF7B7FF0028D5
:100AF00048BF10F1000F01BD4DF808EDFFF7F4FFFE
:100B00000CBF012000205DF808FB00BF4DF808ED88
:100B1000FFF7EAFF34BF012000205DF808FB00BFAB
:100B20004DF808EDFFF7E0FF94BF012000205DF8CD
:100B300008FB00BF4DF808EDFFF7CEFF94BF012082
:100B400000205DF808FB00BF4DF808EDFFF7C4FF7B
:100B500034BF012000205DF808FB00BF4FEA410CC4
:100B60007FEA6C5C02D150EA013C0AD14FEA430CA7
:100B70007FEA6C5C02D152EA033C02D14FF00000E4
:100B800070474FF0010070474FEA410212F5001222
:100B900015D211D56FF47873B3EB625212D94FEAC4
:100BA000C12343F0004343EA505311F0004F23FAAE
:100BB00002F018BF404270474FF00000704750EA03
:100BC000013005D111F0004008BF6FF000407047C0
:100BD0004FF00000704700BF4A0011D212F500121A
:100BE00011D20DD56FF47873B3EB62520ED44FEA85
:100BF000C12343F0004343EA505323FA02F0704705
:100C00004FF00000704750EA013002D14FF0FF3042
:100C100070474FF0000070474FEA4102B2F1E043E5
:100C200024BFB3F5001CDCF1FE5C0DD901F0004CD3
:100C30004FEAC0024CEA5070B2F1004F40EB830023
:100C400008BF20F00100704711F0804F21D113F14F
:100C50003872BCBF01F00040704741F480114FEA88
:100C60005252C2F11802C2F1200C10FA0CF320FA11
:100C700002F018BF40F001004FEAC1234FEAD3232E
:100C800003FA0CFC40EA0C0023FA02F34FEA430398
:100C9000CCE77FEA625307D150EA01331EBF4FF021
:100CA000FE4040F44000704701F0004040F0FE403C
:100CB00040F40000704700BF53B94AB9002908BF8B
:100CC00000281CBF4FF0FF314FF0FF3000F0A0B9FB
:100CD000ADF1080C6DE904CE00F03CF8DDF804E05D
:100CE000DDE9022304B0704738B500220023044632
:100CF0000D46FFF70BFF28B920462946BDE83840CE
:100D000000F00AB8204605F1004100F005F8404225
:100D100061EB410138BD00BFD0B50C4B0022064647
:100D20000F46FFF781FCFFF757FF0446FFF702FC71
:100D3000074B0022FFF778FC02460B463046394647
:100D4000FFF7BAFAFFF748FF2146D0BD0000F03D9B
:100D50000000F0412DE9F047089D0C46002B4ED1D4
:100D600094468C458646B2FA82F262D94AB1C2F103
:100D70002003914020FA03F30CFA02FC194300FA15
:100D800002FE4FEA1C471FFA8CF6B1FBF7F44FEA5C
:100D90001E4307FB141143EA014304FB06F1994289
:100DA0000AD91CEB030304F1FF3080F01281994251
:100DB00040F20F81023C6344591A1FFA8EF3B1FBD3
:100DC000F7F007FB101143EA014300FB06F69E42D1
:100DD0000AD91CEB030300F1FF3180F0FC809E4236
:100DE00040F2F980634402389B1B40EA0440002132
:100DF0001DB1D3400022C5E90032BDE8F0878B4227
:100E000005D90DB1C5E9000100210846F5E7B3FA9F
:100E100083F1002946D1A34202D39042C0F0F08072
:100E2000861A64EB03030120002DE6D0C5E90063B8
:100E3000E3E7002A40F09080A1EB0C044FEA1C4845
:100E40001FFA8CF70121B4FBF8F64FEA1E4308FBAA
:100E5000164443EA044307FB06F0984208D91CEB0A
:100E6000030306F1FF3402D2984200F2CD802646F9
:100E70001C1A1FFA8EF3B4FBF8F008FB104443EA87
:100E8000044300FB07F79F4208D91CEB030300F162
:100E9000FF3402D29F4200F2B0802046DB1B40EAC2
:100EA0000640A5E7C1F120068B4022FA06F71F4352
:100EB00020FA06FC04FA01F343EA0C03F44000FABA
:100EC00001F8380C4FEA1349B4FBF0FE1FFA87FC17
:100ED00000FB1E4449EA04440EFB0CF9A14502FA4A
:100EE00001F20AD93C190EF1FF3A80F08480A14545
:100EF00040F28180AEF1020E3C44A4EB09041FFADB
:100F000083F9B4FBF0F300FB134449EA044403FB08
:100F10000CFCA44507D93C1903F1FF3067D2A44566
:100F200065D9023B3C4443EA0E40A0FB0293A4EB8C
:100F30000C049C42CE469C4651D34ED055B1B8EBE2
:100F40000E0364EB0C0404FA06F6CB401E43CC40BF
:100F5000C5E90064002150E7C2F1200320FA03F143
:100F60000CFA02FC24FA03F394400C434FEA1C48A9
:100F700000FA02FE1FFA8CF7B3FBF8F008FB103101
:100F8000230C43EA014300FB07F1994208D91CEB0B
:100F9000030300F1FF362CD299422AD90238634468
:100FA0005B1AA4B2B3FBF8F108FB113344EA034423
:100FB00001FB07F3A34208D91CEB040401F1FF363F
:100FC00013D2A34211D902396444E41A41EA004120
:100FD00039E70446F0E6084606E7C845AED2B9EB65
:100FE000020E63EB070C0138A8E73146EDE7034634
:100FF00099E73046D4E7D6467FE7634402384DE7A9
:101000000646234608460FE7023E634430E700BF2A
:10101000704700BF03798B4228BF0431C91AC9B297
:101020004171704708B503681B699847B0FA80F0B2
:10103000400908BD10B508F01DFC204908F03EFC31
:101040000FF08AF91E490FF045FA0FF085F91D4996
:101050000FF084FA0FF080F903681B68984713F0CB
:1010600083F8036818495B6A984705F0FDFA174949
:10107000002205F057FB05F0F7FA03681B68984754
:101080001348FFF7CFFF30B10EF0BEFB0368BDE899
:1010900010401B6818470F48FFF7C4FF10B103F05A
:1010A00089FAF3E703F032FD0B4B836603F02EFD64
:1010B00003681B68984700F063FBE7E76C030020B8
:1010C000A40300208403002030DF0120E8DE01209B
:1010D0008804002078040020D003002000BEFEE732
:1010E000704700002DE9F0473D4ADFF840913D4F41
:1010F0003D4BBA601021C9E902210822FA603B4A3F
:101100003B49916000244FF48060C2E90034D06014
:10111000DFF81C81374ADFF81CA1C9F8003001252F
:10112000C8E90035C7E90035C2E900340223D360BD
:101130004FF06413CAF804302F4B304ECAF8003019
:101140002F4BCAF808304FF0051373602D4B3360F6
:1011500006F10C002C4B9160C8E90215C9F8045047
:10116000B36012F0B7FC294B294A1A60294AC3F828
:101170008420A3F88840284B284818604FF4F07268
:1011800027481C760321C3E901124FF4A071C3E97B
:10119000031259610571C180224D0281C3E907A97B
:1011A000C3E909872146204B03604471C66004747B
:1011B000C0F81240C0F81640C0F81A40FFF72AFFE6
:1011C0004FF400404023C5E900034220C5E903462F
:1011D0002C726C610FF06AF8E860BDE8F08700BF20
:1011E0000000024098040020A8EF020888040020B4
:1011F000000402407804002018F002085C0400207B
:101200008CDE0120CCEF0208F0DC0120D0030020AE
:1012100068F0020838E00120A40300207C7D020869
:10122000840300206C030020547D0208B8040020D1
:10123000A80400206C04002008B5074BD86810B142
:1012400001211EF0D8FC0548054B40F80C3BBDE8D9
:10125000084012F049BC00BF6C0300205C04002071
:10126000CCEF02084FF00000704700F5805090F876
:10127000F40E002818BF0320704712F0D3BAF8B557
:101280000446002840D00E784F7826BB00F5BA55AA
:10129000EB680C351B692846984760B32B682846D5
:1012A0001B6C984738B3DFB10121284613F0A4FA2C
:1012B000062E1ED103F02AFC90F86E3304F5AD54CF
:1012C0001434DBB103F022FC03F0DAFD00212046E8
:1012D00013F092FA0DE0012E0DD100F5C055D7E7BD
:1012E0003946284613F088FA23682946DB692046E8
:1012F00098470020F8BD002FDAD1FAE703F006FC8A
:1013000003F088FD0121E2E70120F3E710B5074B68
:10131000044640F8483B12F0E3FD04F1240012F0CB
:1013200035FC201D12F032FC204610BD9CF0020856
:1013300010B50446FFF7EAFF204668211EF05BFC6B
:10134000204610BD054A02600022C0E90122C0E922
:101350000322C0E90522C261704700BF7C880208F1
:1013600010B50446FFF7EEFF044B23600023C4E9E9
:10137000083384F82830E362204610BD80860208D6
:1013800010B50446FFF7DEFF064B23600122002361
:1013900084F82C20C4E90833A362236384F8343032
:1013A000204610BDD08702082DE9F8430446FFF718
:1013B000C9FF1C4B236000256FF07F43DFF8689066
:1013C00023634FF001084FF080774FF0FF36C4E9F8
:1013D0000855C4E90A55A58604F13800FFF7B2FFA5
:1013E000C4E91655C4E91B76C4F83890256684F81C
:1013F0006480A566A4F8785004F17C00FFF7A2FF92
:10140000C4E92B5784F8A880C4E92755C4F87C9018
:10141000C4F8A450C4F8B460A4F8BC502046BDE899
:10142000F88300BF04F102082C8602082DE9F84376
:1014300005460026FFF786FFC5E90866C5E90A6686
:10144000304BDFF8CC902B602E6305F1340405F5AA
:101450005D774FF0FF382046FFF774FFC4F8009027
:1014600084F82060C4F82C8084F83060C4E90966F0
:101470003434BC42EFD105F2F46620463834FFF72D
:101480007FFFB442F9D105F5975614362046C03493
:10149000FFF78AFFB442F9D1204605F580540026B3
:1014A000FFF750FF184BC4F8F43205F59850C4F814
:1014B00014631830FFF778FF05F59E501830FFF7DA
:1014C00073FF05F5A4501830FFF74AFF05F5A65045
:1014D0000830FFF737FF0D4BC4F8C834C4F8E86490
:1014E000C4F8EC64C4F8F06484F8F464C4F8F864F4
:1014F000C4F8FC640EF030FFC4F800052846BDE8CF
:10150000F88300BF845F020828870208D486020897
:10151000D87D020870B50A2300250446C0E90055AD
:10152000C0E9025503611430FFF70CFF4B4B6361B8
:10153000C4E90D5504F13C00FFF712FF04F16C0003
:10154000FFF700FF464BE36604F18C00FFF718FF3E
:1015500004F1C400FFF7F6FE424BC4F8C4304FF468
:101560007F420123C4E93E234FF00041C4E94053C8
:101570006FF00043C4E942134FF0FF33C4F8103159
:10158000C4E93955C4F8EC5084F8F050C4F8F4506C
:1015900004F58A70FFF7E4FE04F5A270FFF7F0FE91
:1015A00004F5BE70FFF7ECFE2946182204F5DA7048
:1015B00020F0BAFF2946102204F5E67020F0B4FFAF
:1015C00084F8DC510EF0C8FEC4F8E00104F5F270B6
:1015D000FFF7EAFE04F52970FFF7E6FE04F55970FF
:1015E000FFF7E2FE204B93E8070004F2244585E86C
:1015F000070004F5866603F10C023C33106851685D
:10160000354603C508329A422E46F7D104F58C6060
:10161000FFF7CAFE04F5A460FFF7C6FE0EF09CFEBD
:10162000002384F8F03584F80836C4F8E005C4F8DF
:10163000E435C4F8E835C4F8EC35C4F8F435C4F83A
:10164000F835C4F8FC35C4F80036C4F80436C4F8DC
:101650000C36C4F81036204670BD00BF248802083E
:10166000D4860208444E020890480208404B70B5E8
:1016700010220446222140F8043B002312F0ABFA6A
:1016800000230822202104F1240012F0A4FA04F51A
:10169000F7531433002563641423C4E91253354B04
:1016A00084F85050C4E915344FF48063A4F85E30D8
:1016B000022384F8603020462F4B63662F4B84F85A
:1016C0005C504022294640F8683B20F02DFFC4E9D9
:1016D0002A5504F1B000FFF7A9FE04F5AD5014300F
:1016E000FFF762FE04F5B3501430FFF739FE04F53E
:1016F000B5500430FFF744FE04F5B6501C30FFF738
:101700003FFE04F5B8501430FFF73AFE04F5BA5026
:101710000C30FFF749FE04F5C0500C30FFF744FED3
:1017200004F5C65004F580560C30FFF7F3FE032392
:1017300086F8E03E0EF010FEC6F8E40E04F094FFCA
:10174000C6F8E80E03F0E2F9C6F8EC0E08F092F8DD
:1017500086F8085FC6F8F00EC6F8FC5EC6F8005FB3
:10176000C6F8045FC6F80C5FC6F8105F204670BD6F
:101770009CF00208A9390108644D0208F04D0208E6
:1017800010B50A4C2368BFF35B8FDB070CD42046EF
:101790001EF033FA40B10648FFF768FF05481FF016
:1017A0002BFE20461EF035FA014810BDC80400206B
:1017B000CC040020692200082DE9F04F00F5805785
:1017C00085B0D7F8E43EDFF8B490D3F8A4A004467F
:1017D00000F5BA5811F08EFC0368DB689847D7F81B
:1017E000E43ED3F8A02002EBD2725610054611F069
:1017F00081FC0368DB68984708F10C084FF0010B87
:10180000043E05EB450500EB4000AAEB0503494605
:101810000022CDE90060CDF808B0404612F09EFEEF
:101820001CF0E8FA1CF0B8F9002301461A464046BD
:1018300012F0EDFFD7F8E43EB7F95C27D3F8A0101B
:10184000CDF808B0B7F95E37CDE9002304F5C054F0
:101850000C34B7F956378A1A2046494612F07EFEF4
:101860001CF0C8FA1CF098F9002301461A462046DD
:1018700005B0BDE8F04F12F0CABF00BFFE56020827
:10188000034603F5805300F5BA50D3F8EC3E93F8C5
:101890008C33022B0CBF024902490C3012F0B4BE4B
:1018A000704D0208754D020800F58052D2F8EC2EFA
:1018B00092F88C23012A05D121B100F5BA500C30E1
:1018C00012F0A2BEFFF7DCBF00F5805300F5C05058
:1018D000D3F8EC3E93F88C33052B00F10C0002D1C9
:1018E000034912F091BE0BB90249FAE70249F8E741
:1018F000794D02085E5E02087F5B020800F58052A7
:10190000D2F8EC2E92F88C23012A05D121B100F5F2
:10191000C0500C3012F078BEFFF7D6BF70B500F1A2
:1019200064030446002553F8042F8A4218D1D4F8E2
:10193000AC301A3354F8230003681B69984704F14C
:10194000B000C4F8AC50294604F088FDD4F8AC309F
:101950001A3354F823000368BDE87040DB68184769
:101960000135102DDFD170BDD0F8AC301A3370B511
:10197000044650F8230003680D461B69984704F19C
:10198000B000C4F8AC50294604F068FDD4F8AC307F
:101990001A3354F823000368BDE87040DB68184729
:1019A00070B500F5AD5614368E4204460D4613D17F
:1019B00000F58054D4F8EC0E90F86E3343B103F088
:1019C0005FFA0021304612F017FF4FF0000070BDA3
:1019D00003F020FA0121F5E700F1B003994204D1A8
:1019E00090F8DC10FFF7C0FFEFE7D0F8AC301A3307
:1019F00050F8230003689B699847C0B20828E4D1D7
:101A000004F5BA530C339D420CD104F58054D4F83C
:101A1000EC0E90F88C33022B14BF8121822103F04D
:101A2000E9F9D2E704F5C0530C339D42CDD104F55A
:101A30008054D4F8EC0E90F88C33052B02D103F0CF
:101A40007BFEC2E7D0F884232BB980F87033C0F84E
:101A500088231821E3E7002380F87033C0F8882337
:101A60001921DCE7F7B5044600F1B00504F580560E
:101A7000284604F07EFB28221021D6F8E43ECDE96A
:101A8000002100221146D3F8A0300027284604F098
:101A9000FBFCC4F8A87011F07BFA39460346724A81
:101AA000284604F06DFC714AD4F8A810284604F0CA
:101AB000FFFBD4F8A8707B1CC4F8A83002F0B0FC7F
:101AC0001A3744F82700D4F8A87011F061FA3946A3
:101AD000674A0346284604F053FCD4F8A8707B1CE0
:101AE000C4F8A83008F04AFB1A3744F82700D4F8A5
:101AF000A87011F04DFA394603465E4A284604F0B4
:101B00003FFCD4F8A8707B1CC4F8A83001F0B2FEEA
:101B10001A37D6F8EC3E44F8270093F8FD339BB90A
:101B2000D4F8A87011F034FA39460346524A2846D0
:101B300004F026FCD4F8A8707B1CC4F8A8300CF084
:101B4000C3FC1A3744F82700D4F8A87011F020FA23
:101B500039460346494A284604F012FCD4F8A870D6
:101B60007B1CC4F8A8300BF079FE1A37D6F8EC3E8F
:101B700044F8270093F8FD3363BBD4F8A87011F044
:101B800007FA394603463E4A284604F0F9FBD4F8E2
:101B9000A8707B1CC4F8A8300AF00EF81A37D6F8E3
:101BA000EC3E44F8270093F8FD339BB9D4F8A870B5
:101BB00011F0EEF939460346324A284604F0E0FBBC
:101BC000D4F8A8707B1CC4F8A83007F043F91A3782
:101BD00044F82700D6F8EC3E93F8FD33022B13D1DE
:101BE000D4F8A87011F0D4F939460346264A28469D
:101BF00004F0C6FBD4F8A8707B1CC4F8A83005F02C
:101C0000B7F81A3744F82700D4F8A87011F0C0F9D3
:101C100039461E4A0346284604F0B2FBD4F8A870A1
:101C20007B1CC4F8A8300DF027FA1A37D4F8A82086
:101C300044F82700D6F8E43E0192282200920022C0
:101C400011462846D3F8A03004F01EFC002321469C
:101C500028461A4604F0CCFC4FF4FA61284603B03B
:101C6000BDE8F04004F042BA804D02083C0000207C
:101C7000844D02088D4D0208984D0208A54D0208BA
:101C8000B24D0208B84D0208CB4D0208DE4D0208E5
:101C90002DE9F04F054689B005F5805407F0EAFDBF
:101CA00007F010FED4F8E46E07F0E4FD8168003917
:101CB00018BF012130460EF038FC94F8E01ED4F82D
:101CC000E40E0EF078FFD4F8E43E8F4AC3F8982073
:101CD000D3F8A47011F00EFA0368DB689847064643
:101CE00011F056F90368DB689847D4F8E43ED3F85E
:101CF000A0300593824611F04BF902689268904734
:101D0000834611F045F90268D268904706EB460613
:101D10007E4A059B05F5B359023F4FF0060809F1CD
:101D20001409BF1B4000002608FB1B33CDE9012628
:101D30000090A7EB4A024846314610F097F94FF45D
:101D40007A71484611F02EF8D4F8EC0E03F098F8AA
:101D5000D4F8E43ED3F8A0A011F01AF903689B6808
:101D60009847B4F97EB6814611F012F903689B6872
:101D700098470123029305F5AD571437B4F9863619
:101D80006349019308FB00F00AF1FF3208FB1922B6
:101D90005B460090384612F0E1FB32463346384647
:101DA000294612F034FD3846314612F025FD4FF435
:101DB0007A71384610F0F6FFB4F98636B4F97E969B
:101DC00003EBD37309EB630911F0E2F80368DB68F6
:101DD0009847074611F0DCF805F5B5586FF07F4AD3
:101DE00008F1040804224B490190A9EB5703CDF8F0
:101DF00000A0404610F069FBB4F9ACB611F0C8F889
:101E000003689B689847074611F074F903689B685C
:101E10009847B4F982360693079011F06BF9016880
:101E2000C9688847059011F065F9069B079A0599DE
:101E300005F5B65909F11C0907EB87075A44023B1F
:101E40003A445B1ACDE900A03249484610F03DFB08
:101E5000B4F9BC15059111F087F903689B689847A0
:101E6000B4F97EB6824611F07FF905F5B8570599A9
:101E700001901437FF230BF1040B0B2202FB1A1203
:101E80003846244900935B4610F01FFB40F2E931CD
:101E9000404610F087FF40F2EA31484610F082FFDA
:101EA00040F2EB31384610F07DFF2846FFF784FC06
:101EB0002846FFF7D7FD05F16407D5F8A830B342EF
:101EC00017D8A86E03680026DB68C5F8AC60984791
:101ED00005F5F7531C33019343230093D4F8E80E20
:101EE0000D4A2B46294604F03DFC304609B0BDE8BA
:101EF000F08F57F8040FB4F97E260368283A9B68E0
:101F0000282198470136D8E7404040008080800073
:101F1000804D0208FE5602087F120008F8B500F551
:101F200080550446D5F8EC0E90F88C1302F082FE32
:101F3000014604F5B5500022043010F013FCD5F82A
:101F4000EC0E90F8DD1302F07DFE014604F5B6506C
:101F500000221C3010F006FCD5F8EC1E91F8D523B9
:101F600013466FF3861304F5B85081F8D533C2F3E6
:101F70008012143001F2DE3110F0F4FBD5F8EC3EA3
:101F800095F8E82593F8CF3304F5AD501430002AC6
:101F900036D0002B0CBFFF214FF47F4112F077FBAE
:101FA000D5F8EC3E93F8FB23002683F8FB63BAB127
:101FB000D4F8AC301A3304F1640754F823000368F2
:101FC0001B6998472046FFF74DFDD4F8A830B3426F
:101FD0001CD8A06E0023C4F8AC300368DB689847B7
:101FE000D4F8AC301A33142154F8230003685B6929
:101FF0009847D5F8E40E0EF094FA4FF00000F8BDC3
:10200000002B0CBF6FF07F41FF21C7E757F8040F8B
:10201000B5F97E260368283A9B682821984701363F
:10202000D3E7000010B5034B0360044610F0DEFE5A
:10203000204610BDD087020810B50446FFF7F2FF16
:10204000204638211DF0D7FD204610BD38B5094B7C
:10205000094D0360044640F87C5F10F0C7FE20463F
:1020600040F8385F10F0C2FE204610F0BFFE204658
:1020700038BD00BF04F102082C86020810B50446E2
:10208000FFF7E4FF2046C0211DF0B5FD204610BD3E
:102090000A4B10B5044640F8B83BFFF7C3FF04F104
:1020A0008000FFF7BFFF2046054B40F8503F10F07F
:1020B0009DFE204610F09AFE204610BD444E0208B8
:1020C0008086020838B5044600F5A460FFF7BEFF1D
:1020D00004F58C60FFF7BAFF4FF459756359601926
:1020E0001B68C03D9847B5F5927FF7D104F1C40055
:1020F000FFF7CEFF04F18C00FFF794FF2046094B59
:1021000040F86C3F10F072FE2046074B40F83C3F11
:1021100010F06CFE2046054B40F8143F10F066FEB0
:10212000204638BDD486020880860208248802082A
:1021300010B50446FFF7ACFF20464FF490711DF038
:102140005AFD204610BD000070B5244B036000F519
:1021500080550446224BC5F8C83400F5A650083017
:1021600010F044FE1F4BC5F8983404F5A450183005
:1021700010F03CFE04F59E501830FFF767FF04F5A1
:1021800098501830FFF762FF174BC5F8F43204F58A
:102190009750143010F02AFE41F2342540F2346694
:1021A000635960191B68C03D9847B542F8D140F2A9
:1021B000BC65635960191B68383D9847B5F54F7F7A
:1021C000F7D14FF45075635960191B689847343D37
:1021D000F9D1204610F00AFE204670BD845F020847
:1021E000D486020880860208288702081C4B10B596
:1021F0000446036000F5C6500C30FFF763FF04F59A
:10220000C0500C30FFF722FF04F5BA500C30FFF736
:102210001DFF04F5B8501430FFF704FF04F5B65065
:102220001C30FFF7FFFE04F5B5500430FFF7FAFE4F
:1022300004F580530B4AC3F8742604F5B3501430E8
:1022400010F0D4FD04F5AD501430FFF7FFFE04F19B
:10225000B000FFF779FF2046FFF758F8204610BD81
:10226000F04D02088086020808B50248FFF7BEFF5D
:1022700008BD00BFCC04002010B50446FFF7B6FF30
:10228000204641F614711DF0B6FC204610BD10B575
:102290000446FFF759FF204641F204511DF0ABFC04
:1022A000204610BD08B558B109B9002008BD026923
:1022B000D0F81031C43001FB023100F004FCF4E727
:1022C0000120F3E708B51BF095FDBDE808401BF0C1
:1022D00063BCC0E900128360704701694B1E10B5F2
:1022E00059420446594100F5F27012F085FA21690D
:1022F000A1F10A025142514104F5297012F07CFA11
:102300002169A1F164004142414104F55970BDE8E1
:10231000104012F071BA32B90120704748430133BE
:102320009342FBD1704708460123F9E737B50446CD
:102330000D466C3010F036FD691C04F1140010F0ED
:1023400031FDA91C04F58C6010F02CFDE91C04F58E
:10235000A46010F027FD04F087F90546FFF7B2FFEF
:1023600004F2E45301460D4A00932846234604F044
:1023700028FA04F079F90546FFF7A4FF04F2FC53AC
:1023800001930323014600932846054A234604F09F
:10239000E9F94FF0000003B030BD00BFA5220008EE
:1023A0002B2700082DE9F04F89B0C94D05921E4634
:1023B0002B68DFF830B3BFF35B8F13F0010F0446D7
:1023C0000F460CD128461DF018FC40B1D4F8E0357A
:1023D0002846D3F8A030CBF800301DF01AFC10F0DE
:1023E000D7FD6FF07F4304F18C05009300231A465C
:1023F00039460190284610F068F828469DF8541098
:1024000010F077F9B4F99C30DBF80010C91A0822F3
:1024100000234908284604F1140A10F001FD514632
:10242000284610F043FD0121284610F0BBFCDBF8E4
:102430000030B4F99A70A3F1100810F05BFE036845
:10244000DB689847149B029304F1C40508370D23F9
:1024500000EB80003A46019300904346284608214D
:1024600000F07AFA4FF47F420421284600F01EFB68
:1024700010F040FE02220146284600F02EFCDDE965
:102480001212284600F05EFB3146284600F01BFB86
:1024900010F030FE0027034605222846059900F07B
:1024A00032FC5146284684F8D97010F0FFFC2846CB
:1024B000012110F077FC04F58463049304F5866829
:1024C00004F5F275B4F9D4900323A9F10809B9FB16
:1024D000F3F902F01BFB149A06460A212046FFF787
:1024E0001AFF049A009052F8043F049241461022C9
:1024F000304602F00BFD4046FDF77CFE059B754A19
:10250000C0F1100140441FF045FFB4F9CC2009F19F
:10251000040307FB0322B4F9D23007920833069371
:1025200010F0E8FD0168C9688847012600EB8000CB
:10253000DDE906324146CDE900900296284612F0C8
:102540000DF8FFF7BFFE644A23460146284612F005
:102550005EF92846002112F04FF92846032112F0B7
:10256000DEF85146284610F0A1FC2B6828469B68EF
:10257000314637449847032F08F1100805F1C0058C
:10258000A0D1149A022A28BF02220A212046FFF76E
:10259000C2FE2061C02000FB02400025314600F54C
:1025A000F27012F029F902960195B4F9F23108336C
:1025B00004F13C070093DBF800302A4629463846F0
:1025C0000FF054FD384604210FF0A4FD38464FF6B5
:1025D000FF710FF0AFFD294638460FF0BEFD5146A2
:1025E000384610F063FC2946384610F0DBFBD4F87F
:1025F000E025B4F94E30D2F8A4200093D21A02EBB1
:10260000D272DBF8003032412946504610F0F6FA1B
:10261000D4F8E035D3F8A420009229462A4604F1E4
:102620006C00D3F8A0300FF0A8FDD4F8E03584F8A2
:102630008160D3F8A4A010F05DFD0368DB689847C3
:10264000D4F8E035D3F8A02002EBD27242FA06F7B4
:10265000814610F04FFD0368DB68984704F58C68ED
:10266000043F09EB490900EB4000CDE90070AAEBFB
:1026700009032A4619490296404611F06FFFFFF7F9
:1026800021FE23460146144A404612F0C0F8D4F811
:10269000E035B4F97024D3F8A0100296B4F972347E
:1026A000CDE9002304F5A467B4F96A348A1A3846E0
:1026B0000B4911F053FFFFF705FE074A0146234679
:1026C000384612F0A4F8284609B0BDE8F08F00BFE4
:1026D000E0230020144E02082B270008184E0208A1
:1026E0001B4E0208E423002010B5044603F0BCFF93
:1026F00004F2E45104F07DF803F0B6FF04F2FC515B
:1027000004F04BF804F1140010F063FB04F16C00CA
:1027100010F05FFB04F58C6010F05BFB04F5A46027
:1027200010F057FB4FF0000010BD2DE9F0410446BA
:10273000002867D000F58C678F4216D1FFF7D4FFD1
:10274000206858B10368D4E901125D682346A847A0
:102750002046FFF7C2FD0020BDE8F0816368002B32
:10276000F6D0A06821469847F2E700F5A4658D42AF
:1027700002D1FFF7B9FFEBE700F5F273994202D1FE
:1027800001232361E4E700F52973994201D10A236B
:10279000F7E700F55973994201D16423F1E791F805
:1027A00000804E78B8F1000F17D13C3046B14FF49D
:1027B0007F410FF0BFFC0121384612F01DF8C7E73A
:1027C0004FF47F010FF0B6FC3146384612F014F892
:1027D00039462046FFF7A9FFBAE7B8F1010FB7D194
:1027E0003C302EB1FF210FF0A5FC41462846E4E71E
:1027F0004FF47F010FF09EFC3146284611F0FCFF9C
:102800002946E6E70120A7E7B0F908007047B0F9CC
:102810000A007047B0F90C007047B0F90E0070471D
:10282000B0F910007047B0F912007047407D704752
:10283000417570472DE9F341089E04461D46B0F9E5
:102840000A30B0F90800301A0090EB1A04F1500079
:1028500090460F460FF077F9B4F90820B4F90A3022
:10286000B21A0092EB1A4246394604F1B8000FF052
:10287000BEFD94F818317BB1B4F90820B4F90A30E0
:10288000B61AEB1A4246394604F18000089602B0A7
:10289000BDE8F0410FF0ABBD02B0BDE8F0812DE91D
:1028A000F341089E04461D46B0F90830B0F90A000D
:1028B000301A0090EB1A04F1500090460F460FF0CA
:1028C00097F9B4F90A20B4F90830B21A0092EB1A59
:1028D0004246394604F1B8000FF029FD94F818314A
:1028E0007BB1B4F90A20B4F90830B61AEB1A4246A3
:1028F000394604F18000089602B0BDE8F0410FF0BF
:1029000016BD02B0BDE8F08170B5044605291AD89D
:10291000DFE801F0030F191903170B4904F1500008
:102920000FF01BFC236820469B6CBDE87040002123
:102930001847006A28B10368D4E909125D68234684
:10294000A8470021EAE770BD8080800010B10368CD
:102950009B681847704700002DE9FF470C9E0181D6
:102960001F464FF0FF33C364FB181944731E0E9DBE
:1029700042811A440D9B81815B1BC281C0E90E35E7
:10298000044607824682012200210A208D4256DC3D
:10299000226404F58470002D54D02D4A0095102136
:1029A0001FF0F8FC002501232A462946CDE90153F2
:1029B00000963B4604F150000FF058FB10F09AFBD4
:1029C00004F1B8086FF07F4704F1F00101902B4645
:1029D0002A46404600970FF078FDD4E90E3203EB0B
:1029E0000209D4F8E800B4F910A009F10109AA42DB
:1029F00018BF09F10109FFF7A9FFB4F9CA305FFA5E
:102A000089F9F61A00FB19A106EBD6762B4672104F
:102A10004908404610F004FA10F06CFB2B46CDE953
:102A200000700C4904F180002A460FF04EFD236827
:102A30009B6C2946204604B0BDE8F0471847424346
:102A40000131A3E7044A10211FF0A4FCAAE700BF4C
:102A5000224E0208FE560208334E0208C36F994206
:102A600010B5044609D050300FF054FB23682046BF
:102A70009B6CBDE810400021184710BD10B5036FD6
:102A8000C0E90C12044690F82C00002818BF11462B
:102A900099420AD004F150000FF04CFB2368204605
:102AA0009B6CBDE810400021184710BD38B5154695
:102AB0000446FFF7D3FF294620464FF47F42BDE886
:102AC0003840FFF7DBBF436C99420A46B8BF1A464D
:102AD000836C9A42A8BF1A46C36C934273B50446EE
:102AE0002ED0C264E56BB83004F1F00104F58473B4
:102AF0005DB9009218220FF062FE236820469B6C9D
:102B000000219847012002B070BD266C92FBF6F5BB
:102B100006FB1522002AB8BF5242CDE90052182206
:102B20000FF04DFEE36C002BE7DA226C93FBF2F31F
:102B3000002BE2D1A36B23442D2283F8EE20DCE7A7
:102B40000020E0E7C0E91112C16CFFF7BCBF90F8AC
:102B50001831022B2DE9F041044600F08580D0E9C0
:102B60000E72013B1744B0F91050002A18BF01370C
:102B700000F1B806042B00F29D80DFE803F02F9BE4
:102B800003527C00D0F8E800FFF7E0FEB4F9CA3049
:102B9000B4F91220D21AB4F99030A91EC91A94F8C7
:102BA000E4307B4300FB131102EBD272304600236A
:102BB0005210490810F034F9B4F9C450D4F8B000F8
:102BC000B4F9C67004F18006023510B10368DB6801
:102BD000984700233A1A2946304643E0B0F9CA30F4
:102BE000B0F91220B0F99010D21AB0F99230D21A7E
:102BF000691A02EBD272002352104908803010F09B
:102C00000FF9D4F8E800B4F91050FFF79FFE94F8DC
:102C1000E430B4F98E207B4300FB135100234908B4
:102C2000DAE7D0F8E800FFF791FEB4F9CA30B4F95A
:102C3000122094F8E410D21A794300FB115102EBF0
:102C4000D272002352104908304610F0E9F8B4F966
:102C50009030B4F91010B4F9C620C91A49080023FD
:102C600004F1800010F0DCF8236820469B6CBDE87E
:102C7000F04100211847D0F8E800FFF767FEB4F9EB
:102C8000CA30B4F9122094F8E410D21A794300FB48
:102C9000115102EBD272002352104908304610F055
:102CA000BFF8B4F9C400B4F99010B4F9C6200023F9
:102CB000411AD5E7D0F8E800FFF748FEB4F9CA306A
:102CC000B4F91220D21A94F8E43002EBD2727B43AA
:102CD00000FB135152100023A1E770B500F1B806B4
:102CE0000446154630460FF0C9FCE9B230460FF0F5
:102CF00000FD2046FFF72BFF236820469B6CBDE8B4
:102D000070400021184770B500F1800604460D465A
:102D100080F81821194630460FF0B0FC294630469D
:102D200000220FF01FFD2046FFF711FF2368204609
:102D30009B6CBDE870400021184790F82C308B4206
:102D400010B5044611D0D0E90C2380F82C100029CE
:102D50000CBF1146194650300FF0ECF9236820469D
:102D60009B6CBDE810400021184710BDC0E9081257
:102D70008362704710B5C8B109B9002010BD03794E
:102D8000022B0DD84FF490725343C2188468D2F8C6
:102D90000421B83301FB04211844FFF794FEECE74B
:102DA000D0F85C3B00F531601944F6E70120E5E717
:102DB00070B5044603F058FC04F6F86103F019FD01
:102DC00004F1B80510262B682846DB689847D5F82B
:102DD000603305F55870DB689847D5F8C03605F5BF
:102DE000D860DB689847A359A019DB683836984744
:102DF000B82E05F59075E6D14FF443656359601917
:102E0000DB68C0359847B5F5676FF7D104F53160D9
:102E10000FF0DFFF04F6D8200FF0DBFF04F56B6046
:102E20000FF0D7FFD4F8E80E0368DB689847D4F8B2
:102E3000EC0E0368DB6898474FF0000070BD00009F
:102E400073B5044600F1B80510262B6864219B6811
:102E500028469847D5F8603364219B6805F558707B
:102E60009847D5F8C03664219B6805F5D860984727
:102E7000A359A0199B68642138369847B82E05F5E8
:102E80009075E2D14FF44365635960199B686521E1
:102E9000C0359847B5F5676FF6D1642104F5316008
:102EA0000FF080FF642104F6D8200FF07BFF65212E
:102EB00004F56B600FF076FFD4F8E80E0368662126
:102EC0009B689847D4F8EC0E036866219B68984786
:102ED00003F0CAFB0546FFF7F5F904F6F86301466F
:102EE00000932846034A234603F06BFC4FF0000092
:102EF00002B070BD752D00082DE9F04F8DB08346EE
:102F00000D4610F0F7F80368DB68984700EB800384
:102F10000593043B5B080893059B083309932B1D1D
:102F20005C4606935F464FF0000ADBF8F42EDBF8B0
:102F3000F03E92F8FC23D3F8A010A94E002A14BF4B
:102F400004220322A1F108030292072204F1B8052A
:102F5000019203EBD373059A00925B10069A062048
:102F600091FBF0F12846FFF7F7FCFF2204212846E9
:102F7000FFF79CFD10F0BEF8022201462846FFF73D
:102F8000ACFE5FFA8AF31946DBF8F40E079301F002
:102F90008AFE01462846FFF796FDDBF8F43E914A8B
:102FA00093F8FC33002B08BF164610F0A3F8314607
:102FB000034605222846FFF7A6FEFFF783F9002304
:102FC0001A4601462846FFF7D1FED4F8B830012151
:102FD00028465B6C9847D4F8B83028461B6B984756
:102FE000D4F8B83000F10408DB6A28469847DBF8CB
:102FF000F03ED3F8A020D4F8B8300A9281461B6B7B
:10300000284698470A9A131ADBF8F42E92F8FC2304
:103010000721002A14BF0422032204F583660191CC
:1030200008990292083B4A46304600914146FFF714
:1030300093FC6D4A02213046FFF738FD10F05AF834
:10304000012201463046FFF748FE00213046FFF7D7
:103050003AFDDBF8F43E634A93F8FC336049002BF9
:1030600008BF1146884610F009F84146032203467E
:103070003046FFF748FED4F8183430469B6A98472C
:10308000D4F8B8300B905B6B28469847D4F81834C6
:103090008146DB6B30469847D4F81834A9EB000919
:1030A0009B6B30469847D4F818240A90D26B304670
:1030B0009047DBF8F42E0B9992F8FC23484E002A37
:1030C00014BF0422032204F5EF680723CDE90003AF
:1030D00002920A9B4A464046FFF73EFC424A0221C2
:1030E0004046FFF7E3FC10F005F801220146404698
:1030F000FFF7F3FD00214046FFF7E5FCDBF8F43E67
:10310000384A93F8FC33002B08BF16460FF0B6FF81
:103110000322034631464046FFF7F5FD0799DBF8E9
:10312000F40E01F07FFD80460FF032FF6FF07F4319
:1031300007F11006009300231A46414601903046DD
:103140000FF0C3F9022130460FF0D3FA3B699B69B7
:103150000793D4F8B83028469B6A98473B69814664
:103160009B6B3046984700EBD07009EBD9734FEA60
:103170006009C9EB6309D4F8B8302846DB6A984780
:10318000D4F8B8308046DB6B284698473B6900EBA3
:10319000D07008EB6005DB6B3046984700EBD070D1
:1031A000A5EB60020023079D49463046A847069BD1
:1031B000099A0AF1010A1344BAF1030F04F5907455
:1031C00007F1380706937FF4B0AE0BF53E730BF5AD
:1031D00067690BF68B680BF543650027079305E0DD
:1031E000904E0208FA55020880808000DBF8F43E19
:1031F000079893F8FC33002B14BF41464946DBF88F
:10320000F03E0891D3F8A04094FBFAF47C43231DD0
:103210000693DBF8F8325B6B9847DBF8F02E044638
:10322000D2F8A06096FBFAF60FF064FF0268D2684D
:103230009047083E012300EB8000069A089902930C
:10324000CDE9006004F10803284611F087F9FFF783
:1032500039F8002301461A46284611F0D8FA0137FA
:103260002846032111F05BFA032F09F1090908F13F
:103270000C0805F1C005B9D1DBF8F03EBBF93E2CD6
:10328000D3F8A01005980090A1F108030BF5316563
:103290000024042603EBD37301EBD1715B10CDE95D
:1032A0000164284608324910FFF756FB3146FF22D9
:1032B0002846FFF7FBFB0FF01DFF022201462846C0
:1032C000FFF70BFD42F2107228460121FFF73AFC8E
:1032D0004FF496712846FFF7F6FBDBF8F43E344EC8
:1032E00093F8FC23334BA24208BF1E460FF002FFA7
:1032F0003146034605222846FFF705FDFEF7E2FFAB
:1033000001270146234622462846FFF72FFD8BF86A
:10331000257B0FF03DFE0BF6D8256FF07F46234648
:10332000224601902449009628460FF0CEF8284600
:1033300002210FF0DEF9BBF9223BBBF91A0BBBF9F6
:10334000201B03EBD37300EB6300BBF9EA3A03EBFA
:10335000D372DBF8F03ED3F8A03003EBD373C1EBAC
:10336000630101EBD171A0EB62022346394128468B
:103370000FF056FD0A23CBF8083039460BF54F60A5
:1033800011F03AFABBF9C050BBF9C2700FF0B2FEAF
:1033900008350837CDE9006008490BF56B603B46FE
:1033A0002A460FF092F820460DB0BDE8F08F00BF1E
:1033B0009C4E0208954E0208A74E0208FE560208CF
:1033C00038B50446FDF7BEFF1F4B236000254FF4C0
:1033D0007F420123C4E90D234FF00041C4E90F539C
:1033E0006FF00043C4E911134FF0FF33E364C4E905
:1033F0000855A56284F82C50256304F15000FDF7B0
:10340000A1FF124B2365C4E91C5584F87850E56789
:1034100004F18000FDF7B4FF04F1B800FDF7B0FF40
:103420002946182204F1F0001FF07EF810222946E8
:1034300004F584701FF078F884F818510CF08CFFB4
:10344000C4F81C01204638BD444E0208808602089C
:10345000017902292DE9F04198BF0021044688BF77
:10346000012100F53160FFF768FC04F1B806002582
:103470004FF6FF77E9B2D4F8F40ED6F84C8001F09D
:1034800012FC4FF47F42404514BF3946FF213046BD
:10349000FFF7F4FA2179A1EB050CDCF1000141EB17
:1034A0000C0130460135FFF748FC032D06F59076F8
:1034B000E0D1A1684B1E5942594104F5436011F017
:1034C0009BF9A168A1F10A025142514104F54F60F4
:1034D00011F092F9A168A1F164004142414104F563
:1034E0005B60BDE8F04111F087B900002DE9F041C3
:1034F000D0F8F43E93F8FD23022A044600F56B60F1
:1035000048D193F8D0532F492F4B0022954218BF32
:1035100019460FF027F901F0F9FA237B90F88C6334
:10352000B34202D0032B38D02673FEF729F927497E
:10353000FEF7BAF9FEF724F92549FEF7DFF900276F
:103540002646B846F9B2D4F8F40E01F0ACFB0146B9
:1035500006F58360FFF7B7FAD6F80411D6F864349D
:103560000546C91A06F5EF60FFF7ADFA01370543C6
:1035700048EA0505032F5FFA85F806F59076E1D154
:10358000B8F1000F02D02046FFF762FF4FF00000B5
:10359000BDE8F0810F490022BBE7012EC4D104F140
:1035A000B8070025E9B2D4F8F40E01F07CFB013530
:1035B00001463846FFF787FA032D07F59077F1D1DA
:1035C000B2E700BFAD4E0208FA6C0208B44E020822
:1035D000B84E0208FE56020800F54363994273B5DF
:1035E000044608D10123A36000252046FFF730FFE1
:1035F000284602B070BD00F54F63994201D10A23FD
:10360000F1E700F55B63994201D16423EBE7D0F861
:10361000E83E8B4214D1D0F8F40E90F88C33012B95
:1036200046D10193D4F85C3B642253430093D4F811
:103630004433D4F82422D4F8041102F001FAD3E779
:10364000D0F8EC3E8B421AD1D0F8F43E93F88C338C
:10365000012B2DD100F1B806002596F82C3043B18E
:10366000E9B2D4F8F40E01F01EFB01463046FFF734
:103670002AFA0135032D06F59076EED1B4E700F570
:10368000316399420DD000F1B80399420CD000F596
:10369000EC7399420AD000F53E739942A4D10223FB
:1036A00000E0032323719FE70023FBE70123F9E7F1
:1036B00008259AE72DE9F84F694B0360032303714E
:1036C00000260A230546836006731030FDF758FE76
:1036D00005F14800FDF754FE05F18000FDF750FEAE
:1036E00005F1B800FFF76CFE05F5EC70FFF768FE1A
:1036F00005F53E70FFF764FE05F58360FFF760FE99
:1037000005F5A760FFF75CFE05F5CB60FFF758FEF7
:1037100005F5EF60FFF754FE05F69800FFF750FE41
:1037200005F6B810FFF74CFE05F6D820FDF728FE89
:1037300005F53160FFF744FEDFF830B1DFF8309176
:1037400005F5436405F5676A2046FDF7FBFD6FF05C
:103750007F4323630127C4F800B084F8346084F801
:103760003560C4E90866C4E90A6604F138004FF020
:10377000FF38FDF7E7FDC4F83890266684F86470DA
:10378000A66684F86C6084F86D6084F86E6084F8D6
:103790006F70C4F87080A4F87860C4E9166604F10C
:1037A0007C00FDF7CFFDC4F87C90C4F8A46084F8D9
:1037B000A870C4F8AC6084F8B06084F8B16084F894
:1037C000B26084F8B370C4F8B480A4F8BC60C4E9F3
:1037D0002766C0345445B7D1224B03F11806186848
:1037E0005968224603C20833B3421446F7D11A88F7
:1037F0009B78A3701C4B228003F1240105F68B6299
:1038000053F8040B42F8040B8B42F9D105F56B60B9
:10381000FDF7B6FDFDF7B4FF00F5BA500C30C5F862
:10382000E80EFDF7ADFF00F5C0500C30C5F8EC0E0A
:103830000CF092FDC5F8F00E01F068F9002385F850
:10384000043FC5F8F40EC5F8F83EC5F8FC3EC5F8CF
:10385000003FC5F8083FC5F80C3F2846BDE8F88F83
:10386000C84E0208CC480208E748020804F10208E2
:103870002C86020810B50A4C2368BFF35B8FDB0768
:103880000CD420461CF0B9F940B10648FFF712FFEE
:1038900005481DF0B1FD20461CF0BBF9014810BDE4
:1038A000E8230020EC2300204539000870B5234BA5
:1038B000234E0360C0F8B06E044600F56B600FF055
:1038C00095FA4FF45B65635960191B68C03D9847D2
:1038D000B5F5376FF7D104F53160FEF7D9FBC4F8C1
:1038E000D86A04F6D8200FF081FA40F6B81563596B
:1038F00060191B68A5F590759847B5F5CB6FF6D1A3
:10390000635960191B68A5F590759847B5F53E7F1A
:10391000F6D1635960191B68A5F59075984715F1A4
:10392000680FF6D18025635960191B68383D9847A8
:1039300015F1280FF7D1204670BD00BFC84E020810
:10394000D087020808B50248FFF7B0FF08BD00BFE6
:10395000EC23002010B50446FFF7A8FF20464FF4E3
:1039600071611CF048F9204610BD58B190F84830FC
:10397000022B01D90020704700EB8300C36B194470
:10398000C163F7E701207047F8B5044602F06CFE0A
:1039900004F6E83102F02DFF201D0FF01AFAD4F8DA
:1039A000D80BFEF7A1FE04F1500704F58B66F8254D
:1039B00063596019DB6898473B683846DB6898476D
:1039C00033683046DB6805F590759847B5F58B6F21
:1039D00007F1380706F1C006EAD14FF4F2656359E2
:1039E0006019DB68C0359847B5F5296FF7D104F544
:1039F000D3600FF0EEF904F5EB600FF0EAF904F58F
:103A000031600FF0E6F9D4F8D00B0368DB68984713
:103A1000D4F8D40B0368DB6898474FF00000F8BD7A
:103A20002DE9F347D0F8E03B93F8FD23022A044642
:103A30000BD193F8D0034C494C4B0022904218BF55
:103A4000194604F5EB600EF08DFEFDF799FEFDF7CB
:103A500017FFFDF795FEFDF737FF04F1F806002587
:103A6000E9B2D4F8E00B01F01EF901350146304609
:103A7000FFF729F8032D06F59076F1D1E56B002DBF
:103A80005DD1256C002D5CD1656C2DB30226E36CF5
:103A90005D4302F0E9FDD0F88C30E26C142B38BFA6
:103AA000142353433C2253430A22B3FBF2F336B9A7
:103AB000D4F8E02B92F8FD23022A08BF6D420027BC
:103AC00000972A463146D4F8E00B01F001FF0E368C
:103AD00004EB8606C5B27760D4F8E03B93F8CF33A9
:103AE00004F5316A04F5D36904F58B6804F5A3671E
:103AF00004F5BB663BBB05F0BDFE0379032B22D06A
:103B0000D4F8E03B93F88C3303F0FD03012B1AD07B
:103B1000D4F8D80BFEF7E8FD504610F051FE4846A9
:103B200010F04EFE404610F04BFE384610F048FEB6
:103B3000304610F045FE284602B0BDE8F08700266A
:103B4000A5E70126A3E7504610F01EFE484610F0F8
:103B50001BFE404610F018FE384610F015FE3046A9
:103B600010F012FEE7E700BFAD4E0208FA6C020843
:103B70002DE9F04F8DB0044608910A920FF0BAFA81
:103B80000368DB68984700EB8003079308330993C9
:103B9000089B0433CDE90543264604F58B6A4FF0B4
:103BA0000009D4F8E02BD4F8DC3B92F8FC23D3F8DE
:103BB000A000002A14BF042203220292072206F169
:103BC000F805A0F108030192079A00920621069ACF
:103BD0009B0093FBF1F390FBF1F12846FEF7BCFE4E
:103BE000FF2204212846FEF761FF0FF083FA02222C
:103BF00001462846FFF771F800212846FEF763FFCB
:103C0000D4F8E03BC04993F8FC23C04B002A08BF1E
:103C1000194688460FF06EFA4146034603222846AD
:103C2000FFF771F8FEF74EFB00231A4601462846BF
:103C3000FFF79CF8D6F8F83028465B6C01219847CE
:103C4000059BD4F8E00B5FFA89F103F1500800F00E
:103C5000E9FF83460FF09CF96FF07F430093002348
:103C60001A465946019040460EF02FFC022140466C
:103C70000EF03FFD059B1B6D9B691F46D6F8F83083
:103C800028469B6A9847059B1A6D8346926B40466F
:103C9000904700EBD0700BEBDB734110C1EB63017D
:103CA000D6F8F8300B91DB6A28469847D6F8F8200A
:103CB0008346D26B28469047059B1B6D00EBD07066
:103CC0000BEB600BDB6B4046984700EBD070ABEB27
:103CD00060020B9900234046B847D6F8F8302846D2
:103CE0001B6B9847D6F8F8308346DB6A284698471E
:103CF000D4F8DC3BD3F8A020D6F8F8300B921B6B3D
:103D0000074628469847D6F8F8108046C96B2846DB
:103D100088470B9A7E49A2EB08080125A8F1080301
:103D20000BF10402CDE90105009350463B4610F02B
:103D300015FCFEF7C7FA00231A460146504610F05C
:103D400066FD059B099A38330593069BA9441344E5
:103D5000B9F1030F06F590760AF1C00A06937FF4D5
:103D600020AF04F54E7304F5296904F5F2674FF0AE
:103D700000080593D4F8DC3BD3F8A060D4F8E03B0E
:103D800093F8FC33143EB608002B40F0B780CB46C6
:103D9000D4F8383305985B6B984782460FF0AAF940
:103DA0000268D2689047321D08FB02F200EB8000E7
:103DB0000AF1080304325946CDE9006002953846FD
:103DC00010F0CCFBFEF77EFA002301461A46384677
:103DD00010F01DFD08F101083846032110F09FFC8A
:103DE000B8F1040F09F10C0907F1C007C2D1012194
:103DF00004F5116010F000FDD4F8E03B93F8FC33BB
:103E0000002B7ED1D4F8F83AE3644FF00108CDF8E6
:103E10000880B4F90A310193B4F900313D49083BF7
:103E200004F5D3650093B4F902310422284610F05A
:103E300095FBFEF747FA002301461A46284610F084
:103E4000E6FCB4F90051B4F902710FF053F96FF0C8
:103E50007F46083508372A462E4901903B4604F52F
:103E6000EB6000960EF031FB0FF044F90368DB685D
:103E70009847D4F8DC3BD3F8A0300546A3F10809F5
:103E80000FF038F90368DB6898470A9B089A2249C3
:103E9000CDF808801A4404F53167043A05EB85052E
:103EA00000EB8000531BCDE900900422384610F04F
:103EB00055FBFEF707FA002301461A46384610F074
:103EC000A6FCB4F99E87B4F91A5B0FF013F90368E6
:103ED000DB68984707460FF00DF9A5EB08050422AB
:103EE000ED1BCDE900600D49A01808EB55030EF05D
:103EF000ECFA4FF000000DB0BDE8F08F09F1300B87
:103F000046E7D4F8083B7FE7904E0208FA550208CE
:103F1000E44E0208FE560208E84E0208204F02084E
:103F2000F7B50446012104300EF03CFF04F15007C0
:103F300004F58B66F825635964219B6860199847DE
:103F40003B6864219B6838469847336830469B68D5
:103F5000642105F590759847B5F58B6F07F1380723
:103F600006F1C006E7D14FF4F265635960199B680A
:103F70006421C0359847B5F5296FF6D1032384F83D
:103F80004830002104F1F800FEF7D7FE002104F5C7
:103F90000670FEF7D2FE002104F54E70FEF7CDFE4E
:103FA000D4F8E03B93F8FD33022B09D1652104F5E9
:103FB000EB600EF0F7FE632104F5D3600EF0F2FE25
:103FC000662104F531600EF0EDFED4F8D00B0368E5
:103FD00066219B689847D4F8D40B036866219B68D8
:103FE000984702F041FB0546FEF76CF904F6E8330A
:103FF000014600932846044A234602F0E2FB4FF0B4
:10400000000003B0F0BD00BF6B39000810B50021FF
:10401000044600F5F26010F0EFFB04F505600021A6
:1040200010F0EAFB04F51160002110F0E5FB04F547
:104030001D600021BDE8104010F0DEBBF0B5D0F8E7
:10404000D03B8B4285B004460D4600F0EF80D0F89F
:10405000D43B8B4200F0EA8000F5D36399420CD147
:10406000D0F8E00B90F8D03323B101F01DFC002014
:1040700005B0F0BD01F022FCF9E700F5316088429F
:104080002AD194F8443B04F58B6704F5A36604F544
:10409000BB65A3B9D4F8E03B93F88C1301290ED18A
:1040A00010F0AAFB6249384610F0AEFA604930467B
:1040B00010F0AAFA5E49284610F0A6FAD7E70021C8
:1040C00010F09AFB5B49384610F09EFA5949304689
:1040D00010F09AFA5749EEE7D4F8D87B8F4219D0FE
:1040E00004F5F266B1421DD004F50566B1422CD04C
:1040F00004F51166B1422AD004F51D66B14228D0FC
:1041000004F1F800814240D004F58B6399427AD1E2
:1041100000253DE0D7F81021397BD4F8E00B01F001
:10412000D3FDA4E700252046FFF770FF01213046AC
:1041300010F062FBD4F8E03B93F8FC335BB905F573
:104140002F7554F82530E36491E70125EBE702254C
:10415000E9E70325E7E705F53075F2E701260021D9
:10416000FEF7EBFD002104F50670FEF7E6FD0021E9
:1041700004F54E70FEF7E1FD01212846FEF7DDFD56
:1041800084F8486073E70226E9E70026E7E701259F
:1041900094F8443BD4F8E00BE9B213B901F068FDA0
:1041A00065E700F03FFDD4F8E03B93F8FC33002BCB
:1041B0004FF4907303FB054314BF0422032201460E
:1041C0004FF00200D3F84431CDE902201A4A1B48CF
:1041D000CDE900201A481B4A08BF02463846FEF7C0
:1041E000E1F8D4F8D86BFEF76DF8002301461A46C3
:1041F0003046FEF76EF8D4F8D80B42F21071C56065
:10420000FEF794F833E704F506739942A6D004F557
:10421000A3639942BBD004F54E739942B3D004F521
:10422000BB6399427FF423AF0225B1E708201FE763
:10423000C3730208E44E0208806967FF8096980005
:10424000FA550208904E02082DE9F8436E4BDFF84C
:10425000C891DFF8C881044640F8043BFDF790F8A8
:104260000323002684F848300123E364C4E90F6681
:10427000666404F15000FDF783F804F18800FDF74F
:104280007FF804F1C000FDF77BF804F1F80504F5B0
:104290008B672846FDF756F84FF47F420123C5E9A6
:1042A0000D234FF00041C5E90F636FF00043C5E9EE
:1042B00011134FF0FF33EB64AE6285F82C602E6370
:1042C000C5E90866C5F8009005F15000FDF73AF819
:1042D000C5F8508085F87860EE67C5E91C6605F181
:1042E0008000FDF74DF805F1B800FDF749F81822F8
:1042F000002105F1F0001EF017F91022002105F54C
:1043000084701EF011F985F818610CF025F805F598
:10431000907545F8040CAF42BBD13846FDF744F820
:1043200004F5A360FDF740F804F5BB60FDF73CF829
:1043300004F5D360FDF738F804F5EB60FDF720F8DD
:1043400004F5F26604F529653046C036FDF72CF811
:10435000B542F9D12D4B2A4603F130061868596849
:10436000154603C50833B3422A46F7D1284B03F15B
:10437000300704F52C663A4618685968354603C577
:104380000833BB422E46F7D10FCA04F52F6585E8E6
:104390000F00204B0FCB04F5306585E80F0004F5C6
:1043A0003160FDF701F8FDF7EBF900F5BA500C307C
:1043B000C4F8D00BFDF7E4F900F5C0500C30C4F898
:1043C000D40BFDF7DDF900F5C6500C30C4F8D80B5E
:1043D0000BF0C2FFC4F8DC0B00F098FBC4F8E00B54
:1043E00005F048FA002384F8F43BC4F8E40BC4F861
:1043F000E83BC4F8EC3BC4F8F03BC4F8F83BC4F825
:10440000FC3B2046BDE8F883044F02080C49020833
:104410003C4902087C490208444E02088086020892
:1044200010B50A4C2368BFF35B8FDB070CD4204622
:104430001BF0E3FB40B10648FFF706FF05481CF000
:10444000DBFF20461BF0E5FB014810BDFC320020DD
:1044500000330020E5440008204B70B5036004469B
:1044600000F53160FDF7F2FD4FF41D6563596019E9
:104470001B68C03D9847B5F5DA6FF7D1184EC4F800
:10448000586704F5EB600EF0B1FC04F5D360FDF75E
:10449000DDFD4FF4BB65635960191B68C03D98474B
:1044A000B5F5667FF7D14FF44E75635960191B68F7
:1044B000A5F59075984715F1280FF6D1C0256359D9
:1044C00060191B68383D9847182DF8D1204640F8F0
:1044D000046F0EF08BFC204670BD00BF044F020835
:1044E000D087020808B50248FFF7B6FF08BD00BF35
:1044F0000033002010B50446FFF7AEFF20464FF40E
:1045000040611BF078FB204610BD4FF00000704763
:104510004FF0000070474FF00000704708B5806E04
:1045200003210CF048FB4FF0000008BD61B990F882
:10453000313083F0010380F83130012213B1034997
:104540000DF062B80249FBE7704700BF0000002091
:104550001400002010B5034B036004460EF046FC27
:10456000204610BDD87D020810B50446FFF7F2FFC3
:10457000204634211BF03FFB204610BD10B5034BF5
:1045800003600446FCF7C2FE204610BD5C4F0208E3
:1045900008B50248FFF7F2FF08BD00BFF43F002056
:1045A00010B50446FFF7EAFF20466C211BF023FB01
:1045B000204610BD70B51E4E3568BFF35B8F15F0F9
:1045C000010532D130461BF018FB70B3194C1A4B61
:1045D0002046102240F8043B02212B460FF0FBFA44
:1045E0002A4629462B4604F124000FF0F4FA134B17
:1045F000E564C4E915344FF48063A4F85E30022307
:1046000084F860300E4B63660E4B2360C4E911558D
:1046100084F8505084F85C500BF09EFEA0660A4867
:104620001CF0EAFE30461BF0F4FA024870BD00BFF1
:10463000F03F0020F43F00209CF00208A939010857
:104640003A4F02085C4F02089145000838B5002334
:1046500001608380837104460BF07EFEA0601CF035
:1046600007FF062590FBF5F303FB150001302071D1
:104670001CF0FEFE90FBF5F303FB15000130012357
:104680006071A371204638BD2DE9F04104460068F1
:1046900003681B6B98470646206803689B6A984727
:1046A0000746206803685B6B9847054620680368E7
:1046B000DB6A984794F904202B18F01900EBD070AE
:1046C00003EBD37312EB60004FEA6303114604D48B
:1046D000A568D5F8A050A84202DB52422271002101
:1046E00094F90500C318024604D4A568D5F8A4506F
:1046F000AB4202DB404260710022206803689C6983
:104700000123A446BDE8F0416047000038B50446E7
:104710001D46084B0CF052FF074B236084F83150C4
:1047200025B904492A4620460CF06EFF0123637523
:10473000204638BD00000020884F02082DE9F043D4
:104740000022ADF5177D05461146012343A8FFF76A
:10475000DDFFAB6EBDF91E11D3F8A420BDF91C011D
:10476000DFF85882521AD3F8A010091A02EBD2725D
:1047700001EBD17100235210491043A80EF050FBF9
:104780004FF0FF1601274FF4004143A80EF00AFB3B
:104790001E239622CDE90067782117A80DF09AFD17
:1047A000282117A800240EF0FDFA4FF47F03CDE96D
:1047B000003478221E23962121A80DF08BFD322192
:1047C00021A80EF0EFFA4FF47F4978232222CDE999
:1047D00000392E21602305A80DF030FD1E2105A80B
:1047E0000EF0E0FA4C232222CDE900382E216E2370
:1047F0000EA80DF023FD1E210EA80EF0D3FA0EF028
:1048000003FC22460A23CDE900606A4950A80DF056
:10481000A7FE462150A80EF0C5FA0EF02FFC224646
:104820001423CDE9008063495EA80DF099FE502164
:104830005EA80EF0B7FA0EF097FC4FF6FF7822460E
:104840001E235C490190CDF800806CA80DF088FE15
:104850005A216CA80EF0A6FA0EF010FC2246322364
:10486000CDE901605349CDF800907AA80DF0E4FE3F
:1048700064217AA80EF096FA0EF050FBFF2622462D
:1048800046234C490190009688A80DF069FE6E21E0
:1048900088A80EF087FACDE901670A26224664232C
:1048A000214600962BA80DF013FC31462BA80EF0E4
:1048B00079FA1423462200966421CDE9018737A8AE
:1048C0000DF006FC142137A80EF06CFA0C200BF04A
:1048D000EBFC394C17A90646FFF7B8FE0C20266002
:1048E0000BF0E2FC21A90646FFF7B0FE0C20666043
:1048F0000BF0DAFC05A90646FFF7A8FE0C20A6601F
:104900000BF0D2FC0EA90646FFF7A0FE0C20E660D5
:104910000BF0CAFC50A90646FFF798FE0C20266152
:104920000BF0C2FC5EA90646FFF790FE0C20666104
:104930000BF0BAFC6CA90646FFF788FE0C20A661B6
:104940000BF0B2FC7AA90646FFF780FE0C20E66168
:104950000BF0AAFC88A90646FFF778FE0C20266219
:104960000BF0A2FC2BA90646FFF770FE0C20666236
:104970000BF09AFC37A90646FFF768FEA662A86E00
:104980004FF0FF310BF0B9FDC4B2002CF7D10A4E45
:1049900056F8040B0134FFF777FE0B2CF8D1A86E04
:1049A0000BF0B0FDA86E0BF0BCFD01200FF085FAF6
:1049B000E5E700BF444F0208003F002000FFFF0072
:1049C000034BD3F85C23034B1A615A62704700BF54
:1049D000247E02080000002008B5806E03689B68F2
:1049E00098474FF0000008BD08B528B904F042FF11
:1049F0000079C31E5842584108BD70B50446806E08
:104A000003681B6A984780B90625D4F80034002B48
:104A100051D10023012204F5806120460EF0A7FF4A
:104A2000C5B201200FF04BFA43E0D4F80034C3B90B
:104A300004F16C054FF4807204F2044128461DF025
:104A40009AFDA66E2846FBF7D5FB33680246294639
:104A5000DB6930469847C5B2062DD5D0222D27D127
:104A6000D3E794F8CF03FFF7BFFF0028CCD094F82A
:104A70007033002BC8D194F8DD33ABB904F2844510
:104A80004FF0FF3128460FF037F80FF014FA0123EA
:104A900084F87033D4F80034C4F87C03C4F8883345
:104AA00028460FF04EF8C3E7D4F80034C4F8883332
:104AB0000025284670BD94F8CF03FFF795FF002826
:104AC000A7D1F6E710B5064B0360044600F2844018
:104AD0000FF00AF82046FCF719FC204610BD00BF75
:104AE000345F020808B50248FFF7ECFF08BD00BFBD
:104AF0006440002010B50446FFF7E4FF20464FF461
:104B0000CF611BF078F8204610BD00002DE9F04180
:104B1000DFF80C81D8F80050BFF35B8F15F001056A
:104B20006BD140461BF069F8002866D0344C354BF9
:104B3000354F2046102240F8043B22212B460FF02F
:104B40004AF82B462021842204F124000FF043F878
:104B50002E4A84F85050C4E915244FF48062A4F81A
:104B60005E20022284F86020294A626604F5806390
:104B7000284A2260C4E91135274AA566012304F2B8
:104B80008440C4E9E135C4E9DD55C4E9DF55E36497
:104B900084F85C30C4F86C2384F8705384F8D153E3
:104BA000A4F8FA33A4F8FC530EF094FF97E80F0032
:104BB00004F5916507F1100685E80F000FCE04F5A6
:104BC00093650FC50FCE0FC596E8070085E807006F
:104BD000502207F13C0104F2C4401DF00CFE4FF4DA
:104BE000B27207F18C0104F214501DF004FE0B4860
:104BF0001CF002FC40461BF00CF80148BDE8F081B7
:104C0000644000209CF002088C490208A939010880
:104C1000F4550208345F020800000101E54A00086B
:104C200060400020032928BF032101F5917150F84D
:104C3000210070470B2928BF002101F5937150F81E
:104C400021007047582928BF582100EB8100D0F877
:104C500014057047022970B505460C4621D800F2AC
:104C600084464FF0FF3130460EF046FF95F8FC3396
:104C7000002B42F2107308BF4FF47A7307EE903A9C
:104C800005EB840494EDE47AF8EEE77A304667EEBB
:104C9000877AFDEEE77A17EE904A0EF052FF204633
:104CA00070BD0024FBE7022970B505460C4625D8E7
:104CB00000F284464FF0FF3130460EF01DFF95F8AC
:104CC000FC3305EB8404D4EDE77A94EDE47A002B11
:104CD00042F2107308BF4FF47A7337EE677A07EE2B
:104CE000903AF8EEE77A304667EE877AFDEEE77A9B
:104CF00017EE904A0EF025FF204670BD0024FBE71A
:104D0000022970B505460C4621D800F284464FF0C2
:104D1000FF3130460EF0F0FE95F8FC33002B42F2E6
:104D2000107308BF4FF47A7307EE903A05EB8404D2
:104D300094EDEA7AF8EEE77A304667EE877AFDEE90
:104D4000E77A17EE904A0EF0FCFE204670BD002474
:104D5000FBE7022970B505460C4625D800F28446CB
:104D60004FF0FF3130460EF0C7FE95F8FC3305EBEF
:104D70008404D4EDE77A94EDEA7A002B42F21073C2
:104D800008BF4FF47A7337EE677A07EE903AF8EE81
:104D9000E77A304667EE877AFDEEE77A17EE904ABB
:104DA0000EF0CFFE204670BD0024FBE790F8702384
:104DB000D0F8883322B9994202D190F8DD037047C8
:104DC000994234BF54205520704710B50446FFF770
:104DD000EDFF40B9D4F88003D4F8783398422CBF63
:104DE0000020012010BD542802D1D4F87C03F3E741
:104DF0000020F7E700B5A3B000238DF808100122CA
:104E000001A901938DF809300EF0B1FD23B05DF8D2
:104E100004FB000010B5044604F02CFD027972B9C1
:104E200016484FF4005110F06BF894F8D8336FF334
:104E3000000384F8D833012384F86E3310BD04F0E6
:104E400019FD0379012B0CD194F86E33002BECD1B2
:104E50008B212046FFF7CEFF0FF02DF8C4F8780322
:104E6000E3E704F007FD0379022BDED103480022BB
:104E70004FF4005110F044F8E6E700BF000802408C
:104E800038B5044604F0F6FC0579BDB91E48012288
:104E90004FF4005110F034F884F86E53D4F88423A2
:104EA000C4F8882394F8D823002363F3000284F81D
:104EB000703384F8DD3384F8D82324E004F0DAFC7E
:104EC0000379012B0DD194F86E3333B194F8CF33BD
:104ED0001BB18B212046FFF78DFF002384F86E3332
:104EE000DCE704F0C7FC0379022B06D10648012257
:104EF0004FF4005110F004F8E5E704F0BBFC94F81F
:104F00006E33002BCAD038BD0008024073B5069D31
:104F100083EAE3741846A4EBE37442F210739D42F3
:104F20000E46114612D1B4FBF5F305FB1344264A95
:104F3000CDE90034254B13EA200338BF1346244A39
:104F400030461DF027FA304602B070BDB5F57A7FC5
:104F50000DD1B4FBF5F305FB13441B4ACDE9003436
:104F60001A4B13EA200338BF13461A4AE8E7642DA8
:104F70000DD1B4FBF5F305FB1344134ACDE900341E
:104F8000124B13EA200338BF1346134AD8E70A2D01
:104F90000DD1B4FBF5F305FB13440B4ACDE9003406
:104FA0000A4B13EA200338BF13460C4AC8E7064AE7
:104FB000064B009413EA200338BF1346084A3046D4
:104FC0001DF0E8F9BFE700BFFE560208FD5E0208CB
:104FD000FD55020809560208155602082156020816
:104FE0002D560208F7B5DDE9087600970C46154600
:104FF000FFF78CFF4EB12046FBF7FCF8044B054A47
:105000000096291A20441DF0C5F9204603B0F0BDD2
:10501000FCF80208335602082DE9F0410F46054618
:105020003A2138461DF088FA38B3002300F8013BD6
:105030001CF0EBF9C4B205F29448002658F8041F9E
:105040003846FBF7CDF808B9F6B203E001360B2E6F
:10505000F4D1002695F88C33B34203D195F88D2313
:10506000A2420CD013B9012385F8FA3385F88C637A
:1050700085F88D430120BDE8F0810446DBE7002080
:10508000F9E710B510460C461CF0BCF951EC100BBA
:10509000FBF7C2FD94ED007A07EE900AB4EE677A52
:1050A000F1EE10FA16BF01200020C4ED007A10BD09
:1050B00010B510460C461CF0A8F92268034682423F
:1050C00016BF01200020236010BD2DE9F0410746E6
:1050D0000C46154602F10C080026294622463846A1
:1050E000FFF7CFFF2C21002818BF064620461DF0F1
:1050F00023FA20B10435454500F10104EDD13046D5
:10510000BDE8F08190F8CC3310B5044663B3D0ED20
:10511000E77AF5EE407AF1EE10FA0FD1D0EDE87AA9
:10512000F5EE407AF1EE10FA08D1D0EDE97AF5EE1D
:10513000407AF1EE10FA14BF0123002394F8D4232F
:1051400063F3C302002384F8D423C4F89C33C4F867
:10515000A033C4F8A43394F8D43394F8CD2362F385
:10516000451384F8D43310BD00F56772FFF7ADFF27
:1051700094F8D43360F3C30384F8D433EBE770B509
:105180000E4604462C2130461DF0D6F90546002374
:1051900005F8013B324604F570712046FFF788FFA1
:1051A00028B194F8D63343F0010384F8D6332C2188
:1051B00028461DF0C1F90646002306F8013B2A46A1
:1051C00004F571712046FFF773FF28B194F8D633C8
:1051D00043F0020384F8D633324604F57D7120464D
:1051E000FFF766FF28B194F8D63343F0040384F840
:1051F000D63370BD70B50D4604462C2128461DF0EF
:105200009BF90646002306F8013B2A4604F5727115
:105210002046FFF736FF28B194F8D53343F0020358
:1052200084F8D5332C2130461DF086F9054610B19F
:10523000002305F8013B324604F57A712046FFF75A
:1052400020FF28B194F8D53343F0040384F8D53314
:1052500065B12A4604F57B712046FFF712FF28B19D
:1052600094F8D53343F0040384F8D53370BD0000BF
:105270002DE9F84300F5B676B84904463046FAF70A
:10528000AFFF054648B90EF016FE84F87053C4F817
:10529000800384F8DD53BDE8F88394F86C31242B47
:1052A00010D13D2130461DF047F9054650B100238D
:1052B00005F8013B04F26D101CF0A7F80D2850D042
:1052C00020285ED094F86C313C2B40F05D810123A6
:1052D00084F86F330EF0EFFDA149C4F8780304F2AF
:1052E0006D101DF05BF90546F8B101462046FFF749
:1052F00093FE28B194F8D43343F0020384F8D433F6
:1053000094F8DC3363B194F88C33052B08D094F80F
:10531000D533002262F3C30384F8DC2384F8D53349
:105320008F4900201DF03AF905468E4E8E4FDFF86A
:1053300054824FF000098DBBB9F1000FABD194F846
:10534000DE33002B94F8D5331ABF84F8DE930122A4
:10535000002262F3861384F8D533002384F8D13316
:1053600099E7284694F8FC731CF04FF88742A9D0BF
:1053700028461CF04AF884F8FC03012384F8FB3328
:10538000A0E7284694F8FD731CF03FF8874299D0B7
:1053900028461CF03AF884F8FD03EEE70522314672
:1053A00028461DF0D6F8E8B994F8CC3343B9012368
:1053B00084F8CC3394F8D43343F0080384F8D4331E
:1053C00004F56472691D2046FFF77FFE94F8D4331C
:1053D00060F3820384F8D433614900201DF0DEF8C5
:1053E0000546A8E70522394628461DF0B2F830B92F
:1053F00094F8CC33002BE3D084F8CC03DAE7032213
:10540000414628461DF0A5F820B9E91C2046FFF7C3
:10541000F1FEE1E75549042228461DF09AF820B92B
:10542000291D2046FFF76EFED6E751490322284684
:105430001DF08FF818BB04F2DD32023504F2E731BB
:10544000844602F801CF15F8013F83B13E2B0ED000
:1054500094F8D53343F0400384F8D5332B78137098
:1054600003F0DF03502B08BF01209142E9D1002354
:1054700084F8E73384F8D1034FF00109ACE73D49E4
:10548000022228461DF065F868B9AB78A3F1310017
:105490004342434184F8D03394F8D53343F020039A
:1054A00084F8D53398E73449022228461DF051F894
:1054B00030BB94F8D433A4F8F80343F0400302352A
:1054C000A4F8F00384F8D433012240F2011115F856
:1054D000013B002B80D04D2B0CD006D8432B0CD099
:1054E000462BF4D184F8F823F1E7532BEFD1A4F83D
:1054F000F023ECE784F8F923E9E7A4F8F013E6E7F2
:105500001E49032228461DF024F820B9E91C204634
:10551000FFF735FE60E71A49042228461DF019F806
:1055200000287FF459AF2A7994F8CF33A2F13101E2
:105530004A424A419A4209D083F0010384F8CF33AA
:1055400094F8D43343F0010384F8D43394F8D83377
:1055500043F0010384F8D8333EE700BF3856020811
:105560003B5602083D560208435602084D560208B3
:1055700052560208AA4E0208565602085956020808
:105580005D560208495602085B2B29D104F26D15BD
:105590002949042228461CF0DCFF68B904F56A7228
:1055A00004F271112046FFF790FD94F8D63360F3B2
:1055B000C30384F8D6336EE62049042228461CF043
:1055C000C8FF00287FF467AE04F56D7204F2711114
:1055D0002046FFF77AFD94F8D63360F30413E8E72A
:1055E0001749062230461CF0B4FF054670B904F591
:1055F000B9701BF00AFF94F8D53384F8DD0343F04B
:10560000100384F8D53384F8705344E60D4906221C
:1056100030461CF09EFF00287FF43DAE04F5B970C3
:105620001BF0F3FE94F8D53384F8DC0343F0080351
:1056300084F8D5332FE600BF625602086756020889
:105640006C5602087356020873B5002604468DF89E
:105650000760A06E03680DF107011B699847C0B28F
:1056600008B102B070BD9DF80720182A04D0B4F824
:105670006C33B3F5FE7F02D9A4F86C63E9E70A2A1C
:1056800001D00D2A13D1002BF6D02344002204F2BE
:10569000844583F86C214FF0FF3128460EF02CFA38
:1056A0002046FFF7E5FD28460EF04BFAE4E7591CCB
:1056B0002344A4F86C1383F86C21CAE770B5044640
:1056C00000F284464FF0FF3130460EF015FAD4F860
:1056D00084536B1C012B38BF0123C4F8843330463C
:1056E0000EF02FFA284670BD70B50446A2B090F8AF
:1056F000CF030D461646FFF777F988B194F88C333F
:1057000073B12046FFF7DAFF6A1E01900DF1070121
:105710007F3512F8013F01F8013F23B1AA42F8D1C9
:105720000C2022B070BD1A4601A920460EF01FF9C8
:10573000019B3360C0B2F4E707B50022044980F84A
:10574000DD2301AAFFF7D0FF03B05DF804FB00BF23
:10575000725F020807B5034901AAFFF7C5FF03B04E
:105760005DF804FB6D5F020810B50446FFF76CFF9F
:105770000EF0A1FBD4F87833C01AB0F5967F81BF44
:10578000002384F88C33012384F86F3394F8CF031B
:10579000FFF72AF910B194F88C3363B994F8703399
:1057A0004BB1002384F87033D4F88433C4F88833C1
:1057B000562384F8DD3304F05DF80379012B1DD105
:1057C00094F86E3394F8CF03EBB1FFF70DF9D0B92D
:1057D00094F8D833DB0748D58B212046FFF70AFB26
:1057E0000EF069FB94F8D833C4F87403002262F316
:1057F000000384F86F2384F8D83304E004F03AF807
:105800000379022BDCD094F8CF03FFF7EDF840B119
:1058100094F8FA332BB12046FFF79CFF002384F85D
:10582000FA3394F8CF03FFF7DFF8D8B194F86F3369
:10583000C3B10EF040FBD4F87433C01A642811D9F8
:10584000A06E03681B6A984760B10EF034FBC4F881
:105850007403A06E0949002384F86F3303680122A2
:10586000DB6998474FF0000010BD0EF024FBD4F820
:105870007833C01AB0F5967FAED8C4E77A560208DE
:1058800007B5034901AAFFF72FFF03B05DF804FB3A
:10589000685F020807B5034901AAFFF725FF03B0B7
:1058A0005DF804FB625F020807B5034901AAFFF730
:1058B0001BFF03B05DF804FB5D5F020807B50349F9
:1058C00001AAFFF711FF03B05DF804FB585F02085F
:1058D0002DE9F0410229AEB004460D4617461E469A
:1058E0004ED890F8CF03FFF77FF800284AD094F8FD
:1058F0008C3303F0FD03012B44D12046FFF7DEFE7D
:1059000094F8FC330D90002B0DF1140842F2107343
:1059100008BF4FF47A73009310223B46414620465D
:10592000FFF7F4FA09AF6423009310223346394697
:105930002046FFF7EBFA94F8FC139DF8D000124BC9
:10594000124ACDE9028705F59175002818BF1A465D
:1059500054F82530CDE900230D4A0E4B0EA800293E
:1059600008BF13460C4A80211CF014FD00231A4680
:105970000DA920460DF0FBFFC0B22EB0BDE8F081AE
:105980000220FAE70C20F8E784560208885602083D
:105990007C560208805602088C5602082DE9F04118
:1059A0000229AAB004460D4617461E463DD890F877
:1059B000CF03FFF719F8002839D094F88C3303F09F
:1059C000FD03012B33D12046FFF778FE94F8FC331A
:1059D0000990002B0DF1140842F2107308BF4FF428
:1059E0007A73009310223B4641462046FFF78EFA19
:1059F00094F8FC130F4ACDE9018605F591750AA8C4
:105A000054F8253000930C4B002908BF13460B4A6D
:105A100080211CF0BFFC00231A4609A920460DF086
:105A2000A6FFC0B22AB0BDE8F0810220FAE70C2040
:105A3000F8E700BF7C560208805602089D5602080F
:105A40002DE9F0430446BBB090F8CF038846914659
:105A50001E46FEF7C9FF00286DD094F88C3303F082
:105A6000FD03012B67D12046FFF728FE94F8FC3395
:105A7000199042F21075002B14BF2B464FF47A7325
:105A800009AF00931022434639462046FFF73EFAFD
:105A900094F8FC33002B14BF2B464FF47A730DF1AE
:105AA0003408009310224B4641462046FFF72EFA59
:105AB00094F8FC33002B08BF4FF47A750DF14409BC
:105AC00000953346102249462046FFF71FFA15ADD0
:105AD000642300931022429B29462046FFF716FAC2
