:020000040800F2
:1000000000000220250002087DF701087FF70108A3
:1000100081F7010883F7010885F701080000000057
:1000200000000000000000000000000081E901085D
:1000300087F701080000000011EA010889F70108AC
:1000400075000208750002087500020875000208B4
:1000500075000208750002087500020875000208A4
:100060007500020875000208750002087500020894
:100070007500020875000208750002087500020884
:1000800075000208750002087500020800000000F3
:1000900000000000000000000000000075000208E1
:1000A0007500020875000208750002087500020854
:1000B0007500020875000208750002087500020844
:1000C0007500020875000208750002087500020834
:1000D00075000208A1F70108750002080000000081
:1000E0007500020875000208750002080000000093
:1000F0000000000000000000000000007500020881
:1001000000000000ADF70108750002087500020844
:1001100000000000000000000000000000000000DF
:100120007500020875000208B9F70108C5F7010853
:100130007500020800000000000000000000000040
:10014000000000000000000000000000D1F70108DE
:10015000DDF7010875000208E9F7010875000208DB
:100160007500020875000208000000000000000091
:10017000000000000000000000000000000000007F
:1001800000000000750002080000000000000000F0
:08019000750002087500020869
:1001A00010B5054C237833B9044B13B10448AFF3B1
:1001B00000800123237010BD5003002000000000C8
:1001C000FC4C020808B5034B1BB103490348AFF3CD
:1001D000008008BD0000000054030020FC4C020811
:1001E00010F8012B11F8013B012A28BF9A42F7D0E1
:1001F000D01A7047034613F8012B002AFBD1181AB6
:1002000001387047000000000000000000000000FE
:1002100001F0FF01102A2BDB10F0070F08D010F8B7
:10022000013B013A8B422DD010F0070F42B3F6D1BB
:10023000F0B441EA012141EA014122F007047FF0D4
:1002400000070023F0E80256083C85EA010586EA2B
:10025000010685FA47F5A3FA87F586FA47F6A5FA67
:1002600087F68EB9EED1F0BC01F0FF0102F0070273
:1002700032B110F8013B013A83EA010313B1F8D11E
:100280000020704701387047002D06BF35460338FF
:10029000073815F0010F07D1013015F4807F02BF38
:1002A000013015F4C03F0130F0BC0138704700BF89
:1002B00081F0004102E000BF83F0004330B54FEA17
:1002C00041044FEA430594EA050F08BF90EA020F84
:1002D0001FBF54EA000C55EA020C7FEA645C7FEA17
:1002E000655C00F0E2804FEA5454D4EB5555B8BF3A
:1002F0006D420CDD2C4480EA020281EA030382EAAB
:10030000000083EA010180EA020281EA0303362D3C
:1003100088BF30BD11F0004F4FEA01314FF4801C0F
:100320004CEA113102D0404261EB410113F0004F21
:100330004FEA03334CEA133302D0524263EB4303D8
:1003400094EA050F00F0A780A4F10104D5F1200E76
:100350000DDB02FA0EFC22FA05F2801841F10001D1
:1003600003FA0EF2801843FA05F359410EE0A5F1A5
:1003700020050EF1200E012A03FA0EFC28BF4CF0D6
:10038000020C43FA05F3C01851EBE37101F000458C
:1003900007D54FF0000EDCF1000C7EEB00006EEB99
:1003A0000101B1F5801F1BD3B1F5001F0CD3490823
:1003B0005FEA30004FEA3C0C04F101044FEA44527A
:1003C00012F5800F80F09A80BCF1004F08BF5FEA01
:1003D000500C50F1000041EB045141EA050130BDE1
:1003E0005FEA4C0C404141EB0101013C28BFB1F5F3
:1003F000801FE9D291F0000F04BF01460020B1FA3E
:1004000081F308BF2033A3F10B03B3F120020CDA10
:100410000C3208DD02F1140CC2F10C0201FA0CF0EE
:1004200021FA02F10CE002F11402D8BFC2F1200C53
:1004300001FA02F120FA0CFCDCBF41EA0C01904009
:10044000E41AA2BF01EB0451294330BD6FEA040452
:100450001F3C1CDA0C340EDC04F11404C4F120023D
:1004600020FA04F001FA02F340EA030021FA04F34F
:1004700045EA030130BDC4F10C04C4F1200220FAA6
:1004800002F001FA04F340EA0300294630BD21FAE4
:1004900004F0294630BD94F0000F83F4801306BFAA
:1004A00081F480110134013D4EE77FEA645C18BF9E
:1004B0007FEA655C29D094EA050F08BF90EA020F35
:1004C00005D054EA000C04BF1946104630BD91EA2D
:1004D000030F1EBF0021002030BD5FEA545C05D130
:1004E0004000494128BF41F0004130BD14F580046F
:1004F0003CBF01F5801130BD01F0004545F0FE41E3
:1005000041F470014FF0000030BD7FEA645C1ABF17
:10051000194610467FEA655C1CBF0B46024650EA4E
:10052000013406BF52EA033591EA030F41F400217A
:1005300030BD00BF90F0000F04BF0021704730B500
:100540004FF4806404F132044FF000054FF00001D5
:1005500050E700BF90F0000F04BF0021704730B596
:100560004FF4806404F1320410F0004548BF40426B
:100570004FF000013EE700BF42004FEAE2014FEAC0
:1005800031014FEA02701FBF12F07F4393F07F4F9B
:1005900081F06051704732F07F4208BF704793F09E
:1005A0007F4F04BF41F40021704730B54FF46074B1
:1005B00001F0004521F000411CE700BF50EA0102B4
:1005C00008BF704730B54FF000050AE050EA01025D
:1005D00008BF704730B511F0004502D5404261EBCD
:1005E00041014FF4806404F132045FEA915C3FF40E
:1005F000D8AE4FF003025FEADC0C18BF03325FEAAB
:10060000DC0C18BF033202EBDC02C2F1200300FA5B
:1006100003FC20FA02F001FA03FE40EA0E0021FA80
:1006200002F11444BDE600BF70B54FF0FF0C4CF46E
:10063000E06C1CEA11541DBF1CEA135594EA0C0F20
:1006400095EA0C0F00F0DEF82C4481EA030621EA5B
:100650004C5123EA4C5350EA013518BF52EA033596
:1006600041F4801143F4801338D0A0FB02CE4FF048
:100670000005E1FB02E506F00042E0FB03E54FF078
:100680000006E1FB03569CF0000F18BF4EF0010E70
:10069000A4F1FF04B6F5007F64F5407404D25FEA6C
:1006A0004E0E6D4146EB060642EAC62141EA55511F
:1006B0004FEAC52040EA5E504FEACE2EB4F1FD0C61
:1006C00088BFBCF5E06F1ED8BEF1004F08BF5FEADF
:1006D000500E50F1000041EB045170BD06F0004691
:1006E00046EA010140EA020081EA0301B4EB5C043E
:1006F000C2BFD4EB0C0541EA045170BD41F4801136
:100700004FF0000E013C00F3AB8014F1360FDEBF5A
:10071000002001F0004170BDC4F10004203C35DA36
:100720000C341BDC04F11404C4F1200500FA05F3B9
:1007300020FA04F001FA05F240EA020001F000425A
:1007400021F0004110EBD37021FA04F642EB0601D0
:100750005EEA430E08BF20EAD37070BDC4F10C04FA
:10076000C4F1200500FA04F320FA05F001FA04F2BE
:1007700040EA020001F0004110EBD37041F10001AA
:100780005EEA430E08BF20EAD37070BDC4F12005B5
:1007900000FA05F24EEA020E20FA04F301FA05F21D
:1007A00043EA020321FA04F001F0004121FA04F2C5
:1007B00020EA020000EBD3705EEA430E08BF20EA95
:1007C000D37070BD94F0000F0FD101F000464000CF
:1007D00041EB010111F4801F08BF013CF7D041EA51
:1007E000060195F0000F18BF704703F00046520055
:1007F00043EB030313F4801F08BF013DF7D043EA26
:100800000603704794EA0C0F0CEA135518BF95EADB
:100810000C0F0CD050EA410618BF52EA4306D1D162
:1008200081EA030101F000414FF0000070BD50EA81
:10083000410606BF1046194652EA430619D094EA0B
:100840000C0F02D150EA013613D195EA0C0F05D1F5
:1008500052EA03361CBF104619460AD181EA030149
:1008600001F0004141F0FE4141F470014FF0000001
:1008700070BD41F0FE4141F4780170BD70B54FF09C
:10088000FF0C4CF4E06C1CEA11541DBF1CEA13551C
:1008900094EA0C0F95EA0C0F00F0A7F8A4EB0504FE
:1008A00081EA030E52EA03354FEA013100F08880F5
:1008B0004FEA03334FF0805545EA131343EA1263BE
:1008C0004FEA022245EA111545EA10654FEA002673
:1008D0000EF000419D4208BF964244F1FD0404F52C
:1008E000407402D25B084FEA3202B61A65EB030588
:1008F0005B084FEA32024FF480104FF4002CB6EB45
:10090000020E75EB030E22BFB61A754640EA0C00C4
:100910005B084FEA3202B6EB020E75EB030E22BF04
:10092000B61A754640EA5C005B084FEA3202B6EB45
:10093000020E75EB030E22BFB61A754640EA9C0004
:100940005B084FEA3202B6EB020E75EB030E22BFD4
:10095000B61A754640EADC0055EA060E18D04FEA92
:10096000051545EA16754FEA06164FEAC30343EA32
:1009700052734FEAC2025FEA1C1CC0D111F4801FFF
:100980000BD141EA00014FF000004FF0004CB6E7F8
:1009900011F4801F04BF01430020B4F1FD0C88BF97
:1009A000BCF5E06F3FF6AFAEB5EB030C04BFB6EBA2
:1009B000020C5FEA500C50F1000041EB045170BD95
:1009C0000EF0004E4EEA113114EB5C04C2BFD4EBC2
:1009D0000C0541EA045170BD41F480114FF0000E46
:1009E000013C90E645EA060E8DE60CEA135594EAC2
:1009F0000C0F08BF95EA0C0F3FF43BAF94EA0C0FC5
:100A00000AD150EA01347FF434AF95EA0C0F7FF439
:100A100025AF104619462CE795EA0C0F06D152EA8D
:100A200003353FF4FDAE1046194622E750EA410671
:100A300018BF52EA43067FF4C5AE50EA41047FF482
:100A40000DAF52EA43057FF4EBAE12E74FF0FF3CE7
:100A500006E000BF4FF0010C02E000BF4FF0010CB8
:100A60004DF804CD4FEA410C7FEA6C5C4FEA430C31
:100A700018BF7FEA6C5C1BD001B050EA410C0CBF80
:100A800052EA430C91EA030F02BF90EA020F0020E2
:100A9000704710F1000F91EA030F58BF994208BF49
:100AA00090422CBFD8176FEAE37040F00100704706
:100AB0004FEA410C7FEA6C5C02D150EA013C07D15D
:100AC0004FEA430C7FEA6C5CD6D152EA033CD3D0A8
:100AD0005DF8040B704700BF8446104662468C46A2
:100AE0001946634600E000BF01B5FFF7B7FF0028D5
:100AF00048BF10F1000F01BD4DF808EDFFF7F4FFFE
:100B00000CBF012000205DF808FB00BF4DF808ED88
:100B1000FFF7EAFF34BF012000205DF808FB00BFAB
:100B20004DF808EDFFF7E0FF94BF012000205DF8CD
:100B300008FB00BF4DF808EDFFF7CEFF94BF012082
:100B400000205DF808FB00BF4DF808EDFFF7C4FF7B
:100B500034BF012000205DF808FB00BF4FEA410CC4
:100B60007FEA6C5C02D150EA013C0AD14FEA430CA7
:100B70007FEA6C5C02D152EA033C02D14FF00000E4
:100B800070474FF0010070474FEA410212F5001222
:100B900015D211D56FF47873B3EB625212D94FEAC4
:100BA000C12343F0004343EA505311F0004F23FAAE
:100BB00002F018BF404270474FF00000704750EA03
:100BC000013005D111F0004008BF6FF000407047C0
:100BD0004FF00000704700BF4A0011D212F500121A
:100BE00011D20DD56FF47873B3EB62520ED44FEA85
:100BF000C12343F0004343EA505323FA02F0704705
:100C00004FF00000704750EA013002D14FF0FF3042
:100C100070474FF0000070474FEA4102B2F1E043E5
:100C200024BFB3F5001CDCF1FE5C0DD901F0004CD3
:100C30004FEAC0024CEA5070B2F1004F40EB830023
:100C400008BF20F00100704711F0804F21D113F14F
:100C50003872BCBF01F00040704741F480114FEA88
:100C60005252C2F11802C2F1200C10FA0CF320FA11
:100C700002F018BF40F001004FEAC1234FEAD3232E
:100C800003FA0CFC40EA0C0023FA02F34FEA430398
:100C9000CCE77FEA625307D150EA01331EBF4FF021
:100CA000FE4040F44000704701F0004040F0FE403C
:100CB00040F40000704700BF53B94AB9002908BF8B
:100CC00000281CBF4FF0FF314FF0FF3000F0A0B9FB
:100CD000ADF1080C6DE904CE00F03CF8DDF804E05D
:100CE000DDE9022304B0704738B500220023044632
:100CF0000D46FFF70BFF28B920462946BDE83840CE
:100D000000F00AB8204605F1004100F005F8404225
:100D100061EB410138BD00BFD0B50C4B0022064647
:100D20000F46FFF781FCFFF757FF0446FFF702FC71
:100D3000074B0022FFF778FC02460B463046394647
:100D4000FFF7BAFAFFF748FF2146D0BD0000F03D9B
:100D50000000F0412DE9F047089D0C46002B4ED1D4
:100D600094468C458646B2FA82F262D94AB1C2F103
:100D70002003914020FA03F30CFA02FC194300FA15
:100D800002FE4FEA1C471FFA8CF6B1FBF7F44FEA5C
:100D90001E4307FB141143EA014304FB06F1994289
:100DA0000AD91CEB030304F1FF3080F01281994251
:100DB00040F20F81023C6344591A1FFA8EF3B1FBD3
:100DC000F7F007FB101143EA014300FB06F69E42D1
:100DD0000AD91CEB030300F1FF3180F0FC809E4236
:100DE00040F2F980634402389B1B40EA0440002132
:100DF0001DB1D3400022C5E90032BDE8F0878B4227
:100E000005D90DB1C5E9000100210846F5E7B3FA9F
:100E100083F1002946D1A34202D39042C0F0F08072
:100E2000861A64EB03030120002DE6D0C5E90063B8
:100E3000E3E7002A40F09080A1EB0C044FEA1C4845
:100E40001FFA8CF70121B4FBF8F64FEA1E4308FBAA
:100E5000164443EA044307FB06F0984208D91CEB0A
:100E6000030306F1FF3402D2984200F2CD802646F9
:100E70001C1A1FFA8EF3B4FBF8F008FB104443EA87
:100E8000044300FB07F79F4208D91CEB030300F162
:100E9000FF3402D29F4200F2B0802046DB1B40EAC2
:100EA0000640A5E7C1F120068B4022FA06F71F4352
:100EB00020FA06FC04FA01F343EA0C03F44000FABA
:100EC00001F8380C4FEA1349B4FBF0FE1FFA87FC17
:100ED00000FB1E4449EA04440EFB0CF9A14502FA4A
:100EE00001F20AD93C190EF1FF3A80F08480A14545
:100EF00040F28180AEF1020E3C44A4EB09041FFADB
:100F000083F9B4FBF0F300FB134449EA044403FB08
:100F10000CFCA44507D93C1903F1FF3067D2A44566
:100F200065D9023B3C4443EA0E40A0FB0293A4EB8C
:100F30000C049C42CE469C4651D34ED055B1B8EBE2
:100F40000E0364EB0C0404FA06F6CB401E43CC40BF
:100F5000C5E90064002150E7C2F1200320FA03F143
:100F60000CFA02FC24FA03F394400C434FEA1C48A9
:100F700000FA02FE1FFA8CF7B3FBF8F008FB103101
:100F8000230C43EA014300FB07F1994208D91CEB0B
:100F9000030300F1FF362CD299422AD90238634468
:100FA0005B1AA4B2B3FBF8F108FB113344EA034423
:100FB00001FB07F3A34208D91CEB040401F1FF363F
:100FC00013D2A34211D902396444E41A41EA004120
:100FD00039E70446F0E6084606E7C845AED2B9EB65
:100FE000020E63EB070C0138A8E73146EDE7034634
:100FF00099E73046D4E7D6467FE7634402384DE7A9
:101000000646234608460FE7023E634430E700BF2A
:10101000704700BF03798B4228BF0431C91AC9B297
:101020004171704708B503681B699847B0FA80F0B2
:10103000400908BD10B508F083FE204908F0A4FE61
:101040000FF0C6FB1E490FF081FC0FF0C1FB1D49DC
:101050000FF0C0FC0FF0BCFB03681B68984713F04F
:10106000BFFA036818495B6A984705F095FC174971
:10107000002205F0EFFC05F08FFC03681B68984721
:101080001348FFF7CFFF30B10EF0FAFD0368BDE85B
:1010900010401B6818470F48FFF7C4FF10B103F05A
:1010A000B1FBF3E703F05AFE0B4B836603F056FEE9
:1010B00003681B68984700F071FBE7E76C030020AA
:1010C000A403002084030020D0D9012088D9012066
:1010D0008804002078040020D003002000BEFEE732
:1010E000704700002DE9F0473D4ADFF840913D4F41
:1010F0003D4BBA601021C9E902210822FA603B4A3F
:101100003B49916000244FF48060C2E90034D06014
:10111000DFF81C81374ADFF81CA1C9F8003001252F
:10112000C8E90035C7E90035C2E900340223D360BD
:101130004FF06413CAF804302F4B304ECAF8003019
:101140002F4BCAF808304FF0051373602D4B3360F6
:1011500006F10C002C4B9160C8E90215C9F8045047
:10116000B36012F0F3FE294B294A1A60294AC3F8EA
:101170008420A3F88840284B284818604FF4F07268
:1011800027481C760321C3E901124FF4A071C3E97B
:10119000031259610571C180224D0281C3E907A97B
:1011A000C3E909872146204B03604471C66004747B
:1011B000C0F81240C0F81640C0F81A40FFF72AFFE6
:1011C0004FF400404023C5E900034220C5E903462F
:1011D0002C726C610FF0A6FAE860BDE8F08700BFE2
:1011E00000000240980400208CF4020888040020CB
:1011F0000004024078040020FCF402085C04002093
:101200002CD90120B0F4020890D70120D00300208F
:101210004CF50208D8DA0120A403002060820208FD
:10122000840300206C03002038820208B8040020E8
:10123000A80400206C04002008B5074BD86810B142
:1012400001211EF018FF0548054B40F80C3BBDE896
:10125000084012F085BE00BF6C0300205C04002033
:10126000B0F402084FF00000704700F5805090F88D
:10127000B40F002818BF0320704712F00FBDF8B557
:101280000446002840D00E784F7826BB00F5BA55AA
:10129000EB680C351B692846984760B32B682846D5
:1012A0001B6C984738B3DFB10121284613F0E0FCEE
:1012B000062E1ED103F052FD90F86E3304F5AD54A6
:1012C0001434DBB103F04AFD03F004FF0021204693
:1012D00013F0CEFC0DE0012E0DD100F5C655D7E779
:1012E0003946284613F0C4FC23682946DB692046AA
:1012F00098470020F8BD002FDAD1FAE703F02EFD61
:1013000003F0B2FE0121E2E70120F3E708B51CF08B
:10131000ADFFBDE808401CF07BBE000010B5074BD8
:10132000044640F8483B13F017F804F1240012F08B
:1013300069FE201D12F066FE204610BD80F50208F1
:1013400010B50446FFF7EAFF204668211EF093FE21
:10135000204610BD054A02600022C0E90122C0E912
:101360000322C0E90522C261704700BF608D0208F8
:1013700010B50446FFF7EEFF044B23600023C4E9D9
:10138000083384F82830E362204610BD648B0208DD
:1013900010B50446FFF7DEFF064B23600122002351
:1013A00084F82C20C4E90833A362236384F8343022
:1013B000204610BDB48C02082DE9F8430446FFF71F
:1013C000C9FF1C4B236000256FF07F43DFF8689056
:1013D00023634FF001084FF080774FF0FF36C4E9E8
:1013E0000855C4E90A55A58604F13800FFF7B2FF95
:1013F000C4E91655C4E91B76C4F83890256684F80C
:101400006480A566A4F8785004F17C00FFF7A2FF81
:10141000C4E92B5784F8A880C4E92755C4F87C9008
:10142000C4F8A450C4F8B460A4F8BC502046BDE889
:10143000F88300BFE8F50208108B02082DE9F84395
:1014400005460026FFF786FFC5E90866C5E90A6676
:10145000304BDFF8CC902B602E6305F1340405F59A
:101460005D774FF0FF382046FFF774FFC4F8009017
:1014700084F82060C4F82C8084F83060C4E90966E0
:101480003434BC42EFD105F2F46620463834FFF71D
:101490007FFFB442F9D105F5975614362046C03483
:1014A000FFF78AFFB442F9D1204605F580540026A3
:1014B000FFF750FF184BC4F8F43205F59850C4F804
:1014C00014631830FFF778FF05F59E501830FFF7CA
:1014D00073FF05F5A4501830FFF74AFF05F5A65035
:1014E0000830FFF737FF0D4BC4F8C834C4F8E86480
:1014F000C4F8EC64C4F8F06484F8F464C4F8F864E4
:10150000C4F8FC640FF064F9C4F800052846BDE88F
:10151000F88300BF346402080C8C0208B88B020800
:10152000BC82020870B50A2300250446C0E90055B4
:10153000C0E9025503611430FFF70CFF4B4B6361A8
:10154000C4E90D5504F13C00FFF712FF04F16C00F3
:10155000FFF700FF464BE36604F18C00FFF718FF2E
:1015600004F1C400FFF7F6FE424BC4F8C4304FF458
:101570007F420123C4E93E234FF00041C4E94053B8
:101580006FF00043C4E942134FF0FF33C4F8103149
:10159000C4E93955C4F8EC5084F8F050C4F8F4505C
:1015A00004F58A70FFF7E4FE04F5A270FFF7F0FE81
:1015B00004F5BE70FFF7ECFE2946182204F5DA7038
:1015C00021F0F6F92946102204F5E67021F0F0F931
:1015D00084F8DC510FF0FCF8C4F8E00104F5F27077
:1015E000FFF7EAFE04F52970FFF7E6FE04F55970EF
:1015F000FFF7E2FE204B93E8070004F2244585E85C
:10160000070004F5866603F10C023C33106851684C
:10161000354603C508329A422E46F7D104F58C6050
:10162000FFF7CAFE04F5A460FFF7C6FE0FF0D0F87E
:10163000002384F8F03584F80836C4F8E005C4F8CF
:10164000E435C4F8E835C4F8EC35C4F8F435C4F82A
:10165000F835C4F8FC35C4F80036C4F80436C4F8CC
:101660000C36C4F81036204670BD00BF088D020845
:10167000B88B0208E4520208184D0208434B70B5BB
:1016800010220446222140F8043B002312F0DFFC24
:1016900000230822202104F1240012F0D8FC04F5D4
:1016A000FD531433002563641423C4E91253384BEB
:1016B00084F85050C4E915344FF48063A4F85E30C8
:1016C000022384F860302046324B6366324B84F844
:1016D0005C504022294640F8683B21F069F9C4E992
:1016E0002A5504F1B000FFF7A9FE04F5AD501430FF
:1016F000FFF762FE04F5B3501430FFF739FE04F52E
:10170000B5500430FFF744FE04F5B6501C30FFF727
:101710003FFE04F5B8501430FFF73AFE04F5BA5016
:101720000C30FFF749FE04F5C0500C30FFF744FEC3
:1017300004F5C6500C30FFF73FFE04F5CC5004F51D
:1017400080560C30FFF7EEFE032386F8A03F0FF023
:101750003FF8C6F8A40F05F01FF9C6F8A80F03F06C
:10176000FDFAC6F8AC0F08F0EBFA86F8C85FC6F8C9
:10177000B00FC6F8BC5FC6F8C05FC6F8C45FC6F855
:10178000CC5FC6F8D05F204670BD00BF80F5020870
:10179000213E0108005202089052020810B50A4C7E
:1017A0002368BFF35B8FDB070CD420461EF065FC7B
:1017B00040B10648FFF762FF054820F05DF820467B
:1017C0001EF067FC014810BDC8040020CC040020B6
:1017D000DD2200082DE9F04F00F5805685B0D6F8DF
:1017E000A43F0546D3F8A0400F46002967D0083C27
:1017F000032294FBF2F4D3F8A4B011F0B7FE03680F
:10180000DB689847804611F0B1FE0368DB689847B3
:1018100005F5BA5909F10C0900EB400008EB48083E
:101820004FF0010A2849CDF808A0ABEB08030022CD
:10183000CDE90040484613F0CDF8FFF767FD0023DF
:1018400001461A46484613F01EFACFB1B6F958279A
:10185000CDF808A0B6F95E371B49CDE9004305F580
:10186000C0570C37B6F956370532384613F0B2F880
:10187000FFF74CFD002301461A46384613F003FAE1
:10188000D6F8A43F1049D3F8A02001230293B6F95B
:101890005E37CDE9004305F5C6550C35B6F9563728
:1018A000121B284613F096F8FFF730FD002301467F
:1018B0001A46284605B0BDE8F04F13F0E4B904EB32
:1018C000D4746410043C96E7D5780208034603F507
:1018D000805300F5BA50D3F8AC3F93F88C33022B09
:1018E0000CBF024902490C3013F0CAB80C5202086E
:1018F0001152020800F58052D2F8AC2F92F88C23D6
:10190000012A05D121B100F5BA500C3013F0B8B856
:10191000FFF7DCBF00F5805300F5C650D3F8AC3FAD
:1019200093F88C33052B00F10C0002D1034913F01E
:10193000A7B80BB90249FAE70249F8E715520208BD
:10194000336302085460020800F58052D2F8AC2FCD
:1019500092F88C23012A05D121B100F5C6500C3034
:1019600013F08EB8FFF7D6BF70B500F164030446DC
:10197000002553F8042F8A4218D1D4F8AC301A331A
:1019800054F8230003681B69984704F1B000C4F8B9
:10199000AC50294604F0FAFED4F8AC301A3354F8AF
:1019A00023000368BDE87040DB6818470135102D3F
:1019B000DFD170BDD0F8AC301A3370B5044650F8A2
:1019C000230003680D461B69984704F1B000C4F872
:1019D000AC50294604F0DAFED4F8AC301A3354F88F
:1019E00023000368BDE87040DB68184773B500F555
:1019F000AD5614368E4204460D4614D100F580547F
:101A0000D4F8AC0F90F86E334BB103F063FB0021B8
:101A1000304613F02DF94FF0000002B070BD03F016
:101A200023FB0121F4E700F1B003994204D190F8BF
:101A3000DC10FFF7BFFFEEE7D0F8AC301A3350F8F8
:101A4000230003689B699847C0B20828E3D104F5D6
:101A5000BA530C339D420CD104F58054D4F8AC0F2A
:101A600090F88C33022B14BF8121822103F0ECFA11
:101A7000D1E704F5C6530C339D42CCD104F5805414
:101A8000D4F8AC0F90F88C23D0F88433052A0CD10D
:101A9000002201920B4980F8DD2380F87023C0F802
:101AA000883301AA03F07CFFB5E7002180F87013AA
:101AB000C0F888330AB1092A01D11821D6E71921C3
:101AC000D4E700BF1C520208F7B5044600F1B00588
:101AD00004F58056284604F0E4FC28221021D6F8AC
:101AE000A43FCDE9002100221146D3F8A030002701
:101AF000284604F061FEC4F8A87011F085FC394650
:101B00000346724A284604F0D3FD714AD4F8A8105F
:101B1000284604F065FDD4F8A8707B1CC4F8A830F2
:101B200002F0A0FD1A3744F82700D4F8A87011F08D
:101B30006BFC3946674A0346284604F0B9FDD4F8E1
:101B4000A8707B1CC4F8A83008F088FD1A3744F848
:101B50002700D4F8A87011F057FC394603465E4AB6
:101B6000284604F0A5FDD4F8A8707B1CC4F8A83062
:101B700001F0B4FE1A37D6F8AC3F44F8270093F8CA
:101B8000FD339BB9D4F8A87011F03EFC39460346EA
:101B9000524A284604F08CFDD4F8A8707B1CC4F887
:101BA000A8300CF0D5FE1A3744F82700D4F8A870F6
:101BB00011F02AFC39460346494A284604F078FDCC
:101BC000D4F8A8707B1CC4F8A8300CF091F81A3730
:101BD000D6F8AC3F44F8270093F8FD3363BBD4F844
:101BE000A87011F011FC394603463E4A284604F01D
:101BF0005FFDD4F8A8707B1CC4F8A8300AF062FA24
:101C00001A37D6F8AC3F44F8270093F8FD339BB958
:101C1000D4F8A87011F0F8FB39460346324A28463A
:101C200004F046FDD4F8A8707B1CC4F8A83007F077
:101C300077FB1A3744F82700D6F8AC3F93F8FD330A
:101C4000022B13D1D4F8A87011F0DEFB39460346FD
:101C5000264A284604F02CFDD4F8A8707B1CC4F852
:101C6000A83005F061FA1A3744F82700D4F8A870B4
:101C700011F0CAFB39461E4A0346284604F018FDF7
:101C8000D4F8A8707B1CC4F8A8300DF031FC1A37CA
:101C9000D4F8A82044F82700D6F8A43F01922822BF
:101CA0000092002211462846D3F8A03004F084FDAB
:101CB0000023214628461A4604F032FE4FF4FA610A
:101CC000284603B0BDE8F04004F0A8BB215202084A
:101CD0003C000020255202082E5202083952020808
:101CE0004652020853520208595202086C52020826
:101CF0007F5202082DE9F04F054689B005F5805462
:101D000008F01EF808F044F8D4F8A46F08F018F8AA
:101D10008168003918BF012130460EF042FE94F868
:101D2000A01FD4F8A40F0FF082F9D4F8A43F904A72
:101D3000C3F89820D3F8A47011F018FC0368DB688E
:101D40009847064611F060FB0368DB689847D4F8B3
:101D5000A43FD3F8A0300593824611F055FB0268EA
:101D600092689047834611F04FFB0268D268904713
:101D700006EB46067F4A059B05F5B359023F4FF037
:101D8000060809F11409BF1B4000002608FB1B339D
:101D9000CDE901260090A7EB4A024846314610F0F3
:101DA000A1FB4FF47A71484611F038FAD4F8AC0F21
:101DB00003F090F9D4F8A43FD3F8A0A011F024FBCD
:101DC00003689B689847B4F97EB6814611F01CFB06
:101DD00003689B6898470123029305F5AD571437B4
:101DE000B4F986366449019308FB00F00AF1FF322A
:101DF00008FB19225B460090384612F0EBFD324694
:101E000033463846294612F03EFF3846314612F036
:101E10002FFF4FF47A71384611F000FAB4F9863684
:101E2000B4F97E9603EBD37309EB630911F0ECFA76
:101E30000368DB689847074611F0E6FA05F5B558E0
:101E40006FF07F4A08F1040804224C490190A9EB85
:101E50005703CDF800A0404610F073FDB4F9ACB6BE
:101E600011F0D2FA03689B689847074611F07EFB91
:101E700003689B689847B4F982360693079011F07F
:101E800075FB0168C9688847059011F06FFB069BD8
:101E9000079A059905F5B65909F11C0907EB87075B
:101EA0005A44023B3A445B1ACDE900A03349484604
:101EB00010F047FDB4F9BC15059111F091FB0368D2
:101EC0009B689847B4F97EB6824611F089FB05F508
:101ED000B857059901901437FF230BF1040B0B221F
:101EE00002FB1A123846254900935B4610F029FD83
:101EF00040F2E931404611F091F940F2EA314846AA
:101F000011F08CF940F2EB31384611F087F9314687
:101F10002846FFF75FFC2846FFF7D6FD05F164076A
:101F2000D5F8A830B34217D8A86E03680026DB683E
:101F3000C5F8AC60984705F5FD531C330193432366
:101F40000093D4F8A80F0E4A2B46294604F0A2FDB0
:101F5000304609B0BDE8F08F57F8040FB4F97E267B
:101F60000368283A9B68282198470136D8E700BFC4
:101F7000404040008080800021520208D57802084D
:101F80007F120008F8B500F580550446D5F8AC0F6F
:101F900090F88C1302F078FF014604F5B55000224A
:101FA000043010F01BFED5F8AC0F90F8DD1302F0F2
:101FB00073FF014604F5B65000221C3010F00EFEEF
:101FC000D5F8AC1F91F8D52313466FF3861304F5AB
:101FD000B85081F8D533C2F38012143001F2DE31EB
:101FE00010F0FCFDD5F8AC3F95F8E82593F8CF3319
:101FF00004F5AD501430002A36D0002B0CBFFF2161
:102000004FF47F4112F07FFDD5F8AC3F93F8FB23EE
:10201000002683F8FB63BAB1D4F8AC301A3304F16C
:10202000640754F8230003681B6998472046FFF7AC
:102030004BFDD4F8A830B3421CD8A06E0023C4F8DE
:10204000AC300368DB689847D4F8AC301A331421FD
:1020500054F8230003685B699847D5F8A40F0EF085
:102060009CFC4FF00000F8BD002B0CBF6FF07F41CF
:10207000FF21C7E757F8040FB5F97E260368283A11
:102080009B68282198470136D3E7000010B5034B21
:102090000360044611F0E6F8204610BDB48C020837
:1020A00010B50446FFF7F2FF204638211DF0E3FF8C
:1020B000204610BD38B5094B094D0360044640F871
:1020C0007C5F11F0CFF8204640F8385F11F0CAF875
:1020D000204611F0C7F8204638BD00BFE8F50208D9
:1020E000108B020810B50446FFF7E4FF2046C0211C
:1020F0001DF0C1FF204610BD0A4B10B5044640F844
:10210000B83BFFF7C3FF04F18000FFF7BFFF204695
:10211000054B40F8503F11F0A5F8204611F0A2F809
:10212000204610BDE4520208648B020838B504460C
:1021300000F5A460FFF7BEFF04F58C60FFF7BAFF5F
:102140004FF45975635960191B68C03D9847B5F540
:10215000927FF7D104F1C400FFF7CEFF04F18C00A9
:10216000FFF794FF2046094B40F86C3F11F07AF8D6
:102170002046074B40F83C3F11F074F82046054BD1
:1021800040F8143F11F06EF8204638BDB88B0208B5
:10219000648B0208088D020810B50446FFF7ACFFF7
:1021A00020464FF490711DF066FF204610BD0000E0
:1021B00070B5244B036000F580550446224BC5F8EA
:1021C000C83400F5A650083011F04CF81F4BC5F884
:1021D000983404F5A450183011F044F804F59E50DA
:1021E0001830FFF767FF04F598501830FFF762FFCB
:1021F000174BC5F8F43204F59750143011F032F84B
:1022000041F2342540F23466635960191B68C03DC1
:102210009847B542F8D140F2BC65635960191B6814
:10222000383D9847B5F54F7FF7D14FF45075635956
:1022300060191B689847343DF9D1204611F012F817
:10224000204670BD34640208B88B0208648B020813
:102250000C8C02081F4B10B50446036000F5CC50EF
:102260000C30FFF763FF04F5C6500C30FFF722FF78
:1022700004F5C0500C30FFF71DFF04F5BA500C30C8
:10228000FFF718FF04F5B8501430FFF7FFFE04F510
:10229000B6501C30FFF7FAFE04F5B5500430FFF7D6
:1022A000F5FE04F580530C4AC3F8742604F5B350C8
:1022B000143010F0D7FF04F5AD501430FFF7FAFEDC
:1022C00004F1B000FFF774FF2046FFF727F820461F
:1022D00010BD00BF90520208648B020808B5024886
:1022E000FFF7B8FF08BD00BFCC04002010B50446BE
:1022F000FFF7B0FF204641F6D4711DF0BCFE20462A
:1023000010BD10B50446FFF753FF204641F20451BB
:102310001DF0B1FE204610BD08B558B109B9002026
:1023200008BD0269D0F81031C43001FB023100F061
:10233000FEFBF4E70120F3E7C0E900128360704779
:1023400001694B1E10B559420446594100F5F2701F
:1023500012F08EFC2169A1F10A025142514104F5AB
:10236000297012F085FC2169A1F1640041424141CC
:1023700004F55970BDE8104012F07ABC32B9012062
:102380007047484301339342FBD17047084601230D
:10239000F9E7000037B504460D466C3010F03EFFFB
:1023A000691C04F1140010F039FFA91C04F58C60BD
:1023B00010F034FFE91C04F5A46010F02FFF04F0C6
:1023C000EBFA0546FEF7A2FF04F2E45301460D4A7C
:1023D00000932846234604F08CFB04F0DDFA054602
:1023E000FEF794FF04F2FC5301930323014600938C
:1023F0002846054A234604F04DFB4FF0000003B089
:1024000030BD00BF19230008932700082DE9F04FC5
:1024100089B0C94D05921E462B68DFF830B3BFF373
:102420005B8F13F0010F04460F460CD128461DF0B8
:1024300024FE40B1D4F8E0352846D3F8A030CBF8DC
:1024400000301DF026FE10F0DFFF6FF07F4304F137
:102450008C05009300231A4639460190284610F057
:1024600070FA28469DF8541010F07FFBB4F99C30A8
:10247000DBF80010C91A082200234908284604F195
:10248000140A10F009FF5146284610F04BFF0121B5
:10249000284610F0C3FEDBF80030B4F99A70A3F1BF
:1024A000100811F063F80368DB689847149B0293E7
:1024B00004F1C40508370D2300EB80003A46019370
:1024C000009043462846082100F07AFA4FF47F42F4
:1024D0000421284600F01EFB11F048F802220146B4
:1024E000284600F02EFCDDE91212284600F05EFBC3
:1024F0003146284600F01BFB11F038F80027034650
:1025000005222846059900F032FC5146284684F8F9
:10251000D97010F007FF2846012110F07FFE04F566
:102520008463049304F5866804F5F275B4F9D490D5
:102530000323A9F10809B9FBF3F902F00FFC149A7F
:1025400006460A212046FFF719FF049A009052F828
:10255000043F049241461022304602F001FE4046FC
:10256000FDF748FE059B754AC0F11001404420F07C
:1025700055F9B4F9CC2009F1040307FB0322B4F99F
:10258000D23007920833069310F0F0FF0168C96853
:102590008847012600EB8000DDE906324146CDE99F
:1025A00000900296284612F015FAFEF7AFFE644A34
:1025B00023460146284612F066FB2846002112F009
:1025C00057FB2846032112F0E6FA5146284610F040
:1025D000A9FE2B6828469B68314637449847032F4D
:1025E00008F1100805F1C005A0D1149A022A28BFED
:1025F00002220A212046FFF7C1FE2061C02000FB15
:1026000002400025314600F5F27012F031FB0296CF
:102610000195B4F9F231083304F13C070093DBF87B
:1026200000302A46294638460FF05CFF3846042120
:102630000FF0ACFF38464FF6FF710FF0B7FF294699
:1026400038460FF0C6FF5146384610F06BFE29465B
:10265000384610F0E3FDD4F8E025B4F94E30D2F856
:10266000A4200093D21A02EBD272DBF80030324180
:102670002946504610F0FEFCD4F8E035D3F8A420EB
:10268000009229462A4604F16C00D3F8A0300FF0DE
:10269000B0FFD4F8E03584F88160D3F8A4A010F03E
:1026A00065FF0368DB689847D4F8E035D3F8A020CD
:1026B00002EBD27242FA06F7814610F057FF036828
:1026C000DB68984704F58C68043F09EB490900EB87
:1026D0004000CDE90070AAEB09032A461949029689
:1026E000404612F077F9FEF711FE23460146144AE0
:1026F000404612F0C8FAD4F8E035B4F97024D3F8A3
:10270000A0100296B4F97234CDE9002304F5A46751
:10271000B4F96A348A1A38460B4912F05BF9FEF7AD
:10272000F5FD074A01462346384612F0ACFA284622
:1027300009B0BDE8F08F00BFA0240020B452020809
:1027400093270008B8520208BB520208A4240020B4
:1027500010B5044604F020F904F2E45104F0E1F964
:1027600004F01AF904F2FC5104F0AFF904F114007A
:1027700010F06BFD04F16C0010F067FD04F58C6047
:1027800010F063FD04F5A46010F05FFD4FF0000051
:1027900010BD2DE9F0410446002867D000F58C6794
:1027A0008F4216D1FFF7D4FF206858B10368D4E9EF
:1027B00001125D682346A8472046FFF7C1FD0020AF
:1027C000BDE8F0816368002BF6D0A06821469847E9
:1027D000F2E700F5A4658D4202D1FFF7B9FFEBE700
:1027E00000F5F273994202D101232361E4E700F579
:1027F0002973994201D10A23F7E700F559739942E9
:1028000001D16423F1E791F800804E78B8F1000F10
:1028100017D13C3046B14FF47F410FF0C7FE012184
:10282000384612F025FAC7E74FF47F010FF0BEFEDD
:102830003146384612F01CFA39462046FFF7A9FF08
:10284000BAE7B8F1010FB7D13C302EB1FF210FF03C
:10285000ADFE41462846E4E74FF47F010FF0A6FEA7
:102860003146284612F004FA2946E6E70120A7E798
:10287000B0F908007047B0F90A007047B0F90C00D1
:102880007047B0F90E007047B0F910007047B0F90A
:1028900012007047407D7047417570472DE9F34144
:1028A000089E04461D46B0F90A30B0F90800301AF7
:1028B0000090EB1A04F1500090460F460FF07FFB9A
:1028C000B4F90820B4F90A30B21A0092EB1A424661
:1028D000394604F1B8000FF0C6FF94F818317BB107
:1028E000B4F90820B4F90A30B61AEB1A4246394650
:1028F00004F18000089602B0BDE8F0410FF0B3BFCC
:1029000002B0BDE8F0812DE9F341089E04461D4662
:10291000B0F90830B0F90A00301A0090EB1A04F14F
:10292000500090460F460FF09FFBB4F90A20B4F90F
:102930000830B21A0092EB1A4246394604F1B80048
:102940000FF031FF94F818317BB1B4F90A20B4F9D3
:102950000830B61AEB1A4246394604F18000089650
:1029600002B0BDE8F0410FF01EBF02B0BDE8F0813B
:1029700070B5044605291AD8DFE801F0030F1919CC
:1029800003170B4904F150000FF023FE2368204683
:102990009B6CBDE8704000211847006A28B10368AD
:1029A000D4E909125D682346A8470021EAE770BD13
:1029B0008080800010B103689B6818477047000052
:1029C0002DE9FF470C9E01811F464FF0FF33C36482
:1029D000FB181944731E0E9D42811A440D9B818180
:1029E0005B1BC281C0E90E35044607824682012284
:1029F00000210A208D4256DC226404F58470002DEB
:102A000054D02D4A009510211FF008FF0025012306
:102A10002A462946CDE9015300963B4604F1500071
:102A20000FF060FD10F0A2FD04F1B8086FF07F47D1
:102A300004F1F00101902B462A46404600970FF022
:102A400080FFD4E90E3203EB0209D4F8E800B4F9B0
:102A500010A009F10109AA4218BF09F10109FFF705
:102A6000A9FFB4F9CA305FFA89F9F61A00FB19A177
:102A700006EBD6762B4672104908404610F00CFC47
:102A800010F074FD2B46CDE900700C4904F1800074
:102A90002A460FF056FF23689B6C2946204604B057
:102AA000BDE8F047184742430131A3E7044A10212B
:102AB0001FF0B4FEAAE700BFC2520208D578020890
:102AC000D3520208C36F994210B5044609D0503062
:102AD0000FF05CFD236820469B6CBDE81040002190
:102AE000184710BD10B5036FC0E90C12044690F8EA
:102AF0002C00002818BF114699420AD004F150005A
:102B00000FF054FD236820469B6CBDE81040002167
:102B1000184710BD38B515460446FFF7D3FF2946C0
:102B200020464FF47F42BDE83840FFF7DBBF436CDF
:102B300099420A46B8BF1A46836C9A42A8BF1A4601
:102B4000C36C934273B504462ED0C264E56BB830B3
:102B500004F1F00104F584735DB90092182210F0BD
:102B60006AF8236820469B6C00219847012002B038
:102B700070BD266C92FBF6F506FB1522002AB8BF45
:102B80005242CDE90052182210F055F8E36C002BA8
:102B9000E7DA226C93FBF2F3002BE2D1A36B234420
:102BA0002D2283F8EE20DCE70020E0E7C0E91112D7
:102BB000C16CFFF7BCBF90F81831022B2DE9F04132
:102BC000044600F08580D0E90E72013B1744B0F94D
:102BD0001050002A18BF013700F1B806042B00F28C
:102BE0009D80DFE803F02F9B03527C00D0F8E800C3
:102BF000FFF7E0FEB4F9CA30B4F91220D21AB4F9E2
:102C00009030A91EC91A94F8E4307B4300FB1311DD
:102C100002EBD272304600235210490810F03CFB00
:102C2000B4F9C450D4F8B000B4F9C67004F1800609
:102C3000023510B10368DB68984700233A1A294629
:102C4000304643E0B0F9CA30B0F91220B0F9901024
:102C5000D21AB0F99230D21A691A02EBD27200235A
:102C600052104908803010F017FBD4F8E800B4F98E
:102C70001050FFF79FFE94F8E430B4F98E207B43A8
:102C800000FB135100234908DAE7D0F8E800FFF70A
:102C900091FEB4F9CA30B4F9122094F8E410D21AB3
:102CA000794300FB115102EBD27200235210490804
:102CB000304610F0F1FAB4F99030B4F91010B4F9CC
:102CC000C620C91A4908002304F1800010F0E4FA74
:102CD000236820469B6CBDE8F04100211847D0F8DE
:102CE000E800FFF767FEB4F9CA30B4F9122094F88F
:102CF000E410D21A794300FB115102EBD272002387
:102D000052104908304610F0C7FAB4F9C400B4F9BB
:102D10009010B4F9C6200023411AD5E7D0F8E80096
:102D2000FFF748FEB4F9CA30B4F91220D21A94F869
:102D3000E43002EBD2727B4300FB135152100023AC
:102D4000A1E770B500F1B8060446154630460FF00D
:102D5000D1FEE9B230460FF008FF2046FFF72BFF07
:102D6000236820469B6CBDE870400021184770B571
:102D700000F1800604460D4680F8182119463046B9
:102D80000FF0B8FE2946304600220FF027FF2046FC
:102D9000FFF711FF236820469B6CBDE870400021BF
:102DA000184790F82C308B4210B5044611D0D0E96A
:102DB0000C2380F82C1000290CBF11461946503006
:102DC0000FF0F4FB236820469B6CBDE81040002107
:102DD000184710BDC0E908128362704710B5C8B12A
:102DE00009B9002010BD0379022B0DD84FF4907261
:102DF0005343C2188468D2F80421B83301FB04217C
:102E00001844FFF794FEECE7D0F85C3B00F5316026
:102E10001944F6E70120E5E770B5044603F0BCFD70
:102E200004F6F86103F07DFE04F1B80510262B6866
:102E30002846DB689847D5F8603305F55870DB689D
:102E40009847D5F8C03605F5D860DB689847A35990
:102E5000A019DB6838369847B82E05F59075E6D18D
:102E60004FF4436563596019DB68C0359847B5F581
:102E7000676FF7D104F5316010F0E7F904F6D82058
:102E800010F0E3F904F56B6010F0DFF9D4F8E80E08
:102E90000368DB689847D4F8EC0E0368DB68984752
:102EA0004FF0000070BD000073B5044600F1B80596
:102EB00010262B6864219B6828469847D5F8603314
:102EC00064219B6805F558709847D5F8C036642191
:102ED0009B6805F5D8609847A359A0199B686421A1
:102EE00038369847B82E05F59075E2D14FF4436512
:102EF000635960199B686521C0359847B5F5676FC0
:102F0000F6D1642104F5316010F088F9642104F6EB
:102F1000D82010F083F9652104F56B6010F07EF97C
:102F2000D4F8E80E036866219B689847D4F8EC0E45
:102F3000036866219B68984703F02EFD0546FEF75F
:102F4000E5F904F6F863014600932846034A234650
:102F500003F0CFFD4FF0000002B070BDDD2D000882
:102F60002DE9F04F8DB083460D4610F0FFFA03684F
:102F7000DB68984700EB80030593043B5B080893EC
:102F8000059B083309932B1D5C4606935F464FF063
:102F9000000ADBF8F42EDBF8F03E92F8FC23D3F8BD
:102FA000A010A94E002A14BF04220322A1F1080395
:102FB0000292072204F1B805019203EBD373059A3C
:102FC00000925B10069A062091FBF0F12846FFF76D
:102FD000F7FCFF2204212846FFF79CFD10F0C6FAFB
:102FE000022201462846FFF7ACFE5FFA8AF3194633
:102FF000DBF8F40E079301F080FF01462846FFF747
:1030000096FDDBF8F43E914A93F8FC33002B08BFA1
:10301000164610F0ABFA3146034605222846FFF764
:10302000A6FEFEF773F900231A4601462846FFF76D
:10303000D1FED4F8B830012128465B6C9847D4F80B
:10304000B83028461B6B9847D4F8B83000F1040814
:10305000DB6A28469847DBF8F03ED3F8A020D4F886
:10306000B8300A9281461B6B284698470A9A131A71
:10307000DBF8F42E92F8FC230721002A14BF042267
:10308000032204F58366019108990292083B4A469F
:10309000304600914146FFF793FC6D4A02213046CD
:1030A000FFF738FD10F062FA012201463046FFF7C3
:1030B00048FE00213046FFF73AFDDBF8F43E634A54
:1030C00093F8FC336049002B08BF1146884610F086
:1030D00011FA4146032203463046FFF748FED4F872
:1030E000183430469B6A9847D4F8B8300B905B6B25
:1030F00028469847D4F818348146DB6B3046984709
:10310000D4F81834A9EB00099B6B30469847D4F8E3
:1031100018240A90D26B30469047DBF8F42E0B99B6
:1031200092F8FC23484E002A14BF0422032204F51F
:10313000EF680723CDE9000302920A9B4A46404606
:10314000FFF73EFC424A02214046FFF7E3FC10F045
:103150000DFA012201464046FFF7F3FD00214046EB
:10316000FFF7E5FCDBF8F43E384A93F8FC33002B1C
:1031700008BF164610F0BEF903220346314640460A
:10318000FFF7F5FD0799DBF8F40E01F075FE8046B8
:1031900010F03AF96FF07F4307F110060093002317
:1031A0001A464146019030460FF0CBFB02213046D3
:1031B0000FF0DBFC3B699B690793D4F8B8302846D5
:1031C0009B6A98473B6981469B6B3046984700EB6A
:1031D000D07009EBD9734FEA6009C9EB6309D4F8E1
:1031E000B8302846DB6A9847D4F8B8308046DB6BA5
:1031F000284698473B6900EBD07008EB6005DB6B15
:103200003046984700EBD070A5EB60020023079D85
:1032100049463046A847069B099A0AF1010A134419
:10322000BAF1030F04F5907407F1380706937FF4A1
:10323000B0AE0BF53E730BF567690BF68B680BF5BB
:1032400043650027079305E030530208B65A020889
:1032500080808000DBF8F43E079893F8FC33002B65
:1032600014BF41464946DBF8F03E0891D3F8A04030
:1032700094FBFAF47C43231D0693DBF8F8325B6B76
:103280009847DBF8F02E0446D2F8A06096FBFAF6D9
:1032900010F06CF90268D2689047083E012300EBF9
:1032A0008000069A08990293CDE9006004F10803B2
:1032B000284611F08FFBFEF729F8002301461A4635
:1032C000284611F0E0FC01372846032111F063FC89
:1032D000032F09F1090908F10C0805F1C005B9D15E
:1032E000DBF8F03EBBF93E2CD3F8A0100598009017
:1032F000A1F108030BF531650024042603EBD37319
:1033000001EBD1715B10CDE9016428460832491008
:10331000FFF756FB3146FF222846FFF7FBFB10F074
:1033200025F9022201462846FFF70BFD42F21072F2
:1033300028460121FFF73AFC4FF496712846FFF723
:10334000F6FBDBF8F43E344E93F8FC23334BA242F9
:1033500008BF1E4610F00AF93146034605222846EA
:10336000FFF705FDFDF7D2FF012701462346224660
:103370002846FFF72FFD8BF8257B10F045F80BF65C
:10338000D8256FF07F4623462246019024490096B7
:1033900028460FF0D6FA284602210FF0E6FBBBF9CB
:1033A000223BBBF91A0BBBF9201B03EBD37300EBD9
:1033B0006300BBF9EA3A03EBD372DBF8F03ED3F8D3
:1033C000A03003EBD373C1EB630101EBD171A0EB30
:1033D00062022346394128460FF05EFF0A23CBF8EC
:1033E000083039460BF54F6011F042FCBBF9C05074
:1033F000BBF9C27010F0BAF808350837CDE90060A3
:1034000008490BF56B603B462A460FF09AFA2046B6
:103410000DB0BDE8F08F00BF3C53020835530208E1
:1034200047530208D578020838B50446FDF792FFE5
:103430001F4B236000254FF47F420123C4E90D2375
:103440004FF00041C4E90F536FF00043C4E911137A
:103450004FF0FF33E364C4E90855A56284F82C50AB
:10346000256304F15000FDF775FF124B2365C4E995
:103470001C5584F87850E56704F18000FDF788FF5B
:1034800004F1B800FDF784FF2946182204F1F0008A
:103490001FF08EFA1022294604F584701FF088FA76
:1034A00084F818510DF094F9C4F81C01204638BD79
:1034B000E4520208648B0208017902292DE9F041E7
:1034C00098BF0021044688BF012100F53160FFF755
:1034D00068FC04F1B80600254FF6FF77E9B2D4F88E
:1034E000F40ED6F84C8001F008FD4FF47F424045C1
:1034F00014BF3946FF213046FFF7F4FA2179A1EBDA
:10350000050CDCF1000141EB0C0130460135FFF701
:1035100048FC032D06F59076E0D1A1684B1E594278
:10352000594104F5436011F0A3FBA168A1F10A021F
:103530005142514104F54F6011F09AFBA168A1F18D
:1035400064004142414104F55B60BDE8F04111F087
:103550008FBB00002DE9F041D0F8F43E93F8FD2335
:10356000022A044600F56B6048D193F8D0532F49E6
:103570002F4B0022954218BF19460FF02FFB01F088
:10358000EDFB237B90F88C63B34202D0032B38D041
:103590002673FEF703F92749FEF7ACF9FEF7FEF8AC
:1035A0002549FEF7D1F900272646B846F9B2D4F8E6
:1035B000F40E01F0A2FC014606F58360FFF7B7FAAE
:1035C000D6F80411D6F864340546C91A06F5EF603A
:1035D000FFF7ADFA0137054348EA0505032F5FFA07
:1035E00085F806F59076E1D1B8F1000F02D02046BB
:1035F000FFF762FF4FF00000BDE8F0810F490022A5
:10360000BBE7012EC4D104F1B8070025E9B2D4F814
:10361000F40E01F072FC013501463846FFF787FAD7
:10362000032D07F59077F1D1B2E700BF4D530208A3
:10363000C17102085453020858530208D578020891
:1036400000F54363994273B5044608D10123A36092
:1036500000252046FFF730FF284602B070BD00F578
:103660004F63994201D10A23F1E700F55B63994268
:1036700001D16423EBE7D0F8E83E8B4214D1D0F8B7
:10368000F40E90F88C33012B46D10193D4F85C3BB7
:10369000642253430093D4F84433D4F82422D4F85A
:1036A000041102F0EFFAD3E7D0F8EC3E8B421AD1C6
:1036B000D0F8F43E93F88C33012B2DD100F1B806ED
:1036C000002596F82C3043B1E9B2D4F8F40E01F09D
:1036D00014FC01463046FFF72AFA0135032D06F5A2
:1036E0009076EED1B4E700F5316399420DD000F148
:1036F000B80399420CD000F5EC7399420AD000F55A
:103700003E739942A4D1022300E0032323719FE773
:103710000023FBE70123F9E708259AE72DE9F84F95
:10372000694B03600323037100260A230546836067
:1037300006731030FDF72CFE05F14800FDF728FE5A
:1037400005F18000FDF724FE05F1B800FFF76CFEDF
:1037500005F5EC70FFF768FE05F53E70FFF764FEB7
:1037600005F58360FFF760FE05F5A760FFF75CFED7
:1037700005F5CB60FFF758FE05F5EF60FFF754FE47
:1037800005F69800FFF750FE05F6B810FFF74CFE5F
:1037900005F6D820FDF7FCFD05F53160FFF744FE86
:1037A000DFF830B1DFF8309105F5436405F5676A5D
:1037B0002046FDF7CFFD6FF07F4323630127C4F858
:1037C00000B084F8346084F83560C4E90866C4E960
:1037D0000A6604F138004FF0FF38FDF7BBFDC4F86E
:1037E0003890266684F86470A66684F86C6084F865
:1037F0006D6084F86E6084F86F70C4F87080A4F80F
:103800007860C4E9166604F17C00FDF7A3FDC4F8F6
:103810007C90C4F8A46084F8A870C4F8AC6084F804
:10382000B06084F8B16084F8B26084F8B370C4F812
:10383000B480A4F8BC60C4E92766C0345445B7D14D
:10384000224B03F1180618685968224603C2083350
:10385000B3421446F7D11A889B78A3701C4B228080
:1038600003F1240105F68B6253F8040B42F8040BB4
:103870008B42F9D105F56B60FDF78AFDFDF78EFFF0
:1038800000F5BA500C30C5F8E80EFDF787FF00F5DB
:10389000C6500C30C5F8EC0E0CF09AFFC5F8F00ECF
:1038A00001F05CFA002385F8043FC5F8F40EC5F872
:1038B000F83EC5F8FC3EC5F8003FC5F8083FC5F81E
:1038C0000C3F2846BDE8F88F68530208544D0208A3
:1038D0006F4D0208E8F50208108B020810B50A4C7B
:1038E0002368BFF35B8FDB070CD420461CF0C5FBBD
:1038F00040B10648FFF712FF05481DF0BDFF204606
:103900001CF0C7FB014810BDA8240020AC240020F7
:10391000AD39000870B5234B234E0360C0F8B06E7C
:10392000044600F56B600FF09DFC4FF45B65635936
:1039300060191B68C03D9847B5F5376FF7D104F59E
:103940003160FEF7D9FBC4F8D86A04F6D8200FF02E
:1039500089FC40F6B815635960191B68A5F5907588
:103960009847B5F5CB6FF6D1635960191B68A5F57B
:1039700090759847B5F53E7FF6D1635960191B687D
:10398000A5F59075984715F1680FF6D18025635914
:1039900060191B68383D984715F1280FF7D120466C
:1039A00070BD00BF68530208B48C020808B5024815
:1039B000FFF7B0FF08BD00BFAC24002010B50446DF
:1039C000FFF7A8FF20464FF471611CF054FB20461E
:1039D00010BD70B190F84C30022B06D800EB83007C
:1039E000C36B0B44C36300207047836C0B44836438
:1039F000F9E7012070472DE9F041044602F0CCFFC1
:103A000004F6046103F08DF8201D0FF01EFCD4F8BD
:103A1000F80DFEF79DFE04F1540704F25C46FC2508
:103A200040F25C4863596019DB6898473B68384648
:103A3000DB68984733683046DB6805F59075984732
:103A4000454507F1380706F1C006EBD140F2947501
:103A500040F6942663596019DB68C0359847B54233
:103A6000F8D104F29C600FF0F0FB04F25C700FF0F0
:103A7000ECFB04F614300FF0E8FB04F634400FF0D2
:103A8000E4FB04F66C400FF0E0FB04F62C500FF062
:103A9000DCFBD4F8EC0D0368DB689847D4F8F00D34
:103AA0000368DB689847D4F8F40D0368DB6898472F
:103AB000FDF774FE0021FDF78DFE4FF00000BDE81C
:103AC000F08100002DE9F74F0446FDF767FEFDF792
:103AD000FDFEFDF763FEFDF71DFFD4F8003E93F8F1
:103AE000FD23022A0BD193F8D0036F496F4B0022BC
:103AF000904218BF194604F25C700FF06FF804F1A1
:103B0000FC060025E9B2D4F8000E01F0F6F9013503
:103B100001463046FFF70BF8032D06F59076F1D1FC
:103B2000E56B002D40F09680256C002D40F09480D0
:103B3000656C2DB30226236D5D4302F02DFFD0F896
:103B40008C30226D142B38BF142353433C22534333
:103B50000A22B3FBF2F336B9D4F8002E92F8FD2313
:103B6000022A08BF6D42002700972A463146D4F842
:103B7000000E01F0CFFF0E3604EB8606C5B277606B
:103B8000D4F8003E93F8F13304F66C46002B65D070
:103B90004749304610F074FFD4F8003E93F8F033F4
:103BA00004F62C57002B5BD04249384610F068FFD2
:103BB000D4F8003ED3EDFA7AFCEEE77A04F614303E
:103BC00017EE903A99B2FEF7B2FFA36CABB1D4F8FE
:103BD000602B0A2101FB032104F61430FEF7A7FF36
:103BE000D4F8000E0023A36490F8F0332BB190F8C2
:103BF000F123D4F8601B02F053FBD4F8003E93F895
:103C0000CF3304F29C6B04F25C4A04F21C5904F2B8
:103C1000DC5853B3D4F8003E93F88C3303F0FD0323
:103C2000012B27D1584610F0EBFF504610F0E8FF6B
:103C3000484610F0E5FF404610F0E2FF384610F02D
:103C4000DFFFD4F8003E93F8F03333BB304610F07A
:103C5000D7FF25E000266EE701266CE7164998E7B6
:103C60001649384610F00CFFAFE706F069F8037903
:103C7000032BCFD0D4F8F80DFEF76AFD584610F0AC
:103C8000DBFF504610F0D8FF484610F0D5FF404605
:103C900010F0D2FF384610F0CFFF304610F0CCFFC6
:103CA000284603B0BDE8F08F4D530208C1710208E9
:103CB0008453020888530208855302088D53020872
:103CC0002DE9F3410446012104300FF0A7FA04F175
:103CD000540704F25C46FC2540F25C4863596421B9
:103CE0009B68601998473B6864219B6838469847F1
:103CF000336830469B68642105F5907598474545C3
:103D000007F1380706F1C006E8D140F2947540F695
:103D10009426635960199B686421C0359847B54261
:103D2000F7D1032384F84C30002104F1FC00FFF7A5
:103D300038F8002104F50770FFF733F8002104F587
:103D40004F70FFF72EF8D4F8003E93F8FD33022BA6
:103D500009D1652104F25C700FF060FA632104F26E
:103D60009C600FF05BFA642104F614300FF056FAF1
:103D7000652104F634400FF051FA642104F66C40DA
:103D80000FF04CFA642104F62C500FF047FAD4F8E7
:103D9000003EB3F8FE33DB070FD5FDF7FFFC012132
:103DA000FDF718FD1449D4F8F00D10F069FED4F8B1
:103DB000F00D036866219B689847D4F8EC0D036802
:103DC00066219B689847D4F8F40D036866219B68C8
:103DD000984702F0E1FD0546FDF798FA04F6046302
:103DE000014600932846054A234602F082FE4FF022
:103DF000000002B0BDE8F08193530208D3390008F7
:103E00002DE9F04F8DB0044608910A920FF0AEFBF9
:103E10000368DB68984700EB8003059304F25C437A
:103E20000693059B08330993089B043326460793A2
:103E3000A0464FF0000AD4F8002ED4F8FC3D92F8CA
:103E4000FC23D3F8A000002A14BF0422032202920C
:103E5000072206F1FC05A0F108030192059A0092E1
:103E60000621079A9B0093FBF1F390FBF1F12846A2
:103E7000FEF7A6FDFF2204212846FEF74BFE0FF0B9
:103E800075FB022201462846FEF75BFF002128460B
:103E9000FEF74DFED4F8003ED94993F8FC23D94BE8
:103EA000002A08BF194689460FF060FB49460346C1
:103EB00003222846FEF75BFFFDF728FA00231A4687
:103EC00001462846FEF786FFD6F8FC3028465B6C94
:103ED000012198475FFA8AF1D4F8000E00F0CCFF78
:103EE00083460FF091FA6FF07F4308F15409009375
:103EF00000231A465946019048460EF022FD022141
:103F000048460EF032FED8F854309B691F46D6F86A
:103F1000FC3028469B6A9847D8F854208346926B19
:103F20004846904700EBD0700BEBDB734110C1EBC0
:103F30006301D6F8FC300B91DB6A28469847D6F827
:103F4000FC208346D26B28469047D8F8543000EBCB
:103F5000D0700BEB600BDB6B4846984700EBD070E2
:103F6000ABEB60020B9900234846B847D6F8FC300B
:103F700028461B6B9847D6F8FC308346DB6A2846F8
:103F80009847D4F8FC3DD3F8A020D6F8FC300B922B
:103F90001B6B074628469847D6F8FC108146C96B2C
:103FA000284688470B9A9849A2EB09090125A9F1EF
:103FB00008030BF10402CDE90105009306983B4686
:103FC00010F008FDFDF7A2F900231A4601460698F5
:103FD00010F059FE069B099AC0330693079BAA442A
:103FE0001344BAF1030F06F5907608F138080793E9
:103FF0007FF421AF04F6942904F294764FF0000880
:1040000004F54F7AD4F8FC3DD3F8A010D4F8003E64
:1040100093F8FC3314398908002B40F02C81CB46EF
:10402000D4F83C3306915B6B504698470699059B44
:1040300002950A1D08FB02F2CDE90013043200F1DB
:1040400008035946304610F0C5FCFDF75FF9002320
:1040500001461A46304610F016FE08F101083046B7
:10406000032110F098FDB8F1040F09F10C0906F1D5
:10407000C006C7D1012104F6141010F0F9FDD4F8E0
:10408000003E93F8FC33002B40F0F880D4F8FC3A63
:10409000236501260296B4F90E310193B4F9043177
:1040A0005A49083B04F29C650093B4F90631042296
:1040B000284610F08FFCFDF729F9002301461A4627
:1040C000284610F0E0FDB4F90451B4F906910FF060
:1040D0004DFA6FF07F48083509F1080901904B4609
:1040E0002A4604F25C704949CDF800800EF029FCA4
:1040F000D4F8FC3D0A99089AD3F8A03000250A4468
:104100000521CDE9011503EBD3730599009104F660
:1041100014393341043A063B521A48460421FEF74B
:104120004FFCFF2204214846FEF7F4FC0FF01EFA74
:10413000022201464846FEF704FED4F8003E4846F7
:10414000B3F80214FEF7F3FCD4F8003E4846B3F887
:104150000024B3F80214FEF729FD0FF007FA2C49EA
:10416000034603224846FEF702FEFDF7CFF82B4632
:104170002A4601464846FEF72DFE314684F8296B53
:104180004846FEF70EFE0FF0F1F904F63449CDE98A
:1041900000802B462A4648461E490EF0D2FBB4F951
:1041A0001E2BB4F91C1B2B460832083148460FF071
:1041B00073F8059BB4F9202B02960193B4F9243BC4
:1041C0001549043B03EBD373334104F66C49009368
:1041D000B4F91E3B0532484610F0FCFBFDF796F89B
:1041E0002B4601462A46484610F04DFD059BB4F982
:1041F000782C02960193B4F97C3C00930EE000BF4A
:1042000030530208B65A020898530208D5780208BB
:104210009C530208A05302088553020804F62C5947
:10422000B4F9763C17490532484610F0D3FBFDF748
:104230006DF82A4601462B46484610F024FDB4F995
:10424000A297B4F91E6B0FF091F90368DB689847E9
:1042500007460FF08BF9A6EB09060422F61BCDE901
:1042600000800949A01809EB56030EF06AFB2846A6
:104270000DB0BDE8F08F09F1300BD1E6D4F80C3B5E
:1042800006E700BF8D530208DC53020810B5002179
:10429000044600F2947010F0EBFC04F65400002188
:1042A00010F0E6FC04F61410002110F0E1FC04F616
:1042B000D4100021BDE8104010F0DABC2DE9F04F19
:1042C000D0F8EC3D8B4287B004460D4600F00381E8
:1042D000D0F8F43D8B4200F0FE80D0F8F03D8B42E8
:1042E0000BD100237D49D0F8000E059305AA01F0FB
:1042F00057FB002007B0BDE8F08F00F29C639942A5
:104300000DD1D0F8000E90F8D03323B100237449BA
:10431000059305AAEBE77349059305AAE7E7D0F8EB
:10432000F83D8B4207D1D3F81021197BD0F8000E4D
:1043300001F0ECFDDDE700F62C5399420ED1D0F8E8
:10434000000E90F8F03313B101F0FAFFD1E790F8C6
:10435000F123D4F8601B01F0A3FFCAE700F66C4319
:10436000994211D000F29476B14216D000F654066C
:10437000B14225D000F61416B14223D000F6D4166F
:10438000B14224D1032509E0D0F8000E90F8F113D2
:1043900081F0010101F0B2FFABE700252046FFF7F5
:1043A00075FF0121304610F063FCD4F8003E93F80D
:1043B000FC3304EB85053BB9D5F8F43A236598E75F
:1043C0000125EBE70225E9E7D5F8043BF6E700F124
:1043D000FC0700F25C490026BA46AF4273D197F859
:1043E0002C805FFA86FBB8F1000F38D05946D4F81C
:1043F000000ED4F8F88D00F03FFDD4F8003E93F89D
:10440000FC33002B14BF0422032201464FF00200AC
:10441000FB6CCDE90220344A3448CDE90020344811
:10442000344A08BF02464046FDF7F0FFD4F8F88D45
:10443000FCF76CFF002301461A464046FDF77CFF5F
:10444000D4F8F80D42F21071C660FDF7A3FF0136F3
:10445000032E07F5907709F1C009BED118E0414657
:104460005046FEF79EFC414604F50770FEF799FCA6
:10447000414604F54F70FEF794FC414604F61430B3
:10448000FEF78FFC01212846FEF78BFC84F84CB028
:1044900004F61433AB427FF42CAF28460121FEF71B
:1044A00080FC032384F84C3050460021FEF779FC51
:1044B00004F507700021FEF774FC002104F54F702D
:1044C000FEF76FFC15E74D45C1D1D4F8000EF1B2EF
:1044D00001F0F0FCBBE708200CE700BFA85302087E
:1044E000AD530208B2530208806967FF80969800B6
:1044F000B65A020830530208F8B5564B044640F845
:10450000043BFCF745FF0023C4E90F33C4E9113332
:10451000032384F84C300123236504F15400FCF795
:1045200037FF04F18C00FCF733FF04F1C400FCF703
:104530002FFF04F1FC00FEF777FF04F50770FEF78C
:1045400073FF04F54F70FEF76FFF04F25C40FCF759
:1045500033FF04F21C50FCF72FFF04F2DC50FCF791
:104560002BFF04F29C60FCF727FF04F25C70FCF761
:104570000FFF04F2947504F694262846C035FCF724
:104580001BFFB542F9D1344B03F130061868596866
:104590002A4603C20833B3421546F7D12F4B03F125
:1045A000300704F6C4263A4618685968354603C5EC
:1045B0000833BB422E46F7D10FCA04F6F42585E82E
:1045C0000F00274B0FCB04F6043585E80F0004F6E7
:1045D0001430FEF729FF04F63440FCF7D9FE04F648
:1045E0006C40FCF7E9FE04F62C50FCF7E5FEFDF705
:1045F000D5F800F5BA500C30C4F8EC0DFDF7CEF844
:1046000000F5C0500C30C4F8F00DFDF7C7F800F508
:10461000C6500C30C4F8F40DFDF7C0F800F5CC50CE
:104620000C30C4F8F80D0CF0D3F8C4F8FC0D00F011
:1046300095FB002384F8103EC4F8000EC4F8043E35
:10464000C4F8083EC4F80C3EC4F8143EC4F8183E42
:104650002046F8BDC0530208944D0208C44D02081C
:10466000044E020810B50A4C2368BFF35B8FDB07CA
:104670000CD420461BF001FD40B10648FFF73CFF7B
:1046800005481DF0F9F820461BF003FD014810BD58
:10469000BC330020C033002035470008244B70B5E0
:1046A0000360044600F62C50FDF704FD04F66C4050
:1046B000FDF700FD04F63440FDF7E8FC04F6143085
:1046C000FDF71AFD40F6D41540F2D466635960191F
:1046D0001B68C03D9847B542F8D104F25C70FDF705
:1046E000D5FC04F29C60FDF7E5FC40F2DC55635913
:1046F00060191B68C03D9847B5F5677FF7D14FF447
:104700004F75635960191B68A5F59075984715F1A9
:10471000240FF6D1C425635960191B68383D9847AA
:104720001C2DF8D1201DFDF7B1FC204670BD00BF47
:10473000C053020808B50248FFF7B0FF08BD00BF2C
:10474000C033002010B50446FFF7A8FF204640F60E
:104750001C611BF090FC204610BD4FF0000070471C
:104760004FF0000070474FF00000704708B5806EB2
:1047700003210CF05CFC4FF0000008BD61B990F81B
:10478000313083F0010380F83130012213B1034945
:104790000DF076B90249FBE7704700BF000000202A
:1047A0001400002010B5034B036004460EF05AFDC0
:1047B000204610BDBC82020810B50446FFF7F2FF88
:1047C000204634211BF057FC204610BD10B5034B8A
:1047D00003600446FCF7A2FD204610BD18540208F1
:1047E00008B50248FFF7F2FF08BD00BFD042002025
:1047F00010B50446FFF7EAFF20466C211BF03BFC96
:10480000204610BD70B51E4E3568BFF35B8F15F0A6
:10481000010532D130461BF030FC70B3194C1A4BF5
:104820002046102240F8043B02212B460FF00FFCDB
:104830002A4629462B4604F124000FF008FC134BAE
:10484000E564C4E915344FF48063A4F85E300223B4
:1048500084F860300E4B63660E4B2360C4E911553B
:1048600084F8505084F85C500BF0B2FFA0660A4800
:104870001DF002F830461BF00CFC024870BD00BF72
:10488000CC420020D042002080F50208213E0108E1
:10489000F653020818540208E147000838B500230F
:1048A00001608380837104460BF092FFA0601DF0CD
:1048B00023F8062590FBF5F303FB1500013020716A
:1048C0001DF01AF890FBF5F303FB150001300123EE
:1048D0006071A371204638BD2DE9F041044600689F
:1048E00003681B6B98470646206803689B6A9847D5
:1048F0000746206803685B6B984705462068036895
:10490000DB6A984794F904202B18F01900EBD0705B
:1049100003EBD37312EB60004FEA6303114604D438
:10492000A568D5F8A050A84202DB524222710021AE
:1049300094F90500C318024604D4A568D5F8A4501C
:10494000AB4202DB404260710022206803689C6930
:104950000123A446BDE8F0416047000038B5044695
:104960001D46084B0DF066F8074B236084F8315064
:1049700025B904492A4620460DF082F801236375C3
:10498000204638BD00000020445402082DE9F043C1
:104990000022ADF5177D05461146012343A8FFF718
:1049A000DDFFAB6EBDF91E11D3F8A420BDF91C01CB
:1049B000DFF85882521AD3F8A010091A02EBD2720B
:1049C00001EBD17100235210491043A80EF064FC92
:1049D0004FF0FF1601274FF4004143A80EF01EFCD4
:1049E0001E239622CDE90067782117A80DF0AEFEB0
:1049F000282117A800240EF011FC4FF47F03CDE905
:104A0000003478221E23962121A80DF09FFE32212A
:104A100021A80EF003FC4FF47F4978232222CDE930
:104A200000392E21602305A80DF044FE1E2105A8A3
:104A30000EF0F4FB4C232222CDE900382E216E2308
:104A40000EA80DF037FE1E210EA80EF0E7FB0EF0AB
:104A500017FD22460A23CDE900606A4950A80DF0EF
:104A6000BBFF462150A80EF0D9FB0EF043FD2246B5
:104A70001423CDE9008063495EA80DF0ADFF5021FD
:104A80005EA80EF0CBFB0EF0ABFD4FF6FF78224692
:104A90001E235C490190CDF800806CA80DF09CFFAE
:104AA0005A216CA80EF0BAFB0EF024FD22463223E8
:104AB000CDE901605349CDF800907AA80DF0F8FFD8
:104AC00064217AA80EF0AAFB0EF064FCFF262246B1
:104AD00046234C490190009688A80DF07DFF6E2179
:104AE00088A80EF09BFBCDE901670A2622466423C5
:104AF000214600962BA80DF027FD31462BA80EF07D
:104B00008DFB1423462200966421CDE9018737A846
:104B10000DF01AFD142137A80EF080FB0C200BF0CD
:104B2000FFFD394C17A90646FFF7B8FE0C2026609A
:104B30000BF0F6FD21A90646FFF7B0FE0C206660DB
:104B40000BF0EEFD05A90646FFF7A8FE0C20A660B7
:104B50000BF0E6FD0EA90646FFF7A0FE0C20E6606E
:104B60000BF0DEFD50A90646FFF798FE0C202661EB
:104B70000BF0D6FD5EA90646FFF790FE0C2066619D
:104B80000BF0CEFD6CA90646FFF788FE0C20A6614F
:104B90000BF0C6FD7AA90646FFF780FE0C20E66101
:104BA0000BF0BEFD88A90646FFF778FE0C202662B2
:104BB0000BF0B6FD2BA90646FFF770FE0C206662CF
:104BC0000BF0AEFD37A90646FFF768FEA662A86E99
:104BD0004FF0FF310BF0CDFEC4B2002CF7D10A4EDE
:104BE00056F8040B0134FFF777FE0B2CF8D1A86EB2
:104BF0000BF0C4FEA86E0BF0D0FE01200FF099FB65
:104C0000E5E700BF00540208DC41002000FFFF0080
:104C1000034BD3F85C23034B1A615A62704700BF01
:104C2000088302080000002008B5806E03689B68B6
:104C300098474FF0000008BD08B528B905F080F886
:104C40000079C31E5842584108BD70B50446806EB5
:104C500003681B6A984770B9D4F80434002B4CD011
:104C600094F8CF03FFF7E8FF002846D1D4F80434C6
:104C7000C4F888331AE0D4F80434D3B904F16C05CD
:104C80004FF4807204F5816128461DF0B8FEA66ECF
:104C90002846FBF7AFFA33680246DB6929463046FF
:104CA0009847C0B20628D7D02228D5D00024204665
:104CB00070BD94F8CF03FFF7BFFF0028CCD094F865
:104CC0007033002BC8D194F8DD33002BCED104F51E
:104CD00091654FF0FF3128460FF04AF90FF027FB9E
:104CE000012384F87033D4F80434C4F87C03C4F886
:104CF000883328460FF061F9C0E704F2044100232D
:104D0000012220460FF06FF8C4B201200FF013FB10
:104D1000CDE7000010B5064B0360044600F5916036
:104D20000FF01EF92046FCF7F9FA204610BD00BF2F
:104D30000464020808B50248FFF7ECFF08BD00BF95
:104D40004043002010B50446FFF7E4FF204640F240
:104D50007C611BF090F9204610BD00002DE9F04168
:104D6000DFF81081D8F80050BFF35B8F15F0010514
:104D70006DD140461BF081F9002868D0354C364B88
:104D8000364F2046102240F8043B22212B460FF0DC
:104D90005EF92B462021842204F124000FF057F9FC
:104DA0002F4A84F85050C4E915244FF48062A4F8C7
:104DB0005E20022284F860202A4A626604F20443DC
:104DC000294A2260C4E91135284AA566012304F561
:104DD0009160C4E9E135C4E9DD55C4E9DF55E36418
:104DE00084F85C30C4F86C2384F8705384F8D15391
:104DF000A4F8FA33C4F8FC53C4F800540FF0A6F832
:104E000097E80F0004F28C4507F1100685E80F00C3
:104E10000FCE04F29C450FC50FCE0FC596E80700D4
:104E200085E80700502207F13C0104F599601DF068
:104E300026FF4FF4B27207F18C0104F5A3601DF058
:104E40001EFF0B481CF018FD40461BF022F90148DC
:104E5000BDE8F0814043002080F50208144E0208AE
:104E6000213E0108B05A0208046402080000010152
:104E7000354D00083C430020032928BF032100EBE7
:104E80008100D0F88C0470470B2928BF002100EB6B
:104E90008100D0F89C047047582928BF582101F59B
:104EA000A37150F821007047022970B505460C46E1
:104EB00021D800F591664FF0FF3130460FF058F8D9
:104EC00095F8FC33002B42F2107308BF4FF47A734D
:104ED00007EE903A05EB840494EDE47AF8EEE77A75
:104EE000304667EE877AFDEEE77A17EE904A0FF0CC
:104EF00064F8204670BD0024FBE7022970B5054622
:104F00000C4625D800F591664FF0FF3130460FF082
:104F10002FF895F8FC3305EB8404D4EDE77A94ED93
:104F2000E47A002B42F2107308BF4FF47A7337EE25
:104F3000677A07EE903AF8EEE77A304667EE877ABE
:104F4000FDEEE77A17EE904A0FF037F8204670BD75
:104F50000024FBE7022970B505460C4621D800F570
:104F600091664FF0FF3130460FF002F895F8FC33B0
:104F7000002B42F2107308BF4FF47A7307EE903A99
:104F800005EB840494EDEA7AF8EEE77A304667EEB2
:104F9000877AFDEEE77A17EE904A0FF00EF820467A
:104FA00070BD0024FBE7022970B505460C4625D8E4
:104FB00000F591664FF0FF3130460EF0D9FF95F8BD
:104FC000FC3305EB8404D4EDE77A94EDEA7A002B08
:104FD00042F2107308BF4FF47A7337EE677A07EE28
:104FE000903AF8EEE77A304667EE877AFDEEE77A98
:104FF00017EE904A0EF0E1FF204670BD0024FBE75B
:1050000090F87023D0F8883322B9994202D190F8F1
:10501000DD037047994234BF54205520704710B5C6
:105020000446FFF7EDFF40B9D4F88003D4F8783395
:1050300098422CBF0020012010BD542802D1D4F882
:105040007C03F3E70020F7E700B5A3B000238DF859
:105050000810012201A901938DF809300EF0C3FE5A
:1050600023B05DF804FB000010B5044604F068FEB0
:10507000027972B916484FF4005110F07DF994F896
:10508000D8336FF3000384F8D833012384F86E33E8
:1050900010BD04F055FE0379012B0CD194F86E334A
:1050A000002BECD18B212046FFF7CEFF0FF03FF90C
:1050B000C4F87803E3E704F043FE0379022BDED162
:1050C000034800224FF4005110F056F9E6E700BF04
:1050D0000008024038B5044604F032FE0579BDB937
:1050E0001E4801224FF4005110F046F984F86E5327
:1050F000D4F88423C4F8882394F8D823002363F3D6
:10510000000284F8703384F8DD3384F8D82324E077
:1051100004F016FE0379012B0DD194F86E3333B1F0
:1051200094F8CF331BB18B212046FFF78DFF00236E
:1051300084F86E33DCE704F003FE0379022B06D11A
:10514000064801224FF4005110F016F9E5E704F08B
:10515000F7FD94F86E33002BCAD038BD000802402A
:1051600073B5069D83EAE3741846A4EBE37442F238
:1051700010739D420E46114612D1B4FBF5F305FBA8
:105180001344264ACDE90034254B13EA200338BFE7
:105190001346244A30461DF041FB304602B070BD34
:1051A000B5F57A7F0DD1B4FBF5F305FB13441B4A2B
:1051B000CDE900341A4B13EA200338BF13461A4ACC
:1051C000E8E7642D0DD1B4FBF5F305FB1344134A56
:1051D000CDE90034124B13EA200338BF1346134ABB
:1051E000D8E70A2D0DD1B4FBF5F305FB13440B4AA8
:1051F000CDE900340A4B13EA200338BF13460C4AAA
:10520000C8E7064A064B009413EA200338BF13464A
:10521000084A30461DF002FBBFE700BFD578020800
:10522000D2630208B95A0208C55A0208D15A0208C4
:10523000DD5A0208E95A0208F7B5DDE90876009759
:105240000C461546FFF78CFF4EB12046FAF7D2FF09
:10525000044B054A0096291A20441DF0DFFA204627
:1052600003B0F0BDE4FD0208EF5A02082DE9F04159
:105270000F4605463A2138461DF0A2FB38B30023FD
:1052800000F8013B1CF001FBC4B205F59368002651
:1052900058F8041F3846FAF7A3FF08B9F6B203E03E
:1052A00001360B2EF4D1002695F88C33B34203D18E
:1052B00095F88D23A2420CD013B9012385F8FA3357
:1052C00085F88C6385F88D430120BDE8F0810446A4
:1052D000DBE70020F9E710B510460C461CF0D2FAC7
:1052E00051EC100BFBF798FC94ED007A07EE900A56
:1052F000B4EE677AF1EE10FA16BF01200020C4ED7B
:10530000007A10BD10B510460C461CF0BEFA22689B
:105310000346824216BF01200020236010BD2DE904
:10532000F04107460C46154602F10C0800262946B6
:1053300022463846FFF7CFFF2C21002818BF06462B
:1053400020461DF03DFB20B10435454500F1010428
:10535000EDD13046BDE8F08190F8CC3310B504466D
:1053600063B3D0EDE77AF5EE407AF1EE10FA0FD1A3
:10537000D0EDE87AF5EE407AF1EE10FA08D1D0EDF2
:10538000E97AF5EE407AF1EE10FA14BF012300231A
:1053900094F8D42363F3C302002384F8D423C4F81D
:1053A0009C33C4F8A033C4F8A43394F8D43394F8ED
:1053B000CD2362F3451384F8D43310BD00F5677232
:1053C000FFF7ADFF94F8D43360F3C30384F8D4330C
:1053D000EBE770B50E4604462C2130461DF0F0FA7E
:1053E0000546002305F8013B324604F5707120465E
:1053F000FFF788FF28B194F8D63343F0010384F80F
:10540000D6332C2128461DF0DBFA0646002306F889
:10541000013B2A4604F571712046FFF773FF28B15E
:1054200094F8D63343F0020384F8D633324604F5B9
:105430007D712046FFF766FF28B194F8D63343F01C
:10544000040384F8D63370BD70B50D4604462C2194
:1054500028461DF0B5FA0646002306F8013B2A4609
:1054600004F572712046FFF736FF28B194F8D53362
:1054700043F0020384F8D5332C2130461DF0A0FA06
:1054800000230546E8B105F8013B324604F57A7180
:105490002046FFF720FF28B194F8D53343F00403EA
:1054A00084F8D53365B12A4604F57B712046FFF7B1
:1054B00012FF28B194F8D53343F0040384F8D533B0
:1054C00070BDC4F8EC33E0E72DE9F84300F5B6769B
:1054D000B84904463046FAF783FE054648B90EF04F
:1054E00026FF84F87053C4F8800384F8DD53BDE8C8
:1054F000F88394F86C31242B2AD13D2130461DF0DD
:105500005FFA054620B3002305F8013B04F26D1055
:105510001CF0BBF90D280CD016380A2818D80A2818
:1055200016D8DFE800F06415151515151515717EF0
:105530008B00284694F8FC731CF0A7F9874207D02B
:1055400028461CF0A2F984F8FC03012384F8FB33FD
:1055500094F86C313C2B40F06F81012384F86F3359
:105560000EF0E5FE9449C4F8780304F26D101DF0C6
:1055700059FA0546F8B101462046FFF777FE28B1F3
:1055800094F8D43343F0020384F8D43394F8DC3332
:1055900063B194F88C33052B08D094F8D5330022EE
:1055A00062F3C30384F8DC2384F8D53382490020F6
:1055B0001DF038FA0546814FDFF81482DFF81492A7
:1055C0000026002D47D1002E91D194F8DE33002B18
:1055D00094F8D5331ABF84F8DE630122002262F307
:1055E000861384F8D533002384F8D1337FE7284627
:1055F000B4F8FE731CF049F98742A9D028461CF084
:1056000044F9A4F8FE03A0E72846B4F800741CF09F
:1056100040F987429CD028461CF03BF9A4F80004CE
:1056200093E72846B4F802741CF033F987428FD010
:1056300028461CF02EF9A4F8020486E7284694F8C0
:10564000FD731CF022F9874282D028461CF01DF918
:1056500084F8FD0379E70522394628461DF0BDF997
:10566000E8B994F8CC3343B9012384F8CC3394F8E7
:10567000D43343F0080384F8D43304F56472691D0D
:105680002046FFF74CFE94F8D43360F3820384F88D
:10569000D433494900201DF0C5F9054691E705229C
:1056A000414628461DF099F930B994F8CC33002BC7
:1056B000E3D084F8CC03DAE70322494628461DF0FC
:1056C0008CF920B9E91C2046FFF7BEFEE1E73C4912
:1056D000042228461DF081F920B9291D2046FFF734
:1056E0003BFED6E73749032228461DF076F910BB6A
:1056F00004F2DD32023504F2E731064602F8016FAA
:1057000015F8013F83B13E2B0ED094F8D53343F00A
:10571000400384F8D5332B78137003F0DF03502B4C
:1057200008BF01209142E9D1002384F8E73384F8CF
:10573000D1030126ADE72449022228461DF04DF988
:1057400068B9AB78A3F131004342434184F8D033C8
:1057500094F8D53343F0200384F8D53399E71B49F7
:10576000022228461DF039F9C8BB94F8D433A4F8B6
:10577000F80343F04003023584F8F00384F8D4338F
:10578000012240F2011115F8013B002B81D04D2B75
:105790000CD006D8432B1FD0462BF4D184F8F82325
:1057A000F1E7532BEFD1A4F8F023ECE784F8F923C9
:1057B000E9E700BFF45A0208F75A0208F95A02084A
:1057C000095B02080E5B02084A530208125B0208DA
:1057D000FF5A0208055B0208A4F8F013D3E7424918
:1057E000032228461DF0F9F820B9E91C2046FFF7EE
:1057F000F0FD4EE73D49042228461DF0EEF8002852
:105800007FF447AF2A7994F8CF33A2F131014A42AD
:105810004A419A4209D083F0010384F8CF3394F8C7
:10582000D43343F0010384F8D43394F8D83343F0ED
:10583000010384F8D8332CE75B2B29D104F26D15D2
:105840002B49042228461DF0C8F868B904F56A728D
:1058500004F271112046FFF762FD94F8D63360F32D
:10586000C30384F8D63342E62249042228461DF0B9
:10587000B4F800287FF43BAE04F56D7204F27111A8
:105880002046FFF74CFD94F8D63360F30413E8E7A5
:105890001949062230461DF0A0F8054670B904F5F6
:1058A000B9701BF0F2FF94F8D53384F8DD0343F0B0
:1058B000100384F8D53384F8705318E60F49062294
:1058C00030461DF08AF800287FF411AE04F5B97057
:1058D0001BF0DBFF94F8D53384F8DC0343F00803B6
:1058E00084F8D53303E600BF155B0208195B020894
:1058F0001E5B0208235B0208285B02082F5B02087C
:1059000073B5002604468DF80760A06E03680DF19C
:1059100007011B699847C0B208B102B070BD9DF87D
:105920000720182A04D0B4F86C33B3F5FE7F02D9EF
:10593000A4F86C63E9E70A2A01D00D2A13D1002BE1
:10594000F6D02344002204F5916583F86C214FF0D2
:10595000FF3128460EF00CFB2046FFF7B5FD284628
:105960000EF02BFBE4E7591C2344A4F86C1383F8D6
:105970006C21CAE770B5044600F591664FF0FF311F
:1059800030460EF0F5FAD4F884536B1C012B38BF67
:105990000123C4F8843330460EF00FFB284670BD57
:1059A00070B50446A2B090F8CF030D461646FFF737
:1059B00043F988B194F88C3373B12046FFF7DAFFCE
:1059C0006A1E01900DF107017F3512F8013F01F8C1
:1059D000013F23B1AA42F8D10C2022B070BD1A4673
:1059E00001A920460EF0FFF9019B3360C0B2F4E735
:1059F00013B50446FFF784FF0EF099FCD4F8783312
:105A0000C01AB0F5967F81BF002384F88C33012340
:105A100084F86F3394F8CF03FFF70EF910B194F8C0
:105A20008C3363B994F870334BB1002384F870332E
:105A3000D4F88433C4F88833562384F8DD3304F073
:105A40007FF90379012B1DD194F86E3394F8CF03BD
:105A5000EBB1FFF7F1F8D0B994F8D833DB074BD5A9
:105A60008B212046FFF7F0FA0EF061FC94F8D83352
:105A7000C4F87403002262F3000384F86F2384F8EF
:105A8000D83304E004F05CF90379022BDCD094F8FD
:105A9000CF03FFF7D1F850B194F8FA333BB11B496B
:105AA00001AA2046FFF77CFF002384F8FA3394F81C
:105AB000CF03FFF7C1F8D8B194F86F33C3B10EF03C
:105AC00036FCD4F87433C01A642811D9A06E036868
:105AD0001B6A984760B10EF02AFCC4F87403A06EEC
