:020000040800F2
:1000000000000220019B0108599201085B9201083F
:100010005D9201085F9201086192010800000000F2
:10002000000000000000000000000000E184010862
:1000300063920108000000007185010865920108C3
:10004000519B0108519B0108519B0108519B0108DC
:10005000519B0108519B0108519B0108519B0108CC
:10006000519B0108519B0108519B0108519B0108BC
:10007000519B0108519B0108519B0108519B0108AC
:10008000519B0108519B0108519B01080000000091
:10009000000000000000000000000000519B01086B
:1000A000519B0108519B0108519B0108519B01087C
:1000B000519B0108519B0108519B0108519B01086C
:1000C000519B0108519B0108519B0108519B01085C
:1000D000519B01087D920108519B0108000000001E
:1000E000519B0108519B0108519B01080000000031
:1000F000000000000000000000000000519B01080B
:100100000000000089920108519B0108519B0108E1
:1001100000000000000000000000000000000000DF
:10012000519B0108519B010895920108A192010879
:10013000519B0108000000000000000000000000CA
:10014000000000000000000000000000AD92010867
:10015000B9920108519B0108C5920108519B010801
:10016000519B0108519B01080000000000000000A5
:10017000000000000000000000000000000000007F
:1001800000000000519B010800000000000000007A
:08019000519B0108519B01087D
:1001A00010B5054C237833B9044B13B10448AFF3B1
:1001B00000800123237010BD5003002000000000C8
:1001C000CCE7010808B5034B1BB103490348AFF363
:1001D000008008BD0000000054030020CCE70108A7
:1001E00010F8012B11F8013B012A28BF9A42F7D0E1
:1001F000D01A7047034613F8012B002AFBD1181AB6
:1002000001387047000000000000000000000000FE
:1002100001F0FF01102A2BDB10F0070F08D010F8B7
:10022000013B013A8B422DD010F0070F42B3F6D1BB
:10023000F0B441EA012141EA014122F007047FF0D4
:1002400000070023F0E80256083C85EA010586EA2B
:10025000010685FA47F5A3FA87F586FA47F6A5FA67
:1002600087F68EB9EED1F0BC01F0FF0102F0070273
:1002700032B110F8013B013A83EA010313B1F8D11E
:100280000020704701387047002D06BF35460338FF
:10029000073815F0010F07D1013015F4807F02BF38
:1002A000013015F4C03F0130F0BC0138704700BF89
:1002B00081F0004102E000BF83F0004330B54FEA17
:1002C00041044FEA430594EA050F08BF90EA020F84
:1002D0001FBF54EA000C55EA020C7FEA645C7FEA17
:1002E000655C00F0E2804FEA5454D4EB5555B8BF3A
:1002F0006D420CDD2C4480EA020281EA030382EAAB
:10030000000083EA010180EA020281EA0303362D3C
:1003100088BF30BD11F0004F4FEA01314FF4801C0F
:100320004CEA113102D0404261EB410113F0004F21
:100330004FEA03334CEA133302D0524263EB4303D8
:1003400094EA050F00F0A780A4F10104D5F1200E76
:100350000DDB02FA0EFC22FA05F2801841F10001D1
:1003600003FA0EF2801843FA05F359410EE0A5F1A5
:1003700020050EF1200E012A03FA0EFC28BF4CF0D6
:10038000020C43FA05F3C01851EBE37101F000458C
:1003900007D54FF0000EDCF1000C7EEB00006EEB99
:1003A0000101B1F5801F1BD3B1F5001F0CD3490823
:1003B0005FEA30004FEA3C0C04F101044FEA44527A
:1003C00012F5800F80F09A80BCF1004F08BF5FEA01
:1003D000500C50F1000041EB045141EA050130BDE1
:1003E0005FEA4C0C404141EB0101013C28BFB1F5F3
:1003F000801FE9D291F0000F04BF01460020B1FA3E
:1004000081F308BF2033A3F10B03B3F120020CDA10
:100410000C3208DD02F1140CC2F10C0201FA0CF0EE
:1004200021FA02F10CE002F11402D8BFC2F1200C53
:1004300001FA02F120FA0CFCDCBF41EA0C01904009
:10044000E41AA2BF01EB0451294330BD6FEA040452
:100450001F3C1CDA0C340EDC04F11404C4F120023D
:1004600020FA04F001FA02F340EA030021FA04F34F
:1004700045EA030130BDC4F10C04C4F1200220FAA6
:1004800002F001FA04F340EA0300294630BD21FAE4
:1004900004F0294630BD94F0000F83F4801306BFAA
:1004A00081F480110134013D4EE77FEA645C18BF9E
:1004B0007FEA655C29D094EA050F08BF90EA020F35
:1004C00005D054EA000C04BF1946104630BD91EA2D
:1004D000030F1EBF0021002030BD5FEA545C05D130
:1004E0004000494128BF41F0004130BD14F580046F
:1004F0003CBF01F5801130BD01F0004545F0FE41E3
:1005000041F470014FF0000030BD7FEA645C1ABF17
:10051000194610467FEA655C1CBF0B46024650EA4E
:10052000013406BF52EA033591EA030F41F400217A
:1005300030BD00BF90F0000F04BF0021704730B500
:100540004FF4806404F132044FF000054FF00001D5
:1005500050E700BF90F0000F04BF0021704730B596
:100560004FF4806404F1320410F0004548BF40426B
:100570004FF000013EE700BF42004FEAE2014FEAC0
:1005800031014FEA02701FBF12F07F4393F07F4F9B
:1005900081F06051704732F07F4208BF704793F09E
:1005A0007F4F04BF41F40021704730B54FF46074B1
:1005B00001F0004521F000411CE700BF50EA0102B4
:1005C00008BF704730B54FF000050AE050EA01025D
:1005D00008BF704730B511F0004502D5404261EBCD
:1005E00041014FF4806404F132045FEA915C3FF40E
:1005F000D8AE4FF003025FEADC0C18BF03325FEAAB
:10060000DC0C18BF033202EBDC02C2F1200300FA5B
:1006100003FC20FA02F001FA03FE40EA0E0021FA80
:1006200002F11444BDE600BF70B54FF0FF0C4CF46E
:10063000E06C1CEA11541DBF1CEA135594EA0C0F20
:1006400095EA0C0F00F0DEF82C4481EA030621EA5B
:100650004C5123EA4C5350EA013518BF52EA033596
:1006600041F4801143F4801338D0A0FB02CE4FF048
:100670000005E1FB02E506F00042E0FB03E54FF078
:100680000006E1FB03569CF0000F18BF4EF0010E70
:10069000A4F1FF04B6F5007F64F5407404D25FEA6C
:1006A0004E0E6D4146EB060642EAC62141EA55511F
:1006B0004FEAC52040EA5E504FEACE2EB4F1FD0C61
:1006C00088BFBCF5E06F1ED8BEF1004F08BF5FEADF
:1006D000500E50F1000041EB045170BD06F0004691
:1006E00046EA010140EA020081EA0301B4EB5C043E
:1006F000C2BFD4EB0C0541EA045170BD41F4801136
:100700004FF0000E013C00F3AB8014F1360FDEBF5A
:10071000002001F0004170BDC4F10004203C35DA36
:100720000C341BDC04F11404C4F1200500FA05F3B9
:1007300020FA04F001FA05F240EA020001F000425A
:1007400021F0004110EBD37021FA04F642EB0601D0
:100750005EEA430E08BF20EAD37070BDC4F10C04FA
:10076000C4F1200500FA04F320FA05F001FA04F2BE
:1007700040EA020001F0004110EBD37041F10001AA
:100780005EEA430E08BF20EAD37070BDC4F12005B5
:1007900000FA05F24EEA020E20FA04F301FA05F21D
:1007A00043EA020321FA04F001F0004121FA04F2C5
:1007B00020EA020000EBD3705EEA430E08BF20EA95
:1007C000D37070BD94F0000F0FD101F000464000CF
:1007D00041EB010111F4801F08BF013CF7D041EA51
:1007E000060195F0000F18BF704703F00046520055
:1007F00043EB030313F4801F08BF013DF7D043EA26
:100800000603704794EA0C0F0CEA135518BF95EADB
:100810000C0F0CD050EA410618BF52EA4306D1D162
:1008200081EA030101F000414FF0000070BD50EA81
:10083000410606BF1046194652EA430619D094EA0B
:100840000C0F02D150EA013613D195EA0C0F05D1F5
:1008500052EA03361CBF104619460AD181EA030149
:1008600001F0004141F0FE4141F470014FF0000001
:1008700070BD41F0FE4141F4780170BD70B54FF09C
:10088000FF0C4CF4E06C1CEA11541DBF1CEA13551C
:1008900094EA0C0F95EA0C0F00F0A7F8A4EB0504FE
:1008A00081EA030E52EA03354FEA013100F08880F5
:1008B0004FEA03334FF0805545EA131343EA1263BE
:1008C0004FEA022245EA111545EA10654FEA002673
:1008D0000EF000419D4208BF964244F1FD0404F52C
:1008E000407402D25B084FEA3202B61A65EB030588
:1008F0005B084FEA32024FF480104FF4002CB6EB45
:10090000020E75EB030E22BFB61A754640EA0C00C4
:100910005B084FEA3202B6EB020E75EB030E22BF04
:10092000B61A754640EA5C005B084FEA3202B6EB45
:10093000020E75EB030E22BFB61A754640EA9C0004
:100940005B084FEA3202B6EB020E75EB030E22BFD4
:10095000B61A754640EADC0055EA060E18D04FEA92
:10096000051545EA16754FEA06164FEAC30343EA32
:1009700052734FEAC2025FEA1C1CC0D111F4801FFF
:100980000BD141EA00014FF000004FF0004CB6E7F8
:1009900011F4801F04BF01430020B4F1FD0C88BF97
:1009A000BCF5E06F3FF6AFAEB5EB030C04BFB6EBA2
:1009B000020C5FEA500C50F1000041EB045170BD95
:1009C0000EF0004E4EEA113114EB5C04C2BFD4EBC2
:1009D0000C0541EA045170BD41F480114FF0000E46
:1009E000013C90E645EA060E8DE60CEA135594EAC2
:1009F0000C0F08BF95EA0C0F3FF43BAF94EA0C0FC5
:100A00000AD150EA01347FF434AF95EA0C0F7FF439
:100A100025AF104619462CE795EA0C0F06D152EA8D
:100A200003353FF4FDAE1046194622E750EA410671
:100A300018BF52EA43067FF4C5AE50EA41047FF482
:100A40000DAF52EA43057FF4EBAE12E74FF0FF3CE7
:100A500006E000BF4FF0010C02E000BF4FF0010CB8
:100A60004DF804CD4FEA410C7FEA6C5C4FEA430C31
:100A700018BF7FEA6C5C1BD001B050EA410C0CBF80
:100A800052EA430C91EA030F02BF90EA020F0020E2
:100A9000704710F1000F91EA030F58BF994208BF49
:100AA00090422CBFD8176FEAE37040F00100704706
:100AB0004FEA410C7FEA6C5C02D150EA013C07D15D
:100AC0004FEA430C7FEA6C5CD6D152EA033CD3D0A8
:100AD0005DF8040B704700BF8446104662468C46A2
:100AE0001946634600E000BF01B5FFF7B7FF0028D5
:100AF00048BF10F1000F01BD4DF808EDFFF7F4FFFE
:100B00000CBF012000205DF808FB00BF4DF808ED88
:100B1000FFF7EAFF34BF012000205DF808FB00BFAB
:100B20004DF808EDFFF7E0FF94BF012000205DF8CD
:100B300008FB00BF4DF808EDFFF7CEFF94BF012082
:100B400000205DF808FB00BF4DF808EDFFF7C4FF7B
:100B500034BF012000205DF808FB00BF4FEA410CC4
:100B60007FEA6C5C02D150EA013C0AD14FEA430CA7
:100B70007FEA6C5C02D152EA033C02D14FF00000E4
:100B800070474FF0010070474FEA410212F5001222
:100B900015D211D56FF47873B3EB625212D94FEAC4
:100BA000C12343F0004343EA505311F0004F23FAAE
:100BB00002F018BF404270474FF00000704750EA03
:100BC000013005D111F0004008BF6FF000407047C0
:100BD0004FF00000704700BF4A0011D212F500121A
:100BE00011D20DD56FF47873B3EB62520ED44FEA85
:100BF000C12343F0004343EA505323FA02F0704705
:100C00004FF00000704750EA013002D14FF0FF3042
:100C100070474FF0000070474FEA4102B2F1E043E5
:100C200024BFB3F5001CDCF1FE5C0DD901F0004CD3
:100C30004FEAC0024CEA5070B2F1004F40EB830023
:100C400008BF20F00100704711F0804F21D113F14F
:100C50003872BCBF01F00040704741F480114FEA88
:100C60005252C2F11802C2F1200C10FA0CF320FA11
:100C700002F018BF40F001004FEAC1234FEAD3232E
:100C800003FA0CFC40EA0C0023FA02F34FEA430398
:100C9000CCE77FEA625307D150EA01331EBF4FF021
:100CA000FE4040F44000704701F0004040F0FE403C
:100CB00040F40000704700BF53B94AB9002908BF8B
:100CC00000281CBF4FF0FF314FF0FF3000F0A0B9FB
:100CD000ADF1080C6DE904CE00F03CF8DDF804E05D
:100CE000DDE9022304B0704738B500220023044632
:100CF0000D46FFF70BFF28B920462946BDE83840CE
:100D000000F00AB8204605F1004100F005F8404225
:100D100061EB410138BD00BFD0B50C4B0022064647
:100D20000F46FFF781FCFFF757FF0446FFF702FC71
:100D3000074B0022FFF778FC02460B463046394647
:100D4000FFF7BAFAFFF748FF2146D0BD0000F03D9B
:100D50000000F0412DE9F047089D0C46002B4ED1D4
:100D600094468C458646B2FA82F262D94AB1C2F103
:100D70002003914020FA03F30CFA02FC194300FA15
:100D800002FE4FEA1C471FFA8CF6B1FBF7F44FEA5C
:100D90001E4307FB141143EA014304FB06F1994289
:100DA0000AD91CEB030304F1FF3080F01281994251
:100DB00040F20F81023C6344591A1FFA8EF3B1FBD3
:100DC000F7F007FB101143EA014300FB06F69E42D1
:100DD0000AD91CEB030300F1FF3180F0FC809E4236
:100DE00040F2F980634402389B1B40EA0440002132
:100DF0001DB1D3400022C5E90032BDE8F0878B4227
:100E000005D90DB1C5E9000100210846F5E7B3FA9F
:100E100083F1002946D1A34202D39042C0F0F08072
:100E2000861A64EB03030120002DE6D0C5E90063B8
:100E3000E3E7002A40F09080A1EB0C044FEA1C4845
:100E40001FFA8CF70121B4FBF8F64FEA1E4308FBAA
:100E5000164443EA044307FB06F0984208D91CEB0A
:100E6000030306F1FF3402D2984200F2CD802646F9
:100E70001C1A1FFA8EF3B4FBF8F008FB104443EA87
:100E8000044300FB07F79F4208D91CEB030300F162
:100E9000FF3402D29F4200F2B0802046DB1B40EAC2
:100EA0000640A5E7C1F120068B4022FA06F71F4352
:100EB00020FA06FC04FA01F343EA0C03F44000FABA
:100EC00001F8380C4FEA1349B4FBF0FE1FFA87FC17
:100ED00000FB1E4449EA04440EFB0CF9A14502FA4A
:100EE00001F20AD93C190EF1FF3A80F08480A14545
:100EF00040F28180AEF1020E3C44A4EB09041FFADB
:100F000083F9B4FBF0F300FB134449EA044403FB08
:100F10000CFCA44507D93C1903F1FF3067D2A44566
:100F200065D9023B3C4443EA0E40A0FB0293A4EB8C
:100F30000C049C42CE469C4651D34ED055B1B8EBE2
:100F40000E0364EB0C0404FA06F6CB401E43CC40BF
:100F5000C5E90064002150E7C2F1200320FA03F143
:100F60000CFA02FC24FA03F394400C434FEA1C48A9
:100F700000FA02FE1FFA8CF7B3FBF8F008FB103101
:100F8000230C43EA014300FB07F1994208D91CEB0B
:100F9000030300F1FF362CD299422AD90238634468
:100FA0005B1AA4B2B3FBF8F108FB113344EA034423
:100FB00001FB07F3A34208D91CEB040401F1FF363F
:100FC00013D2A34211D902396444E41A41EA004120
:100FD00039E70446F0E6084606E7C845AED2B9EB65
:100FE000020E63EB070C0138A8E73146EDE7034634
:100FF00099E73046D4E7D6467FE7634402384DE7A9
:101000000646234608460FE7023E634430E700BF2A
:10101000704700BF03798B4228BF0431C91AC9B297
:101020004171704708B503681B699847B0FA80F0B2
:10103000400908BD10B504F07FFF204904F094FF7B
:1010400009F088FC1E4909F043FD09F083FC1D49A5
:1010500009F082FD09F07EFC03681B6898470DF0DB
:10106000D7F8036818495B6A984704F0FFFB1749F3
:10107000002204F059FC04F0F9FB03681B68984750
:101080001348FFF7CFFF30B108F0BAFE0368BDE8A0
:1010900010401B6818470F48FFF7C4FF10B102F05B
:1010A00019FDF3E703F026F80B4B836603F022F8F3
:1010B00003681B68984700F09DFCE7E76C0300207D
:1010C000A40300208403002030CB0120E8CA0120C3
:1010D0008804002078040020D003002000BEFEE732
:1010E00000BEFEE72DE9F0473D4ADFF840913D4F55
:1010F0003D4BBA601021C9E902210822FA603B4A3F
:101100003B49916000244FF48060C2E90034D06014
:10111000DFF81C81374ADFF81CA1C9F8003001252F
:10112000C8E90035C7E90035C2E900340223D360BD
:101130004FF06413CAF804302F4B304ECAF8003019
:101140002F4BCAF808304FF0051373602D4B3360F6
:1011500006F10C002C4B9160C8E90215C9F8045047
:10116000B3600CF00BFD294B294A1A60294AC3F8D9
:101170008420A3F88840284B284818604FF4F07268
:1011800027481C760321C3E901124FF4A071C3E97B
:10119000031259610571C180224D0281C3E907A97B
:1011A000C3E909872146204B03604471C66004747B
:1011B000C0F81240C0F81640C0F81A40FFF72AFFE6
:1011C0004FF4004348F20200C5E90033C5E9034685
:1011D0002C726C6109F06AFBE860BDE8F08700BF23
:1011E00000000240980400202C840208880400209B
:1011F00000040240780400209C8402085C04002063
:101200008CCA012050840208F0C80120D0030020BD
:10121000EC84020838CC0120A4030020A8120208A4
:10122000840300206C03002080120208B804002010
:10123000A80400206C04002008B5074BD86810B142
:10124000012118F086FC0548054B40F80C3BBDE831
:1012500008400CF09DBC00BF6C0300205C04002023
:10126000508402084FF00000704700F5805090F85D
:101270004005002818BF032070470CF027BB000072
:101280002DE9F04F044689B004F5805604F054FE71
:1012900004F06EFED6F8305504F04EFE4179003968
:1012A00018BF0121284609F03EFC96F82C15D6F807
:1012B000300509F0D3FFD6F83035D74AC3F8982067
:1012C000D3F8A4700BF06AFF0368DB689847054603
:1012D0000BF0B2FE0368DB689847D6F83035D3F8D8
:1012E000A030059382460BF0A7FE026892689047F3
:1012F00083460BF0A1FE0268D268904705EB4505D6
:10130000C64A059B04F5A459023F4FF0060809F1AF
:101310000C097F1B40000025294608FB1B33CDE943
:1013200001250090A7EB4A0248460AF001FFB6F9F2
:101330009E34B6F9962403EBD37302EB6303059353
:101340000BF07AFE0268D268904782460BF074FE7A
:1013500004F5A557059BB24901901C376FF07F4BF0
:101360000422A3EB5A033846CDF800B00BF0E9F89D
:101370000BF062FE03689B689847B6F9CA140691A1
:1013800007900BF00BFF0368DB68984705900BF0A4
:1013900005FFDDE90531079A04F5A75A0AF1140A99
:1013A000D200CB1ACDE900B09D4950460BF0C9F8E8
:1013B0004FF47A7148460BF049FD40F2E931384666
:1013C0000BF044FD40F2E93150460BF03FFDD6F8FA
:1013D000380502F09BFFD6F83035D3F8A0A00BF00B
:1013E0002BFE03689B689847B6F996B481460BF0CC
:1013F00023FE03689B6898470123029304F59F57D7
:101400000437B6F99E348749019308FB00F00AF1CE
:10141000FF3208FB192200905B4638460DF0F2F8C7
:101420002B462A46384621460DF007FA384629460B
:101430000DF0F8F94FF47A7138460BF007FD4FF0D4
:1014400028091022D6F83035CDE9009204F1B00712
:10145000D3F8A0302A462946384604F043F8C4F8A9
:10146000A8500BF0E9FD6F4A03462946384604F0C0
:101470003DF96D4AD4F8A810384604F0CFF8D4F8F6
:10148000A88008F10103C4F8A83002F03FF908F180
:101490001A0844F82800D4F8A8800BF0CDFD414686
:1014A000624A0346384604F021F9D4F8A88008F1CE
:1014B0000103C4F8A83005F02DFA08F11A0844F821
:1014C0002800D4F8A8800BF0B7FD4146584A0346DF
:1014D000384604F00BF9D4F8A88008F10103C4F8E9
:1014E000A83001F0B9FA08F11A0844F82800D4F835
:1014F000A8800BF0A1FD414603464E4A384604F051
:10150000F5F84D4AD4F8A810384604F087F8D4F816
:10151000A88008F10103C4F8A83007F0F9FB08F12E
:101520001A0844F82800D4F8A8800BF085FD41463D
:10153000424A0346384604F0D9F8D4F8A88008F1A6
:101540000103C4F8A83006F0B3FE08F11A0844F805
:101550002800D4F8A8800BF06FFD4146384A0346B6
:10156000384604F0C3F8D4F8A88008F10103C4F8A1
:10157000A83005F0B5FE08F11A0844F82800D4F8A0
:10158000A8800BF059FD41462E4A0346384604F028
:10159000ADF8D4F8A88008F10103C4F8A83007F02A
:1015A000DFFF08F11A08D4F8A82044F82800D6F87C
:1015B0003035CDE900923846D3F8A0302A46294686
:1015C00003F090FF38462B462A46214604F011F9D5
:1015D00038464FF4FA6103F0AAFE04F16407D4F828
:1015E000A830AB4232D8A06E03680025DB68C4F88F
:1015F000AC50984704F5AA53083301934023009355
:10160000D6F83405104A2346214604F0ADF92846A1
:1016100009B0BDE8F08F00BF4040400080808000EE
:1016200036F40108C8EA01083C000020CCEA0108B1
:10163000D5EA0108E0EA010828000020EDEA0108E7
:10164000F5EA0108FBEA0108BD1A0008D6F83035B2
:1016500057F8040FD3F8A4300168B6F99E24D1F8E6
:101660000880283B9A1A2821C0470135B7E700BFF8
:101670002DE9F04100F580550446D5F8380590F87D
:10168000881302F05BFD014604F5A55000221C30D2
:101690000BF0BCF8D5F8380590F8D91302F056FDD8
:1016A000014604F5A750002214300BF0AFF8D5F82E
:1016B000383595F8182493F8CB3304F59F5004304F
:1016C000002A35D0002B0CBFFF214FF47F410DF0D5
:1016D00029F8D5F8383593F8F723002683F8F7630F
:1016E000AAB1D4F8AC301A3304F1640754F82300DB
:1016F00003681B699847D4F8A830B3421ED8D4F8C1
:10170000AC301A3354F823000368DB689847D4F8E8
:10171000AC301A33142154F8230003685B699847EE
:10172000D5F8300509F0FBF94FF00000BDE8F08175
:10173000002B0CBF6FF07F41FF21C8E7D5F8303593
:1017400057F8040FD3F8A4300168B5F99E24D1F8F6
:101750000880283B9A1A2821C0470136CBE70000B1
:1017600010B5074B044640F8483B0CF00DFC04F163
:1017700024000CF05FFA201D0CF05CFA204610BD2E
:101780002085020810B50446FFF7EAFF20466821CD
:1017900018F0DFF9204610BD054A02600022C0E9BA
:1017A0000122C0E90322C0E90522C261704700BFDF
:1017B000001D020810B50446FFF7EEFF064B23603C
:1017C0000122002384F82C20C4E90833A362236398
:1017D00084F83430204610BD541C020810B504466D
:1017E000FFF7DAFF0A4B23606FF07F420023C4E962
:1017F0000833C4E90A332263A38604F13800FFF7F3
:10180000D9FF04F17000FFF7D5FF204610BD00BFDF
:10181000888502082DE9F84305460026FFF7BCFF3E
:10182000C5E90866C5E90A662D4BDFF8C0902B6054
:101830002E6305F1340405F55D774FF0FF3820463F
:10184000FFF7AAFFC4F8009084F82060C4F82C8049
:1018500084F83060C4E909663434BC42EFD105F243
:10186000F46620463834FFF7A5FFB442F9D105F5F8
:101870008B5614362046A834FFF7B0FFB442F9D196
:10188000204605F580540026FFF786FF154BC4F867
:10189000743105F58C50C4F894611830FFF79EFF41
:1018A00005F59250FFF79AFF05F597500830FFF7BE
:1018B00073FF0D4BC4F8E832C4E9C266C4E9C566DB
:1018C000C4E9C766C4E9CA6684F8106384F824636F
:1018D00009F040F8C4F830032846BDE8F88300BF9B
:1018E000D0FC0108AC1B0208581B020804130208B4
:1018F0003B4B70B510220446222140F8043B0023E4
:101900000CF0BDF900230822202104F124000CF082
:10191000B6F904F5AA53002663641423C4E91263DC
:10192000304B84F85060C4E915344FF48063A4F858
:101930005E30022384F8603020462B4B63662B4BCD
:1019400084F85C604022314640F8683B1AF098FD0C
:10195000C4E92A6604F1B000FFF75CFF04F59F506C
:101960000430FFF73BFF04F5A45004F580550C301C
:10197000FFF712FF1E4BC5F88C3404F5A550C5F8CF
:10198000AC64C5F8B06485F8B464C5F8B8641C30BC
:10199000FFF710FF04F5A7501430FFF70BFF0323E8
:1019A00085F82C3508F0D6FFC5F8300503F05EFF4A
:1019B000C5F8340502F09EFBC5F8380504F0BCFA02
:1019C00085F85465C5F83C05C5F84865C5F84C650B
:1019D000C5F85065C5F85865C5F85C65204670BD0A
:1019E0002085020851DA000804EB010818EB010811
:1019F000581B020810B50A4C2368BFF35B8FDB0746
:101A00000CD4204618F0A7F840B10648FFF770FF45
:101A1000054819F09DFC204618F0A9F8014810BDB2
:101A2000C8040020CC040020611C0008D0F8AC30B1
:101A30001A3370B5044650F8230003680D461B693D
:101A4000984704F1B000C4F8AC50294603F0BCFE3E
:101A5000D4F8AC301A3354F823000368BDE8704062
:101A6000DB68184710B500F59F5404348C4213D13D
:101A700000F58053D3F8380590F86F3343B102F086
:101A800045FC002120460CF0CDFE4FF0000010BDBB
:101A900002F012FC0121F5E700F1B004A14204D1EB
:101AA00090F8DC10FFF7C2FFEFE7D0F8AC201A3255
:101AB00050F8220003689B699847E6E710B5044692
:101AC00080B34B782BB10B78022B09D1D0F8AC1036
:101AD00009B9002010BD0139C9B2FFF7A7FFF8E727
:101AE000042B06D1D0E92A31013B9942F1D20131D0
:101AF000F2E7062BEDD102F0FDFA90F86F3304F512
:101B00009F54043443B102F0F5FA02F0FFFB0021C8
:101B100020460CF087FEDCE702F0ECFA02F0CCFB8A
:101B20000121F5E70120D5E738B5094B094D0360E0
:101B3000044640F8705F0BF0ADF9204640F8385F7E
:101B40000BF0A8F920460BF0A5F9204638BD00BFE0
:101B500088850208541C020810B50446FFF7E4FF0C
:101B60002046A82117F0F5FF204610BD70B5204B88
:101B7000036000F580551F4BC5F8E832044600F5B8
:101B8000975008300BF086F904F59250FFF7CCFF20
:101B900004F58C501830FFF7C7FF174BC5F87431A8
:101BA00004F58B5014300BF075F941F2CC0540F27E
:101BB0004C66635960191B68A83D9847B542F8D137
:101BC00040F2BC65635960191B68383D9847B5F50C
:101BD0004F7FF7D14FF45075635960191B689847D0
:101BE000343DF9D120460BF055F9204670BD00BFB9
:101BF000D0FC0108581B0208AC1B020870B5154B3D
:101C0000036000F580550446134EC5F8F46400F5F2
:101C1000A75014300BF03EF904F5A550C5F8BC648C
:101C20001C300BF037F90D4BC5F88C3404F5A4507B
:101C30000C300BF02FF904F59F500430FFF774FFC0
:101C400004F1B000FFF792FF2046FFF789FD204620
:101C500070BD00BF18EB0108541C0208581B020895
:101C600008B50248FFF7CAFF08BD00BFCC0400203A
:101C700010B50446FFF7C2FF20464FF4AB5117F0F2
:101C800068FF204610BD10B50446FFF76FFF2046E1
:101C900041F2343117F05DFF204610BDB0F9080065
:101CA0007047B0F90A007047B0F90C007047B0F9FE
:101CB0000E007047B0F910007047B0F9120070477D
:101CC000407D7047417570472DE9F341089E0446F9
:101CD0001D46B0F90A30B0F90800301A0090EB1A2E
:101CE00004F1480090460F460AF003F8B4F90820C2
:101CF000B4F90A30B21A0092EB1A4246394604F19E
:101D0000B0000AF0B0FB94F810317BB1B4F90820B0
:101D1000B4F90A30B61AEB1A4246394604F1780093
:101D2000089602B0BDE8F0410AF09DBB02B0BDE8E4
:101D3000F0812DE9F341089E04461D46B0F90830B4
:101D4000B0F90A00301A0090EB1A04F148009046EE
:101D50000F460AF023F8B4F90A20B4F90830B21A91
:101D60000092EB1A4246394604F1B0000AF01BFB20
:101D700094F810317BB1B4F90A20B4F90830B61ADE
:101D8000EB1A4246394604F17800089602B0BDE8E5
:101D9000F0410AF008BB02B0BDE8F08170B504461E
:101DA00005291AD8DFE801F0030F191903170B49A9
:101DB00004F148000AF033FA236820469B6CBDE822
:101DC000704000211847006A28B10368D4E909125D
:101DD0005D682346A8470021EAE770BD8080800047
:101DE00010B103689B6818477047000038B50C4B6A
:101DF0000C4D0360044640F8B05F0BF04BF82046F2
:101E000040F8785F0BF046F82046074B40F8483F13
:101E10000BF040F820460BF03DF8204638BD00BFDF
:101E200060EB0108541C0208581B020810B5044658
:101E3000FFF7DCFF20464FF48C7117F08AFE204636
:101E400010BD00002DE9FF4704461F464FF0FF304C
:101E5000DDE90C630E9D6064381821810144A18185
:101E6000C4E90E35711E62810A44E28127826682CE
:101E7000012200210A208D4256DC226404F5807084
:101E8000002D54D02C4A009510211AF02FFA00256D
:101E900001232A462946CDE9015300963B4604F129
:101EA00048000AF045F90BF079F904F1B0086FF039
:101EB0007F4704F1E80101902B462A4640460097EF
:101EC0000AF03FFBD4E90E3203EB0209D4F8E0003C
:101ED000B4F910A009F10109AA4218BF09F10109DA
:101EE000FFF77EFFB4F9C2305FFA89F9F61A00FBFA
:101EF00019A106EBD6762B467210490840460AF027
:101F0000E3FF0BF04BF92B46CDE900700B4904F1D0
:101F100078002A460AF015FB23689B6C2946204668
:101F200004B0BDE8F047184742430131A3E7044A33
:101F300010211AF0DBF9AAE73CEB010836F401089E
:101F40004DEB0108436F994210B5044609D0483063
:101F50000AF042F9236820469B6CBDE8104000213E
:101F6000184710BD10B5836EC0E90C12044690F8F6
:101F70002C00002818BF114699420AD004F14800ED
:101F80000AF03AF9236820469B6CBDE81040002116
:101F9000184710BD38B515460446FFF7D3FF29464C
:101FA00020464FF47F42BDE83840FFF7DBBF436C6B
:101FB0008B4273B50A4604462ED04164E56BB030BF
:101FC00004F1E80104F580735DB9009218220AF06B
:101FD0004AFC236820469B6C00219847012002B0F0
:101FE00070BD266C92FBF6F506FB1522002AB8BFE1
:101FF0005242CDE9005218220AF035FC636C002BE6
:10200000E7DA226C93FBF2F3002BE2D1A36B2344BB
:102010002D2283F8E620DCE70020E0E790F810317D
:10202000022B2DE9F041044600F08580D0E90E72C4
:10203000013B1744B0F91050002A18BF013700F1D6
:10204000B006042B00F29D80DFE803F02F9B0352C3
:102050007C00D0F8E000FFF7C3FEB4F9C230B4F959
:102060001220D21AB4F98830A91EC91A94F8DC30AB
:102070007B4300FB131102EBD27230460023521057
:1020800049080AF021FFB4F9BC50D4F8A800B4F90B
:10209000BE7004F17806023510B10368DB6898471A
:1020A00000233A1A2946304643E0B0F9C230B0F96D
:1020B0001220B0F98810D21AB0F98A30D21A691AEF
:1020C00002EBD27200235210490878300AF0FCFE6D
:1020D000D4F8E000B4F91050FFF782FE94F8DC3039
:1020E000B4F986207B4300FB135100234908DAE74B
:1020F000D0F8E000FFF774FEB4F9C230B4F9122052
:1021000094F8DC10D21A794300FB115102EBD27221
:1021100000235210490830460AF0D6FEB4F9883040
:10212000B4F91010B4F9BE20C91A4908002304F10B
:1021300078000AF0C9FE236820469B6CBDE8F04198
:1021400000211847D0F8E000FFF74AFEB4F9C2308A
:10215000B4F9122094F8DC10D21A794300FB115123
:1021600002EBD27200235210490830460AF0ACFE4E
:10217000B4F9BC00B4F98810B4F9BE200023411AA8
:10218000D5E7D0F8E000FFF72BFEB4F9C230B4F980
:102190001220D21A94F8DC3002EBD2727B4300FB9F
:1021A000135152100023A1E770B500F1B0060446A8
:1021B000154630460AF0B6FAE9B230460AF0EDFAB2
:1021C0002046FFF72BFF236820469B6CBDE870403C
:1021D0000021184770B500F1780604460D4680F8D6
:1021E0001021194630460AF09DFA29463046002251
:1021F0000AF00CFB2046FFF711FF236820469B6C7A
:10220000BDE870400021184790F82C308B4210B583
:10221000044611D0D0E90C2380F82C1000290CBF03
:1022200011461946483009F0E7FF236820469B6CA9
:10223000BDE810400021184710BDC0E908128362B4
:10224000704710B5D8B109B9002010BD0379022B31
:102250000DD84FF48C725343C2188468D2F8FC2016
:10226000B83301FB04211844FFF7A1FEECE7D0F8D6
:102270000C3B194421EAE17100F6C820F4E7012083
:10228000E3E770B5044603F0F1FA04F6687103F071
:10229000B2FB03F0EBFA04F5786103F080FB04F184
:1022A000B80510262B682846DB689847D5F84833D0
:1022B00005F55270DB689847D5F8903605F5D26081
:1022C000DB689847A359A019DB6838369847B82EC1
:1022D00005F58C75E6D14FF43E6540F6D856635946
:1022E0006019DB68A8359847B542F8D104F6C820D4
:1022F0000AF0C3FD04F529600AF0BFFD04F6D850CA
:102300000AF0BBFD04F561600AF0B7FD04F6B860A1
:102310000AF0B3FD4FF0000070BD08B515F058FD90
:10232000BDE8084015F026BC73B5044600F1B805B9
:1023300010262B6864219B6828469847D5F84833B7
:1023400064219B6805F552709847D5F89036642152
:102350009B6805F5D2609847A359A0199B68642132
:1023600038369847B82E05F58C75E2D14FF43E65A6
:1023700040F6D856635960199B686521A83598477F
:10238000B542F7D1642104F6C8200AF05FFD64214C
:1023900004F529600AF05AFD652104F6D8500AF0C8
:1023A00055FD662104F561600AF050FD662104F6D2
:1023B000B8600AF04BFD03F059FA0546FFF7ADFF90
:1023C00004F6687301460D4A00932846234603F03D
:1023D000FAFA03F04BFA0546FFF79FFF04F578631E
:1023E00001930323014600932846054A234603F040
:1023F000BBFA4FF0000002B070BD00BF43220008DE
:10240000F12C00082DE9F04F8DB083460D460AF0FF
:10241000C5FE0368DB68984700EB80030593043B27
:102420005B080893059B083309932B1D0693002333
:102430005C465F460493DBF8603FD3F8A0104FF092
:102440000308A1F10803042204F1B805CDE901282D
:1024500003EBD373059A00925B10069A062091FB5A
:10246000F0F12846FFF7EEFCFF2204212846FFF793
:1024700091FD0AF093FE022201462846FFF794FEE2
:102480009DF81030DBF8640F0793194601F088FEC1
:1024900001462846FFF78BFD0AF080FE42460346C0
:1024A00097492846FFF796FEFFF737FF00231A46A5
:1024B00001462846FFF7C1FED4F8B83001215B6C15
:1024C00028469847D4F8B83028461B6B9847D4F86C
:1024D000B8308146DB6A28469847DBF8603FD3F87E
:1024E000A020D4F8B8300A9282461B6B2846984741
:1024F0000A9ACDF80880131A042204F58066019226
:10250000089A0092083B524609F104013046FFF751
:1025100099FC7C4A02213046FFF73CFD0AF03EFE62
:10252000012201463046FFF73FFE00213046FFF70B
:102530003EFD0AF0F7FD7249424603463046FFF77A
:1025400049FED4F8003430469B6A9847D4F8B83036
:102550000B905B6B28469847D4F800348246DB6BBF
:1025600030469847D4F80034AAEB000A9B6B3046FB
:102570009847D4F800240A90D26B3046904704F56F
:10258000E9690423CDE9000352460A9B0B99CDF873
:1025900008804846FFF756FC5A4A02214846FFF792
:1025A000F9FC0AF0FBFD012201464846FFF7FCFD5D
:1025B00000214846FFF7FBFC0AF0B4FD4246034603
:1025C0004F494846FFF706FE0799DBF8640F01F014
:1025D000ADFD80460AF030FD6FF07F4307F1100635
:1025E000009300231A4641460190304609F0A9FFA6
:1025F000022130460AF0D1F83B69D3F81880D4F8AC
:10260000B83028469B6A98473B6981469B6B3046A9
:10261000984700EBD07009EBD9734FEA6009C9EB1A
:102620006309D4F8B8302846DB6A9847D4F8B83044
:102630008246DB6B284698473B6900EBD070DB6B2A
:102640000AEB600A3046984700EBD070AAEB6002B4
:10265000002349463046C047049B099A013304933E
:10266000069B13440693049B032B04F58C7407F11B
:1026700038077FF4E0AE0BF53E672349B8460026E5
:102680009946DBF8603F0691D3F8A04094FBF9F43B
:102690007443231D0493DBF8E8320BF53A705B6B4F
:1026A0009847DBF8602F8246D2F8A02092FBF9F21F
:1026B000A2F108040AF072FD0568ED68A84701253B
:1026C00000EB8000049A069902950AF10803CDE90F
:1026D000004038460BF096FFFFF71FFE002301462F
:1026E0001A4638462E440CF0A8F8032E08F1A80824
:1026F00010D00649064B4746AE4218BF1946C0E700
:10270000B0EB010880808000BBEB0108B3EB01084F
:10271000ACEB0108DBF8603FBBF9EE2BD3F8A0105F
:1027200005980090A1F1080300240BF6C8260427A1
:1027300003EBD37301EBD1715B10CDE9017430462B
:1027400008324910FFF77EFB3946FF223046FFF77B
:1027500021FC0AF023FD022201463046FFF724FD4A
:102760004FF496713046FFF722FC0AF017FD3A4607
:10277000034654493046FFF72DFDFFF7CEFD2346B3
:10278000014622463046FFF758FD8BF8DD5A0AF025
:1027900053FC0BF529666FF07F47234622460190D4
:1027A00000973046484909F0CCFE3046022109F036
:1027B000F4FFBBF9DA3ABBF9D20ABBF9D81A03EB3A
:1027C000D37300EB6300BBF9A23A03EBD372DBF8DF
:1027D000603FD3F8A03003EBD373C1EB630101EB8F
:1027E000D171A0EB62022346491030460AF06CFB1F
:1027F0000A23CBF8083029460BF688400CF012F873
:10280000BBF9C060BBF9C2800AF0C8FC083608F109
:1028100008082E493246CDE9007043460BF6D850E1
:1028200009F08FFEDBF8603FD3F8A4900AF0B6FC05
:102830000368DB689847DBF8603FD3F8A02002EB21
:10284000D272561080460AF0A9FC0368DB689847EC
:102850000BF56167043E08EB480800EB4000CDE94A
:102860000060A9EB080322461949029538460BF08F
:10287000C9FEFFF752FD23460146224638460BF0BB
:10288000DCFFDBF8603FBBF9202ED3F8A0100295E7
:10289000BBF9223ECDE900230BF6B866BBF91A3E20
:1028A0008A1A30460B490BF0ADFEFFF736FD234682
:1028B0000146224630460BF0C0FF20460DB0BDE871
:1028C000F08F00BFC4EB0108CBEB010836F4010820
:1028D000D2EB0108AFFB010838B50446FEF75CFFF8
:1028E0001C4B236000254FF47F420123C4E90D23D4
:1028F000C4E90F534FF0FF336364C4E90855A56280
:1029000084F82C50256304F14800FEF745FF124B74
:10291000A364C4E91A5584F87050656704F178001F
:10292000FEF748FF04F1B000FEF744FF29461822E5
:1029300004F1E80019F0A4FD1022294604F5807086
:1029400019F09EFD84F8105108F004F8C4F8140141
:10295000204638BD60EB0108581B020838B53D4BD6
:1029600003600323002503710A2304468360057373
:102970001030FEF71FFF04F14800FEF71BFF04F1C3
:102980008000FEF717FF04F1B800FFF7A5FF04F57C
:10299000E870FFF7A1FF04F53A70FFF79DFF04F51B
:1029A0008060FFF799FF04F5A360FFF795FF04F53A
:1029B000C660FFF791FF04F5E960FFF78DFF04F5AE
:1029C0000660FFF789FF04F67810FFF785FF04F52E
:1029D0002960FEF7EFFE04F6C820FFF77DFF04F53F
:1029E0003E60FEF7FBFE04F68840FEF7F7FE04F5B6
:1029F0005360FEF7F3FE04F6D850FEF7DBFE04F555
:102A00006160FEF7EBFE04F6B860FEF7E7FE07F044
:102A1000A1FFC4F8600F01F06DFB84F8745F84F8C7
:102A20008C5FC4F8640FC4F8685FC4F86C5FC4F8C6
:102A3000705FC4F8785FC4F87C5FC4F8805FC4F846
:102A4000845FC4F8885FC4F8905FC4F8945F204640
:102A500038BD00BFF0EB010810B50A4C2368BFF386
:102A60005B8FDB070CD4204617F075F840B10648A1
:102A7000FFF774FF054818F06BFC204617F077F855
:102A8000014810BD2C1A0020301A0020F92D000832
:102A9000017902292DE9F04198BF0021044688BF41
:102AA000012100F6C820FFF7AFFB04F1B8060025AE
:102AB0004FF6FF77E9B2D4F8640FD6F8448001F0FE
:102AC0006FFB4FF47F42404514BF3946FF2130462B
:102AD000FFF748FA2179A1EB050CDCF1000141EB8D
:102AE0000C0130460135FFF78FFB032D06F58C7680
:102AF000E0D1A1684B1E5942594104F53E600BF0EC
:102B000091FEA168A1F10A025142514104F68840A8
:102B10000BF088FEA168A1F164004142414104F537
:102B20005360BDE8F0410BF07DBE00002DE9F0419F
:102B3000D0F8643F93F8F923022A044600F6D850EF
:102B40004AD193F8CC533049304B0022954218BFFC
:102B5000194609F05BFE01F0CDFA237B90F88863FB
:102B6000B34202D0032B3AD02673D4F8643F93F8D3
:102B70008833032B0CBF2649264904F6B8600BF0B6
:102B80008EFD00272646B846F9B2D4F8640F01F04E
:102B900007FB014606F58060FFF709FAD6F8FC103E
:102BA000D6F844340546C91A06F5E960FFF7FFF97F
:102BB0000137054348EA0505032F5FFA85F806F556
:102BC0008C76E1D1B8F1000F02D02046FFF760FF0C
:102BD0004FF00000BDE8F0810F490022B9E7012E57
:102BE000C2D104F1B8070025E9B2D4F8640F01F0AE
:102BF000D7FA013501463846FFF7D9F9032D07F515
:102C00008C77F1D1B0E700BFDFEB0108D6EB01080C
:102C1000D0F80108AFFB010836F4010800F53E6367
:102C2000994273B5044608D10123A3602046FFF7FB
:102C30002FFF4FF0000002B070BD00F688439942AC
:102C400001D10A23F1E700F55363994201D16423CE
:102C5000EBE700F56163994211D101230193D0F8AC
:102C60000C3B642253430093D0F82C33D0F8142249
:102C7000D0F8FC10D0F8640F02F06AF8D6E700F63E
:102C8000B86399421BD1D0F8640F90F88833012BB8
:102C900011D104F1B8060025E9B2D4F8640F01F0AF
:102CA0007FFA013501463046FFF781F9032D06F51D
:102CB0008C76F1D1BAE7192101F0EFFAB6E700F608
:102CC000C82399420DD000F1B80399420CD000F509
:102CD000E87399420AD000F53A739942A6D10223CB
:102CE00000E003232371A1E70023FBE70123F9E7B9
:102CF00038B50446E0B10B7863B900F561654978F1
:102D000069B1012128460BF08DFD2046FFF7C0FE7A
:102D1000002038BD012BF8D100F6B865EFE7284652
:102D20000BF080FD236829469B6920469847ECE715
:102D30000120EEE710B5034B036004460AF0AAF841
:102D4000204610BD541C020810B50446FFF7F2FFE0
:102D50002046382116F0FDFE204610BD254B70B5EB
:102D60000360044600F6B860FEF7DEFE04F561601D
:102D7000FEF7DAFE04F6D850FFF7DCFF4FF4536598
:102D800040F63836635960191B68A83D9847B5422C
:102D9000F8D104F6C820FFF729F804F52960FFF7F9
:102DA000C9FF40F67815635960191B68A5F58C7545
:102DB0009847B5F5C66FF6D1635960191B68A5F53C
:102DC0008C759847B5F53A7FF6D1635960191B6841
:102DD000A5F58C75984715F1600FF6D180256359DC
:102DE00060191B68383D984715F1280FF7D1204628
:102DF00070BD00BFF0EB010808B50248FFF7AEFF59
:102E000008BD00BF301A002010B50446FFF7A6FF2A
:102E1000204640F6987116F09CFE204610BD50B139
:102E2000037C022B01D90020704700EB830043682C
:102E300019444160F7E70120704738B50446D0B126
:102E40000B7843B900F66825497859B10121284625
:102E50000BF0E8FC01E0012B01D0002038BD00F5AB
:102E60003165F1E728460BF0DDFC236829469B69B4
:102E700020469847F1E70120F0E7F8B5044602F054
:102E8000F5FC04F6C43102F0B6FD02F0EFFC04F6E6
:102E9000DC3102F084FD04F1C00704F581661825D9
:102EA0003B683846DB68984763596019DB68984788
:102EB00033683046DB6838359847C02D07F58C7786
:102EC00006F1A806ECD14FF4DC6563596019DB68A4
:102ED000A8359847B5F5186FF7D104F5C06009F02B
:102EE000CCFF04F5D56009F0C8FF04F51C6009F0BB
:102EF000C4FF04F6682009F0C0FF04F5316009F052
:102F0000BCFF4FF00000F8BD2DE9F341D0F8BC3B09
:102F100093F8F923022A04460BD193F8CC035F49B6
:102F20005F4B0022904218BF194604F5D56009F0A6
:102F30006DFC94F8F43904F1C005002B77D1D4F876
:102F4000BC3B93F88833022B0CBF5649564904F614
:102F500068200BF0A4FB0026F1B2D4F8BC0B01F002
:102F60001FF9013601462846FFF721F8032E05F523
:102F70008C75F1D165683DB9A568002D55D1E5681E
:102F8000002D7AD0022600E000266269554302F047
:102F90006DFCD0F88C306269142B38BF1423534376
:102FA0003C2253430A22B3FBF2F336B9D4F8BC2BCC
:102FB00092F8F923022A08BF6D42002700972A469B
:102FC0003146D4F8BC0B01F017FE04EB8601C5B204
:102FD0004F60D4F8BC3B93F8CB2304F51C6004F598
:102FE000C06804F5816704F5966604F5AB64002AB1
:102FF00045D193F86E23002A41D193F8883303F02A
:10300000FD03012B3BD00BF0F1FB40460BF0EEFB38
:1030100038460BF0EBFB30460BF0E8FB20460BF09C
:10302000E5FB284602B0BDE8F0810126ADE7264663
:1030300004F10C074FF0000856F8042F6B6C61691F
:10304000284601FB0231FEF7B2FFBE42C6F80080FF
:1030500005F58C75F0D1D4F8BC3B93F8CB2312B9AD
:1030600093F86E231AB193F88833012B05D02368A7
:1030700004F51C619B69204698470025A9E70BF0E1
:1030800099FB40460BF096FB38460BF093FB30461D
:103090000BF090FB20460BF08DFBC2E7DFEB010845
:1030A000D6EB01080CEC010811EC01082DE9F04FFA
:1030B0008BB004460D4608920AF070F80368DB688E
:1030C000984700EB80030693083307932B1D264691
:1030D000059304F5816A04944FF00009D4F8B83BD5
:1030E000069AD3F8A000009206F1C0054FF0040B39
:1030F0004FF00308A0F10803CDE901B8059A0621B5
:103100009B0093FBF1F390FBF1F12846FEF79AFE4A
:103110005946FF222846FEF73DFF0AF03FF80222FB
:1031200001462846FFF740F800212846FEF73FFFFA
:103130000AF034F842460346C8492846FFF74AF8E1
:10314000FFF7EBF800231A4601462846FFF775F80B
:10315000D6F8C03028465B6C01219847049BD4F810
:10316000BC0B5FFA89F103F1180800F0DFFF83461A
:1031700009F062FF6FF07F43009300231A4659461F
:103180000190404609F0DDF90221404609F005FBB7
:10319000049B9B699B691F46D6F8C03028469B6AF2
:1031A0009847049B9A698346926B4046904700EB90
:1031B000D0700BEBDB734110C1EB6301D6F8C0306C
:1031C0000991DB6A28469847D6F8C0208346D26B1F
:1031D00028469047049B9B6900EBD0700BEB600B7B
:1031E000DB6B4046984700EBD070ABEB600209996F
:1031F00000234046B847D6F8C03028461B6B984796
:10320000D6F8C0308346DB6A28469847D4F8B83BE6
:10321000D3F8A020D6F8C03009921B6B0746284689
:103220009847D6F8C0108046C96B28468847099A47
:103230008B49A2EB08080125A8F108030BF1040251
:10324000CDE90105009350463B460BF0DBF9FFF753
:1032500064F800231A46014650460BF0EEFA059B2F
:10326000079A13440593049BA9443833B9F1030F1B
:1032700006F58C7604930AF1A80A7FF42FAF04F5C3
:103280003C7304F5DC6704F5186804F6AC190026F5
:103290000493D4F8B83B0498D3F8A030A3F1140BEE
:1032A000D4F8F0325B6B9847824609F077FF0268EA
:1032B000D26890474FEA9B0B0BF1040200EB8000B1
:1032C00072430AF1080304324146CDE900B0029589
:1032D00038460BF097F9FFF720F8002301461A460D
:1032E00038460BF0AAFA59F8043F0A2B03D1012102
:1032F00038460BF097FA0136042E07F1A80708F1BB
:103300000C08C6D101270A2363610297B4F9D230B1
:103310000193B4F9C8305349083B04F5C0650093E4
:10332000B4F9CA30324628460BF06CF9FEF7F5FFC7
:10333000002301461A4628460BF07FFAB4F9C8501C
:10334000B4F9CA8009F02AFF083508F108086FF0BF
:103350007F432A4643490190009304F5D5604346D4
:1033600009F0EFF809F01AFF0368DB689847D4F812
:10337000B83BD3F8A0300546A3F1080909F00EFFC9
:103380000368DB689847089B3749029704F51C6877
:1033900005EB850500EB8000043BCDE900905B1B4D
:1033A000324640460BF02EF9FEF7B7FF00230146E8
:1033B0001A4640460BF041FAD4F8B83BD3F8A49033
:1033C00009F0ECFE0368DB689847D4F8B83BD3F803
:1033D000A02002EBD27242FA07F5064609F0DEFEA3
:1033E0000368DB68984704F66828043D06EB460648
:1033F00000EB4000CDE90050A9EB06031B49029702
:10340000002240460BF0FEF8FEF787FF002301463E
:103410001A4640460BF011FAD4F8B83BB4F9782AB2
:10342000D3F8A0100297B4F97A3ACDE9002304F555
:103430003165B4F9723A8A1A28460D490BF0E2F860
:10344000FEF76BFF002301461A4628460BF0F5F9FC
:103450004FF000000BB0BDE8F08F00BFB0EB0108EB
:1034600015EC010836F4010819EC010811EC01080B
:10347000D0F801082DE9F34100F1C006044600F53B
:1034800081671825B046336864219B6830469847A9
:10349000635964219B68601998473B6838469B686C
:1034A000642138359847C02D06F58C7607F1A807BA
:1034B000E9D14FF4DC65635960199B686421A83534
:1034C0009847B5F5186FF6D10323237400214046C1
:1034D000FEF79AFE002104F5EC70FEF795FE002140
:1034E00004F53C70FEF790FED4F8BC3B93F8F9333A
:1034F000022B09D1652104F5D56009F0A7FC6321F1
:1035000004F5C06009F0A2FC662104F51C6009F016
:103510009DFC662104F6682009F098FC662104F5FC
:10352000316009F093FC02F0A1F90546FEF7F5FEC3
:1035300004F6C43301460D4A00932846234602F0A0
:1035400042FA02F093F90546FEF7E7FE04F6DC3393
:1035500001930323014600932846054A234602F0BF
:1035600003FA4FF0000002B0BDE8F0811F2E000802
:103570003B2E00082DE9F8430346604A43F8042B2C
:1035800000264660C3E90166032303740123044651
:1035900043611830FEF70EF904F15000FEF70AF906
:1035A00004F18800FEF706F9DFF85891DFF858813A
:1035B00004F1C00504F581672846FEF7EDF84FF4E5
:1035C0007F420123C5E90D23C5E90F634FF0FF33A7
:1035D0006B64AE6285F82C602E63C5E90866C5F899
:1035E000009005F14800FEF7D7F8C5F8488085F847
:1035F00070606E67C5E91A6605F17800FEF7DAF8C3
:1036000005F1B000FEF7D6F81822002105F1E80018
:1036100018F036FF1022002105F5807018F030FFF9
:1036200085F8106107F096F905F58C7545F8040CDE
:10363000AF42C1D13846FEF7D1F804F59660FEF7E7
:10364000CDF804F5AB60FEF7C9F804F5C060FEF7ED
:10365000C5F804F5D560FEF7ADF804F5DC6604F5B1
:1036600018653046A836FEF7B9F8B542F9D1244BB3
:1036700003F130072A463E4618685968154603C5C7
:103680000833BB422A46F7D196E80F0004F51B65C4
:1036900085E80F0004F51C60FEF7A0F804F668202A
:1036A000FEF79CF804F53160FEF798F807F052F940
:1036B000C4F8B80B00F01EFDC4F8BC0B02F03CFCD3
:1036C000002384F8D03B84F8E83BC4F8C00BC4F86E
:1036D000C43BC4F8C83BC4F8CC3BC4F8D43BC4F8E2
:1036E000D83BC4F8DC3BC4F8E03BC4F8E43BC4F886
:1036F000EC3BC4F8F03B2046BDE8F88340EC010801
:10370000E8E7010860EB0108581B020810B50A4CF5
:103710002368BFF35B8FDB070CD4204616F01BFA3F
:1037200040B10648FFF726FF054817F011FE204676
:1037300016F01DFA014810BDC8290020CC29002030
:10374000053A000810B50021044600F5DC600BF0D6
:1037500069F804F5F16000210BF064F804F50360EA
:1037600000210BF05FF804F6D8000021BDE81040FE
:103770000BF058B82DE9F84300F66829894504464E
:103780000D4627D194F8F439D0F8BC0B5BB990F80A
:103790008833022B14BF8121822100F07EFD4FF07F
:1037A0000000BDE8F883002504F582764FF48C779D
:1037B00007FB05F3E9B2F258D4F8BC0B013501F070
:1037C000EFFB032DF4D123689B6904F51C612046AF
:1037D0009847E4E700F531668E420BD190F8F43952
:1037E0001BB9D0F8BC0B1921D7E7036800F51C61A1
:1037F0009B69EDE700F5C06399420AD1D0F8BC0B94
:1038000090F8CC3313B101F0E3F9C8E701F0EAF91D
:10381000C5E700F51C60884219D004F5DC66B142AA
:103820005BD004F5F166B14265D004F50366B142A0
:1038300063D004F6D806B14261D004F1C0008142E1
:1038400075D004F58163994279D1002172E094F832
:10385000F43904F1C00804F5EC7704F53C752BBB92
:10386000D4F8BC3B93F8881301291FD10AF0DAFF82
:103870003C4948460AF013FF3B4930460AF00FFF27
:103880004FF47F424FF6FF714046FEF76BFB4FF45B
:103890007F424FF6FF713846FEF764FB4FF47F42DC
:1038A0004FF6FF712846FEF75DFB78E700210AF02E
:1038B000B9FF2E4930460AF0F2FE4FF47F42FF2155
:1038C0004046FEF74FFB4FF47F42FF213846FEF79C
:1038D00049FB4FF47F42FF21E4E70025204605F530
:1038E0001B75FFF72FFF012130460AF09BFF54F8AC
:1038F0002530636153E70125F0E70225EEE7032554
:10390000ECE701260021FEF77FFC002104F5EC70B6
:10391000FEF77AFC002104F53C70FEF775FC0121EE
:103920002846FEF771FC267439E70226EAE70026EE
:10393000E8E70121D4F8BC0B01F006FB2FE704F502
:10394000EC739942DDD004F596639942F1D004F509
:103950003C739942E9D004F5AB6399427FF41FAF01
:103960000221E7E72BEC01082FEC0108D0F8010851
:1039700038B5224B0360044600F53160FEF7D4F8F9
:1039800004F66820FEF7D0F804F51C60FEF7CCF8CA
:1039900040F6D805635960191B68A83D9847B5F5EE
:1039A000C76FF7D1164BC4F8A83604F5D56009F0F7
:1039B00071FA04F5C060FEF7B7F84FF4AB656359D0
:1039C00060191B68A83D9847B5F5587FF7D14FF4AB
:1039D0003C75635960191B68A5F58C75984715F1FE
:1039E000580FF6D18825635960191B68383D9847F0
:1039F00015F1200FF7D1204638BD00BF40EC01087B
:103A0000541C020808B50248FFF7B2FF08BD00BF0A
:103A1000CC29002010B50446FFF7AAFF204640F647
:103A2000F43116F096F8204610BD4FF000007047B4
:103A30004FF0000070474FF00000704708B5806EEF
:103A4000032107F00BFC4FF0000008BD61B990F8AE
:103A5000313083F0010380F83130012213B1034982
:103A600008F024B90249FBE7704700BF00000020BE
:103A70001400002010B5034B0360044609F00AFA55
:103A8000204610BD0413020810B50446FFF7F2FFEC
:103A90002046342116F05DF8204610BD10B5034BCA
:103AA00003600446FDF75CFE204610BD7CEC010877
:103AB00008B50248FFF7F2FF08BD00BFB43600208A
:103AC00010B50446FFF7EAFF20466C2116F041F8D6
:103AD000204610BD70B51E4E3568BFF35B8F15F0E4
:103AE000010532D1304616F036F870B3194C1A4B36
:103AF0002046102240F8043B02212B460AF0BFF872
:103B00002A4629462B4604F124000AF0B8F8134B44
:103B1000E564C4E915344FF48063A4F85E300223F1
:103B200084F860300E4B63660E4B2360C4E9115578
:103B300084F8505084F85C5006F00CFFA0660A48E8
:103B400017F006FC304616F012F8024870BD00BFB0
:103B5000B0360020B43600202085020851DA000873
:103B60005CEC01087CEC0108B13A000838B5002390
:103B7000016083808371044606F0ECFEA06017F0BC
:103B800023FC062590FBF5F303FB150001302071A3
:103B900017F01AFC90FBF5F303FB1500013001232D
:103BA0006071A371204638BD2DE9F04104460068DC
:103BB00003681B6B98470646206803689B6A984712
:103BC0000746206803685B6B9847054620680368D2
:103BD000DB6A984794F904202B18F01900EBD07099
:103BE00003EBD37312EB60004FEA6303114604D476
:103BF000A568D5F8A050A84202DB524222710021EC
:103C000094F90500C318024604D4A568D5F8A45059
:103C1000AB4202DB404260710022206803689C696D
:103C20000123A446BDE8F0416047000038B50446D2
:103C30001D46084B08F014F8074B236084F83150F8
:103C400025B904492A46204608F030F80123637557
:103C5000204638BD00000020A8EC01082DE9F04303
:103C60000022ADF5177D05461146012343A8FFF755
:103C7000DDFFAB6EBDF91E11D3F8A420BDF91C0108
:103C8000DFF85882521AD3F8A010091A02EBD27248
:103C900001EBD17100235210491043A809F014F927
:103CA0004FF0FF1601274FF4004143A809F0CEF86A
:103CB0001E239622CDE90067782117A808F046FB5D
:103CC000282117A8002409F0C1F84FF47F03CDE99B
:103CD000003478221E23962121A808F037FB3221D8
:103CE00021A809F0B3F84FF47F4978232222CDE9C7
:103CF00000392E21602305A808F0DCFA1E2105A852
:103D000009F0A4F84C232222CDE900382E216E239D
:103D10000EA808F0CFFA1E210EA809F097F809F0B6
:103D2000C7F922460A23CDE900606A4950A808F085
:103D300053FC462150A809F089F809F0F3F922460E
:103D40001423CDE9008063495EA808F045FC5021AA
:103D50005EA809F07BF809F05BFA4FF6FF7822467F
:103D60001E235C490190CDF800806CA808F034FC5B
:103D70005A216CA809F06AF809F0D4F922463223D6
:103D8000CDE901605349CDF800907AA808F090FC85
:103D900064217AA809F05AF809F014F9FF2622469E
:103DA00046234C490190009688A808F015FC6E2126
:103DB00088A809F04BF8CDE901670A26224664235A
:103DC000214600962BA808F0E5F931462BA809F00A
:103DD0003DF81423462200966421CDE9018737A8D7
:103DE00008F0D8F9142137A809F030F80C2006F0B3
:103DF0005BFD394C17A90646FFF7B8FE0C2026607C
:103E000006F052FD21A90646FFF7B0FE0C206660C1
:103E100006F04AFD05A90646FFF7A8FE0C20A6609D
:103E200006F042FD0EA90646FFF7A0FE0C20E66054
:103E300006F03AFD50A90646FFF798FE0C202661D1
:103E400006F032FD5EA90646FFF790FE0C20666183
:103E500006F02AFD6CA90646FFF788FE0C20A66135
:103E600006F022FD7AA90646FFF780FE0C20E661E7
:103E700006F01AFD88A90646FFF778FE0C20266298
:103E800006F012FD2BA90646FFF770FE0C206662B5
:103E900006F00AFD37A90646FFF768FEA662A86E7F
:103EA0004FF0FF3106F027FEC4B2002CF7D10A4EC6
:103EB00056F8040B0134FFF777FE0B2CF8D1A86EEF
:103EC00006F01EFEA86E06F02AFE01200AF049F850
:103ED000E5E700BF66EC0108C035002000FFFF00E9
:103EE000034BD3F85C23034B1A615A62704700BF3F
:103EF000501302080000002008B5806E03689B681C
:103F000098474FF0000008BD70B50446806E036806
:103F10001B6A9847B0B90625D4F8FC3333B194F83E
:103F2000CB331BB994F86E33002B4CD00023012205
:103F300004F57F71204609F06EFDC5B201200AF03C
:103F400012F840E0D4F8FC33C3B904F16C054FF427
:103F5000807204F58061284618F0B9FAA66E2846EA
:103F6000FCF748F9336802462946DB693046984732
:103F7000C5B2062DCFD0222D24D1CDE794F8CB2386
:103F800012B994F86E2302B394F87123EAB994F845
:103F9000D923AAB909F0E3FF04F59065C4F87C03BE
:103FA0004FF0FF31284609F0FBFD012384F87133FF
:103FB000D4F8FC33C4F88433284609F016FEC4E76D
:103FC000C4F884330025284670BD0625A7E7000005
:103FD00010B5064B0360044600F5906009F0D8FD6B
:103FE0002046FDF7BDFB204610BD00BF88FC010840
:103FF00008B50248FFF7ECFF08BD00BF24370020DA
:1040000010B50446FFF7E4FF204640F2746115F056
:10401000A0FD204610BD0000F8B5314B314F0446DD
:10402000102240F8043B2221002309F028FE00233F
:104030008422202104F1240009F021FE2A49C4E948
:1040400015144FF48061A4F85E10022184F860100A
:104050002649616604F57F732549636401220023C4
:1040600021604FF08071C4E91232C4E9DD33C4E944
:10407000DF3284F8503084F85C20A366C4F86C13F7
:10408000A4F87023C4F88433A4F8F623A4F8F83312
:1040900004F5906009F072FD97E80F0004F2844582
:1040A00007F1100685E80F000FCE04F294450FC506
:1040B0000FCE0FC596E8070085E8070007F13C0121
:1040C000502204F5986018F042FB4FF4B27207F1E9
:1040D0008C0104F5A26018F03AFB2046F8BD00BF41
:1040E0002085020828E8010851DA000814F30108C5
:1040F00088FC010810B50A4C2368BFF35B8FDB070F
:104100000CD4204615F027FD40B10648FFF784FF88
:10411000054817F01DF9204615F029FD014810BD8E
:104120002037002024370020F13F0008032928BF52
:10413000032100EB8100D0F8840470470B2928BFCD
:10414000002100EB8100D0F894047047582928BF63
:10415000582101F5A27150F821007047022970B56D
:1041600004460D4617D800F5906604EB85044FF021
:10417000FF31304609F014FDD4EDE37A9FED077A64
:1041800067EE877A3046FDEEE77A17EE904A09F03F
:104190002CFD204670BD0024FBE700BF00007A44E0
:1041A000022970B504460D461BD800F5906604EB55
:1041B00085044FF0FF31304609F0F2FC94EDE67AC9
:1041C000D4EDE37A77EEC77A9FED077A67EE877AC8
:1041D0003046FDEEE77A17EE904A09F006FD2046DC
:1041E00070BD0024FBE700BF00007A44022970B5CF
:1041F00004460D4617D800F5906604EB85044FF091
:10420000FF31304609F0CCFCD4EDE97A9FED077A16
:1042100067EE877A3046FDEEE77A17EE904A09F0AE
:10422000E4FC204670BD0024FBE700BF00007A4498
:10423000022970B504460D461BD800F5906604EBC4
:1042400085044FF0FF31304609F0AAFC94EDE67A80
:10425000D4EDE97A77EEC77A9FED077A67EE877A31
:104260003046FDEEE77A17EE904A09F0BEFC204694
:1042700070BD0024FBE700BF00007A4490F8712372
:10428000D0F8843322B9994202D190F8D90370470B
:10429000994234BF54205520704700B5A3B0002385
:1042A0008DF80810012201A901938DF8093009F059
:1042B000B2FB23B05DF804FB10B5044601F03CFEF0
:1042C000027972B910484FF400510AF02FFE94F8A9
:1042D000D4336FF3000384F8D433012384F86F33AD
:1042E00010BD01F029FE0379012BF0D194F86F3352
:1042F000002BECD18B212046FFF7CFFF09F02FFEDA
:10430000C4F87803E3E700BF0008024038B504466C
:1043100001F012FE0579BDB9184801224FF4005191
:104320000AF004FE84F86F53D4F88023C4F8842381
:1043300094F8D423002363F3000284F8713384F8E3
:10434000D93384F8D42318E001F0F6FD0379012B6A
:104350000DD194F86F3333B194F8CB331BB18B216B
:104360002046FFF79AFF002384F86F33DCE701F063
:10437000E3FD94F86F33002BD6D038BD000802401F
:104380002DE9F0410F4605463A21384618F080F8ED
:1043900038B3002300F8013B16F0E3FFC4B205F583
:1043A0009268002658F8041F3846FBF719FF08B931
:1043B000F6B203E001360B2EF4D1002695F88833CF
:1043C000B34203D195F88923A2420CD013B901233B
:1043D00085F8F63385F8886385F889430120BDE8C0
:1043E000F0810446DBE70020F9E710B510460C46E3
:1043F00016F0B4FF51EC100BFCF70EFC94ED007AB4
:1044000007EE900AB4EE677AF1EE10FA16BF0120BB
:104410000020C4ED007A10BD10B510460C4616F011
:10442000A0FF22680346824216BF012000202360BD
:1044300010BD2DE9F04107460C46154602F10C0867
:104440000026294622463846FFF7CFFF2C210028B8
:1044500018BF0646204618F01BF820B10435454524
:1044600000F10104EDD13046BDE8F08190F8C83389
:1044700010B5044663B3D0EDE67AF5EE407AF1EE7E
:1044800010FA0FD1D0EDE77AF5EE407AF1EE10FA9E
:1044900008D1D0EDE87AF5EE407AF1EE10FA14BFCB
:1044A0000123002394F8D02363F3C302002384F88C
:1044B000D023C4F89833C4F89C33C4F8A03394F8DC
:1044C000D03394F8C92362F3451384F8D03310BD78
:1044D00000F56672FFF7ADFF94F8D03360F3C303C5
:1044E00084F8D033EBE770B50E4604462C213046F5
:1044F00017F0CEFF0546002305F8013B324604F5D0
:104500006F712046FFF788FF28B194F8D23343F04B
:10451000010384F8D2332C21284617F0B9FF064650
:10452000002306F8013B2A4604F570712046FFF788
:1045300073FF28B194F8D23343F0020384F8D233E6
:10454000324604F57C712046FFF766FF28B194F8E7
:10455000D23343F0040384F8D23370BD70B50D46F6
:1045600004462C21284617F093FF0646002306F840
:10457000013B2A4604F571712046FFF736FF28B14A
:1045800094F8D13343F0020384F8D1332C21304620
:1045900017F07EFF054610B1002305F8013B3246B7
:1045A00004F579712046FFF720FF28B194F8D13344
:1045B00043F0040384F8D13365B12A4604F57A71D7
:1045C0002046FFF712FF28B194F8D13343F00403DB
:1045D00084F8D13370BD00002DE9F84300F5B676BC
:1045E0000446B9493046FBF7FBFD28B984F871034E
:1045F00084F8D903BDE8F88394F86C31242B10D1EA
:104600003D21304617F044FF054650B1002305F820
:10461000013B04F26D1016F0A4FE0D284DD02028A9
:104620005BD094F86C313C2B40F03581012384F849
:10463000703309F094FCA549C4F8780304F26D10B6
:1046400017F058FF0546F8B101462046FFF798FEDF
:1046500028B194F8D03343F0020384F8D03394F8AF
:10466000D83363B194F88833052B08D094F8D1334C
:10467000002262F3C30384F8D82384F8D13393492A
:10468000002017F037FF0546914FDFF86482DFF80E
:104690006492002675BB002EACD194F8DA33002B5F
:1046A00094F8D13314BF0122002262F3861384F8F8
:1046B000D1339FD084F8DA639CE7284694F8F873E6
:1046C00016F04FFE8742ACD0284616F04AFE84F81A
:1046D000F803012384F8F733A3E7284694F8F97325
:1046E00016F03FFE87429CD0284616F03AFE84F82A
:1046F000F903EEE705223946284617F0D6FEE8B959
:1047000094F8C83343B9012384F8C83394F8D033FC
:1047100043F0080384F8D03304F56372691D204622
:10472000FFF787FE94F8D03360F3820384F8D03328
:104730006649002017F0DEFE0546ABE7052241463C
:10474000284617F0B2FE30B994F8C833002BE3D0F6
:1047500084F8C803DAE703224946284617F0A5FE85
:1047600020B9E91C2046FFF7F9FEE1E75949042288
:10477000284617F09AFE20B9291D2046FFF776FE3D
:10478000D6E755490322284617F08FFEA8B904F250
:10479000DA36033529463046FBF722FD94F8D1334B
:1047A000003818BF012060F3861384F8D1333046F7
:1047B000294617F0C4FF0126BAE7484902222846D5
:1047C00017F073FE68B9AB78A3F13100434243415F
:1047D00084F8CC3394F8D13343F0200384F8D133F8
:1047E000A6E73F490222284617F05FFE30BB94F847
:1047F000D033A4F8F40343F040030235A4F8EC03EB
:1048000084F8D033012240F2011115F8013B002B4E
:104810008ED04D2B0CD006D8432B0CD0462BF4D188
:1048200084F8F423F1E7532BEFD1A4F8EC23ECE761
:1048300084F8F523E9E7A4F8EC13E6E72949032215
:10484000284617F032FE20B9E91C2046FFF74BFE40
:104850006EE725490422284617F027FE00287FF43A
:1048600067AF2A7994F8CB33A2F131014A424A4129
:104870009A4209D083F0010384F8CB3394F8D03303
:1048800043F0010384F8D03394F8D43343F00103A8
:1048900084F8D4334CE75B2B42D104F26D151349F5
:1048A0000422284617F001FE30BB04F5697204F2B9
:1048B00071112046FFF7BDFD94F8D23360F3C303B6
:1048C00084F8D23396E600BF1DF3010820F30108F7
:1048D00022F3010832F3010837F30108C409020882
:1048E0003BF301083EF3010842F3010847F30108D6
:1048F00028F301082EF301081F490422284617F067
:10490000D4FD00287FF476AE04F56C7204F27111C8
:104910002046FFF78EFD94F8D23360F30413CFE7FF
:1049200016490622304617F0C0FD054670B904F559
:10493000B97016F016FD94F8D13384F8D90343F01A
:10494000100384F8D13384F8715353E60C490622DE
:10495000304617F0AAFD00287FF44CAE04F5B9707C
:1049600016F0FFFC94F8D13384F8D80343F0080321
:1049700084F8D1333EE600BF4CF3010851F301083F
:1049800058F3010873B5002604468DF80760A06E41
:1049900003680DF107011B699847C0B208B102B066
:1049A00070BD9DF80720182A02D1A4F86C63EEE7C9
:1049B0000A2AB4F86C3301D00D2A13D1002BF4D09D
:1049C0002344002204F5906583F86C214FF0FF31F9
:1049D000284609F0E5F82046FFF7FEFD284609F0D5
:1049E00004F9E2E7B3F5FE7F9FBF591C1B19A4F839
:1049F0006C1383F86C21CAE770B5044600F5906625
:104A00004FF0FF31304609F0CBF8D4F880536B1CDF
:104A1000012B38BF0123C4F88033304609F0E5F894
:104A2000284670BD70B590F8CB33A2B004460D4651
:104A3000164613B990F86E338BB194F8883373B17E
:104A40002046FFF7D9FF6A1E01900DF107017F355F
:104A500012F8013F01F8013F23B1AA42F8D10C201E
:104A600022B070BD1A4601A9204608F0D4FF019B70
:104A70003360C0B2F4E7000007B5034901AAFFF7AD
:104A8000D1FF03B05DF804FBC1FC010810B504467A
:104A9000FFF778FF09F063FAD4F87833C01AB0F55D
:104AA000967F81BF002384F88833012384F8703314
:104AB00094F8CB3313B994F86E3313B194F8883368
:104AC00043B994F871332BB1002384F87133562322
:104AD00084F8D93301F030FA0379012B4DD194F8E1
:104AE0006F2394F8CB33002A47D06BB394F8F63396
:104AF0002BB12046FFF7C0FF002384F8F63394F86B
:104B0000CB331BB994F86E33002B3ED094F870333E
:104B1000002B3AD009F023FAD4F87433C01A642871
:104B200033D9A06E03681B6A984770B309F017FA6F
:104B3000C4F87403A06E1B49002384F87033036823
:104B40000122DB69984720E094F86E33002BCDD129
:104B500094F8D433DB071BD58B212046FFF79DFB50
:104B600009F0FDF994F8D433C4F87403002262F319
:104B7000000384F8702384F8D43394F8CB33002BEB
:104B8000B4D194F86E33002BB0D14FF0000010BDBB
:104B900009F0E5F9D4F87833C01AB0F5967FDBD880
:104BA000EBE700BF5FF3010807B5034901AAFFF770
:104BB00039FF03B05DF804FBBCFC010807B50349ED
:104BC00001AAFFF72FFF03B05DF804FBB6FC010854
:104BD00007B5034901AAFFF725FF03B05DF804FB01
:104BE000B1FC010807B5034901AAFFF71BFF03B099
:104BF0005DF804FBACFC0108F0B50229A9B004463D
:104C00000E4617461D4644D890F8CB331BB990F892
:104C10006E33002B3FD094F8883303F0FD03012B53
:104C200039D12046FFF7E8FE04EB860607901B4AC1
:104C30001B48D6F88414642632EA270228BF0246AD
:104C400087EAE773B5FBF6F006FB1055CDE90405DE
:104C5000A3EBE7734FF47A75B3FBF5F005FB103364
:104C6000CDE90203CDE900120E4B9DF8B8100E4AB3
:104C700008A8002918BF13460C4A802117F036FBFC
:104C800000231A4607A9204608F0C5FEC0B229B085
:104C9000F0BD0220FBE70C20F9E700BF36F4010865
:104CA00069F3010865F3010861F301086BF301087A
:104CB000F0B50229A9B004460D4617461E463CD859
:104CC00090F8CB331BB990F86E33002B37D094F8A3
:104CD000883303F0FD03012B31D12046FFF78CFE12
:104CE0001849194A079087EAE773642032EA2702D5
:104CF00028BF0A46A3EBE773B6FBF0F100FB116691
:104D00004FF47A70CDE90316B3FBF0F100FB1133D9
:104D1000CDE9011304EB85050092D5F884340B4AE4
:104D2000802108A817F0E2FA00231A4607A92046B6
:104D300008F071FEC0B229B0F0BD0220FBE70C20E4
:104D4000F9E700BF69F3010836F401088AF30108A6
:104D50002DE9F04F9946B1B090F8CB33DDF8E880FB
:104D600004468B4692461BB990F86E33002B61D0F7
:104D700094F8883303F0FD03012B5BD12046FFF745
:104D80003BFE2D4A0F902D488BEAEB7589EAE977B7
:104D900032EA2B0328BF0346A5EBEB75A7EBE977B7
:104DA00032EA2A0B28BF834610EA290038BF104692
:104DB0004FF064094FF47A71B8FBF9F209FB1288DD
:104DC000CDE90C28B7FBF1F2B5FBF1FC01FB127742
:104DD000CDE90A2709908AEAEA76D4F88C24A6EB72
:104DE000EA76B6FBF1FA01FB1A66CDE90762CDE976
:104DF00005BAD4F8882401FB1C55CDE90352CDE94E
:104E0000013CD4F884349DF8EC100D4A00930D4B0E
:104E100010A8002918BF13460B4A802117F066FA24
:104E200000231A460FA9204608F0F5FDC0B231B0A4
:104E3000BDE8F08F0C20FAE736F4010869F30108A9
:104E400061F3010865F30108ADF301082DE9F047AE
:104E50001D46B0B090F8CB33DDF8E08004468A46BA
:104E600091461BB990F86E33002B5DD094F88833CF
:104E7000013B022B58D82046FFF7BEFD9DF8E410F9
:104E80002A4B2B4ADFF8BCC00F90002918BF1A46E6
:104E9000284B89EAE9773CEA2A0028BF1846A7EBA5
:104EA000E97713EA290338BF63464FF064094FF4EA
:104EB0007A71B8FBF9FC09FB1C88CDE90BC8B5FB7E
:104EC000F1FC01FB1C55CDE909C5B7FBF1F501FB70
:104ED0001577CDE9075706938AEAEA76D4F888343D
:104EE000A6EBEA76B6FBF1FA01FB1A66CDE9020AF7
:104EF000CDE90463D4F884349DF8E810CDE90023AB
:104F00000D4A0E4B10A8002918BF13460C4A8021E9
:104F100017F0ECF900231A460FA9204608F07BFD94
:104F2000C0B230B0BDE8F0870C20FAE7E6F3010824
:104F3000EAF3010869F3010861F3010865F3010868
:104F4000EEF3010836F4010830B50229A3B0044697
:104F50000D461FD890F8CB3313B990F86E33DBB100
:104F600094F88833012B17D12046FFF745FD04EB59
:104F700085050A4AD5F884340190802102A817F0EB
:104F8000B5F900231A4601A9204608F044FDC0B235
:104F900023B030BD0220FBE70C20F9E726F401081E
:104FA00070B50229A6B004460D46164632D890F8D0
:104FB000CB3313B990F86E3373B394F88833012B65
:104FC0002AD12046FFF718FD1449154A059086EAB4
:104FD000E6734FF47A70A3EBE67332EA260228BF39
:104FE0000A46B3FBF0F100FB1133CDE9011304EBEA
:104FF00085050092D5F884340A4A802106A817F066
:1050000075F900231A4605A9204608F004FDC0B230
:1050100026B070BD0220FBE70C20F9E769F3010818
:1050200036F4010837F40108F0B50229A9B00546A5
:105030000C4617461E4655D890F8CB331BB990F84E
:105040006E33002B50D095F88833012B4CD1284675
:10505000FFF7D2FC04F5907487EAE7730790A3EB9F
:10506000E77305EB84043EB3204A2149642031EA0A
:10507000270128BF1146B6FBF0F200FB1266CDE90E
:1050800003264FF47A72B3FBF2F002FB1032CDE943
:10509000010200916368174A802108A817F026F9D9
:1050A00000231A4607A9284608F0B5FC2E9B079A4C
:1050B0001A60C0B229B0F0BD0C490D4A4FF47A70A5
:1050C00032EA270228BF0A46B3FBF0F100FB113396
:1050D000CDE9011300926368074A802108A817F000
:1050E00005F9DDE70220E5E70C20E3E769F30108B5
:1050F00036F4010852F401086EF40108F0B50229F3
:10510000A7B004460D4616461F4637D890F8CB3355
:105110001BB990F86E33002B32D094F88833012BF2
:105120002ED12046FFF768FC164B174A059086EAF9
:10513000E6714FF47A70A1EBE67132EA260228BFDD
:105140001A46B1FBF0F300FB1311CDE9013104EB7A
:10515000850500920397D5F884340C4A802106A86F
:1051600017F0C4F800231A4605A9204608F053FC9E
:105170002C9B059A1A60C0B227B0F0BD0220FBE755
:105180000C20F9E769F3010836F4010880F40108FE
:10519000F0B50229A7B004460D4616461F4637D87B
:1051A00090F8CB331BB990F86E33002B32D094F8C3
:1051B0008833012B2ED12046FFF71EFC164B174AD1
:1051C000059086EAE6714FF47A70A1EBE67132EA57
:1051D000260228BF1A46B1FBF0F300FB1311CDE9FC
:1051E000013104EB850500920397D5F884340C4A0D
:1051F000802106A817F07AF800231A4605A9204650
:1052000008F009FC2C9B059A1A60C0B227B0F0BDCB
:105210000220FBE70C20F9E769F3010836F40108E6
:1052200099F4010830B590F8CB33A5B004460D468B
:1052300013B990F86E333BB394F88833012B23D124
:105240002046FFF7D9FB85EAE5734FF47A71A3EBAB
:10525000E573B3FBF1F201FB1233CDE900230B4AF6
:105260000B4B039013EA250338BF13468021094AEC
:1052700004A817F03BF800231A4603A9204608F0BB
:10528000CAFBC0B225B030BD0C20FBE736F40108E4
:1052900069F30108B2F4010870472DE9F0410E46A8
:1052A0000446002841D000F58C5318339942C56A52
:1052B00019D10DB16B1EE36204F59750083007F069
:1052C00096FD18B123682046DB6898472368E18A79
:1052D0009B6820469847E36AAB4201D0206AE8B950
:1052E0000020BDE8F08100F592529142036B10D08E
:1052F00000F2F4680027236BBB42DDD9464504D198
:105300002368E762DB6820469847013708F1A80860
:10531000F1E7013BAB42CFD96B1CCCE70368D4E982
:1053200009125D682346A847DAE70120D9E72DE98D
:10533000F04704460D4607F089FD074604F58B50FB
:105340002946143007F082FD6E1C04F58C5031465E
:10535000183007F07BFD314604F5925007F076FDDA
:10536000264600234FF03408226B9A4202D8384672
:10537000BDE8F08703FB0882A018A158E26A9A42B0
:1053800003F1010A06F55D790BD18B682946984730
:10539000D6F8743329469B684846984738365346B2
:1053A000E2E7CB689847D6F874334846DB689847FD
:1053B000F4E7F8B5044607F060FD064604F58B50A7
:1053C000143007F05AFD04F58C50183007F055FDE5
:1053D00004F5925007F051FDE36A342203FB0220EA
:1053E00002FB034320445B6BDB689847E36A382287
:1053F000534303F55D7023442044D3F87433DB68D2
:10540000984704F59750083007F037FD04F2F4652B
:105410000027236BBB4201D83046F8BD2B682846D5
:10542000DB6898470137A835F3E738B50446D8B1AB
:105430000B78022B09D100F58C551835497859B1F4
:105440000121284609F0EEF901E0042B01D00020EB
:1054500038BD00F59255F1E7284609F0E3F92946F1
:105460002046FFF71AFFF2E70120F1E7012970B5A6
:10547000044627D1B0F91210B0F908300B4493421A
:1054800020DAB0F90C305B1A93421BDD00F5975619
:105490000836304607F0ABFC054650B1236820467D
:1054A000DB6898472368E18A9B682046BDE8704026
:1054B00018473046E18A07F0C9FC04F2F466236B12
:1054C0009D4200D370BD3368E18A9B68304601314C
:1054D00098470135A836F2E710B103689B68184772
:1054E000704700002DE9FF411F4603680A9E5B6C70
:1054F0000D4601210446904698477A1E13B2721E4B
:1055000029B212B26FF07F402181A381E28127820C
:105510006682A4F80A80CDE9002004F58B5014308F
:1055200006F08DFEB4F912303749384F5A1ECDE9D6
:105530000032012604F58C5518350296B4F90A306C
:10554000B4F90820284609F05DF807F075FD01461A
:10555000284609F0FAF8FCF7E0FE234601463A46F1
:10556000284609F06AF9B4F91220B4F90C10029631
:10557000531ECDE9002304F59255B4F90A308A1A76
:105580002846234909F03EF807F056FD0146284613
:1055900009F0DBF8FCF7C1FE234601463A462846EF
:1055A00009F04BF900F062F90546FCF7B6FE04F588
:1055B0009853183301931423014600932846234639
:1055C000144A00F0D1F9144BB4F90E20019304F5FC
:1055D00080530296D3F83033B4F91210D3F8A430C4
:1055E0005B1A009304F59750B4F91030B4F9081021
:1055F0003244083006F09CFD0B9B102B28BF102373
:10560000236304B0BDE8F081C6FC01089B5200088A
:1056100017EC01082B540008404040002DE9F04FE2
:105620000C460F2C85B0054611465CD84FF0340867
:1056300004FB0887074408FB04583846002206F09C
:1056400035FBD8F83430B5F912B09A6901929B6BEA
:10565000B5F910903846984738235C4304F55D76D9
:105660002C442E44D4F8743382469B6B30469847C2
:105670000390306BFFF730FFD8F834200290D26BE4
:10568000B5F9125038469047039B0299A9EB4B0994
:105690009A442D1AA9EB010105EBD575A1EB0A017E
:1056A0006A100BEB5101019D00233846A847D4F83E
:1056B0007433D3F81890D8F8343038461B6B9847B9
:1056C0000746306BFFF708FFD4F874330546DB6AF2
:1056D000304698470023024679193046CC4605B03B
:1056E000BDE8F04F604705B0BDE8F08F2DE9F04F01
:1056F0000F2987B004460D46174698465ED8002A03
:105700005CD04FF0380B0BFB01FB01930BF55D7682
:105710006FF07F4306440093A344002339461A46A2
:10572000304606F00EFFDBF87423B4F91290B4F99A
:10573000100093690593A0EB490A926B304690479D
:10574000DBF87433AAEB000000EBD07009EB600AC1
:10575000DB6BB4F9129030469847A9EB000000EBE0
:10576000D0704210514600233046059EB047B4F930
:10577000122001230293A2F108030193B4F910301F
:10578000A82606FB0546A3EB420305FB022506F20D
:10579000F466009339462B1D304608F033FF41462E
:1057A000304608F0D2FFFCF7B8FD064A0146234612
:1057B000304607B0BDE8F04F09F03FB807B0BDE88C
:1057C000F08F00BF9B520008C36A8B4210B504469D
:1057D0000ED0036B8B420BD90368C1621B699847DB
:1057E00030B12368E18A9B682046BDE81040184725
:1057F00010BDC0E90812836270470000034B044AE1
:10580000D3F81C331361034A136170475017020821
:105810003C0000202800002010B50446806E10B126
:10582000E16E0CF014FF08F08EFBA0674FF0000053
:1058300010BD000010B5034B03600446FBF790FF5A
:10584000204610BD8809020808B50248FFF7F2FF9C
:1058500008BD00BF9C3D002010B50446FFF7EAFFDD
:105860002046E42114F075F9204610BD70B5264E8F
:105870003568BFF35B8F15F0010542D1304614F057
:105880006AF900283DD0214C214B2046102240F8D7
:10589000043B02212B4608F0F2F92B462A46294602
:1058A00004F1240008F0EBF91A4B1B49E564C4E944
:1058B00015344FF48073A4F85E30022384F860300E
:1058C000164B63665422164B236004F19000C4E922
:1058D0001E55C4E91155C4E91A55C4E91C55C4E95B
:1058E000215584F8505084F85C50C4F87F50C4F8B7
:1058F0008C5016F02CFF0B4815F02AFD304614F0A2
:1059000036F9024870BD00BF983D00209C3D002044
:105910002085020851DA000818EA01087409020813
:105920008809020849580008C0E91A12704710B5E2
:105930000C468988206809F0F3FAA3791B1A5842AB
:105940005841237A83420AD0627A824209D1E379AC
:10595000082B02D12272012010BD0133E371002017
:10596000FAE760720023F9E710B5039CA3609DF885
:1059700008302373036FC4E900124BB1A3420DD06A
:105980001A46126942B95C61036FC4E9043201E04E
:10599000C4E90433046701E09442F2D110BD036FFF
:1059A0008B4207D11B69036700225A6170478B4203
:1059B00003D01B69002BFAD17047D3E9043213617D
:1059C000002BF2D1704710B5029CA360436FC4E96D
:1059D00000124BB1A3420DD01A46126942B95C6164
:1059E000436FC4E9043201E0C4E90433446701E0D1
:1059F0009442F2D110BD436F8B4207D11B694367BC
:105A000000225A6170478B4203D01B69002BFAD1E8
:105A10007047D3E904321361002BF2D170470C2395
:105A200003FB010090F8980070470C2303FB01036F
:105A3000084493F8983090F87C209A421ABF80F876
:105A40007C30012000207047836E1B68586A0B6809
:105A500000EBD07042100A60C3EB6000704700009A
:105A60002DE9F843044600F1900600254FF00108A7
:105A700031462046FFF75BFF98B1236F08FA05F225
:105A80007BB1197B114249D0D3E90007317A9A687A
:105A9000264B01EB450103EB4103C8BB19461046F9
:105AA000B8470135072D06F10C06E1D104F1840158
:105AB0002046FFF7C9FF064608B308F050FAD4F8AD
:105AC000883086EAE677C51AA7EBE67708F047FA4A
:105AD000BD4238BF01254FF47A7328BFB5FBF7F5F7
