:020000040800F2
:1000000000000220E50002083DF801083FF8010861
:1000100041F8010843F8010845F801080000000014
:1000200000000000000000000000000041EA01089C
:1000300047F8010800000000D1EA010849F801086A
:1000400035010208350102083501020835010208B0
:1000500035010208350102083501020835010208A0
:100060003501020835010208350102083501020890
:100070003501020835010208350102083501020880
:1000800035010208350102083501020800000000B0
:100090000000000000000000000000003501020820
:1000A0003501020835010208350102083501020850
:1000B0003501020835010208350102083501020840
:1000C0003501020835010208350102083501020830
:1000D0003501020861F8010835010208000000003E
:1000E0003501020835010208350102080000000050
:1000F00000000000000000000000000035010208C0
:10010000000000006DF80108350102083501020801
:1001100000000000000000000000000000000000DF
:10012000350102083501020879F8010885F801084F
:10013000350102080000000000000000000000007F
:1001400000000000000000000000000091F801081D
:100150009DF8010835010208A9F8010835010208D7
:10016000350102083501020800000000000000000F
:10017000000000000000000000000000000000007F
:10018000000000003501020800000000000000002F
:080190003501020835010208E7
:1001A00010B5054C237833B9044B13B10448AFF3B1
:1001B00000800123237010BD5003002000000000C8
:1001C000BC4D020808B5034B1BB103490348AFF30C
:1001D000008008BD0000000054030020BC4D020850
:1001E00010F8012B11F8013B012A28BF9A42F7D0E1
:1001F000D01A7047034613F8012B002AFBD1181AB6
:1002000001387047000000000000000000000000FE
:1002100001F0FF01102A2BDB10F0070F08D010F8B7
:10022000013B013A8B422DD010F0070F42B3F6D1BB
:10023000F0B441EA012141EA014122F007047FF0D4
:1002400000070023F0E80256083C85EA010586EA2B
:10025000010685FA47F5A3FA87F586FA47F6A5FA67
:1002600087F68EB9EED1F0BC01F0FF0102F0070273
:1002700032B110F8013B013A83EA010313B1F8D11E
:100280000020704701387047002D06BF35460338FF
:10029000073815F0010F07D1013015F4807F02BF38
:1002A000013015F4C03F0130F0BC0138704700BF89
:1002B00081F0004102E000BF83F0004330B54FEA17
:1002C00041044FEA430594EA050F08BF90EA020F84
:1002D0001FBF54EA000C55EA020C7FEA645C7FEA17
:1002E000655C00F0E2804FEA5454D4EB5555B8BF3A
:1002F0006D420CDD2C4480EA020281EA030382EAAB
:10030000000083EA010180EA020281EA0303362D3C
:1003100088BF30BD11F0004F4FEA01314FF4801C0F
:100320004CEA113102D0404261EB410113F0004F21
:100330004FEA03334CEA133302D0524263EB4303D8
:1003400094EA050F00F0A780A4F10104D5F1200E76
:100350000DDB02FA0EFC22FA05F2801841F10001D1
:1003600003FA0EF2801843FA05F359410EE0A5F1A5
:1003700020050EF1200E012A03FA0EFC28BF4CF0D6
:10038000020C43FA05F3C01851EBE37101F000458C
:1003900007D54FF0000EDCF1000C7EEB00006EEB99
:1003A0000101B1F5801F1BD3B1F5001F0CD3490823
:1003B0005FEA30004FEA3C0C04F101044FEA44527A
:1003C00012F5800F80F09A80BCF1004F08BF5FEA01
:1003D000500C50F1000041EB045141EA050130BDE1
:1003E0005FEA4C0C404141EB0101013C28BFB1F5F3
:1003F000801FE9D291F0000F04BF01460020B1FA3E
:1004000081F308BF2033A3F10B03B3F120020CDA10
:100410000C3208DD02F1140CC2F10C0201FA0CF0EE
:1004200021FA02F10CE002F11402D8BFC2F1200C53
:1004300001FA02F120FA0CFCDCBF41EA0C01904009
:10044000E41AA2BF01EB0451294330BD6FEA040452
:100450001F3C1CDA0C340EDC04F11404C4F120023D
:1004600020FA04F001FA02F340EA030021FA04F34F
:1004700045EA030130BDC4F10C04C4F1200220FAA6
:1004800002F001FA04F340EA0300294630BD21FAE4
:1004900004F0294630BD94F0000F83F4801306BFAA
:1004A00081F480110134013D4EE77FEA645C18BF9E
:1004B0007FEA655C29D094EA050F08BF90EA020F35
:1004C00005D054EA000C04BF1946104630BD91EA2D
:1004D000030F1EBF0021002030BD5FEA545C05D130
:1004E0004000494128BF41F0004130BD14F580046F
:1004F0003CBF01F5801130BD01F0004545F0FE41E3
:1005000041F470014FF0000030BD7FEA645C1ABF17
:10051000194610467FEA655C1CBF0B46024650EA4E
:10052000013406BF52EA033591EA030F41F400217A
:1005300030BD00BF90F0000F04BF0021704730B500
:100540004FF4806404F132044FF000054FF00001D5
:1005500050E700BF90F0000F04BF0021704730B596
:100560004FF4806404F1320410F0004548BF40426B
:100570004FF000013EE700BF42004FEAE2014FEAC0
:1005800031014FEA02701FBF12F07F4393F07F4F9B
:1005900081F06051704732F07F4208BF704793F09E
:1005A0007F4F04BF41F40021704730B54FF46074B1
:1005B00001F0004521F000411CE700BF50EA0102B4
:1005C00008BF704730B54FF000050AE050EA01025D
:1005D00008BF704730B511F0004502D5404261EBCD
:1005E00041014FF4806404F132045FEA915C3FF40E
:1005F000D8AE4FF003025FEADC0C18BF03325FEAAB
:10060000DC0C18BF033202EBDC02C2F1200300FA5B
:1006100003FC20FA02F001FA03FE40EA0E0021FA80
:1006200002F11444BDE600BF70B54FF0FF0C4CF46E
:10063000E06C1CEA11541DBF1CEA135594EA0C0F20
:1006400095EA0C0F00F0DEF82C4481EA030621EA5B
:100650004C5123EA4C5350EA013518BF52EA033596
:1006600041F4801143F4801338D0A0FB02CE4FF048
:100670000005E1FB02E506F00042E0FB03E54FF078
:100680000006E1FB03569CF0000F18BF4EF0010E70
:10069000A4F1FF04B6F5007F64F5407404D25FEA6C
:1006A0004E0E6D4146EB060642EAC62141EA55511F
:1006B0004FEAC52040EA5E504FEACE2EB4F1FD0C61
:1006C00088BFBCF5E06F1ED8BEF1004F08BF5FEADF
:1006D000500E50F1000041EB045170BD06F0004691
:1006E00046EA010140EA020081EA0301B4EB5C043E
:1006F000C2BFD4EB0C0541EA045170BD41F4801136
:100700004FF0000E013C00F3AB8014F1360FDEBF5A
:10071000002001F0004170BDC4F10004203C35DA36
:100720000C341BDC04F11404C4F1200500FA05F3B9
:1007300020FA04F001FA05F240EA020001F000425A
:1007400021F0004110EBD37021FA04F642EB0601D0
:100750005EEA430E08BF20EAD37070BDC4F10C04FA
:10076000C4F1200500FA04F320FA05F001FA04F2BE
:1007700040EA020001F0004110EBD37041F10001AA
:100780005EEA430E08BF20EAD37070BDC4F12005B5
:1007900000FA05F24EEA020E20FA04F301FA05F21D
:1007A00043EA020321FA04F001F0004121FA04F2C5
:1007B00020EA020000EBD3705EEA430E08BF20EA95
:1007C000D37070BD94F0000F0FD101F000464000CF
:1007D00041EB010111F4801F08BF013CF7D041EA51
:1007E000060195F0000F18BF704703F00046520055
:1007F00043EB030313F4801F08BF013DF7D043EA26
:100800000603704794EA0C0F0CEA135518BF95EADB
:100810000C0F0CD050EA410618BF52EA4306D1D162
:1008200081EA030101F000414FF0000070BD50EA81
:10083000410606BF1046194652EA430619D094EA0B
:100840000C0F02D150EA013613D195EA0C0F05D1F5
:1008500052EA03361CBF104619460AD181EA030149
:1008600001F0004141F0FE4141F470014FF0000001
:1008700070BD41F0FE4141F4780170BD70B54FF09C
:10088000FF0C4CF4E06C1CEA11541DBF1CEA13551C
:1008900094EA0C0F95EA0C0F00F0A7F8A4EB0504FE
:1008A00081EA030E52EA03354FEA013100F08880F5
:1008B0004FEA03334FF0805545EA131343EA1263BE
:1008C0004FEA022245EA111545EA10654FEA002673
:1008D0000EF000419D4208BF964244F1FD0404F52C
:1008E000407402D25B084FEA3202B61A65EB030588
:1008F0005B084FEA32024FF480104FF4002CB6EB45
:10090000020E75EB030E22BFB61A754640EA0C00C4
:100910005B084FEA3202B6EB020E75EB030E22BF04
:10092000B61A754640EA5C005B084FEA3202B6EB45
:10093000020E75EB030E22BFB61A754640EA9C0004
:100940005B084FEA3202B6EB020E75EB030E22BFD4
:10095000B61A754640EADC0055EA060E18D04FEA92
:10096000051545EA16754FEA06164FEAC30343EA32
:1009700052734FEAC2025FEA1C1CC0D111F4801FFF
:100980000BD141EA00014FF000004FF0004CB6E7F8
:1009900011F4801F04BF01430020B4F1FD0C88BF97
:1009A000BCF5E06F3FF6AFAEB5EB030C04BFB6EBA2
:1009B000020C5FEA500C50F1000041EB045170BD95
:1009C0000EF0004E4EEA113114EB5C04C2BFD4EBC2
:1009D0000C0541EA045170BD41F480114FF0000E46
:1009E000013C90E645EA060E8DE60CEA135594EAC2
:1009F0000C0F08BF95EA0C0F3FF43BAF94EA0C0FC5
:100A00000AD150EA01347FF434AF95EA0C0F7FF439
:100A100025AF104619462CE795EA0C0F06D152EA8D
:100A200003353FF4FDAE1046194622E750EA410671
:100A300018BF52EA43067FF4C5AE50EA41047FF482
:100A40000DAF52EA43057FF4EBAE12E74FF0FF3CE7
:100A500006E000BF4FF0010C02E000BF4FF0010CB8
:100A60004DF804CD4FEA410C7FEA6C5C4FEA430C31
:100A700018BF7FEA6C5C1BD001B050EA410C0CBF80
:100A800052EA430C91EA030F02BF90EA020F0020E2
:100A9000704710F1000F91EA030F58BF994208BF49
:100AA00090422CBFD8176FEAE37040F00100704706
:100AB0004FEA410C7FEA6C5C02D150EA013C07D15D
:100AC0004FEA430C7FEA6C5CD6D152EA033CD3D0A8
:100AD0005DF8040B704700BF8446104662468C46A2
:100AE0001946634600E000BF01B5FFF7B7FF0028D5
:100AF00048BF10F1000F01BD4DF808EDFFF7F4FFFE
:100B00000CBF012000205DF808FB00BF4DF808ED88
:100B1000FFF7EAFF34BF012000205DF808FB00BFAB
:100B20004DF808EDFFF7E0FF94BF012000205DF8CD
:100B300008FB00BF4DF808EDFFF7CEFF94BF012082
:100B400000205DF808FB00BF4DF808EDFFF7C4FF7B
:100B500034BF012000205DF808FB00BF4FEA410CC4
:100B60007FEA6C5C02D150EA013C0AD14FEA430CA7
:100B70007FEA6C5C02D152EA033C02D14FF00000E4
:100B800070474FF0010070474FEA410212F5001222
:100B900015D211D56FF47873B3EB625212D94FEAC4
:100BA000C12343F0004343EA505311F0004F23FAAE
:100BB00002F018BF404270474FF00000704750EA03
:100BC000013005D111F0004008BF6FF000407047C0
:100BD0004FF00000704700BF4A0011D212F500121A
:100BE00011D20DD56FF47873B3EB62520ED44FEA85
:100BF000C12343F0004343EA505323FA02F0704705
:100C00004FF00000704750EA013002D14FF0FF3042
:100C100070474FF0000070474FEA4102B2F1E043E5
:100C200024BFB3F5001CDCF1FE5C0DD901F0004CD3
:100C30004FEAC0024CEA5070B2F1004F40EB830023
:100C400008BF20F00100704711F0804F21D113F14F
:100C50003872BCBF01F00040704741F480114FEA88
:100C60005252C2F11802C2F1200C10FA0CF320FA11
:100C700002F018BF40F001004FEAC1234FEAD3232E
:100C800003FA0CFC40EA0C0023FA02F34FEA430398
:100C9000CCE77FEA625307D150EA01331EBF4FF021
:100CA000FE4040F44000704701F0004040F0FE403C
:100CB00040F40000704700BF53B94AB9002908BF8B
:100CC00000281CBF4FF0FF314FF0FF3000F0A0B9FB
:100CD000ADF1080C6DE904CE00F03CF8DDF804E05D
:100CE000DDE9022304B0704738B500220023044632
:100CF0000D46FFF70BFF28B920462946BDE83840CE
:100D000000F00AB8204605F1004100F005F8404225
:100D100061EB410138BD00BFD0B50C4B0022064647
:100D20000F46FFF781FCFFF757FF0446FFF702FC71
:100D3000074B0022FFF778FC02460B463046394647
:100D4000FFF7BAFAFFF748FF2146D0BD0000F03D9B
:100D50000000F0412DE9F047089D0C46002B4ED1D4
:100D600094468C458646B2FA82F262D94AB1C2F103
:100D70002003914020FA03F30CFA02FC194300FA15
:100D800002FE4FEA1C471FFA8CF6B1FBF7F44FEA5C
:100D90001E4307FB141143EA014304FB06F1994289
:100DA0000AD91CEB030304F1FF3080F01281994251
:100DB00040F20F81023C6344591A1FFA8EF3B1FBD3
:100DC000F7F007FB101143EA014300FB06F69E42D1
:100DD0000AD91CEB030300F1FF3180F0FC809E4236
:100DE00040F2F980634402389B1B40EA0440002132
:100DF0001DB1D3400022C5E90032BDE8F0878B4227
:100E000005D90DB1C5E9000100210846F5E7B3FA9F
:100E100083F1002946D1A34202D39042C0F0F08072
:100E2000861A64EB03030120002DE6D0C5E90063B8
:100E3000E3E7002A40F09080A1EB0C044FEA1C4845
:100E40001FFA8CF70121B4FBF8F64FEA1E4308FBAA
:100E5000164443EA044307FB06F0984208D91CEB0A
:100E6000030306F1FF3402D2984200F2CD802646F9
:100E70001C1A1FFA8EF3B4FBF8F008FB104443EA87
:100E8000044300FB07F79F4208D91CEB030300F162
:100E9000FF3402D29F4200F2B0802046DB1B40EAC2
:100EA0000640A5E7C1F120068B4022FA06F71F4352
:100EB00020FA06FC04FA01F343EA0C03F44000FABA
:100EC00001F8380C4FEA1349B4FBF0FE1FFA87FC17
:100ED00000FB1E4449EA04440EFB0CF9A14502FA4A
:100EE00001F20AD93C190EF1FF3A80F08480A14545
:100EF00040F28180AEF1020E3C44A4EB09041FFADB
:100F000083F9B4FBF0F300FB134449EA044403FB08
:100F10000CFCA44507D93C1903F1FF3067D2A44566
:100F200065D9023B3C4443EA0E40A0FB0293A4EB8C
:100F30000C049C42CE469C4651D34ED055B1B8EBE2
:100F40000E0364EB0C0404FA06F6CB401E43CC40BF
:100F5000C5E90064002150E7C2F1200320FA03F143
:100F60000CFA02FC24FA03F394400C434FEA1C48A9
:100F700000FA02FE1FFA8CF7B3FBF8F008FB103101
:100F8000230C43EA014300FB07F1994208D91CEB0B
:100F9000030300F1FF362CD299422AD90238634468
:100FA0005B1AA4B2B3FBF8F108FB113344EA034423
:100FB00001FB07F3A34208D91CEB040401F1FF363F
:100FC00013D2A34211D902396444E41A41EA004120
:100FD00039E70446F0E6084606E7C845AED2B9EB65
:100FE000020E63EB070C0138A8E73146EDE7034634
:100FF00099E73046D4E7D6467FE7634402384DE7A9
:101000000646234608460FE7023E634430E700BF2A
:10101000704700BF03798B4228BF0431C91AC9B297
:101020004171704708B503681B699847B0FA80F0B2
:10103000400908BD10B508F097FE204908F0B8FE39
:101040000FF026FC1E490FF0E1FC0FF021FC1D49BA
:101050000FF020FD0FF01CFC03681B68984713F08D
:101060001FFB036818495B6A984705F0A9FC1749FC
:10107000002205F003FD05F0A3FC03681B689847F8
:101080001348FFF7CFFF30B10EF01CFE0368BDE838
:1010900010401B6818470F48FFF7C4FF10B103F05A
:1010A000B1FBF3E703F06EFE0B4B836603F06AFEC1
:1010B00003681B68984700F071FBE7E76C030020AA
:1010C000A40300208403002088D7012040D70120FA
:1010D0008804002078040020D003002000BEFEE732
:1010E000704700002DE9F0473D4ADFF840913D4F41
:1010F0003D4BBA601021C9E902210822FA603B4A3F
:101100003B49916000244FF48060C2E90034D06014
:10111000DFF81C81374ADFF81CA1C9F8003001252F
:10112000C8E90035C7E90035C2E900340223D360BD
:101130004FF06413CAF804302F4B304ECAF8003019
:101140002F4BCAF808304FF0051373602D4B3360F6
:1011500006F10C002C4B9160C8E90215C9F8045047
:10116000B36012F053FF294B294A1A60294AC3F889
:101170008420A3F88840284B284818604FF4F07268
:1011800027481C760321C3E901124FF4A071C3E97B
:10119000031259610571C180224D0281C3E907A97B
:1011A000C3E909872146204B03604471C66004747B
:1011B000C0F81240C0F81640C0F81A40FFF72AFFE6
:1011C0004FF400404023C5E900034220C5E903462F
:1011D0002C726C610FF006FBE860BDE8F08700BF81
:1011E0000000024098040020A4F5020888040020B2
:1011F000000402407804002014F602085C04002079
:10120000E4D60120C8F5020848D50120D00300200B
:1012100064F6020890D80120A40300207883020815
:10122000840300206C03002050830208B8040020CF
:10123000A80400206C04002008B5074BD86810B142
:1012400001211EF078FF0548054B40F80C3BBDE836
:10125000084012F0E5BE00BF6C0300205C040020D3
:10126000C8F502084FF00000704700F5805090F874
:10127000B40F002818BF0320704712F06FBDF8B5F7
:101280000446002840D00E784F7826BB00F5BA55AA
:10129000EB680C351B692846984760B32B682846D5
:1012A0001B6C984738B3DFB10121284613F040FD8D
:1012B000062E1ED103F066FD90F86E3304F5AD5492
:1012C0001434DBB103F05EFD03F018FF002120466B
:1012D00013F02EFD0DE0012E0DD100F5C655D7E718
:1012E0003946284613F024FD23682946DB69204649
:1012F00098470020F8BD002FDAD1FAE703F042FD4D
:1013000003F0C6FE0121E2E70120F3E708B51DF076
:101310000DF8BDE808401CF0DBBE000010B5074B1F
:10132000044640F8483B13F077F804F1240012F02B
:10133000C9FE201D12F0C6FE204610BD98F6020818
:1013400010B50446FFF7EAFF204668211EF0F3FEC1
:10135000204610BD054A02600022C0E90122C0E912
:101360000322C0E90522C261704700BF788E0208DF
:1013700010B50446FFF7EEFF044B23600023C4E9D9
:10138000083384F82830E362204610BD7C8C0208C4
:1013900010B50446FFF7DEFF064B23600122002351
:1013A00084F82C20C4E90833A362236384F8343022
:1013B000204610BDCC8D02082DE9F8430446FFF706
:1013C000C9FF1C4B236000256FF07F43DFF8689056
:1013D00023634FF001084FF080774FF0FF36C4E9E8
:1013E0000855C4E90A55A58604F13800FFF7B2FF95
:1013F000C4E91655C4E91B76C4F83890256684F80C
:101400006480A566A4F8785004F17C00FFF7A2FF81
:10141000C4E92B5784F8A880C4E92755C4F87C9008
:10142000C4F8A450C4F8B460A4F8BC502046BDE889
:10143000F88300BF00F70208288C02082DE9F84362
:1014400005460026FFF786FFC5E90866C5E90A6676
:10145000304BDFF8CC902B602E6305F1340405F59A
:101460005D774FF0FF382046FFF774FFC4F8009017
:1014700084F82060C4F82C8084F83060C4E90966E0
:101480003434BC42EFD105F2F46620463834FFF71D
:101490007FFFB442F9D105F5975614362046C03483
:1014A000FFF78AFFB442F9D1204605F580540026A3
:1014B000FFF750FF184BC4F8F43205F59850C4F804
:1014C00014631830FFF778FF05F59E501830FFF7CA
:1014D00073FF05F5A4501830FFF74AFF05F5A65035
:1014E0000830FFF737FF0D4BC4F8C834C4F8E86480
:1014F000C4F8EC64C4F8F06484F8F464C4F8F864E4
:10150000C4F8FC640FF0C4F9C4F800052846BDE82F
:10151000F88300BFF4640208248D0208D08C02080E
:10152000D483020870B50A2300250446C0E900559B
:10153000C0E9025503611430FFF70CFF4B4B6361A8
:10154000C4E90D5504F13C00FFF712FF04F16C00F3
:10155000FFF700FF464BE36604F18C00FFF718FF2E
:1015600004F1C400FFF7F6FE424BC4F8C4304FF458
:101570007F420123C4E93E234FF00041C4E94053B8
:101580006FF00043C4E942134FF0FF33C4F8103149
:10159000C4E93955C4F8EC5084F8F050C4F8F4505C
:1015A00004F58A70FFF7E4FE04F5A270FFF7F0FE81
:1015B00004F5BE70FFF7ECFE2946182204F5DA7038
:1015C00021F056FA2946102204F5E67021F050FA6F
:1015D00084F8DC510FF05CF9C4F8E00104F5F27016
:1015E000FFF7EAFE04F52970FFF7E6FE04F55970EF
:1015F000FFF7E2FE204B93E8070004F2244585E85C
:10160000070004F5866603F10C023C33106851684C
:10161000354603C508329A422E46F7D104F58C6050
:10162000FFF7CAFE04F5A460FFF7C6FE0FF030F91D
:10163000002384F8F03584F80836C4F8E005C4F8CF
:10164000E435C4F8E835C4F8EC35C4F8F435C4F82A
:10165000F835C4F8FC35C4F80036C4F80436C4F8CC
:101660000C36C4F81036204670BD00BF208E02082C
:10167000D08C0208A4530208D84D0208434B70B521
:1016800010220446222140F8043B002312F03FFDC3
:1016900000230822202104F1240012F038FD04F573
:1016A000FD531433002563641423C4E91253384BEB
:1016B00084F85050C4E915344FF48063A4F85E30C8
:1016C000022384F860302046324B6366324B84F844
:1016D0005C504022294640F8683B21F0C9F9C4E932
:1016E0002A5504F1B000FFF7A9FE04F5AD501430FF
:1016F000FFF762FE04F5B3501430FFF739FE04F52E
:10170000B5500430FFF744FE04F5B6501C30FFF727
:101710003FFE04F5B8501430FFF73AFE04F5BA5016
:101720000C30FFF749FE04F5C0500C30FFF744FEC3
:1017300004F5C6500C30FFF73FFE04F5CC5004F51D
:1017400080560C30FFF7EEFE032386F8A03F0FF023
:101750009FF8C6F8A40F05F033F9C6F8A80F03F0F8
:1017600011FBC6F8AC0F08F0FFFA86F8C85FC6F8A0
:10177000B00FC6F8BC5FC6F8C05FC6F8C45FC6F855
:10178000CC5FC6F8D05F204670BD00BF98F6020857
:10179000E13E0108C05202085053020810B50A4C3D
:1017A0002368BFF35B8FDB070CD420461EF0C5FC1B
:1017B00040B10648FFF762FF054820F0BDF820461B
:1017C0001EF0C7FC014810BDC8040020CC04002056
:1017D000DD2200082DE9F04F00F5805685B0D6F8DF
:1017E000A43F0546D3F8A0400F46002967D0083C27
:1017F000032294FBF2F4D3F8A4B011F017FF0368AE
:10180000DB689847804611F011FF0368DB68984752
:1018100005F5BA5909F10C0900EB400008EB48083E
:101820004FF0010A2849CDF808A0ABEB08030022CD
:10183000CDE90040484613F02DF9FFF767FD00237E
:1018400001461A46484613F07EFACFB1B6F958273A
:10185000CDF808A0B6F95E371B49CDE9004305F580
:10186000C0570C37B6F956370532384613F012F91F
:10187000FFF74CFD002301461A46384613F063FA81
:10188000D6F8A43F1049D3F8A02001230293B6F95B
:101890005E37CDE9004305F5C6550C35B6F9563728
:1018A000121B284613F0F6F8FFF730FD002301461F
:1018B0001A46284605B0BDE8F04F13F044BA04EBD1
:1018C000D4746410043C96E795790208034603F546
:1018D000805300F5BA50D3F8AC3F93F88C33022B09
:1018E0000CBF024902490C3013F02AB9CC5202084D
:1018F000D152020800F58052D2F8AC2F92F88C2316
:10190000012A05D121B100F5BA500C3013F018B9F5
:10191000FFF7DCBF00F5805300F5C650D3F8AC3FAD
:1019200093F88C33052B00F10C0002D1034913F01E
:1019300007B90BB90249FAE70249F8E7D55202089C
:10194000F36302081461020800F58052D2F8AC2F4C
:1019500092F88C23012A05D121B100F5C6500C3034
:1019600013F0EEB8FFF7D6BF70B500F1640304467C
:10197000002553F8042F8A4218D1D4F8AC301A331A
:1019800054F8230003681B69984704F1B000C4F8B9
:10199000AC50294604F00EFFD4F8AC301A3354F89A
:1019A00023000368BDE87040DB6818470135102D3F
:1019B000DFD170BDD0F8AC301A3370B5044650F8A2
:1019C000230003680D461B69984704F1B000C4F872
:1019D000AC50294604F0EEFED4F8AC301A3354F87B
:1019E00023000368BDE87040DB68184773B500F555
:1019F000AD5614368E4204460D4614D100F580547F
:101A0000D4F8AC0F90F86E334BB103F077FB0021A4
:101A1000304613F08DF94FF0000002B070BD03F0B6
:101A200037FB0121F4E700F1B003994204D190F8AB
:101A3000DC10FFF7BFFFEEE7D0F8AC301A3350F8F8
:101A4000230003689B699847C0B20828E3D104F5D6
:101A5000BA530C339D420CD104F58054D4F8AC0F2A
:101A600090F88C33022B14BF8121822103F000FBFC
:101A7000D1E704F5C6530C339D42CCD104F5805414
:101A8000D4F8AC0F90F88C23D0F88433052A0CD10D
:101A9000002201920B4980F8DD2380F87023C0F802
:101AA000883301AA03F090FFB5E7002180F8701396
:101AB000C0F888330AB1092A01D11821D6E71921C3
:101AC000D4E700BFDC520208F7B5044600F1B005C8
:101AD00004F58056284604F0F8FC28221021D6F898
:101AE000A43FCDE9002100221146D3F8A030002701
:101AF000284604F075FEC4F8A87011F0E5FC3946DC
:101B00000346724A284604F0E7FD714AD4F8A8104B
:101B1000284604F079FDD4F8A8707B1CC4F8A830DE
:101B200002F0A0FD1A3744F82700D4F8A87011F08D
:101B3000CBFC3946674A0346284604F0CDFDD4F86D
:101B4000A8707B1CC4F8A83008F09CFD1A3744F834
:101B50002700D4F8A87011F0B7FC394603465E4A56
:101B6000284604F0B9FDD4F8A8707B1CC4F8A8304E
:101B700001F0B4FE1A37D6F8AC3F44F8270093F8CA
:101B8000FD339BB9D4F8A87011F09EFC394603468A
:101B9000524A284604F0A0FDD4F8A8707B1CC4F873
:101BA000A8300CF0F7FE1A3744F82700D4F8A870D4
:101BB00011F08AFC39460346494A284604F08CFD58
:101BC000D4F8A8707B1CC4F8A8300CF0B5F81A370C
:101BD000D6F8AC3F44F8270093F8FD3363BBD4F844
:101BE000A87011F071FC394603463E4A284604F0BD
:101BF00073FDD4F8A8707B1CC4F8A8300AF096FADC
:101C00001A37D6F8AC3F44F8270093F8FD339BB958
:101C1000D4F8A87011F058FC39460346324A2846D9
:101C200004F05AFDD4F8A8707B1CC4F8A83007F063
:101C30008BFB1A3744F82700D6F8AC3F93F8FD33F6
:101C4000022B13D1D4F8A87011F03EFC394603469C
:101C5000264A284604F040FDD4F8A8707B1CC4F83E
:101C6000A83005F075FA1A3744F82700D4F8A870A0
:101C700011F02AFC39461E4A0346284604F02CFD82
:101C8000D4F8A8707B1CC4F8A8300DF053FC1A37A8
:101C9000D4F8A82044F82700D6F8A43F01922822BF
:101CA0000092002211462846D3F8A03004F098FD97
:101CB0000023214628461A4604F046FE4FF4FA61F6
:101CC000284603B0BDE8F04004F0BCBBE152020876
:101CD0003C000020E5520208EE520208F9520208C8
:101CE0000653020813530208195302082C53020822
:101CF0003F5302082DE9F04F054689B005F58054A1
:101D000008F032F808F058F8D4F8A46F08F02CF86E
:101D10008168003918BF012130460EF0A2FE94F808
:101D2000A01FD4F8A40F0FF0E2F9D4F8A43F904A12
:101D3000C3F89820D3F8A47011F078FC0368DB682E
:101D40009847064611F0C0FB0368DB689847D4F853
:101D5000A43FD3F8A0300593824611F0B5FB02688A
:101D600092689047834611F0AFFB0268D2689047B3
:101D700006EB46067F4A059B05F5B359023F4FF037
:101D8000060809F11409BF1B4000002608FB1B339D
:101D9000CDE901260090A7EB4A024846314610F0F3
:101DA00001FC4FF47A71484611F098FAD4F8AC0F60
:101DB00003F0A4F9D4F8A43FD3F8A0A011F084FB59
:101DC00003689B689847B4F97EB6814611F07CFBA6
:101DD00003689B6898470123029305F5AD571437B4
:101DE000B4F986366449019308FB00F00AF1FF322A
:101DF00008FB19225B460090384612F04BFE324633
:101E000033463846294612F09EFF3846314612F0D6
:101E10008FFF4FF47A71384611F060FAB4F98636C4
:101E2000B4F97E9603EBD37309EB630911F04CFB15
:101E30000368DB689847074611F046FB05F5B5587F
:101E40006FF07F4A08F1040804224C490190A9EB85
:101E50005703CDF800A0404610F0D3FDB4F9ACB65E
:101E600011F032FB03689B689847074611F0DEFBD0
:101E700003689B689847B4F982360693079011F07F
:101E8000D5FB0168C9688847059011F0CFFB069B18
:101E9000079A059905F5B65909F11C0907EB87075B
:101EA0005A44023B3A445B1ACDE900A03349484604
:101EB00010F0A7FDB4F9BC15059111F0F1FB036812
:101EC0009B689847B4F97EB6824611F0E9FB05F5A8
:101ED000B857059901901437FF230BF1040B0B221F
:101EE00002FB1A123846254900935B4610F089FD23
:101EF00040F2E931404611F0F1F940F2EA3148464A
:101F000011F0ECF940F2EB31384611F0E7F93146C7
:101F10002846FFF75FFC2846FFF7D6FD05F164076A
:101F2000D5F8A830B34217D8A86E03680026DB683E
:101F3000C5F8AC60984705F5FD531C330193432366
:101F40000093D4F8A80F0E4A2B46294604F0B6FD9C
:101F5000304609B0BDE8F08F57F8040FB4F97E267B
:101F60000368283A9B68282198470136D8E700BFC4
:101F70004040400080808000E152020895790208CC
:101F80007F120008F8B500F580550446D5F8AC0F6F
:101F900090F88C1302F08CFF014604F5B550002236
:101FA000043010F07BFED5F8AC0F90F8DD1302F092
:101FB00087FF014604F5B65000221C3010F06EFE7B
:101FC000D5F8AC1F91F8D52313466FF3861304F5AB
:101FD000B85081F8D533C2F38012143001F2DE31EB
:101FE00010F05CFED5F8AC3F95F8E82593F8CF33B8
:101FF00004F5AD501430002A36D0002B0CBFFF2161
:102000004FF47F4112F0DFFDD5F8AC3F93F8FB238E
:10201000002683F8FB63BAB1D4F8AC301A3304F16C
:10202000640754F8230003681B6998472046FFF7AC
:102030004BFDD4F8A830B3421CD8A06E0023C4F8DE
:10204000AC300368DB689847D4F8AC301A331421FD
:1020500054F8230003685B699847D5F8A40F0EF085
:10206000FCFC4FF00000F8BD002B0CBF6FF07F416F
:10207000FF21C7E757F8040FB5F97E260368283A11
:102080009B68282198470136D3E7000010B5034B21
:102090000360044611F046F9204610BDCC8D0208BD
:1020A00010B50446FFF7F2FF204638211EF043F832
:1020B000204610BD38B5094B094D0360044640F871
:1020C0007C5F11F02FF9204640F8385F11F02AF9B3
:1020D000204611F027F9204638BD00BF00F702085E
:1020E000288C020810B50446FFF7E4FF2046C02103
:1020F0001EF021F8204610BD0A4B10B5044640F8EA
:10210000B83BFFF7C3FF04F18000FFF7BFFF204695
:10211000054B40F8503F11F005F9204611F002F947
:10212000204610BDA45302087C8C020838B5044632
:1021300000F5A460FFF7BEFF04F58C60FFF7BAFF5F
:102140004FF45975635960191B68C03D9847B5F540
:10215000927FF7D104F1C400FFF7CEFF04F18C00A9
:10216000FFF794FF2046094B40F86C3F11F0DAF876
:102170002046074B40F83C3F11F0D4F82046054B71
:1021800040F8143F11F0CEF8204638BDD08C02083C
:102190007C8C0208208E020810B50446FFF7ACFFC5
:1021A00020464FF490711DF0C6FF204610BD000080
:1021B00070B5244B036000F580550446224BC5F8EA
:1021C000C83400F5A650083011F0ACF81F4BC5F824
:1021D000983404F5A450183011F0A4F804F59E507A
:1021E0001830FFF767FF04F598501830FFF762FFCB
:1021F000174BC5F8F43204F59750143011F092F8EB
:1022000041F2342540F23466635960191B68C03DC1
:102210009847B542F8D140F2BC65635960191B6814
:10222000383D9847B5F54F7FF7D14FF45075635956
:1022300060191B689847343DF9D1204611F072F8B7
:10224000204670BDF4640208D08C02087C8C020821
:10225000248D02081F4B10B50446036000F5CC50D6
:102260000C30FFF763FF04F5C6500C30FFF722FF78
:1022700004F5C0500C30FFF71DFF04F5BA500C30C8
:10228000FFF718FF04F5B8501430FFF7FFFE04F510
:10229000B6501C30FFF7FAFE04F5B5500430FFF7D6
:1022A000F5FE04F580530C4AC3F8742604F5B350C8
:1022B000143011F037F804F5AD501430FFF7FAFE82
:1022C00004F1B000FFF774FF2046FFF727F820461F
:1022D00010BD00BF505302087C8C020808B50248AC
:1022E000FFF7B8FF08BD00BFCC04002010B50446BE
:1022F000FFF7B0FF204641F6D4711DF01CFF2046C9
:1023000010BD10B50446FFF753FF204641F20451BB
:102310001DF011FF204610BD08B558B109B90020C5
:1023200008BD0269D0F81031C43001FB023100F061
:10233000FEFBF4E70120F3E7C0E900128360704779
:1023400001694B1E10B559420446594100F5F2701F
:1023500012F0EEFC2169A1F10A025142514104F54B
:10236000297012F0E5FC2169A1F16400414241416C
:1023700004F55970BDE8104012F0DABC32B9012002
:102380007047484301339342FBD17047084601230D
:10239000F9E7000037B504460D466C3010F09EFF9B
:1023A000691C04F1140010F099FFA91C04F58C605D
:1023B00010F094FFE91C04F5A46010F08FFF04F006
:1023C000FFFA0546FEF7A2FF04F2E45301460D4A68
:1023D00000932846234604F0A0FB04F0F1FA0546DA
:1023E000FEF794FF04F2FC5301930323014600938C
:1023F0002846054A234604F061FB4FF0000003B075
:1024000030BD00BF19230008932700082DE9F04FC5
:1024100089B0C94D05921E462B68DFF830B3BFF373
:102420005B8F13F0010F04460F460CD128461DF0B8
:1024300084FE40B1D4F8E0352846D3F8A030CBF87C
:1024400000301DF086FE11F03FF86FF07F4304F17D
:102450008C05009300231A4639460190284610F057
:10246000D0FA28469DF8541010F0DFFBB4F99C30E8
:10247000DBF80010C91A082200234908284604F195
:10248000140A10F069FF5146284610F0ABFF0121F5
:10249000284610F023FFDBF80030B4F99A70A3F15E
:1024A000100811F0C3F80368DB689847149B029387
:1024B00004F1C40508370D2300EB80003A46019370
:1024C000009043462846082100F07AFA4FF47F42F4
:1024D0000421284600F01EFB11F0A8F80222014654
:1024E000284600F02EFCDDE91212284600F05EFBC3
:1024F0003146284600F01BFB11F098F800270346F0
:1025000005222846059900F032FC5146284684F8F9
:10251000D97010F067FF2846012110F0DFFE04F5A6
:102520008463049304F5866804F5F275B4F9D490D5
:102530000323A9F10809B9FBF3F902F023FC149A6B
:1025400006460A212046FFF719FF049A009052F828
:10255000043F049241461022304602F015FE4046E8
:10256000FDF748FE059B754AC0F11001404420F07C
:10257000B5F9B4F9CC2009F1040307FB0322B4F93F
:10258000D23007920833069311F050F80168C968F9
:102590008847012600EB8000DDE906324146CDE99F
:1025A00000900296284612F075FAFEF7AFFE644AD4
:1025B00023460146284612F0C6FB2846002112F0A9
:1025C000B7FB2846032112F046FB5146284610F07F
:1025D00009FF2B6828469B68314637449847032FEC
:1025E00008F1100805F1C005A0D1149A022A28BFED
:1025F00002220A212046FFF7C1FE2061C02000FB15
:1026000002400025314600F5F27012F091FB02966F
:102610000195B4F9F231083304F13C070093DBF87B
:1026200000302A46294638460FF0BCFF38460421C0
:1026300010F00CF838464FF6FF7110F017F82946E5
:10264000384610F026F85146384610F0CBFE2946A1
:10265000384610F043FED4F8E025B4F94E30D2F8F5
:10266000A4200093D21A02EBD272DBF80030324180
:102670002946504610F05EFDD4F8E035D3F8A4208A
:10268000009229462A4604F16C00D3F8A03010F0DD
:1026900010F8D4F8E03584F88160D3F8A4A010F0E5
:1026A000C5FF0368DB689847D4F8E035D3F8A0206D
:1026B00002EBD27242FA06F7814610F0B7FF0368C8
:1026C000DB68984704F58C68043F09EB490900EB87
:1026D0004000CDE90070AAEB09032A461949029689
:1026E000404612F0D7F9FEF711FE23460146144A80
:1026F000404612F028FBD4F8E035B4F97024D3F842
:10270000A0100296B4F97234CDE9002304F5A46751
:10271000B4F96A348A1A38460B4912F0BBF9FEF74D
:10272000F5FD074A01462346384612F00CFB2846C1
:1027300009B0BDE8F08F00BFA02400207453020848
:1027400093270008785302087B530208A424002032
:1027500010B5044604F034F904F2E45104F0F5F93C
:1027600004F02EF904F2FC5104F0C3F904F1140052
:1027700010F0CBFD04F16C0010F0C7FD04F58C6087
:1027800010F0C3FD04F5A46010F0BFFD4FF0000091
:1027900010BD2DE9F0410446002867D000F58C6794
:1027A0008F4216D1FFF7D4FF206858B10368D4E9EF
:1027B00001125D682346A8472046FFF7C1FD0020AF
:1027C000BDE8F0816368002BF6D0A06821469847E9
:1027D000F2E700F5A4658D4202D1FFF7B9FFEBE700
:1027E00000F5F273994202D101232361E4E700F579
:1027F0002973994201D10A23F7E700F559739942E9
:1028000001D16423F1E791F800804E78B8F1000F10
:1028100017D13C3046B14FF47F410FF027FF012123
:10282000384612F085FAC7E74FF47F010FF01EFF1C
:102830003146384612F07CFA39462046FFF7A9FFA8
:10284000BAE7B8F1010FB7D13C302EB1FF210FF03C
:102850000DFF41462846E4E74FF47F010FF006FFE5
:102860003146284612F064FA2946E6E70120A7E738
:10287000B0F908007047B0F90A007047B0F90C00D1
:102880007047B0F90E007047B0F910007047B0F90A
:1028900012007047407D7047417570472DE9F34144
:1028A000089E04461D46B0F90A30B0F90800301AF7
:1028B0000090EB1A04F1500090460F460FF0DFFB3A
:1028C000B4F90820B4F90A30B21A0092EB1A424661
:1028D000394604F1B80010F026F894F818317BB1AD
:1028E000B4F90820B4F90A30B61AEB1A4246394650
:1028F00004F18000089602B0BDE8F04110F013B872
:1029000002B0BDE8F0812DE9F341089E04461D4662
:10291000B0F90830B0F90A00301A0090EB1A04F14F
:10292000500090460F460FF0FFFBB4F90A20B4F9AF
:102930000830B21A0092EB1A4246394604F1B80048
:102940000FF091FF94F818317BB1B4F90A20B4F973
:102950000830B61AEB1A4246394604F18000089650
:1029600002B0BDE8F0410FF07EBF02B0BDE8F081DB
:1029700070B5044605291AD8DFE801F0030F1919CC
:1029800003170B4904F150000FF083FE2368204623
:102990009B6CBDE8704000211847006A28B10368AD
:1029A000D4E909125D682346A8470021EAE770BD13
:1029B0008080800010B103689B6818477047000052
:1029C0002DE9FF470C9E01811F464FF0FF33C36482
:1029D000FB181944731E0E9D42811A440D9B818180
:1029E0005B1BC281C0E90E35044607824682012284
:1029F00000210A208D4256DC226404F58470002DEB
:102A000054D02D4A009510211FF068FF00250123A6
:102A10002A462946CDE9015300963B4604F1500071
:102A20000FF0C0FD10F002FE04F1B8086FF07F4710
:102A300004F1F00101902B462A46404600970FF022
:102A4000E0FFD4E90E3203EB0209D4F8E800B4F950
:102A500010A009F10109AA4218BF09F10109FFF705
:102A6000A9FFB4F9CA305FFA89F9F61A00FB19A177
:102A700006EBD6762B4672104908404610F06CFCE7
:102A800010F0D4FD2B46CDE900700C4904F1800014
:102A90002A460FF0B6FF23689B6C2946204604B0F7
:102AA000BDE8F047184742430131A3E7044A10212B
:102AB0001FF014FFAAE700BF8253020895790208AD
:102AC00093530208C36F994210B5044609D05030A1
:102AD0000FF0BCFD236820469B6CBDE81040002130
:102AE000184710BD10B5036FC0E90C12044690F8EA
:102AF0002C00002818BF114699420AD004F150005A
:102B00000FF0B4FD236820469B6CBDE81040002107
:102B1000184710BD38B515460446FFF7D3FF2946C0
:102B200020464FF47F42BDE83840FFF7DBBF436CDF
:102B300099420A46B8BF1A46836C9A42A8BF1A4601
:102B4000C36C934273B504462ED0C264E56BB830B3
:102B500004F1F00104F584735DB90092182210F0BD
:102B6000CAF8236820469B6C00219847012002B0D8
:102B700070BD266C92FBF6F506FB1522002AB8BF45
:102B80005242CDE90052182210F0B5F8E36C002B48
:102B9000E7DA226C93FBF2F3002BE2D1A36B234420
:102BA0002D2283F8EE20DCE70020E0E7C0E91112D7
:102BB000C16CFFF7BCBF90F81831022B2DE9F04132
:102BC000044600F08580D0E90E72013B1744B0F94D
:102BD0001050002A18BF013700F1B806042B00F28C
:102BE0009D80DFE803F02F9B03527C00D0F8E800C3
:102BF000FFF7E0FEB4F9CA30B4F91220D21AB4F9E2
:102C00009030A91EC91A94F8E4307B4300FB1311DD
:102C100002EBD272304600235210490810F09CFBA0
:102C2000B4F9C450D4F8B000B4F9C67004F1800609
:102C3000023510B10368DB68984700233A1A294629
:102C4000304643E0B0F9CA30B0F91220B0F9901024
:102C5000D21AB0F99230D21A691A02EBD27200235A
:102C600052104908803010F077FBD4F8E800B4F92E
:102C70001050FFF79FFE94F8E430B4F98E207B43A8
:102C800000FB135100234908DAE7D0F8E800FFF70A
:102C900091FEB4F9CA30B4F9122094F8E410D21AB3
:102CA000794300FB115102EBD27200235210490804
:102CB000304610F051FBB4F99030B4F91010B4F96B
:102CC000C620C91A4908002304F1800010F044FB13
:102CD000236820469B6CBDE8F04100211847D0F8DE
:102CE000E800FFF767FEB4F9CA30B4F9122094F88F
:102CF000E410D21A794300FB115102EBD272002387
:102D000052104908304610F027FBB4F9C400B4F95A
:102D10009010B4F9C6200023411AD5E7D0F8E80096
:102D2000FFF748FEB4F9CA30B4F91220D21A94F869
:102D3000E43002EBD2727B4300FB135152100023AC
:102D4000A1E770B500F1B8060446154630460FF00D
:102D500031FFE9B230460FF068FF2046FFF72BFF46
:102D6000236820469B6CBDE870400021184770B571
:102D700000F1800604460D4680F8182119463046B9
:102D80000FF018FF2946304600220FF087FF20463B
:102D9000FFF711FF236820469B6CBDE870400021BF
:102DA000184790F82C308B4210B5044611D0D0E96A
:102DB0000C2380F82C1000290CBF11461946503006
:102DC0000FF054FC236820469B6CBDE810400021A6
:102DD000184710BDC0E908128362704710B5C8B12A
:102DE00009B9002010BD0379022B0DD84FF4907261
:102DF0005343C2188468D2F80421B83301FB04217C
:102E00001844FFF794FEECE7D0F85C3B00F5316026
:102E10001944F6E70120E5E770B5044603F0D0FD5C
:102E200004F6F86103F091FE04F1B80510262B6852
:102E30002846DB689847D5F8603305F55870DB689D
:102E40009847D5F8C03605F5D860DB689847A35990
:102E5000A019DB6838369847B82E05F59075E6D18D
:102E60004FF4436563596019DB68C0359847B5F581
:102E7000676FF7D104F5316010F047FA04F6D820F7
:102E800010F043FA04F56B6010F03FFAD4F8E80E46
:102E90000368DB689847D4F8EC0E0368DB68984752
:102EA0004FF0000070BD000073B5044600F1B80596
:102EB00010262B6864219B6828469847D5F8603314
:102EC00064219B6805F558709847D5F8C036642191
:102ED0009B6805F5D8609847A359A0199B686421A1
:102EE00038369847B82E05F59075E2D14FF4436512
:102EF000635960199B686521C0359847B5F5676FC0
:102F0000F6D1642104F5316010F0E8F9642104F68B
:102F1000D82010F0E3F9652104F56B6010F0DEF9BC
:102F2000D4F8E80E036866219B689847D4F8EC0E45
:102F3000036866219B68984703F042FD0546FEF74B
:102F4000E5F904F6F863014600932846034A234650
:102F500003F0E3FD4FF0000002B070BDDD2D00086E
:102F60002DE9F04F8DB083460D4610F05FFB0368EE
:102F7000DB68984700EB80030593043B5B080893EC
:102F8000059B083309932B1D5C4606935F464FF063
:102F9000000ADBF8F42EDBF8F03E92F8FC23D3F8BD
:102FA000A010A94E002A14BF04220322A1F1080395
:102FB0000292072204F1B805019203EBD373059A3C
:102FC00000925B10069A062091FBF0F12846FFF76D
:102FD000F7FCFF2204212846FFF79CFD10F026FB9A
:102FE000022201462846FFF7ACFE5FFA8AF3194633
:102FF000DBF8F40E079301F094FF01462846FFF733
:1030000096FDDBF8F43E914A93F8FC33002B08BFA1
:10301000164610F00BFB3146034605222846FFF703
:10302000A6FEFEF773F900231A4601462846FFF76D
:10303000D1FED4F8B830012128465B6C9847D4F80B
:10304000B83028461B6B9847D4F8B83000F1040814
:10305000DB6A28469847DBF8F03ED3F8A020D4F886
:10306000B8300A9281461B6B284698470A9A131A71
:10307000DBF8F42E92F8FC230721002A14BF042267
:10308000032204F58366019108990292083B4A469F
:10309000304600914146FFF793FC6D4A02213046CD
:1030A000FFF738FD10F0C2FA012201463046FFF763
:1030B00048FE00213046FFF73AFDDBF8F43E634A54
:1030C00093F8FC336049002B08BF1146884610F086
:1030D00071FA4146032203463046FFF748FED4F812
:1030E000183430469B6A9847D4F8B8300B905B6B25
:1030F00028469847D4F818348146DB6B3046984709
:10310000D4F81834A9EB00099B6B30469847D4F8E3
:1031100018240A90D26B30469047DBF8F42E0B99B6
:1031200092F8FC23484E002A14BF0422032204F51F
:10313000EF680723CDE9000302920A9B4A46404606
:10314000FFF73EFC424A02214046FFF7E3FC10F045
:103150006DFA012201464046FFF7F3FD002140468B
:10316000FFF7E5FCDBF8F43E384A93F8FC33002B1C
:1031700008BF164610F01EFA0322034631464046A9
:10318000FFF7F5FD0799DBF8F40E01F089FE8046A4
:1031900010F09AF96FF07F4307F1100600930023B7
:1031A0001A464146019030460FF02BFC0221304672
:1031B0000FF03BFD3B699B690793D4F8B830284674
:1031C0009B6A98473B6981469B6B3046984700EB6A
:1031D000D07009EBD9734FEA6009C9EB6309D4F8E1
:1031E000B8302846DB6A9847D4F8B8308046DB6BA5
:1031F000284698473B6900EBD07008EB6005DB6B15
:103200003046984700EBD070A5EB60020023079D85
:1032100049463046A847069B099A0AF1010A134419
:10322000BAF1030F04F5907407F1380706937FF4A1
:10323000B0AE0BF53E730BF567690BF68B680BF5BB
:1032400043650027079305E0F0530208765B020808
:1032500080808000DBF8F43E079893F8FC33002B65
:1032600014BF41464946DBF8F03E0891D3F8A04030
:1032700094FBFAF47C43231D0693DBF8F8325B6B76
:103280009847DBF8F02E0446D2F8A06096FBFAF6D9
:1032900010F0CCF90268D2689047083E012300EB99
:1032A0008000069A08990293CDE9006004F10803B2
:1032B000284611F0EFFBFEF729F8002301461A46D5
:1032C000284611F040FD01372846032111F0C3FCC8
:1032D000032F09F1090908F10C0805F1C005B9D15E
:1032E000DBF8F03EBBF93E2CD3F8A0100598009017
:1032F000A1F108030BF531650024042603EBD37319
:1033000001EBD1715B10CDE9016428460832491008
:10331000FFF756FB3146FF222846FFF7FBFB10F074
:1033200085F9022201462846FFF70BFD42F2107292
:1033300028460121FFF73AFC4FF496712846FFF723
:10334000F6FBDBF8F43E344E93F8FC23334BA242F9
:1033500008BF1E4610F06AF931460346052228468A
:10336000FFF705FDFDF7D2FF012701462346224660
:103370002846FFF72FFD8BF8257B10F0A5F80BF6FC
:10338000D8256FF07F4623462246019024490096B7
:1033900028460FF036FB284602210FF046FCBBF909
:1033A000223BBBF91A0BBBF9201B03EBD37300EBD9
:1033B0006300BBF9EA3A03EBD372DBF8F03ED3F8D3
:1033C000A03003EBD373C1EB630101EBD171A0EB30
:1033D00062022346394128460FF0BEFF0A23CBF88C
:1033E000083039460BF54F6011F0A2FCBBF9C05014
:1033F000BBF9C27010F01AF908350837CDE9006042
:1034000008490BF56B603B462A460FF0FAFA204656
:103410000DB0BDE8F08F00BFFC530208F553020861
:10342000075402089579020838B50446FDF792FF63
:103430001F4B236000254FF47F420123C4E90D2375
:103440004FF00041C4E90F536FF00043C4E911137A
:103450004FF0FF33E364C4E90855A56284F82C50AB
:10346000256304F15000FDF775FF124B2365C4E995
:103470001C5584F87850E56704F18000FDF788FF5B
:1034800004F1B800FDF784FF2946182204F1F0008A
:103490001FF0EEFA1022294604F584701FF0E8FAB6
:1034A00084F818510DF0F4F9C4F81C01204638BD19
:1034B000A45302087C8C0208017902292DE9F0410D
:1034C00098BF0021044688BF012100F53160FFF755
:1034D00068FC04F1B80600254FF6FF77E9B2D4F88E
:1034E000F40ED6F84C8001F01CFD4FF47F424045AD
:1034F00014BF3946FF213046FFF7F4FA2179A1EBDA
:10350000050CDCF1000141EB0C0130460135FFF701
:1035100048FC032D06F59076E0D1A1684B1E594278
:10352000594104F5436011F003FCA168A1F10A02BE
:103530005142514104F54F6011F0FAFBA168A1F12D
:1035400064004142414104F55B60BDE8F04111F087
:10355000EFBB00002DE9F041D0F8F43E93F8FD23D5
:10356000022A044600F56B6048D193F8D0532F49E6
:103570002F4B0022954218BF19460FF08FFB01F028
:1035800001FC237B90F88C63B34202D0032B38D02C
:103590002673FEF703F92749FEF7ACF9FEF7FEF8AC
:1035A0002549FEF7D1F900272646B846F9B2D4F8E6
:1035B000F40E01F0B6FC014606F58360FFF7B7FA9A
:1035C000D6F80411D6F864340546C91A06F5EF603A
:1035D000FFF7ADFA0137054348EA0505032F5FFA07
:1035E00085F806F59076E1D1B8F1000F02D02046BB
:1035F000FFF762FF4FF00000BDE8F0810F490022A5
:10360000BBE7012EC4D104F1B8070025E9B2D4F814
:10361000F40E01F086FC013501463846FFF787FAC3
:10362000032D07F59077F1D1B2E700BF0D540208E2
:10363000817202081454020818540208957902088D
:1036400000F54363994273B5044608D10123A36092
:1036500000252046FFF730FF284602B070BD00F578
:103660004F63994201D10A23F1E700F55B63994268
:1036700001D16423EBE7D0F8E83E8B4214D1D0F8B7
:10368000F40E90F88C33012B46D10193D4F85C3BB7
:10369000642253430093D4F84433D4F82422D4F85A
:1036A000041102F003FBD3E7D0F8EC3E8B421AD1B1
:1036B000D0F8F43E93F88C33012B2DD100F1B806ED
:1036C000002596F82C3043B1E9B2D4F8F40E01F09D
:1036D00028FC01463046FFF72AFA0135032D06F58E
:1036E0009076EED1B4E700F5316399420DD000F148
:1036F000B80399420CD000F5EC7399420AD000F55A
:103700003E739942A4D1022300E0032323719FE773
:103710000023FBE70123F9E708259AE72DE9F84F95
:10372000694B03600323037100260A230546836067
:1037300006731030FDF72CFE05F14800FDF728FE5A
:1037400005F18000FDF724FE05F1B800FFF76CFEDF
:1037500005F5EC70FFF768FE05F53E70FFF764FEB7
:1037600005F58360FFF760FE05F5A760FFF75CFED7
:1037700005F5CB60FFF758FE05F5EF60FFF754FE47
:1037800005F69800FFF750FE05F6B810FFF74CFE5F
:1037900005F6D820FDF7FCFD05F53160FFF744FE86
:1037A000DFF830B1DFF8309105F5436405F5676A5D
:1037B0002046FDF7CFFD6FF07F4323630127C4F858
:1037C00000B084F8346084F83560C4E90866C4E960
:1037D0000A6604F138004FF0FF38FDF7BBFDC4F86E
:1037E0003890266684F86470A66684F86C6084F865
:1037F0006D6084F86E6084F86F70C4F87080A4F80F
:103800007860C4E9166604F17C00FDF7A3FDC4F8F6
:103810007C90C4F8A46084F8A870C4F8AC6084F804
:10382000B06084F8B16084F8B26084F8B370C4F812
:10383000B480A4F8BC60C4E92766C0345445B7D14D
:10384000224B03F1180618685968224603C2083350
:10385000B3421446F7D11A889B78A3701C4B228080
:1038600003F1240105F68B6253F8040B42F8040BB4
:103870008B42F9D105F56B60FDF78AFDFDF78EFFF0
:1038800000F5BA500C30C5F8E80EFDF787FF00F5DB
:10389000C6500C30C5F8EC0E0CF0FAFFC5F8F00E6F
:1038A00001F070FA002385F8043FC5F8F40EC5F85E
:1038B000F83EC5F8FC3EC5F8003FC5F8083FC5F81E
:1038C0000C3F2846BDE8F88F28540208144E020821
:1038D0002F4E020800F70208288C020810B50A4C87
:1038E0002368BFF35B8FDB070CD420461CF025FC5C
:1038F00040B10648FFF712FF05481EF01DF82046AC
:103900001CF027FC014810BDA8240020AC24002096
:10391000AD39000870B5234B234E0360C0F8B06E7C
:10392000044600F56B600FF0FDFC4FF45B656359D6
:1039300060191B68C03D9847B5F5376FF7D104F59E
:103940003160FEF7D9FBC4F8D86A04F6D8200FF02E
:10395000E9FC40F6B815635960191B68A5F5907528
:103960009847B5F5CB6FF6D1635960191B68A5F57B
:1039700090759847B5F53E7FF6D1635960191B687D
:10398000A5F59075984715F1680FF6D18025635914
:1039900060191B68383D984715F1280FF7D120466C
:1039A00070BD00BF28540208CC8D020808B502483B
:1039B000FFF7B0FF08BD00BFAC24002010B50446DF
:1039C000FFF7A8FF20464FF471611CF0B4FB2046BE
:1039D00010BD70B190F84C30022B06D800EB83007C
:1039E000C36B0B44C36300207047836C0B44836438
:1039F000F9E7012070472DE9F041044602F0E0FFAD
:103A000004F6046103F0A1F8201D0FF07EFCD4F849
:103A1000F80DFEF79DFE04F1540704F25C46FC2508
:103A200040F25C4863596019DB6898473B68384648
:103A3000DB68984733683046DB6805F59075984732
:103A4000454507F1380706F1C006EBD140F2947501
:103A500040F6942663596019DB68C0359847B54233
:103A6000F8D104F29C600FF050FC04F25C700FF08F
:103A70004CFC04F614300FF048FC04F634400FF010
:103A800044FC04F66C400FF040FC04F62C500FF0A0
:103A90003CFCD4F8EC0D0368DB689847D4F8F00DD3
:103AA0000368DB689847D4F8F40D0368DB6898472F
:103AB000FDF774FE0021FDF78DFE4FF00000BDE81C
:103AC000F08100002DE9F74F0446FDF767FEFDF792
:103AD000FDFEFDF763FEFDF71DFFD4F8003E93F8F1
:103AE000FD23022A0BD193F8D0036F496F4B0022BC
:103AF000904218BF194604F25C700FF0CFF804F141
:103B0000FC060025E9B2D4F8000E01F00AFA0135EE
:103B100001463046FFF70BF8032D06F59076F1D1FC
:103B2000E56B002D40F09680256C002D40F09480D0
:103B3000656C2DB30226236D5D4302F041FFD0F882
:103B40008C30226D142B38BF142353433C22534333
:103B50000A22B3FBF2F336B9D4F8002E92F8FD2313
:103B6000022A08BF6D42002700972A463146D4F842
:103B7000000E01F0E3FF0E3604EB8606C5B2776057
:103B8000D4F8003E93F8F13304F66C46002B65D070
:103B90004749304610F0D4FFD4F8003E93F8F03394
:103BA00004F62C57002B5BD04249384610F0C8FF72
:103BB000D4F8003ED3EDFA7AFCEEE77A04F614303E
:103BC00017EE903A99B2FEF7B2FFA36CABB1D4F8FE
:103BD000602B0A2101FB032104F61430FEF7A7FF36
:103BE000D4F8000E0023A36490F8F0332BB190F8C2
:103BF000F123D4F8601B02F067FBD4F8003E93F881
:103C0000CF3304F29C6B04F25C4A04F21C5904F2B8
:103C1000DC5853B3D4F8003E93F88C3303F0FD0323
:103C2000012B27D1584611F04BF8504611F048F8B7
:103C3000484611F045F8404611F042F8384611F078
:103C40003FF8D4F8003E93F8F03333BB304611F020
:103C500037F825E000266EE701266CE7164998E75D
:103C60001649384610F06CFFAFE706F07DF803798F
:103C7000032BCFD0D4F8F80DFEF76AFD584611F0AB
:103C80003BF8504611F038F8484611F035F84046F8
:103C900011F032F8384611F02FF8304611F02CF8B8
:103CA000284603B0BDE8F08F0D5402088172020867
:103CB0004454020848540208455402084D5402086E
:103CC0002DE9F3410446012104300FF007FB04F114
:103CD000540704F25C46FC2540F25C4863596421B9
:103CE0009B68601998473B6864219B6838469847F1
:103CF000336830469B68642105F5907598474545C3
:103D000007F1380706F1C006E8D140F2947540F695
:103D10009426635960199B686421C0359847B54261
:103D2000F7D1032384F84C30002104F1FC00FFF7A5
:103D300038F8002104F50770FFF733F8002104F587
:103D40004F70FFF72EF8D4F8003E93F8FD33022BA6
:103D500009D1652104F25C700FF0C0FA632104F20E
:103D60009C600FF0BBFA642104F614300FF0B6FA31
:103D7000652104F634400FF0B1FA642104F66C407A
:103D80000FF0ACFA642104F62C500FF0A7FAD4F827
:103D9000003EB3F8FE33DB070FD5FDF7FFFC012132
:103DA000FDF718FD1449D4F8F00D10F0C9FED4F851
:103DB000F00D036866219B689847D4F8EC0D036802
:103DC00066219B689847D4F8F40D036866219B68C8
:103DD000984702F0F5FD0546FDF798FA04F60463EE
:103DE000014600932846054A234602F096FE4FF00E
:103DF000000002B0BDE8F08153540208D339000836
:103E00002DE9F04F8DB0044608910A920FF00EFC98
:103E10000368DB68984700EB8003059304F25C437A
:103E20000693059B08330993089B043326460793A2
:103E3000A0464FF0000AD4F8002ED4F8FC3D92F8CA
:103E4000FC23D3F8A000002A14BF0422032202920C
:103E5000072206F1FC05A0F108030192059A0092E1
:103E60000621079A9B0093FBF1F390FBF1F12846A2
:103E7000FEF7A6FDFF2204212846FEF74BFE0FF0B9
:103E8000D5FB022201462846FEF75BFF00212846AB
:103E9000FEF74DFED4F8003ED94993F8FC23D94BE8
:103EA000002A08BF194689460FF0C0FB4946034661
:103EB00003222846FEF75BFFFDF728FA00231A4687
:103EC00001462846FEF786FFD6F8FC3028465B6C94
:103ED000012198475FFA8AF1D4F8000E00F0E0FF64
:103EE00083460FF0F1FA6FF07F4308F15409009315
:103EF00000231A465946019048460EF082FD0221E1
:103F000048460EF092FED8F854309B691F46D6F80A
:103F1000FC3028469B6A9847D8F854208346926B19
:103F20004846904700EBD0700BEBDB734110C1EBC0
:103F30006301D6F8FC300B91DB6A28469847D6F827
:103F4000FC208346D26B28469047D8F8543000EBCB
:103F5000D0700BEB600BDB6B4846984700EBD070E2
:103F6000ABEB60020B9900234846B847D6F8FC300B
:103F700028461B6B9847D6F8FC308346DB6A2846F8
:103F80009847D4F8FC3DD3F8A020D6F8FC300B922B
:103F90001B6B074628469847D6F8FC108146C96B2C
:103FA000284688470B9A9849A2EB09090125A9F1EF
:103FB00008030BF10402CDE90105009306983B4686
:103FC00010F068FDFDF7A2F900231A460146069895
:103FD00010F0B9FE069B099AC0330693079BAA44CA
:103FE0001344BAF1030F06F5907608F138080793E9
:103FF0007FF421AF04F6942904F294764FF0000880
:1040000004F54F7AD4F8FC3DD3F8A010D4F8003E64
:1040100093F8FC3314398908002B40F02C81CB46EF
:10402000D4F83C3306915B6B504698470699059B44
:1040300002950A1D08FB02F2CDE90013043200F1DB
:1040400008035946304610F025FDFDF75FF90023BF
:1040500001461A46304610F076FE08F10108304657
:10406000032110F0F8FDB8F1040F09F10C0906F175
:10407000C006C7D1012104F6141010F059FED4F87F
:10408000003E93F8FC33002B40F0F880D4F8FC3A63
:10409000236501260296B4F90E310193B4F9043177
:1040A0005A49083B04F29C650093B4F90631042296
:1040B000284610F0EFFCFDF729F9002301461A46C7
:1040C000284610F040FEB4F90451B4F906910FF0FF
:1040D000ADFA6FF07F48083509F1080901904B46A9
:1040E0002A4604F25C704949CDF800800EF089FC44
:1040F000D4F8FC3D0A99089AD3F8A03000250A4468
:104100000521CDE9011503EBD3730599009104F660
:1041100014393341043A063B521A48460421FEF74B
:104120004FFCFF2204214846FEF7F4FC0FF07EFA14
:10413000022201464846FEF704FED4F8003E4846F7
:10414000B3F80214FEF7F3FCD4F8003E4846B3F887
:104150000024B3F80214FEF729FD0FF067FA2C498A
:10416000034603224846FEF702FEFDF7CFF82B4632
:104170002A4601464846FEF72DFE314684F8296B53
:104180004846FEF70EFE0FF051FA04F63449CDE929
:1041900000802B462A4648461E490EF032FCB4F9F0
:1041A0001E2BB4F91C1B2B460832083148460FF071
:1041B000D3F8059BB4F9202B02960193B4F9243B64
:1041C0001549043B03EBD373334104F66C49009368
:1041D000B4F91E3B0532484610F05CFCFDF796F83A
:1041E0002B4601462A46484610F0ADFD059BB4F922
:1041F000782C02960193B4F97C3C00930EE000BF4A
:10420000F0530208765B02085854020895790208B8
:104210005C540208605402084554020804F62C5904
:10422000B4F9763C17490532484610F033FCFDF7E7
:104230006DF82A4601462B46484610F084FDB4F935
:10424000A297B4F91E6B0FF0F1F90368DB68984789
:1042500007460FF0EBF9A6EB09060422F61BCDE9A1
:1042600000800949A01809EB56030EF0CAFB284646
:104270000DB0BDE8F08F09F1300BD1E6D4F80C3B5E
:1042800006E700BF4D5402089C54020810B50021F7
:10429000044600F2947010F04BFD04F65400002127
:1042A00010F046FD04F61410002110F041FD04F654
:1042B000D4100021BDE8104010F03ABD2DE9F04FB8
:1042C000D0F8EC3D8B4287B004460D4600F00381E8
:1042D000D0F8F43D8B4200F0FE80D0F8F03D8B42E8
:1042E0000BD100237D49D0F8000E059305AA01F0FB
:1042F0006BFB002007B0BDE8F08F00F29C63994291
:104300000DD1D0F8000E90F8D03323B100237449BA
:10431000059305AAEBE77349059305AAE7E7D0F8EB
:10432000F83D8B4207D1D3F81021197BD0F8000E4D
:1043300001F000FEDDE700F62C5399420ED1D0F8D3
:10434000000E90F8F03313B102F00EF8D1E790F8B8
:10435000F123D4F8601B01F0B7FFCAE700F66C4305
:10436000994211D000F29476B14216D000F654066C
:10437000B14225D000F61416B14223D000F6D4166F
:10438000B14224D1032509E0D0F8000E90F8F113D2
:1043900081F0010101F0C6FFABE700252046FFF7E1
:1043A00075FF0121304610F0C3FCD4F8003E93F8AD
:1043B000FC3304EB85053BB9D5F8F43A236598E75F
:1043C0000125EBE70225E9E7D5F8043BF6E700F124
:1043D000FC0700F25C490026BA46AF4273D197F859
:1043E0002C805FFA86FBB8F1000F38D05946D4F81C
:1043F000000ED4F8F88D00F053FDD4F8003E93F889
:10440000FC33002B14BF0422032201464FF00200AC
:10441000FB6CCDE90220344A3448CDE90020344811
:10442000344A08BF02464046FDF7F0FFD4F8F88D45
:10443000FCF76CFF002301461A464046FDF77CFF5F
:10444000D4F8F80D42F21071C660FDF7A3FF0136F3
:10445000032E07F5907709F1C009BED118E0414657
:104460005046FEF79EFC414604F50770FEF799FCA6
:10447000414604F54F70FEF794FC414604F61430B3
:10448000FEF78FFC01212846FEF78BFC84F84CB028
:1044900004F61433AB427FF42CAF28460121FEF71B
:1044A00080FC032384F84C3050460021FEF779FC51
:1044B00004F507700021FEF774FC002104F54F702D
:1044C000FEF76FFC15E74D45C1D1D4F8000EF1B2EF
:1044D00001F004FDBBE708200CE700BF68540208A8
:1044E0006D54020872540208806967FF8096980034
:1044F000765B0208F0530208F8B5564B044640F8C4
:10450000043BFCF745FF0023C4E90F33C4E9113332
:10451000032384F84C300123236504F15400FCF795
:1045200037FF04F18C00FCF733FF04F1C400FCF703
:104530002FFF04F1FC00FEF777FF04F50770FEF78C
:1045400073FF04F54F70FEF76FFF04F25C40FCF759
:1045500033FF04F21C50FCF72FFF04F2DC50FCF791
:104560002BFF04F29C60FCF727FF04F25C70FCF761
:104570000FFF04F2947504F694262846C035FCF724
:104580001BFFB542F9D1344B03F130061868596866
:104590002A4603C20833B3421546F7D12F4B03F125
:1045A000300704F6C4263A4618685968354603C5EC
:1045B0000833BB422E46F7D10FCA04F6F42585E82E
:1045C0000F00274B0FCB04F6043585E80F0004F6E7
:1045D0001430FEF729FF04F63440FCF7D9FE04F648
:1045E0006C40FCF7E9FE04F62C50FCF7E5FEFDF705
:1045F000D5F800F5BA500C30C4F8EC0DFDF7CEF844
:1046000000F5C0500C30C4F8F00DFDF7C7F800F508
:10461000C6500C30C4F8F40DFDF7C0F800F5CC50CE
:104620000C30C4F8F80D0CF033F9C4F8FC0D00F0B0
:10463000A9FB002384F8103EC4F8000EC4F8043E21
:10464000C4F8083EC4F80C3EC4F8143EC4F8183E42
:104650002046F8BD80540208544E0208844E0208D9
:10466000C44E020810B50A4C2368BFF35B8FDB070A
:104670000CD420461BF061FD40B10648FFF73CFF1B
:1046800005481DF059F920461BF063FD014810BD97
:10469000BC330020C033002035470008244B70B5E0
:1046A0000360044600F62C50FDF704FD04F66C4050
:1046B000FDF700FD04F63440FDF7E8FC04F6143085
:1046C000FDF71AFD40F6D41540F2D466635960191F
:1046D0001B68C03D9847B542F8D104F25C70FDF705
:1046E000D5FC04F29C60FDF7E5FC40F2DC55635913
:1046F00060191B68C03D9847B5F5677FF7D14FF447
:104700004F75635960191B68A5F59075984715F1A9
:10471000240FF6D1C425635960191B68383D9847AA
:104720001C2DF8D1201DFDF7B1FC204670BD00BF47
:104730008054020808B50248FFF7B0FF08BD00BF6B
:10474000C033002010B50446FFF7A8FF204640F60E
:104750001C611BF0F0FC204610BD4FF000007047BC
:104760004FF0000070474FF00000704708B5806EB2
:1047700003210CF0BCFC4FF0000008BD61B990F8BB
:10478000313083F0010380F83130012213B1034945
:104790000DF0D6B90249FBE7704700BF00000020CA
:1047A0001400002010B5034B036004460EF0BAFD60
:1047B000204610BDD483020810B50446FFF7F2FF6F
:1047C000204634211BF0B7FC204610BD10B5034B2A
:1047D00003600446FCF7A2FD204610BDD854020831
:1047E00008B50248FFF7F2FF08BD00BFD042002025
:1047F00010B50446FFF7EAFF20466C211BF09BFC36
:10480000204610BD70B51E4E3568BFF35B8F15F0A6
:10481000010532D130461BF090FC70B3194C1A4B95
:104820002046102240F8043B02212B460FF06FFC7B
:104830002A4629462B4604F124000FF068FC134B4E
:10484000E564C4E915344FF48063A4F85E300223B4
:1048500084F860300E4B63660E4B2360C4E911553B
:1048600084F8505084F85C500CF012F8A0660A48A6
:104870001DF062F830461BF06CFC024870BD00BFB2
:10488000CC420020D042002098F60208E13E010808
:10489000B6540208D8540208E147000838B500238E
:1048A00001608380837104460BF0F2FFA0601DF06D
:1048B00083F8062590FBF5F303FB1500013020710A
:1048C0001DF07AF890FBF5F303FB1500013001238E
:1048D0006071A371204638BD2DE9F041044600689F
:1048E00003681B6B98470646206803689B6A9847D5
:1048F0000746206803685B6B984705462068036895
:10490000DB6A984794F904202B18F01900EBD0705B
:1049100003EBD37312EB60004FEA6303114604D438
:10492000A568D5F8A050A84202DB524222710021AE
:1049300094F90500C318024604D4A568D5F8A4501C
:10494000AB4202DB404260710022206803689C6930
:104950000123A446BDE8F0416047000038B5044695
:104960001D46084B0DF0C6F8074B236084F8315004
:1049700025B904492A4620460DF0E2F80123637563
:10498000204638BD00000020045502082DE9F04300
:104990000022ADF5177D05461146012343A8FFF718
:1049A000DDFFAB6EBDF91E11D3F8A420BDF91C01CB
:1049B000DFF85882521AD3F8A010091A02EBD2720B
:1049C00001EBD17100235210491043A80EF0C4FC32
:1049D0004FF0FF1601274FF4004143A80EF07EFC74
:1049E0001E239622CDE90067782117A80DF00EFF4F
:1049F000282117A800240EF071FC4FF47F03CDE9A5
:104A0000003478221E23962121A80DF0FFFE3221CA
:104A100021A80EF063FC4FF47F4978232222CDE9D0
:104A200000392E21602305A80DF0A4FE1E2105A843
:104A30000EF054FC4C232222CDE900382E216E23A7
:104A40000EA80DF097FE1E210EA80EF047FC0EF0EA
:104A500077FD22460A23CDE900606A4950A80EF08E
:104A60001BF8462150A80EF039FC0EF0A3FD22469B
:104A70001423CDE9008063495EA80EF00DF85021A3
:104A80005EA80EF02BFC0EF00BFE4FF6FF782246D0
:104A90001E235C490190CDF800806CA80DF0FCFF4E
:104AA0005A216CA80EF01AFC0EF084FD2246322327
:104AB000CDE901605349CDF800907AA80EF058F87E
:104AC00064217AA80EF00AFC0EF0C4FCFF262246F0
:104AD00046234C490190009688A80DF0DDFF6E2119
:104AE00088A80EF0FBFBCDE901670A262246642365
:104AF000214600962BA80DF087FD31462BA80EF01D
:104B0000EDFB1423462200966421CDE9018737A8E6
:104B10000DF07AFD142137A80EF0E0FB0C200BF00D
:104B20005FFE394C17A90646FFF7B8FE0C20266039
:104B30000BF056FE21A90646FFF7B0FE0C2066607A
:104B40000BF04EFE05A90646FFF7A8FE0C20A66056
:104B50000BF046FE0EA90646FFF7A0FE0C20E6600D
:104B60000BF03EFE50A90646FFF798FE0C2026618A
:104B70000BF036FE5EA90646FFF790FE0C2066613C
:104B80000BF02EFE6CA90646FFF788FE0C20A661EE
:104B90000BF026FE7AA90646FFF780FE0C20E661A0
:104BA0000BF01EFE88A90646FFF778FE0C20266251
:104BB0000BF016FE2BA90646FFF770FE0C2066626E
:104BC0000BF00EFE37A90646FFF768FEA662A86E38
:104BD0004FF0FF310BF02DFFC4B2002CF7D10A4E7D
:104BE00056F8040B0134FFF777FE0B2CF8D1A86EB2
:104BF0000BF024FFA86E0BF030FF01200FF0F9FB43
:104C0000E5E700BFC0540208DC41002000FFFF00C0
:104C1000034BD3F85C23034B1A615A62704700BF01
:104C2000208402080000002008B5806E03689B689D
:104C300098474FF0000008BD08B528B905F094F872
:104C40000079C31E5842584108BD70B50446806EB5
:104C500003681B6A984780B9D4F80434002B60D0ED
:104C600094F8CF03FFF7E8FF00285AD1D4F80434B2
:104C7000C4F888330024204670BDD4F80454D5B954
:104C800094F86C303F2B39D194F86F33002BF1D06E
:104C90000FF0ADFBC4F87403A06E84F86F53036883
:104CA000DB69012204F16C019847C0B20628D3D019
:104CB0002228DFD1D0E794F8CF03FFF7BDFF00280B
:104CC000CAD094F87033002BC6D194F8DD33002B92
:104CD000CCD104F591654FF0FF3128460FF0A8F9CB
:104CE0000FF085FB012384F87033D4F80434C4F842
:104CF0007C03C4F8883328460FF0BFF904F16C0533
:104D00004FF4807204F5816128461DF0D8FEA66E2E
:104D10002846FBF76FFA33680246DB6929463046BE
:104D2000C2E704F204410023012220460FF0BBF841
:104D3000C4B201200FF05FFB9DE7000010B5064BE9
:104D40000360044600F591600FF06AF92046FCF715
:104D5000E5FA204610BD00BFC464020808B5024849
:104D6000FFF7ECFF08BD00BF4043002010B504462C
:104D7000FFF7E4FF204640F27C611BF0DCF920469F
:104D800010BD00002DE9F041DFF81081D8F8005087
:104D9000BFF35B8F15F001056DD140461BF0CDF9D7
:104DA000002868D0354C364B364F2046102240F84C
:104DB000043B22212B460FF0AAF92B462021842206
:104DC00004F124000FF0A3F92F4A84F85050C4E9ED
:104DD00015244FF48062A4F85E20022284F860203B
:104DE0002A4A626604F20443294A2260C4E9113562
:104DF000284AA566012304F59160C4E9E135C4E9B8
:104E0000DD55C4E9DF55E36484F85C30C4F86C23F5
:104E100084F8705384F8D153A4F8FA33C4F8FC53DF
:104E2000C4F800540FF0F2F897E80F0004F28C4534
:104E300007F1100685E80F000FCE04F29C450FC560
:104E40000FCE0FC596E8070085E80700502207F14E
:104E50003C0104F599601DF072FF4FF4B27207F146
:104E60008C0104F5A3601DF06AFF0B481CF064FD83
:104E700040461BF06EF90148BDE8F0814043002038
:104E800098F60208D44E0208E13E0108705B020861
:104E9000C4640208000001015D4D00083C4300208D
:104EA000032928BF032100EB8100D0F88C04704750
:104EB0000B2928BF002100EB8100D0F89C0470472B
:104EC000582928BF582101F5A37150F821007047D7
:104ED000022970B505460C4621D800F591664FF0C1
:104EE000FF3130460FF0A4F895F8FC33002B42F266
:104EF000107308BF4FF47A7307EE903A05EB840401
:104F000094EDE47AF8EEE77A304667EE877AFDEEC4
:104F1000E77A17EE904A0FF0B0F8204670BD0024F3
:104F2000FBE7022970B505460C4625D800F59166C9
:104F30004FF0FF3130460FF07BF895F8FC3305EB6E
:104F40008404D4EDE77A94EDE47A002B42F21073F6
:104F500008BF4FF47A7337EE677A07EE903AF8EEAF
:104F6000E77A304667EE877AFDEEE77A17EE904AE9
:104F70000FF083F8204670BD0024FBE7022970B5CE
:104F800005460C4621D800F591664FF0FF313046BA
:104F90000FF04EF895F8FC33002B42F2107308BF67
:104FA0004FF47A7307EE903A05EB840494EDEA7AB5
:104FB000F8EEE77A304667EE877AFDEEE77A17EE8D
:104FC000904A0FF05AF8204670BD0024FBE70229F2
:104FD00070B505460C4625D800F591664FF0FF31B7
:104FE00030460FF025F895F8FC3305EB8404D4ED3A
:104FF000E77A94EDEA7A002B42F2107308BF4FF47F
:105000007A7337EE677A07EE903AF8EEE77A304631
:1050100067EE877AFDEEE77A17EE904A0FF02DF8EB
:10502000204670BD0024FBE790F87023D0F8883349
:1050300022B9994202D190F8DD037047994234BFFA
:1050400054205520704710B50446FFF7EDFF40B9D6
:10505000D4F88003D4F8783398422CBF0020012084
:1050600010BD542802D1D4F87C03F3E70020F7E701
:1050700000B5A3B000238DF80810012201A9019307
:105080008DF809300EF00FFF23B05DF804FB00002F
:1050900010B5044604F068FE027972B916484FF460
:1050A000005110F0C9F994F8D8336FF3000384F875
:1050B000D833012384F86E3310BD04F055FE037914
:1050C000012B0CD194F86E33002BECD18B212046B0
:1050D000FFF7CEFF0FF08BF9C4F87803E3E704F095
:1050E00043FE0379022BDED1034800224FF4005126
:1050F00010F0A2F9E6E700BF0008024038B5044608
:1051000004F032FE0579BDB91E4801224FF400516A
:1051100010F092F984F86E53D4F88423C4F88823ED
:1051200094F8D823002363F3000284F8703384F8E2
:10513000DD3384F8D82324E004F016FE0379012B34
:105140000DD194F86E3333B194F8CF331BB18B216A
:105150002046FFF78DFF002384F86E33DCE704F070
:1051600003FE0379022B06D1064801224FF40051B9
:1051700010F062F9E5E704F0F7FD94F86E33002BC8
:10518000CAD038BD0008024073B5069D83EAE374B7
:105190001846A4EBE37442F210739D420E4611468A
:1051A00012D1B4FBF5F305FB1344264ACDE90034D4
:1051B000254B13EA200338BF1346244A30461DF01E
:1051C0008DFB304602B070BDB5F57A7F0DD1B4FBD2
:1051D000F5F305FB13441B4ACDE900341A4B13EADF
:1051E000200338BF13461A4AE8E7642D0DD1B4FBFB
:1051F000F5F305FB1344134ACDE90034124B13EACF
:10520000200338BF1346134AD8E70A2D0DD1B4FB4B
:10521000F5F305FB13440B4ACDE900340A4B13EABE
:10522000200338BF13460C4AC8E7064A064B0094D1
:1052300013EA200338BF1346084A30461DF04EFBE0
:10524000BFE700BF9579020892640208795B020803
:10525000855B0208915B02089D5B0208A95B02085E
:10526000F7B5DDE9087600970C461546FFF78CFF89
:105270004EB12046FAF7BEFF044B054A0096291AA4
:1052800020441DF02BFB204603B0F0BDFCFE0208BD
:10529000AF5B02082DE9F0410F4605463A2138463A
:1052A0001DF0EEFB38B3002300F8013B1CF04DFB72
:1052B000C4B205F59368002658F8041F3846FAF77B
:1052C0008FFF08B9F6B203E001360B2EF4D10026A9
:1052D00095F88C33B34203D195F88D23A2420CD0BC
:1052E00013B9012385F8FA3385F88C6385F88D436B
:1052F0000120BDE8F0810446DBE70020F9E710B5A6
:1053000010460C461CF01EFB51EC100BFBF784FC06
:1053100094ED007A07EE900AB4EE677AF1EE10FA97
:1053200016BF01200020C4ED007A10BD10B5104654
:105330000C461CF00AFB22680346824216BF01207D
:105340000020236010BD2DE9F04107460C461546AC
:1053500002F10C080026294622463846FFF7CFFF07
:105360002C21002818BF064620461DF089FB20B1DD
:105370000435454500F10104EDD13046BDE8F0812A
:1053800090F8CC3310B5044663B3D0EDE77AF5EE70
:10539000407AF1EE10FA0FD1D0EDE87AF5EE407ACE
:1053A000F1EE10FA08D1D0EDE97AF5EE407AF1EE9F
:1053B00010FA14BF0123002394F8D42363F3C3022B
:1053C000002384F8D423C4F89C33C4F8A033C4F871
:1053D000A43394F8D43394F8CD2362F3451384F8BE
:1053E000D43310BD00F56772FFF7ADFF94F8D433E6
:1053F00060F3C30384F8D433EBE770B50E4604467C
:105400002C2130461DF03CFB0546002305F8013BEE
:10541000324604F570712046FFF788FF28B194F8F2
:10542000D63343F0010384F8D6332C2128461DF0EF
:1054300027FB0646002306F8013B2A4604F5717156
:105440002046FFF773FF28B194F8D63343F00203E8
:1054500084F8D633324604F57D712046FFF766FFA7
:1054600028B194F8D63343F0040384F8D63370BDE2
:1054700070B50D4604462C2128461DF001FB06465A
:10548000002306F8013B2A4604F572712046FFF717
:1054900036FF28B194F8D53343F0020384F8D533AE
:1054A0002C2130461DF0ECFA00230546E8B105F842
:1054B000013B324604F57A712046FFF720FF28B100
:1054C00094F8D53343F0040384F8D53365B12A4604
:1054D00004F57B712046FFF712FF28B194F8D5330D
:1054E00043F0040384F8D53370BDC4F8EC33E0E72F
:1054F0002DE9F84300F5B676B84904463046FAF788
:105500006FFE054648B90EF072FF84F87053C4F878
:10551000800384F8DD53BDE8F88394F86C31242BC4
:105520002AD13D2130461DF0ABFA054620B30023B9
:1055300005F8013B04F26D101CF007FA0D280CD0A1
:1055400016380A2818D80A2816D8DFE800F064159B
:10555000151515151515717E8B00284694F8FC73EA
:105560001CF0F3F9874207D028461CF0EEF984F8C6
:10557000FC03012384F8FB3394F86C313C2B40F09E
:105580006F81012384F86F330EF031FF9449C4F822
:10559000780304F26D101DF0A5FA0546F8B1014636
:1055A0002046FFF777FE28B194F8D43343F0020386
:1055B00084F8D43394F8DC3363B194F88C33052B3E
:1055C00008D094F8D533002262F3C30384F8DC23B7
:1055D00084F8D533824900201DF084FA0546814FB6
:1055E000DFF81482DFF814920026002D47D1002E38
:1055F00091D194F8DE33002B94F8D5331ABF84F898
:10560000DE630122002262F3861384F8D53300237F
:1056100084F8D1337FE72846B4F8FE731CF095F97F
:105620008742A9D028461CF090F9A4F8FE03A0E711
:105630002846B4F800741CF08CF987429CD02846A8
:105640001CF087F9A4F8000493E72846B4F8027424
:105650001CF07FF987428FD028461CF07AF9A4F815
:10566000020486E7284694F8FD731CF06EF9874221
:1056700082D028461CF069F984F8FD0379E70522F9
:10568000394628461DF009FAE8B994F8CC3343B9F5
:10569000012384F8CC3394F8D43343F0080384F81E
:1056A000D43304F56472691D2046FFF74CFE94F86C
:1056B000D43360F3820384F8D433494900201DF0C9
:1056C00011FA054691E70522414628461DF0E5F905
:1056D00030B994F8CC33002BE3D084F8CC03DAE76C
:1056E0000322494628461DF0D8F920B9E91C204676
:1056F000FFF7BEFEE1E73C49042228461DF0CDF944
:1057000020B9291D2046FFF73BFED6E73749032283
:1057100028461DF0C2F910BB04F2DD32023504F256
:10572000E731064602F8016F15F8013F83B13E2BC1
:105730000ED094F8D53343F0400384F8D5332B785A
:10574000137003F0DF03502B08BF01209142E9D111
:10575000002384F8E73384F8D1030126ADE7244918
:10576000022228461DF099F968B9AB78A3F13100FF
:105770004342434184F8D03394F8D53343F02003B7
:1057800084F8D53399E71B49022228461DF085F994
:10579000C8BB94F8D433A4F8F80343F040030235AF
:1057A00084F8F00384F8D433012240F2011115F893
:1057B000013B002B81D04D2B0CD006D8432B1FD0A2
:1057C000462BF4D184F8F823F1E7532BEFD1A4F85A
:1057D000F023ECE784F8F923E9E700BFB45B0208A3
:1057E000B75B0208B95B0208C95B0208CE5B02081E
:1057F0000A540208D25B0208BF5B0208C55B0208BC
:10580000A4F8F013D3E74249032228461DF045F9D6
:1058100020B9E91C2046FFF7F0FD4EE73D49042280
:1058200028461DF03AF900287FF447AF2A7994F80A
:10583000CF33A2F131014A424A419A4209D083F062
:10584000010384F8CF3394F8D43343F0010384F890
:10585000D43394F8D83343F0010384F8D8332CE7D9
:105860005B2B29D104F26D152B49042228461DF02B
:1058700014F968B904F56A7204F271112046FFF751
:1058800062FD94F8D63360F3C30384F8D63342E65E
:105890002249042228461DF000F900287FF43BAE7F
:1058A00004F56D7204F271112046FFF74CFD94F877
:1058B000D63360F30413E8E71949062230461DF099
:1058C000ECF8054670B904F5B9701CF03EF894F890
:1058D000D53384F8DD0343F0100384F8D53384F81E
:1058E000705318E60F49062230461DF0D6F80028FE
:1058F0007FF411AE04F5B9701CF027F894F8D53395
:1059000084F8DC0343F0080384F8D53303E600BFD2
:10591000D55B0208D95B0208DE5B0208E35B020884
:10592000E85B0208EF5B020873B5002604468DF8B9
:105930000760A06E03680DF107011B699847C0B2AC
:1059400008B102B070BD9DF80720182A04D0B4F841
:105950006C33B3F5FE7F02D9A4F86C63E9E70A2A39
:1059600001D00D2A13D1002BF6D02344002204F5D8
:10597000916583F86C214FF0FF3128460EF058FBFB
:105980002046FFF7B5FD28460EF077FBE4E7591CEB
:105990002344A4F86C1383F86C21CAE770B504465D
:1059A00000F591664FF0FF3130460EF041FBD4F820
:1059B00084536B1C012B38BF0123C4F88433304659
:1059C0000EF05BFB284670BD70B50446A2B090F89F
:1059D000CF030D461646FFF72FF988B194F88C33A4
:1059E00073B12046FFF7DAFF6A1E01900DF107013F
:1059F0007F3512F8013F01F8013F23B1AA42F8D1E7
:105A00000C2022B070BD1A4601A920460EF04BFAB8
:105A1000019B3360C0B2F4E713B50446FFF784FF7F
:105A20000EF0E5FCD4F87833C01AB0F5967F81BF4C
:105A3000002384F88C33012384F86F3394F8CF0368
:105A4000FFF7FAF810B194F88C3363B994F8703317
:105A50004BB1002384F87033D4F88433C4F888330E
:105A6000562384F8DD3304F07FF90379012B1DD12F
:105A700094F86E3394F8CF03EBB1FFF7DDF8D0B9AB
:105A800094F8D833DB074BD58B212046FFF7F0FA8B
:105A90000EF0ADFC94F8D833C4F87403002262F31E
:105AA000000384F86F2384F8D83304E004F05CF931
:105AB0000379022BDCD094F8CF03FFF7BDF850B187
:105AC00094F8FA333BB11B4901AA2046FFF77CFF4B
:105AD000002384F8FA3394F8CF03FFF7ADF8D8B178
