:020000040800F2
:1000000000000220150002086DF701086FF70108D3
:1000100071F7010873F7010875F701080000000087
:1000200000000000000000000000000071E901086D
:1000300077F701080000000001EA010879F70108DC
:1000400065000208650002086500020865000208F4
:1000500065000208650002086500020865000208E4
:1000600065000208650002086500020865000208D4
:1000700065000208650002086500020865000208C4
:100080006500020865000208650002080000000023
:1000900000000000000000000000000065000208F1
:1000A0006500020865000208650002086500020894
:1000B0006500020865000208650002086500020884
:1000C0006500020865000208650002086500020874
:1000D0006500020891F701086500020800000000B1
:1000E00065000208650002086500020800000000C3
:1000F0000000000000000000000000006500020891
:10010000000000009DF70108650002086500020874
:1001100000000000000000000000000000000000DF
:100120006500020865000208A9F70108B5F7010893
:100130006500020800000000000000000000000050
:10014000000000000000000000000000C1F70108EE
:10015000CDF7010865000208D9F70108650002081B
:1001600065000208650002080000000000000000B1
:10017000000000000000000000000000000000007F
:100180000000000065000208000000000000000000
:08019000650002086500020889
:1001A00010B5054C237833B9044B13B10448AFF3B1
:1001B00000800123237010BD5003002000000000C8
:1001C000EC4C020808B5034B1BB103490348AFF3DD
:1001D000008008BD0000000054030020EC4C020821
:1001E00010F8012B11F8013B012A28BF9A42F7D0E1
:1001F000D01A7047034613F8012B002AFBD1181AB6
:1002000001387047000000000000000000000000FE
:1002100001F0FF01102A2BDB10F0070F08D010F8B7
:10022000013B013A8B422DD010F0070F42B3F6D1BB
:10023000F0B441EA012141EA014122F007047FF0D4
:1002400000070023F0E80256083C85EA010586EA2B
:10025000010685FA47F5A3FA87F586FA47F6A5FA67
:1002600087F68EB9EED1F0BC01F0FF0102F0070273
:1002700032B110F8013B013A83EA010313B1F8D11E
:100280000020704701387047002D06BF35460338FF
:10029000073815F0010F07D1013015F4807F02BF38
:1002A000013015F4C03F0130F0BC0138704700BF89
:1002B00081F0004102E000BF83F0004330B54FEA17
:1002C00041044FEA430594EA050F08BF90EA020F84
:1002D0001FBF54EA000C55EA020C7FEA645C7FEA17
:1002E000655C00F0E2804FEA5454D4EB5555B8BF3A
:1002F0006D420CDD2C4480EA020281EA030382EAAB
:10030000000083EA010180EA020281EA0303362D3C
:1003100088BF30BD11F0004F4FEA01314FF4801C0F
:100320004CEA113102D0404261EB410113F0004F21
:100330004FEA03334CEA133302D0524263EB4303D8
:1003400094EA050F00F0A780A4F10104D5F1200E76
:100350000DDB02FA0EFC22FA05F2801841F10001D1
:1003600003FA0EF2801843FA05F359410EE0A5F1A5
:1003700020050EF1200E012A03FA0EFC28BF4CF0D6
:10038000020C43FA05F3C01851EBE37101F000458C
:1003900007D54FF0000EDCF1000C7EEB00006EEB99
:1003A0000101B1F5801F1BD3B1F5001F0CD3490823
:1003B0005FEA30004FEA3C0C04F101044FEA44527A
:1003C00012F5800F80F09A80BCF1004F08BF5FEA01
:1003D000500C50F1000041EB045141EA050130BDE1
:1003E0005FEA4C0C404141EB0101013C28BFB1F5F3
:1003F000801FE9D291F0000F04BF01460020B1FA3E
:1004000081F308BF2033A3F10B03B3F120020CDA10
:100410000C3208DD02F1140CC2F10C0201FA0CF0EE
:1004200021FA02F10CE002F11402D8BFC2F1200C53
:1004300001FA02F120FA0CFCDCBF41EA0C01904009
:10044000E41AA2BF01EB0451294330BD6FEA040452
:100450001F3C1CDA0C340EDC04F11404C4F120023D
:1004600020FA04F001FA02F340EA030021FA04F34F
:1004700045EA030130BDC4F10C04C4F1200220FAA6
:1004800002F001FA04F340EA0300294630BD21FAE4
:1004900004F0294630BD94F0000F83F4801306BFAA
:1004A00081F480110134013D4EE77FEA645C18BF9E
:1004B0007FEA655C29D094EA050F08BF90EA020F35
:1004C00005D054EA000C04BF1946104630BD91EA2D
:1004D000030F1EBF0021002030BD5FEA545C05D130
:1004E0004000494128BF41F0004130BD14F580046F
:1004F0003CBF01F5801130BD01F0004545F0FE41E3
:1005000041F470014FF0000030BD7FEA645C1ABF17
:10051000194610467FEA655C1CBF0B46024650EA4E
:10052000013406BF52EA033591EA030F41F400217A
:1005300030BD00BF90F0000F04BF0021704730B500
:100540004FF4806404F132044FF000054FF00001D5
:1005500050E700BF90F0000F04BF0021704730B596
:100560004FF4806404F1320410F0004548BF40426B
:100570004FF000013EE700BF42004FEAE2014FEAC0
:1005800031014FEA02701FBF12F07F4393F07F4F9B
:1005900081F06051704732F07F4208BF704793F09E
:1005A0007F4F04BF41F40021704730B54FF46074B1
:1005B00001F0004521F000411CE700BF50EA0102B4
:1005C00008BF704730B54FF000050AE050EA01025D
:1005D00008BF704730B511F0004502D5404261EBCD
:1005E00041014FF4806404F132045FEA915C3FF40E
:1005F000D8AE4FF003025FEADC0C18BF03325FEAAB
:10060000DC0C18BF033202EBDC02C2F1200300FA5B
:1006100003FC20FA02F001FA03FE40EA0E0021FA80
:1006200002F11444BDE600BF70B54FF0FF0C4CF46E
:10063000E06C1CEA11541DBF1CEA135594EA0C0F20
:1006400095EA0C0F00F0DEF82C4481EA030621EA5B
:100650004C5123EA4C5350EA013518BF52EA033596
:1006600041F4801143F4801338D0A0FB02CE4FF048
:100670000005E1FB02E506F00042E0FB03E54FF078
:100680000006E1FB03569CF0000F18BF4EF0010E70
:10069000A4F1FF04B6F5007F64F5407404D25FEA6C
:1006A0004E0E6D4146EB060642EAC62141EA55511F
:1006B0004FEAC52040EA5E504FEACE2EB4F1FD0C61
:1006C00088BFBCF5E06F1ED8BEF1004F08BF5FEADF
:1006D000500E50F1000041EB045170BD06F0004691
:1006E00046EA010140EA020081EA0301B4EB5C043E
:1006F000C2BFD4EB0C0541EA045170BD41F4801136
:100700004FF0000E013C00F3AB8014F1360FDEBF5A
:10071000002001F0004170BDC4F10004203C35DA36
:100720000C341BDC04F11404C4F1200500FA05F3B9
:1007300020FA04F001FA05F240EA020001F000425A
:1007400021F0004110EBD37021FA04F642EB0601D0
:100750005EEA430E08BF20EAD37070BDC4F10C04FA
:10076000C4F1200500FA04F320FA05F001FA04F2BE
:1007700040EA020001F0004110EBD37041F10001AA
:100780005EEA430E08BF20EAD37070BDC4F12005B5
:1007900000FA05F24EEA020E20FA04F301FA05F21D
:1007A00043EA020321FA04F001F0004121FA04F2C5
:1007B00020EA020000EBD3705EEA430E08BF20EA95
:1007C000D37070BD94F0000F0FD101F000464000CF
:1007D00041EB010111F4801F08BF013CF7D041EA51
:1007E000060195F0000F18BF704703F00046520055
:1007F00043EB030313F4801F08BF013DF7D043EA26
:100800000603704794EA0C0F0CEA135518BF95EADB
:100810000C0F0CD050EA410618BF52EA4306D1D162
:1008200081EA030101F000414FF0000070BD50EA81
:10083000410606BF1046194652EA430619D094EA0B
:100840000C0F02D150EA013613D195EA0C0F05D1F5
:1008500052EA03361CBF104619460AD181EA030149
:1008600001F0004141F0FE4141F470014FF0000001
:1008700070BD41F0FE4141F4780170BD70B54FF09C
:10088000FF0C4CF4E06C1CEA11541DBF1CEA13551C
:1008900094EA0C0F95EA0C0F00F0A7F8A4EB0504FE
:1008A00081EA030E52EA03354FEA013100F08880F5
:1008B0004FEA03334FF0805545EA131343EA1263BE
:1008C0004FEA022245EA111545EA10654FEA002673
:1008D0000EF000419D4208BF964244F1FD0404F52C
:1008E000407402D25B084FEA3202B61A65EB030588
:1008F0005B084FEA32024FF480104FF4002CB6EB45
:10090000020E75EB030E22BFB61A754640EA0C00C4
:100910005B084FEA3202B6EB020E75EB030E22BF04
:10092000B61A754640EA5C005B084FEA3202B6EB45
:10093000020E75EB030E22BFB61A754640EA9C0004
:100940005B084FEA3202B6EB020E75EB030E22BFD4
:10095000B61A754640EADC0055EA060E18D04FEA92
:10096000051545EA16754FEA06164FEAC30343EA32
:1009700052734FEAC2025FEA1C1CC0D111F4801FFF
:100980000BD141EA00014FF000004FF0004CB6E7F8
:1009900011F4801F04BF01430020B4F1FD0C88BF97
:1009A000BCF5E06F3FF6AFAEB5EB030C04BFB6EBA2
:1009B000020C5FEA500C50F1000041EB045170BD95
:1009C0000EF0004E4EEA113114EB5C04C2BFD4EBC2
:1009D0000C0541EA045170BD41F480114FF0000E46
:1009E000013C90E645EA060E8DE60CEA135594EAC2
:1009F0000C0F08BF95EA0C0F3FF43BAF94EA0C0FC5
:100A00000AD150EA01347FF434AF95EA0C0F7FF439
:100A100025AF104619462CE795EA0C0F06D152EA8D
:100A200003353FF4FDAE1046194622E750EA410671
:100A300018BF52EA43067FF4C5AE50EA41047FF482
:100A40000DAF52EA43057FF4EBAE12E74FF0FF3CE7
:100A500006E000BF4FF0010C02E000BF4FF0010CB8
:100A60004DF804CD4FEA410C7FEA6C5C4FEA430C31
:100A700018BF7FEA6C5C1BD001B050EA410C0CBF80
:100A800052EA430C91EA030F02BF90EA020F0020E2
:100A9000704710F1000F91EA030F58BF994208BF49
:100AA00090422CBFD8176FEAE37040F00100704706
:100AB0004FEA410C7FEA6C5C02D150EA013C07D15D
:100AC0004FEA430C7FEA6C5CD6D152EA033CD3D0A8
:100AD0005DF8040B704700BF8446104662468C46A2
:100AE0001946634600E000BF01B5FFF7B7FF0028D5
:100AF00048BF10F1000F01BD4DF808EDFFF7F4FFFE
:100B00000CBF012000205DF808FB00BF4DF808ED88
:100B1000FFF7EAFF34BF012000205DF808FB00BFAB
:100B20004DF808EDFFF7E0FF94BF012000205DF8CD
:100B300008FB00BF4DF808EDFFF7CEFF94BF012082
:100B400000205DF808FB00BF4DF808EDFFF7C4FF7B
:100B500034BF012000205DF808FB00BF4FEA410CC4
:100B60007FEA6C5C02D150EA013C0AD14FEA430CA7
:100B70007FEA6C5C02D152EA033C02D14FF00000E4
:100B800070474FF0010070474FEA410212F5001222
:100B900015D211D56FF47873B3EB625212D94FEAC4
:100BA000C12343F0004343EA505311F0004F23FAAE
:100BB00002F018BF404270474FF00000704750EA03
:100BC000013005D111F0004008BF6FF000407047C0
:100BD0004FF00000704700BF4A0011D212F500121A
:100BE00011D20DD56FF47873B3EB62520ED44FEA85
:100BF000C12343F0004343EA505323FA02F0704705
:100C00004FF00000704750EA013002D14FF0FF3042
:100C100070474FF0000070474FEA4102B2F1E043E5
:100C200024BFB3F5001CDCF1FE5C0DD901F0004CD3
:100C30004FEAC0024CEA5070B2F1004F40EB830023
:100C400008BF20F00100704711F0804F21D113F14F
:100C50003872BCBF01F00040704741F480114FEA88
:100C60005252C2F11802C2F1200C10FA0CF320FA11
:100C700002F018BF40F001004FEAC1234FEAD3232E
:100C800003FA0CFC40EA0C0023FA02F34FEA430398
:100C9000CCE77FEA625307D150EA01331EBF4FF021
:100CA000FE4040F44000704701F0004040F0FE403C
:100CB00040F40000704700BF53B94AB9002908BF8B
:100CC00000281CBF4FF0FF314FF0FF3000F0A0B9FB
:100CD000ADF1080C6DE904CE00F03CF8DDF804E05D
:100CE000DDE9022304B0704738B500220023044632
:100CF0000D46FFF70BFF28B920462946BDE83840CE
:100D000000F00AB8204605F1004100F005F8404225
:100D100061EB410138BD00BFD0B50C4B0022064647
:100D20000F46FFF781FCFFF757FF0446FFF702FC71
:100D3000074B0022FFF778FC02460B463046394647
:100D4000FFF7BAFAFFF748FF2146D0BD0000F03D9B
:100D50000000F0412DE9F047089D0C46002B4ED1D4
:100D600094468C458646B2FA82F262D94AB1C2F103
:100D70002003914020FA03F30CFA02FC194300FA15
:100D800002FE4FEA1C471FFA8CF6B1FBF7F44FEA5C
:100D90001E4307FB141143EA014304FB06F1994289
:100DA0000AD91CEB030304F1FF3080F01281994251
:100DB00040F20F81023C6344591A1FFA8EF3B1FBD3
:100DC000F7F007FB101143EA014300FB06F69E42D1
:100DD0000AD91CEB030300F1FF3180F0FC809E4236
:100DE00040F2F980634402389B1B40EA0440002132
:100DF0001DB1D3400022C5E90032BDE8F0878B4227
:100E000005D90DB1C5E9000100210846F5E7B3FA9F
:100E100083F1002946D1A34202D39042C0F0F08072
:100E2000861A64EB03030120002DE6D0C5E90063B8
:100E3000E3E7002A40F09080A1EB0C044FEA1C4845
:100E40001FFA8CF70121B4FBF8F64FEA1E4308FBAA
:100E5000164443EA044307FB06F0984208D91CEB0A
:100E6000030306F1FF3402D2984200F2CD802646F9
:100E70001C1A1FFA8EF3B4FBF8F008FB104443EA87
:100E8000044300FB07F79F4208D91CEB030300F162
:100E9000FF3402D29F4200F2B0802046DB1B40EAC2
:100EA0000640A5E7C1F120068B4022FA06F71F4352
:100EB00020FA06FC04FA01F343EA0C03F44000FABA
:100EC00001F8380C4FEA1349B4FBF0FE1FFA87FC17
:100ED00000FB1E4449EA04440EFB0CF9A14502FA4A
:100EE00001F20AD93C190EF1FF3A80F08480A14545
:100EF00040F28180AEF1020E3C44A4EB09041FFADB
:100F000083F9B4FBF0F300FB134449EA044403FB08
:100F10000CFCA44507D93C1903F1FF3067D2A44566
:100F200065D9023B3C4443EA0E40A0FB0293A4EB8C
:100F30000C049C42CE469C4651D34ED055B1B8EBE2
:100F40000E0364EB0C0404FA06F6CB401E43CC40BF
:100F5000C5E90064002150E7C2F1200320FA03F143
:100F60000CFA02FC24FA03F394400C434FEA1C48A9
:100F700000FA02FE1FFA8CF7B3FBF8F008FB103101
:100F8000230C43EA014300FB07F1994208D91CEB0B
:100F9000030300F1FF362CD299422AD90238634468
:100FA0005B1AA4B2B3FBF8F108FB113344EA034423
:100FB00001FB07F3A34208D91CEB040401F1FF363F
:100FC00013D2A34211D902396444E41A41EA004120
:100FD00039E70446F0E6084606E7C845AED2B9EB65
:100FE000020E63EB070C0138A8E73146EDE7034634
:100FF00099E73046D4E7D6467FE7634402384DE7A9
:101000000646234608460FE7023E634430E700BF2A
:10101000704700BF03798B4228BF0431C91AC9B297
:101020004171704708B503681B699847B0FA80F0B2
:10103000400908BD10B508F03DFE204908F05EFEED
:101040000FF0C0FB1E490FF07BFC0FF0BBFB1D49EE
:101050000FF0BAFC0FF0B6FB03681B68984713F05B
:10106000B9FA036818495B6A984705F04FFC1749BD
:10107000002205F0A9FC05F049FC03681B689847AD
:101080001348FFF7CFFF30B10EF0F4FD0368BDE861
:1010900010401B6818470F48FFF7C4FF10B103F05A
:1010A00043FBF3E703F0ECFD0B4B836603F0E8FD35
:1010B00003681B68984700F063FBE7E76C030020B8
:1010C000A403002084030020C8D9012080D9012076
:1010D0008804002078040020D003002000BEFEE732
:1010E000704700002DE9F0473D4ADFF840913D4F41
:1010F0003D4BBA601021C9E902210822FA603B4A3F
:101100003B49916000244FF48060C2E90034D06014
:10111000DFF81C81374ADFF81CA1C9F8003001252F
:10112000C8E90035C7E90035C2E900340223D360BD
:101130004FF06413CAF804302F4B304ECAF8003019
:101140002F4BCAF808304FF0051373602D4B3360F6
:1011500006F10C002C4B9160C8E90215C9F8045047
:10116000B36012F0EDFE294B294A1A60294AC3F8F0
:101170008420A3F88840284B284818604FF4F07268
:1011800027481C760321C3E901124FF4A071C3E97B
:10119000031259610571C180224D0281C3E907A97B
:1011A000C3E909872146204B03604471C66004747B
:1011B000C0F81240C0F81640C0F81A40FFF72AFFE6
:1011C0004FF400404023C5E900034220C5E903462F
:1011D0002C726C610FF0A0FAE860BDE8F08700BFE8
:1011E000000002409804002078F4020888040020DF
:1011F0000004024078040020E8F402085C040020A7
:1012000024D901209CF4020888D70120D0030020B3
:1012100038F50208D0DA0120A40300204C8202082D
:10122000840300206C03002024820208B8040020FC
:10123000A80400206C04002008B5074BD86810B142
:1012400001211EF010FF0548054B40F80C3BBDE89E
:10125000084012F07FBE00BF6C0300205C04002039
:101260009CF402084FF00000704700F5805090F8A1
:10127000F40E002818BF0320704712F009BDF8B51E
:101280000446002840D00E784F7826BB00F5BA55AA
:10129000EB680C351B692846984760B32B682846D5
:1012A0001B6C984738B3DFB10121284613F0DAFCF4
:1012B000062E1ED103F0E4FC90F86E3304F5AD5415
:1012C0001434DBB103F0DCFC03F096FE0021204671
:1012D00013F0C8FC0DE0012E0DD100F5C055D7E785
:1012E0003946284613F0BEFC23682946DB692046B0
:1012F00098470020F8BD002FDAD1FAE703F0C0FCD0
:1013000003F044FE0121E2E70120F3E710B5074BAB
:10131000044640F8483B13F019F804F1240012F099
:101320006BFE201D12F068FE204610BD6CF5020811
:1013300010B50446FFF7EAFF204668211EF093FE31
:10134000204610BD054A02600022C0E90122C0E922
:101350000322C0E90522C261704700BF4C8D02081C
:1013600010B50446FFF7EEFF044B23600023C4E9E9
:10137000083384F82830E362204610BD508B020801
:1013800010B50446FFF7DEFF064B23600122002361
:1013900084F82C20C4E90833A362236384F8343032
:1013A000204610BDA08C02082DE9F8430446FFF743
:1013B000C9FF1C4B236000256FF07F43DFF8689066
:1013C00023634FF001084FF080774FF0FF36C4E9F8
:1013D0000855C4E90A55A58604F13800FFF7B2FFA5
:1013E000C4E91655C4E91B76C4F83890256684F81C
:1013F0006480A566A4F8785004F17C00FFF7A2FF92
:10140000C4E92B5784F8A880C4E92755C4F87C9018
:10141000C4F8A450C4F8B460A4F8BC502046BDE899
:10142000F88300BFD4F50208FC8A02082DE9F843CE
:1014300005460026FFF786FFC5E90866C5E90A6686
:10144000304BDFF8CC902B602E6305F1340405F5AA
:101450005D774FF0FF382046FFF774FFC4F8009027
:1014600084F82060C4F82C8084F83060C4E90966F0
:101470003434BC42EFD105F2F46620463834FFF72D
:101480007FFFB442F9D105F5975614362046C03493
:10149000FFF78AFFB442F9D1204605F580540026B3
:1014A000FFF750FF184BC4F8F43205F59850C4F814
:1014B00014631830FFF778FF05F59E501830FFF7DA
:1014C00073FF05F5A4501830FFF74AFF05F5A65045
:1014D0000830FFF737FF0D4BC4F8C834C4F8E86490
:1014E000C4F8EC64C4F8F06484F8F464C4F8F864F4
:1014F000C4F8FC640FF066F9C4F800052846BDE89E
:10150000F88300BF2C640208F88B0208A48B020841
:10151000A882020870B50A2300250446C0E90055D8
:10152000C0E9025503611430FFF70CFF4B4B6361B8
:10153000C4E90D5504F13C00FFF712FF04F16C0003
:10154000FFF700FF464BE36604F18C00FFF718FF3E
:1015500004F1C400FFF7F6FE424BC4F8C4304FF468
:101560007F420123C4E93E234FF00041C4E94053C8
:101570006FF00043C4E942134FF0FF33C4F8103159
:10158000C4E93955C4F8EC5084F8F050C4F8F4506C
:1015900004F58A70FFF7E4FE04F5A270FFF7F0FE91
:1015A00004F5BE70FFF7ECFE2946182204F5DA7048
:1015B00021F0F6F92946102204F5E67021F0F0F941
:1015C00084F8DC510FF0FEF8C4F8E00104F5F27085
:1015D000FFF7EAFE04F52970FFF7E6FE04F55970FF
:1015E000FFF7E2FE204B93E8070004F2244585E86C
:1015F000070004F5866603F10C023C33106851685D
:10160000354603C508329A422E46F7D104F58C6060
:10161000FFF7CAFE04F5A460FFF7C6FE0FF0D2F88C
:10162000002384F8F03584F80836C4F8E005C4F8DF
:10163000E435C4F8E835C4F8EC35C4F8F435C4F83A
:10164000F835C4F8FC35C4F80036C4F80436C4F8DC
:101650000C36C4F81036204670BD00BFF48C02086A
:10166000A48B0208D0520208084D0208404B70B506
:1016700010220446222140F8043B002312F0E1FC32
:1016800000230822202104F1240012F0DAFC04F5E2
:10169000F7531433002563641423C4E91253354B04
:1016A00084F85050C4E915344FF48063A4F85E30D8
:1016B000022384F8603020462F4B63662F4B84F85A
:1016C0005C504022294640F8683B21F069F9C4E9A2
:1016D0002A5504F1B000FFF7A9FE04F5AD5014300F
:1016E000FFF762FE04F5B3501430FFF739FE04F53E
:1016F000B5500430FFF744FE04F5B6501C30FFF738
:101700003FFE04F5B8501430FFF73AFE04F5BA5026
:101710000C30FFF749FE04F5C0500C30FFF744FED3
:1017200004F5C65004F580560C30FFF7F3FE032392
:1017300086F8E03E0FF046F8C6F8E40E05F0E6F84D
:10174000C6F8E80E03F09CFAC6F8EC0E08F0B2FA00
:1017500086F8085FC6F8F00EC6F8FC5EC6F8005FB3
:10176000C6F8045FC6F80C5FC6F8105F204670BD6F
:101770006CF50208153E0108F05102087C5202087F
:1017800010B50A4C2368BFF35B8FDB070CD42046EF
:101790001EF06BFC40B10648FFF768FF054820F0DB
:1017A00063F820461EF06DFC014810BDC8040020FF
:1017B000CC040020692200082DE9F04F00F5805785
:1017C00085B0D7F8E43EDFF8B490D3F8A4A004467F
:1017D00000F5BA5811F0C4FE0368DB689847D7F8E3
:1017E000E43ED3F8A02002EBD2725610054611F069
:1017F000B7FE0368DB68984708F10C084FF0010B4F
:10180000043E05EB450500EB4000AAEB0503494605
:101810000022CDE90060CDF808B0404613F0D4F8BE
:101820001CF01EFD1CF0EEFB002301461A4640464C
:1018300013F023FAD7F8E43EB7F95C27D3F8A010E9
:10184000CDF808B0B7F95E37CDE9002304F5C054F0
:101850000C34B7F956378A1A2046494613F0B4F8C3
:101860001CF0FEFC1CF0CEFB002301461A4620466D
:1018700005B0BDE8F04F13F000BA00BF925B02085C
:10188000034603F5805300F5BA50D3F8EC3E93F8C5
:101890008C33022B0CBF024902490C3013F0EAB81A
:1018A000FC5102080152020800F58052D2F8EC2ED9
:1018B00092F88C23012A05D121B100F5BA500C30E1
:1018C00013F0D8B8FFF7DCBF00F5805300F5C05027
:1018D000D3F8EC3E93F88C33052B00F10C0002D1C9
:1018E000034913F0C7B80BB90249FAE70249F8E710
:1018F00005520208066302082760020800F58052BC
:10190000D2F8EC2E92F88C23012A05D121B100F5F2
:10191000C0500C3013F0AEB8FFF7D6BF70B500F171
:1019200064030446002553F8042F8A4218D1D4F8E2
:10193000AC301A3354F8230003681B69984704F14C
:10194000B000C4F8AC50294604F0DAFED4F8AC304C
:101950001A3354F823000368BDE87040DB68184769
:101960000135102DDFD170BDD0F8AC301A3370B511
:10197000044650F8230003680D461B69984704F19C
:10198000B000C4F8AC50294604F0BAFED4F8AC302C
:101990001A3354F823000368BDE87040DB68184729
:1019A00070B500F5AD5614368E4204460D4613D17F
:1019B00000F58054D4F8EC0E90F86E3343B103F088
:1019C0001BFB0021304613F04DF94FF0000070BDB5
:1019D00003F0DCFA0121F5E700F1B003994204D1EC
:1019E00090F8DC10FFF7C0FFEFE7D0F8AC301A3307
:1019F00050F8230003689B699847C0B20828E4D1D7
:101A000004F5BA530C339D420CD104F58054D4F83C
:101A1000EC0E90F88C33022B14BF8121822103F04D
:101A2000A5FAD2E704F5C0530C339D42CDD104F59D
:101A30008054D4F8EC0E90F88C33052B02D103F0CF
:101A400057FFC2E7D0F884232BB980F87033C0F871
:101A500088231821E3E7002380F87033C0F8882337
:101A60001921DCE7F7B5044600F1B00504F580560E
:101A7000284604F0D0FC28221021D6F8E43ECDE917
:101A8000002100221146D3F8A0300027284604F098
:101A90004DFEC4F8A87011F0B1FC39460346724AF5
:101AA000284604F0BFFD714AD4F8A810284604F077
:101AB00051FDD4F8A8707B1CC4F8A83002F064FD76
:101AC0001A3744F82700D4F8A87011F097FC39466B
:101AD000674A0346284604F0A5FDD4F8A8707B1C8D
:101AE000C4F8A83008F06AFD1A3744F82700D4F883
:101AF000A87011F083FC394603465E4A284604F07C
:101B000091FDD4F8A8707B1CC4F8A83001F0B2FE97
:101B10001A37D6F8EC3E44F8270093F8FD339BB90A
:101B2000D4F8A87011F06AFC39460346524A284698
:101B300004F078FDD4F8A8707B1CC4F8A8300CF031
:101B4000F9FE1A3744F82700D4F8A87011F056FCB3
:101B500039460346494A284604F064FDD4F8A87083
:101B60007B1CC4F8A8300CF0AFF81A37D6F8EC3E5E
:101B700044F8270093F8FD3363BBD4F8A87011F044
:101B80003DFC394603463E4A284604F04BFDD4F856
:101B9000A8707B1CC4F8A8300AF02EFA1A37D6F8C1
:101BA000EC3E44F8270093F8FD339BB9D4F8A870B5
:101BB00011F024FC39460346324A284604F032FD2F
:101BC000D4F8A8707B1CC4F8A83007F063FB1A3760
:101BD00044F82700D6F8EC3E93F8FD33022B13D1DE
:101BE000D4F8A87011F00AFC39460346264A284664
:101BF00004F018FDD4F8A8707B1CC4F8A83005F0D8
:101C00004DFA1A3744F82700D4F8A87011F0F6FB03
:101C100039461E4A0346284604F004FDD4F8A8704D
:101C20007B1CC4F8A8300DF05DFC1A37D4F8A8204E
:101C300044F82700D6F8E43E0192282200920022C0
:101C400011462846D3F8A03004F070FD0023214649
:101C500028461A4604F01EFE4FF4FA61284603B0E7
:101C6000BDE8F04004F094BB0C5202083C00002098
:101C70001052020819520208245202083152020876
:101C80003E52020844520208575202086A520208A1
:101C90002DE9F04F054689B005F5805408F00AF8A3
:101CA00008F030F8D4F8E46E08F004F881680039E0
:101CB00018BF012130460EF06EFE94F8E01ED4F8F5
:101CC000E40E0FF0AEF9D4F8E43E8F4AC3F8982042
:101CD000D3F8A47011F044FC0368DB68984706460B
:101CE00011F08CFB0368DB689847D4F8E43ED3F826
:101CF000A0300593824611F081FB026892689047FC
:101D0000834611F07BFB0268D268904706EB4606DB
:101D10007E4A059B05F5B359023F4FF0060809F1CD
:101D20001409BF1B4000002608FB1B33CDE9012628
:101D30000090A7EB4A024846314610F0CDFB4FF425
:101D40007A71484611F064FAD4F8EC0E03F054F9B5
:101D5000D4F8E43ED3F8A0A011F050FB03689B68D0
:101D60009847B4F97EB6814611F048FB03689B683A
:101D700098470123029305F5AD571437B4F9863619
:101D80006349019308FB00F00AF1FF3208FB1922B6
:101D90005B460090384612F017FE3246334638460E
:101DA000294612F06AFF3846314612F05BFF4FF4C5
:101DB0007A71384611F02CFAB4F98636B4F97E9669
:101DC00003EBD37309EB630911F018FB0368DB68BD
:101DD0009847074611F012FB05F5B5586FF07F4A9A
:101DE00008F1040804224B490190A9EB5703CDF8F0
:101DF00000A0404610F09FFDB4F9ACB611F0FEFA19
:101E000003689B689847074611F0AAFB03689B6824
:101E10009847B4F982360693079011F0A1FB016848
:101E2000C9688847059011F09BFB069B079A0599A6
:101E300005F5B65909F11C0907EB87075A44023B1F
:101E40003A445B1ACDE900A03249484610F073FDD0
:101E5000B4F9BC15059111F0BDFB03689B68984768
:101E6000B4F97EB6824611F0B5FB05F5B857059971
:101E700001901437FF230BF1040B0B2202FB1A1203
:101E80003846244900935B4610F055FD40F2E93195
:101E9000404611F0BDF940F2EA31484611F0B8F978
:101EA00040F2EB31384611F0B3F92846FFF784FCD5
:101EB0002846FFF7D7FD05F16407D5F8A830B342EF
:101EC00017D8A86E03680026DB68C5F8AC60984791
:101ED00005F5F7531C33019343230093D4F8E80E20
:101EE0000D4A2B46294604F08FFD304609B0BDE867
:101EF000F08F57F8040FB4F97E260368283A9B68E0
:101F0000282198470136D8E7404040008080800073
:101F10000C520208925B02087F120008F8B500F527
:101F200080550446D5F8EC0E90F88C1302F03EFF75
:101F3000014604F5B5500022043010F049FED5F8F2
:101F4000EC0E90F8DD1302F039FF014604F5B650AF
:101F500000221C3010F03CFED5F8EC1E91F8D52381
:101F600013466FF3861304F5B85081F8D533C2F3E6
:101F70008012143001F2DE3110F02AFED5F8EC3E6A
:101F800095F8E82593F8CF3304F5AD501430002AC6
:101F900036D0002B0CBFFF214FF47F4112F0ADFD76
:101FA000D5F8EC3E93F8FB23002683F8FB63BAB127
:101FB000D4F8AC301A3304F1640754F823000368F2
:101FC0001B6998472046FFF74DFDD4F8A830B3426F
:101FD0001CD8A06E0023C4F8AC300368DB689847B7
:101FE000D4F8AC301A33142154F8230003685B6929
:101FF0009847D5F8E40E0EF0CAFC4FF00000F8BD8B
:10200000002B0CBF6FF07F41FF21C7E757F8040F8B
:10201000B5F97E260368283A9B682821984701363F
:10202000D3E7000010B5034B0360044611F014F928
:10203000204610BDA08C020810B50446FFF7F2FF41
:10204000204638211EF00FF8204610BD38B5094B48
:10205000094D0360044640F87C5F11F0FDF820460E
:1020600040F8385F11F0F8F8204611F0F5F82046F6
:1020700038BD00BFD4F50208FC8A020810B504463A
:10208000FFF7E4FF2046C0211DF0EDFF204610BD04
:102090000A4B10B5044640F8B83BFFF7C3FF04F104
:1020A0008000FFF7BFFF2046054B40F8503F11F07E
:1020B000D3F8204611F0D0F8204610BDD0520208C7
:1020C000508B020838B5044600F5A460FFF7BEFF48
:1020D00004F58C60FFF7BAFF4FF459756359601926
:1020E0001B68C03D9847B5F5927FF7D104F1C40055
:1020F000FFF7CEFF04F18C00FFF794FF2046094B59
:1021000040F86C3F11F0A8F82046074B40F83C3FE0
:1021100011F0A2F82046054B40F8143F11F09CF84E
:10212000204638BDA48B0208508B0208F48C0208AC
:1021300010B50446FFF7ACFF20464FF490711DF038
:1021400092FF204610BD000070B5244B036000F5DF
:1021500080550446224BC5F8C83400F5A650083017
:1021600011F07AF81F4BC5F8983404F5A4501830D4
:1021700011F072F804F59E501830FFF767FF04F570
:1021800098501830FFF762FF174BC5F8F43204F58A
:102190009750143011F060F841F2342540F2346663
:1021A000635960191B68C03D9847B542F8D140F2A9
:1021B000BC65635960191B68383D9847B5F54F7F7A
:1021C000F7D14FF45075635960191B689847343D37
:1021D000F9D1204611F040F8204670BD2C64020869
:1021E000A48B0208508B0208F88B02081C4B10B518
:1021F0000446036000F5C6500C30FFF763FF04F59A
:10220000C0500C30FFF722FF04F5BA500C30FFF736
:102210001DFF04F5B8501430FFF704FF04F5B65065
:102220001C30FFF7FFFE04F5B5500430FFF7FAFE4F
:1022300004F580530B4AC3F8742604F5B3501430E8
:1022400011F00AF804F5AD501430FFF7FFFE04F169
:10225000B000FFF779FF2046FFF758F8204610BD81
:102260007C520208508B020808B50248FFF7BEFFF7
:1022700008BD00BFCC04002010B50446FFF7B6FF30
:10228000204641F614711DF0EEFE204610BD10B53B
:102290000446FFF759FF204641F204511DF0E3FECA
:1022A000204610BD08B558B109B9002008BD026923
:1022B000D0F81031C43001FB023100F004FCF4E727
:1022C0000120F3E708B51BF0CBFFBDE808401BF089
:1022D00099BEC0E900128360704701694B1E10B5BA
:1022E00059420446594100F5F27012F0BBFC2169D5
:1022F000A1F10A025142514104F5297012F0B2FCD9
:102300002169A1F164004142414104F55970BDE8E1
:10231000104012F0A7BC32B9012070474843013386
:102320009342FBD1704708460123F9E737B50446CD
:102330000D466C3010F06CFF691C04F1140010F0B5
:1023400067FFA91C04F58C6010F062FFE91C04F51E
:10235000A46010F05DFF04F0D9FA0546FFF7B2FF64
:1023600004F2E45301460D4A00932846234604F044
:102370007AFB04F0CBFA0546FFF7A4FF04F2FC5306
:1023800001930323014600932846054A234604F09F
:102390003BFB4FF0000003B030BD00BFA52200089A
:1023A0002B2700082DE9F04F89B0C94D05921E4634
:1023B0002B68DFF830B3BFF35B8F13F0010F0446D7
:1023C0000F460CD128461DF050FE40B1D4F8E03540
:1023D0002846D3F8A030CBF800301DF052FE11F0A3
:1023E0000DF86FF07F4304F18C05009300231A462B
:1023F00039460190284610F09EFA28469DF8541060
:1024000010F0ADFBB4F99C30DBF80010C91A0822BB
:1024100000234908284604F1140A10F037FF5146FA
:10242000284610F079FF0121284610F0F1FEDBF874
:102430000030B4F99A70A3F1100811F091F8036814
:10244000DB689847149B029304F1C40508370D23F9
:1024500000EB80003A46019300904346284608214D
:1024600000F07AFA4FF47F420421284600F01EFB68
:1024700011F076F802220146284600F02EFCDDE934
:102480001212284600F05EFB3146284600F01BFB86
:1024900011F066F80027034605222846059900F04A
:1024A00032FC5146284684F8D97010F035FF284692
:1024B000012110F0ADFE04F58463049304F58668F1
:1024C00004F5F275B4F9D4900323A9F10809B9FB16
:1024D000F3F902F0D5FB149A06460A212046FFF7CD
:1024E0001AFF049A009052F8043F049241461022C9
:1024F000304602F0C7FD4046FDF77CFE059B754A5D
:10250000C0F11001404420F081F9B4F9CC2009F168
:10251000040307FB0322B4F9D23007920833069371
:1025200011F01EF80168C9688847012600EB800099
:10253000DDE906324146CDE900900296284612F0C8
:1025400043FAFFF7BFFE644A23460146284612F0CD
:1025500094FB2846002112F085FB2846032112F047
:1025600014FB5146284610F0D7FE2B6828469B687E
:10257000314637449847032F08F1100805F1C0058C
:10258000A0D1149A022A28BF02220A212046FFF76E
:10259000C2FE2061C02000FB02400025314600F54C
:1025A000F27012F05FFB02960195B4F9F231083334
:1025B00004F13C070093DBF800302A4629463846F0
:1025C0000FF08AFF384604210FF0DAFF38464FF645
:1025D000FF710FF0E5FF294638460FF0F4FF514632
:1025E000384610F099FE2946384610F011FED4F80E
:1025F000E025B4F94E30D2F8A4200093D21A02EBB1
:10260000D272DBF8003032412946504610F02CFDE2
:10261000D4F8E035D3F8A420009229462A4604F1E4
:102620006C00D3F8A0300FF0DEFFD4F8E03584F86A
:102630008160D3F8A4A010F093FF0368DB6898478B
:10264000D4F8E035D3F8A02002EBD27242FA06F7B4
:10265000814610F085FF0368DB68984704F58C68B5
:10266000043F09EB490900EB4000CDE90070AAEBFB
:1026700009032A4619490296404612F0A5F9FFF7C8
:1026800021FE23460146144A404612F0F6FAD4F8D9
:10269000E035B4F97024D3F8A0100296B4F972347E
:1026A000CDE9002304F5A467B4F96A348A1A3846E0
:1026B0000B4912F089F9FFF705FE074A0146234648
:1026C000384612F0DAFA284609B0BDE8F08F00BFAC
:1026D000E0230020A05202082B270008A452020881
:1026E000A7520208E423002010B5044604F00EF9B6
:1026F00004F2E45104F0CFF904F008F904F2FC51BB
:1027000004F09DF904F1140010F099FD04F16C003F
:1027100010F095FD04F58C6010F091FD04F5A460B7
:1027200010F08DFD4FF0000010BD2DE9F041044682
:10273000002867D000F58C678F4216D1FFF7D4FFD1
:10274000206858B10368D4E901125D682346A847A0
:102750002046FFF7C2FD0020BDE8F0816368002B32
:10276000F6D0A06821469847F2E700F5A4658D42AF
:1027700002D1FFF7B9FFEBE700F5F273994202D1FE
:1027800001232361E4E700F52973994201D10A236B
:10279000F7E700F55973994201D16423F1E791F805
:1027A00000804E78B8F1000F17D13C3046B14FF49D
:1027B0007F410FF0F5FE0121384612F053FAC7E7CA
:1027C0004FF47F010FF0ECFE3146384612F04AFA22
:1027D00039462046FFF7A9FFBAE7B8F1010FB7D194
:1027E0003C302EB1FF210FF0DBFE41462846E4E7E6
:1027F0004FF47F010FF0D4FE3146284612F032FA32
:102800002946E6E70120A7E7B0F908007047B0F9CC
:102810000A007047B0F90C007047B0F90E0070471D
:10282000B0F910007047B0F912007047407D704752
:10283000417570472DE9F341089E04461D46B0F9E5
:102840000A30B0F90800301A0090EB1A04F1500079
:1028500090460F460FF0ADFBB4F90820B4F90A30EA
:10286000B21A0092EB1A4246394604F1B8000FF052
:10287000F4FF94F818317BB1B4F90820B4F90A30A8
:10288000B61AEB1A4246394604F18000089602B0A7
:10289000BDE8F0410FF0E1BF02B0BDE8F0812DE9E5
:1028A000F341089E04461D46B0F90830B0F90A000D
:1028B000301A0090EB1A04F1500090460F460FF0CA
:1028C000CDFBB4F90A20B4F90830B21A0092EB1A21
:1028D0004246394604F1B8000FF05FFF94F8183112
:1028E0007BB1B4F90A20B4F90830B61AEB1A4246A3
:1028F000394604F18000089602B0BDE8F0410FF0BF
:102900004CBF02B0BDE8F08170B5044605291AD865
:10291000DFE801F0030F191903170B4904F1500008
:102920000FF051FE236820469B6CBDE870400021EB
:102930001847006A28B10368D4E909125D68234684
:10294000A8470021EAE770BD8080800010B10368CD
:102950009B681847704700002DE9FF470C9E0181D6
:102960001F464FF0FF33C364FB181944731E0E9DBE
:1029700042811A440D9B81815B1BC281C0E90E35E7
:10298000044607824682012200210A208D4256DC3D
:10299000226404F58470002D54D02D4A0095102136
:1029A0001FF034FF002501232A462946CDE90153B3
:1029B00000963B4604F150000FF08EFD10F0D0FD64
:1029C00004F1B8086FF07F4704F1F00101902B4645
:1029D0002A46404600970FF0AEFFD4E90E3203EBD3
:1029E0000209D4F8E800B4F910A009F10109AA42DB
:1029F00018BF09F10109FFF7A9FFB4F9CA305FFA5E
:102A000089F9F61A00FB19A106EBD6762B4672104F
:102A10004908404610F03AFC10F0A2FD2B46CDE9E3
:102A200000700C4904F180002A460FF084FF2368EF
:102A30009B6C2946204604B0BDE8F0471847424346
:102A40000131A3E7044A10211FF0E0FEAAE700BF0E
:102A5000AE520208925B0208BF520208C36F99424D
:102A600010B5044609D050300FF08AFD2368204687
:102A70009B6CBDE810400021184710BD10B5036FD6
:102A8000C0E90C12044690F82C00002818BF11462B
:102A900099420AD004F150000FF082FD23682046CD
:102AA0009B6CBDE810400021184710BD38B5154695
:102AB0000446FFF7D3FF294620464FF47F42BDE886
:102AC0003840FFF7DBBF436C99420A46B8BF1A464D
:102AD000836C9A42A8BF1A46C36C934273B50446EE
:102AE0002ED0C264E56BB83004F1F00104F58473B4
:102AF0005DB90092182210F098F8236820469B6C6C
:102B000000219847012002B070BD266C92FBF6F5BB
:102B100006FB1522002AB8BF5242CDE90052182206
:102B200010F083F8E36C002BE7DA226C93FBF2F3EE
:102B3000002BE2D1A36B23442D2283F8EE20DCE7A7
:102B40000020E0E7C0E91112C16CFFF7BCBF90F8AC
:102B50001831022B2DE9F041044600F08580D0E9C0
:102B60000E72013B1744B0F91050002A18BF01370C
:102B700000F1B806042B00F29D80DFE803F02F9BE4
:102B800003527C00D0F8E800FFF7E0FEB4F9CA3049
:102B9000B4F91220D21AB4F99030A91EC91A94F8C7
:102BA000E4307B4300FB131102EBD272304600236A
:102BB0005210490810F06AFBB4F9C450D4F8B000C0
:102BC000B4F9C67004F18006023510B10368DB6801
:102BD000984700233A1A2946304643E0B0F9CA30F4
:102BE000B0F91220B0F99010D21AB0F99230D21A7E
:102BF000691A02EBD272002352104908803010F09B
:102C000045FBD4F8E800B4F91050FFF79FFE94F8A4
:102C1000E430B4F98E207B4300FB135100234908B4
:102C2000DAE7D0F8E800FFF791FEB4F9CA30B4F95A
:102C3000122094F8E410D21A794300FB115102EBF0
:102C4000D272002352104908304610F01FFBB4F92D
:102C50009030B4F91010B4F9C620C91A49080023FD
:102C600004F1800010F012FB236820469B6CBDE845
:102C7000F04100211847D0F8E800FFF767FEB4F9EB
:102C8000CA30B4F9122094F8E410D21A794300FB48
:102C9000115102EBD272002352104908304610F055
:102CA000F5FAB4F9C400B4F99010B4F9C6200023C1
:102CB000411AD5E7D0F8E800FFF748FEB4F9CA306A
:102CC000B4F91220D21A94F8E43002EBD2727B43AA
:102CD00000FB135152100023A1E770B500F1B806B4
:102CE0000446154630460FF0FFFEE9B230460FF0BD
:102CF00036FF2046FFF72BFF236820469B6CBDE87C
:102D000070400021184770B500F1800604460D465A
:102D100080F81821194630460FF0E6FE2946304665
:102D200000220FF055FF2046FFF711FF23682046D1
:102D30009B6CBDE870400021184790F82C308B4206
:102D400010B5044611D0D0E90C2380F82C100029CE
:102D50000CBF1146194650300FF022FC2368204664
:102D60009B6CBDE810400021184710BDC0E9081257
:102D70008362704710B5C8B109B9002010BD03794E
:102D8000022B0DD84FF490725343C2188468D2F8C6
:102D90000421B83301FB04211844FFF794FEECE74B
:102DA000D0F85C3B00F531601944F6E70120E5E717
:102DB00070B5044603F0AAFD04F6F86103F06BFE5B
:102DC00004F1B80510262B682846DB689847D5F82B
:102DD000603305F55870DB689847D5F8C03605F5BF
:102DE000D860DB689847A359A019DB683836984744
:102DF000B82E05F59075E6D14FF443656359601917
:102E0000DB68C0359847B5F5676FF7D104F53160D9
:102E100010F015FA04F6D82010F011FA04F56B60E2
:102E200010F00DFAD4F8E80E0368DB689847D4F880
:102E3000EC0E0368DB6898474FF0000070BD00009F
:102E400073B5044600F1B80510262B6864219B6811
:102E500028469847D5F8603364219B6805F558707B
:102E60009847D5F8C03664219B6805F5D860984727
:102E7000A359A0199B68642138369847B82E05F5E8
:102E80009075E2D14FF44365635960199B686521E1
:102E9000C0359847B5F5676FF6D1642104F5316008
:102EA00010F0B6F9642104F6D82010F0B1F96521CC
:102EB00004F56B6010F0ACF9D4F8E80E03686621F5
:102EC0009B689847D4F8EC0E036866219B68984786
:102ED00003F01CFD0546FFF7F5F904F6F86301461B
:102EE00000932846034A234603F0BDFD4FF000003F
:102EF00002B070BD752D00082DE9F04F8DB08346EE
:102F00000D4610F02DFB0368DB68984700EB80034B
:102F10000593043B5B080893059B083309932B1D1D
:102F20005C4606935F464FF0000ADBF8F42EDBF8B0
:102F3000F03E92F8FC23D3F8A010A94E002A14BF4B
:102F400004220322A1F108030292072204F1B8052A
:102F5000019203EBD373059A00925B10069A062048
:102F600091FBF0F12846FFF7F7FCFF2204212846E9
:102F7000FFF79CFD10F0F4FA022201462846FFF705
:102F8000ACFE5FFA8AF31946DBF8F40E079301F002
:102F900046FF01462846FFF796FDDBF8F43E914ACE
:102FA00093F8FC33002B08BF164610F0D9FA3146CF
:102FB000034605222846FFF7A6FEFFF783F9002304
:102FC0001A4601462846FFF7D1FED4F8B830012151
:102FD00028465B6C9847D4F8B83028461B6B984756
:102FE000D4F8B83000F10408DB6A28469847DBF8CB
:102FF000F03ED3F8A020D4F8B8300A9281461B6B7B
:10300000284698470A9A131ADBF8F42E92F8FC2304
:103010000721002A14BF0422032204F583660191CC
:1030200008990292083B4A46304600914146FFF714
:1030300093FC6D4A02213046FFF738FD10F090FAFC
:10304000012201463046FFF748FE00213046FFF7D7
:103050003AFDDBF8F43E634A93F8FC336049002BF9
:1030600008BF1146884610F03FFA41460322034646
:103070003046FFF748FED4F8183430469B6A98472C
:10308000D4F8B8300B905B6B28469847D4F81834C6
:103090008146DB6B30469847D4F81834A9EB000919
:1030A0009B6B30469847D4F818240A90D26B304670
:1030B0009047DBF8F42E0B9992F8FC23484E002A37
:1030C00014BF0422032204F5EF680723CDE90003AF
:1030D00002920A9B4A464046FFF73EFC424A0221C2
:1030E0004046FFF7E3FC10F03BFA01220146404660
:1030F000FFF7F3FD00214046FFF7E5FCDBF8F43E67
:10310000384A93F8FC33002B08BF164610F0ECF950
:103110000322034631464046FFF7F5FD0799DBF8E9
:10312000F40E01F03BFE804610F068F96FF07F432B
:1031300007F11006009300231A46414601903046DD
:103140000FF0F9FB022130460FF009FD3B699B6946
:103150000793D4F8B83028469B6A98473B69814664
:103160009B6B3046984700EBD07009EBD9734FEA60
:103170006009C9EB6309D4F8B8302846DB6A984780
:10318000D4F8B8308046DB6B284698473B6900EBA3
:10319000D07008EB6005DB6B3046984700EBD070D1
:1031A000A5EB60020023079D49463046A847069BD1
:1031B000099A0AF1010A1344BAF1030F04F5907455
:1031C00007F1380706937FF4B0AE0BF53E730BF5AD
:1031D00067690BF68B680BF543650027079305E0DD
:1031E0001C5302088E5A020880808000DBF8F43EEF
:1031F000079893F8FC33002B14BF41464946DBF88F
:10320000F03E0891D3F8A04094FBFAF47C43231DD0
:103210000693DBF8F8325B6B9847DBF8F02E044638
:10322000D2F8A06096FBFAF610F09AF90268D2681C
:103230009047083E012300EB8000069A089902930C
:10324000CDE9006004F10803284611F0BDFBFFF74B
:1032500039F8002301461A46284611F00EFD0137C1
:103260002846032111F091FC032F09F1090908F107
:103270000C0805F1C005B9D1DBF8F03EBBF93E2CD6
:10328000D3F8A01005980090A1F108030BF5316563
:103290000024042603EBD37301EBD1715B10CDE95D
:1032A0000164284608324910FFF756FB3146FF22D9
:1032B0002846FFF7FBFB10F053F90222014628468F
:1032C000FFF70BFD42F2107228460121FFF73AFC8E
:1032D0004FF496712846FFF7F6FBDBF8F43E344EC8
:1032E00093F8FC23334BA24208BF1E4610F038F976
:1032F0003146034605222846FFF705FDFEF7E2FFAB
:1033000001270146234622462846FFF72FFD8BF86A
:10331000257B10F073F80BF6D8256FF07F46234617
:10332000224601902449009628460FF004FB2846C7
:1033300002210FF014FCBBF9223BBBF91A0BBBF9BD
:10334000201B03EBD37300EB6300BBF9EA3A03EBFA
:10335000D372DBF8F03ED3F8A03003EBD373C1EBAC
:10336000630101EBD171A0EB62022346394128468B
:103370000FF08CFF0A23CBF8083039460BF54F606D
:1033800011F070FCBBF9C050BBF9C27010F0E8F846
:1033900008350837CDE9006008490BF56B603B46FE
:1033A0002A460FF0C8FA20460DB0BDE8F08F00BFE6
:1033B000285302082153020833530208925B020883
:1033C00038B50446FDF7BEFF1F4B236000254FF4C0
:1033D0007F420123C4E90D234FF00041C4E90F539C
:1033E0006FF00043C4E911134FF0FF33E364C4E905
:1033F0000855A56284F82C50256304F15000FDF7B0
:10340000A1FF124B2365C4E91C5584F87850E56789
:1034100004F18000FDF7B4FF04F1B800FDF7B0FF40
:103420002946182204F1F0001FF0BAFA10222946AA
:1034300004F584701FF0B4FA84F818510DF0C2F945
:10344000C4F81C01204638BDD0520208508B020837
:10345000017902292DE9F04198BF0021044688BF77
:10346000012100F53160FFF768FC04F1B806002582
:103470004FF6FF77E9B2D4F8F40ED6F84C8001F09D
:10348000CEFC4FF47F42404514BF3946FF21304601
:10349000FFF7F4FA2179A1EB050CDCF1000141EB17
:1034A0000C0130460135FFF748FC032D06F59076F8
:1034B000E0D1A1684B1E5942594104F5436011F017
:1034C000D1FBA168A1F10A025142514104F54F60BC
:1034D00011F0C8FBA168A1F164004142414104F52B
:1034E0005B60BDE8F04111F0BDBB00002DE9F0418B
:1034F000D0F8F43E93F8FD23022A044600F56B60F1
:1035000048D193F8D0532F492F4B0022954218BF32
:1035100019460FF05DFB01F0B3FB237B90F88C6341
:10352000B34202D0032B38D02673FEF729F927497E
:10353000FEF7BAF9FEF724F92549FEF7DFF900276F
:103540002646B846F9B2D4F8F40E01F068FC0146FC
:1035500006F58360FFF7B7FAD6F80411D6F864349D
:103560000546C91A06F5EF60FFF7ADFA01370543C6
:1035700048EA0505032F5FFA85F806F59076E1D154
:10358000B8F1000F02D02046FFF762FF4FF00000B5
:10359000BDE8F0810F490022BBE7012EC4D104F140
:1035A000B8070025E9B2D4F8F40E01F038FC013573
:1035B00001463846FFF787FA032D07F59077F1D1DA
:1035C000B2E700BF39530208B9710208405302083C
:1035D00044530208925B020800F54363994273B5B5
:1035E000044608D10123A36000252046FFF730FFE1
:1035F000284602B070BD00F54F63994201D10A23FD
:10360000F1E700F55B63994201D16423EBE7D0F861
:10361000E83E8B4214D1D0F8F40E90F88C33012B95
:1036200046D10193D4F85C3B642253430093D4F811
:103630004433D4F82422D4F8041102F0DDFAD3E79D
:10364000D0F8EC3E8B421AD1D0F8F43E93F88C338C
:10365000012B2DD100F1B806002596F82C3043B18E
:10366000E9B2D4F8F40E01F0DAFB01463046FFF778
:103670002AFA0135032D06F59076EED1B4E700F570
:10368000316399420DD000F1B80399420CD000F596
:10369000EC7399420AD000F53E739942A4D10223FB
:1036A00000E0032323719FE70023FBE70123F9E7F1
:1036B00008259AE72DE9F84F694B0360032303714E
:1036C00000260A230546836006731030FDF758FE76
:1036D00005F14800FDF754FE05F18000FDF750FEAE
:1036E00005F1B800FFF76CFE05F5EC70FFF768FE1A
:1036F00005F53E70FFF764FE05F58360FFF760FE99
:1037000005F5A760FFF75CFE05F5CB60FFF758FEF7
:1037100005F5EF60FFF754FE05F69800FFF750FE41
:1037200005F6B810FFF74CFE05F6D820FDF728FE89
:1037300005F53160FFF744FEDFF830B1DFF8309176
:1037400005F5436405F5676A2046FDF7FBFD6FF05C
:103750007F4323630127C4F800B084F8346084F801
:103760003560C4E90866C4E90A6604F138004FF020
:10377000FF38FDF7E7FDC4F83890266684F86470DA
:10378000A66684F86C6084F86D6084F86E6084F8D6
:103790006F70C4F87080A4F87860C4E9166604F10C
:1037A0007C00FDF7CFFDC4F87C90C4F8A46084F8D9
:1037B000A870C4F8AC6084F8B06084F8B16084F894
:1037C000B26084F8B370C4F8B480A4F8BC60C4E9F3
:1037D0002766C0345445B7D1224B03F11806186848
:1037E0005968224603C20833B3421446F7D11A88F7
:1037F0009B78A3701C4B228003F1240105F68B6299
:1038000053F8040B42F8040B8B42F9D105F56B60B9
:10381000FDF7B6FDFDF7B4FF00F5BA500C30C5F862
:10382000E80EFDF7ADFF00F5C0500C30C5F8EC0E0A
:103830000CF0C8FFC5F8F00E01F022FA002385F85D
:10384000043FC5F8F40EC5F8F83EC5F8FC3EC5F8CF
:10385000003FC5F8083FC5F80C3F2846BDE8F88F83
:1038600054530208444D02085F4D0208D4F5020883
:10387000FC8A020810B50A4C2368BFF35B8FDB0794
:103880000CD420461CF0F1FB40B10648FFF712FFB4
:1038900005481DF0E9FF20461CF0F3FB014810BD70
:1038A000E8230020EC2300204539000870B5234BA5
:1038B000234E0360C0F8B06E044600F56B600FF055
:1038C000CBFC4FF45B65635960191B68C03D98479A
:1038D000B5F5376FF7D104F53160FEF7D9FBC4F8C1
:1038E000D86A04F6D8200FF0B7FC40F6B815635933
:1038F00060191B68A5F590759847B5F5CB6FF6D1A3
:10390000635960191B68A5F590759847B5F53E7F1A
:10391000F6D1635960191B68A5F59075984715F1A4
:10392000680FF6D18025635960191B68383D9847A8
:1039300015F1280FF7D1204670BD00BF545302087F
:10394000A08C020808B50248FFF7B0FF08BD00BF11
:10395000EC23002010B50446FFF7A8FF20464FF4E3
:1039600071611CF080FB204610BD70B190F84C30A6
:10397000022B06D800EB8300C36B0B44C36300200B
:103980007047836C0B448364F9E7012070472DE98D
:10399000F041044602F0BAFF04F6046103F07BF83C
:1039A000201D0FF04CFCD4F8F40DFEF79DFE04F141
:1039B000540704F25C46FC2540F25C4863596019E8
:1039C000DB6898473B683846DB6898473368304681
:1039D000DB6805F590759847454507F1380706F10E
:1039E000C006EBD140F2947540F6942663596019F5
:1039F000DB68C0359847B542F8D104F29C600FF0FF
:103A00001EFC04F25C700FF01AFC04F614300FF088
:103A100016FC04F634400FF012FC04F66C400FF074
:103A20000EFC04F62C500FF00AFCD4F8EC0D0368E1
:103A3000DB689847D4F8F00D0368DB6898474FF0CF
:103A40000000BDE8F08100002DE9F74F0446FDF7C6
:103A500097FEFDF715FFFDF793FEFDF735FFD4F850
:103A6000FC3D93F8FD23022A0BD193F8D0036F4954
:103A70006F4B0022904218BF194604F25C700FF0A1
:103A8000A7F804F1FC060025E9B2D4F8FC0D01F01A
:103A9000C6F9013501463046FFF715F8032D06F546
:103AA0009076F1D1E56B002D40F09680256C002DCD
:103AB00040F09480656C2DB30226236D5D4302F0C7
:103AC00025FFD0F88C30226D142B38BF14235343BC
:103AD0003C2253430A22B3FBF2F336B9D4F8FC2D4F
:103AE00092F8FD23022A08BF6D42002700972A465C
:103AF0003146D4F8FC0D01F0C7FF0E3604EB860604
:103B0000C5B27760D4F8FC3D93F8F13304F66C4607
:103B1000002B65D04749304610F0ACFFD4F8FC3D8F
:103B200093F8F03304F62C57002B5BD0424938460B
:103B300010F0A0FFD4F8FC3DD3EDFA7AFCEEE77A62
:103B400004F6143017EE903A99B2FEF7BCFFA36C5E
:103B5000ABB1D4F8602B0A2101FB032104F6143029
:103B6000FEF7B1FFD4F8FC0D0023A36490F8F03306
:103B70002BB190F8F123D4F8601B02F04BFBD4F882
:103B8000FC3D93F8CF3304F29C6B04F25C4A04F2E0
:103B90001C5904F2DC5853B3D4F8FC3D93F88C3331
:103BA00003F0FD03012B27D1584611F023F85046AE
:103BB00011F020F8484611F01DF8404611F01AF8AF
:103BC000384611F017F8D4F8FC3D93F8F03333BBC6
:103BD000304611F00FF825E000266EE701266CE76D
:103BE000164998E71649384610F044FFAFE706F04B
:103BF00061F80379032BCFD0D4F8F40DFEF774FDF0
:103C0000584611F013F8504611F010F8484611F0DC
:103C10000DF8404611F00AF8384611F007F8304622
:103C200011F004F8284603B0BDE8F08F39530208BC
:103C3000B9710208705302087453020871530208E4
:103C4000795302082DE9F3410446012104300FF0B5
:103C5000DFFA04F1540704F25C46FC2540F25C48AC
:103C6000635964219B68601998473B6864219B688D
:103C700038469847336830469B68642105F590754F
:103C80009847454507F1380706F1C006E8D140F2EC
:103C9000947540F69426635960199B686421C03579
:103CA0009847B542F7D1032384F84C30002104F142
:103CB000FC00FFF742F8002104F50770FFF73DF81C
:103CC000002104F54F70FFF738F8D4F8FC3D93F865
:103CD000FD33022B09D1652104F25C700FF098FAD4
:103CE000632104F29C600FF093FA642104F614300F
:103CF0000FF08EFA652104F634400FF089FA642142
:103D000004F66C400FF084FA642104F62C500FF096
:103D10007FFAD4F8EC0D036866219B689847D4F8C5
:103D2000F00D036866219B68984702F0EFFD054699
:103D3000FEF7C8FA04F60463014600932846044AD5
:103D4000234602F090FE4FF0000002B0BDE8F08183
:103D50006B3900082DE9F04F8DB0044608910A92A6
:103D60000FF0FEFB0368DB68984700EB80030593C8
:103D700004F25C430693059B08330993089B0433C4
:103D800026460793A0464FF0000AD4F8FC2DD4F83D
:103D9000F83D92F8FC23D3F8A000002A14BF0422B7
:103DA00003220292072206F1FC05A0F1080301920A
:103DB000059A00920621079A9B0093FBF1F390FB72
:103DC000F1F12846FEF7C8FDFF2204212846FEF740
:103DD0006DFE0FF0C5FB022201462846FEF77DFF6F
:103DE00000212846FEF76FFED4F8FC3DD94993F830
:103DF000FC23D94B002A08BF194689460FF0B0FBB7
:103E00004946034603222846FEF77DFFFEF75AFA8D
:103E100000231A4601462846FEF7A8FFD6F8FC30D4
:103E200028465B6C012198475FFA8AF1D4F8FC0DB3
:103E300000F0B4FF83460FF0E1FA6FF07F4308F122
:103E40005409009300231A465946019048460EF043
:103E500072FD022148460EF082FED8F854309B696C
:103E60001F46D6F8FC3028469B6A9847D8F854205D
:103E70008346926B4846904700EBD0700BEBDB73A8
:103E80004110C1EB6301D6F8FC300B91DB6A284688
:103E90009847D6F8FC208346D26B28469047D8F83E
:103EA000543000EBD0700BEB600BDB6B484698474F
:103EB00000EBD070ABEB60020B9900234846B8478B
:103EC000D6F8FC3028461B6B9847D6F8FC30834662
:103ED000DB6A28469847D4F8F83DD3F8A020D6F8F6
:103EE000FC300B921B6B074628469847D6F8FC100F
:103EF0008146C96B284688470B9A9849A2EB090965
:103F00000125A9F108030BF10402CDE90105009395
:103F100006983B4610F058FDFEF7D4F900231A46E8
:103F20000146069810F0A9FE069B099AC033069335
:103F3000079BAA441344BAF1030F06F5907608F1E3
:103F4000380807937FF421AF04F6942904F294769D
:103F50004FF0000804F54F7AD4F8F83DD3F8A010DC
:103F6000D4F8FC3D93F8FC3314398908002B40F059
:103F70002C81CB46D4F83C3306915B6B5046984776
:103F80000699059B02950A1D08FB02F2CDE9001374
:103F9000043200F108035946304610F015FDFEF7D3
:103FA00091F9002301461A46304610F066FE08F1EA
:103FB00001083046032110F0E8FDB8F1040F09F1C3
:103FC0000C0906F1C006C7D1012104F6141010F047
:103FD00049FED4F8FC3D93F8FC33002B40F0F88008
:103FE000D4F8FC3A236501260296B4F90E31019308
:103FF000B4F904315A49083B04F29C650093B4F9C2
:1040000006310422284610F0DFFCFEF75BF900239E
:1040100001461A46284610F030FEB4F90451B4F9AE
:1040200006910FF09DFA6FF07F48083509F10809F5
:1040300001904B462A4604F25C704949CDF8008055
:104040000EF079FCD4F8F83D0A99089AD3F8A0301C
:1040500000250A440521CDE9011503EBD373059929
:10406000009104F614393341043A063B521A48468B
:104070000421FEF771FCFF2204214846FEF716FDDD
:104080000FF06EFA022201464846FEF726FED4F8EB
:10409000FC3D4846B3F80014FEF715FDD4F8FC3D8E
:1040A0004846B3F8FE23B3F80014FEF74BFD0FF0BB
:1040B00057FA2C49034603224846FEF724FEFEF732
:1040C00001F92B462A4601464846FEF74FFE314687
:1040D00084F8296B4846FEF730FE0FF041FA04F6EB
:1040E0003449CDE900802B462A4648461E490EF049
:1040F00022FCB4F91E2BB4F91C1B2B4608320831E4
:1041000048460FF0C3F8059BB4F9202B02960193A3
:10411000B4F9243B1549043B03EBD373334104F654
:104120006C490093B4F91E3B0532484610F04CFC34
:10413000FEF7C8F82B4601462A46484610F09DFD7A
:10414000059BB4F9782C02960193B4F97C3C00935A
:104150000EE000BF1C5302088E5A02087F5302086B
:10416000925B0208835302088753020871530208C6
:1041700004F62C59B4F9763C17490532484610F03C
:1041800023FCFEF79FF82A4601462B46484610F0CE
:1041900074FDB4F9A297B4F91E6B0FF0E1F903684E
:1041A000DB68984707460FF0DBF9A6EB0906042207
:1041B000F61BCDE900800949A01809EB56030EF063
:1041C000BAFB28460DB0BDE8F08F09F1300BD1E6FF
:1041D000D4F80C3B06E700BF79530208B453020839
:1041E00010B50021044600F2947010F03BFD04F677
:1041F0005400002110F036FD04F61410002110F0D8
:1042000031FD04F6D4100021BDE8104010F02ABDA5
:104210002DE9F04FD0F8EC3D8B4285B004460D46B9
:1042200000F0F380D0F8F03D8B4200F0EE8000F219
:104230009C6399420DD1D0F8FC0D90F8D0332BB18E
:1042400001F00EFC002005B0BDE8F08F01F012FC7B
:10425000F8E7D0F8F43D8B4207D1D3F81021197B51
:10426000D0F8FC0D01F00CFEECE700F62C5399425F
:104270000ED1D0F8FC0D90F8F03313B102F01AF81B
:10428000E0E790F8F123D4F8601B01F0C3FFD9E711
:1042900000F66C43994211D000F29476B14216D0E8
:1042A00000F65406B14225D000F61416B14223D0D0
:1042B00000F6D416B14224D1032509E0D0F8FC0D54
:1042C00090F8F11381F0010101F0D2FFBAE7002567
:1042D0002046FFF785FF0121304610F0C3FCD4F8DB
:1042E000FC3D93F8FC3304EB85053BB9D5F8F43A73
:1042F0002365A7E70125EBE70225E9E7D5F8043BAD
:10430000F6E700F1FC0700F25C490026BA46AF422E
:1043100073D197F82C805FFA86FBB8F1000F38D084
:104320005946D4F8FC0DD4F8F48D00F037FDD4F8DC
:10433000FC3D93F8FC33002B14BF042203220146FA
:104340004FF00200FB6CCDE90220314A3148CDE943
:1043500000203148314A08BF02464046FEF722F8A5
:10436000D4F8F48DFDF7AEFF002301461A4640460F
:10437000FDF7AFFFD4F8F40D42F21071C660FDF7FF
:10438000D5FF0136032E07F5907709F1C009BED19C
:1043900018E041465046FEF7D0FC414604F5077050
:1043A000FEF7CBFC414604F54F70FEF7C6FC4146D4
:1043B00004F61430FEF7C1FC01212846FEF7BDFCCF
:1043C00084F84CB004F61433AB427FF43BAF28467C
:1043D0000121FEF7B2FC032384F84C305046002143
:1043E000FEF7ABFC04F507700021FEF7A6FC0021E8
:1043F00004F54F70FEF7A1FC24E74D45C1D1D4F878
:10440000FC0DF1B201F010FDBBE708201BE700BF77
:10441000806967FF809698008E5A02081C53020834
:10442000F8B5554B044640F8043BFCF7A9FF0023C0
:10443000C4E90F33C4E91133032384F84C3001235A
:10444000236504F15400FCF79BFF04F18C00FCF79A
:1044500097FF04F1C400FCF793FF04F1FC00FEF7A2
:10446000AFFF04F50770FEF7ABFF04F54F70FEF7E2
:10447000A7FF04F25C40FCF797FF04F21C50FCF726
:1044800093FF04F2DC50FCF78FFF04F29C60FCF712
:104490008BFF04F25C70FCF773FF04F2947504F672
:1044A00094262846C035FCF77FFFB542F9D1334B3F
:1044B00003F13006186859682A4603C20833B3422C
:1044C0001546F7D12E4B03F1300704F6C4263A46C1
:1044D00018685968354603C50833BB422E46F7D1E4
:1044E0000FCA04F6F42585E80F00264B0FCB04F61F
:1044F000043585E80F0004F61430FEF761FF04F67A
:104500003440FCF73DFF04F66C40FCF74DFF04F629
:104510002C50FCF749FFFDF733F900F5BA500C3089
:10452000C4F8EC0DFDF72CF900F5C0500C30C4F8C0
:10453000F00DFDF725F900F5C6500C30C4F8F40D68
:104540000CF040F9C4F8F80D00F09AFBC4F8FC0D2B
:1045500005F0B0FB002384F8103EC4F8000EC4F848
:10456000043EC4F8083EC4F80C3EC4F8143EC4F837
:10457000183E2046F8BD00BF98530208844D02083B
:10458000B44D0208F44D020810B50A4C2368BFF37D
:104590005B8FDB070CD420461BF067FD40B106485B
:1045A000FFF73EFF05481DF05FF920461BF069FD4F
:1045B000014810BDFC32002000330020594600089D
:1045C000244B70B50360044600F62C50FDF73EFD09
:1045D00004F66C40FDF73AFD04F63440FDF722FD89
:1045E00004F61430FDF754FD40F6D41540F2D466BD
:1045F000635960191B68C03D9847B542F8D104F271
:104600005C70FDF70FFD04F29C60FDF71FFD40F2AA
:10461000DC55635960191B68C03D9847B5F5677F45
:10462000F7D14FF44F75635960191B68A5F5907564
:10463000984715F1240FF6D1C425635960191B68FA
:10464000383D98471C2DF8D1201DFDF7EBFC204686
:1046500070BD00BF9853020808B50248FFF7B0FFCD
:1046600008BD00BF0033002010B50446FFF7A8FFC7
:10467000204640F61C611BF0F6FC204610BD4FF0B2
:10468000000070474FF0000070474FF00000704787
:1046900008B5806E03210CF0C4FC4FF0000008BD8B
:1046A00061B990F8313083F0010380F83130012294
:1046B00013B103490DF0DEB90249FBE7704700BFB3
:1046C000000000201400002010B5034B03600446D6
:1046D0000EF0C2FD204610BDA882020810B50446A7
:1046E000FFF7F2FF204634211BF0BDFC204610BD31
:1046F00010B5034B03600446FCF708FE204610BDCE
:10470000F053020808B50248FFF7F2FF08BD00BFEA
:104710001042002010B50446FFF7EAFF20466C2146
:104720001BF0A1FC204610BD70B51E4E3568BFF3CE
:104730005B8F15F0010532D130461BF096FC70B34B
:10474000194C1A4B2046102240F8043B02212B46FC
:104750000FF077FC2A4629462B4604F124000FF07F
:1047600070FC134BE564C4E915344FF48063A4F87E
:104770005E30022384F860300E4B63660E4B23607C
:10478000C4E9115584F8505084F85C500CF01AF8C4
:10479000A0660A481DF068F830461BF072FC02481B
:1047A00070BD00BF0C420020104200206CF50208D2
:1047B000153E0108CE530208F053020805470008D1
:1047C00038B5002301608380837104460BF0FAFF43
:1047D000A0601DF089F8062590FBF5F303FB15009A
:1047E000013020711DF080F890FBF5F303FB1500FC
:1047F000013001236071A371204638BD2DE9F041DD
:104800000446006803681B6B9847064620680368E7
:104810009B6A98470746206803685B6B9847054684
:1048200020680368DB6A984794F904202B18F01974
:1048300000EBD07003EBD37312EB60004FEA63031D
:10484000114604D4A568D5F8A050A84202DB524214
:104850002271002194F90500C318024604D4A5680A
:10486000D5F8A450AB4202DB4042607100222068C0
:1048700003689C690123A446BDE8F041604700003D
:1048800038B504461D46084B0DF0CEF8074B2360A3
:1048900084F8315025B904492A4620460DF0EAF83B
:1048A00001236375204638BD000000201C54020817
:1048B0002DE9F0430022ADF5177D05461146012391
:1048C00043A8FFF7DDFFAB6EBDF91E11D3F8A4209E
:1048D000BDF91C01DFF85882521AD3F8A010091A4A
:1048E00002EBD27201EBD17100235210491043A8A0
:1048F0000EF0CCFC4FF0FF1601274FF4004143A807
:104900000EF086FC1E239622CDE90067782117A8B9
:104910000DF016FF282117A800240EF079FC4FF4A3
:104920007F03CDE9003478221E23962121A80DF0C3
:1049300007FF322121A80EF06BFC4FF47F4978234A
:104940002222CDE900392E21602305A80DF0ACFE0E
:104950001E2105A80EF05CFC4C232222CDE9003874
:104960002E216E230EA80DF09FFE1E210EA80EF024
:104970004FFC0EF07FFD22460A23CDE900606A4914
:1049800050A80EF023F8462150A80EF041FC0EF07E
:10499000ABFD22461423CDE9008063495EA80EF0EA
:1049A00015F850215EA80EF033FC0EF013FE4FF602
:1049B000FF7822461E235C490190CDF800806CA848
:1049C0000EF004F85A216CA80EF022FC0EF08CFDBB
:1049D00022463223CDE901605349CDF800907AA8F0
:1049E0000EF060F864217AA80EF012FC0EF0CCFCF8
:1049F000FF26224646234C490190009688A80DF0D8
:104A0000E5FF6E2188A80EF003FCCDE901670A26B8
:104A100022466423214600962BA80DF08FFD3146D7
:104A20002BA80EF0F5FB1423462200966421CDE955
:104A3000018737A80DF082FD142137A80EF0E8FB9E
:104A40000C200BF067FE394C17A90646FFF7B8FE9D
:104A50000C2026600BF05EFE21A90646FFF7B0FE93
:104A60000C2066600BF056FE05A90646FFF7A8FE6F
:104A70000C20A6600BF04EFE0EA90646FFF7A0FE26
:104A80000C20E6600BF046FE50A90646FFF798FEA4
:104A90000C2026610BF03EFE5EA90646FFF790FE55
:104AA0000C2066610BF036FE6CA90646FFF788FE07
:104AB0000C20A6610BF02EFE7AA90646FFF780FEB9
:104AC0000C20E6610BF026FE88A90646FFF778FE6B
:104AD0000C2026620BF01EFE2BA90646FFF770FE87
:104AE0000C2066620BF016FE37A90646FFF768FE3B
:104AF000A662A86E4FF0FF310BF035FFC4B2002C58
:104B0000F7D10A4E56F8040B0134FFF777FE0B2C51
:104B1000F8D1A86E0BF02CFFA86E0BF038FF012027
:104B20000FF001FCE5E700BFD85302081C4100204C
:104B300000FFFF00034BD3F85C23034B1A615A625A
:104B4000704700BFF48202080000002008B5806EA4
:104B500003689B6898474FF0000008BD08B528B966
:104B600005F0A8F80079C31E5842584108BD70B539
:104B70000446806E03681B6A984770B9D4F8043401
:104B8000002B4CD094F8CF03FFF7E8FF002846D164
:104B9000D4F80434C4F888331AE0D4F80434D3B910
:104BA00004F16C054FF4807204F5816128461DF014
:104BB0001EFFA66E2846FBF71DFB33680246DB6925
:104BC000294630469847C0B20628D7D02228D5D0EB
:104BD0000024204670BD94F8CF03FFF7BFFF0028E4
:104BE000CCD094F87033002BC8D194F8DD33002B6F
:104BF000CED104F591654FF0FF3128460FF0B2F9A0
:104C00000FF08FFB012384F87033D4F80434C4F818
:104C10007C03C4F8883328460FF0C9F9C0E704F2D2
:104C200004410023012220460FF0D7F8C4B201202E
:104C30000FF07BFBCDE7000010B5064B0360044688
:104C400000F591600FF086F92046FCF75FFB2046E7
:104C500010BD00BFDC63020808B50248FFF7ECFF97
:104C600008BD00BF8042002010B50446FFF7E4FFF6
:104C7000204640F27C611BF0F6F9204610BD000092
:104C80002DE9F041DFF81081D8F80050BFF35B8FB9
:104C900015F001056DD140461BF0E7F9002868D0FA
:104CA000354C364B364F2046102240F8043B22212B
:104CB0002B460FF0C6F92B462021842204F1240054
:104CC0000FF0BFF92F4A84F85050C4E915244FF46F
:104CD0008062A4F85E20022284F860202A4A62667C
:104CE00004F20443294A2260C4E91135284AA56622
:104CF000012304F59160C4E9E135C4E9DD55C4E957
:104D0000DF55E36484F85C30C4F86C2384F8705396
:104D100084F8D153A4F8FA33C4F8FC53A4F800542F
:104D20000FF00EF997E80F0004F28C4507F110061A
:104D300085E80F000FCE04F29C450FC50FCE0FC5BE
:104D400096E8070085E80700502207F13C0104F5CA
:104D500099601DF08CFF4FF4B27207F18C0104F5DD
:104D6000A3601DF084FF0B481CF07EFD40461BF045
:104D700088F90148BDE8F081804200206CF5020806
:104D8000044E0208153E0108885A0208DC63020836
:104D900000000101594C00087C420020032928BF73
:104DA000032100EB8100D0F88C0470470B2928BF49
:104DB000002100EB8100D0F89C047047582928BFDF
:104DC000582101F5A37150F821007047022970B5F0
:104DD00005460C4621D800F591664FF0FF3130466C
:104DE0000FF0C0F895F8FC33002B42F2107308BFA7
:104DF0004FF47A7307EE903A05EB840494EDE47A6D
:104E0000F8EEE77A304667EE877AFDEEE77A17EE3E
:104E1000904A0FF0CCF8204670BD0024FBE7022931
:104E200070B505460C4625D800F591664FF0FF3168
:104E300030460FF097F895F8FC3305EB8404D4ED79
:104E4000E77A94EDE47A002B42F2107308BF4FF436
:104E50007A7337EE677A07EE903AF8EEE77A3046E3
:104E600067EE877AFDEEE77A17EE904A0FF09FF82B
:104E7000204670BD0024FBE7022970B505460C46AC
:104E800021D800F591664FF0FF3130460FF06AF8F7
:104E900095F8FC33002B42F2107308BF4FF47A737D
:104EA00007EE903A05EB840494EDEA7AF8EEE77A9F
:104EB000304667EE877AFDEEE77A17EE904A0FF0FC
:104EC00076F8204670BD0024FBE7022970B5054640
:104ED0000C4625D800F591664FF0FF3130460FF0B3
:104EE00041F895F8FC3305EB8404D4EDE77A94EDB2
:104EF000EA7A002B42F2107308BF4FF47A7337EE50
:104F0000677A07EE903AF8EEE77A304667EE877AEE
:104F1000FDEEE77A17EE904A0FF049F8204670BD93
:104F20000024FBE790F87023D0F8883322B9994227
:104F300002D190F8DD037047994234BF54205520C8
:104F4000704710B50446FFF7EDFF40B9D4F8800371
:104F5000D4F8783398422CBF0020012010BD54288B
:104F600002D1D4F87C03F3E70020F7E700B5A3B043
:104F700000238DF80810012201A901938DF8093052
:104F80000EF02BFF23B05DF804FB000010B50446C3
:104F900004F090FE027972B916484FF4005110F0F7
:104FA000E5F994F8D8336FF3000384F8D83301237C
:104FB00084F86E3310BD04F07DFE0379012B0CD113
:104FC00094F86E33002BECD18B212046FFF7CEFFF7
:104FD0000FF0A7F9C4F87803E3E704F06BFE037958
:104FE000022BDED1034800224FF4005110F0BEF92D
:104FF000E6E700BF0008024038B5044604F05AFE58
:105000000579BDB91E4801224FF4005110F0AEF9E8
:1050100084F86E53D4F88423C4F8882394F8D823F2
:10502000002363F3000284F8703384F8DD3384F8DE
:10503000D82324E004F03EFE0379012B0DD194F82F
:105040006E3333B194F8CF331BB18B212046FFF779
:105050008DFF002384F86E33DCE704F02BFE037928
:10506000022B06D1064801224FF4005110F07EF9C0
:10507000E5E704F01FFE94F86E33002BCAD038BD6C
:105080000008024073B5069D83EAE3741846A4EB5A
:10509000E37442F210739D420E46114612D1B4FBE6
:1050A000F5F305FB1344264ACDE90034254B13EAFA
:1050B000200338BF1346244A30461DF0A7FB304674
:1050C00002B070BDB5F57A7F0DD1B4FBF5F305FBE9
:1050D00013441B4ACDE900341A4B13EA200338BFAE
:1050E00013461A4AE8E7642D0DD1B4FBF5F305FB2E
:1050F0001344134ACDE90034124B13EA200338BF9E
:105100001346134AD8E70A2D0DD1B4FBF5F305FB7E
:1051100013440B4ACDE900340A4B13EA200338BF8D
:1051200013460C4AC8E7064A064B009413EA2003CC
:1051300038BF1346084A30461DF068FBBFE700BF82
:10514000925B0208A5630208915A02089D5A020860
:10515000A95A0208B55A0208C15A0208F7B5DDE992
:10516000087600970C461546FFF78CFF4EB1204697
:10517000FBF740F8044B054A0096291A20441DF01D
:1051800045FB204603B0F0BDCCFD0208C75A02081B
:105190002DE9F0410F4605463A2138461DF008FC3E
:1051A00038B3002300F8013B1CF067FBC4B205F5DF
:1051B0009368002658F8041F3846FBF711F808B921
:1051C000F6B203E001360B2EF4D1002695F88C33AD
:1051D000B34203D195F88D23A2420CD013B9012319
:1051E00085F8FA3385F88C6385F88D430120BDE896
:1051F000F0810446DBE70020F9E710B510460C46C5
:105200001CF038FB51EC100BFBF706FD94ED007A17
:1052100007EE900AB4EE677AF1EE10FA16BF01209D
:105220000020C4ED007A10BD10B510460C461CF0ED
:1052300024FB22680346824216BF0120002023601F
:1052400010BD2DE9F04107460C46154602F10C0849
:105250000026294622463846FFF7CFFF2C2100289A
:1052600018BF064620461DF0A3FB20B10435454576
:1052700000F10104EDD13046BDE8F08190F8CC3367
:1052800010B5044663B3D0EDE77AF5EE407AF1EE5F
:1052900010FA0FD1D0EDE87AF5EE407AF1EE10FA7F
:1052A00008D1D0EDE97AF5EE407AF1EE10FA14BFAC
:1052B0000123002394F8D42363F3C302002384F86A
:1052C000D423C4F89C33C4F8A033C4F8A43394F8AE
:1052D000D43394F8CD2362F3451384F8D43310BD4E
:1052E00000F56772FFF7ADFF94F8D43360F3C303A2
:1052F00084F8D433EBE770B50E4604462C213046D3
:105300001DF056FB0546002305F8013B324604F527
:1053100070712046FFF788FF28B194F8D63343F028
:10532000010384F8D6332C2128461DF041FB0646A4
:10533000002306F8013B2A4604F571712046FFF769
:1053400073FF28B194F8D63343F0020384F8D633C0
:10535000324604F57D712046FFF766FF28B194F8C8
:10536000D63343F0040384F8D63370BD70B50D46D0
:1053700004462C2128461DF01BFB0646002306F898
:10538000013B2A4604F572712046FFF736FF28B12B
:1053900094F8D53343F0020384F8D5332C213046FA
:1053A0001DF006FB00230546E8B105F8013B324637
:1053B00004F57A712046FFF720FF28B194F8D53321
:1053C00043F0040384F8D53365B12A4604F57B71B4
:1053D0002046FFF712FF28B194F8D53343F00403B9
:1053E00084F8D53370BDC4F8EC33E0E72DE9F84319
:1053F00000F5B676B64904463046FAF7F1FE0546A2
:1054000048B90EF08EFF84F87053C4F8800384F816
:10541000DD53BDE8F88394F86C31242B13D13D2182
:1054200030461DF0C5FA054668B1002305F8013B7A
:1054300004F26D101CF021FA1F287FD052DC0D28D9
:105440005FD01E286DD094F86C313C2B40F07681F3
:10545000012384F86F330EF064FF9E49C4F878038B
:1054600004F26D101DF0D6FA0546F8B1014620464B
:10547000FFF78EFE28B194F8D43343F0020384F88A
:10548000D43394F8DC3363B194F88C33052B08D013
:1054900094F8D533002262F3C30384F8DC2384F844
:1054A000D5338C4900201DF0B5FA05468A4FDFF848
:1054B0004082DFF840920026002D4DD1002EA8D169
:1054C00094F8DE33002B94F8D5331ABF84F8DE63EA
:1054D0000122002262F3861384F8D533002384F876
:1054E000D13396E72028AED1284694F8FD731CF0FE
:1054F000C4F98742A7D028461CF0BFF984F8FD0301
:105500000BE0284694F8FC731CF0B7F987429AD058
:1055100028461CF0B2F984F8FC03012384F8FB331D
:1055200091E72846B4F8FE731CF0ABF987428AD0A5
:1055300028461CF0A6F9A4F8FE03EEE72846B4F8C6
:1055400000741CF09EF987423FF47DAF28461CF0A2
:1055500098F9A4F80004E0E70522394628461DF032
:1055600034FAE8B994F8CC3343B9012384F8CC3346
:1055700094F8D43343F0080384F8D43304F5647208
:10558000691D2046FFF75DFE94F8D43360F3820373
:1055900084F8D4334F4900201DF03CFA05468BE7D0
:1055A0000522414628461DF010FA30B994F8CC3354
:1055B000002BE3D084F8CC03DAE7032249462846DF
:1055C0001DF003FA20B9E91C2046FFF7CFFEE1E702
:1055D0004249042228461DF0F8F920B9291D204629
:1055E000FFF74CFED6E73E49032228461DF0EDF9B1
:1055F00010BB04F2DD32023504F2E731064602F850
:10560000016F15F8013F83B13E2B0ED094F8D533CE
:1056100043F0400384F8D5332B78137003F0DF0395
:10562000502B08BF01209142E9D1002384F8E733D1
:1056300084F8D1030126ADE72A49022228461DF04D
:10564000C4F968B9AB78A3F131004342434184F80F
:10565000D03394F8D53343F0200384F8D53399E759
:105660002149022228461DF0B0F930BB94F8D4330A
:10567000A4F8F80343F04003023584F8F00384F8FB
:10568000D433012240F2011115F8013B002B81D0E7
:105690004D2B0CD006D8432B0CD0462BF4D184F8DC
:1056A000F823F1E7532BEFD1A4F8F023ECE784F8CB
:1056B000F923E9E7A4F8F013E6E70C4903222846AA
:1056C0001DF083F9C0B9E91C2046FFF714FE61E71D
:1056D000CC5A0208CF5A0208D15A0208E15A0208ED
:1056E000E65A020836530208EA5A0208ED5A02083E
:1056F000D75A0208DD5A02083C49042228461DF008
:1057000064F900287FF446AF2A7994F8CF33A2F1E8
:1057100031014A424A419A4209D083F0010384F898
:10572000CF3394F8D43343F0010384F8D43394F89E
:10573000D83343F0010384F8D8332BE75B2B29D10E
:1057400004F26D152A49042228461DF03EF968B975
:1057500004F56A7204F271112046FFF772FD94F8A5
:10576000D63360F3C30384F8D63352E621490422CA
:1057700028461DF02AF900287FF44BAE04F56D721F
:1057800004F271112046FFF75CFD94F8D63360F304
:105790000413E8E71849062230461DF016F90546BD
:1057A00070B904F5B9701CF068F894F8D53384F832
:1057B000DD0343F0100384F8D53384F8705328E6F2
:1057C0000E49062230461DF000F900287FF421AE74
:1057D00004F5B9701CF051F894F8D53384F8DC0363
:1057E00043F0080384F8D53313E600BFF15A0208EA
:1057F000F65A0208FB5A0208005B0208075B02081F
:1058000073B5002604468DF80760A06E03680DF19D
:1058100007011B699847C0B208B102B070BD9DF87E
:105820000720182A04D0B4F86C33B3F5FE7F02D9F0
:10583000A4F86C63E9E70A2A01D00D2A13D1002BE2
:10584000F6D02344002204F5916583F86C214FF0D3
:10585000FF3128460EF086FB2046FFF7C7FD28469D
:105860000EF0A5FBE4E7591C2344A4F86C1383F85D
:105870006C21CAE770B5044600F591664FF0FF3120
:1058800030460EF06FFBD4F884536B1C012B38BFED
:105890000123C4F8843330460EF089FB284670BDDE
:1058A00070B50446A2B090F8CF030D461646FFF738
:1058B00055F988B194F88C3373B12046FFF7DAFFBD
:1058C0006A1E01900DF107017F3512F8013F01F8C2
:1058D000013F23B1AA42F8D10C2022B070BD1A4674
:1058E00001A920460EF079FA019B3360C0B2F4E7BB
:1058F00007B50022044980F8DD2301AAFFF7D0FF95
:1059000003B05DF804FB00BF1A64020807B5034941
:1059100001AAFFF7C5FF03B05DF804FB1564020898
:1059200010B50446FFF76CFF0EF0FBFCD4F878339B
:10593000C01AB0F5967F81BF002384F88C33012311
:1059400084F86F3394F8CF03FFF708F910B194F897
:105950008C3363B994F870334BB1002384F87033FF
:10596000D4F88433C4F88833562384F8DD3304F044
:10597000A1F90379012B1DD194F86E3394F8CF036C
:10598000EBB1FFF7EBF8D0B994F8D833DB0748D583
:105990008B212046FFF7EAFA0EF0C3FC94F8D833C7
:1059A000C4F87403002262F3000384F86F2384F8C0
:1059B000D83304E004F07EF90379022BDCD094F8AC
:1059C000CF03FFF7CBF840B194F8FA332BB1204660
:1059D000FFF79CFF002384F8FA3394F8CF03FFF716
:1059E000BDF8D8B194F86F33C3B10EF09AFCD4F877
:1059F0007433C01A642811D9A06E03681B6A9847D3
:105A000060B10EF08EFCC4F87403A06E0949002347
:105A100084F86F3303680122DB6998474FF0000078
:105A200010BD0EF07EFCD4F87833C01AB0F5967F26
:105A3000AED8C4E70E5B020807B5034901AAFFF719
:105A40002FFF03B05DF804FB1064020807B503499B
:105A500001AAFFF725FF03B05DF804FB0A64020802
:105A600007B5034901AAFFF71BFF03B05DF804FB6C
:105A70000564020807B5034901AAFFF711FF03B047
:105A80005DF804FB006402082DE9F0410229AEB084
:105A900004460D4617461E464ED890F8CF03FFF732
:105AA0005DF800284AD094F88C3303F0FD03012BF5
:105AB00044D12046FFF7DEFE94F8FC330D90002B16
:105AC0000DF1140842F2107308BF4FF47A7300937B
:105AD00010223B4641462046FFF7D4FA09AF642323
