:020000040800F2
:100000000000022091A70108E99E0108EB9E01086B
:10001000ED9E0108EF9E0108F19E0108000000001E
:1000200000000000000000000000000071910108C5
:10003000F39E01080000000001920108F59E0108EE
:10004000E1A70108E1A70108E1A70108E1A701086C
:10005000E1A70108E1A70108E1A70108E1A701085C
:10006000E1A70108E1A70108E1A70108E1A701084C
:10007000E1A70108E1A70108E1A70108E1A701083C
:10008000E1A70108E1A70108E1A7010800000000BD
:10009000000000000000000000000000E1A70108CF
:1000A000E1A70108E1A70108E1A70108E1A701080C
:1000B000E1A70108E1A70108E1A70108E1A70108FC
:1000C000E1A70108E1A70108E1A70108E1A70108EC
:1000D000E1A701080D9F0108E1A701080000000049
:1000E000E1A70108E1A70108E1A70108000000005D
:1000F000000000000000000000000000E1A701086F
:1001000000000000199F0108E1A70108E1A701080C
:1001100000000000000000000000000000000000DF
:10012000E1A70108E1A70108259F0108319F010807
:10013000E1A701080000000000000000000000002E
:100140000000000000000000000000003D9F0108CA
:10015000499F0108E1A70108559F0108E1A701088F
:10016000E1A70108E1A7010800000000000000006D
:10017000000000000000000000000000000000007F
:1001800000000000E1A701080000000000000000DE
:08019000E1A70108E1A7010845
:1001A00010B5054C237833B9044B13B10448AFF3B1
:1001B00000800123237010BD5003002000000000C8
:1001C0005CF4010808B5034B1BB103490348AFF3C6
:1001D000008008BD00000000540300205CF401080A
:1001E00010F8012B11F8013B012A28BF9A42F7D0E1
:1001F000D01A7047034613F8012B002AFBD1181AB6
:1002000001387047000000000000000000000000FE
:1002100001F0FF01102A2BDB10F0070F08D010F8B7
:10022000013B013A8B422DD010F0070F42B3F6D1BB
:10023000F0B441EA012141EA014122F007047FF0D4
:1002400000070023F0E80256083C85EA010586EA2B
:10025000010685FA47F5A3FA87F586FA47F6A5FA67
:1002600087F68EB9EED1F0BC01F0FF0102F0070273
:1002700032B110F8013B013A83EA010313B1F8D11E
:100280000020704701387047002D06BF35460338FF
:10029000073815F0010F07D1013015F4807F02BF38
:1002A000013015F4C03F0130F0BC0138704700BF89
:1002B00081F0004102E000BF83F0004330B54FEA17
:1002C00041044FEA430594EA050F08BF90EA020F84
:1002D0001FBF54EA000C55EA020C7FEA645C7FEA17
:1002E000655C00F0E2804FEA5454D4EB5555B8BF3A
:1002F0006D420CDD2C4480EA020281EA030382EAAB
:10030000000083EA010180EA020281EA0303362D3C
:1003100088BF30BD11F0004F4FEA01314FF4801C0F
:100320004CEA113102D0404261EB410113F0004F21
:100330004FEA03334CEA133302D0524263EB4303D8
:1003400094EA050F00F0A780A4F10104D5F1200E76
:100350000DDB02FA0EFC22FA05F2801841F10001D1
:1003600003FA0EF2801843FA05F359410EE0A5F1A5
:1003700020050EF1200E012A03FA0EFC28BF4CF0D6
:10038000020C43FA05F3C01851EBE37101F000458C
:1003900007D54FF0000EDCF1000C7EEB00006EEB99
:1003A0000101B1F5801F1BD3B1F5001F0CD3490823
:1003B0005FEA30004FEA3C0C04F101044FEA44527A
:1003C00012F5800F80F09A80BCF1004F08BF5FEA01
:1003D000500C50F1000041EB045141EA050130BDE1
:1003E0005FEA4C0C404141EB0101013C28BFB1F5F3
:1003F000801FE9D291F0000F04BF01460020B1FA3E
:1004000081F308BF2033A3F10B03B3F120020CDA10
:100410000C3208DD02F1140CC2F10C0201FA0CF0EE
:1004200021FA02F10CE002F11402D8BFC2F1200C53
:1004300001FA02F120FA0CFCDCBF41EA0C01904009
:10044000E41AA2BF01EB0451294330BD6FEA040452
:100450001F3C1CDA0C340EDC04F11404C4F120023D
:1004600020FA04F001FA02F340EA030021FA04F34F
:1004700045EA030130BDC4F10C04C4F1200220FAA6
:1004800002F001FA04F340EA0300294630BD21FAE4
:1004900004F0294630BD94F0000F83F4801306BFAA
:1004A00081F480110134013D4EE77FEA645C18BF9E
:1004B0007FEA655C29D094EA050F08BF90EA020F35
:1004C00005D054EA000C04BF1946104630BD91EA2D
:1004D000030F1EBF0021002030BD5FEA545C05D130
:1004E0004000494128BF41F0004130BD14F580046F
:1004F0003CBF01F5801130BD01F0004545F0FE41E3
:1005000041F470014FF0000030BD7FEA645C1ABF17
:10051000194610467FEA655C1CBF0B46024650EA4E
:10052000013406BF52EA033591EA030F41F400217A
:1005300030BD00BF90F0000F04BF0021704730B500
:100540004FF4806404F132044FF000054FF00001D5
:1005500050E700BF90F0000F04BF0021704730B596
:100560004FF4806404F1320410F0004548BF40426B
:100570004FF000013EE700BF42004FEAE2014FEAC0
:1005800031014FEA02701FBF12F07F4393F07F4F9B
:1005900081F06051704732F07F4208BF704793F09E
:1005A0007F4F04BF41F40021704730B54FF46074B1
:1005B00001F0004521F000411CE700BF50EA0102B4
:1005C00008BF704730B54FF000050AE050EA01025D
:1005D00008BF704730B511F0004502D5404261EBCD
:1005E00041014FF4806404F132045FEA915C3FF40E
:1005F000D8AE4FF003025FEADC0C18BF03325FEAAB
:10060000DC0C18BF033202EBDC02C2F1200300FA5B
:1006100003FC20FA02F001FA03FE40EA0E0021FA80
:1006200002F11444BDE600BF70B54FF0FF0C4CF46E
:10063000E06C1CEA11541DBF1CEA135594EA0C0F20
:1006400095EA0C0F00F0DEF82C4481EA030621EA5B
:100650004C5123EA4C5350EA013518BF52EA033596
:1006600041F4801143F4801338D0A0FB02CE4FF048
:100670000005E1FB02E506F00042E0FB03E54FF078
:100680000006E1FB03569CF0000F18BF4EF0010E70
:10069000A4F1FF04B6F5007F64F5407404D25FEA6C
:1006A0004E0E6D4146EB060642EAC62141EA55511F
:1006B0004FEAC52040EA5E504FEACE2EB4F1FD0C61
:1006C00088BFBCF5E06F1ED8BEF1004F08BF5FEADF
:1006D000500E50F1000041EB045170BD06F0004691
:1006E00046EA010140EA020081EA0301B4EB5C043E
:1006F000C2BFD4EB0C0541EA045170BD41F4801136
:100700004FF0000E013C00F3AB8014F1360FDEBF5A
:10071000002001F0004170BDC4F10004203C35DA36
:100720000C341BDC04F11404C4F1200500FA05F3B9
:1007300020FA04F001FA05F240EA020001F000425A
:1007400021F0004110EBD37021FA04F642EB0601D0
:100750005EEA430E08BF20EAD37070BDC4F10C04FA
:10076000C4F1200500FA04F320FA05F001FA04F2BE
:1007700040EA020001F0004110EBD37041F10001AA
:100780005EEA430E08BF20EAD37070BDC4F12005B5
:1007900000FA05F24EEA020E20FA04F301FA05F21D
:1007A00043EA020321FA04F001F0004121FA04F2C5
:1007B00020EA020000EBD3705EEA430E08BF20EA95
:1007C000D37070BD94F0000F0FD101F000464000CF
:1007D00041EB010111F4801F08BF013CF7D041EA51
:1007E000060195F0000F18BF704703F00046520055
:1007F00043EB030313F4801F08BF013DF7D043EA26
:100800000603704794EA0C0F0CEA135518BF95EADB
:100810000C0F0CD050EA410618BF52EA4306D1D162
:1008200081EA030101F000414FF0000070BD50EA81
:10083000410606BF1046194652EA430619D094EA0B
:100840000C0F02D150EA013613D195EA0C0F05D1F5
:1008500052EA03361CBF104619460AD181EA030149
:1008600001F0004141F0FE4141F470014FF0000001
:1008700070BD41F0FE4141F4780170BD70B54FF09C
:10088000FF0C4CF4E06C1CEA11541DBF1CEA13551C
:1008900094EA0C0F95EA0C0F00F0A7F8A4EB0504FE
:1008A00081EA030E52EA03354FEA013100F08880F5
:1008B0004FEA03334FF0805545EA131343EA1263BE
:1008C0004FEA022245EA111545EA10654FEA002673
:1008D0000EF000419D4208BF964244F1FD0404F52C
:1008E000407402D25B084FEA3202B61A65EB030588
:1008F0005B084FEA32024FF480104FF4002CB6EB45
:10090000020E75EB030E22BFB61A754640EA0C00C4
:100910005B084FEA3202B6EB020E75EB030E22BF04
:10092000B61A754640EA5C005B084FEA3202B6EB45
:10093000020E75EB030E22BFB61A754640EA9C0004
:100940005B084FEA3202B6EB020E75EB030E22BFD4
:10095000B61A754640EADC0055EA060E18D04FEA92
:10096000051545EA16754FEA06164FEAC30343EA32
:1009700052734FEAC2025FEA1C1CC0D111F4801FFF
:100980000BD141EA00014FF000004FF0004CB6E7F8
:1009900011F4801F04BF01430020B4F1FD0C88BF97
:1009A000BCF5E06F3FF6AFAEB5EB030C04BFB6EBA2
:1009B000020C5FEA500C50F1000041EB045170BD95
:1009C0000EF0004E4EEA113114EB5C04C2BFD4EBC2
:1009D0000C0541EA045170BD41F480114FF0000E46
:1009E000013C90E645EA060E8DE60CEA135594EAC2
:1009F0000C0F08BF95EA0C0F3FF43BAF94EA0C0FC5
:100A00000AD150EA01347FF434AF95EA0C0F7FF439
:100A100025AF104619462CE795EA0C0F06D152EA8D
:100A200003353FF4FDAE1046194622E750EA410671
:100A300018BF52EA43067FF4C5AE50EA41047FF482
:100A40000DAF52EA43057FF4EBAE12E74FF0FF3CE7
:100A500006E000BF4FF0010C02E000BF4FF0010CB8
:100A60004DF804CD4FEA410C7FEA6C5C4FEA430C31
:100A700018BF7FEA6C5C1BD001B050EA410C0CBF80
:100A800052EA430C91EA030F02BF90EA020F0020E2
:100A9000704710F1000F91EA030F58BF994208BF49
:100AA00090422CBFD8176FEAE37040F00100704706
:100AB0004FEA410C7FEA6C5C02D150EA013C07D15D
:100AC0004FEA430C7FEA6C5CD6D152EA033CD3D0A8
:100AD0005DF8040B704700BF8446104662468C46A2
:100AE0001946634600E000BF01B5FFF7B7FF0028D5
:100AF00048BF10F1000F01BD4DF808EDFFF7F4FFFE
:100B00000CBF012000205DF808FB00BF4DF808ED88
:100B1000FFF7EAFF34BF012000205DF808FB00BFAB
:100B20004DF808EDFFF7E0FF94BF012000205DF8CD
:100B300008FB00BF4DF808EDFFF7CEFF94BF012082
:100B400000205DF808FB00BF4DF808EDFFF7C4FF7B
:100B500034BF012000205DF808FB00BF4FEA410CC4
:100B60007FEA6C5C02D150EA013C0AD14FEA430CA7
:100B70007FEA6C5C02D152EA033C02D14FF00000E4
:100B800070474FF0010070474FEA410212F5001222
:100B900015D211D56FF47873B3EB625212D94FEAC4
:100BA000C12343F0004343EA505311F0004F23FAAE
:100BB00002F018BF404270474FF00000704750EA03
:100BC000013005D111F0004008BF6FF000407047C0
:100BD0004FF00000704700BF4A0011D212F500121A
:100BE00011D20DD56FF47873B3EB62520ED44FEA85
:100BF000C12343F0004343EA505323FA02F0704705
:100C00004FF00000704750EA013002D14FF0FF3042
:100C100070474FF0000070474FEA4102B2F1E043E5
:100C200024BFB3F5001CDCF1FE5C0DD901F0004CD3
:100C30004FEAC0024CEA5070B2F1004F40EB830023
:100C400008BF20F00100704711F0804F21D113F14F
:100C50003872BCBF01F00040704741F480114FEA88
:100C60005252C2F11802C2F1200C10FA0CF320FA11
:100C700002F018BF40F001004FEAC1234FEAD3232E
:100C800003FA0CFC40EA0C0023FA02F34FEA430398
:100C9000CCE77FEA625307D150EA01331EBF4FF021
:100CA000FE4040F44000704701F0004040F0FE403C
:100CB00040F40000704700BF53B94AB9002908BF8B
:100CC00000281CBF4FF0FF314FF0FF3000F0A0B9FB
:100CD000ADF1080C6DE904CE00F03CF8DDF804E05D
:100CE000DDE9022304B0704738B500220023044632
:100CF0000D46FFF70BFF28B920462946BDE83840CE
:100D000000F00AB8204605F1004100F005F8404225
:100D100061EB410138BD00BFD0B50C4B0022064647
:100D20000F46FFF781FCFFF757FF0446FFF702FC71
:100D3000074B0022FFF778FC02460B463046394647
:100D4000FFF7BAFAFFF748FF2146D0BD0000F03D9B
:100D50000000F0412DE9F047089D0C46002B4ED1D4
:100D600094468C458646B2FA82F262D94AB1C2F103
:100D70002003914020FA03F30CFA02FC194300FA15
:100D800002FE4FEA1C471FFA8CF6B1FBF7F44FEA5C
:100D90001E4307FB141143EA014304FB06F1994289
:100DA0000AD91CEB030304F1FF3080F01281994251
:100DB00040F20F81023C6344591A1FFA8EF3B1FBD3
:100DC000F7F007FB101143EA014300FB06F69E42D1
:100DD0000AD91CEB030300F1FF3180F0FC809E4236
:100DE00040F2F980634402389B1B40EA0440002132
:100DF0001DB1D3400022C5E90032BDE8F0878B4227
:100E000005D90DB1C5E9000100210846F5E7B3FA9F
:100E100083F1002946D1A34202D39042C0F0F08072
:100E2000861A64EB03030120002DE6D0C5E90063B8
:100E3000E3E7002A40F09080A1EB0C044FEA1C4845
:100E40001FFA8CF70121B4FBF8F64FEA1E4308FBAA
:100E5000164443EA044307FB06F0984208D91CEB0A
:100E6000030306F1FF3402D2984200F2CD802646F9
:100E70001C1A1FFA8EF3B4FBF8F008FB104443EA87
:100E8000044300FB07F79F4208D91CEB030300F162
:100E9000FF3402D29F4200F2B0802046DB1B40EAC2
:100EA0000640A5E7C1F120068B4022FA06F71F4352
:100EB00020FA06FC04FA01F343EA0C03F44000FABA
:100EC00001F8380C4FEA1349B4FBF0FE1FFA87FC17
:100ED00000FB1E4449EA04440EFB0CF9A14502FA4A
:100EE00001F20AD93C190EF1FF3A80F08480A14545
:100EF00040F28180AEF1020E3C44A4EB09041FFADB
:100F000083F9B4FBF0F300FB134449EA044403FB08
:100F10000CFCA44507D93C1903F1FF3067D2A44566
:100F200065D9023B3C4443EA0E40A0FB0293A4EB8C
:100F30000C049C42CE469C4651D34ED055B1B8EBE2
:100F40000E0364EB0C0404FA06F6CB401E43CC40BF
:100F5000C5E90064002150E7C2F1200320FA03F143
:100F60000CFA02FC24FA03F394400C434FEA1C48A9
:100F700000FA02FE1FFA8CF7B3FBF8F008FB103101
:100F8000230C43EA014300FB07F1994208D91CEB0B
:100F9000030300F1FF362CD299422AD90238634468
:100FA0005B1AA4B2B3FBF8F108FB113344EA034423
:100FB00001FB07F3A34208D91CEB040401F1FF363F
:100FC00013D2A34211D902396444E41A41EA004120
:100FD00039E70446F0E6084606E7C845AED2B9EB65
:100FE000020E63EB070C0138A8E73146EDE7034634
:100FF00099E73046D4E7D6467FE7634402384DE7A9
:101000000646234608460FE7023E634430E700BF2A
:10101000704700BF03798B4228BF0431C91AC9B297
:101020004171704708B503681B699847B0FA80F0B2
:10103000400908BD10B505F0F7FB204905F016FC86
:101040000AF038FA1E490AF0F3FA0AF033FA1D4999
:101050000AF032FB0AF02EFA03681B6898470DF07D
:1010600021FF036818495B6A984705F063F8174940
:10107000002205F0BDF805F05DF803681B6898478D
:101080001348FFF7CFFF30B109F06AFC0368BDE8F1
:1010900010401B6818470F48FFF7C4FF10B103F05A
:1010A00087F8F3E703F094FB0B4B836603F090FBA8
:1010B00003681B68984700F0AFFAE7E76C0300206D
:1010C000A403002084030020D0D3012088D3012072
:1010D0008804002078040020D003002000BEFEE732
:1010E00000BEFEE72DE9F0473D4ADFF840913D4F55
:1010F0003D4BBA601021C9E902210822FA603B4A3F
:101100003B49916000244FF48060C2E90034D06014
:10111000DFF81C81374ADFF81CA1C9F8003001252F
:10112000C8E90035C7E90035C2E900340223D360BD
:101130004FF06413CAF804302F4B304ECAF8003019
:101140002F4BCAF808304FF0051373602D4B3360F6
:1011500006F10C002C4B9160C8E90215C9F8045047
:10116000B3600DF055FB294B294A1A60294AC3F890
:101170008420A3F88840284B284818604FF4F07268
:1011800027481C760321C3E901124FF4A071C3E97B
:10119000031259610571C180224D0281C3E907A97B
:1011A000C3E909872146204B03604471C66004747B
:1011B000C0F81240C0F81640C0F81A40FFF72AFFE6
:1011C0004FF4004348F20200C5E90033C5E9034685
:1011D0002C726C610AF01AF9E860BDE8F08700BF74
:1011E00000000240980400200896020888040020AD
:1011F0000004024078040020789602085C04002075
:101200002CD301202C96020890D10120D00300207D
:10121000C8960208D8D40120A40300203024020874
:10122000840300206C03002008240208B804002076
:10123000A80400206C04002008B5074BD86810B142
:10124000012119F0CEFA0548054B40F80C3BBDE8EA
:1012500008400DF0E7BA00BF6C0300205C040020DA
:101260002C9602084FF00000704700F5805090F86F
:101270009006002818BF032070470DF071B92DE9C2
:10128000F04100F580550446D5F8880690F888139B
:1012900003F0C2FA014604F5A55000221C300CF000
:1012A000FFF8D5F8880690F8D91303F0BDFA014687
:1012B00004F5A750002214300CF0F2F8D5F8883667
:1012C00095F8182493F8CB3304F59F500430002A86
:1012D00035D0002B0CBFFF214FF47F410EF06CF88E
:1012E000D5F8883693F8F723002683F8F763AAB178
:1012F000D4F8AC301A3304F1640754F823000368BF
:101300001B699847D4F8A830B3421ED8D4F8AC3043
:101310001A3354F823000368DB689847D4F8AC30DC
:101320001A33142154F8230003685B699847D5F8F1
:1013300080060AF0A4F94FF00000BDE8F081002B10
:101340000CBF6FF07F41FF21C8E7D5F8803657F812
:10135000040FD3F8A4300168B5F99E24D1F80880B1
:10136000283B9A1A2821C0470136CBE710B5074B16
:10137000044640F8483B0DF051FC04F124000DF008
:10138000A3FA201D0DF0A0FA204610BDFC9602081D
:1013900010B50446FFF7EAFF2046682119F021FA4C
:1013A000204610BD054A02600022C0E90122C0E9C2
:1013B0000322C0E90522C261704700BFDC2E02088B
:1013C00010B50446FFF7EEFF064B23600122002311
:1013D00084F82C20C4E90833A362236384F83430F2
:1013E000204610BD302E020810B50446FFF7DAFF84
:1013F0000A4B23606FF07F420023C4E90833C4E93D
:101400000A332263A38604F13800FFF7D9FF04F101
:101410007000FFF7D5FF204610BD00BF649702089B
:101420002DE9F84305460026FFF7BCFFC5E908662D
:10143000C5E90A662D4BDFF8C0902B602E6305F1DD
:10144000340405F55D774FF0FF382046FFF7AAFF1B
:10145000C4F8009084F82060C4F82C8084F83060D0
:10146000C4E909663434BC42EFD105F2F466204683
:101470003834FFF7A5FFB442F9D105F58B56143681
:101480002046A834FFF7B0FFB442F9D1204605F555
:1014900080540026FFF786FF154BC4F8743105F51C
:1014A0008C50C4F894611830FFF79EFF05F59250F8
:1014B000FFF79AFF05F597500830FFF773FF0D4BC4
:1014C000C4F8E832C4E9C266C4E9C566C4E9C766BF
:1014D000C4E9CA6684F8106384F8246309F0EAFF5B
:1014E000C4F830032846BDE8F88300BF280A020884
:1014F000882D0208E02C02088C240208414B70B5AC
:1015000010220446222140F8043B00230DF001FA8A
:1015100000230822202104F124000DF0FAF904F53B
:10152000B4531033002663641423C4E91263364BAA
:1015300084F85060C4E915344FF48063A4F85E3039
:10154000022384F860302046304B6366304B84F8C9
:101550005C604022314640F8683B1BF0D9FDC4E98D
:101560002A6604F1B000FFF75BFF04F59F500430DA
:10157000FFF73AFF04F5A45004F580550C30FFF74F
:1015800011FF244BC5F88C3404F5A550C5F8AC64A4
:10159000C5F8B06485F8B464C5F8B8641C30FFF7CA
:1015A0000FFF04F5A7501430FFF70AFF04F5A95008
:1015B0000C30FFF719FF04F5AE501430FFF714FF9D
:1015C000032385F87C3609F075FFC5F8800604F022
:1015D000B1FDC5F8840603F0FBF8C5F8880605F0F0
:1015E00023F985F8A466C5F88C06C5F89866C5F891
:1015F0009C66C5F8A066C5F8A866C5F8AC66204626
:1016000070BD00BFFC960208E5E600086CF8010812
:10161000C8F80108E02C020810B50A4C2368BFF393
:101620005B8FDB070CD4204619F0DDF840B106488B
:10163000FFF764FF05481AF0D3FC204619F0DFF8E5
:10164000014810BDC8040020CC040020451E00083D
:101650002DE9F04F00F5805785B0D7F88036DFF8D8
:10166000B490D3F8A4A0044600F5A9580CF0E0FB10
:101670000368DB689847D7F88036D3F8A02002EBE0
:10168000D272561005460CF0D3FB0368DB6898470E
:1016900008F10C084FF0010B043E05EB450500EB8B
:1016A0004000AAEB050349460022CDE90060CDF8D1
:1016B00008B040460DF0F0FD17F0D4F917F0A4F88B
:1016C000002301461A4640460DF001FFD7F8803648
:1016D000B7F93C25D3F8A010CDF808B0B7F93E35DE
:1016E000CDE9002304F5AE541434B7F936358A1A1F
:1016F000204649460DF0D0FD17F0B4F917F084F8F4
:10170000002301461A46204605B0BDE8F04F0DF013
:10171000DEBE00BFBF0102082DE9F04F044689B0CC
:1017200004F5805605F080F805F0A4F8D6F8805648
:1017300005F07AF84179003918BF0121284609F0EF
:10174000A2FF96F87C16D6F880060AF037FBD6F88A
:101750008036D84AC3F89820D3F8A4700CF068FB00
:101760000368DB68984705460CF0B0FA0368DB684D
:101770009847D6F88036D3F8A030059382460CF00F
:10178000A5FA02689268904783460CF09FFA0268B7
:10179000D268904705EB4505C74A059B04F5A45957
:1017A000023F4FF0060809F10C097F1B400000259D
:1017B000294608FB1B33CDE901250090A7EB4A021F
:1017C00048460BF0D9FAB6F99E34B6F9962403EBE5
:1017D000D37302EB630305930CF078FA0268D268C6
:1017E000904782460CF072FA04F5A557059BB34961
:1017F00001901C376FF07F4B0422A3EB5A0338464D
:10180000CDF800B00BF0E7FC0CF060FA03689B68C1
:101810009847B6F9CA14069107900CF009FB0368C3
:10182000DB68984705900CF003FBDDE90531079A6A
:1018300004F5A75A0AF1140AD200CB1ACDE900B078
:101840009E4950460BF0C7FC4FF47A7148460CF0A5
:1018500047F940F2E93138460CF042F940F2E931FB
:1018600050460CF03DF9D6F8880603F0E5F8D6F8B6
:101870008036D3F8A0A00CF029FA03689B6898473B
:10188000B6F996B481460CF021FA03689B68984734
:101890000123029304F59F570437B6F99E34884913
:1018A000019308FB00F00AF1FF3208FB19220090B7
:1018B0005B4638460DF0F0FC2B462A46384621465A
:1018C0000DF005FE384629460DF0F6FD4FF47A710D
:1018D00038460CF005F92046FFF7BAFE4FF028090C
:1018E0001022D6F88036CDE9009204F1B007D3F883
:1018F000A0302A462946384604F058FAC4F8A850C1
:101900000CF0E4F96E4A03462946384604F052FBCF
:101910006C4AD4F8A810384604F0E4FAD4F8A88049
:1019200008F10103C4F8A83002F034FB08F11A08EA
:1019300044F82800D4F8A8800CF0C8F94146624A5F
:101940000346384604F036FBD4F8A88008F10103BA
:10195000C4F8A83005F0F0FB08F11A0844F8280094
:10196000D4F8A8800CF0B2F94146584A03463846EC
:1019700004F020FBD4F8A88008F10103C4F8A830D3
:1019800001F03EFD08F11A0844F82800D4F8A880B8
:101990000CF09CF9414603464D4A384604F00AFBD8
:1019A0004C4AD4F8A810384604F09CFAD4F8A88021
:1019B00008F10103C4F8A83007F056FF08F11A082F
:1019C00044F82800D4F8A8800CF080F94146424A37
:1019D0000346384604F0EEFAD4F8A88008F1010373
:1019E000C4F8A83007F08AF908F11A0844F828006A
:1019F000D4F8A8800CF06AF94146384A03463846C4
:101A000004F0D8FAD4F8A88008F10103C4F8A8308B
:101A100006F07EF908F11A0844F82800D4F8A880E6
:101A20000CF054F941462E4A0346384604F0C2FAF7
:101A3000D4F8A88008F10103C4F8A83008F038FBF6
:101A400008F11A08D4F8A82044F82800D6F88036FF
:101A5000CDE900923846D3F8A0302A46294604F052
:101A6000A5F938462B462A46214604F026FB38467F
:101A70004FF4FA6104F0BFF804F16407D4F8A83019
:101A8000AB4231D8A06E03680025DB68C4F8AC50C7
:101A9000984704F5B4531833019343230093D6F8C1
:101AA0008406104A2346214604F0C2FB284609B0AA
:101AB000BDE8F08F4040400080808000BF010208F8
:101AC00078F801083C0000207CF8010885F801083E
:101AD00090F80108280000209DF80108A5F80108E9
:101AE000ABF80108411C0008D6F8803657F8040FFF
:101AF000D3F8A4300168B6F99E24D1F80880283BB9
:101B00009A1A2821C0470135B8E700BF034603F5FC
:101B1000805300F5A950D3F8883693F88833022B08
:101B20000CBF024902490C300DF003BCB4F80108A7
:101B3000B9F8010800F5805300F5AE50D3F88836A7
:101B400093F88833052B00F1140000D013B9024933
:101B50000DF0EFBB0149FBE7070902082806020860
:101B6000D0F8AC301A3370B5044650F8230003683F
:101B70000D461B69984704F1B000C4F8AC502946E3
:101B800004F086FAD4F8AC301A3354F82300036812
:101B9000BDE87040DB68184770B500F59F56043605
:101BA0008E4204460D4613D100F58054D4F88806C1
:101BB00090F86F3343B102F03FFF002130460DF043
:101BC0007BFC4FF0000070BD02F000FF0121F5E743
:101BD00000F1B003994204D190F8DC10FFF7C0FF88
:101BE000EFE7D0F8AC301A3350F8230003689B6954
:101BF0009847C0B20828E4D104F5A9530C339D429C
:101C00000CD104F58054D4F8880690F88833022B60
:101C100014BF8121822102F0CAFED2E704F5AE533F
:101C200014339D42CDD104F58054D4F8880690F841
:101C30008833052B00D00BB91821ECE71921EAE70E
:101C4000F8B50446002855D00E784F78E6B900F56F
:101C5000A9550C352B6828461B69984728B32B6873
:101C600028461B6C984700B3A7B1012128460DF008
:101C700023FC022E1CD1D4F8AC10A1B10139C9B299
:101C80002046FFF76DFF0EE0012E0ED100F5AE5598
:101C90001435DFE7394628460DF00EFC2368294647
:101CA000DB69204698470020F8BD002FE1D1FAE714
:101CB000042E06D1D4E92A31013B9942F3D20131F5
:101CC000DDE7062EEFD102F083FD90F86F3304F5C7
:101CD0009F54043443B102F07BFD02F0ADFE0021BD
:101CE00020460DF0E9FBDEE702F072FD02F06EFE29
:101CF0000121F5E70120D7E738B5094B094D03600D
:101D0000044640F8705F0BF00FFF204640F8385F44
:101D10000BF00AFF20460BF007FF204638BD00BF3E
:101D200064970208302E020810B50446FFF7E4FF5E
:101D30002046A82118F055FD204610BD70B5204B57
:101D4000036000F580551F4BC5F8E832044600F5E6
:101D5000975008300BF0E8FE04F59250FFF7CCFFE7
:101D600004F58C501830FFF7C7FF174BC5F87431D6
:101D700004F58B5014300BF0D7FE41F2CC0540F245
:101D80004C66635960191B68A83D9847B542F8D165
:101D900040F2BC65635960191B68383D9847B5F53A
:101DA0004F7FF7D14FF45075635960191B689847FE
:101DB000343DF9D120460BF0B7FE204670BD00BF80
:101DC000280A0208E02C0208882D02081A4B70B578
:101DD0000446036000F5AE501430FFF78DFF04F5A4
:101DE000A95004F580550C30FFF786FF134EC5F857
:101DF000F46404F5A75014300BF096FE04F5A550DA
:101E0000C5F8BC641C300BF08FFE0D4BC5F88C344C
:101E100004F5A4500C300BF087FE04F59F500430FD
:101E2000FFF76AFF04F1B000FFF788FF2046FFF7D5
:101E30009DFA204670BD00BFC8F80108302E020888
:101E4000E02C020808B50248FFF7C0FF08BD00BF3C
:101E5000CC04002010B50446FFF7B8FF204641F23D
:101E6000B06118F0BEFC204610BD10B50446FFF767
:101E700065FF204641F2343118F0B3FC204610BD16
:101E800008B598B109B9002008BD8269D0F81031B1
:101E900001FB023103699942B8BF1946436999426F
:101EA000A8BF1946CC3000F010FCECE70120EBE7AE
:101EB00008B516F0D7FDBDE8084016F0A5BCC0E98E
:101EC00000128360704781694B1E10B55942044669
:101ED000594100F5F2700DF0EFFAA169A1F10A0283
:101EE0005142514104F523700DF0E6FAA169A1F1C8
:101EF00064004142414104F54D70BDE810400DF0D1
:101F0000DBBA000037B504460D4674300BF0E8FD2F
:101F1000691C04F11C000BF0E3FDA91C04F2044051
:101F20000BF0DEFDE91C04F2AC400BF0D9FD04F02F
:101F300001F90546FFF7BCFF04F5AB6301460D4A06
:101F400000932846234604F0A2F904F0F3F805466E
:101F5000FFF7AEFF04F5AE63019303230146009340
:101F60002846054A234604F063F94FF0000003B009
:101F700030BD00BF811E0008D72200082DE9F04FB8
:101F800089B088461746DDE91212C0E90412BC4D3B
:101F9000DFF8FCA29942B8BF19462B68BFF35B8FEC
:101FA00091420E46A8BF164613F0010F04460CD10D
:101FB000284618F018FC40B1D4F854352846D3F818
:101FC000A030CAF8003018F01AFC0BF07FFE6FF05A
:101FD0007F4304F19405009300231A464146019083
:101FE00028460BF0F8F8284602210BF020FAB4F945
:101FF000A430DAF80010C91A08220023490828463C
:1020000004F11C090BF0AAFD494628460BF0ECFD33
:10201000012128460BF064FDDAF80030B4F9A28003
:10202000A3F1100B0BF004FF0368DB689847149BC7
:10203000029304F1CC050D2300EB800008F10808A1
:10204000019300905B4642460821284600F086FA3C
:102050004FF47F420421284600F02AFB0BF0E8FEF3
:1020600002220146284600F02DFC3146284600F0A9
:102070002CFB0BF0DDFE00260346052239462846E0
:1020800000F036FC494684F8E16028460BF0ACFDD0
:10209000012128460BF024FD04F57673059304F521
:1020A0007A7B04F5F277B4F9DC800323A8F1080801
:1020B000B8FBF3F802F08CFB059A52F8043F059246
:1020C00001210A22149D8D4200F2D58059460092CA
:1020D000092202F0F7FCB4F9D42008F1040306FB4E
:1020E0000322B4F9DA300792083306930BF0A0FE0E
:1020F0000168C9688847012500EB8000DDE90632E8
:102100005946CDE90080029538460DF0C5F8FFF735
:10211000CFFE5C4A0146234638460DF0D8F94946C1
:1021200038460BF061FD3B6838469B6829462E44D3
:102130009847032E0BF1090B07F1A807B3D10A2327
:102140000026A361294604F523700DF0B5F9029528
:102150000196B4F9F231083304F144070093DAF838
:1021600000303246314638460AF006FE3846042131
:102170000AF056FE38464FF6FF710AF061FE31460E
:1021800038460AF070FE494638460BF02DFD3146C0
:1021900038460BF0A5FCD4F85425B4F95630D2F8E3
:1021A000A4200093D21A02EBD272DAF800302A414E
:1021B000314648460BF0C0FBD4F85435D3F8A42080
:1021C00000923146324604F17400D3F8A0300AF090
:1021D0005AFED4F8543584F88950D3F8A4A00BF0F3
:1021E00027FE0368DB689847D4F85435D3F8A0205D
:1021F00002EBD27242FA05F781460BF019FE036832
:10220000DB68984704F20448043F09EB490900EBF6
:102210004000CDE90070AAEB090332461A49029545
:1022200040460DF039F8FFF743FE23460146154AB4
:1022300040460DF04CF9D4F85435B4F91424D3F8D1
:10224000A0100295B4F91634CDE9002304F2AC478E
:10225000B4F90E348A1A38460C490DF01DF8FFF710
:1022600027FE084A0146234638460DF030F930462D
:1022700009B0BDE8F08F0A256A43013122E700BFAB
:102280007C1B0020D7220008ECF80108EFF80108B9
:10229000801B002010B5044603F04CFF04F5AB6131
:1022A00004F00DF803F046FF04F5AE6103F0DBFF28
:1022B00004F11C000BF02BFC04F174000BF027FC64
:1022C00004F204400BF023FC04F2AC400BF01FFCC2
:1022D0004FF0000010BD2DE9F0410446002867D002
:1022E00000F204478F4216D1FFF7D4FF206858B19F
:1022F0000368D4E901125D682346A8472046FFF72A
:10230000E2FD0020BDE8F0816368002BF6D0A068F4
:1023100021469847F2E700F2AC458D4202D1FFF723
:10232000B9FFEBE700F5F273994202D10123A361F3
:10233000E4E700F52373994201D10A23F7E700F59A
:102340004D73994201D16423F1E791F800804E78F2
:10235000B8F1000F17D1443046B14FF47F410AF075
:102360006FFD012138460DF0A7F8C7E74FF47F0154
:102370000AF066FD314638460DF09EF83946204693
:10238000FFF7A9FFBAE7B8F1010FB7D144302EB17A
:10239000FF210AF055FD41462846E4E74FF47F014E
:1023A0000AF04EFD314628460DF086F82946E6E74C
:1023B0000120A7E7B0F908007047B0F90A0070479C
:1023C000B0F90C007047B0F90E007047B0F910007A
:1023D0007047B0F912007047407D704741757047F3
:1023E0002DE9F341089E04461D46B0F90A30B0F9C4
:1023F0000800301A0090EB1A04F1480090460F468E
:102400000AF027FAB4F90820B4F90A30B21A009297
:10241000EB1A4246394604F1B0000AF06EFE94F819
:1024200010317BB1B4F90820B4F90A30B61AEB1AAE
:102430004246394604F17800089602B0BDE8F04102
:102440000AF05BBE02B0BDE8F0812DE9F341089EC1
:1024500004461D46B0F90830B0F90A00301A009061
:10246000EB1A04F1480090460F460AF047FAB4F917
:102470000A20B4F90830B21A0092EB1A42463946E3
:1024800004F1B0000AF0D9FD94F810317BB1B4F931
:102490000A20B4F90830B61AEB1A4246394604F15C
:1024A0007800089602B0BDE8F0410AF0C6BD02B05F
:1024B000BDE8F08170B5044605291AD8DFE801F0BF
:1024C000030F191903170B4904F148000AF0CBFC5C
:1024D000236820469B6CBDE8704000211847006AC5
:1024E00028B10368D4E909125D682346A847002192
:1024F000EAE770BD8080800010B103689B681847D0
:102500007047000038B50C4B0C4D0360044640F892
:10251000B05F0BF009FB204640F8785F0BF004FB3E
:102520002046074B40F8483F0BF0FEFA20460BF0E0
:10253000FBFA204638BD00BF18F90108302E02080A
:10254000E02C020810B50446FFF7DCFF20464FF4EC
:102550008C7118F046F9204610BD00002DE9FF47A8
:102560000C9E01811F464FF0FF334364FB18194452
:10257000731E0E9D42811A440D9B81815B1BC2819B
:10258000C0E90E35044607824682012200210A2056
:102590008D4256DC226404F58070002D54D02D4A03
:1025A000009510211AF0EAFC002501232A4629464D
:1025B000CDE9015300963B4604F148000AF0DCFBEC
:1025C0000BF036FC04F1B0086FF07F4704F1E8012E
:1025D00001902B462A46404600970AF0FCFDD4E9BC
:1025E0000E3203EB0209D4F8E000B4F910A009F1AF
:1025F0000109AA4218BF09F10109FFF77DFFB4F9EB
:10260000C2305FFA89F9F61A00FB19A106EBD676FB
:102610002B467210490840460BF0A0FA0BF008FC5C
:102620002B46CDE900700C4904F178002A460AF0E7
:10263000D2FD23689B6C2946204604B0BDE8F047D4
:10264000184742430131A3E7044A10211AF096FCCF
:10265000AAE700BFF6F80108BF01020807F9010860
:10266000436F994210B5044609D048300AF0D8FBB0
:10267000236820469B6CBDE810400021184710BD20
:1026800010B5836EC0E90C12044690F82C000028A7
:1026900018BF114699420AD004F148000AF0D0FB55
:1026A000236820469B6CBDE810400021184710BDF0
:1026B00038B515460446FFF7D3FF294620464FF4A8
:1026C0007F42BDE83840FFF7DBBF436C8B4273B5F8
:1026D0000A4604462ED04164E56BB03004F1E801AF
:1026E00004F580735DB9009218220AF006FF236892
:1026F00020469B6C00219847012002B070BD266CDB
:1027000092FBF6F506FB1522002AB8BF5242CDE92E
:10271000005218220AF0F1FE636C002BE7DA226CFB
:1027200093FBF2F3002BE2D1A36B23442D2283F819
:10273000E620DCE70020E0E790F81031022B2DE9DD
:10274000F041044600F08580D0E90E72013B174449
:10275000B0F91050002A18BF013700F1B006042B61
:1027600000F29D80DFE803F02F9B03527C00D0F83D
:10277000E000FFF7C1FEB4F9C230B4F91220D21A5A
:10278000B4F98830A91EC91A94F8DC307B4300FBE9
:10279000131102EBD27230460023521049080BF09D
:1027A000DDF9B4F9BC50D4F8A800B4F9BE7004F156
:1027B0007806023510B10368DB68984700233A1A9F
:1027C0002946304643E0B0F9C230B0F91220B0F9E2
:1027D0008810D21AB0F98A30D21A691A02EBD27272
:1027E00000235210490878300BF0B8F9D4F8E00013
:1027F000B4F91050FFF780FE94F8DC30B4F986206D
:102800007B4300FB135100234908DAE7D0F8E000CE
:10281000FFF772FEB4F9C230B4F9122094F8DC105C
:10282000D21A794300FB115102EBD27200235210ED
:10283000490830460BF092F9B4F98830B4F9101019
:10284000B4F9BE20C91A4908002304F178000BF03E
:1028500085F9236820469B6CBDE8F04100211847AC
:10286000D0F8E000FFF748FEB4F9C230B4F9122006
:1028700094F8DC10D21A794300FB115102EBD272AA
:1028800000235210490830460BF068F9B4F9BC0037
:10289000B4F98810B4F9BE200023411AD5E7D0F866
:1028A000E000FFF729FEB4F9C230B4F91220D21AC1
:1028B00094F8DC3002EBD2727B4300FB13515210D0
:1028C0000023A1E770B500F1B00604461546304676
:1028D0000AF072FDE9B230460AF0A9FD2046FFF782
:1028E0002BFF236820469B6CBDE8704000211847F1
:1028F00070B500F1780604460D4680F8102119469F
:1029000030460AF059FD2946304600220AF0C8FD3B
:102910002046FFF711FF236820469B6CBDE87040FE
:102920000021184790F82C308B4210B5044611D086
:10293000D0E90C2380F82C1000290CBF1146194651
:1029400048300AF07DFA236820469B6CBDE81040B1
:102950000021184710BDC0E908128362704710B506
:10296000D8B109B9002010BD0379022B0DD84FF45E
:102970008C725343C2188468D2F8FC20B83301FB30
:1029800004211844FFF7A1FEECE7D0F80C3B1944F2
:1029900021EAE17100F6C820F4E70120E3E770B511
:1029A000044603F0C7FB04F5666103F088FC04F1FC
:1029B000B80510262B682846DB689847D5F84833B9
:1029C00005F55270DB689847D5F8903605F5D2606A
:1029D000DB689847A359A019DB6838369847B82EAA
:1029E00005F58C75E6D14FF43E6540F6D85663592F
:1029F0006019DB68A8359847B542F8D104F6C820BD
:102A00000BF085F804F529600BF081F804F61860E6
:102A10000BF07DF8D4F8500E0368DB689847D4F8C3
:102A2000540E0368DB6898474FF0000070BD00004B
:102A300073B5044600F1B80510262B6864219B6825
:102A400028469847D5F8483364219B6805F55270AD
:102A50009847D5F8903664219B6805F5D260984771
:102A6000A359A0199B68642138369847B82E05F5FC
:102A70008C75E2D14FF43E6540F6D8566359601923
:102A80009B686521A8359847B542F7D1642104F6C3
:102A9000C8200BF025F8642104F529600BF020F81C
:102AA000652104F618600BF01BF8D4F8500E03688B
:102AB00066219B689847D4F8540E036866219B688A
:102AC000984703F037FB0546FFF7F2F904F5666314
:102AD000014600932846044A234603F0D8FB4FF0F2
:102AE000000002B070BD00BF5F2900082DE9F04F63
:102AF0008DB083460D460BF09BF90368DB68984761
:102B000000EB80030593043B5B080893059B0833A7
:102B100009932B1D5C4606935F464FF0000ADBF8D5
:102B20005C2EDBF8583E92F8F823D3F8A010A94E9B
:102B3000002A14BF04220322A1F1080302920722F3
:102B400004F1B805019203EBD373059A00925B1070
:102B5000069A062091FBF0F12846FFF7FFFCFF22C2
:102B600004212846FFF7A4FD0BF062F9022201467A
:102B70002846FFF7A7FE5FFA8AF31946DBF85C0EDA
:102B8000079301F082FE01462846FFF79EFDDBF821
:102B90005C3E914A93F8F833002B08BF16460BF0C1
:102BA00047F93146034605222846FFF7A1FEFFF705
:102BB0007FF900231A4601462846FFF7CCFED4F8D9
:102BC000B830012128465B6C9847D4F8B8302846C5
:102BD0001B6B9847D4F8B83000F10408DB6A28462C
:102BE0009847DBF8583ED3F8A020D4F8B8300A92C2
:102BF00081461B6B284698470A9A131ADBF85C2E0D
:102C000092F8F8230721002A14BF0422032204F5B6
:102C10008066019108990292083B4A46304600912D
:102C20004146FFF79BFC6D4A02213046FFF740FD0D
:102C30000BF0FEF8012201463046FFF743FE00216B
:102C40003046FFF742FDDBF85C3E634A93F8F83309
:102C50006049002B08BF114688460BF0ADF841468D
:102C6000032203463046FFF743FED4F800343046D3
:102C70009B6A9847D4F8B8300B905B6B284698470E
:102C8000D4F800348146DB6B30469847D4F80034E2
:102C9000A9EB00099B6B30469847D4F800240A90B2
:102CA000D26B30469047DBF85C2E0B9992F8F823F4
:102CB000484E002A14BF0422032204F5E9680723C2
:102CC000CDE9000302920A9B4A464046FFF746FCC4
:102CD000424A02214046FFF7EBFC0BF0A9F8012223
:102CE00001464046FFF7EEFD00214046FFF7EDFCB0
:102CF000DBF85C3E384A93F8F833002B08BF1646E1
:102D00000BF05AF80322034631464046FFF7F0FD28
:102D10000799DBF85C0E01F077FD80460AF0D6FFDC
:102D20006FF07F4307F11006009300231A464146D7
:102D3000019030460AF04FFA022130460AF077FB44
:102D40003B699B690793D4F8B83028469B6A98473B
:102D50003B6981469B6B3046984700EBD07009EB8E
:102D6000D9734FEA6009C9EB6309D4F8B830284633
:102D7000DB6A9847D4F8B8308046DB6B2846984722
:102D80003B6900EBD07008EB6005DB6B3046984781
:102D900000EBD070A5EB60020023079D494630464A
:102DA000A847069B099A0AF1010A1344BAF1030FD6
:102DB00004F58C7407F1380706937FF4B0AE0BF579
:102DC0003A730BF6D8590BF6F3580BF53E6700260D
:102DD000079305E064F90108BE00020880808000C6
:102DE000DBF85C3E079893F8F833002B14BF41469C
:102DF0004946DBF8583E0891D3F8A04094FBFAF41A
:102E00007443231D0693DBF8E8325B6B9847DBF8CD
:102E1000582E0446D2F8A05095FBFAF50BF008F8AE
:102E20000268D2689047083D012300EB8000069AB3
:102E300008990293CDE9005004F1080338460CF0DC
:102E40002BFAFFF735F8002301461A4638460136BB
:102E50000CF03DFB032E09F1090908F10C0807F1FC
:102E6000A807BDD1DBF8583EBBF9EE2BD3F8A01074
:102E700005980090A1F1080300240BF6C82504264C
:102E800003EBD37301EBD1715B10CDE901642846EC
:102E900008324910FFF762FB3146FF222846FFF750
:102EA00007FC0AF0C5FF022201462846FFF70AFD8B
:102EB0004FF496712846FFF708FCDBF85C3E344E71
:102EC00093F8F823334BA24208BF1E460AF0B0FF26
:102ED0003146034605222846FFF70AFDFEF7E8FFC4
:102EE00001270146234622462846FFF734FD8BF88A
:102EF000DD7A0AF0EBFE0BF529656FF07F4623467D
:102F0000224601902449009628460AF064F9284692
:102F100002210AF08CFABBF9DA3ABBF9D20ABBF902
:102F2000D81A03EBD37300EB6300BBF9A23A03EBAF
:102F3000D372DBF8583ED3F8A03003EBD373C1EB68
:102F4000630101EBD171A0EB6202234639412846AF
:102F50000AF004FE0A23CBF8083039460BF6884005
:102F60000CF0AAFABBF9C050BBF9C2700AF060FFBE
:102F700008350837CDE9006008490BF618603B4674
:102F80002A460AF028F920460DB0BDE8F08F00BFB0
:102F900070F9010869F901087BF90108BF0102080D
:102FA00038B50446FEF7FEF91C4B236000254FF4AC
:102FB0007F420123C4E90D23C4E90F534FF0FF33CF
:102FC0006364C4E90855A56284F82C50256304F1B4
:102FD0004800FEF7E7F9124BA364C4E91A5584F8D8
:102FE0007050656704F17800FEF7EAF904F1B0006B
:102FF000FEF7E6F92946182204F1E8001AF088F8ED
:103000001022294604F580701AF082F884F81051D5
:1030100008F050FAC4F81401204638BD18F9010828
:10302000E02C0208017902292DE9F04198BF002126
:10303000044688BF012100F6C820FFF773FC04F1A5
:10304000B80600254FF6FF77E9B2D4F85C0ED6F843
:10305000448001F01AFC4FF47F42404514BF3946CA
:10306000FF213046FFF70CFB2179A1EB050CDCF1C9
:10307000000141EB0C0130460135FFF753FC032DF5
:1030800006F58C76E0D1A1684B1E5942594104F5F2
:103090003E600CF011FAA168A1F10A0251425141BF
:1030A00004F688400CF008FAA168A1F164004142DE
:1030B000414104F55360BDE8F0410CF0FDB900005A
:1030C0002DE9F041D0F85C3E93F8F923022A04463A
:1030D00000F618604ED193F8CC533649364B002297
:1030E000954218BF19460AF0DBF901F071FB237B0A
:1030F00090F88863B34202D0032B3ED02673D4F8F5
:103100005C3E93F88833012B4BD12C49D4F8500EF8
:103110000CF00FF92A49D4F8540E0CF00AF90027E4
:103120002646B846F9B2D4F85C0E01F0AEFB014673
:1031300006F58060FFF7C9FAD6F8FC10D6F84434DB
:103140000546C91A06F5E960FFF7BFFA01370543DE
:1031500048EA0505032F5FFA85F806F58C76E1D17C
:10316000B8F1000F02D02046FFF75CFF4FF00000DF
:10317000BDE8F08113490022B5E7012EBED104F16C
:10318000B8070025E9B2D4F85C0E01F07EFB0135EA
:1031900001463846FFF799FA032D07F58C77F1D1F0
:1031A000ACE7FEF739FAFEF7B1FCFEF735FAFEF7A9
:1031B000C1FCB4E78BF9010882F9010892F9010812
:1031C00096F90108BF01020800F53E63994273B504
:1031D000044608D10123A36000252046FFF722FF03
:1031E000284602B070BD00F68843994201D10A23F7
:1031F000F1E700F55363994201D16423EBE7D0F87E
:10320000503E8B4214D1D0F85C0E90F88833012BDD
:1032100043D10193D4F80C3B642253430093D4F878
:103220002C33D4F81422D4F8FC1002F0B1F9D3E70F
:10323000D0F8543E8B4217D1D0F85C3E93F88833D7
:10324000012B2AD100F1B8060025E9B2D4F85C0EB2
:1032500001F01BFB013501463046FFF736FA032D1E
:1032600006F58C76F1D1B7E700F6C82399420DD068
:1032700000F1B80399420CD000F5E87399420AD0E6
:1032800000F53A739942A7D1022300E0032323718A
:10329000A2E70023FBE70123F9E708259DE70000EB
:1032A0002DE9F843524B03600323037100260A23E0
:1032B0000446836006731030FEF782F804F148007C
:1032C000FEF77EF804F18000FEF77AF804F1B8000A
:1032D000FFF766FE04F5E870FFF762FE04F53A704A
:1032E000FFF75EFE04F58060FFF75AFE04F5A36069
:1032F000FFF756FE04F5C660FFF752FE04F5E960DD
:10330000FFF74EFE04F50660FFF74AFE04F678105C
:10331000FFF746FE04F52960FEF752F804F6C820D0
:10332000FFF73EFEDFF8D49004F53E6504F6D8576B
:103330006FF07F482846FEF735F8C5F80090C5F8CD
:10334000308085F8346085F83560C5E90866C5E9E0
:103350000A6605F13800FEF733F805F17000A8356C
:10336000FEF72EF8BD42E5D1224B03F1180618688E
:1033700059682A4603C20833B3421546F7D11A8862
:103380009B78AB701C4B2A8003F1240104F6F352A6
:1033900053F8040B42F8040B8B42F9D104F6186081
:1033A000FEF70EF8FEF738F900F5A9500C30C4F816
:1033B000500EFEF731F900F5AE501430C4F8540E3B
:1033C00008F078F8C4F8580E01F002FA002384F8E7
:1033D0006C3EC4F85C0EC4F8603EC4F8643EC4F8A9
:1033E000683EC4F8703EC4F8743E2046BDE8F883D9
:1033F000A8F9010878F4010893F401086497020819
:1034000010B50A4C2368BFF35B8FDB070CD4204652
:1034100017F0E9F940B10648FFF742FF054818F0F8
:10342000DFFD204617F0EBF9014810BD841B00209A
:10343000881B0020D1340008F8B5234B234E0360CD
:10344000C0F8186E044600F618600AF06DFB4FF4E1
:10345000536540F63837635960191B68A83D984793
:10346000BD42F8D104F6C820FFF74CF8C4F8906AC2
:1034700004F529600AF058FB40F678156359601985
:103480001B68A5F58C759847B5F5C66FF6D16359DD
:1034900060191B68A5F58C759847B5F53A7FF6D18C
:1034A000635960191B68A5F58C75984715F1600F75
:1034B000F6D18025635960191B68383D984715F18E
:1034C000280FF7D12046F8BDA8F90108302E0208D0
:1034D00008B50248FFF7B0FF08BD00BF881B0020F9
:1034E00010B50446FFF7A8FF204640F6786117F0B4
:1034F00078F9204610BD50B1037C022B01D9002081
:10350000704700EB8300436819444160F7E70120EE
:103510007047F8B5044602F00DFE04F582510431FF
:1035200002F0CDFE04F6A820FEF7B4FE04F1C007B9
:1035300004F5816618253B683846DB68984763596F
:103540006019DB68984733683046DB683835984740
:10355000C02D07F58C7706F1A806ECD14FF4DC6599
:1035600063596019DB68A8359847B5F5186FF7D12E
:1035700004F5C0600AF0CBFA04F5D5600AF0C7FA8A
:1035800004F5206004F580540AF0C1FA206B03684A
:10359000DB689847606B0368DB6898474FF0000072
:1035A000F8BD00002DE9F34700F580560446F36BA3
:1035B00093F8F923022A0BD193F8CC034849494BDD
:1035C0000022904218BF194604F5D56009F068FF43
:1035D000FEF722F8FEF79AFAFEF71EF8FEF7AAFAAF
:1035E00004F1C0070025E9B2F06B01F04EF9013596
:1035F00001463846FFF769F8032D07F58C77F2D1BD
:103600006568002D58D1A568002D57D1E5682DB308
:10361000022763695D4302F08DFDD0F88C3062694A
:10362000142B38BF142353433C2253430A22B3FBC9
:10363000F2F32FB9F26B92F8F923022A08BF6D4218
:103640004FF00008CDF800802A463946F06B01F0B3
:10365000E5FE04EB8707C5B2C7F80480F36B93F867
:10366000CB2304F5206A04F5C06904F5816804F5EC
:10367000966704F5AB661ABB93F86E2302BB93F80A
:10368000883303F0FD03012B1AD004F6A820FEF7BF
:1036900001FE50460BF0F4FE48460BF0F1FE4046AA
:1036A0000BF0EEFE38460BF0EBFE30460BF0E8FE7A
:1036B000284602B0BDE8F0870027AAE70127A8E75F
:1036C00050460BF0C1FE48460BF0BEFE40460BF0E4
:1036D000BBFE38460BF0B8FE30460BF0B5FEE7E710
:1036E0008BF9010882F901082DE9F04F8DB00446ED
:1036F0000D460A920AF09CFB0368DB68984700EBD2
:103700008003089304F581630693089B08330993AB
:103710002B1D079304F580532646A0464FF0000A60
:103720000593059A059BD26B9B6B92F8F823D3F80F
:10373000A000002A14BF042203220292072206F1ED
:10374000C005A0F108030192089A00920621079A89
:103750009B0093FBF1F390FBF1F12846FEF7FEFE90
:10376000FF2204212846FEF7A3FF0AF061FB022294
:1037700001462846FFF7A6F800212846FEF7A5FFD8
:10378000059BB14ADB6B93F8F813B04B002914BFCB
:10379000914699460AF04CFB4946034603222846C7
:1037A000FFF7A6F8FEF784FB00231A4601462846D9
:1037B000FFF7D1F8D6F8C03028465B6C0121984756
:1037C000059B5FFA8AF1D86B01F01EF883460AF078
:1037D0007DFA6FF07F4308F11809009300231A4621
:1037E00059460190484609F0F6FC0221484609F086
:1037F0001EFED8F818309B691F46D6F8C030284600
:103800009B6A9847D8F818208346926B48469047A1
:1038100000EBD0700BEBDB734110C1EB6301D6F80A
:10382000C0300B91DB6A28469847D6F8C020834603
:10383000D26B28469047D8F8183000EBD0700BEBCD
:10384000600BDB6B4846984700EBD070ABEB600237
:103850000B9900234846B847D6F8C03028461B6B62
:103860009847D6F8C0308346DB6A28469847059BC0
:103870009B6BD3F8A020D6F8C0300B921B6B074689
:1038800028469847D6F8C0108146C96B2846884715
:103890000B9A6F49A2EB09090125A9F108030BF165
:1038A0000402CDE90105009306983B460BF0F4FCB9
:1038B000FEF7FEFA00231A46014606980BF007FEB3
:1038C000069B099AA8330693079BAA441344BAF1AE
:1038D000030F06F58C7608F1380807937FF421AFC3
:1038E00004F53C7304F5186A04F5DC694FF0000830
:1038F0001F46059B9B6BD3F8A060059BDB6B93F881
:10390000F833143EB608002B40F097805146D4F8A7
:10391000F03206915B6B3846984783460AF088FA86
:103920000268D2689047321D08FB02F200EB80006B
:10393000069902950BF108030432CDE90060484670
:103940000BF0AAFCFEF7B4FA002301461A464846DB
:1039500008F101080BF0BBFDB8F1040F0AF10C0AE5
:1039600009F1A809C5D1012104F503600BF0A4FDFC
:10397000059BDB6B93F8F833002B61D1D4F8E83961
:10398000636101260296B4F9D2300193B4F9C830CC
:103990003049083B04F5C0650093B4F9CA300422ED
:1039A00028460BF079FCFEF783FA002301461A46FD
:1039B00028460BF08CFDB4F9C850B4F9CA800AF05F
:1039C00037FA083508F108086FF07F432A46214985
:1039D0000190009304F5D560434609F0FCFB0AF022
:1039E00027FA0368DB689847059B9B6B0546D3F86D
:1039F000A0700AF01DFA0368DB6898470A9B164915
:103A0000029604F52064083F05EB850500EB800075
:103A1000043B5B1BCDE90070042220460BF03CFC0C
:103A2000FEF746FA002301461A4620460BF04FFDEA
:103A30004FF000000DB0BDE8F08F0AF1300166E7ED
:103A4000D4F8F8399CE700BF64F90108BE00020809
:103A5000C4F90108BF010208C8F901082DE9F341C2
:103A600000F1C006044600F581671825B0463368AA
:103A700064219B6830469847635964219B686019AC
:103A800098473B6838469B68642138359847C02D75
:103A900006F58C7607F1A807E9D14FF4DC65635988
:103AA00060199B686421A8359847B5F5186FF6D161
:103AB0000323237400214046FEF734FF04F58055AC
:103AC000002104F5EC70FEF72DFF002104F53C7099
:103AD000FEF728FFEB6B93F8F933022B09D1652130
:103AE00004F5D56009F0FCFF632104F5C06009F01E
:103AF000F7FF662104F5206009F0F2FF286B0368E8
:103B000066219B689847686B036866219B689847A5
:103B100002F010FB0546FEF7CBF904F5825304339F
:103B2000014600932846044A234602F0B0FB4FF0BA
:103B3000000002B0BDE8F081F734000870B50A2338
:103B400000250446C0E90055C0E90255C0E9045506
:103B500083611C30FDF726FC334BE361C4E90F554C
:103B600004F14400FDF71EFC304B6364C4E91955B1
:103B700084F86C50256704F17400FDF713FC2C4B9E
:103B8000636704F19400FDF71BFC04F1CC00FFF720
:103B900007FA04F5F270FDF727FC264D04F52370B3
:103BA000FDF722FC04F54D70FDF71EFC95E80700BB
:103BB00004F5777383E8070005F10C0304F57A72C6
:103BC000243518685968164603C60833AB42324696
:103BD000F7D119889B78B370318004F20440FDF767
:103BE00003FC04F2AC40FDF7FFFB07F063FC00238D
:103BF00084F8643584F87C35C4F85405C4F8583525
:103C0000C4F85C35C4F86035C4F86835C4F86C3560
:103C1000C4F87035C4F87435C4F87835C4F8803504
:103C2000C4F88435204670BD842E0208E02C0208BA
:103C3000342D0208B8F4010810B50021044600F53F
:103C4000DC600BF039FC04F5F16000210BF034FC72
:103C500004F5036000210BF02FFC04F6D8000021CE
:103C6000BDE810400BF028BC2DE9FF4100F580565F
:103C70000446336B8B420D4600F0E480736B8B423D
:103C800000F0E08000F5C06399420CD1F06B90F831
:103C9000CC332BB101F0AEFB002004B0BDE8F081C5
:103CA00001F0B2FBF8E700F52060884229D194F8D2
:103CB000343A04F5816804F5966704F5AB659BB961
:103CC000F36B93F8881301290ED10BF0F5FB5E49D5
:103CD00040460BF02EFB5C4938460BF02AFB5A4954
:103CE00028460BF026FBD7E700210BF0E5FB5749F0
:103CF00040460BF01EFB554938460BF01AFB534962
:103D0000EEE704F6A828884519D004F5DC67B94227
:103D10001DD004F5F167B9422BD004F50367B94211
:103D200029D004F6D807B94227D004F1C000814257
:103D30003ED004F58163994271D100253BE0D4F86F
:103D4000B82B94F8B41AF06B01F066FDA4E70025D7
:103D50002046FFF771FF012138460BF0ADFBF36BF6
:103D600093F8F8335BB905F51E7554F82530636197
:103D700092E70125ECE70225EAE70325E8E705F5E8
:103D80001F75F2E701260021FEF7CCFD002104F5A6
:103D9000EC70FEF7C7FD002104F53C70FEF7C2FD94
:103DA00001212846FEF7BEFD267475E70226EAE7E4
:103DB0000026E8E7012594F8343AF06BE9B213B92C
:103DC00001F0FEFC68E700F01FFDF36B93F8F83399
:103DD000002B4FF48C7303FB054314BF0422032212
:103DE000D3F8043102920146194A1A48CDE900205D
:103DF00019481A4A08BF02464046FEF7BFF8FEF7C8
:103E000057F8002301461A464046FEF758F8C4F812
:103E1000B45A42F210714046FEF774F83CE704F5DC
:103E2000EC739942AED004F596639942C2D004F582
:103E30003C739942BAD004F5AB6399427FF42CAF3E
:103E40000225B8E7082028E76F1B0208C4F901081B
:103E5000806967FF80969800BE00020864F9010837
:103E60000346484A70B543F8042B00224260C3E978
:103E70000122032303740123044643611830FDF734
:103E80009FFA04F15000FDF79BFA04F18800FDF75A
:103E900097FA04F1C000FFF783F804F5EC70FFF720
:103EA0007FF804F53C70FFF77BF804F58160FDF7BF
:103EB0009BFA04F59660FDF797FA04F5AB60FDF701
:103EC00093FA04F5C060FDF78FFA04F5D560FDF7AD
:103ED00077FA04F5DC6504F518662846A835FDF781
:103EE00083FAB542F9D1284B03F1300618685968B6
:103EF0002A4603C20833B3421546F7D1234B04F5D3
:103F00001B6503F13006186859682A4603C2083356
:103F1000B3421546F7D11E4D95E80F0004F51E6615
:103F2000103586E80F0095E80F0004F51F6686E857
:103F30000F0004F52060FDF757FA04F6A820FFF7FC
:103F4000FDFDFDF769FB04F5805500F5A9500C3027
:103F50002863FDF761FB00F5AE501430686307F08D
:103F6000A9FAA86300F034FCE86302F05DFC0023CA
:103F700085F850302864C5E91133C5E91533EB6481
:103F8000204670BDE4F90108DFF401080FF50108CF
:103F900040F5010810B50A4C2368BFF35B8FDB07BF
:103FA0000CD4204616F01FFC40B10648FFF758FF1E
:103FB000054818F015F8204616F021FC014810BD00
:103FC000002A0020042A0020E140000810B5034B1D
:103FD0000360044609F0A8FD204610BD302E0208FB
:103FE00010B50446FFF7F2FF2046382116F0F9FB22
:103FF000204610BD38B5044600F2AC40FDF77CFE0B
:1040000004F20440FDF778FE4FF44D7563596019D2
:104010001B68A83D9847B5F59E7FF7D104F1CC0009
:10402000FEF770FA04F19400FFF7D0FF2046094B29
:1040300040F8743F09F078FD2046074B40F8443FB4
:1040400009F072FD2046054B40F81C3F09F06CFD5D
:10405000204638BD342D0208E02C0208842E0208C8
:1040600038B51E4B0360044600F6A820FFF7C2FFD8
:1040700004F52060FDF740FE40F6D805635960194D
:104080001B68A83D9847B5F5C76FF7D104F5D56013
:10409000FFF79CFF04F5C060FDF72EFE4FF4AB6503
:1040A000635960191B68A83D9847B5F5587FF7D14B
:1040B0004FF43C75635960191B68A5F58C759847DA
:1040C00015F1580FF6D18825635960191B68383DE2
:1040D000984715F1200FF7D1204638BDE4F90108C3
:1040E00008B50248FFF7BCFF08BD00BF042A002046
:1040F00010B50446FFF7B4FF204641F25C0116F00C
:1041000070FB204610BD4FF0000070474FF00000DC
:1041100070474FF00000704708B5806E032107F02C
:104120004DFE4FF0000008BD61B990F8313083F0CA
:10413000010380F83130012213B1034908F066BB56
:104140000249FBE7704700BF000000201400002078
:1041500010B5034B0360044609F0E6FC204610BD91
:104160008C24020810B50446FFF7F2FF20463421E4
:1041700016F037FB204610BD10B5034B0360044614
:10418000FDF7F4F8204610BD20FA010808B50248F2
:10419000FFF7F2FF08BD00BF543B002010B50446F6
:1041A000FFF7EAFF20466C2116F01BFB204610BDEE
:1041B00070B51E4E3568BFF35B8F15F0010532D127
:1041C000304616F010FB70B3194C1A4B20461022E3
:1041D00040F8043B02212B460AF09BFB2A46294665
:1041E0002B4604F124000AF094FB134BE564C4E968
:1041F00015344FF48063A4F85E30022384F86030F5
:104200000E4B63660E4B2360C4E9115584F8505081
:1042100084F85C5007F04EF9A0660A4817F0E0FEFB
:10422000304616F0ECFA024870BD00BF503B00204B
:10423000543B0020FC960208E5E6000800FA01085D
:1042400020FA01088D41000838B500230160838001
:104250008371044607F02EF9A06017F0FDFE0625D5
:1042600090FBF5F303FB15000130207117F0F4FE0D
:1042700090FBF5F303FB1500013001236071A3717E
:10428000204638BD2DE9F0410446006803681B6BE9
:1042900098470646206803689B6A98470746206847
:1042A00003685B6B9847054620680368DB6A98479C
:1042B00094F904202B18F01900EBD07003EBD373A2
:1042C00012EB60004FEA6303114604D4A568D5F8E9
:1042D000A050A84202DB52422271002194F905004D
:1042E000C318024604D4A568D5F8A450AB4202DB3B
:1042F000404260710022206803689C690123A44643
:10430000BDE8F0416047000038B504461D46084B43
:1043100008F056FA074B236084F8315025B9044958
:104320002A46204608F072FA01236375204638BDFC
:10433000000000204CFA01082DE9F0430022ADF501
:10434000177D05461146012343A8FFF7DDFFAB6E3D
:10435000BDF91E11D3F8A420BDF91C01DFF8588265
:10436000521AD3F8A010091A02EBD27201EBD171E4
:1043700000235210491043A809F0F0FB4FF0FF163C
:1043800001274FF4004143A809F0AAFB1E239622FF
:10439000CDE90067782117A808F022FE282117A888
:1043A000002409F09DFB4FF47F03CDE9003478220F
:1043B0001E23962121A808F013FE322121A809F01E
:1043C0008FFB4FF47F4978232222CDE900392E213B
:1043D000602305A808F0B8FD1E2105A809F080FBA0
:1043E0004C232222CDE900382E216E230EA808F09E
:1043F000ABFD1E210EA809F073FB09F0A3FC2246B9
:104400000A23CDE900606A4950A808F02FFF462131
:1044100050A809F065FB09F0CFFC22461423CDE932
:10442000008063495EA808F021FF50215EA809F0D2
:1044300057FB09F037FD4FF6FF7822461E235C49F3
:104440000190CDF800806CA808F010FF5A216CA8EC
:1044500009F046FB09F0B0FC22463223CDE90160A9
:104460005349CDF800907AA808F06CFF64217AA82F
:1044700009F036FB09F0F0FBFF26224646234C49A3
:104480000190009688A808F0F1FE6E2188A809F036
:1044900027FBCDE901670A262246642321460096C0
:1044A0002BA808F09BFC31462BA809F019FB14231C
:1044B000462200966421CDE9018737A808F08EFCDA
:1044C000142137A809F00CFB0C2006F09DFF394C95
:1044D00017A90646FFF7B8FE0C20266006F094FFE9
:1044E00021A90646FFF7B0FE0C20666006F08CFF9F
:1044F00005A90646FFF7A8FE0C20A66006F084FF7B
:104500000EA90646FFF7A0FE0C20E66006F07CFF31
:1045100050A90646FFF798FE0C20266106F074FFAE
:104520005EA90646FFF790FE0C20666106F06CFF60
:104530006CA90646FFF788FE0C20A66106F064FF12
:104540007AA90646FFF780FE0C20E66106F05CFFC4
:1045500088A90646FFF778FE0C20266206F054FF75
:104560002BA90646FFF770FE0C20666206F04CFF92
:1045700037A90646FFF768FEA662A86E4FF0FF3126
:1045800007F069F8C4B2002CF7D10A4E56F8040BB4
:104590000134FFF777FE0B2CF8D1A86E07F060F816
:1045A000A86E07F06CF801200AF025FBE5E700BFD4
:1045B0000AFA0108603A002000FFFF00034BD3F81D
:1045C0005C23034B1A615A62704700BFD82402086B
:1045D0000000002008B5806E03689B6898474FF084
:1045E000000008BD70B50446806E03681B6A9847DA
:1045F000B0B90625D4F8FC3333B194F8CB331BB9EA
:1046000094F86E33002B4CD00023012204F57F7107
:1046100020460AF04AF8C5B201200AF0EEFA40E05E
:10462000D4F8FC33C3B904F16C054FF4807204F57F
:104630008061284618F093FDA66E2846FBF7DAFD48
:10464000336802462946DB6930469847C5B2062DD5
:10465000CFD0222D24D1CDE794F8CB2312B994F8F2
:104660006E2302B394F87123EAB994F8D923AAB956
:104670000AF0BFFA04F59065C4F87C034FF0FF31EF
:1046800028460AF0D7F8012384F87133D4F8FC33B4
:10469000C4F8843328460AF0F2F8C4E7C4F8843337
:1046A0000025284670BD0625A7E7000010B5064B7B
:1046B0000360044600F590600AF0B4F82046FCF769
:1046C00055FE204610BD00BFE009020808B50248AB
:1046D000FFF7ECFF08BD00BFC43B002010B5044647
:1046E000FFF7E4FF204640F2746116F07AF82046A6
:1046F00010BD0000F8B5314B314F0446102240F890
:10470000043B222100230AF004F900238422202103
:1047100004F124000AF0FDF82A49C4E915144FF405
:104720008061A4F85E10022184F860102649616659
:1047300004F57F73254963640122002321604FF053
:104740008071C4E91232C4E9DD33C4E9DF3284F890
:10475000503084F85C20A366C4F86C13A4F870236E
:10476000C4F88433A4F8F623A4F8F83304F5906071
:104770000AF04EF897E80F0004F2844507F110069E
:1047800085E80F000FCE04F294450FC50FCE0FC57C
:1047900096E8070085E8070007F13C01502204F580
:1047A000986018F01CFE4FF4B27207F18C0104F50A
:1047B000A26018F014FE2046F8BD00BFFC96020867
:1047C00060F50108E5E60008B8000208E009020803
:1047D00010B50A4C2368BFF35B8FDB070CD420466F
:1047E00016F001F840B10648FFF784FF054817F0BE
:1047F000F7FB204616F003F8014810BDC03B00202F
:10480000C43B0020CD460008032928BF032100EB4C
:104810008100D0F8840470470B2928BF002100EBE9
:104820008100D0F894047047582928BF582101F519
:10483000A27150F821007047022970B505460C4658
:1048400021D800F590664FF0FF31304609F0F2FFB5
:1048500095F8F833002B42F2107308BF4FF47A73C7
:1048600007EE903A05EB840494EDE37AF8EEE77AEC
:10487000304667EE877AFDEEE77A17EE904A09F048
:10488000FEFF204670BD0024FBE7022970B50546F7
:104890000C4625D800F590664FF0FF31304609F000
:1048A000C9FF95F8F83305EB8404D4EDE67A94ED6E
:1048B000E37A002B42F2107308BF4FF47A7337EE9D
:1048C000677A07EE903AF8EEE77A304667EE877A35
:1048D000FDEEE77A17EE904A09F0D1FF204670BD51
:1048E0000024FBE7022970B505460C4621D800F5E7
:1048F00090664FF0FF31304609F09CFF95F8F83391
:10490000002B42F2107308BF4FF47A7307EE903A0F
:1049100005EB840494EDE97AF8EEE77A304667EE29
:10492000877AFDEEE77A17EE904A09F0A8FF204655
:1049300070BD0024FBE7022970B505460C4625D85A
:1049400000F590664FF0FF31304609F073FF95F89F
:10495000F83305EB8404D4EDE67A94EDE97A002B84
:1049600042F2107308BF4FF47A7337EE677A07EE9E
:10497000903AF8EEE77A304667EE877AFDEEE77A0E
:1049800017EE904A09F07BFF204670BD0024FBE73C
:1049900090F87123D0F8843322B9994202D190F86B
:1049A000D9037047994234BF54205520704700B551
:1049B000A3B000238DF80810012201A901938DF8FE
:1049C000093009F072FE23B05DF804FB10B504460F
:1049D00001F02AFF027972B916484FF400510BF02A
:1049E000EFF894F8D4336FF3000384F8D433012341
:1049F00084F86F3310BD01F017FF0379012B0CD140
:104A000094F86F33002BECD18B212046FFF7CFFFBA
:104A10000AF0EFF8C4F87803E3E701F005FF037943
:104A2000022BDED1034800224FF400510BF0C8F8EE
:104A3000E6E700BF0008024038B5044601F0F4FE86
:104A40000579BDB91E4801224FF400510BF0B8F8AA
:104A500084F86F53D4F88023C4F8842394F8D423C3
:104A6000002363F3000284F8713384F8D93384F8A7
:104A7000D42324E001F0D8FE0379012B0DD194F862
:104A80006F3333B194F8CB331BB18B212046FFF742
:104A90008EFF002384F86F33DCE701F0C5FE037955
:104AA000022B06D1064801224FF400510BF088F882
:104AB000E5E701F0B9FE94F86F33002BCAD038BD9A
:104AC0000008024073B5069D83EAE3741846A4EB20
:104AD000E37442F210739D420E46114612D1B4FBAC
:104AE000F5F305FB1344264ACDE90034254B13EAC0
:104AF000200338BF1346244A304618F03FFA3046A8
:104B000002B070BDB5F57A7F0DD1B4FBF5F305FBAE
:104B100013441B4ACDE900341A4B13EA200338BF73
:104B200013461A4AE8E7642D0DD1B4FBF5F305FBF3
:104B30001344134ACDE90034124B13EA200338BF63
:104B40001346134AD8E70A2D0DD1B4FBF5F305FB44
:104B500013440B4ACDE900340A4B13EA200338BF53
:104B600013460C4AC8E7064A064B009413EA200392
:104B700038BF1346084A304618F000FABFE700BFB6
:104B8000BF010208C1000208C3000208CF000208EA
:104B9000DB000208E7000208F30002082DE9F041FB
:104BA0000F4605463A21384618F0BAFA38B30023C2
:104BB00000F8013B17F01DFAC4B205F59268002613
:104BC00058F8041F3846FBF70BFB08B9F6B203E0B0
:104BD00001360B2EF4D1002695F88833B34203D169
:104BE00095F88923A2420CD013B9012385F8F63336
:104BF00085F8886385F889430120BDE8F081044683
:104C0000DBE70020F9E710B510460C4617F0EEF987
:104C100051EC100BFCF700F894ED007A07EE900AC7
:104C2000B4EE677AF1EE10FA16BF01200020C4ED51
:104C3000007A10BD10B510460C4617F0DAF922685C
:104C40000346824216BF01200020236010BD2DE9DB
:104C5000F04107460C46154602F10C08002629468D
:104C600022463846FFF7CFFF2C21002818BF064602
:104C7000204618F055FA20B10435454500F10104ED
:104C8000EDD13046BDE8F08190F8C83310B5044648
:104C900063B3D0EDE67AF5EE407AF1EE10FA0FD17B
:104CA000D0EDE77AF5EE407AF1EE10FA08D1D0EDCA
:104CB000E87AF5EE407AF1EE10FA14BF01230023F2
:104CC00094F8D02363F3C302002384F8D023C4F8FC
:104CD0009833C4F89C33C4F8A03394F8D03394F8D4
:104CE000C92362F3451384F8D03310BD00F5667212
:104CF000FFF7ADFF94F8D03360F3C30384F8D033EB
:104D0000EBE770B50E4604462C21304618F008FA41
:104D10000546002305F8013B324604F56F71204635
:104D2000FFF788FF28B194F8D23343F0010384F8E9
:104D3000D2332C21284618F0F3F90646002306F852
:104D4000013B2A4604F570712046FFF773FF28B136
:104D500094F8D23343F0020384F8D233324604F598
:104D60007C712046FFF766FF28B194F8D23343F0F8
:104D7000040384F8D23370BD70B50D4604462C216F
:104D8000284618F0CDF90646002306F8013B2A46CE
:104D900004F571712046FFF736FF28B194F8D1333E
:104DA00043F0020384F8D1332C21304618F0B8F9CF
:104DB000054610B1002305F8013B324604F5797130
:104DC0002046FFF720FF28B194F8D13343F00403C5
:104DD00084F8D13365B12A4604F57A712046FFF78D
:104DE00012FF28B194F8D13343F0040384F8D1338F
:104DF00070BD00002DE9F84300F5B6760446B949C8
:104E00003046FBF7EDF928B984F8710384F8D9032B
:104E1000BDE8F88394F86C31242B10D13D21304645
:104E200018F07EF9054650B1002305F8013B04F265
:104E30006D1017F0DEF80D284DD020285BD094F8C7
:104E40006C313C2B40F03581012384F8703309F03C
:104E5000D0FEA549C4F8780304F26D1018F092F959
:104E60000546F8B101462046FFF798FE28B194F8B0
:104E7000D03343F0020384F8D03394F8D83363B1CD
:104E800094F88833052B08D094F8D133002262F3CC
:104E9000C30384F8D82384F8D1339349002018F051
:104EA00071F90546914FDFF86482DFF864920026BD
:104EB00075BB002EACD194F8DA33002B94F8D133C3
:104EC00014BF0122002262F3861384F8D1339FD0ED
:104ED00084F8DA639CE7284694F8F87317F089F8A9
:104EE0008742ACD0284617F084F884F8F8030123F1
:104EF00084F8F733A3E7284694F8F97317F079F8A4
:104F000087429CD0284617F074F884F8F903EEE73E
:104F100005223946284618F010F9E8B994F8C83344
:104F200043B9012384F8C83394F8D03343F008031D
:104F300084F8D03304F56372691D2046FFF787FEBD
:104F400094F8D03360F3820384F8D03366490020AC
:104F500018F018F90546ABE705224146284618F037
:104F6000ECF830B994F8C833002BE3D084F8C803C8
:104F7000DAE703224946284618F0DFF820B9E91C91
:104F80002046FFF7F9FEE1E759490422284618F0C8
:104F9000D4F820B9291D2046FFF776FED6E75549FB
:104FA0000322284618F0C9F8A8B904F2DA36033506
:104FB00029463046FBF714F994F8D133003818BF6E
:104FC000012060F3861384F8D1333046294618F067
:104FD000FEF90126BAE748490222284618F0ADF842
:104FE00068B9AB78A3F131004342434184F8CC3334
:104FF00094F8D13343F0200384F8D133A6E73F4936
:105000000222284618F099F830BB94F8D033A4F85F
:10501000F40343F040030235A4F8EC0384F8D033E2
:10502000012240F2011115F8013B002B8ED04D2BCF
:105030000CD006D8432B0CD0462BF4D184F8F423A3
:10504000F1E7532BEFD1A4F8EC23ECE784F8F52338
:10505000E9E7A4F8EC13E6E729490322284618F00B
:105060006CF820B9E91C2046FFF74BFE6EE7254996
:105070000422284618F061F800287FF467AF2A79E7
:1050800094F8CB33A2F131014A424A419A4209D005
:1050900083F0010384F8CB3394F8D03343F0010359
:1050A00084F8D03394F8D43343F0010384F8D43334
:1050B0004CE75B2B42D104F26D15134904222846BC
:1050C00018F03BF830BB04F5697204F27111204608
:1050D000FFF7BDFD94F8D23360F3C30384F8D233F5
:1050E00096E600BFF9000208FC000208FE00020874
:1050F0000E010208130102081F1B02081701020813
:105100001A0102081E010208230102080401020814
:105110000A0102081F490422284618F00EF8002848
:105120007FF476AE04F56C7204F271112046FFF73D
:105130008EFD94F8D23360F30413CFE716490622AC
:10514000304617F0FAFF054670B904F5B97016F04D
:1051500050FF94F8D13384F8D90343F0100384F856
:10516000D13384F8715353E60C490622304617F0C8
:10517000E4FF00287FF44CAE04F5B97016F039FF57
:1051800094F8D13384F8D80343F0080384F8D1337A
:105190003EE600BF280102082D0102083401020882
:1051A00073B5002604468DF80760A06E03680DF104
:1051B00007011B699847C0B208B102B070BD9DF8E5
:1051C0000720182A02D1A4F86C63EEE70A2AB4F883
:1051D0006C3301D00D2A13D1002BF4D023440022CC
:1051E00004F5906583F86C214FF0FF31284609F0F3
:1051F00021FB2046FFF7FEFD284609F040FBE2E7D1
:10520000B3F5FE7F9FBF591C1B19A4F86C1383F8DC
:105210006C21CAE770B5044600F590664FF0FF3187
:10522000304609F007FBD4F880536B1C012B38BFC4
:105230000123C4F88033304609F021FB284670BDB5
:1052400070B590F8CB33A2B004460D46164613B99C
:1052500090F86E338BB194F8883373B12046FFF722
:10526000D9FF6A1E01900DF107017F3512F8013F49
:1052700001F8013F23B1AA42F8D10C2022B070BD41
:105280001A4601A9204609F010FA019B3360C0B20A
:10529000F4E7000007B5034901AAFFF7D1FF03B007
:1052A0005DF804FB190A020810B50446FFF778FF01
:1052B00009F09FFCD4F87833C01AB0F5967F81BF0F
:1052C000002384F88833012384F8703394F8CB33B7
:1052D00013B994F86E3313B194F8883343B994F842
:1052E00071332BB1002384F87133562384F8D933FA
:1052F00001F09AFA0379012B0DD194F86F2394F8F9
:10530000CB3372B994F8CB3363B994F86E334BB99D
:105310004FF0000010BD01F087FA0379022BF1D1A4
:10532000EBE773B394F8F6332BB12046FFF7B2FFE7
:10533000002384F8F63394F8CB331BB994F86E331A
:10534000002BE5D094F87033002BE1D009F051FC2C
:10535000D4F87433C01A6428DAD9A06E03681B6AC3
:1053600098470028D4D009F044FCC4F87403A06E18
:105370001549002384F8703303680122DB699847DC
:10538000C6E794F86E33002BCCD194F8D433DB0706
:1053900011D58B212046FFF70AFB09F02AFC94F86F
:1053A000D433C4F87403002262F3000384F870233A
:1053B00084F8D433A6E709F01CFCD4F87833C01A7B
:1053C000B0F5967FE5D89DE73B01020807B5034994
:1053D00001AAFFF735FF03B05DF804FB140A0208C9
:1053E00007B5034901AAFFF72BFF03B05DF804FBE3
:1053F0000E0A020807B5034901AAFFF721FF03B00F
:105400005DF804FB090A020807B5034901AAFFF782
:1054100017FF03B05DF804FB040A02082DE9F04110
:105420000229AEB004460D4617461E464FD890F8E6
:10543000CB331BB990F86E33002B4AD094F88833E5
:1054400003F0FD03012B44D12046FFF7E3FE94F85F
:10545000F8330D90002B0DF1140842F2107308BFC1
:105460004FF47A73009310223B4641462046FFF7E3
:1054700029FB09AF642300931022334639462046A6
:10548000FFF720FB94F8F8139DF8D000124B134A55
:10549000CDE9028704EB8505002818BF1A46D5F828
:1054A0008434CDE900230E4A0E4B0EA8002908BF14
:1054B00013460D4A802117F061FD00231A460DA9FD
:1054C000204609F0F2F8C0B22EB0BDE8F08102200B
:1054D000FAE70C20F8E700BF45010208490102087D
:1054E0003D010208410102084D0102082DE9F04189
:1054F0000229AAB004460D4617461E463ED890F82B
:10550000CB331BB990F86E33002B39D094F8883325
:1055100003F0FD03012B33D12046FFF77BFE94F807
:10552000F8330990002B0DF1140842F2107308BFF4
:105530004FF47A73009310223B4641462046FFF712
:10554000C1FA94F8F8130F4ACDE9018604EB8505FA
:105550000AA8D5F8843400930B4B002908BF1346E2
:105560000A4A802117F00AFD00231A4609A920469D
:1055700009F09BF8C0B22AB0BDE8F0810220FAE73A
:105580000C20F8E73D010208410102085E01020813
:105590002DE9F0431E4690F8CB33BBB00446884655
:1055A00091461BB990F86E33002B6DD094F8883378
:1055B00003F0FD03012B67D12046FFF72BFE94F883
:1055C000F833199042F21075002B14BF2B464FF49C
:1055D0007A7309AF00931022434639462046FFF7FD
:1055E00071FA94F8F833002B14BF2B464FF47A73FA
:1055F0000DF13408009310224B4641462046FFF738
:1056000061FA94F8F833002B08BF4FF47A750DF166
:10561000440900953346102249462046FFF752FAC6
:1056200015AD642300931022429B29462046FFF7C4
:1056300049FA94F8F8139DF80C01144B144ACDE97B
:105640000695002818BF1A46D4F88C34CDE9048397
:10565000D4F88834CDE90273D4F88434CDE900233A
:105660000C4A0D4B1AA8002908BF13460B4A80218B
:1056700017F084FC00231A4619A9204609F015F8F2
:10568000C0B23BB0BDE8F0830C20FAE74501020848
:10569000490102083D0102084101020874010208A3
:1056A0002DE9F043994690F8CB33BBB004460F4642
:1056B00090461BB990F86E33002B71D094F8883364
:1056C000013B022B6CD82046FFF7A4FD94F8F83379
:1056D000199042F21075002B14BF2B464FF47A73C9
:1056E00009AE009310223B4631462046FFF7EAF907
:1056F00094F8F833002B14BF2B464FF47A730DAF98
:1057000000931022434639462046FFF7DBF994F810
:10571000F833002B08BF4FF47A750DF1440800955B
:105720004B46102241462046FFF7CCF915AD6423C5
:1057300000931022429B29462046FFF7C3F99DF8AB
:105740001001184B184A94F8F8139DF80CC10597EE
:10575000CDE90685002818BF1A46144B1448BCF141
:10576000000F18BF1846D4F88834CDE90363D4F885
:1057700084340092CDE901030E4A0F4B1AA8002988
:1057800008BF13460D4A802117F0F8FB00231A4684
:1057900019A9204608F089FFC0B23BB0BDE8F083EC
:1057A0000C20FAE745010208490102088D010208B0
:1057B000910102083D010208410102089501020819
:1057C00030B50229A3B004460D461FD890F8CB335C
:1057D00013B990F86E33DBB194F88833012B17D1ED
:1057E0002046FFF717FD04EB85050A4AD5F88434F7
:1057F0000190802102A817F0C1FB00231A4601A9DD
:10580000204608F052FFC0B223B030BD0220FBE7B3
:105810000C20F9E7AF010208F0B50229A9B004464F
:105820000D46164639D890F8CB331BB990F86E3335
:10583000002B34D094F88833012B30D12046FFF769
:10584000E9FC94F8F8330790002B03AF42F2107391
:1058500008BF4FF47A73009310223346394620462E
:1058600004EB8505FFF72EF994F8F8130197D5F8A6
:1058700084340C4A00930C4B08A8002908BF134637
:105880000A4A802117F07AFB00231A4607A920460E
:1058900008F00BFFC0B229B0F0BD0220FBE70C20DE
:1058A000F9E700BF3D01020841010208C0010208FA
:1058B0002DE9F0410229AEB004460D4690461F4640
:1058C0005AD890F8CB331BB990F86E33002B55D0D3
:1058D00094F88833012B51D12046FFF79BFC94F8B4
:1058E000F8330D90002B05AE42F2107308BF4FF451
:1058F0007A7300931022434631462046FFF7E2F8C0
:105900000DF124086423009310223B4641462046B3
:10591000FFF7D8F805F5907594F8F823E7B1CDE9CD
:10592000016804EB850516496B680093154B0EA8BA
:10593000002A18BF0B46144A802117F01FFB0023D2
:105940001A460DA9204608F0B0FE349B0D9A1A6045
:10595000C0B22EB0BDE8F08104EB850501966B68FE
:1059600007490093074B0EA8002A18BF0B46074AA9
:10597000802117F003FBE2E70220EAE70C20E8E7CA
:10598000410102083D010208D4010208E2010208B7
:105990002DE9F0410229AAB004460D4617461E46DD
:1059A0003FD890F8CB331BB990F86E33002B3AD028
:1059B00094F88833012B36D12046FFF72BFC94F85E
:1059C000F8330990002B0DF1140842F2107308BF50
:1059D0004FF47A73009310223B4641462046FFF76E
:1059E00071F894F8F813114ACDE9018604EB8505A6
:1059F0000AA8D5F8843400930D4B002908BF13463C
:105A00000C4A802117F0BAFA00231A4609A9204649
:105A100008F04BFE309B099A1A60C0B22AB0BDE86C
:105A2000F0810220FAE70C20F8E700BF3D010208F0
:105A300041010208ED0102082DE9F0410229AAB056
:105A400004460D4617461E463FD890F8CB331BB987
:105A500090F86E33002B3AD094F88833012B36D16E
:105A60002046FFF7D7FB94F8F8330990002B0DF18F
:105A7000140842F2107308BF4FF47A730093102297
:105A80003B4641462046FFF71DF894F8F813114AAB
:105A9000CDE9018604EB85050AA8D5F88434009386
:105AA0000D4B002908BF13460C4A802117F066FAF7
:105AB00000231A4609A9204608F0F7FD309B099AF1
:105AC0001A60C0B22AB0BDE8F0810220FAE70C20CB
:105AD000F8E700BF3D01020841010208FF0102088A
