:020000040800F2
:100000000000022051200208F1160208F31602082F
:10001000F5160208F7160208F9160208000000009B
:10002000000000000000000000000000F1080208CD
:10003000FB1602080000000081090208FD160208F4
:10004000A1200208A1200208A1200208A120020884
:10005000A1200208A1200208A1200208A120020874
:10006000A1200208A1200208A1200208A120020864
:10007000A1200208A1200208A1200208A120020854
:10008000A1200208A1200208A1200208000000000F
:10009000000000000000000000000000A120020895
:1000A000A1200208A1200208A1200208A120020824
:1000B000A1200208A1200208A1200208A120020814
:1000C000A1200208A1200208A1200208A120020804
:1000D000A120020815170208A12002080000000054
:1000E000A1200208A1200208A120020800000000AF
:1000F000000000000000000000000000A120020835
:100100000000000021170208A1200208A120020817
:1001100000000000000000000000000000000000DF
:10012000A1200208A12002082D1702083917020891
:10013000A1200208000000000000000000000000F4
:100140000000000000000000000000004517020849
:1001500051170208A12002085D170208A120020819
:10016000A1200208A12002080000000000000000F9
:10017000000000000000000000000000000000007F
:1001800000000000A12002080000000000000000A4
:08019000A1200208A1200208D1
:1001A00010B5054C237833B9044B13B10448AFF3B1
:1001B00000800123237010BD100300200000000008
:1001C000306D020808B5034B1BB103490348AFF378
:1001D000008008BD0000000014030020306D0208FC
:1001E00010F8012B11F8013B012A28BF9A42F7D0E1
:1001F000D01A7047034613F8012B002AFBD1181AB6
:1002000001387047000000000000000000000000FE
:1002100001F0FF01102A2BDB10F0070F08D010F8B7
:10022000013B013A8B422DD010F0070F42B3F6D1BB
:10023000F0B441EA012141EA014122F007047FF0D4
:1002400000070023F0E80256083C85EA010586EA2B
:10025000010685FA47F5A3FA87F586FA47F6A5FA67
:1002600087F68EB9EED1F0BC01F0FF0102F0070273
:1002700032B110F8013B013A83EA010313B1F8D11E
:100280000020704701387047002D06BF35460338FF
:10029000073815F0010F07D1013015F4807F02BF38
:1002A000013015F4C03F0130F0BC0138704700BF89
:1002B00081F0004102E000BF83F0004330B54FEA17
:1002C00041044FEA430594EA050F08BF90EA020F84
:1002D0001FBF54EA000C55EA020C7FEA645C7FEA17
:1002E000655C00F0E2804FEA5454D4EB5555B8BF3A
:1002F0006D420CDD2C4480EA020281EA030382EAAB
:10030000000083EA010180EA020281EA0303362D3C
:1003100088BF30BD11F0004F4FEA01314FF4801C0F
:100320004CEA113102D0404261EB410113F0004F21
:100330004FEA03334CEA133302D0524263EB4303D8
:1003400094EA050F00F0A780A4F10104D5F1200E76
:100350000DDB02FA0EFC22FA05F2801841F10001D1
:1003600003FA0EF2801843FA05F359410EE0A5F1A5
:1003700020050EF1200E012A03FA0EFC28BF4CF0D6
:10038000020C43FA05F3C01851EBE37101F000458C
:1003900007D54FF0000EDCF1000C7EEB00006EEB99
:1003A0000101B1F5801F1BD3B1F5001F0CD3490823
:1003B0005FEA30004FEA3C0C04F101044FEA44527A
:1003C00012F5800F80F09A80BCF1004F08BF5FEA01
:1003D000500C50F1000041EB045141EA050130BDE1
:1003E0005FEA4C0C404141EB0101013C28BFB1F5F3
:1003F000801FE9D291F0000F04BF01460020B1FA3E
:1004000081F308BF2033A3F10B03B3F120020CDA10
:100410000C3208DD02F1140CC2F10C0201FA0CF0EE
:1004200021FA02F10CE002F11402D8BFC2F1200C53
:1004300001FA02F120FA0CFCDCBF41EA0C01904009
:10044000E41AA2BF01EB0451294330BD6FEA040452
:100450001F3C1CDA0C340EDC04F11404C4F120023D
:1004600020FA04F001FA02F340EA030021FA04F34F
:1004700045EA030130BDC4F10C04C4F1200220FAA6
:1004800002F001FA04F340EA0300294630BD21FAE4
:1004900004F0294630BD94F0000F83F4801306BFAA
:1004A00081F480110134013D4EE77FEA645C18BF9E
:1004B0007FEA655C29D094EA050F08BF90EA020F35
:1004C00005D054EA000C04BF1946104630BD91EA2D
:1004D000030F1EBF0021002030BD5FEA545C05D130
:1004E0004000494128BF41F0004130BD14F580046F
:1004F0003CBF01F5801130BD01F0004545F0FE41E3
:1005000041F470014FF0000030BD7FEA645C1ABF17
:10051000194610467FEA655C1CBF0B46024650EA4E
:10052000013406BF52EA033591EA030F41F400217A
:1005300030BD00BF90F0000F04BF0021704730B500
:100540004FF4806404F132044FF000054FF00001D5
:1005500050E700BF90F0000F04BF0021704730B596
:100560004FF4806404F1320410F0004548BF40426B
:100570004FF000013EE700BF42004FEAE2014FEAC0
:1005800031014FEA02701FBF12F07F4393F07F4F9B
:1005900081F06051704732F07F4208BF704793F09E
:1005A0007F4F04BF41F40021704730B54FF46074B1
:1005B00001F0004521F000411CE700BF50EA0102B4
:1005C00008BF704730B54FF000050AE050EA01025D
:1005D00008BF704730B511F0004502D5404261EBCD
:1005E00041014FF4806404F132045FEA915C3FF40E
:1005F000D8AE4FF003025FEADC0C18BF03325FEAAB
:10060000DC0C18BF033202EBDC02C2F1200300FA5B
:1006100003FC20FA02F001FA03FE40EA0E0021FA80
:1006200002F11444BDE600BF70B54FF0FF0C4CF46E
:10063000E06C1CEA11541DBF1CEA135594EA0C0F20
:1006400095EA0C0F00F0DEF82C4481EA030621EA5B
:100650004C5123EA4C5350EA013518BF52EA033596
:1006600041F4801143F4801338D0A0FB02CE4FF048
:100670000005E1FB02E506F00042E0FB03E54FF078
:100680000006E1FB03569CF0000F18BF4EF0010E70
:10069000A4F1FF04B6F5007F64F5407404D25FEA6C
:1006A0004E0E6D4146EB060642EAC62141EA55511F
:1006B0004FEAC52040EA5E504FEACE2EB4F1FD0C61
:1006C00088BFBCF5E06F1ED8BEF1004F08BF5FEADF
:1006D000500E50F1000041EB045170BD06F0004691
:1006E00046EA010140EA020081EA0301B4EB5C043E
:1006F000C2BFD4EB0C0541EA045170BD41F4801136
:100700004FF0000E013C00F3AB8014F1360FDEBF5A
:10071000002001F0004170BDC4F10004203C35DA36
:100720000C341BDC04F11404C4F1200500FA05F3B9
:1007300020FA04F001FA05F240EA020001F000425A
:1007400021F0004110EBD37021FA04F642EB0601D0
:100750005EEA430E08BF20EAD37070BDC4F10C04FA
:10076000C4F1200500FA04F320FA05F001FA04F2BE
:1007700040EA020001F0004110EBD37041F10001AA
:100780005EEA430E08BF20EAD37070BDC4F12005B5
:1007900000FA05F24EEA020E20FA04F301FA05F21D
:1007A00043EA020321FA04F001F0004121FA04F2C5
:1007B00020EA020000EBD3705EEA430E08BF20EA95
:1007C000D37070BD94F0000F0FD101F000464000CF
:1007D00041EB010111F4801F08BF013CF7D041EA51
:1007E000060195F0000F18BF704703F00046520055
:1007F00043EB030313F4801F08BF013DF7D043EA26
:100800000603704794EA0C0F0CEA135518BF95EADB
:100810000C0F0CD050EA410618BF52EA4306D1D162
:1008200081EA030101F000414FF0000070BD50EA81
:10083000410606BF1046194652EA430619D094EA0B
:100840000C0F02D150EA013613D195EA0C0F05D1F5
:1008500052EA03361CBF104619460AD181EA030149
:1008600001F0004141F0FE4141F470014FF0000001
:1008700070BD41F0FE4141F4780170BD70B54FF09C
:10088000FF0C4CF4E06C1CEA11541DBF1CEA13551C
:1008900094EA0C0F95EA0C0F00F0A7F8A4EB0504FE
:1008A00081EA030E52EA03354FEA013100F08880F5
:1008B0004FEA03334FF0805545EA131343EA1263BE
:1008C0004FEA022245EA111545EA10654FEA002673
:1008D0000EF000419D4208BF964244F1FD0404F52C
:1008E000407402D25B084FEA3202B61A65EB030588
:1008F0005B084FEA32024FF480104FF4002CB6EB45
:10090000020E75EB030E22BFB61A754640EA0C00C4
:100910005B084FEA3202B6EB020E75EB030E22BF04
:10092000B61A754640EA5C005B084FEA3202B6EB45
:10093000020E75EB030E22BFB61A754640EA9C0004
:100940005B084FEA3202B6EB020E75EB030E22BFD4
:10095000B61A754640EADC0055EA060E18D04FEA92
:10096000051545EA16754FEA06164FEAC30343EA32
:1009700052734FEAC2025FEA1C1CC0D111F4801FFF
:100980000BD141EA00014FF000004FF0004CB6E7F8
:1009900011F4801F04BF01430020B4F1FD0C88BF97
:1009A000BCF5E06F3FF6AFAEB5EB030C04BFB6EBA2
:1009B000020C5FEA500C50F1000041EB045170BD95
:1009C0000EF0004E4EEA113114EB5C04C2BFD4EBC2
:1009D0000C0541EA045170BD41F480114FF0000E46
:1009E000013C90E645EA060E8DE60CEA135594EAC2
:1009F0000C0F08BF95EA0C0F3FF43BAF94EA0C0FC5
:100A00000AD150EA01347FF434AF95EA0C0F7FF439
:100A100025AF104619462CE795EA0C0F06D152EA8D
:100A200003353FF4FDAE1046194622E750EA410671
:100A300018BF52EA43067FF4C5AE50EA41047FF482
:100A40000DAF52EA43057FF4EBAE12E74FF0FF3CE7
:100A500006E000BF4FF0010C02E000BF4FF0010CB8
:100A60004DF804CD4FEA410C7FEA6C5C4FEA430C31
:100A700018BF7FEA6C5C1BD001B050EA410C0CBF80
:100A800052EA430C91EA030F02BF90EA020F0020E2
:100A9000704710F1000F91EA030F58BF994208BF49
:100AA00090422CBFD8176FEAE37040F00100704706
:100AB0004FEA410C7FEA6C5C02D150EA013C07D15D
:100AC0004FEA430C7FEA6C5CD6D152EA033CD3D0A8
:100AD0005DF8040B704700BF8446104662468C46A2
:100AE0001946634600E000BF01B5FFF7B7FF0028D5
:100AF00048BF10F1000F01BD4DF808EDFFF7F4FFFE
:100B00000CBF012000205DF808FB00BF4DF808ED88
:100B1000FFF7EAFF34BF012000205DF808FB00BFAB
:100B20004DF808EDFFF7E0FF94BF012000205DF8CD
:100B300008FB00BF4DF808EDFFF7CEFF94BF012082
:100B400000205DF808FB00BF4DF808EDFFF7C4FF7B
:100B500034BF012000205DF808FB00BF4FEA410CC4
:100B60007FEA6C5C02D150EA013C0AD14FEA430CA7
:100B70007FEA6C5C02D152EA033C02D14FF00000E4
:100B800070474FF0010070474FEA410212F5001222
:100B900015D211D56FF47873B3EB625212D94FEAC4
:100BA000C12343F0004343EA505311F0004F23FAAE
:100BB00002F018BF404270474FF00000704750EA03
:100BC000013005D111F0004008BF6FF000407047C0
:100BD0004FF00000704700BF4A0011D212F500121A
:100BE00011D20DD56FF47873B3EB62520ED44FEA85
:100BF000C12343F0004343EA505323FA02F0704705
:100C00004FF00000704750EA013002D14FF0FF3042
:100C100070474FF0000070474FEA4102B2F1E043E5
:100C200024BFB3F5001CDCF1FE5C0DD901F0004CD3
:100C30004FEAC0024CEA5070B2F1004F40EB830023
:100C400008BF20F00100704711F0804F21D113F14F
:100C50003872BCBF01F00040704741F480114FEA88
:100C60005252C2F11802C2F1200C10FA0CF320FA11
:100C700002F018BF40F001004FEAC1234FEAD3232E
:100C800003FA0CFC40EA0C0023FA02F34FEA430398
:100C9000CCE77FEA625307D150EA01331EBF4FF021
:100CA000FE4040F44000704701F0004040F0FE403C
:100CB00040F40000704700BF53B94AB9002908BF8B
:100CC00000281CBF4FF0FF314FF0FF3000F0BEB9DD
:100CD000ADF1080C6DE904CE00F03CF8DDF804E05D
:100CE000DDE9022304B0704738B500220023044632
:100CF0000D46FFF70BFF28B920462946BDE83840CE
:100D000000F00AB8204605F1004100F005F8404225
:100D100061EB410138BD00BFD0B50C4B0022064647
:100D20000F46FFF781FCFFF757FF0446FFF702FC71
:100D3000074B0022FFF778FC02460B463046394647
:100D4000FFF7BAFAFFF748FF2146D0BD0000F03D9B
:100D50000000F0412DE9F047089D8E460446884684
:100D6000002B4AD18A42174662D9B2FA82F64EB1B6
:100D7000C6F1200301FA06F820FA03F3B74043EA6C
:100D80000808B4404FEA174E1FFA87FCB8FBFEF183
:100D9000230C0EFB118843EA084301FB0CF29A4234
:100DA00009D9FB1801F1FF3080F0EA809A4240F245
:100DB000E78002393B449A1AA3B2B2FBFEF00EFB65
:100DC000102243EA024300FB0CFC9C4509D9FB18A6
:100DD00000F1FF3280F0D6809C4540F2D3803B4446
:100DE000023840EA0140A3EB0C0300211DB1F3409F
:100DF0000022C5E90032BDE8F0878B4205D90DB16C
:100E0000C5E9000100210846F5E7B3FA83F100299E
:100E100046D1734502D3824200F20581841A6EEBFB
:100E2000030201209046002DE5D0C5E90048E2E725
:100E3000002A00F09080B2FA82F6002E40F0A480E2
:100E40008A1A030C4FEA174E80B2BCB20121B2FBE2
:100E5000FEFC0EFB1C2243EA024304FB0CF29A4206
:100E600007D9FB180CF1FF3802D29A4200F2E08059
:100E7000C4469B1AB3FBFEF20EFB123340EA034357
:100E800002FB04F49C4207D9FB1802F1FF3002D2A6
:100E90009C4200F2CA8002461B1B42EA0C40A5E7B6
:100EA000C1F120068B4022FA06F71F430EFA01F427
:100EB00020FA06F32EFA06FE4FEA1749234300FAFA
:100EC00001F81FFA87FCBEFBF9F01C0C09FB10EEC1
:100ED00044EA0E4400FB0CFEA64502FA01F209D9D1
:100EE0003C1900F1FF3A80F09C80A64540F29980C1
:100EF00002383C44A4EB0E041FFA83FEB4FBF9F362
:100F000009FB13444EEA044403FB0CFCA44508D936
:100F10003C1903F1FF3E80F08280A4457FD9023B5B
:100F20003C4443EA0040A4EB0C04A0FB02EC644503
:100F30007346E14662D35FD05DB1B8EB030264EB68
:100F4000090404FA06F622FA01F31E43CC40C5E96F
:100F5000006400214FE7B1FBF2FC010C41EA0E41B5
:100F600080B240EA01423B4638463C46B846BE465F
:100F70002026B1FBF7F1A2EB080241EA0C4166E73B
:100F8000014618E710462CE7C6F120022EFA02F3BC
:100F9000B740B14020FA02F24FEA174E0A43B3FBC2
:100FA000FEF8BCB20EFB1833110C41EA034108FBFA
:100FB00004F9B04089454FEA104380B23ED9791810
:100FC00008F1FF3C01D289451FD8A1EB0901B1FB13
:100FD000FEF909FB04F80EFB191192B242EA014234
:100FE000424529D2BA1809F1FF31C4D24245C2D2D2
:100FF000A9F102013A44BEE7F0459DD2BEEB0203DF
:101000006CEB070C0138E14696E7A7EB0909494468
:10101000A8F1020CB1FBFEF909FB04F8DBE773460B
:101020007FE7504666E70846FDE63B44023A33E771
:10103000ACF1020C3B441CE749469CE7A1EB0901DB
:10104000C446B1FBFEF909FB04F8C4E7704700BFD2
:1010500003798B4228BF0431C91AC9B24171704764
:1010600008B503681B699847B0FA80F0400908BDCD
:1010700038B5124C236800255D622946204619F0D8
:101080003FFA2946204618F0BCFE226813699907EA
:10109000FCD50A48002118F0B4FE22680546136901
:1010A0009B07FCD50021054818F0ABFE0021044643
:1010B000024819F08BFA601B38BD00BF98DB012095
:1010C00010B5144B1A689403FCD59A6822F00302F9
:1010D00042F001029A60104A002414661A689201D4
:1010E000FCD45A6822F48002104358605A6822F0F7
:1010F0003F0211435960084B01221A66054A1368E2
:101100009B01FCD5936823F0030343F00203936033
:1011100010BD00BF003802400000474270B51021EA
:101120000020FFF7CDFF0F4D0F4E1F24FFF7A0FF4C
:101130002B6832680D49B2FBF1F28242C3F3C4035B
:101140000BD243B1013B2A6822F0F80242EAC30203
:10115000013C2A60EAD1184670BDFCD91F2BFAD099
:101160000133F0E700380240DC00002040420F006D
:1011700013B5FFF7D3FF044617F0E6F914F088FD26
:10118000114A136823F0F80343EAC40313604FF0D5
:10119000E02300221A615A619A610C4B0193019B72
:1011A000596862B60A4B1A6822F003021A601A687C
:1011B00042F001021A60019B1B6883F3088802B0A9
:1011C000BDE81040084700BF003802400000FF1F84
:1011D0000038014010B51F48FFF742FF08B1FFF784
:1011E000C7FF19214FF48000FFF76AFF09F0C0F92B
:1011F000194909F0E1F910F04DFA184A184910F0B0
:10120000D3FA14F09BF9036816495C6A164B002266
:10121000A04706F0BDFD1549002206F017FE144850
:10122000FFF71EFF30B10FF0E3FB0368BDE810408D
:101230001B6818470F48FFF713FF10B104F03AFC82
:10124000F3E704F011FF0C4904F0A8FF00F0D4FC10
:10125000EBE700BF480400202C03002044030020DB
:101260006403002028DC012038040020E0DB01209A
:1012700068040020580400209003002000BEFEE710
:10128000704700002DE9F0474349DFF86091434F74
:10129000434B4448DFF85881DFF858A1C9F80030C3
:1012A0001022C9E902120822FA603F4AB9600024FC
:1012B0004FF48066C2E900349060D6603B4A3C4EF1
:1012C00090600125C8E902050220C2E90034D0601F
:1012D000384AC9F80450C2E90215C2E90034364A56
:1012E000C8E90035C2E90035C7E900354FF480731D
:1012F000D3604FF06413CAF80430304BCAF80030A2
:101300002F4B9160CAF808304FF0051373602D4BD6
:10131000336006F10C002C4BB36013F0C1FD2B4B76
:101320002B4A1A602B4AC3F88420A3F888402A4B22
:101330002A4818604FF4F07229481C760321C3E94B
:1013400001124FF4A071C3E9031259610571C18004
:10135000244D0281C3E907A9C3E909872146224B2D
:1013600003604471C6600474C0F81240C0F81640AF
:10137000C0F81A40FFF76CFE4FF400404023C5E967
:1013800000034220C5E903462C726C6110F042F95B
:10139000E860BDE8F08700BF00000240780400204C
:1013A000AC18030800040240680400205804002020
:1013B0001C04002048040020380400201C190308E5
:1013C0003CDB0120D0180308A0D9012090030020A5
:1013D0006C19030830DD01206403002080A6020898
:1013E000440300202C03002058A602089804002083
:1013F000880400202C04002008B5074BD86810B1E1
:10140000012120F04EFE0548054B40F80C3BBDE89D
:10141000084013F04FBD00BF2C0300201C04002027
:10142000D01803084FF00000704700F5805090F886
:10143000C00E003818BF01208000704713F0CABBEF
:1014400038B568B30B784D78DBB900F5B254A369B1
:1014500018341B692046984788B1236820461B6CC6
:10146000984760B12946204614F0C2FB3DB9236875
:1014700020461B6C984710B1204614F0C8FB002092
:1014800038BD012B02D100F5BE54E0E7062BF6D1A2
:10149000002DF4D0036800F65841DB699847EEE769
:1014A0000220EDE708B51EF09FFEBDE808401EF0E3
:1014B0006DBD000010B5074B044640F8483B13F0E3
:1014C000F5FE04F1240013F047FD201D13F044FD48
:1014D000204610BD9819030810B50446FFF7EAFF2F
:1014E00020466C2120F0DDFD204610BD054A02603B
:1014F0000022C0E90122C0E90322C0E90522C2613D
:10150000704700BF80B1020810B50446FFF7EEFF38
:10151000044B23600023C4E9083384F82830E362D5
:10152000204610BD84AF020810B50446FFF7DEFF69
:10153000064B23600122002384F82C20C4E90833E1
:10154000A362236384F83430204610BDD4B002086F
:101550002DE9F8430446FFF7C9FF1C4B2360002523
:101560006FF07F43DFF8689023634FF001084FF07E
:1015700080774FF0FF36C4E90855C4E90A55A586BF
:1015800004F13800FFF7B2FFC4E91655C4E91B7631
:10159000C4F83890256684F86480A566A4F878506D
:1015A00004F17C00FFF7A2FFC4E92B5784F8A88060
:1015B000C4E92755C4F87C90C4F8A450C4F8B460BA
:1015C000A4F8BC502046BDE8F88300BFF419030816
:1015D00030AF020810B5034B0360044612F0D0FD93
:1015E000204610BDD4B0020810B50446FFF7F2FF44
:1015F0002046382120F055FD204610BD38B5044660
:10160000FFF774FF1C4B236000254FF47F4201233A
:10161000C4E90D234FF00041C4E90F536FF00043BC
:10162000C4E911134FF0FF33E364C4E90855A56220
:1016300084F82C50256304F15000FFF765FF04F196
:101640008000FFF771FF04F1B800FFF76DFF294636
:10165000182204F1F00023F0C7F91022294604F5FE
:10166000847023F0C1F984F8185110F013F8C4F80D
:101670001C01204638BD00BF2085020838B5094B43
:10168000094D0360044640F87C5F12F079FD204666
:1016900040F8385F12F074FD204612F071FD2046CC
:1016A00038BD00BFF419030830AF020810B5044676
:1016B000FFF7E4FF2046C02120F0F3FC204610BDD8
:1016C0002DE9F84304460026FFF710FFC4E9086639
:1016D000C4E90A662D4BDFF8C0902360266304F14D
:1016E000340504F5EA774FF0FF382846FFF7FEFE91
:1016F000C5F8009085F82060C5F82C8085F830602A
:10170000C5E909663435BD42EFD104F56576284652
:101710003835FFF709FFAE42F9D1354604F6941685
:101720002846C035FFF714FFAE42F9D130460025F8
:10173000FFF7DCFE164BC4F89439C4F8B45904F62C
:10174000B810FFF705FF04F67820FFF701FF04F655
:101750003830FFF7D9FE04F66830FFF7C7FE0D4BAF
:10176000C4F8683BC4F8885BC4F88C5BC4F8905B31
:1017700084F8945BC4F8985BC4F89C5B0FF08AFF14
:10178000C4F8A00B2046BDE8F88300BFC88C02084F
:101790002CB00208D8AF0208DCA602080A4B10B52C
:1017A000044640F8B83BFFF715FF04F18000FFF74F
:1017B00011FF2046054B40F8503F12F0E1FC204657
:1017C00012F0DEFC204610BD2085020884AF02081E
:1017D00010B50446FFF7E2FF20464FF4907120F069
:1017E00060FC204610BD000070B50A2300250446A9
:1017F000C0E90055C0E9025503611430FFF776FED9
:101800002E4B6361C4E90D5504F13C00FFF77CFEEB
:1018100004F16C00FFF76AFE294BE36604F18C00CB
:10182000FFF782FE04F1C400FFF7E8FE04F5F27052
:10183000FFF78EFE04F52970FFF78AFE04F5597054
:10184000FFF786FE1F4B93E8070004F2244585E866
:10185000070004F5866603F10C023C3310685168FA
:10186000354603C508329A422E46F7D104F58C60FE
:10187000FFF76EFE04F5A460FFF76AFE0FF00AFFA3
:10188000002384F8F03584F80836C4F8E005C4F87D
:10189000E435C4F8E835C4F8EC35C4F8F435C4F8D8
:1018A000F835C4F8FC35C4F80036C4F80436C4F87A
:1018B0000C36C4F81036204670BD00BF28B10208AF
:1018C000D8AF0208486D020838B5204B0360204BA2
:1018D000C0F8683B044600F6683012F051FC1D4B1E
:1018E000C4F8383B04F6383012F04AFC04F678208D
:1018F000FFF7C4FE04F6B810FFF7C0FE164BC4F89D
:10190000943904F6941012F03BFC40F6D405635968
:1019100060191B68C03D9847B5F5357FF7D14FF486
:101920005775635960191B68383D9847B5F5CE7FE8
:10193000F7D14FF4D075635960191B689847343D4F
:10194000F9D1204612F01CFC204638BDC88C020894
:10195000D8AF020884AF02082CB0020810B50446C4
:10196000FFF7B2FF204640F6A43120F09AFB204654
:1019700010BD000038B5044600F5A460FFF77EFEF8
:1019800004F58C60FFF77AFE4FF4597563596019BE
:101990001B68C03D9847B5F5927FF7D104F1C400AC
:1019A000FFF7FCFE04F18C00FFF714FE2046094B04
:1019B00040F86C3F12F0E4FB2046074B40F83C3FF8
:1019C00012F0DEFB2046054B40F8143F12F0D8FB26
:1019D000204638BDD8AF020884AF020828B10208FB
:1019E000284B70B50360044600F5C4501830FFF76B
:1019F000C1FF04F5BE501830FFF740FE04F5B850A3
:101A00001830FFF73BFE04F5B2501830FFF736FEF2
:101A100004F5B050FFF7DEFD41F2C85541F27846BB
:101A2000635960191B68383D9847B542F8D141F2B7
:101A30009035635960191B68A5F590759847B5F501
:101A40004D6FF6D104F6B850FFF7C4FD04F55860A9
:101A5000FFF7C0FD04F64850FFF7BCFD0A4BC4F881
:101A6000183D04F6185012F08BFB04F65840FFF7AF
:101A700005FE04F1B400FFF727FF2046FFF71AFD2B
:101A8000204670BDF484020884AF020808B50248FD
:101A9000FFF7A6FF08BD00BFAC04002010B5044648
:101AA000FFF79EFF20464FF4F75120F0FAFA204648
:101AB00010BD00004C4B70B510220446222140F8A6
:101AC000043B002313F06DFA00230822202104F1C7
:101AD000240013F066FA04F5F6530025636414231A
:101AE000C4E91253414B84F85050C4E915344FF403
:101AF0008063A4F86430022384F8663020463C4BAF
:101B0000A3663C4B84F85C5029464022256640F889
:101B10006C3B22F069FFC4E92B5504F1B400FFF7D8
:101B2000CFFD04F65840FFF713FD04F61850FFF7F9
:101B3000EBFC04F64850FFF7F7FC04F55860FFF79C
:101B4000F3FC04F6B850FFF7EFFC04F5A55604F5D6
:101B50005F651036284605F59075FFF74FFDB542D5
:101B6000F8D104F5B05628463835FFF7DDFCB5420C
:101B7000F9D12846FFF7D8FC04F5B2501830FFF72A
:101B8000E7FC04F5B8501830FFF7E2FC04F5BE504E
:101B90001830FFF7DDFC04F5C45004F5805518300B
:101BA000FFF722FE032385F8AC3E0FF073FDC5F866
:101BB000B00E06F0EDF8C5F8B40E04F055FAC5F80D
:101BC000B80E08F0D5FC002385F8D43EC5F8BC0E4D
:101BD000C5F8C83EC5F8CC3EC5F8D03EC5F8D83EDD
:101BE000C5F8DC3E204670BD981903086B4D01080E
:101BF000E0710208F484020810B50A4C2368BFF3B0
:101C00005B8FDB070CD4204620F04DFA40B106482C
:101C1000FFF750FF054821F033FE204620F04FFA31
:101C2000014810BDA8040020AC0400208D1A000853
:101C30002DE9F04F00F5805685B0D6F8B03E054648
:101C4000D3F8A4400F46002970D0083C032294FB2F
:101C5000F2F4D3F8A8B012F01DFC0368DB689847D3
:101C6000804612F017FC0368DB68984705F5B25907
:101C700009F1180900EB400008EB48084FF0010A91
:101C80002D49CDF808A0ABEB08030022CDE90040B8
:101C9000484613F00FFEFFF705FC002301461A46E5
:101CA000484613F0B0FF484613F06BFFE7B1B6F9B2
:101CB0006426CDF808A0B6F96A361F49CDE900437D
:101CC00005F5B8571837B6F962360532384613F0BD
:101CD000F1FDFFF7E7FB002301461A46384613F0F3
:101CE00092FF384613F04DFFD6F8B03E1249D3F8B4
:101CF000A42001230293B6F96A36CDE9004305F525
:101D0000BE551835B6F96236121B284613F0D2FDBF
:101D1000FFF7C8FB002301461A46284613F073FF5D
:101D2000284605B0BDE8F04F13F02BBF04EBD47488
:101D30006410043C8DE700BF7073020800F5805307
:101D400000F5B250D3F8B83E93F89033022B0CBF95
:101D500002490349183013F054BE00BFEC71020869
:101D6000F171020800F58052D2F8B82E92F8902353
:101D7000012A05D821B100F5B250183013F041BE48
:101D8000FFF7DCBF00F5805300F5BE50D3F8B82E46
:101D900092F89033052B00F1180008D192F8113415
:101DA0004F2B02D1054913F02CBE0549FBE7002B50
:101DB000F8D0092BF6D00349F5E700BF2F7E0208C3
:101DC000F5710208507B020800F58052D2F8B82E57
:101DD00092F89023012A05D121B100F5BE501830A8
:101DE00013F00FBEFFF7CEBF70B500F168030446D5
:101DF000002553F8042F8A4218D1D4F8B03004EBF0
:101E00008303D86E03681B69984704F1B400C4F8D3
:101E1000B050294605F096FED4F8B03004EB8303A9
:101E2000BDE87040D86E0368DB6818470135102D97
:101E3000DFD170BD70B504468AB004F5B1551835D0
:101E400003A81EF0A5FF04F5B056049B134A04F541
:101E500080542021284622F0F7FC294630460122F2
:101E600011F03CFED4F8B03ED3F8A420B4F91036FB
:101E700003EBD37302EBD2725C10C4EB620412F07A
:101E8000CDFA6FF07F430190009322461E2329462E
:101E9000304611F0D5FC0AB070BD00BFFC710208DD
:101EA000D0F8B03000EB830370B50446D86E0368F9
:101EB0000D461B699847C4F8B05004F1B400294698
:101EC00005F040FED4F8B03004EB8304E06E036804
:101ED000BDE87040DB68184773B500F658468E427F
:101EE00004460D460DD190F86D3C53B100F5805479
:101EF000D4F8B80E90F872336BB904F053FA01219C
:101F00000CE004F1B4039D420FD194F8E010204698
:101F1000FFF7C6FF05E004F07BFA0021304613F01E
:101F200067FE4FF0000002B070BDD4F8B03004EB93
:101F300083032946D86E03689B699847C0B2092875
:101F4000EFD104F5B25318339D420CD104F58054FF
:101F5000D4F8B80E90F89033022B14BF812182215F
:101F600004F011FADDE704F5BE5318339D42D8D1D1
:101F700004F58054D4F8B80E90F89013D0F8882364
:101F8000052913D190F81134C0F88C234F2B4FF052
:101F9000000380F8113480F8753301D11821DFE790
:101FA0000B49019301AA04F0D5FEBAE7002339B129
:101FB000092905D080F87533C0F88C231921CFE7A3
:101FC00080F8113480F87533C0F88C23E6E700BF41
:101FD00012720208F7B5044600F1B40504F5805604
:101FE000284605F046FC28220821D6F8B03ECDE967
:101FF000002100221146D3F8A4300027284605F01E
:10200000B7FDC4F8AC7012F093F939460346644A40
:10201000284605F029FD634AD4F8AC10284605F09F
:10202000BCFCD4F8AC707B1CC4F8AC3002F05AFD98
:1020300004EB8707F866D4F8AC7012F079F93946EA
:10204000594A0346284605F00FFDD4F8AC707B1CB6
:10205000C4F8AC3008F06AFF04EB8707F866D4F8E0
:10206000AC7012F065F939460346504A284605F02F
:10207000FBFCD4F8AC707B1CC4F8AC3001F0E4FD80
:1020800004EB8707D6F8B83EF86693F835349BB969
:10209000D4F8AC7012F04CF939460346444A28464D
:1020A00005F0E2FCD4F8AC707B1CC4F8AC300DF049
:1020B0007BFB04EB8707F866D4F8AC7012F038F9B4
:1020C00039463C4A0346284605F0CEFCD4F8AC70AD
:1020D0007B1CC4F8AC300CF085FD04EB8707F86678
:1020E000D4F8AC7012F024F939460346324A284637
:1020F00005F0BAFCD4F8AC707B1CC4F8AC3003F02B
:1021000069FC04EB8707D6F8B83EF86693F83534D7
:102110009BB9D4F8AC7012F00BF939460346274A44
:10212000284605F0A1FCD4F8AC707B1CC4F8AC3098
:102130000AF046FB04EB8707F866D4F8AC7012F09F
:10214000F7F839461E4A0346284605F08DFCD4F8B8
:10215000AC707B1CC4F8AC300EF0BEF804EB870703
:10216000D4F8AC20D6F8B03EF8660192282200924E
:1021700000221146D3F8A430284605F0F9FC284681
:1021800005F0A6FD0023214628461A4605F09CFDD1
:102190004FF4FA61284603B0BDE8F04005F029BBD2
:1021A00016720208140000201A7202082372020834
:1021B0002E7202083B720208487202085872020826
:1021C0005E7202082DE9F04F044689B004F580568E
:1021D00008F0CEF908F0F4F9D6F8B05E08F0C8F9C6
:1021E0008168003918BF012128460FF0EAFA96F8F5
:1021F000AC1ED6F8B00E0FF02AFED6F8B03E994AC3
:10220000C3F89C20D3F8A87012F044F90368DB6887
:102210009847054612F08CF80368DB689847D6F8B3
:10222000B03ED3F8A4300593824612F081F80268DC
:1022300092689047834612F07BF80268D268904714
:1022400005EB4505884A059B023F4FF0060804F65A
:1022500018597F1B4000002508FB1B33CDE90125E1
:102260000090A7EB4A024846294611F005F84FF4C2
:102270007A71484611F061FFD6F8B80E04F0C8F83C
:10228000D6F8B03ED3F8A4A012F052F803689B68C9
:102290009847B4F922BD814612F04AF803689B685A
:1022A00098470123029304F65847B4F92A3D6F4931
:1022B000019308FB00F00AF1FF3208FB19225B468C
:1022C0000090384613F0F6FA2A462B463846214647
:1022D00013F099FC3846294613F08AFC4FF47A71C2
:1022E000384611F02AFFB4F92A3DB4F922AD03EBC8
:1022F000D3730AEB630A12F01BF80368DB68984794
:10230000074612F015F86FF07F4904F6485804228A
:1023100057490190AAEB57034046CDF8009011F0C1
:102320008FFAB4F950BD12F003F803689B68984720
:10233000074612F0AFF803689B689847B4F9263D4A
:102340000693079012F0A6F80168C96888470590BF
:1023500012F0A0F8069B079A059904F5586A07EB56
:1023600087075A44023B5B1A3A444149CDE9009041
:10237000504611F065FAB4F9602C069212F0C4F8D8
:1023800003689B689847B4F9223D043307460593D8
:1023900012F0BAF8069A059B0190FF2104F6B85B8B
:1023A00000910B2101FB17225846314911F048FAE0
:1023B00040F2E931404611F0C0FE40F2EA315046A9
:1023C00011F0BBFE40F2EB31584611F0B6FE294643
:1023D0002046FFF72DFC2046FFF7FCFD12F01EF80B
:1023E00004F5B151CDE900902B462A46183104F589
:1023F000B05011F025FA04F16807D4F8AC30AB42C4
:1024000025D8E06E0023C4F8B0300368DB68984735
:1024100004F5F653083301934323009321462346E2
:10242000144AD6F8B40E05F032FD04F55F6504F5E4
:10243000A55410342846002105F5907500F0B5FC30
:10244000A542F7D14FF0000009B0BDE8F08F57F872
:10245000040FB4F9222D0368283A9B682821984775
:102460000135CAE7404040008080800016720208B3
:102470007073020841140008F8B500F58055044651
:10248000D5F8B80E90F8901303F095FE002201469F
:1024900004F6485011F022FBD5F8B80E90F811144C
:1024A00003F091FE0022014604F5586011F016FB7E
:1024B000D5F8B81E91F80924134623F0400381F89B
:1024C0000934C2F3801201F2124104F6B85011F03F
:1024D00005FB04F55F670026F1B2D5F8B80E03F0EE
:1024E000A5FE01360146384600F05FFC062E07F5D2
:1024F0009077F1D1D5F8B83E94F88C2C93F803344A
:1025000004F65840002A38D0002B0CBFFF214FF4AE
:102510007F4113F0B9FAD5F8B83E93F82F2400267E
:1025200083F82F64BAB1D4F8B03004EB830304F11C
:102530006807D86E03681B6998472046FFF74AFD75
:10254000D4F8AC30B3421ED8E06E0023C4F8B030EB
:102550000368DB689847D4F8B03004EB8304142197
:10256000E06E03685B699847D5F8B00E00F5C2507D
:1025700012F050FE4FF00000F8BD002B0CBF6FF0C2
:102580007F41FF21C5E757F8040FB4F9222D0368F6
:10259000283A9B68282198470136D1E708B558B1F9
:1025A00009B9002008BD0269D0F81031C43001FB20
:1025B000023100F0FAFBF4E70220F3E7C0E9001271
:1025C0008360704701694B1E10B55942044659415A
:1025D00000F5F27013F00CFB2169A1F10A025142DF
:1025E000514104F5297013F003FB2169A1F1640046
:1025F0004142414104F55970BDE8104013F0F8BA6A
:1026000032B901207047484301339342FBD17047F0
:1026100008460123F9E7000037B504460D466C3043
:1026200011F08BFD691C04F1140011F086FDA91C4A
:1026300004F58C6011F081FDE91C04F5A46011F033
:102640007CFD05F0A5FB0546FEF72CFF04F2E453E4
:1026500001460D4A00932846234605F047FC05F045
:1026600097FB0546FEF71EFF04F2FC53019303237C
:10267000014600932846054A234605F008FC4FF022
:10268000000003B030BD00BF9D250008172A0008D8
:102690002DE9F04F89B0C94D05921E462B68DFF831
:1026A00030B3BFF35B8F13F0010F04460F460CD11C
:1026B00028461FF0F8FC40B1D4F8E0352846D3F89E
:1026C000A430CBF800301FF0FAFC11F031FE6FF0AF
:1026D0007F4304F18C05009300231A46394601908C
:1026E000284611F0ADF828469DF8541011F0BDF9B8
:1026F000B4F99C30DBF80010C91A082200234908FD
:10270000284604F1140A11F05BFD5146284611F0E9
:102710009DFD0121284611F010FDDBF80030B4F9D1
:102720009A70A3F1100811F0B5FE0368DB689847B2
:10273000149B029304F1C40508370D2300EB8000BD
:102740003A460193009043462846082100F05EFA7D
:102750004FF47F420421284600F01AFB11F09AFE44
:1027600002220146284600F032FCDDE9121228461A
:1027700000F05AFB3146284600F017FB11F08AFEA4
:102780000027034605222846059900F036FC5146ED
:10279000284684F8D97011F059FD2846012111F01E
:1027A000CCFC04F58463049304F5866804F5F275A3
:1027B000B4F9D4900323A9F10809B9FBF3F903F0A4
:1027C00053FC149A06460A212046FFF719FF049A83
:1027D000009052F8043F049241461022304603F024
:1027E0005DFE4046FDF706FD059B754AC0F11001F0
:1027F000404422F029F8B4F9CC2009F1040307FB86
:102800000322B4F9D23007920833069311F042FE46
:102810000168C9688847012600EB8000DDE90632BF
:102820004146CDE900900296284613F043F8FEF7A2
:1028300039FE644A23460146284613F0E4F9284647
:10284000002113F0D5F92846032113F065F951460C
:10285000284611F0FBFC2B6828469B68314637441C
:102860009847032F08F1100805F1C005A0D1149A6C
:10287000022A28BF02220A212046FFF7C1FE20615A
:10288000C02000FB02400025314600F5F27013F035
:10289000AFF902960195B4F9F231083304F13C071F
:1028A0000093DBF800302A462946384610F0E4FC55
:1028B0003846042110F034FD38464FF6FF7110F011
:1028C00046FD2946384610F059FD5146384611F06C
:1028D000BDFC2946384611F030FCD4F8E025B4F9A7
:1028E0004E30D2F8A8200093D21A02EBD272DBF855
:1028F000003032412946504611F03CFBD4F8E03517
:10290000D3F8A820009229462A4604F16C00D3F897
:10291000A43010F047FDD4F8E03584F88160D3F896
:10292000A8A011F0B7FD0368DB689847D4F8E0353C
:10293000D3F8A42002EBD27242FA06F7814611F0D6
:10294000A9FD0368DB68984704F58C68043F09EB30
:10295000490900EB4000CDE90070AAEB09032A46C3
:1029600019490296404612F0A5FFFEF79BFD23464B
:102970000146144A404613F046F9D4F8E035B4F95C
:102980007024D3F8A4100296B4F97234CDE9002370
:1029900004F5A467B4F96A348A1A38460B4912F070
:1029A00089FFFEF77FFD074A01462346384613F0AC
:1029B0002AF9284609B0BDE8F08F00BF8C2300201B
:1029C00067720208172A00086B7202086E7202080A
:1029D0009023002010B5044605F0DAF904F2E45122
:1029E00005F09CFA05F0D4F904F2FC5105F06AFAFE
:1029F00004F1140011F0B8FB04F16C0011F0B4FB09
:102A000004F58C6011F0B0FB04F5A46011F0ACFB90
:102A10004FF0000010BDF8B5044600284BD000F57B
:102A20008C678F4215D1FFF7D5FF206850B103683E
:102A3000D4E901125D682346A8472046FFF7C2FD8E
:102A40000020F8BD6368002BF7D0A06821469847A6
:102A5000F3E700F5A4668E4202D1FFF7BBFFECE777
:102A600000F5F273994202D101232361E5E700F5F5
:102A70002973994201D10A23F7E700F55973994266
:102A800001D16423F1E70B784D7853B929463846D4
:102A900013F0AEF8002DD0D139462046FFF7BBFF2A
:102AA000CBE7012BC9D12946304613F0A1F8002D00
:102AB000C3D13146F1E70220C3E7B0F908007047FF
:102AC000B0F90A007047B0F90C007047B0F90E0079
:102AD0007047B0F910007047B0F912007047407DA0
:102AE0007047417570472DE9F341089E04461D4625
:102AF000B0F90A30B0F90800301A0090EB1A04F16E
:102B0000500090460F4610F096F9B4F90820B4F939
:102B10000A30B21A0092EB1A4246394604F1B80064
:102B200010F01EFE94F818317BB1B4F90820B4F906
:102B30000A30B61AEB1A4246394604F1800008966C
:102B400002B0BDE8F04110F00BBE02B0BDE8F0816C
:102B50002DE9F341089E04461D46B0F90830B0F94E
:102B60000A00301A0090EB1A04F1500090460F460C
:102B700010F0B6F9B4F90A20B4F90830B21A00928C
:102B8000EB1A4246394604F1B80010F089FD94F87A
:102B900018317BB1B4F90A20B4F90830B61AEB1A2F
:102BA0004246394604F18000089602B0BDE8F04183
:102BB00010F076BD02B0BDE8F081000070B50446AB
:102BC00005291AD8DFE801F0030F191903170B497B
:102BD00004F1500010F0D2FB236820469B6CBDE846
:102BE000704000211847006A28B10368D4E909122F
:102BF0005D682346A8470021EAE770BD8080800019
:102C000010B103689B681847704700002DE9FF4723
:102C10000446DDE90C651F464FF0FF30E0643818CC
:102C2000218101440E9BA181711E62810A44E281CF
:102C3000EA1AC4E90E2327826682012100204FF0A0
:102C40000A0C83426BDC216404F58470002B6AD08B
:102C5000009310211346374A21F0F6FD013504F1A7
:102C6000F0094846FDF7C6FAA8420CD004F1EF017E
:102C700000239D4294BF0022012201335201182BF0
:102C800001F8012FF5D1002501232A462946CDE977
:102C9000015300963B4604F1500010F0EDFA11F09C
:102CA000F9FB04F1B8086FF07F47494601902B46C5
:102CB0002A464046009710F0C3FDD4E90E3203EBDC
:102CC0000209D4F8E800B4F910A009F10109AA42F8
:102CD00018BF09F10109FFF793FFB4F9CA305FFA91
:102CE00089F9F61A00FB19A106EBD6762B4672106D
:102CF0004908404611F064FA11F0CCFB2B46CDE9AF
:102D000000700D4904F180002A4610F099FD2368F7
:102D10009B6C2946204604B0BDE8F04718470CFBE1
:102D200001F101308DE713461021044A21F08CFD9A
:102D300095E700BF75720208707302088672020878
:102D4000C36F994210B5044609D0503010F0E8FA2C
:102D5000236820469B6CBDE810400021184710BD39
:102D600010B5036FC0E90C12044690F82C0000283F
:102D700018BF114699420AD004F1500010F0E7FA4A
:102D8000236820469B6CBDE810400021184710BD09
:102D900038B515460446FFF7D3FF294620464FF4C1
:102DA0007F42BDE83840FFF7DBBF436C99420A46DB
:102DB000B8BF1A46836C9A42A8BF1A46C36C9342A6
:102DC00073B504462ED0C56BC26400F5847300F160
:102DD000F001B8305DB90092182210F0ACFE236803
:102DE00020469B6C00219847012002B070BD266CE4
:102DF00092FBF6F506FB1522002AB8BF5242CDE938
:102E00000052182210F097FEE36C002BE7DA226CD8
:102E100093FBF2F3002BE2D1A36B23442D2283F822
:102E2000EE20DCE70020E0E7C0E91112C16CFFF7FB
:102E3000BCBF2DE9F041D0E90E531D44002B18BF53
:102E4000013590F81831013B0446042B00F2AA80AA
:102E5000DFE803F03A3303618600B0F91060D0F880
:102E6000E800FFF7CDFEB4F9CA30B4F91220D21A47
:102E7000B4F99030B11EC91A94F8E4306B4300FBEA
:102E8000131102EBD27200235210490804F1B8006A
:102E900011F096F9B4F9C450D4F8B000B4F9C67082
:102EA00004F18006023510B10368DB6898473A1ACE
:102EB00000232946304611F083F9236820469B6C95
:102EC000BDE8F04100211847B0F9CA30B0F912202E
:102ED000B0F91010D21AB0F99230D21AB0F990307D
:102EE00002EBD272C91A521000234908803011F047
:102EF00067F9D4F8E800B4F91060FFF781FE94F8A0
:102F0000E430B4F98E206B4300FB136100234908C1
:102F100004F1B800CFE7B0F91060D0F8E800FFF78F
:102F20006FFEB4F9CA30B4F91220D21A94F8E43022
:102F30006B4300FB136102EBD2720023521049086D
:102F400004F1B80011F03CF9B4F99030B4F9101064
:102F5000B4F9C620C91A4908002304F18000AAE781
:102F6000B0F91060D0F8E800FFF74AFEB4F9CA30B3
:102F7000B4F91220D21A94F8E4306B4300FB1361C9
:102F800002EBD27200235210490804F1B80011F08C
:102F900017F9B4F9C400B4F99010B4F9C6200023AD
:102FA000411ADAE7B0F91060D0F8E800FFF728FE20
:102FB000B4F9CA30B4F91220D21A94F8E43002EB12
:102FC000D2726B4300FB1361521000239FE770B570
:102FD00000F1B80604461546304610F00BFDE9B284
:102FE000304610F042FD2046FFF723FF23682046BD
:102FF0009B6CBDE870400021184770B500F1800659
:1030000004460D4680F818211946304610F0F2FCAF
:1030100029463046002210F061FD2046FFF709FFE7
:10302000236820469B6CBDE870400021184790F84B
:103030002C308B4210B5044611D0D0E90C2380F817
:103040002C1000290CBF11461946503010F07FF9A2
:10305000236820469B6CBDE810400021184710BD36
:10306000C0E908128362704710B5D0B109B90020D9
:1030700010BD0379052B0ED84FF490725343C2183C
:103080008468D2F8AC2103F5B07301FB0421184425
:10309000FFF78BFEEBE7D0F8643F00F61870194499
:1030A000F6E70220E4E72DE9F041044604F070FE63
:1030B00004F5985104F032FF04F5B07504F11007DF
:1030C00000264FF490782B682846DB689847FEF777
:1030D00093FD08FB06F303F55F6203441044D3F845
:1030E000F03DDB689847D5F8C03605F5D860DB6859
:1030F00098473B683846DB6801369847062E05F549
:10310000907507F13807DED141F2380541F2782693
:1031100063596019DB68C0359847B542F8D104F6A9
:10312000187011F021F804F56E6011F01DF804F527
:10313000955004F58054183011F016F8D4F8F002C8
:103140000368DB689847D4F8F4020368DB689847A3
:103150004FF00000BDE8F08100F580532DE9F04FFD
:10316000D3F8FC32D3F83034062B8DB028BF0623B9
:103170000233B2FBF3F2A2F108030C1D0493834661
:1031800011F088F90368DB689847049B00EB800026
:10319000984207D211F07EF90368DB68984700EB8C
:1031A00080030493049B0694043B5B080793049BF1
:1031B0000833099300235E465F4605930BF5805460
:1031C000D4E9BE23D2F8A41093F83424D3F83034D1
:1031D0000598062B28BF06239842C0F0F7800BF510
:1031E00093580BF594570BF5815508F118081337D0
:1031F000183500264FF003094FF4907AD4F8FC32CA
:1032000093F83424D3F83034002A14BF39464146A9
:10321000062B28BF0623013B0AFB03F3D4F8F82250
:10322000069103F5B0705B44D2F8A420D3F8603166
:1032300092FBF9F2724304325B6B05925844984753
:1032400001230293049B0193D4F8F832D3F8A430FD
:1032500093FBF9F3083BDDE90521009300F1080336
:10326000284612F027FBFEF71DF9002301461A46F7
:10327000284612F0C8FC01362846032112F04CFC07
:10328000032E08F1090807F10C0705F1C005B5D1B7
:1032900011F04EF803689B689847D4F8F832B4F9F7
:1032A0004690D3F8A480054611F042F803689B6865
:1032B0009847A8F110034FF00A0808FB05F1052212
:1032C00000250BF61877CDE9012509F10809049AC4
:1032D000009208FB10334A4638460C31FFF796FC43
:1032E000FF2204213846FFF753FD11F0D3F80222E4
:1032F00001463846FFF76BFE42F210723846012154
:10330000FFF792FD4FF496713846FFF74EFDD4F863
:10331000FC32A84C93F83424A74BAA4208BF1C46A1
:1033200011F0B8F83246034621463846FFF765FEED
:10333000FEF7B8F82B4601462A4638460127FFF724
:103340008FFE8BF82D7F10F0F3FF0BF56E646FF09E
:103350007F462B462A46019098490096204610F059
:103360006FFA2046022110F080FBBBF92A3FBBF91F
:10337000221F03EBD37301EB6301BBF9F23E03EBB6
:10338000D372A1EB62022B460421204610F018FFF5
:103390000BF587503946CBF80880183012F028FC1E
:1033A000BBF96841BBF96A7111F074F80834CDE9D2
:1033B000006008370BF5955081493B46224618308E
:1033C00010F03EFA28460DB0BDE8F08F002A14BF79
:1033D00004220322A1F108030292072206F5B07528
:1033E000019203EBD373049A00925B10069ADFF804
:1033F000DC91062091FBF0F12846FFF707FCFF2245
:1034000004212846FFF7C4FC11F044F802220146CB
:103410002846FFF7DCFD9DF814A0D4F8FC025146C5
:1034200002F004FF01462846FFF7BFFCD4F8FC3247
:10343000644A93F83434002B08BF4A46904611F092
:1034400029F84146034603222846FFF7D6FDFEF73A
:1034500029F800231A4601462846FFF701FED6F850
:103460006031012128465B6C9847D6F860312846C8
:103470001B6B9847D6F86031011D0B915B6B28469A
:103480009847079BC31A0893D4F8F832D3F8A420BE
:10349000D6F860310A921B6B284698470A9A0B9916
:1034A000131AD4F8FC2292F83424002A14BF042200
:1034B00003220292082206F502680192079A0092FE
:1034C000083B4046089AFFF7A1FB3F4A02214046CD
:1034D000FFF75EFC10F0DEFF012201464046FFF7D9
:1034E00076FD00214046FFF760FCD4F8FC32354AF7
:1034F00093F83434002B18BF914610F08FFF03224D
:10350000034649464046FFF778FD5146D4F8FC0291
:1035100002F047FE814610F00BFF6FF07F4307F18A
:103520001008009300231A4649460190404610F0C7
:1035300087F90221404610F098FA3B699B6908938D
:10354000D6F8603128469B6A98473B6982469B6B58
:103550004046984700EBD0700AEBDA734FEA600AF6
:10356000CAEB630AD6F860312846DB6A9847D6F87A
:1035700060318146DB6B284698473B6900EBD07091
:1035800009EB6005DB6B4046984700EBD070A5EB7C
:1035900060020023089D51464046A847059B099AB2
:1035A00001330593069B134406F59076383706934E
:1035B00006E600BF9A72020893720208A57202081A
:1035C000707302088E72020880808000BD75020848
:1035D0002DE9F04F04468BB000F1100905464FF07D
:1035E000000800F58057D7F8FC32D3F83034062BAA
:1035F00028BF062398453AD341F2380541F2782690
:10360000635960199B686521C0359847B542F7D169
:10361000642104F6187010F090FD642104F56E60CA
:1036200010F08BFD04F595506521183010F085FDE4
:10363000D7F8F002036866219B689847D7F8F40230
:10364000036866219B68984704F0A2FB0546FDF7D6
:1036500029FF04F598530146009328463F4A234624
:1036600004F044FC4FF000000BB0BDE8F08FFEF713
:10367000C3FA4FF4907303FB08FBD5F8203805908C
:1036800005F5026A0BF55F6606449B6A504698474B
:1036900005F5B0730693D5F860310790DB6A06989C
:1036A0009847D5F8203809909B6B50469847D5F835
:1036B00020180890C96B50468847D7F8FC1291F83B
:1036C0003414002914BF0421032102910821DDE9EB
:1036D0000832CDE9000107993046FFF797FA204AF2
:1036E00002213046FFF754FB10F0D4FE01220146C0
:1036F0003046FFF76CFCD7F8FC321A4993F83424B3
:10370000194B002A08BF1946079110F087FE0322C3
:10371000034607993046FFF770FCD5F860310698EC
:103720009B6864219847059B5B446421D3F8F03D76
:1037300030469B689847D5F8203864219B685046EE
:103740009847D9F8003048469B686421984708F1AB
:10375000010805F5907509F1380944E7693000085A
:10376000808080008E720208BD750208F8B5204B7B
:10377000036000F580531F4EC3F8B862044600F59D
:103780009550183010F0FCFC41F2B81540F67877EF
:10379000635960191B68C03D9847BD42F8D104F6D3
:1037A0001870FDF7FBFFC4F8E06E04F56E6010F0D2
:1037B000E7FC4FF45C65635960191B68A5F59075CB
:1037C0009847B5F5E06FF6D1635960191B68A5F508
:1037D00090759847402DF7D14FF49475635960194F
:1037E0001B68383D984715F1280FF7D12046F8BDE2
:1037F00074850208D4B0020808B50248FFF7B6FF86
:1038000008BD00BF9823002010B50446FFF7AEFFA7
:10381000204641F218311EF044FC204610BD0179CB
:1038200005292DE9F84398BF0021044688BF0121EE
:1038300000F61870FFF7FBFB04F5B076002504F5E1
:1038400080594FF6FF77E9B2D9F8FC02D6F84C80E0
:1038500002F0ECFC4FF47F42404514BF3946FF2193
:103860003046FFF77DFA2179A1EB050CDCF1000170
:1038700041EB0C0130460135FFF7D9FB062D06F56B
:103880009076E0D1A1684B1E594204F58150594110
:10389000183012F0ADF9A168A1F10A02514204F505
:1038A00087505141183012F0A3F9A168A1F16400CA
:1038B0004142414104F58D501830BDE8F84312F003
:1038C00097B900002DE9F04700F580570446D7F876
:1038D000FC3293F8352400F59550022A00F11800C7
:1038E00033D193F804542F492F4B0022954218BF2F
:1038F000194610F0F3F802F0B7FB237B90F89063C1
:10390000B34202D0032B23D02673FEF775F9274963
:10391000FEF728FAFEF770F92549FEF755FA00255B
:10392000A0462E46D7F8FC02D0F83034062B28BF2C
:1039300006239D4208F5907923D316B12046FFF760
:103940006EFF4FF00000BDE8F0871A490022D0E773
:10395000012ED9D104F5B0780025D7F8FC02D0F8B3
:103960003034062B28BF06239D42CDD2E9B202F0A7
:103970005DFC01464046FFF718FA013508F59078DE
:10398000EBE7E9B2D9F88CA002F050FCAAEB0001F9
:1039900008F50260FFF709FA3043C6B20135C846A0
:1039A000C0E700BFB4720208AB720208BB72020823
:1039B000BF7202087073020800F5815318339942F0
:1039C000F7B5044608D10123A36000252046FFF780
:1039D00026FF284603B0F0BD00F5875318339942FF
:1039E00001D10A23F0E700F58D531833994201D134
:1039F0006423E9E700F58055D5F8F0328B4214D105
:103A0000D5F8FC0290F89033012B49D10193D4F8FA
:103A1000643F642253430093D4F8EC33D4F8CC22AF
:103A2000D4F8AC1103F014FBCFE7D5F8F4328B4295
:103A30001FD1D5F8FC3293F89033012B30D100F52B
:103A4000B0770026D5F8FC02D0F83034062B28BF1A
:103A500006239E42B9D297F82C3033B1F1B202F06E
:103A6000E5FB01463846FFF7A0F9013607F59077E8
:103A7000E8E700F6187399420FD000F5B072914252
:103A80004FF000030AD04FF490700133062B9CD006
:103A900000FB0325A942F8D100E00623237194E737
:103AA000092593E72DE9F84F624B03600623037164
:103AB0000A23836000230646037300F1100400F517
:103AC000B07520463834FDF72FFDAC42F9D106F52C
:103AD0000265204604F59074FDF790FDAC42F8D1E4
:103AE00006F56E65204604F59074FDF787FDAC423F
:103AF000F8D12046FDF718FD06F61870FDF77EFD9B
:103B000006F5815406F59358DFF834B1DFF834A197
:103B1000183408F1180800252046FDF7E7FC6FF07F
:103B20007F4323630127C4F800B084F8345084F83D
:103B30003550C4E90855C4E90A5504F138004FF07E
:103B4000FF39FDF7D3FCC4F838A0256684F864700B
:103B5000A56684F86C5084F86D5084F86E5084F833
:103B60006F70C4F87090A4F87850C4E9165504F149
:103B70007C00FDF7BBFCC4F87CA0C4F8A45084F81A
:103B8000A870C4F8AC5084F8B05084F8B15084F8F0
:103B9000B25084F8B370C4F8B490A4F8BC50C4E92F
:103BA0002755C0344445B7D1234B06F5805404F55E
:103BB0001E7203F1180718685968154603C50833C3
:103BC000BB422A46F7D119889B78AB701B4B2980E2
:103BD00004F2932203F1240153F8040B42F8040B7E
:103BE0008B42F9D106F595501830FDF79DFCFEF794
:103BF00003F800F5B2501830C4F8F002FDF7FCFFEE
:103C000000F5BE501830C4F8F4020DF043FDC4F8BE
:103C1000F80202F029FA002384F80C33C4F8FC02FD
:103C2000C4E9C033C4E9C433C4F808333046BDE83E
:103C3000F88F00BF74850208846D02089F6D02082A
:103C4000F419030830AF020810B50A4C2368BFF31B
:103C50005B8FDB070CD420461EF025FA40B10648E6
:103C6000FFF720FF05481FF00BFE20461EF027FA45
:103C7000014810BD9423002098230020F937000844
:103C800070B190F87030052B06D800EB8300036C00
:103C90000B44036400207047C36B0B44C363F9E714
:103CA000022070472DE9F843044604F071F804F54A
:103CB000A351103104F5805604F030F9201D10F0A6
:103CC00053FAD6F86404FEF785FE04F1780804F68A
:103CD00088074FF4E47540F6880963596019DB687A
:103CE0009847D8F800304046DB6898473B6838462C
:103CF000DB6805F5907598474D4508F1380807F1E0
:103D0000C007EAD14FF4606563596019DB68C035BC
:103D10009847B5F5885FF7D104F6085010F024FAFB
:103D200004F6C85010F020FA04F58C5010F01CFA7C
:103D300004F5955010F018FA04F59650183010F06C
:103D400013FA04F59C50183010F00EFAD6F8580407
:103D50000368DB689847D6F85C040368DB6898471B
:103D6000D6F860040368DB689847FDF745FF00213B
:103D7000FDF75EFF4FF00000BDE8F8832DE9F34743
:103D8000044604F58059FDF737FFFDF7D7FFFDF72F
:103D900033FFFDF7F7FFD9F86C3493F83524022A86
:103DA0000BD193F804047C497C4B0022904218BF4D
:103DB000194604F6C8500FF091FE04F5E47600258C
:103DC000D9F86C04D0F83034062B28BF06239D4266
:103DD0001DD304F13C03002753F8045F002D00F0CD
:103DE000B180636F03FB05F82FB990F83534022BCF
:103DF00008BFC8F1000804EB8706B36D002B11DA89
:103E0000002D14DB0123B3654EF660231DE0E9B2FB
:103E100002F00CFA01463046FEF7C7FF013506F501
:103E20009076CDE700F08580002D40F3888003F088
:103E3000AFFFD0F89030626F142B38BF1423534378
:103E40003C2253430A22B3FBF2F34FF0000ACDF8B1
:103E500000A0D9F86C044246F9B203F03DF8C6F868
:103E600040A0C5B2D9F86C3493F8253404F59656C1
:103E70001836002B6BD04A49304611F0C2FDD9F8F4
:103E80006C3493F8243404F59C571837002B60D019
:103E90004449384611F0B5FDD9F86C3403F21C439F
:103EA000D3ED007AFCEEE77A04F58C5017EE903AE9
:103EB00099B2FEF77AFFE36BABB1D9F8CC210A21B6
:103EC00001FB032104F58C50FEF76FFFD9F86C0459
:103ED0000023E36390F824342BB190F82524D9F81B
:103EE000CC1103F0C9FBD9F86C3493F8033404F611
:103EF000085804F688048BB3D9F86C3493F89033DF
:103F000003F0FD03012B2ED1404611F03AFE20466E
:103F1000C03411F036FEA045F9D1384611F031FE1B
:103F2000D9F86C3493F82434304673B311F044FE5E
:103F30002DE0002DCCBF01234FF0FF3363E74FF09E
:103F4000FF3360E70137062F7FF446AF8AE7164953
:103F500092E71649384611F054FDACE706F008FB2D
:103F60000379032BC8D0D9F86404FEF733FD40462B
:103F700011F022FE2046C03411F01EFEA045F9D1FA
:103F8000384611F019FE3046D0E711F0FAFD284608
:103F900002B0BDE8F08700BFB4720208AB7202083D
:103FA000C7720208CB720208C8720208D0720208F7
:103FB0002DE9F74F04460121043010F0BEF804F556
:103FC000E47604F6880704F17809B0464FF0000B58
:103FD000BA4604F58055D5F86C34D3F83034062B46
:103FE00028BF06239B4576D34FF46067E359E01959
:103FF0009B686421C0379847B7F5885FF6D10623E0
:1040000084F870303046002106F59076FFF70FF8FF
:10401000B245F7D1D5F86C3493F83534022B09D179
:10402000652104F6C85010F088F8632104F60850A2
:1040300010F083F804F58C566421304610F07DF8BA
:1040400000213046FEF7F3FF652104F5955010F08E
:1040500074F804F596506421183010F06EF804F5E9
:104060009C506421183010F068F8D5F86C34B3F81F
:104070003634DB070FD5FDF7BFFD0121FDF7D8FD75
:104080002149D5F85C0411F0BCFCD5F85C04036848
:1040900066219B689847D5F85804036866219B6899
:1040A0009847D5F86004036866219B68984703F039
:1040B0006FFE0546FDF7F6F904F5A35310330146EC
:1040C00000932846114A234603F010FF4FF00000EA
:1040D00003B0BDE8F08FD8F8003064219B684046FB
:1040E0009847D9F8003064219B68484698473B6858
:1040F00038469B68642198470BF1010B08F59078CE
:1041000009F13809C03766E7D6720208813C000819
:104110002DE9F04F8DB0CDE908120D1D044610F0C9
:10412000B9F90368DB689847099B1E1F04F58053A3
:10413000361AD3F86C34D3F83034062B28BF062354
:104140000233B6FBF3F6A6F10803049310F0A2F9CC
:104150000368DB689847049B00EB8000984207D215
:1041600010F098F90368DB68984700EB800304932C
:1041700004F688030693049B079508330A930023EB
:10418000A046A146059304F58055D5F86C34D5F8C2
:1041900068240598D2F8A41093F83424D3F8303466
:1041A000062B28BF06239842C0F0568104F5885993
:1041B00004F560674FF000084FF4907B4FF0010A60
:1041C000D5F86834D3F8A420D5F86C3493F83414B7
:1041D000143A9208002940F014824946D3F830344A
:1041E000062B28BF0623013B0BFB03F303F5E4700A
:1041F0002344CDE90512D3F8C83120445B6B9847BE
:10420000069A049B0599CDF808A002F1040C08FB5E
:104210000CFCCDE900230CF1040200F10803384640
:1042200011F048FBFDF73EF9002301461A463846D7
:1042300011F0E9FC08F101083846032111F06CFC8B
:10424000B8F1040F09F10C0907F1C007B8D1012139
:1042500004F5786011F0CCFCD5F86C3493F8343464
:10426000002B40F0D181D5F8683163674FF0010829
:10427000CDF80880B4F9DA310193B4F9D03170493E
:10428000083B04F608570093B4F9D23104223846AB
:1042900011F010FBFDF706F9002301461A463846D7
:1042A00011F0B1FCB4F9D071B4F9D2A110F0F2F868
:1042B0006FF07F4908370AF1080A019053463A46E1
:1042C00004F6C8505E49CDF800900FF0B9FAD5F861
:1042D0006834DDE90821D3F8A4304FF0000A0A441D
:1042E0000521CDE9011A03EBD3730499009104F57C
:1042F0008C5743FA08F3043A063B521A3846042115
:10430000FEF784FCFF2204213846FEF741FD10F041
:10431000C1F8022201463846FEF759FED5F86C3442
:104320003846B3F83A14FEF740FDD5F86C343846F9
:10433000B3F83824B3F83A14FEF776FD10F0AAF873
:104340004049034603223846FEF757FEFDF7AAF818
:104350005346524601463846FEF782FE414685F8EE
:1043600095813846FEF763FE10F094F804F59557F2
:10437000CDE9009053465246384633490FF060FA73
:10438000B5F98A21B5F98811534608320831384603
:104390000FF016FF049BB5F98C21CDF8088001932E
:1043A000B5F990312949043B03EBD37343FA08F381
:1043B00004F5965718370093B5F98A310532384617
:1043C00011F078FAFDF76EF853460146524638462A
:1043D00011F019FC049BB5F9E422CDF80880019393
:1043E000B5F9E832009304F59C571837B5F9E23275
:1043F00017490532384611F05DFAFDF753F8524679
:1044000001465346384611F0FEFBB4F90E7EB5F96D
:104410008A5110F03FF80368DB689847064610F0B1
:1044200039F8ED1B0422AD1BCDE900900949A01815
:1044300007EB55030FF004FA50460DB0BDE8F08FBE
:1044400070730208DF720208E3720208C872020881
:10445000D0720208B4850208002A14BF0422032285
:104460000292082208F5E477A1F108030192049A68
:1044700000920620079A91FBF0F19B0093FBF0F36A
:104480003846FEF7C3FBFF2204213846FEF780FCC6
:1044900010F000F8022201463846FEF798FD002190
:1044A0003846FEF782FCD5F86C34594993F8342429
:1044B000584B002A08BF19468A460FF0EBFF5146B9
:1044C000034603223846FEF798FDFCF7EBFF002376
:1044D0001A4601463846FEF7C3FDD8F8C831012117
:1044E0005B6C384698479DF81410D5F86C0401F0C1
:1044F00058FE83460FF01CFF6FF07F4309F1780AE6
:10450000009300231A465946019050460FF098F93F
:10451000022150460FF0A9FAD9F878309B691E465F
:10452000D8F8C83138469B6A9847D9F8782083462E
:10453000926B5046904700EBD0700BEBDB73411051
:10454000C1EB6301D8F8C8310B91DB6A3846984754
:10455000D8F8C8218346D26B38469047D9F87830CE
:1045600000EBD0700BEB600BDB6B5046984700EB19
:10457000D070ABEB60020B9900235046B047D8F8DF
:10458000C83138461B6B9847D8F8C8318346DB6A78
:1045900038469847D5F868240B90D2F8A430D8F85C
:1045A000C8213846126B1E469047D8F8C81182467B
:1045B000C96B38468847A6EB0A0A0121AAF108020E
:1045C000CDE901010B9B1449069800920BF10402FE
:1045D00011F070F9FCF766FF00231A4601460698B1
:1045E00011F011FB059B0A9A01330593069BC0331A
:1045F0000693079B134408F5907809F1380907934F
:10460000C3E509F13001E9E5D5F878312DE600BFC1
:104610008E720208BD750208DB72020838B5244BA1
:104620000360044600F59C501830FDF727F804F5A8
:1046300096501830FDF722F804F59550FCF7CAFFA4
:1046400004F58C50FDF7AAF84FF4825563596019B0
:104650001B68C03D9847B5F5546FF7D104F6C850B4
:10466000FCF7B8FF04F60850FDF708F840F6484597
:10467000635960191B68C03D9847B5F5F96FF7D1CC
:104680004FF4ED65635960191B68A5F5907598475F
:10469000A82DF7D14FF4C875635960191B68383DD0
:1046A0009847402DF8D1201DFCF794FF204638BDD7
:1046B0009885020808B50248FFF7B0FF08BD00BFA3
:1046C000B436002010B50446FFF7A8FF204641F29B
:1046D00088411DF0E6FC204610BD10B500210446BF
:1046E00000F5606011F084FA04F56C60002111F0AF
:1046F0007FFA04F57860002111F07AFA04F582500F
:104700000021BDE8104011F073BA00002DE9F04F10
:1047100000F5805589B0D5F858348B4204460E46D2
:1047200000F01681D5F860348B4200F01181D5F885
:104730005C348B420BD100238649D5F86C04079377
:1047400007AA02F007FB002009B0BDE8F08F00F6D1
:10475000085399420DD1D5F86C0490F8043423B174
:1047600000237D49079307AAEBE77C49079307AA33
:10477000E7E7D5F864348B4207D1D3F81021197BD1
:10478000D5F86C0402F0AAFDDDE700F59C53183360
:1047900099420ED1D5F86C0490F8243413B102F08C
:1047A000BDFFD0E790F82524D5F8CC1102F064FFC6
:1047B000C9E700F596531833994211D000F56063AC
:1047C000994216D000F56C67B94226D000F578679B
:1047D000B94224D000F58257B94225D103260AE018
:1047E000D5F86C0490F8251481F0010102F072FFF5
:1047F000A9E70F4600262046FFF76FFF0121384644
:1048000011F0F6F9D5F86C3493F834344BB906F559
:104810008B6654F82630636795E70126EBE702269E
:10482000E9E706F25C46F4E700F5E47700F6880A6B
:10483000B9464FF00008CDF810A0B1457FD199F8E6
:104840002C305FFA88FB002B3DD0D5F86434D5F8C6
:104850006C040593594601F0A4FCD5F86C3493F828
:104860003424D9F84C30002A0CBF0322042201461C
:104870004FF00200CDE90220394A3A48CDE9002044
:1048800039483A4A08BF02460598FDF701FFD5F8B6
:1048900064B4FCF707FE002301461A465846FDF7AC
:1048A0008DFED5F8640442F21071C0F80C80FDF75B
:1048B000B3FE08F10108B8F1060F09F590790AF185
:1048C000C00ABAD114E0B84640460021FEF7AFFB5B
:1048D000049B08F590789845F6D1002104F58C509A
:1048E000FEF7A5FB01214846FEF7A1FB84F870B056
:1048F00004F58C58B0457FF426AFD5F86C04D0F899
:104900002834642B0AD0992101F03DFDD5F86C04C0
:10491000D5F8CC1190F8252402F0AEFE01214046D6
:10492000FEF785FB062384F8703038460021FEF739
:104930007EFB049B07F590779F42F6D103E756452F
:10494000B7D1D5F86C045FFA88F102F099FCB0E7B2
:104950000920F9E6EB720208EF720208F37202080E
:10496000806967FF80969800BD7502088E72020804
:10497000F8B50446574B40F8043B0025FCF7D4FD3E
:104980002946E563182204F1400020F02DF829465D
:10499000182204F1580020F027F8062384F870301C
:1049A0000123636704F1780504F5E4762846383579
:1049B000FCF7BAFDB542F9D104F68806284605F59C
:1049C0009075FCF71BFEB542F8D104F60856284650
:1049D000C035FCF7BDFDB542F9D12846FCF7B8FD5E
:1049E00004F6C850FCF7A0FD04F5606504F5885690
:1049F0002846C035FCF7ACFDB542F9D1364B03F182
:104A00003006186859682A4603C20833B34215466F
:104A1000F7D1324B04F5805503F1300C05F598774A
:104A20006246186859683E4603C6083363453746F0
:104A3000F7D10FCA04F58B5686E80F00284B0FCB31
:104A400005F5B87686E80F0004F58C50FCF7D6FD26
:104A500004F59550FCF768FD04F596501830FCF706
:104A600077FD04F59C501830FCF772FDFDF7C4F893
:104A700000F5B2501830C5F85804FDF7BDF800F540
:104A8000B8501830C5F85C04FDF7B6F800F5BE5014
:104A90001830C5F86004FDF7AFF800F5C4501830C1
:104AA000C5F864040CF0F6FDC5F8680401F0DCFA02
:104AB000002385F87C34C5F86C04C5F87034C5F85B
:104AC0007434C5F87834C5F88034C5F88434204689
:104AD000F8BD00BF98850208C46D0208F46D020895
:104AE000346E020810B50A4C2368BFF35B8FDB07F6
:104AF0000CD420461DF0D7FA40B10648FFF738FF26
:104B000005481EF0BDFE20461DF0D9FA014810BD33
:104B1000B0360020B4360020B54600084FF0000043
:104B2000704738B50446FDF767F80546FDF782F98A
:104B300005F5B05004F58B5542F2107114350FF0A5
:104B4000FCFA4FF4FA6128460BF0E3FB63681BB9EB
:104B5000012128460BF04FFE236829469B69204619
:104B600098474FF0000038BD10B50446FDF744F8F3
:104B700000F5B0500FF0F8FA04F50053D3F8B8057B
:104B8000FDF728FF04F50350303005F085FA04F5F1
:104B90008B5014300BF0CCFB4FF0000010BD000028
:104BA0002DE9FF4704468846154600F58B560CF064
:104BB00071FD28230222CDE900321436D0F8A4304A
:104BC0004246002130460BF0F5FB0FF077FB002347
:104BD0001946364A009030460BF041FD0FF06EFB4F
:104BE000334A00900023012130460BF038FDFCF7DA
:104BF00059FC002301461A46304604F5C7570BF00E
:104C00001DFE103704F5A65304F5035210333E463B
:104C100030322121C6E900314036964203F12103AA
:104C2000F8D1FCF73FFC04F58059224B0093014674
:104C300022463046204B05F0EEF9B9F9863198440A
:104C400004F50053083DD3F8EC35D3F8A4A00FF0D9
:104C500021FC0368DB689847B9F98631CDF80080FC
:104C6000ED1AA5EB4005002320223946CDE901A528
:104C7000304605F0C3F93046002105F03DFA04F551
:104C80000C540E4A183411460223204605F0D6FA79
:104C9000FCF708FC002301461A46204605F0CAFA34
:104CA0004FF0000004B0BDE8F08700BFCB7E0208E3
:104CB000F772020815510008395300087073020892
:104CC00010B50446FCF712FC012284F82C204FF0AA
:104CD00080714FF0FF32C4E90D12054B23600023B1
:104CE000C4E90833A3622363A4F84030204610BD12
:104CF00030AF020838B51B4B03601B4BC0F81833AC
:104D0000044600F546700FF03BFA184BC4F8E83241
:104D100004F53A700FF034FA4FF42C7563596019AA
:104D20001B68383D9847B5F5B07FF7D14FF4B275A1
:104D3000635960191B68343D9847C82DF8D1CC25BC
:104D4000635960191B68303D98473C2DF8D12046C7
:104D5000074B40F8443F0FF013FA20460FF010FACB
:104D6000204638BD589F0208D8AF020884AF020819
:104D700028B102082DE9F843314B036000F50C55CA
:104D8000044605F5EE7004F50056FCF777FC05F5D2
:104D90008E70FCF773FC2B4BC6F8D83304F50F501C
:104DA00018300FF0EDF9284FC6F8A07304F50E5037
:104DB00020300FF0E5F9254BC6F8803304F50E508E
:104DC0000FF0DEF9DFF88890C6F8509304F50D5027
:104DD00010300FF0D5F9DFF87C80C6F8288304F591
:104DE0000C5004F5035528300FF0CAF905F5B270E0
:104DF000FCF744FC05F1A400FCF740FC04F504506A
:104E0000C6F8309130300FF0BBF9C6F8008104F5D8
:104E100004500FF0B5F904F5C75630351036B542D9
:104E200006D0403D284640F8087F0FF0A9F9F6E784
:104E300004F58B501430FFF75DFF2046BDE8F88382
:104E4000D885020830AF0208D4B00208D8AF0208F3
:104E500084AF020828B1020808B50248FFF78AFFAC
:104E600008BD00BF404B002010B50446FFF782FF8D
:104E7000204642F2F4511DF014F9204610BD10B541
:104E80000446FFF737FF20464FF44F711DF009F934
:104E9000204610BD13B50446406818B10CF0BEFBA7
:104EA000002363600022114604F1080003F0D2F8E9
:104EB0000FF004FA0023009004F58B50054A1946C0
:104EC00014300BF0CCFBFCF797FE02B0BDE81040AD
:104ED000FCF7B0BFCB7E020838B50D460446FFF79D
:104EE000D9FF28460CF096FB002303706060FCF7A6
:104EF00083FEFCF79FFF606838BD0000F7B51546DC
:104F0000002401AA0830089F01941E4603F0CEF841
:104F100060BB002003B0F0BD3B2B08BF0131013264
:104F20000192019A13780D2B23D9B942F4D3019938
:104F30000B78202B24D0092B22D00D2B05D842F240
:104F4000014222FA03F3DF07E3D42A4601392E4453
:104F5000B242DFD011F8013F0D2B14D842F20144C8
:104F6000DC40E40711D500231370D3E72146084C39
:104F7000D7E744FA03F3DB07D9D5B942CFD3D6E755
:104F800001310191D3E73B2BEDD002F8013BDFE784
:104F9000FEDBFFFF2DE9F3410024009405460E4699
:104FA00017469846FFF7AAFF044630B943463A46EB
:104FB000314605F1080003F0B9F9204602B0BDE81A
:104FC000F08137B5022500951446FFF797FF00B929
:104FD000207003B030BDF7B51646002401AA083092
:104FE0001F46019403F062F8054648B9002528469B
:104FF00003B0F0BD3B2900F1010008BF013401906E
:10500000019801780A2906D00D2904D019B1BC42B3
:10501000F0D30D2904D842F20143CB40DB07E5D49D
:105020001EF037FC3060E2E710B501231446FFF7AD
:10503000D2FF08B90123236010BD00002DE9F0471D
:1050400090B00546182200210AA81FF0CDFC04AF3D
:105050001022002106A81FF0C7FC0024012305F53B
:10506000C75605F50358D5F87C9004947C600293EC
:105070001036A24608F130084C4532D01F2C02D120
:1050800010B0BDE8F087214603AA05F10800CDF86D
:105090000CA002F0EEFF182321460AAA2846FFF7CB
:1050A00079FF214602AA2846FFF7BEFF21460823C2
:1050B0003A462846FFF785FF029B009305F500500E
:1050C0000197039BD0F8F005102206A901F052FACF
:1050D000314603460AAA404604F0A4FF0134403694
:1050E000CAE71F2CCCD005F5035605EB84113036EA
:1050F00001F5C751054B064A1031304604F092FFC6
:10510000611C304604F0F8FFBAE700BF7073020874
:10511000FF72020810B5044690B100F58052D2F833
:10512000AC2152B9C26F914205D2083003F088FD1C
:105130002046FFF783FF002010BDFFF7ABFEFAE724
:105140000220F9E72DE9F04100F58B5514358D4229
:105150009AB0044640F0B58000F58053D3F8AC31E6
:10516000012B40F09A80FCF79DF90021483010F0A7
:10517000FFF81BF097FE60496048002218F042FFDC
:10518000E8B1002604F5A6523346103200211F2B49
:105190007ED9FCF787F904F50354002130344830F8
:1051A00010F0AEF83146204604F0A6FF64212046F8
:1051B00004F0DAFF4FF000001AB0BDE8F08150496A
:1051C0000DA819F0A8FA06460028DAD14D4F02A919
:1051D0000DA819F0FEFA00284AD19DF81E30002BC8
:1051E00046D00DF11D0313F8012F12B1013015281F
:1051F000F9D100F1140502ABA0F103081D44B8F188
:10520000000F01D1434616E015F8013D2E2B02D0C8
:1052100008F1FF38F3E7A8781FF04AFA7328F7D1AE
:1052200000F022FF90F8353433BB68781FF040FA65
:105230006D2821D101239DF81020D206C7D4002B60
:10524000C5D004EB8611029B019308460DF11E03A5
:1052500041F6F40241F6F005009300F5C7508A5874
:1052600049593B46183001360EF065FC202EAED170
:105270000DA819F097FA85E700F0F6FE90F835349E
:10528000022BC5D168781FF013FA6C28C0D1D1E782
:1052900003EB43100133115479E7436800F50354DD
:1052A000303453B1FFF7CAFE6421204604F05CFF9E
:1052B000002128460BF09FFA7CE7204604F0ECFE24
:1052C00078E700F50053D3F8B8358B4209D1D3F80D
:1052D0001021D968083002F0DBFE2046FFF7AEFE51
:1052E00068E700F50C541834A1427FF463AF09F06D
:1052F00079FC09F071F95DE74CD2012014D001204E
:10530000F77202080873020810B503231446FFF76A
:1053100062FE08B9014B236010BD00BF806967FFC2
:1053200010B504231446FFF756FE08B9014B23605D
:1053300010BD00BF809698002DE9F0430D4691B056
:105340000446002800F0508100F58053D3F8AC618A
:10535000002E40F09A80436833B3C36F99423CD12A
:1053600000F50053D3F8F03593F89033012B1FD894
:10537000089609F037FC08A909F08AFA04F1080632
:1053800005460146089A304602F069FE60B1304693
:1053900004F0C8F8D8B1FCF72FFC044609F022FC51
:1053A00001462046FCF720FD002011B0BDE8F08347
:1053B00000F50C548D4A183402238D49204604F020
:1053C0003DFF42F21071204605F038F8ECE704F595
:1053D0000C54183402232A46EFE704F5165701232C
:1053E00005AA08303C370893CDE90566079604F511
:1053F000175802F03EFE20233A4629462046FFF782
:10540000C9FD08F11C0808AA29462046FFF70CFE32
:105410001023424629462046FFF7D3FD06AA294617
:105420002046FFF771FF07AA29462046FFF778FFBD
:10543000089B0A22092B24DC0123CDE90263079B88
:10544000019304F50059069B00934246059BD9F849
:10545000B8053946FDF71CF9D9F8B865FCF722F80C
:10546000002301461A463046FDF7A8F8D9F8B805DA
:1054700042F21071C560FDF7CFF82046FFF7DEFD60
:1054800092E7013693FBF2F3D4E708AE59492022A4
:1054900030461FF0D0FA3046FAF7ACFEAF0104EB0D
:1054A000851505F5C75531180023C0F120001035CA
:1054B0002A68D25CCA54002A76D10DF13F0300223B
:1054C00013F80119202973D9DFF82C9101223146F4
:1054D000484618F0D7FD0546002861D1D9F80C30B0
:1054E00003F1010809F07EFB09F076F841462046F9
:1054F000FFF7F2FC002871D042466168069506ABC2
:10550000484618F0C3FE069B6268D55404F10806AD
:1055100042466168304602F09DFD079509F062FB46
:1055200007A909F0B5F9079A01468046304602F00E
:1055300096FD304604F023FB00283DD041F6F003F1
:105540002744F95804F5A5530F334A5D03F8012F9A
:1055500022B12E2A02D00135202DF6D1254441F268
:10556000B0470026EE550EF0A9FE04F58B55143514
:105570003346E2193146009028460BF070F8204679
:10558000FFF75CFD04F503506421303004F0ECFDBE
:10559000314628460BF02FF909F024FB09F01CF8DE
:1055A000154818F08EFFFFE60133984280D184E75A
:1055B000B3425A7084D187E7204604F50C54FFF7B4
:1055C00069FC1834022342460949204604F036FE9D
:1055D00042F21071204604F031FFE1E704F50C546B
:1055E000064A18340223EFE70220DEE614730208AD
:1055F000FA7B02083F730208E4CD012048730208D9
:105600002DE9F84F00F580540025D24B0360064683
:10561000C0E90455C0E91D55C0E91F55C0E9215531
:10562000CD4945608561782204F12C001FF04BFBC9
:105630002946D02204F1A4001FF0D6F9C74BC4F8C4
:10564000A830022384F8AC30C54BC4F8B0300C232A
:1056500084F8B430C34BC4F8B8300E2384F8BC309F
:10566000C14BC4F8C030132384F8C430BF4BC4F816
:10567000C830072384F8CC30BD4BC4F8D030112398
:1056800084F8D430BB4BC4F8D830122384F8DC3013
:10569000B94BC4F8E030092384F8E430B74BC4F8C0
:1056A000E830062384F8EC30B54BC4F8F0300A2318
:1056B00084F8F430B34BC4F8F8300B2384F8FC3092
:1056C000B14BC4F80031052384F80431AF4BC4F862
:1056D0000831032384F80C31AD4BC4F81031042396
:1056E00084F81431AB4BC4F81831142384F81C31FE
:1056F000A94BC4F82031152384F82431A74BC4F8F2
:1057000028310D2384F82C31A54BC4F83031012306
:1057100084F83431A34BC4F83831082384F83C3181
:10572000A14BC4F840310F2384F844319F4BC4F897
:105730004831102384F84C319D4BC4F85031162366
:1057400084F854319B4BC4F8583106F58B5A172313
:1057500084F85C310AF1140A974BC4F86031504662
:10576000FBF7C4FE954BC4F87431954BDFF85C82AF
:10577000C4F89C516FF07F42C4E96823914B06F551
:105780008D50C4E96A35C4E96555C4E96C551830D3
:10579000FBF7ACFEC4E97655C4F8B88106F58F5026
:1057A000FBF7B2FE06F590501030FBF7ADFE06F5A4
:1057B0009250FBF7A9FE06F5935706F59859103756
:1057C00009F10C094FF0FF3B3846FBF78FFE7E4B8B
:1057D0003B6087F82050C7F82CB087F83050C7E9F5
:1057E00009553437B945EFD106F5A2571C3748465D
:1057F000FBF79AFE09F1380009F17009FBF794FEF6
:105800004F45F4D10AF53A70FBF77EFE06F5A45039
:10581000DFF8BC910C30FBF769FEC4F88C940BF0F8
:1058200039FF4FF48462C4F8AC04002104F59A6097
:105830001FF0DAF806F5C75406F503571834383761
:10584000002544E9025520464034FBF76DFEA7428F
:10585000F7D106F5005406F50357C4E93C55C4E9F1
:105860003E5506F50450FBF741FEC4E94855C4E92E
:105870004A55C4F8008107F17000FBF745FEC4F8F3
:10588000605107F1A400FBF763FE07F5B270FBF768
:105890005FFE0BF0FFFE0123C4E9B90506F50C50CD
:1058A00084F8243306F50C57C4E9BB55C4E9BE554A
:1058B000C4E9C055C4E9C455C4E9C65584F8F452D6
:1058C000C4F8085384F80C53C4F820532830FBF76D
:1058D0000DFEC4E9D255C4F8288307F15000FBF748
:1058E00013FE06F50E50FBF701FEC4F8809307F196
:1058F000A000FBF719FE07F1D800FFF7E1F907F563
:105900008E70FBF725FE07F5EE70FBF721FE0BF01E
:10591000C1FEC4F8A055C4F89C05C4F8A455C4F849
:10592000A85584F8AC55C4F8B055C4F8B455FCF784
:1059300063F900F5C4501830C4F8B8050BF0AAFE9E
:10594000C4F8EC0500F090FBC4F8F0053046BDE863
:10595000F88F00BFD8850208446E020871730208F0
:105960007E73020894730208A9730208C0730208C8
:10597000D2730208E4730208FC730208147402086C
:105980002C7402083F7402085E74020872740208E4
:1059900082740208917402089E740208CE74020890
:1059A000DD740208EC74020803750208167502081B
:1059B0002F7502084075020850750208589F0208AA
:1059C0008080800040404000DCA6020828B1020828
:1059D000D8AF020810B50A4C2368BFF35B8FDB0712
:1059E0000CD420461CF05FFB40B10648FFF708FED0
:1059F00005481DF045FF20461CF061FB014810BD25
:105A00003C4B0020404B0020594E00084FF0000056
:105A100070474FF0000070474FF00000704708B526
:105A2000C06E03210CF013FA4FF0000008BD000017
:105A300059B990F8313083F0010380F8313013B157
:105A400002490CF03DBF0249FBE77047347100206A
:105A50004871002010B5034B036004460EF090FB24
:105A6000204610BDDCA6020810B50446FFF7F2FF81
:105A7000204634211CF015FB204610BD10B5034B09
:105A800003600446FBF716FD204610BDFC850208A6
:105A900008B50248FFF7F2FF08BD00BF50720020B2
:105AA00010B50446FFF7EAFF204670211CF0F9FA12
:105AB000204610BD70B51E4E3568BFF35B8F15F0E4
:105AC000010533D130461CF0EEFA78B3194C1A4B6D
:105AD0002046102240F8043B02212B460FF061FAC9
