:020000040800F2
:100000000000022081250208211C0208231C02088E
:10001000251C0208271C0208291C020800000000F9
:10002000000000000000000000000000210E020897
:100030002B1C020800000000B10E02082D1C020853
:10004000D1250208D1250208D1250208D1250208B0
:10005000D1250208D1250208D1250208D1250208A0
:10006000D1250208D1250208D1250208D125020890
:10007000D1250208D1250208D1250208D125020880
:10008000D1250208D1250208D12502080000000070
:10009000000000000000000000000000D125020860
:1000A000D1250208D1250208D1250208D125020850
:1000B000D1250208D1250208D1250208D125020840
:1000C000D1250208D1250208D1250208D125020830
:1000D000D1250208451C0208D125020800000000B5
:1000E000D1250208D1250208D12502080000000010
:1000F000000000000000000000000000D125020800
:1001000000000000511C0208D1250208D125020878
:1001100000000000000000000000000000000000DF
:10012000D1250208D12502085D1C0208691C0208BD
:10013000D1250208000000000000000000000000BF
:10014000000000000000000000000000751C020814
:10015000811C0208D12502088D1C0208D125020845
:10016000D1250208D125020800000000000000008F
:10017000000000000000000000000000000000007F
:1001800000000000D125020800000000000000006F
:08019000D1250208D125020867
:1001A00010B5054C237833B9044B13B10448AFF3B1
:1001B00000800123237010BD100300200000000008
:1001C0006072020808B5034B1BB103490348AFF343
:1001D000008008BD000000001403002060720208C7
:1001E00010F8012B11F8013B012A28BF9A42F7D0E1
:1001F000D01A7047034613F8012B002AFBD1181AB6
:1002000001387047000000000000000000000000FE
:1002100001F0FF01102A2BDB10F0070F08D010F8B7
:10022000013B013A8B422DD010F0070F42B3F6D1BB
:10023000F0B441EA012141EA014122F007047FF0D4
:1002400000070023F0E80256083C85EA010586EA2B
:10025000010685FA47F5A3FA87F586FA47F6A5FA67
:1002600087F68EB9EED1F0BC01F0FF0102F0070273
:1002700032B110F8013B013A83EA010313B1F8D11E
:100280000020704701387047002D06BF35460338FF
:10029000073815F0010F07D1013015F4807F02BF38
:1002A000013015F4C03F0130F0BC0138704700BF89
:1002B00081F0004102E000BF83F0004330B54FEA17
:1002C00041044FEA430594EA050F08BF90EA020F84
:1002D0001FBF54EA000C55EA020C7FEA645C7FEA17
:1002E000655C00F0E2804FEA5454D4EB5555B8BF3A
:1002F0006D420CDD2C4480EA020281EA030382EAAB
:10030000000083EA010180EA020281EA0303362D3C
:1003100088BF30BD11F0004F4FEA01314FF4801C0F
:100320004CEA113102D0404261EB410113F0004F21
:100330004FEA03334CEA133302D0524263EB4303D8
:1003400094EA050F00F0A780A4F10104D5F1200E76
:100350000DDB02FA0EFC22FA05F2801841F10001D1
:1003600003FA0EF2801843FA05F359410EE0A5F1A5
:1003700020050EF1200E012A03FA0EFC28BF4CF0D6
:10038000020C43FA05F3C01851EBE37101F000458C
:1003900007D54FF0000EDCF1000C7EEB00006EEB99
:1003A0000101B1F5801F1BD3B1F5001F0CD3490823
:1003B0005FEA30004FEA3C0C04F101044FEA44527A
:1003C00012F5800F80F09A80BCF1004F08BF5FEA01
:1003D000500C50F1000041EB045141EA050130BDE1
:1003E0005FEA4C0C404141EB0101013C28BFB1F5F3
:1003F000801FE9D291F0000F04BF01460020B1FA3E
:1004000081F308BF2033A3F10B03B3F120020CDA10
:100410000C3208DD02F1140CC2F10C0201FA0CF0EE
:1004200021FA02F10CE002F11402D8BFC2F1200C53
:1004300001FA02F120FA0CFCDCBF41EA0C01904009
:10044000E41AA2BF01EB0451294330BD6FEA040452
:100450001F3C1CDA0C340EDC04F11404C4F120023D
:1004600020FA04F001FA02F340EA030021FA04F34F
:1004700045EA030130BDC4F10C04C4F1200220FAA6
:1004800002F001FA04F340EA0300294630BD21FAE4
:1004900004F0294630BD94F0000F83F4801306BFAA
:1004A00081F480110134013D4EE77FEA645C18BF9E
:1004B0007FEA655C29D094EA050F08BF90EA020F35
:1004C00005D054EA000C04BF1946104630BD91EA2D
:1004D000030F1EBF0021002030BD5FEA545C05D130
:1004E0004000494128BF41F0004130BD14F580046F
:1004F0003CBF01F5801130BD01F0004545F0FE41E3
:1005000041F470014FF0000030BD7FEA645C1ABF17
:10051000194610467FEA655C1CBF0B46024650EA4E
:10052000013406BF52EA033591EA030F41F400217A
:1005300030BD00BF90F0000F04BF0021704730B500
:100540004FF4806404F132044FF000054FF00001D5
:1005500050E700BF90F0000F04BF0021704730B596
:100560004FF4806404F1320410F0004548BF40426B
:100570004FF000013EE700BF42004FEAE2014FEAC0
:1005800031014FEA02701FBF12F07F4393F07F4F9B
:1005900081F06051704732F07F4208BF704793F09E
:1005A0007F4F04BF41F40021704730B54FF46074B1
:1005B00001F0004521F000411CE700BF50EA0102B4
:1005C00008BF704730B54FF000050AE050EA01025D
:1005D00008BF704730B511F0004502D5404261EBCD
:1005E00041014FF4806404F132045FEA915C3FF40E
:1005F000D8AE4FF003025FEADC0C18BF03325FEAAB
:10060000DC0C18BF033202EBDC02C2F1200300FA5B
:1006100003FC20FA02F001FA03FE40EA0E0021FA80
:1006200002F11444BDE600BF70B54FF0FF0C4CF46E
:10063000E06C1CEA11541DBF1CEA135594EA0C0F20
:1006400095EA0C0F00F0DEF82C4481EA030621EA5B
:100650004C5123EA4C5350EA013518BF52EA033596
:1006600041F4801143F4801338D0A0FB02CE4FF048
:100670000005E1FB02E506F00042E0FB03E54FF078
:100680000006E1FB03569CF0000F18BF4EF0010E70
:10069000A4F1FF04B6F5007F64F5407404D25FEA6C
:1006A0004E0E6D4146EB060642EAC62141EA55511F
:1006B0004FEAC52040EA5E504FEACE2EB4F1FD0C61
:1006C00088BFBCF5E06F1ED8BEF1004F08BF5FEADF
:1006D000500E50F1000041EB045170BD06F0004691
:1006E00046EA010140EA020081EA0301B4EB5C043E
:1006F000C2BFD4EB0C0541EA045170BD41F4801136
:100700004FF0000E013C00F3AB8014F1360FDEBF5A
:10071000002001F0004170BDC4F10004203C35DA36
:100720000C341BDC04F11404C4F1200500FA05F3B9
:1007300020FA04F001FA05F240EA020001F000425A
:1007400021F0004110EBD37021FA04F642EB0601D0
:100750005EEA430E08BF20EAD37070BDC4F10C04FA
:10076000C4F1200500FA04F320FA05F001FA04F2BE
:1007700040EA020001F0004110EBD37041F10001AA
:100780005EEA430E08BF20EAD37070BDC4F12005B5
:1007900000FA05F24EEA020E20FA04F301FA05F21D
:1007A00043EA020321FA04F001F0004121FA04F2C5
:1007B00020EA020000EBD3705EEA430E08BF20EA95
:1007C000D37070BD94F0000F0FD101F000464000CF
:1007D00041EB010111F4801F08BF013CF7D041EA51
:1007E000060195F0000F18BF704703F00046520055
:1007F00043EB030313F4801F08BF013DF7D043EA26
:100800000603704794EA0C0F0CEA135518BF95EADB
:100810000C0F0CD050EA410618BF52EA4306D1D162
:1008200081EA030101F000414FF0000070BD50EA81
:10083000410606BF1046194652EA430619D094EA0B
:100840000C0F02D150EA013613D195EA0C0F05D1F5
:1008500052EA03361CBF104619460AD181EA030149
:1008600001F0004141F0FE4141F470014FF0000001
:1008700070BD41F0FE4141F4780170BD70B54FF09C
:10088000FF0C4CF4E06C1CEA11541DBF1CEA13551C
:1008900094EA0C0F95EA0C0F00F0A7F8A4EB0504FE
:1008A00081EA030E52EA03354FEA013100F08880F5
:1008B0004FEA03334FF0805545EA131343EA1263BE
:1008C0004FEA022245EA111545EA10654FEA002673
:1008D0000EF000419D4208BF964244F1FD0404F52C
:1008E000407402D25B084FEA3202B61A65EB030588
:1008F0005B084FEA32024FF480104FF4002CB6EB45
:10090000020E75EB030E22BFB61A754640EA0C00C4
:100910005B084FEA3202B6EB020E75EB030E22BF04
:10092000B61A754640EA5C005B084FEA3202B6EB45
:10093000020E75EB030E22BFB61A754640EA9C0004
:100940005B084FEA3202B6EB020E75EB030E22BFD4
:10095000B61A754640EADC0055EA060E18D04FEA92
:10096000051545EA16754FEA06164FEAC30343EA32
:1009700052734FEAC2025FEA1C1CC0D111F4801FFF
:100980000BD141EA00014FF000004FF0004CB6E7F8
:1009900011F4801F04BF01430020B4F1FD0C88BF97
:1009A000BCF5E06F3FF6AFAEB5EB030C04BFB6EBA2
:1009B000020C5FEA500C50F1000041EB045170BD95
:1009C0000EF0004E4EEA113114EB5C04C2BFD4EBC2
:1009D0000C0541EA045170BD41F480114FF0000E46
:1009E000013C90E645EA060E8DE60CEA135594EAC2
:1009F0000C0F08BF95EA0C0F3FF43BAF94EA0C0FC5
:100A00000AD150EA01347FF434AF95EA0C0F7FF439
:100A100025AF104619462CE795EA0C0F06D152EA8D
:100A200003353FF4FDAE1046194622E750EA410671
:100A300018BF52EA43067FF4C5AE50EA41047FF482
:100A40000DAF52EA43057FF4EBAE12E74FF0FF3CE7
:100A500006E000BF4FF0010C02E000BF4FF0010CB8
:100A60004DF804CD4FEA410C7FEA6C5C4FEA430C31
:100A700018BF7FEA6C5C1BD001B050EA410C0CBF80
:100A800052EA430C91EA030F02BF90EA020F0020E2
:100A9000704710F1000F91EA030F58BF994208BF49
:100AA00090422CBFD8176FEAE37040F00100704706
:100AB0004FEA410C7FEA6C5C02D150EA013C07D15D
:100AC0004FEA430C7FEA6C5CD6D152EA033CD3D0A8
:100AD0005DF8040B704700BF8446104662468C46A2
:100AE0001946634600E000BF01B5FFF7B7FF0028D5
:100AF00048BF10F1000F01BD4DF808EDFFF7F4FFFE
:100B00000CBF012000205DF808FB00BF4DF808ED88
:100B1000FFF7EAFF34BF012000205DF808FB00BFAB
:100B20004DF808EDFFF7E0FF94BF012000205DF8CD
:100B300008FB00BF4DF808EDFFF7CEFF94BF012082
:100B400000205DF808FB00BF4DF808EDFFF7C4FF7B
:100B500034BF012000205DF808FB00BF4FEA410CC4
:100B60007FEA6C5C02D150EA013C0AD14FEA430CA7
:100B70007FEA6C5C02D152EA033C02D14FF00000E4
:100B800070474FF0010070474FEA410212F5001222
:100B900015D211D56FF47873B3EB625212D94FEAC4
:100BA000C12343F0004343EA505311F0004F23FAAE
:100BB00002F018BF404270474FF00000704750EA03
:100BC000013005D111F0004008BF6FF000407047C0
:100BD0004FF00000704700BF4A0011D212F500121A
:100BE00011D20DD56FF47873B3EB62520ED44FEA85
:100BF000C12343F0004343EA505323FA02F0704705
:100C00004FF00000704750EA013002D14FF0FF3042
:100C100070474FF0000070474FEA4102B2F1E043E5
:100C200024BFB3F5001CDCF1FE5C0DD901F0004CD3
:100C30004FEAC0024CEA5070B2F1004F40EB830023
:100C400008BF20F00100704711F0804F21D113F14F
:100C50003872BCBF01F00040704741F480114FEA88
:100C60005252C2F11802C2F1200C10FA0CF320FA11
:100C700002F018BF40F001004FEAC1234FEAD3232E
:100C800003FA0CFC40EA0C0023FA02F34FEA430398
:100C9000CCE77FEA625307D150EA01331EBF4FF021
:100CA000FE4040F44000704701F0004040F0FE403C
:100CB00040F40000704700BF53B94AB9002908BF8B
:100CC00000281CBF4FF0FF314FF0FF3000F0BEB9DD
:100CD000ADF1080C6DE904CE00F03CF8DDF804E05D
:100CE000DDE9022304B0704738B500220023044632
:100CF0000D46FFF70BFF28B920462946BDE83840CE
:100D000000F00AB8204605F1004100F005F8404225
:100D100061EB410138BD00BFD0B50C4B0022064647
:100D20000F46FFF781FCFFF757FF0446FFF702FC71
:100D3000074B0022FFF778FC02460B463046394647
:100D4000FFF7BAFAFFF748FF2146D0BD0000F03D9B
:100D50000000F0412DE9F047089D8E460446884684
:100D6000002B4AD18A42174662D9B2FA82F64EB1B6
:100D7000C6F1200301FA06F820FA03F3B74043EA6C
:100D80000808B4404FEA174E1FFA87FCB8FBFEF183
:100D9000230C0EFB118843EA084301FB0CF29A4234
:100DA00009D9FB1801F1FF3080F0EA809A4240F245
:100DB000E78002393B449A1AA3B2B2FBFEF00EFB65
:100DC000102243EA024300FB0CFC9C4509D9FB18A6
:100DD00000F1FF3280F0D6809C4540F2D3803B4446
:100DE000023840EA0140A3EB0C0300211DB1F3409F
:100DF0000022C5E90032BDE8F0878B4205D90DB16C
:100E0000C5E9000100210846F5E7B3FA83F100299E
:100E100046D1734502D3824200F20581841A6EEBFB
:100E2000030201209046002DE5D0C5E90048E2E725
:100E3000002A00F09080B2FA82F6002E40F0A480E2
:100E40008A1A030C4FEA174E80B2BCB20121B2FBE2
:100E5000FEFC0EFB1C2243EA024304FB0CF29A4206
:100E600007D9FB180CF1FF3802D29A4200F2E08059
:100E7000C4469B1AB3FBFEF20EFB123340EA034357
:100E800002FB04F49C4207D9FB1802F1FF3002D2A6
:100E90009C4200F2CA8002461B1B42EA0C40A5E7B6
:100EA000C1F120068B4022FA06F71F430EFA01F427
:100EB00020FA06F32EFA06FE4FEA1749234300FAFA
:100EC00001F81FFA87FCBEFBF9F01C0C09FB10EEC1
:100ED00044EA0E4400FB0CFEA64502FA01F209D9D1
:100EE0003C1900F1FF3A80F09C80A64540F29980C1
:100EF00002383C44A4EB0E041FFA83FEB4FBF9F362
:100F000009FB13444EEA044403FB0CFCA44508D936
:100F10003C1903F1FF3E80F08280A4457FD9023B5B
:100F20003C4443EA0040A4EB0C04A0FB02EC644503
:100F30007346E14662D35FD05DB1B8EB030264EB68
:100F4000090404FA06F622FA01F31E43CC40C5E96F
:100F5000006400214FE7B1FBF2FC010C41EA0E41B5
:100F600080B240EA01423B4638463C46B846BE465F
:100F70002026B1FBF7F1A2EB080241EA0C4166E73B
:100F8000014618E710462CE7C6F120022EFA02F3BC
:100F9000B740B14020FA02F24FEA174E0A43B3FBC2
:100FA000FEF8BCB20EFB1833110C41EA034108FBFA
:100FB00004F9B04089454FEA104380B23ED9791810
:100FC00008F1FF3C01D289451FD8A1EB0901B1FB13
:100FD000FEF909FB04F80EFB191192B242EA014234
:100FE000424529D2BA1809F1FF31C4D24245C2D2D2
:100FF000A9F102013A44BEE7F0459DD2BEEB0203DF
:101000006CEB070C0138E14696E7A7EB0909494468
:10101000A8F1020CB1FBFEF909FB04F8DBE773460B
:101020007FE7504666E70846FDE63B44023A33E771
:10103000ACF1020C3B441CE749469CE7A1EB0901DB
:10104000C446B1FBFEF909FB04F8C4E7704700BFD2
:1010500003798B4228BF0431C91AC9B24171704764
:10106000036810B504461B6998476379003B18BFB5
:1010700001231B1A5842584110BD000038B5124CCC
:10108000236800255D622946204619F0CDFC2946DB
:10109000204619F04AF9226813699907FCD50A48D5
:1010A000002119F042F92268054613699B07FCD517
:1010B0000021054819F039F900210446024819F0C9
:1010C00019FD601B38BD00BFF0DD012010B5144BC9
:1010D0001A689403FCD59A6822F0030242F00102D8
:1010E0009A60104A002414661A689201FCD45A6867
:1010F00022F48002104358605A6822F03F021143E4
:101100005960084B01221A66054A13689B01FCD5F9
:10111000936823F0030343F00203936010BD00BF04
:1011200000380240000047427FB510210020FFF741
:10113000CDFFFFF7A3FF134B134A1B6803EB4303D9
:10114000B3FBF2F398421AD91422002101A823F02C
:10115000E3FE0223009368460C4B049317F0E6FB72
:1011600008B120F01BFB0A4B0122C3F83C2E0821DA
:101170004FF4800007B05DF804EBFFF7A7BF19211B
:10118000F6E700BFDC00002080841E00000308009A
:101190000000474270B510210020FFF797FF0F4D68
:1011A0000F4E1F24FFF76AFF2B6832680D49B2FB10
:1011B000F1F28242C3F3C4030BD243B1013B2A686C
:1011C00022F0F80242EAC302013C2A60EAD1184642
:1011D00070BDFCD91F2BFAD00133F0E70038024074
:1011E000DC00002040420F0013B5FFF7D3FF044698
:1011F00017F03EFC14F0E0FF114A136823F0F803E7
:1012000043EAC40313604FF0E02300221A615A61DD
:101210009A610C4B0193019B596862B60A4B1A689C
:1012200022F003021A601A6842F001021A60019B60
:101230001B6883F3088802B0BDE81040084700BF70
:10124000003802400000FF1F0038014010B5FFF7D2
:101250006BFF1C48FFF704FF08B1FFF7C5FF09F05B
:1012600095FA194909F0B4FA10F088FC174A1849A0
:1012700010F00EFD14F0FAFB036816491C6A164BB9
:101280000022A04706F0A0FE1449002206F0F8FE56
:101290001348FFF7E5FE30B10FF022FE0368BDE80A
:1012A00010401B6818470F48FFF7DAFE10B104F032
:1012B000D7FCF3E704F0ACFF0B4905F047F800F06A
:1012C00029FDEBE7480400202C0300204403002004
:1012D0006403002080DE01203804002038DE012075
:1012E00068040020580400209003002000BEFEE7A0
:1012F000704700002DE9F0474349DFF86091434F04
:10130000434B4448DFF85881DFF858A1C9F8003052
:101310001022C9E902120822FA603F4AB96000248B
:101320004FF48066C2E900349060D6603B4A3C4E80
:1013300090600125C8E902050220C2E90034D060AE
:10134000384AC9F80450C2E90215C2E90034364AE5
:10135000C8E90035C2E90035C7E900354FF48073AC
:10136000D3604FF06413CAF80430304BCAF8003031
:101370002F4B9160CAF808304FF0051373602D4B66
:10138000336006F10C002C4BB36014F03BF82B4B90
:101390002B4A1A602B4AC3F88420A3F888402A4BB2
:1013A0002A4818604FF4F07229481C760321C3E9DB
:1013B00001124FF4A071C3E9031259610571C18094
:1013C000244D0281C3E907A9C3E909872146224BBD
:1013D00003604471C6600474C0F81240C0F816403F
:1013E000C0F81A40FFF734FE4FF400404023C5E92F
:1013F00000034220C5E903462C726C6110F07EFBAD
:10140000E860BDE8F08700BF0000024078040020DB
:10141000881F0308000402406804002058040020CC
:101420001C0400204804002038040020F81F030892
:1014300094DD0120AC1F0308F8DB0120900300209D
:101440004820030888DF01206403002038AD02082B
:10145000440300202C03002010AD02089804002053
:10146000880400202C04002008B5074BD86810B170
:10147000012121F0AEF80548054B40F80C3BBDE8D2
:10148000084013F0C9BF00BF2C0300201C0400203B
:10149000AC1F03084FF0000070474FF0000070478A
:1014A0004FF0000070474FF0000070474FF0000011
:1014B000704700F5005090F84801003818BF01202F
:1014C0008000704710B5074B044640F8283B14F0E5
:1014D00080F904F1140013F0F9FF201D13F0F6FF5A
:1014E000204610BD588B020810B50446FFF7EAFFEE
:1014F00020464C2121F06DF8204610BD13F018BE97
:1015000038B568B30B784D78DBB900F5B154A369F1
:1015100018345B692046984788B1236820465B6C85
:10152000984760B12946204614F0F6FD3DB923687E
:1015300020465B6C984710B1204614F0FCFD00205B
:1015400038BD012B02D100F5BD54E0E7062BF6D1E2
:10155000002DF4D0036800F638419B699847EEE708
:101560000220EDE708B51FF0D3F8BDE808401EF0F3
:10157000A1BF000010B5044613F0BAF8044B236075
:101580000023C4E9083384F82830E362204610BD04
:1015900044B6020810B5044613F0AAF8064B2360BF
:1015A0000122002384F82C20C4E90833A3622363BA
:1015B00084F83430204610BDA4B7020810B50446A4
:1015C00013F096F8012284F82C204FF080714FF030
:1015D000FF32C4E90D12054B23600023C4E9083330
:1015E000A3622363A4F84030204610BDECB5020886
:1015F00010B5044613F07CF80A4B23606FF07F426D
:101600000023C4E90833C4E90A332263A38604F142
:101610003800FFF7D3FF04F17C00FFF7CFFF20462F
:1016200010BD00BFA020030810B5034B03600446A3
:1016300013F070F8204610BD44B6020810B50446F9
:10164000FFF7F2FF2046302120F0C3FF204610BDF7
:1016500010B5034B0360044613F05CF8204610BD40
:10166000A4B7020810B50446FFF7F2FF2046382160
:1016700020F0AFFF204610BD38B5044613F038F80F
:101680001C4B236000254FF47F420123C4E90D2346
:101690004FF00041C4E90F536FF00043C4E9111348
:1016A0004FF0FF33E364C4E90855A56284F82C5079
:1016B000256304F15000FFF75DFF04F18000FFF7A0
:1016C00069FF04F1B800FFF765FF2946182204F10D
:1016D000F00023F021FC1022294604F5847023F049
:1016E0001BFC84F8185110F049FAC4F81C0120467C
:1016F00038BD00BFA88B020838B5094B094D0360FF
:10170000044640F87C5F13F005F8204640F8385F47
:1017100013F000F8204612F0FDFF204638BD00BF50
:10172000A0200308ECB5020810B50446FFF7E4FF5B
:101730002046C02120F04DFF204610BD2DE9F84382
:101740000446002612F0D4FFC4E90866C4E90A661C
:101750002D4BDFF8C0902360266304F1340504F5B7
:10176000EA774FF0FF38284612F0C2FFC5F8009024
:1017700085F82060C5F82C8085F83060C5E90966D9
:101780003435BD42EFD104F5657628463835FFF78C
:1017900001FFAE42F9D1354604F694162846C0350D
:1017A000FFF726FFAE42F9D13046002512F0A0FF28
:1017B000164BC4F89439C4F8B45904F6B810FFF7BE
:1017C00017FF04F67820FFF713FF04F63830FFF711
:1017D000D1FE04F6683012F08BFF0D4BC4F8683B65
:1017E000C4F8885BC4F88C5BC4F8905B84F8945BA5
:1017F000C4F8985BC4F89C5B10F0C0F9C4F8A00B67
:101800002046BDE8F88300BF78930208F4B60208CA
:101810009CB6020894AD020810B5094B044640F886
:10182000B83BFFF715FF04F18000FFF711FF04F14B
:101830005000FFF7F9FE204612F06CFF204610BD65
:10184000A88B020810B50446FFF7E6FF20464FF4C8
:10185000907120F0BEFE204610BD0000002370B540
:10186000C0E90033C0E902330A230446036114309F
:1018700012F002FE04F14000FFF77CFE04F170005C
:1018800012F036FF284B236704F19000FFF782FE29
:1018900004F1C800FFF7F0FE04F5F470FFF7A8FEAE
:1018A00004F52A70FFF7A4FE04F55A70FFF7A0FEB6
:1018B0001E4B93E8070004F5856585E8070004F2F0
:1018C000344603F10C023C3310685168354603C5B9
:1018D00008329A422E46F7D104F26440FFF788FEA0
:1018E00004F22450FFF784FE10F048F9002384F836
:1018F000F43584F80C36C4F8E405C4F8E835C4F8C7
:10190000EC35C4F8F035C4F8F835C4F8FC35C4F843
:101910000036C4F80436C4F80836C4F81036C4F8E3
:101920001436204670BD00BF9CB6020878720208CB
:1019300038B51F4B03601F4BC0F8683B044600F6E8
:10194000683012F0E7FE04F63830FFF76DFE04F65B
:101950007820FFF7D1FE04F6B810FFF7CDFE164B46
:10196000C4F8943904F6941012F0D4FE40F6D4056D
:10197000635960191B68C03D9847B5F5357FF7D1AD
:101980004FF45775635960191B68383D9847B5F592
:10199000CE7FF7D14FF4D075635960191B68984713
:1019A000343DF9D1204612F0B5FE204638BD00BFC7
:1019B000789302089CB60208F4B60208534B2DE94E
:1019C000F0410360044600F50150FFF795FE04F571
:1019D000FC50FFF791FE41F6846541F64446635999
:1019E00060191B68C03D9847B542F8D104F5D85638
:1019F00006F1E40004F58055FFF70EFF06F1AC0098
:101A0000FFF726FEDFF81081C5F88C8B04F5DC505B
:101A10000C3012F07FFE06F15C00FFF705FE3C4F34
:101A2000C5F8307B04F5D950103012F073FE04F580
:101A3000D250FFF761FE04F5CC50FFF75DFE354B49
:101A4000C5F83C3904F5C95004F5C3561C3012F0F2
:101A500061FE06F1A400FFF7FBFD04F5C750C5F8D1
:101A6000E488043012F056FE06F15400FFF7DCFD66
:101A700004F5C450C5F88878083012F04BFE04F520
:101A8000BD501830FFF738FE04F5B7501830FFF797
:101A900033FE04F5B1501830FFF72EFE04F5AF50B9
:101AA000FFF7D6FD41F2A85541F258466359601937
:101AB0001B68383D9847B542F8D141F270356359FB
:101AC00060191B68A5F590759847B5F54B6FF6D171
:101AD00004F69850FFF7BCFD04F55660FFF7B8FD1B
:101AE00004F62850FFF7B4FD04F6F840FFF79CFD1C
:101AF00004F63840FFF700FE04F19400FFF718FFEA
:101B00002046FFF7DFFC2046BDE8F081808B02080D
:101B1000FCB70208ECB502089CB6020808B50248FA
:101B2000FFF74CFF08BD00BFAC04002010B5044611
:101B3000FFF744FF204642F2681120F04AFD20469C
:101B400010BD10B50446FFF7F3FE204640F6A43161
:101B500020F03FFD204610BDF8B5694B0446102229
:101B600040F8043B2221002313F0A8FC00230822A4
:101B7000202104F1140013F0A1FC04F505530833EF
:101B8000002563621423C4E90A535E4B84F8305085
:101B9000C4E90D344FF4C063A4F84430022384F840
:101BA00046302046584BA364584B84F83C50294695
:101BB0004022256440F84C3B23F0AEF9C4E923559C
:101BC00004F19400FFF7BAFD04F63840FFF710FD6A
:101BD00004F6F840FFF7CEFC04F62850FFF7DAFCD5
:101BE00004F55660FFF7D6FC04F69850FFF7D2FCD8
:101BF00004F5A45604F55D651036284605F5907584
:101C0000FFF73AFDB542F8D104F5AF56284638350E
:101C1000FFF7C0FCB542F9D12846FFF7BBFC04F53D
:101C2000B1501830FFF7E4FC04F5B7501830FFF757
:101C3000DFFC04F5BD5004F5805618300025FFF791
:101C4000D7FC04F5C357012386F88438C6F87858C2
:101C5000C6F87C58C6F8805807F1280012F00CFC32
:101C600007F15400FFF786FC04F5C750043012F06A
:101C70003FFD274BC6F8E43807F1A400FFF78AFCC4
:101C800007F1DC00FFF79AFC04F5CC50FFF7B0FC3D
:101C900004F5D250FFF7ACFC0FF070FFC6F8000B54
:101CA00004F5D850C6F8045BC6F8085BC6F80C5BB0
:101CB00086F8105BC6F8145BC6F8185B1C3004F598
:101CC0000056FFF7CBFD032386F834310FF056FFA3
:101CD000C6F8380106F078F9C6F83C0104F098FA25
:101CE000C6F8400108F052FD86F85C51C6F8440180
:101CF000C6E95455C6E95855C6F858512046F8BDAE
:101D0000588B0208CF52010820770208808B020806
:101D10009CB6020810B50A4C2368BFF35B8FDB0743
:101D20000CD4204620F057FC40B10648FFF714FFC2
:101D3000054822F03DF8204620F059FC014810BD2E
:101D4000A8040020AC0400201D1B00082DE9F04F62
:101D500000F5005785B0D7F838310546D3F88840EC
:101D60000E46002972D0083C032294FBF2F4D3F80B
:101D70008CB012F043FE0368DB689847804612F08F
:101D80003DFE0368DB68984705F5B15909F118096C
:101D900008EB480800EB40004FF0010AABEB0803EA
:101DA0002D49CDF808A00022CDE90040484614F0A6
:101DB00015F8FFF7D7FB002301461A46484614F0F2
:101DC000B6F9484614F071F905F58058E6B1B8F94E
:101DD0004026CDF808A0B8F946361F49CDE90043A2
:101DE00005F5B7561836B8F93E360532304613F0C9
:101DF000F5FFFFF7B7FB002301461A46304614F003
:101E000096F9304614F051F9D7F838311249D3F821
:101E1000882001230293B8F94636CDE9004305F541
:101E2000BD551835B8F93E36121B284613F0D6FFBB
:101E3000FFF798FB002301461A46284614F077F96D
:101E4000284605B0BDE8F04F14F02FB904EBD47468
:101E50006410043C8BE700BFFA78020800F50053D9
:101E600000F5B150D3F8403193F87033022B0CBF1A
:101E700002490349183014F058B800BF2C77020803
:101E80003177020800F50052D2F8402192F8702311
:101E9000012A05D821B100F5B150183014F045B829
:101EA000FFF7DCBF00F5005300F5BD50D3F840212B
:101EB00092F87033052B00F1180008D192F8F13335
:101EC0004F2B02D1054914F030B80549FBE7002B30
:101ED000F8D0092BF6D00349F5E700BFB983020813
:101EE00035770208DA80020800F50052D2F8402166
:101EF00092F87023012A05D121B100F5BD501830A8
:101F000014F013B8FFF7CEBF70B500F148030446D4
:101F1000002553F8042F8A4218D1D4F8903004EBEE
:101F20008303D86C03681B69984704F19400C4F8D4
:101F30009050294605F022FFD4F8903004EB83033B
:101F4000BDE87040D86C0368DB6818470135102D78
:101F5000DFD170BD70B504468AB004F5B0551835B0
:101F600003A81FF0ADF904F5AF56049B144A2021D5
:101F7000284622F001FF29463046012212F016F8C9
:101F800004F5005304F58054D3F83831D3F8882091
:101F9000B4F9EC3503EBD37302EBD2725C10C4EBF3
:101FA000620412F0EFFC6FF07F4301900093224631
:101FB0001E232946304611F0A5FE0AB070BD00BFB1
:101FC0003C770208D0F8903000EB830370B50446EC
:101FD000D86C03680D461B699847C4F8905004F10B
:101FE0009400294605F0CAFED4F8903004EB83042F
:101FF000E06C0368BDE87040DB68184773B500F615
:1020000038468E4204460D460DD190F8483C53B1F7
:1020100000F50054D4F8400190F852336BB904F045
:10202000EFFA01210CE004F194039D420FD194F8E2
:10203000C0102046FFF7C6FF05E004F017FB0021A3
:10204000304614F069F84FF0000002B070BDD4F8CB
:10205000903004EB83032946D86C03689B6998474A
:10206000C0B20928EFD104F5B15318339D420CD109
:1020700004F50054D4F8400190F87033022B14BFDB
:102080008121822104F0ACFADDE704F5BD53183359
:102090009D42D8D104F50054D4F8400190F8701353
:1020A000D0F86823052913D190F8F133C0F86C23D8
:1020B0004F2B4FF0000380F8F13380F8553301D1F6
:1020C0001821DFE70B49019301AA04F089FFBAE761
:1020D000002339B1092905D080F85533C0F86C23A5
:1020E0001921CFE780F8F13380F85533C0F86C231D
:1020F000E6E700BF52770208F7B5044600F1940501
:1021000004F50056284605F088FC28220821D6F858
:102110003831CDE9002100221146D3F8883000275C
:10212000284605F041FEC4F88C7012F0B5FB394624
:102130000346644A284605F0B3FD634AD4F88C1080
:10214000284605F045FDD4F88C707B1CC4F88C3013
:1021500002F02AFE04EB8707F864D4F88C7012F0C2
:102160009BFB3946594A0346284605F099FDD4F8A9
:102170008C707B1CC4F88C3008F0ECFF04EB8707F4
:10218000F864D4F88C7012F087FB39460346504A45
:10219000284605F085FDD4F88C707B1CC4F88C3083
:1021A00001F020FE04EB8707D6F84031F86493F87D
:1021B00016349BB9D4F88C7012F06EFB3946034686
:1021C000444A284605F06CFDD4F88C707B1CC4F89A
:1021D0008C300DF037FB04EB8707F864D4F88C7073
:1021E00012F05AFB39463C4A0346284605F058FD92
:1021F000D4F88C707B1CC4F88C300CF05DFD04EBC3
:102200008707F864D4F88C7012F046FB3946034611
:10221000324A284605F044FDD4F88C707B1CC4F883
:102220008C3003F0B7FC04EB8707D6F84031F86434
:1022300093F816349BB9D4F88C7012F02DFB394604
:102240000346274A284605F02BFDD4F88C707B1CEA
:10225000C4F88C300AF028FB04EB8707F864D4F844
:102260008C7012F019FB39461E4A0346284605F0C9
:1022700017FDD4F88C707B1CC4F88C300EF0A0FADB
:1022800004EB8707D4F88C20D6F83831F864019233
:102290002822009200221146D3F88830284605F003
:1022A00083FD284605F030FE0023214628461A46C5
:1022B00005F026FE4FF4FA61284603B0BDE8F04071
:1022C00005F06BBB56770208140000205A7702080D
:1022D000637702086E7702087B7702088877020826
:1022E000987702089E7702082DE9F04F8BB00446DC
:1022F00008F04CFA08F070FA04F500568DF81B004F
:10230000D6F8385108F042FA8168003918BF012127
:1023100028460FF0CAFC96F83411D6F838010FF0B1
:10232000E3FFD6F83831B44AC3F88020D3F88C7074
:1023300012F064FB0368DB689847054612F0ACFABC
:102340000368DB689847D6F83831D3F888300593AE
:10235000824612F0A1FA026892689047834612F012
:102360009BFA0268D268904705EB4505A349059B97
:10237000BA1E4FF0060804F6F849521B400000252B
:1023800008FB1B33A2EB4A02CDE901150090294658
:10239000484611F0D9F94FF47A71484612F08BF99A
:1023A00004F5C357964A183711460223384608F0F9
:1023B00055F821462B462A46384608F04BF8D6F801
:1023C000400104F053F9D6F83831D3F8882005924B
:1023D00012F062FA03689B689847B4F9FEBC824623
:1023E00012F05AFA03689B689847059A85490123B9
:1023F000029304F63849B4F9063D019308FB00F056
:10240000013A08FB1A225B460090484613F0E6FCAE
:102410002A462B464846214613F089FE294648465F
:1024200013F07AFE4FF47A71484612F044F9B4F989
:10243000063DB4F9FE9C03EBD37309EB630912F07C
:102440002BFA0368DB689847804612F025FA6FF094
:102450007F4B04F6285A0422A9EB580368490190DF
:10246000CDF800B0504611F04DFCB4F92C1D099187
:1024700012F012FA03689B689847804612F0BEFA81
:1024800003689B689847B4F9023D0593089012F0E1
:10249000B5FA0368DB689847079012F0AFFADDE9F8
:1024A0000821059BA3F1020C079B04F5566908EB74
:1024B00088080A44ACEB03035149CDE900B042441B
:1024C000484611F01FFCB4F93C2C079212F0D0FAE8
:1024D00003689B689847B4F9FEBC059012F0C8FAEF
:1024E0000599079A019004F69858FF230B200BF1E9
:1024F000040B00FB1122009341495B46404611F05A
:1025000001FC40F2E931504612F0D5F840F2EA31D0
:10251000484612F0D0F840F2EB31404612F0CBF8CA
:1025200004F505531033019343230093364AD6F83C
:102530003C012346214605F0C4FD29462046FFF70D
:1025400005FC2046FFF7D8FD04F5A45604F55D65AB
:1025500010362846002105F5907500F0FAFCB542CA
:10256000F7D112F00FFA6FF07F43009304F5B051EA
:10257000002301901A46183104F5AF5011F0C2FB48
:1025800004F148060025D4F88C30AB4228D800234B
:10259000C4F890309DF81B307BB102231B4A1C49C4
:1025A000384607F05BFF42F21071384608F056F8E3
:1025B000D4F88C30013BC4F89030D4F8901004F17A
:1025C000940005F0DBFBD4F8903004EB8304E06C5E
:1025D0000368DB6898474FF000000BB0BDE8F08F50
:1025E00056F8040FB4F9FE2C0368283A9B6828219A
:1025F00098470135C7E700BF404040008080800019
:10260000FA7802085677020801150008A777020831
:10261000F0770208F8B500F500550446D5F84001FA
:1026200090F8701303F0C0FE0022014604F6285013
:1026300011F0BCFCD5F8400190F8F11303F0BCFE9A
:102640000022014604F5566011F0B0FCD5F84011A7
:1026500091F8E923134623F0400381F8E933C2F3EC
:10266000801201F2F23104F6985011F09FFC04F54B
:102670005D670026F1B2D5F8400103F0DFFE0136B8
:102680000146384600F065FC062E07F59077F1D13B
:10269000D5F8403194F86C2C93F8E33304F63840C5
:1026A000002A39D0002B0CBFFF214FF47F4113F0DB
:1026B0007FFCD5F8403193F80F24002683F80F648F
:1026C000BAB1D4F8903004EB830304F14807D86C16
:1026D00003681B6998472046FFF70EFDD4F88C303D
:1026E000B3421FD8E06C0023C4F890300368DB6865
:1026F0009847D4F8903004EB83041421E06C03680D
:102700005B699847D5F8380100F5C150043013F0E3
:1027100014F84FF00000F8BD002B0CBF6FF07F41A4
:10272000FF21C4E757F8040FB4F9FE2C0368283AD8
:102730009B68282198470136D0E708B558B109B9F8
:10274000002008BD0269D0F81431C83001FB023105
:1027500000F0FFFBF4E70220F3E7C0E9001283601A
:10276000704701694B1E10B559420446594100F5A6
:10277000F47013F0D1FC2169A1F10A0251425141D8
:1027800004F52A7013F0C8FC2169A1F164004142EC
:10279000414104F55A70BDE8104013F0BDBC32B998
:1027A00001207047484301339342FBD170470846EC
:1027B0000123F9E737B504460D46703011F07BFF71
:1027C000691C04F1140011F076FFA91C04F26440A6
:1027D00011F071FFE91C04F2245011F06CFF05F0B8
:1027E000F3FB0546FEF7BEFE04F5BD6301460D4A48
:1027F00000932846234605F092FC05F0E5FB0546CC
:10280000FEF7B0FE04F5C063019303230146009375
:102810002846054A234605F054FC4FF0000003B05B
:1028200030BD00BF3B270008C32B00082DE9F04F47
:102830008BB0CD4D07921E462B68DFF840A3BFF347
:102840005B8F13F0010F04460F460CD128461FF092
:10285000C2FE40B1D4F8E4352846D3F88830CAF82F
:1028600000301FF0C4FE12F017F86FF07F4304F140
:102870009005009300231A4639460190284611F02E
:1028800041FA28469DF85C1011F055FBB4F99C30D4
:10289000DAF80010C91A082200234908284604F172
:1028A000140911F051FF4946284611F0C7FE0121D5
:1028B000284611F000FFDAF80030B4F99A70A3F15D
:1028C000100812F09BF80368DB689847169B029388
:1028D00004F1C80508370D2300EB80003A46019348
:1028E000009043460821284600F064FA4FF47F42E6
:1028F0000421284600F020FB12F080F80222014655
:10290000284600F038FCDDE91412284600F060FB90
:102910003146284600F01DFB12F070F800270346F0
:1029200005220799284600F03CFC494684F8D870F7
:10293000284611F083FE0121284611F0BCFE04F266
:102940002443069304F23446A3460597B4F9D48091
:102950000323A8F10808B8FBF3F803F059FC169A12
:1029600005460A212046FFF71AFF069A009052F802
:10297000043F069231461022284603F0BDFE304641
:10298000FDF738FC079B794AC0F11001304422F072
:10299000F3F90599B4F9CC2008F1040301FB0322F3
:1029A000B4F9D23009920833089312F027F801687D
:1029B000C96888470BF5F477012500EB8000DDE955
:1029C00008323146CDE900800295384613F006FA08
:1029D000FEF7C8FD664A23460146384613F0A7FBBA
:1029E0000021384613F098FB0321384613F028FBEA
:1029F000DBF8E83149469B6838469847DBF8E83110
:102A00002946DB6838469847059B2B44032B0593E2
:102A100006F110060BF1C00B98D1169A022A28BFB6
:102A200002220A212046FFF7BAFE2061C02000FBE7
:102A300002400026294600F5F47013F06DFB029564
:102A40000196B4F9F231083304F140070093DAF843
:102A5000003032463146384610F076FE38460421C2
:102A600010F0C4FE38464FF6FF7110F0D6FE314626
:102A7000384610F0E9FE4946384611F0DFFD314690
:102A8000384611F018FED4F8E425B4F94E30D2F8E7
:102A90008C200093D21A02EBD272DAF800302A416D
:102AA0003146484611F023FDD4F8E435D3F88C20A4
:102AB00000923146324604F17000D3F8883010F0AD
:102AC000D7FED4F8E43584F88050D3F88CA011F008
:102AD00095FF0368DB689847D4F8E435D3F888207D
:102AE00002EBD27242FA05F7814611F087FF0368C4
:102AF000DB68984704F26448043F09EB490900EB9E
:102B00004000CDE90070AAEB09033246194902954D
:102B1000404613F063F9FEF725FD23460146144AAB
:102B2000404613F004FBD4F8E435B4F97024D3F82C
:102B300088100295B4F97234CDE9002304F22457C9
:102B4000B4F96A348A1A38460B4913F047F9FEF78C
:102B500009FD074A01462346384613F0E8FA304695
:102B60000BB0BDE8F08F00BF14260020FA770208F2
:102B7000C32B0008FE7702080178020818260020FF
:102B800010B5044605F020FA04F5BD6105F0DEFA43
:102B900005F01AFA04F5C06105F0ADFA04F114006D
:102BA00011F099FD04F1700011F095FD04F26440FC
:102BB00011F091FD04F2245011F08DFD4FF0000052
:102BC00010BDF8B5044600284AD000F264478F4291
:102BD00014D1FFF7D5FF206848B1D4E9011223468C
:102BE00012F02BFB2046FFF7BCFD0020F8BD636808
:102BF000002BF7D0A06821469847F3E700F224564F
:102C00008E4202D1FFF7BCFFECE700F5F473994266
:102C100002D101232361E5E700F52A73994201D12E
:102C20000A23F7E700F55A73994201D16423F1E7CB
:102C30000B784D7853B92946384613F06DFA002DBC
:102C4000D0D139462046FFF7BCFFCBE7012BC9D1D5
:102C50002946304613F060FA002DC3D13146F1E722
:102C60000220C3E7B0F904007047B0F906007047CE
:102C7000B0F908007047B0F90A007047B0F90C00CD
:102C80007047B0F90E007047007C704701747047C0
:102C90002DE9F341089E04461D46B0F90630B0F90F
:102CA0000400301A0090EB1A04F1500090460F46D1
:102CB00010F03DFBB4F90420B4F90630B21A0092CA
:102CC000EB1A4246394604F1B80010F0ABFF94F815
:102CD00018317BB1B4F90420B4F90630B61AEB1AF6
:102CE0004246394604F18000089602B0BDE8F04142
:102CF00010F098BF02B0BDE8F0812DE9F341089EC5
:102D000004461D46B0F90430B0F90600301A0090B0
:102D1000EB1A04F1500090460F4610F05DFBB4F939
:102D20000620B4F90430B21A0092EB1A4246394632
:102D300004F1B80010F016FF94F818317BB1B4F923
:102D40000620B4F90430B61AEB1A4246394604F1AB
:102D50008000089602B0BDE8F04110F003BF02B059
:102D6000BDE8F08110B50446052919D8DFE801F067
:102D7000030F181803160B4904F1500010F064FDFE
:102D800023682046DB6CBDE8104000211847006A2C
:102D900020B1D4E90912234612F04FFA0021EBE7E3
:102DA00010BD00BF8080800010B103689B68184789
:102DB000704700002DE9FF470446DDE90C651F461A
:102DC0004FF0FF30E0643818A18001440E9B218150
:102DD000711EE2800A446281EA1AC4E90E23A781C7
:102DE000E681012100204FF00A0C83426BDC216454
:102DF00004F58470002B6AD0009310211346374AE3
:102E000021F0BAFF013504F1F0094846FDF7F2F967
:102E1000A8420CD004F1EF0100239D4294BF002290
:102E2000012201335201182B01F8012FF5D10025A1
:102E300001232A462946CDE9015300963B4604F179
:102E4000500010F081FC11F0D9FD04F1B8086FF0CA
:102E50007F47494601902B462A464046009710F08E
:102E600051FFD4E90E3203EB0209D4F8E800B4F9BB
:102E70000CA009F10109AA4218BF09F10109FFF7E5
:102E800093FFB4F9C6305FFA89F9F61A00FB19A16D
:102E900006EBD6762B4672104908404611F054FCDA
:102EA00011F0ACFD2B46CDE900700D4904F1800016
:102EB0002A4610F027FF2368DB6C2946204604B021
:102EC000BDE8F04718470CFB01F101308DE71346D0
:102ED0001021044A21F050FF95E700BF087802084E
:102EE000FA78020819780208C36F994210B50446AF
:102EF00009D0503010F07AFC23682046DB6CBDE826
:102F000010400021184710BD10B5036FC0E90C1226
:102F1000044690F82C00002818BF114699420AD0A8
:102F200004F1500010F079FC23682046DB6CBDE80A
:102F300010400021184710BD38B515460446FFF76C
:102F4000D3FF294620464FF47F42BDE83840FFF7C3
:102F5000DBBF436C99420A46B8BF1A46836C9A425B
:102F6000A8BF1A46C36C934273B504462ED0C56BF6
:102F7000C26400F5847300F1F001B8305DB90092CD
:102F8000182211F042F823682046DB6C0021984794
:102F9000012002B070BD266C92FBF6F506FB1522EF
:102FA000002AB8BF5242CDE90052182211F02DF884
:102FB000E36C002BE7DA226C93FBF2F3002BE2D1F7
:102FC000A36B23442D2283F8EE20DCE70020E0E70A
:102FD000C0E91112C16CFFF7BCBF2DE9F041D0E987
:102FE0000E531D44002B18BF013590F81831013BDA
:102FF0000446042B00F2AA80DFE803F03A330361B1
:103000008600B0F90C60D0F8E800FFF7CDFEB4F907
:10301000C630B4F90E20D21AB4F98C30B11EC91AD8
:1030200094F8E4306B4300FB131102EBD2720023DF
:103030005210490804F1B80011F086FBB4F9C050F1
:10304000D4F8B000B4F9C27004F18006023510B1B2
:103050000368DB6898473A1A00232946304611F086
:1030600073FB23682046DB6CBDE8F0410021184764
:10307000B0F9C630B0F90E20B0F90C10D21AB0F980
:103080008E30D21AB0F98C3002EBD272C91A5210BB
:1030900000234908803011F057FBD4F8E800B4F958
:1030A0000C60FFF781FE94F8E430B4F98A206B439A
:1030B00000FB13610023490804F1B800CFE7B0F921
:1030C0000C60D0F8E800FFF76FFEB4F9C630B4F931
:1030D0000E20D21A94F8E4306B4300FB136102EB2C
:1030E000D27200235210490804F1B80011F02CFBF1
:1030F000B4F98C30B4F90C10B4F9C220C91A4908DB
:10310000002304F18000AAE7B0F90C60D0F8E800D1
:10311000FFF74AFEB4F9C630B4F90E20D21A94F87B
:10312000E4306B4300FB136102EBD27200235210B8
:10313000490804F1B80011F007FBB4F9C000B4F974
:103140008C10B4F9C2200023411ADAE7B0F90C6000
:10315000D0F8E800FFF728FEB4F9C630B4F90E2025
:10316000D21A94F8E43002EBD2726B4300FB136185
:10317000521000239FE770B500F1B80604461546CB
:10318000304610F09BFEE9B2304610F0D4FE2046E7
:10319000FFF723FF23682046DB6CBDE87040002169
:1031A000184770B500F1800604460D4680F81821D6
:1031B0001946304610F082FE29463046002210F0B3
:1031C000F5FE2046FFF709FF23682046DB6CBDE8CB
:1031D00070400021184790F82C308B4210B50446FF
:1031E00011D0D0E90C2380F82C1000290CBF114617
:1031F0001946503010F011FB23682046DB6CBDE807
:1032000010400021184710BDC0E9081283627047C2
:1032100010B5D0B109B9002010BD0379052B0ED827
:103220004FF490725343C2188468D2F8AC2103F56E
:10323000B07301FB04211844FFF78BFEEBE7D0F8D5
:10324000643F00F618701944F6E70220E4E72DE920
:10325000F041044604F0B8FE04F5985104F076FFFE
:1032600004F5B07504F1100700264FF490782B6830
:1032700028461B699847FEF74DFD08FB06F303F54A
:103280005D6203441044D3F8D03D1B699847D5F8DC
:10329000C03605F5D8601B6998473B6838461B69FE
:1032A00001369847062E05F5907507F13807DED1EF
:1032B00041F2380541F27826635960191B69C0351F
:1032C0009847B542F8D104F6187011F004FA04F5E5
:1032D0006E6011F000FA04F5955004F58054183032
:1032E00011F0F9F9D4F8F00203681B699847D4F893
:1032F000F40203681B6998474FF00000BDE8F081B5
:1033000010B5044603F02FF8034B08B1987810BDB0
:1033100094F81524985CFAE74893020800F5805366
:103320002DE9F04FD3F8FC32D3F81034062B8FB0D0
:1033300028BF06230233B2FBF3F2A2F108030C1DEF
:103340000593834611F05AFB0368DB689847059B99
:1033500000EB8000984207D211F050FB0368DB6855
:10336000984700EB80030593059B0894043B5B089A
:103370000993059B08330B9300235E460BF110085D
:1033800006930BF58054D4E9BE30D3F88890D0F87A
:103390001034069A062B28BF06239A4206F590772A
:1033A00008F1380AC0F0F6800BF593580BF59457E6
:1033B0000BF5815508F118081337183500264FF022
:1033C000030A4FF00109D4F8FC3293F81524D3F81E
:1033D0001034002A14BF39464146D4F8F822079128
:1033E000062BD2F8882092FBFAF206FB02F228BFE5
:1033F000062304320692013B4FF49072534303F5C7
:10340000B0705B445844D3F860319B6B9847059B80
:10341000CDF808900193D4F8F832D3F8883093FBB4
:10342000FAF3083BDDE90621009300F10803284682
:1034300012F0D4FCFEF796F8002301461A462846FF
:1034400012F075FE01362846032112F0F9FD032E15
:1034500008F1090807F10C0705F1C005B3D111F017
:103460001BFA03689B689847D4F8F832B4F942A075
:10347000D3F88880054611F00FFA03689B689847D7
:10348000A8F110034FF00A0808FB05F105220025FA
:103490000BF61877CDE901250AF1080A059A009282
:1034A00008FB1033524638460C31FFF783FCFF22ED
:1034B00004213846FFF740FD11F0A0FA0222014630
:1034C0003846FFF758FE42F2107238460121FFF7E6
:1034D0007FFD4FF496713846FFF73BFDD4F8FC3280
:1034E00093F815249E4B53F8224011F087FA324688
:1034F000034621463846FFF754FEFEF733F82B46C5
:1035000001462A463846FFF77FFE8BF8289F11F0C8
:10351000C3F90BF56E646FF07F462B462A46019087
:1035200090490096204610F0EDFB2046022110F055
:1035300002FDBBF9263FBBF91E1F03EBD37301EB62
:103540006301BBF9EE3E03EBD372A1EB62022B46A3
:103550000421204611F0F8F80BF587500121CBF833
:103560000880183012F0D8FDBBF96441BBF96671D0
:1035700011F044FA0834CDE9006008370BF5955096
:1035800079493B462246183010F0BCFB28460FB064
:10359000BDE8F08F9DF8183007931946FFF7B0FE8D
:1035A000A9F10803072206F5B075019203EBD37366
:1035B000059A02905B10284600920621089A99FB12
:1035C000F1F1FFF7F7FBFF2204212846FFF7B4FCD7
:1035D00011F014FA022201462846FFF7CCFD0799A4
:1035E000D4F8FC0202F02AFF01462846FFF7B1FC9E
:1035F000D4F8FC325D4A93F8153452F8239011F058
:10360000FDF94946034603222846FFF7CAFDFDF7A8
:10361000A9FF00231A4601462846FFF7F5FD3B6C3B
:10362000012128469B6C98473B6C28465B6B98476A
:103630003B6C81469B6B28469847D4F8F8320A9039
:10364000D3F888203B6C0D925B6B2846984707990E
:103650000C90D4F8FC02FFF753FEDDE90C32099917
:1036600002900091DDE9090106F50266D31A0822ED
:10367000083B01920A1A09F104013046FFF79AFB50
:103680003B4A02213046FFF757FC11F0B7F90122FF
:1036900001463046FFF76FFD00213046FFF759FC29
:1036A000D4F8FC32314A93F8153452F8239011F0D3
:1036B00069F90322034649463046FFF772FD079930
:1036C000D4F8FC0202F045FE064611F0E5F86FF072
:1036D0007F43009300231A4631460190404610F084
:1036E00011FB0221404610F026FC5AF8383CDE69F6
:1036F0003B6C2846DB6A98475AF8383C8146DB6BBE
:103700004046984700EBD07009EBD9734FEA600947
:10371000C9EB63013B6C07911B6B284698473B6CD8
:1037200081461B6C284698475AF8383C00EBD0700D
:103730001B6C09EB60054046984700EBD070A5EB89
:103740006002002340460799B047069B0B9A01335D
:103750000693089B13440893D0463E4613E600BFE9
:103760005893020821780208FA7802086493020844
:10377000808080002DE9F04F04468BB000F1100AE4
:1037800006464FF0000900F58058D8F8FC32D3F80F
:103790001034062B28BF0623994506F590753AD3B9
:1037A00041F2380541F2782663596019DB686521DA
:1037B000C0359847B542F7D1642104F6187010F06F
:1037C0007AFF642104F56E6010F075FF04F59550E2
:1037D0006521183010F06FFFD8F8F00203686621F9
:1037E000DB689847D8F8F40203686621DB689847DD
:1037F00004F0EAFB0546FDF7B5FE04F598530146D3
:10380000009328463D4A234604F089FC4FF000000F
:103810000BB0BDE8F08FFEF77DFA4FF4907303FB19
:1038200009F3059303F55D67D5F80037049006F5B5
:10383000026B0744DB6A584698472B6C069006F5E6
:10384000B0761B6B30469847D5F800370790DB6B96
:1038500058469847D5F800270990126C584690476B
:103860005FFA89F10890D8F8FC02FFF749FD089A41
:10387000099B02900821019100923846DDE9061269
:10388000FFF798FA1E4A02213846FFF755FB11F060
:10389000B5F8012201463846FFF76DFCD8F8FC3236
:1038A00093F81524174B53F82210069111F06AF87B
:1038B0000322034606993846FFF773FC2B6C6421FC
:1038C000DB6830469847DDE9043213446421D3F8BD
:1038D000D03D3846DB689847D5F800376421DB686F
:1038E00058469847DAF800305046DB68642198471C
:1038F00009F101090AF1380A2E4646E7113200089B
:103900008080800064930208F8B5204B036000F5C6
:1039100080531F4EC3F8B862044600F59550183026
:1039200010F0F8FE41F2B81540F678776359601947
:103930001B68C03D9847BD42F8D104F61870FDF7EA
:103940006BFFC4F8E06E04F56E6010F0E3FE4FF418
:103950005C65635960191B68A5F590759847B5F5C6
:10396000E06FF6D1635960191B68A5F5907598470B
:10397000402DF7D14FF49475635960191B68383D99
:10398000984715F1280FF7D12046F8BD008C0208A2
:10399000A4B7020808B50248FFF7B6FF08BD00BF8C
:1039A0002026002010B50446FFF7AEFF204641F266
:1039B00018311EF00EFE204610BD017905292DE9B3
:1039C000F84398BF0021044688BF012100F6187013
:1039D000FFF701FC04F5B076002504F580594FF699
:1039E000FF77E9B2D9F8FC02D6F84C8002F026FD48
:1039F0004FF47F42404514BF3946FF213046FFF760
:103A000083FA2179A1EB050CDCF1000141EB0C01FB
:103A100030460135FFF7DFFB062D06F59076E0D145
:103A2000A1684B1E594204F581505941183012F0DB
:103A300073FBA168A1F10A02514204F5875051417C
:103A4000183012F069FBA168A1F1640041424141C4
:103A500004F58D501830BDE8F84312F05DBB00004E
:103A60002DE9F04700F580570446D7F8FC3293F86B
:103A7000162400F59550022A00F1180033D193F86E
:103A8000E4532F492F4B0022954218BF194610F0DE
:103A90008DFA02F0BDFB237B90F87063B34202D035
:103AA000032B23D02673FEF735F92749FEF7EAF9F1
:103AB000FEF730F92549FEF717FA0025A0462E46F5
:103AC000D7F8FC02D0F81034062B28BF06239D42FD
:103AD00008F5907923D316B12046FFF76EFF4FF01B
:103AE0000000BDE8F0871A490022D0E7012ED9D1A5
:103AF00004F5B0780025D7F8FC02D0F81034062B76
:103B000028BF06239D42CDD2E9B202F097FC0146C0
:103B10004046FFF71EFA013508F59078EBE7E9B269
:103B2000D9F88CA002F08AFCAAEB000108F502602B
:103B3000FFF70FFA3043C6B20135C846C0E700BFF1
:103B40003078020827780208377802083B780208A4
:103B5000FA78020800F5815318339942F7B5044604
:103B600008D10123A36000252046FFF726FF284641
:103B700003B0F0BD00F587531833994201D10A23F1
:103B8000F0E700F58D531833994201D16423E9E73A
:103B900000F58055D5F8F0328B4214D1D5F8FC02EF
:103BA00090F87033012B49D10193D4F8643F64221B
:103BB00053430093D4F8EC33D4F8CC22D4F8AC11AE
:103BC00003F084FBCFE7D5F8F4328B421FD1D5F850
:103BD000FC3293F87033012B30D100F5B07700261A
:103BE000D5F8FC02D0F81034062B28BF06239E42DD
:103BF000B9D297F82C3033B1F1B202F01FFC014674
:103C00003846FFF7A6F9013607F59077E8E700F6A2
:103C1000187399420FD000F5B07291424FF0000333
:103C20000AD04FF490700133062B9CD000FB032583
:103C3000A942F8D100E00623237194E7092593E710
:103C40002DE9F84F624B0360062303710A2383605A
:103C500000230646037300F1100400F5B0752046FA
:103C60003834FDF797FCAC42F9D106F502652046E1
:103C700004F59074FDF700FDAC42F8D106F56E65D1
:103C8000204604F59074FDF7F7FCAC42F8D12046CD
:103C9000FDF780FC06F61870FDF7EEFC06F5815482
:103CA00006F59358DFF834B1DFF834A1183408F181
:103CB00018080025204610F01BFD6FF07F4323639A
:103CC0000127C4F800B084F8345084F83550C4E9B2
:103CD0000855C4E90A5504F138004FF0FF3910F0D7
:103CE00007FDC4F838A0256684F86470A56684F8DA
:103CF0006C5084F86D5084F86E5084F86F70C4F87E
:103D00007090A4F87850C4E9165504F17C0010F0C6
:103D1000EFFCC4F87CA0C4F8A45084F8A870C4F8E0
:103D2000AC5084F8B05084F8B15084F8B25084F8A4
:103D3000B370C4F8B490A4F8BC50C4E92755C0349B
:103D40004445B7D1234B06F5805404F51E7203F1A8
:103D5000180718685968154603C50833BB422A4638
:103D6000F7D119889B78AB701B4B298004F2932202
:103D700003F1240153F8040B42F8040B8B42F9D1F0
:103D800006F595501830FDF705FCFDF7C3FF00F56B
:103D9000B1501830C4F8F002FDF7BCFF00F5BD507B
:103DA0001830C4F8F4020DF0E9FEC4F8F80202F08D
:103DB0002FFA002384F80C33C4F8FC02C4E9C033A2
:103DC000C4E9C433C4F808333046BDE8F88F00BFF7
:103DD000008C0208B4720208CF720208A020030807
:103DE000ECB5020810B50A4C2368BFF35B8FDB0704
:103DF0000CD420461EF0EFFB40B10648FFF720FF31
:103E000005481FF0D5FF20461EF0F1FB014810BD0C
:103E10001C260020202600209539000870B190F85B
:103E20009030052B06D800EB8300036E0B4403662D
:103E300000207047C36D0B44C365F9E7022070474B
:103E40002DE9F843044604F0BFF804F5A2511031FF
:103E500004F5805604F07AF9201D10F03CFCD6F8E9
:103E60004404FEF78DFE04F1980804F6A8074FF409
:103E7000F47540F6A809635960191B699847D8F88A
:103E8000003040461B6998473B6838461B6905F57A
:103E9000907598474D4508F1380807F1C007EAD1F9
:103EA0004FF46265635960191B69C0359847B5F5D1
:103EB000895FF7D104F6285010F00DFC04F6E850A5
:103EC00010F009FC04F58B5010F005FC04F594503B
:103ED00010F001FC04F59550183010F0FCFB04F5CF
:103EE0009B50183010F0F7FBD6F8380403681B69B4
:103EF0009847D6F83C0403681B699847D6F84004F5
:103F000003681B699847FDF705FF0021FDF71EFFB9
:103F10004FF00000BDE8F8832DE9F743044604F5AF
:103F20008059FDF7F7FEFDF799FFFDF7F3FEFDF76A
:103F3000B9FFD9F84C3493F81624022A0BD193F820
:103F4000E4038049804B0022904218BF194604F6D2
:103F5000E85010F02BF804F5F4760025D9F84C045D
:103F6000D0F81034062B28BF06239D42C0F0A8804D
:103F700004F15C03002653F8045F002D00F0B980C3
:103F8000D4F894305D4326B990F81634022B08BF5C
:103F90006D4294F8901004EB860702F0E4F96B4A46
:103FA000B96F4EF66023002818BF134600293A6EF9
:103FB00080F29180002A80F2958004F005F8036F6A
:103FC000D4F89420142B38BF142353433C2253437A
:103FD0000A22B3FBF2F34FF00008CDF800802A4626
:103FE000D9F84C04F1B203F0BDF8C7F86080C5B24F
:103FF000D9F84C3493F8053404F595561836002B4F
:104000007CD05349304611F090FFD9F84C3493F8E6
:10401000043404F59B571837002B71D04D493846AE
:1040200011F083FFD9F84C34D3EDFF7AFCEEE77A38
:1040300004F58B5017EE903A99B2FEF78AFFE36DC4
:10404000B3B1D4F89410D9F8AC2104F58B5001FB2E
:104050000321FEF77EFFD9F84C040023E36590F8B6
:1040600004342BB190F80524D9F8AC1103F022FCEC
:10407000D9F84C3493F8E33304F6285804F6A8042E
:10408000002B42D0D9F84C3493F8703303F0FD0381
:10409000012B3FD1404612F008F82046C03412F000
:1040A00004F8A045F9D1384611F0FFFFD9F84C3497
:1040B00093F804343046002B3ED012F011F83DE066
:1040C000E9B202F0BBF901463046FEF742FF013586
:1040D00006F5907642E705D0002A3FF76EAF4FF025
:1040E000FF3204E0002ACCBF01224FF0FF32BA6752
:1040F00071E70136062E7FF43EAF79E7164981E776
:104100001649384611F011FF99E706F03FFB037995
:10411000032BB7D0D9F84404FEF732FD404611F026
:10412000DFFF2046C03411F0DBFFA045F9D138464F
:1041300011F0D6FF3046C0E711F0B7FF284603B0B4
:10414000BDE8F083307802082778020880F5200067
:104150004378020847780208447802084C7802083D
:1041600010B5044602F0FFF8044B08B1986810BD82
:1041700094F8152453F82200F9E700BF649302086D
:104180002DE9F04FCD4B5B688FB003F03F03CDE9D5
:1041900009120F1D04460B9310F030FC0368DB6816
:1041A00098470A9B1D1F04F580532D1AD3F84C34F1
:1041B000D3F81034062B28BF06230233B5FBF3F5E2
:1041C000A5F10803049310F019FC0368DB68984715
:1041D000049B00EB8000984207D210F00FFC0368AC
:1041E000DB68984700EB80030493049B089708332F
:1041F0000C9304F6A80307930023069304F5805359
:10420000264604F198080593059B069AD3F84C04BA
:10421000D3F84834D3F888B0D0F81034062B28BF30
:1042200006239A4206F5907708F13809C0F05681C6
:1042300004F5626904F5895A002704F580564FF4A5
:10424000907BD6F84834D3F88810D6F84C34D3F89D
:104250001034062B28BF0623013B0BFB03F303F5A9
:10426000F47023441439D3F8E83189089B6B059125
:10427000204498470599049B0A1D7A434FF0010892
:10428000CDE90013043200F1080351464846CDF849
:10429000088011F0A3FDFDF765F9002301461A46D9
:1042A000484611F044FF4846032111F0C9FE474437
:1042B0004846002111F030FF042F09F1C0090AF12E
:1042C0000C0ABED1414604F57A6011F025FFCDF805
:1042D0000880B4F9F6310193B4F9EC317849083B20
:1042E00004F628590093B4F9EE313A46484611F0E5
:1042F00075FDFDF737F9002301461A46484611F0CF
:1043000016FFB4F9EC91B4F9EEB110F077FB6FF051
:104310007F4A09F108090BF1080B01905B464A46F8
:1043200004F6E8506649CDF800A00FF0EBFCD6F893
:104330004834DDE90921D3F888304FF0000B0A44F6
:104340000521CDE9011B03EBD3730499009104F51A
:104350008B5943FA08F3043A063B521A4846394649
:10436000FEF728FD3946FF224846FEF7E5FD10F02E
:1043700045FB022201464846FEF7FDFED6F84C34C6
:104380004846B3F81C14FEF7E4FDD6F84C34484612
:10439000B3F81A24B3F81C14FEF71AFE10F02EFB23
:1043A0004849034603224846FEF7FBFEFDF7DAF8CC
:1043B0005B465A4601464846FEF726FF414686F8C8
:1043C00070814846FEF707FF10F018FB04F594597A
:1043D000CDE900A05B465A4648463B490FF092FCA7
:1043E000B6F96621B6F964115B46083208314846D1
:1043F00010F0AAF9049BB6F96821CDF80880019362
:10440000B6F96C313149043B03EBD37343FA08F33B
:1044100004F5955909F118090093B6F9663105328A
:10442000484611F0DBFCFDF79DF85B4601465A4615
:10443000484611F07CFE049BB6F9C022CDF80880F6
:104440000193B6F9C432009304F59B5909F1180998
:10445000B6F9BE321E490532484611F0BFFCFDF7E1
:1044600081F85B4601465A46484611F060FE04F169
:104470003C080B9B174A00932021174B404620F025
:104480007BFCB4F92A9EB6F9665110F0B7FA0368BE
:10449000DB689847064610F0B1FAA5EB0905AD1B9D
:1044A000CDE900A009EB5503201D3A4641460FF027
:1044B00029FC58460FB0BDE8F08F00BF003802401D
:1044C000FA780208567802085A78020844780208F6
:1044D0004C78020862780208408C02089DF818A007
:1044E0005146FEF70DFF08220192049A009206F54C
:1044F000F4760622ABF108030290114630469BFB8E
:10450000F1F19B0093FBF2F3089AFEF753FCFF22B4
:1045100004213046FEF710FD10F070FA0222014629
:104520003046FEF728FE00213046FEF712FD059BBF
:104530005146D3F84C04FFF713FE834610F05EFAA1
:104540005946034603223046FEF72BFEFDF70AF8D4
:1045500000231A4601463046FEF756FED7F8C8300B
:1045600030469B6C01219847059B5146D3F84C047B
:1045700001F0EFFE824610F08FF96FF07F43009359
:1045800000231A465146019040460FF0BBFB022122
:1045900040460FF0D0FC59F8383CDB691D46D7F88F
:1045A000C8303046DB6A984759F8383C8346DB6BA5
:1045B0004046984700EBD0700BEBDB734FEA600B83
:1045C000CBEB630BD7F8C83030461B6B9847D7F856
:1045D000C83082461B6C3046984759F8383C00EB8F
:1045E000D0700AEB600A1B6C4046984700EBD07015
:1045F000AAEB6002594600234046A847D7F8C830C6
:1046000030465B6B9847D7F8C83082461B6B304604
:104610009847059BD3F84834D3F88810D7F8C830AA
:104620000D915B6B834630469847D7F8C82080468B
:10463000126C304690470D99A1EB0808A8F10803C9
:104640000122CDE901020E49079800930AF1040204
:104650005B4611F0C3FBFCF785FF00231A460146B9
:10466000079811F064FD069B0C9A01330693089B92
:1046700013440893079BC0330793C8463E46C3E5DF
:104680005278020838B5244B0360044600F59B506D
:104690001830FDF731F804F595501830FDF72CF877
:1046A00004F59450FCF7D4FF04F58B50FDF7B4F8F3
:1046B0004FF48355635960191B68C03D9847B5F5A1
:1046C000566FF7D104F6E850FCF7C2FF04F6285005
:1046D000FDF712F840F66845635960191B68C03D44
:1046E0009847B5F5FD6FF7D14FF4F165635960193F
:1046F0001B68A5F590759847C82DF7D14FF4D8756C
:10470000635960191B68383D9847602DF8D1201D0A
:10471000FCF79EFF204638BD248C020808B50248ED
:10472000FFF7B0FF08BD00BF3C39002010B50446BC
:10473000FFF7A8FF204641F268411DF04AFF2046DE
:1047400010BD10B50021044600F5626011F0E4FCD4
:1047500004F56E60002111F0DFFC04F57A600021A1
:1047600011F0DAFC04F583500021BDE8104011F08F
:10477000D3BC00002DE9F04F00F58A55002789B021
:10478000044600F589560C3500F56268BA46C6F84D
:1047900000A0C6F804A0C6F808A094F89010052957
:1047A00004F5805969D8D9F84C0490F81534002BD9
:1047B00014BF4FF0060B4FF0020B01F0D4FD0028A0
:1047C00018BF4FF00A0B05F0E1FFBB445FFA8BFB0B
:1047D00000EB8B00D9F84CB4436894F890106B60F0
:1047E0005846059301F0BFFD002840D02E4B9A6833
:1047F00094F89010D9F84C040792FFF7B1FC94F8A4
:1048000090100690D9F84C0401F0ADFD069B079A74
:104810000193059B0290009231460C22584601F00C
:10482000D7FF731E002213F8011F202937D10C2354
:1048300003FB0743134403F589530A221A70D8F87F
:1048400000306421DB684046984798F8343013B153
:104850006B68C4F894300137042F06F10C0605F19B
:10486000040508F1C00892D109B0BDE8F08F9BF8AB
:1048700015340D4A52F82320BAE777B12B680A2283
:1048800053430A4A6B60019201220092CDF808A0BE
:10489000D9F84C040C223146C1E70123F1E701327B
:1048A0000C2AC0D1CBE700BF4C9302086C780208F9
:1048B0002DE9F74F0446012104300FF0FCFE20469D
:1048C000FFF758FF04F5F47604F6A80704F19809F9
:1048D000B0464FF0000BBA4604F58055D5F84C347D
:1048E000D3F81034062B28BF06239B456BD3062331
:1048F00084F890303046002106F59076FEF76BFC88
:10490000B245F7D1D5F84C3493F81634022B09D1BF
:10491000652104F6E8500FF0CEFE632104F628501E
:104920000FF0C9FE04F58B56642130460FF0C3FE2C
:1049300000213046FEF74FFC652104F594500FF03E
:10494000BAFE04F59550642118300FF0B4FE04F55A
:104950009B50642118300FF0AEFED5F84C34B3F8FC
:104960001834DB070FD5FDF7D5F90121FDF7EEF976
:104970002149D5F83C0411F0D8FAD5F83C04036875
:104980006621DB689847D5F8380403686621DB6840
:104990009847D5F8400403686621DB68984703F020
:1049A00013FB0546FCF7DEFD04F5A2531033014668
:1049B00000932846114A234603F0B1FB4FF0000054
:1049C00003B0BDE8F08FD8F800306421DB684046C2
:1049D0009847D9F800306421DB68484698473B681F
:1049E0003846DB68642198470BF1010B08F5907895
:1049F00009F13809C03771E7707802081D3E0008D8
:104A00002DE9F04F00F580558BB0D5F838348B4246
:104A100004460E4600F01881D5F840348B4200F071
:104A20001381D5F83C348B420BD100238749D5F84C
:104A30004C04099309AA02F0D3FA00200BB0BDE898
:104A4000F08F00F6285399420DD1D5F84C0490F818
:104A5000E43323B100237E49099309AAEBE77D499A
:104A6000099309AAE7E7D5F844348B4207D1D3F874
:104A70001421197BD5F84C0402F060FDDDE700F548
:104A80009B53183399420ED1D5F84C0490F8043456
:104A900013B102F05FFFD0E790F80524D5F8AC1110
:104AA00002F008FFC9E700F595531833994211D079
:104AB00000F56263994216D000F56E67B94222D0C4
:104AC00000F57A67B94220D000F58357B9421ED16C
:104AD00003250AE0D5F84C0490F8051481F0010193
:104AE00002F016FFA9E70F460025204605F25445BF
:104AF000FFF727FE0121384611F00EFB54F8253050
:104B0000C4F8943099E70125EFE70225EDE700F5B9
:104B1000F47700F6A80AB9464FF00008B14540F016
:104B20008A8099F82C305FFA88FB002B3FD0D5F8AB
:104B30004434D5F84C040493594601F00AFC05901E
:104B4000D5F84C04444B90F81524594653F82220CC
:104B5000D9F84C3007920693FEF7D2FB0221CDE93B
:104B600002013E4B3E49CDE90013DDE90632DDE9A5
:104B70000401FDF75BFED5F844B4FCF7F3FC002319
:104B800001461A465846FDF7E8FDD5F8440442F2BE
:104B90001071C0F80C80FDF70DFE08F10108B8F1A6
:104BA000060F09F590790AF1C00AB7D118E004F6AA
:104BB000A80AB8464046002108F59078FEF70BFB9E
:104BC000D045F7D1002104F58B50FEF704FB484691
:104BD0000121FEF700FB84F890B02046FFF7CAFDE4
:104BE00004F58B58B0457FF428AFD5F84C04D0F8C5
:104BF0000834642B0AD0992101F0F2FCD5F84C045A
:104C0000D5F8AC1190F8052402F054FE012140467D
:104C1000FEF7E1FA062384F8903004F6A80538463A
:104C2000002107F59077FEF7D6FAAF42F7D120467C
:104C3000FFF7A0FD01E75645AFD1D5F84C045FFA68
:104C400088F102F04DFCA8E70920F7E67578020824
:104C5000797802087D7802086493020880969800AB
:104C6000806967FF4F4B70B5044640F8043BFCF782
:104C700091FC00252022002104F13C0020F04CF999
:104C80002946E565182204F1600020F045F929461F
:104C9000182204F1780020F03FF9062384F89030C0
:104CA0000123C4F8943004F1980504F5F4762846FD
:104CB0003835FCF76FFCB542F9D104F6A806284652
:104CC00005F59075FCF7D8FCB542F8D104F62856E6
:104CD0002846C035FCF78CFCB542F9D12846FCF7D4
:104CE00087FC04F6E850FCF755FC04F5626604F511
:104CF00089553046C036FCF77BFCAE42F9D104F54D
:104D0000805530220021304620F006F91022002183
:104D100005F5A87020F000F904F58B50FCF7ACFC09
:104D200004F59450FCF736FC04F595501830FCF768
:104D30005FFC04F59B501830FCF75AFCFCF7EAFFC7
:104D400000F5B1501830C5F83804FCF7E3FF00F562
:104D5000B7501830C5F83C04FCF7DCFF00F5BD5037
:104D60001830C5F84004FCF7D5FF00F5D8501C30CA
:104D7000C5F844040CF002FFC5F8480401F048FAF5
:104D8000002385F85C34C5F84C04C5F85034C5F8E8
:104D90005434C5F85834C5F86034C5F86434204636
:104DA00070BD00BF248C020810B50A4C2368BFF305
:104DB0005B8FDB070CD420461DF00DFC40B106488C
:104DC000FFF750FF05481EF0F3FF20461DF00FFCD3
:104DD000014810BD383900203C3900201D4700082B
:104DE0004FF00000704738B50446FCF793FF0546C6
:104DF000FDF7B0F805F5AF5004F58B5542F2107190
:104E000014350FF058FC4FF4FA6128460BF0F5FC0E
:104E100063681BB9012128460BF064FF236829460B
:104E20009B69204698474FF0000038BD10B50446F6
:104E3000FCF770FF00F5AF500FF04DFC04F5005388
:104E4000D3F82403FDF79CFE04F50350343005F03D
:104E500034FA04F58B5014300BF0DEFC4FF00000F8
:104E600010BD00002DE9F04385B004468846154684
:104E700000F58B560CF082FE28230222CDE9003289
:104E80001436D0F888304246002130460BF003FD3E
:104E90000FF0C8FC002319462D4A009030460BF055
:104EA00053FE0FF0BFFC2B4A009000230121304637
:104EB0000BF04AFEFCF756FB002301461A4630462B
:104EC00004F5C7570BF031FF143704F5A65304F56A
:104ED000035214333E4634322121C6E900314036B4
:104EE000964203F12103F8D1FCF73CFB04F580590D
:104EF000194B0093014622463046184B05F0E7F85F
:104F000004F50054B9F982319844D4F85833D3F8F1
:104F100088400FF073FD0368DB689847B9F9823168
:104F2000CDF80080083DED1AA5EB400500232022B6
:104F30003946CDE90145304605F0B2F93046002149
:104F400005F0EBF94FF0000005B0BDE8F08300BFBD
:104F50005584020881780208155400083956000863
:104F60002DE9F84304460FF0C3FB364B2360364B64
:104F7000DFF8E0906FF07F42C4E90B23334B00274A
:104F8000C4E90D37C4E90877C4E90F77A76204F1D3
:104F900044000FF071FA04F17000FCF7EBFA04F131
:104FA000A000FCF7E7FA04F1D000FCF7E3FA04F5FF
:104FB000807604F5CE754FF0FF3830460FF098FB41
:104FC000C6F8009086F82070C6F82C8086F83070FD
:104FD000C6E909773436B542EFD1DFF87C8004F5B5
:104FE0003B790026012728460FF082FBC5F8008098
:104FF000AE6285F82C702E6385F83460C5E90866CA
:1050000005F138000FF074FBC5F838802E6685F87E
:105010006470AE6685F86C60C5E9166670354D45FE
:10502000E1D12846FCF7A6FA04F547700FF060FBC3
:10503000074BC4F81C330CF0A1FDC4F83C03204618
:10504000BDE8F88308A60208808080004040400048
:105050009CB6020894AD0208A4B7020838B51B4BF1
:1050600003601B4BC0F81C33044600F547700FF07B
:1050700051FB184BC4F8EC3204F53B700FF04AFBBF
:105080004FF42D75635960191B68383D9847B5F585
:10509000B27FF7D14FF4B475635960191B68343D82
:1050A0009847CC2DF8D1D025635960191B68303D45
:1050B0009847402DF8D12046074B40F8443F0FF069
:1050C00029FB20460FF026FB204638BD08A6020823
:1050D0009CB6020844B60208FCB70208F8B51A4BA1
:1050E000036000F50355044605F5B670FCF704FBB4
:1050F00004F5005605F1AC00FCF7FEFA134BC6F8B8
:10510000383104F5045038300FF004FB104BC6F86A
:10511000043104F5045004300FF0FCFA04F5C756CE
:105120000C4F34351436B54206D0403D284640F881
:10513000087F0FF0EFFAF6E704F58B501430FFF715
:105140008DFF2046F8BD00BF648C020844B60208FB
:10515000FCB70208A4B7020808B50248FFF7BEFF73
:1051600008BD00BFA84D002010B50446FFF7B6FFEC
:10517000204642F260311DF02CFA204610BD10B5D9
:105180000446FFF76BFF20464FF450711DF021FAE3
:10519000204610BD13B50446406818B10CF0B2FCAF
:1051A000002363600022114604F1080003F064F854
:1051B0000FF038FB0023009004F58B50054A194688
:1051C00014300BF0C1FCFCF7A5FD02B0BDE81040A7
:1051D000FCF7C0BE5584020838B50D460446FFF7FB
:1051E000D9FF28460CF08AFC002303706060FCF7AE
:1051F00091FDFCF7AFFE606838BD0000F7B51546BD
:10520000002401AA0830089F01941E4603F060F8AC
:1052100060BB002003B0F0BD3B2B08BF0131013261
:105220000192019A13780D2B23D9B942F4D3019935
:105230000B78202B24D0092B22D00D2B05D842F23D
:10524000014222FA03F3DF07E3D42A4601392E4450
:10525000B242DFD011F8013F0D2B14D842F20144C5
:10526000DC40E40711D500231370D3E72146084C36
:10527000D7E744FA03F3DB07D9D5B942CFD3D6E752
:1052800001310191D3E73B2BEDD002F8013BDFE781
:10529000FEDBFFFF2DE9F3410024009405460E4696
:1052A00017469846FFF7AAFF044630B943463A46E8
:1052B000314605F1080003F04BF9204602B0BDE885
:1052C000F08137B5022500951446FFF797FF00B926
:1052D000207003B030BDF7B51646002401AA08308F
:1052E0001F46019402F0F4FF054648B90025284600
:1052F00003B0F0BD3B2900F1010008BF013401906B
:10530000019801780A2906D00D2904D019B1BC42B0
:10531000F0D30D2904D842F20143CB40DB07E5D49A
:105320001EF04FFD3060E2E710B501231446FFF791
:10533000D2FF08B90123236010BD00002DE9F0471A
:1053400092B00546182200210CA81FF0E5FD06AF1B
:105350001022002108A81FF0DFFD0024012305F51D
:10536000C75605F50358D5F87CA006947C600493D5
:105370001436A14608F13408544533D01F2C02D10D
:1053800012B0BDE8F087214605AA05F10800CDF866
:10539000149002F080FF182321460CAA2846FFF73C
:1053A00079FF214604AA2846FFF7BEFF21460823BD
:1053B0003A462846FFF785FFCDE90179049B009323
:1053C00005F50050059BD0F85C03102208A901F0F8
:1053D000FFF9314603460CAA404604F07FFE013433
:1053E0004036C9E71F2CCBD005F5035605EB8411D9
:1053F000343601F5C751054B054A1431304604F0E7
:105400006DFE611C304604F088FFB9E7FA780208A7
:105410008978020810B5044690B100F58052D2F8A0
:10542000AC2152B9C26F914205D2083003F01AFD87
:105430002046FFF783FF002010BDFFF7ABFEFAE721
:105440000220F9E72DE9F04100F58B5514358D4226
:105450009AB0044640F0B58000F58053D3F8AC31E3
:10546000012B40F09A80FCF77DF80021283010F0E5
:1054700013FA1BF0AFFF60496048002219F056F89C
:10548000E8B1002604F5A6523346143200211F2B42
:105490007ED9FCF767F804F5035400213434283032
:1054A00010F0C2F93146204604F037FF642120464F
:1054B00004F06AFF4FF000001AB0BDE8F0815049D7
:1054C0000DA819F0BCFB06460028DAD14D4F02A901
:1054D0000DA819F012FC00284AD19DF81E30002BAF
:1054E00046D00DF11D0313F8012F12B1013015281C
:1054F000F9D100F1140502ABA0F103081D44B8F185
:10550000000F01D1434616E015F8013D2E2B02D0C5
:1055100008F1FF38F3E7A8781FF062FB7328F7D192
:1055200000F076FE90F8163433BB68781FF058FB15
:105530006D2821D101239DF81020D206C7D4002B5D
:10554000C5D004EB8611029B019308460DF11E03A2
:1055500041F6F80241F6F405009300F5C7508A5869
:1055600049593B461C3001360EF04FFD202EAED17E
:105570000DA819F0ABFB85E700F04AFE90F8163451
:10558000022BC5D168781FF02BFB6C28C0D1D1E766
:1055900003EB43100133115479E7436800F50354DA
:1055A000343453B1FFF7CAFE6421204604F0ECFE08
:1055B000002128460BF096FB7CE7204604F07DFE98
:1055C00078E700F50052D2F824338B4209D1D3F8A2
:1055D0001421D968083002F06DFE2046FFF7AEFEB8
:1055E00068E7D2F820338B427FF464AF09F064FBA4
:1055F00009F062F85EE700BFA4D401206CD201205C
:10560000817802089278020810B503231446FFF748
:1056100062FE08B9014B236010BD00BF806967FFBF
:1056200010B504231446FFF756FE08B9014B23605A
:1056300010BD00BF809698002DE9F0430D4691B053
:105640000446002800F04B8100F58053D3F8AC618C
:10565000002E40F0958043682BB3C36F994237D139
:1056600000F50055D5F85C3393F87033012B1ED844
:10567000089609F021FB08A909F07EF908340646CE
:105680000146089A204602F0FCFD60B1204604F075
:105690005BF8D0B1FCF73EFB044609F00DFB014678
:1056A0002046FCF731FC002011B0BDE8F0838D4AA4
:1056B00002238D49D5F8200304F0D0FED5F820034D
:1056C00042F2107104F0CAFFEDE702233246F0E720
:1056D00004F50C57012305AA083028370893CDE9B3
:1056E0000566079604F50D5802F0D5FD20233A46CD
:1056F00029462046FFF7CEFD08F1080808AA2946EA
:105700002046FFF711FE1023424629462046FFF7A8
:10571000D8FD06AA29462046FFF776FF07AA2946A4
:105720002046FFF77DFF089B0A22092B24DC01237A
:10573000CDE90263079B019304F50059069B009392
:105740004246059BD9F824033946FDF76FF8D9F88E
:105750002463FBF707FF002301461A463046FCF797
:10576000FCFFD9F8240342F21071C560FDF722F85E
:105770002046FFF7E3FD96E7013693FBF2F3D4E70B
:1057800008AE5A49202230461FF0EDFB3046FAF7AA
:1057900031FDAF0104EB851505F5C7553118002320
:1057A000C0F1200014352A68D25CCA54002A76D190
:1057B0000DF13F03002213F80119202973D9DFF8F6
:1057C000309101223146484618F0F0FE0546002887
:1057D00061D1D9F80C3003F1010809F06DFA08F035
:1057E0006BFF41462046FFF7F7FC002872D0424687
:1057F0006168069506AB484618F0DCFF069B6268B8
:10580000D55404F1080642466168304602F034FD82
:10581000079509F051FA07A909F0AEF8079A014671
:105820008046304602F02DFD304604F0BAFA0028DA
:105830003DD041F6F4032744F95804F5A55313333A
:105840004A5D03F8012F22B12E2A02D00135202D06
:10585000F6D1254441F2B4470026EE550EF0E2FFA2
:1058600004F58B5514353346E2193146009028462D
:105870000BF06AF92046FFF761FD04F5035064213F
:10588000343004F081FD314628460BF02BFA09F044
:1058900013FA08F011FF164819F0A7F803E70133CF
:1058A000984280D184E7B3425A7084D187E720467A
:1058B000FFF770FC04F50054022342460A49D4F86D
:1058C000200304F0CBFDD4F8200342F2107104F061
:1058D000C5FEE0E7074A04F500540223EEE7022084
:1058E000E2E600BF9E78020884810208C9780208B7
:1058F0003CD00120D27802082DE9F84300F580540D
:105900000025894B03600646C0E90455C0E91D55D2
:10591000C0E91F55C0E92155844945608561782259
:1059200004F12C001FF067FCD022294604F1A400EA
:105930001FF0F2FA7E4BC4F8A830022384F8AC3092
:105940007C4BC4F8B0300C2384F8B4307A4BC4F8E4
:10595000B8300E2384F8BC30784BC4F8C030132321
:1059600084F8C430764BC4F8C830072384F8CC30B0
:10597000744BC4F8D030112384F8D430724BC4F87F
:10598000D830122384F8DC30704BC4F8E03009239F
:1059900084F8E4306E4BC4F8E830062384F8EC3029
:1059A0006C4BC4F8F0300A2384F8F4306A4BC4F826
:1059B000F8300B2384F8FC30684BC4F80031052321
:1059C00084F80431664BC4F80831032384F80C31A1
:1059D000644BC4F81031042384F81431624BC4F8CA
:1059E0001831142384F81C31604BC4F8203115237E
:1059F00084F824315E4BC4F828310D2384F82C310F
:105A00005C4BC4F830315C4BC4F83831082384F85F
:105A10003C315A4BC4F840310F2384F84431584B81
:105A2000C4F84831102384F84C31564BC4F8503137
:105A3000162384F85431544BC4F85831172384F892
:105A40005C314FF00108514BC4F8603106F58B50C2
:105A500084F834811430FFF783FA04F2D4404FF411
:105A6000846229461FF058FA06F5C75406F5035715
:105A7000DFF81C9114343437C4E9005504F10800F0
:105A80000EF036FEC4F80890256384F83480A563D0
:105A900084F83C50C4E90A554034A742ECD106F5DD
:105AA0000054C4E93D55C4E93F5507F110000EF01C
:105AB000E3FCC4E94C5507F14400FBF75BFDC4F877
:105AC000685107F17800FBF793FD07F59C70FBF731
:105AD0008FFD0CF053F8C4E9BD55C4E9BB05C4E91A
