:020000040800F2
:1000000000000220F1CD010849C501084BC50108D7
:100010004DC501084FC5010851C501080000000089
:10002000000000000000000000000000D1B701083F
:1000300053C501080000000061B8010855C501085A
:1000400041CE010841CE010841CE010841CE010850
:1000500041CE010841CE010841CE010841CE010840
:1000600041CE010841CE010841CE010841CE010830
:1000700041CE010841CE010841CE010841CE010820
:1000800041CE010841CE010841CE01080000000028
:1000900000000000000000000000000041CE010848
:1000A00041CE010841CE010841CE010841CE0108F0
:1000B00041CE010841CE010841CE010841CE0108E0
:1000C00041CE010841CE010841CE010841CE0108D0
:1000D00041CE01086DC5010841CE010800000000B5
:1000E00041CE010841CE010841CE010800000000C8
:1000F00000000000000000000000000041CE0108E8
:100100000000000079C5010841CE010841CE010878
:1001100000000000000000000000000000000000DF
:1001200041CE010841CE010885C5010891C50108ED
:1001300041CE0108000000000000000000000000A7
:100140000000000000000000000000009DC5010844
:10015000A9C5010841CE0108B5C5010841CE010875
:1001600041CE010841CE010800000000000000005F
:10017000000000000000000000000000000000007F
:100180000000000041CE0108000000000000000057
:0801900041CE010841CE010837
:1001A00010B5054C237833B9044B13B10448AFF3B1
:1001B00000800123237010BD5003002000000000C8
:1001C000BC1A020808B5034B1BB103490348AFF33F
:1001D000008008BD0000000054030020BC1A020883
:1001E00010F8012B11F8013B012A28BF9A42F7D0E1
:1001F000D01A7047034613F8012B002AFBD1181AB6
:1002000001387047000000000000000000000000FE
:1002100001F0FF01102A2BDB10F0070F08D010F8B7
:10022000013B013A8B422DD010F0070F42B3F6D1BB
:10023000F0B441EA012141EA014122F007047FF0D4
:1002400000070023F0E80256083C85EA010586EA2B
:10025000010685FA47F5A3FA87F586FA47F6A5FA67
:1002600087F68EB9EED1F0BC01F0FF0102F0070273
:1002700032B110F8013B013A83EA010313B1F8D11E
:100280000020704701387047002D06BF35460338FF
:10029000073815F0010F07D1013015F4807F02BF38
:1002A000013015F4C03F0130F0BC0138704700BF89
:1002B00081F0004102E000BF83F0004330B54FEA17
:1002C00041044FEA430594EA050F08BF90EA020F84
:1002D0001FBF54EA000C55EA020C7FEA645C7FEA17
:1002E000655C00F0E2804FEA5454D4EB5555B8BF3A
:1002F0006D420CDD2C4480EA020281EA030382EAAB
:10030000000083EA010180EA020281EA0303362D3C
:1003100088BF30BD11F0004F4FEA01314FF4801C0F
:100320004CEA113102D0404261EB410113F0004F21
:100330004FEA03334CEA133302D0524263EB4303D8
:1003400094EA050F00F0A780A4F10104D5F1200E76
:100350000DDB02FA0EFC22FA05F2801841F10001D1
:1003600003FA0EF2801843FA05F359410EE0A5F1A5
:1003700020050EF1200E012A03FA0EFC28BF4CF0D6
:10038000020C43FA05F3C01851EBE37101F000458C
:1003900007D54FF0000EDCF1000C7EEB00006EEB99
:1003A0000101B1F5801F1BD3B1F5001F0CD3490823
:1003B0005FEA30004FEA3C0C04F101044FEA44527A
:1003C00012F5800F80F09A80BCF1004F08BF5FEA01
:1003D000500C50F1000041EB045141EA050130BDE1
:1003E0005FEA4C0C404141EB0101013C28BFB1F5F3
:1003F000801FE9D291F0000F04BF01460020B1FA3E
:1004000081F308BF2033A3F10B03B3F120020CDA10
:100410000C3208DD02F1140CC2F10C0201FA0CF0EE
:1004200021FA02F10CE002F11402D8BFC2F1200C53
:1004300001FA02F120FA0CFCDCBF41EA0C01904009
:10044000E41AA2BF01EB0451294330BD6FEA040452
:100450001F3C1CDA0C340EDC04F11404C4F120023D
:1004600020FA04F001FA02F340EA030021FA04F34F
:1004700045EA030130BDC4F10C04C4F1200220FAA6
:1004800002F001FA04F340EA0300294630BD21FAE4
:1004900004F0294630BD94F0000F83F4801306BFAA
:1004A00081F480110134013D4EE77FEA645C18BF9E
:1004B0007FEA655C29D094EA050F08BF90EA020F35
:1004C00005D054EA000C04BF1946104630BD91EA2D
:1004D000030F1EBF0021002030BD5FEA545C05D130
:1004E0004000494128BF41F0004130BD14F580046F
:1004F0003CBF01F5801130BD01F0004545F0FE41E3
:1005000041F470014FF0000030BD7FEA645C1ABF17
:10051000194610467FEA655C1CBF0B46024650EA4E
:10052000013406BF52EA033591EA030F41F400217A
:1005300030BD00BF90F0000F04BF0021704730B500
:100540004FF4806404F132044FF000054FF00001D5
:1005500050E700BF90F0000F04BF0021704730B596
:100560004FF4806404F1320410F0004548BF40426B
:100570004FF000013EE700BF42004FEAE2014FEAC0
:1005800031014FEA02701FBF12F07F4393F07F4F9B
:1005900081F06051704732F07F4208BF704793F09E
:1005A0007F4F04BF41F40021704730B54FF46074B1
:1005B00001F0004521F000411CE700BF50EA0102B4
:1005C00008BF704730B54FF000050AE050EA01025D
:1005D00008BF704730B511F0004502D5404261EBCD
:1005E00041014FF4806404F132045FEA915C3FF40E
:1005F000D8AE4FF003025FEADC0C18BF03325FEAAB
:10060000DC0C18BF033202EBDC02C2F1200300FA5B
:1006100003FC20FA02F001FA03FE40EA0E0021FA80
:1006200002F11444BDE600BF70B54FF0FF0C4CF46E
:10063000E06C1CEA11541DBF1CEA135594EA0C0F20
:1006400095EA0C0F00F0DEF82C4481EA030621EA5B
:100650004C5123EA4C5350EA013518BF52EA033596
:1006600041F4801143F4801338D0A0FB02CE4FF048
:100670000005E1FB02E506F00042E0FB03E54FF078
:100680000006E1FB03569CF0000F18BF4EF0010E70
:10069000A4F1FF04B6F5007F64F5407404D25FEA6C
:1006A0004E0E6D4146EB060642EAC62141EA55511F
:1006B0004FEAC52040EA5E504FEACE2EB4F1FD0C61
:1006C00088BFBCF5E06F1ED8BEF1004F08BF5FEADF
:1006D000500E50F1000041EB045170BD06F0004691
:1006E00046EA010140EA020081EA0301B4EB5C043E
:1006F000C2BFD4EB0C0541EA045170BD41F4801136
:100700004FF0000E013C00F3AB8014F1360FDEBF5A
:10071000002001F0004170BDC4F10004203C35DA36
:100720000C341BDC04F11404C4F1200500FA05F3B9
:1007300020FA04F001FA05F240EA020001F000425A
:1007400021F0004110EBD37021FA04F642EB0601D0
:100750005EEA430E08BF20EAD37070BDC4F10C04FA
:10076000C4F1200500FA04F320FA05F001FA04F2BE
:1007700040EA020001F0004110EBD37041F10001AA
:100780005EEA430E08BF20EAD37070BDC4F12005B5
:1007900000FA05F24EEA020E20FA04F301FA05F21D
:1007A00043EA020321FA04F001F0004121FA04F2C5
:1007B00020EA020000EBD3705EEA430E08BF20EA95
:1007C000D37070BD94F0000F0FD101F000464000CF
:1007D00041EB010111F4801F08BF013CF7D041EA51
:1007E000060195F0000F18BF704703F00046520055
:1007F00043EB030313F4801F08BF013DF7D043EA26
:100800000603704794EA0C0F0CEA135518BF95EADB
:100810000C0F0CD050EA410618BF52EA4306D1D162
:1008200081EA030101F000414FF0000070BD50EA81
:10083000410606BF1046194652EA430619D094EA0B
:100840000C0F02D150EA013613D195EA0C0F05D1F5
:1008500052EA03361CBF104619460AD181EA030149
:1008600001F0004141F0FE4141F470014FF0000001
:1008700070BD41F0FE4141F4780170BD70B54FF09C
:10088000FF0C4CF4E06C1CEA11541DBF1CEA13551C
:1008900094EA0C0F95EA0C0F00F0A7F8A4EB0504FE
:1008A00081EA030E52EA03354FEA013100F08880F5
:1008B0004FEA03334FF0805545EA131343EA1263BE
:1008C0004FEA022245EA111545EA10654FEA002673
:1008D0000EF000419D4208BF964244F1FD0404F52C
:1008E000407402D25B084FEA3202B61A65EB030588
:1008F0005B084FEA32024FF480104FF4002CB6EB45
:10090000020E75EB030E22BFB61A754640EA0C00C4
:100910005B084FEA3202B6EB020E75EB030E22BF04
:10092000B61A754640EA5C005B084FEA3202B6EB45
:10093000020E75EB030E22BFB61A754640EA9C0004
:100940005B084FEA3202B6EB020E75EB030E22BFD4
:10095000B61A754640EADC0055EA060E18D04FEA92
:10096000051545EA16754FEA06164FEAC30343EA32
:1009700052734FEAC2025FEA1C1CC0D111F4801FFF
:100980000BD141EA00014FF000004FF0004CB6E7F8
:1009900011F4801F04BF01430020B4F1FD0C88BF97
:1009A000BCF5E06F3FF6AFAEB5EB030C04BFB6EBA2
:1009B000020C5FEA500C50F1000041EB045170BD95
:1009C0000EF0004E4EEA113114EB5C04C2BFD4EBC2
:1009D0000C0541EA045170BD41F480114FF0000E46
:1009E000013C90E645EA060E8DE60CEA135594EAC2
:1009F0000C0F08BF95EA0C0F3FF43BAF94EA0C0FC5
:100A00000AD150EA01347FF434AF95EA0C0F7FF439
:100A100025AF104619462CE795EA0C0F06D152EA8D
:100A200003353FF4FDAE1046194622E750EA410671
:100A300018BF52EA43067FF4C5AE50EA41047FF482
:100A40000DAF52EA43057FF4EBAE12E74FF0FF3CE7
:100A500006E000BF4FF0010C02E000BF4FF0010CB8
:100A60004DF804CD4FEA410C7FEA6C5C4FEA430C31
:100A700018BF7FEA6C5C1BD001B050EA410C0CBF80
:100A800052EA430C91EA030F02BF90EA020F0020E2
:100A9000704710F1000F91EA030F58BF994208BF49
:100AA00090422CBFD8176FEAE37040F00100704706
:100AB0004FEA410C7FEA6C5C02D150EA013C07D15D
:100AC0004FEA430C7FEA6C5CD6D152EA033CD3D0A8
:100AD0005DF8040B704700BF8446104662468C46A2
:100AE0001946634600E000BF01B5FFF7B7FF0028D5
:100AF00048BF10F1000F01BD4DF808EDFFF7F4FFFE
:100B00000CBF012000205DF808FB00BF4DF808ED88
:100B1000FFF7EAFF34BF012000205DF808FB00BFAB
:100B20004DF808EDFFF7E0FF94BF012000205DF8CD
:100B300008FB00BF4DF808EDFFF7CEFF94BF012082
:100B400000205DF808FB00BF4DF808EDFFF7C4FF7B
:100B500034BF012000205DF808FB00BF4FEA410CC4
:100B60007FEA6C5C02D150EA013C0AD14FEA430CA7
:100B70007FEA6C5C02D152EA033C02D14FF00000E4
:100B800070474FF0010070474FEA410212F5001222
:100B900015D211D56FF47873B3EB625212D94FEAC4
:100BA000C12343F0004343EA505311F0004F23FAAE
:100BB00002F018BF404270474FF00000704750EA03
:100BC000013005D111F0004008BF6FF000407047C0
:100BD0004FF00000704700BF4A0011D212F500121A
:100BE00011D20DD56FF47873B3EB62520ED44FEA85
:100BF000C12343F0004343EA505323FA02F0704705
:100C00004FF00000704750EA013002D14FF0FF3042
:100C100070474FF0000070474FEA4102B2F1E043E5
:100C200024BFB3F5001CDCF1FE5C0DD901F0004CD3
:100C30004FEAC0024CEA5070B2F1004F40EB830023
:100C400008BF20F00100704711F0804F21D113F14F
:100C50003872BCBF01F00040704741F480114FEA88
:100C60005252C2F11802C2F1200C10FA0CF320FA11
:100C700002F018BF40F001004FEAC1234FEAD3232E
:100C800003FA0CFC40EA0C0023FA02F34FEA430398
:100C9000CCE77FEA625307D150EA01331EBF4FF021
:100CA000FE4040F44000704701F0004040F0FE403C
:100CB00040F40000704700BF53B94AB9002908BF8B
:100CC00000281CBF4FF0FF314FF0FF3000F0A0B9FB
:100CD000ADF1080C6DE904CE00F03CF8DDF804E05D
:100CE000DDE9022304B0704738B500220023044632
:100CF0000D46FFF70BFF28B920462946BDE83840CE
:100D000000F00AB8204605F1004100F005F8404225
:100D100061EB410138BD00BFD0B50C4B0022064647
:100D20000F46FFF781FCFFF757FF0446FFF702FC71
:100D3000074B0022FFF778FC02460B463046394647
:100D4000FFF7BAFAFFF748FF2146D0BD0000F03D9B
:100D50000000F0412DE9F047089D0C46002B4ED1D4
:100D600094468C458646B2FA82F262D94AB1C2F103
:100D70002003914020FA03F30CFA02FC194300FA15
:100D800002FE4FEA1C471FFA8CF6B1FBF7F44FEA5C
:100D90001E4307FB141143EA014304FB06F1994289
:100DA0000AD91CEB030304F1FF3080F01281994251
:100DB00040F20F81023C6344591A1FFA8EF3B1FBD3
:100DC000F7F007FB101143EA014300FB06F69E42D1
:100DD0000AD91CEB030300F1FF3180F0FC809E4236
:100DE00040F2F980634402389B1B40EA0440002132
:100DF0001DB1D3400022C5E90032BDE8F0878B4227
:100E000005D90DB1C5E9000100210846F5E7B3FA9F
:100E100083F1002946D1A34202D39042C0F0F08072
:100E2000861A64EB03030120002DE6D0C5E90063B8
:100E3000E3E7002A40F09080A1EB0C044FEA1C4845
:100E40001FFA8CF70121B4FBF8F64FEA1E4308FBAA
:100E5000164443EA044307FB06F0984208D91CEB0A
:100E6000030306F1FF3402D2984200F2CD802646F9
:100E70001C1A1FFA8EF3B4FBF8F008FB104443EA87
:100E8000044300FB07F79F4208D91CEB030300F162
:100E9000FF3402D29F4200F2B0802046DB1B40EAC2
:100EA0000640A5E7C1F120068B4022FA06F71F4352
:100EB00020FA06FC04FA01F343EA0C03F44000FABA
:100EC00001F8380C4FEA1349B4FBF0FE1FFA87FC17
:100ED00000FB1E4449EA04440EFB0CF9A14502FA4A
:100EE00001F20AD93C190EF1FF3A80F08480A14545
:100EF00040F28180AEF1020E3C44A4EB09041FFADB
:100F000083F9B4FBF0F300FB134449EA044403FB08
:100F10000CFCA44507D93C1903F1FF3067D2A44566
:100F200065D9023B3C4443EA0E40A0FB0293A4EB8C
:100F30000C049C42CE469C4651D34ED055B1B8EBE2
:100F40000E0364EB0C0404FA06F6CB401E43CC40BF
:100F5000C5E90064002150E7C2F1200320FA03F143
:100F60000CFA02FC24FA03F394400C434FEA1C48A9
:100F700000FA02FE1FFA8CF7B3FBF8F008FB103101
:100F8000230C43EA014300FB07F1994208D91CEB0B
:100F9000030300F1FF362CD299422AD90238634468
:100FA0005B1AA4B2B3FBF8F108FB113344EA034423
:100FB00001FB07F3A34208D91CEB040401F1FF363F
:100FC00013D2A34211D902396444E41A41EA004120
:100FD00039E70446F0E6084606E7C845AED2B9EB65
:100FE000020E63EB070C0138A8E73146EDE7034634
:100FF00099E73046D4E7D6467FE7634402384DE7A9
:101000000646234608460FE7023E634430E700BF2A
:10101000704700BF03798B4228BF0431C91AC9B297
:101020004171704708B503681B699847B0FA80F0B2
:10103000400908BD10B507F039F8204907F058F805
:101040000CF0C2FA1E490CF07DFB0CF0BDFA1D49F4
:101050000CF0BCFB0CF0B8FA03681B68984710F062
:101060000FFA036818495B6A984705F0DDF91749DC
:10107000002205F037FA05F0D7F903681B68984796
:101080001348FFF7CFFF30B10BF0F6FC0368BDE863
:1010900010401B6818470F48FFF7C4FF10B103F05A
:1010A000ADF9F3E703F0BAFC0B4B836603F0B6FC33
:1010B00003681B68984700F0B7FAE7E76C03002065
:1010C000A403002084030020DCDE012094DE012044
:1010D0008804002078040020D003002000BEFEE732
:1010E000704700002DE9F0473D4ADFF840913D4F41
:1010F0003D4BBA601021C9E902210822FA603B4A3F
:101100003B49916000244FF48060C2E90034D06014
:10111000DFF81C81374ADFF81CA1C9F8003001252F
:10112000C8E90035C7E90035C2E900340223D360BD
:101130004FF06413CAF804302F4B304ECAF8003019
:101140002F4BCAF808304FF0051373602D4B3360F6
:1011500006F10C002C4B9160C8E90215C9F8045047
:10116000B3600FF043FE294B294A1A60294AC3F89D
:101170008420A3F88840284B284818604FF4F07268
:1011800027481C760321C3E901124FF4A071C3E97B
:10119000031259610571C180224D0281C3E907A97B
:1011A000C3E909872146204B03604471C66004747B
:1011B000C0F81240C0F81640C0F81A40FFF72AFFE6
:1011C0004FF400404023C5E900034220C5E903462F
:1011D0002C726C610CF0A2F9E860BDE8F08700BFEA
:1011E0000000024098040020F8BE02088804002095
:1011F000000402407804002068BF02085C0400205C
:1012000038DE01201CBF02089CDC0120D003002036
:10121000B8BF0208E4DF0120A4030020CC4C020880
:10122000840300206C030020A44C0208B8040020B2
:10123000A80400206C04002008B5074BD86810B142
:1012400001211BF0FEFD0548054B40F80C3BBDE8B5
:1012500008400FF0D5BD00BF6C0300205C040020E7
:101260001CBF02084FF00000704700F5805090F856
:10127000A808002818BF032070470FF05FBCF8B51E
:101280000446002840D00E784F7826BB00F5B855AC
:101290006B6914351B692846984760B32B6828464C
:1012A0001B6C984738B3DFB10121284610F030FCA1
:1012B000062E1ED103F0B2FB90F86F3304F5AD5447
:1012C0001434DBB103F0AAFB03F0DCFC0021204660
:1012D00010F01EFC0DE0012E0DD100F5BE55D7E734
:1012E0003946284610F014FC23682946DB6920465D
:1012F00098470020F8BD002FDAD1FAE703F08EFB03
:1013000003F08AFC0121E2E70120F3E710B5074B67
:10131000044640F8483B0FF06FFF04F124000FF043
:10132000C1FD201D0FF0BEFD204610BDECBF020820
:1013300010B50446FFF7EAFF204668211BF081FD47
:10134000204610BD054A02600022C0E90122C0E922
:101350000322C0E90522C261704700BFCC570208D2
:1013600010B50446FFF7EEFF064B23600122002371
:1013700084F82C20C4E90833A362236384F8343052
:10138000204610BD205702082DE9F8430446FFF718
:10139000D9FF1C4B236000256FF07F43DFF8689076
:1013A00023634FF001084FF080774FF0FF36C4E918
:1013B0000855C4E90A55A58604F13800FFF7C2FFB5
:1013C000C4E91655C4E91B76C4F83890256684F83C
:1013D0006480A566A4F8785004F17C00FFF7B2FFA2
:1013E000C4E92B5784F8A880C4E92755C4F87C9039
:1013F000C4F8A450C4F8B460A4F8BC502046BDE8BA
:10140000F88300BF54C002087C5502082DE9F84358
:1014100005460026FFF796FFC5E90866C5E90A6696
:10142000354BDFF8E4902B602E6305F1340405F5AD
:101430005D774FF0FF382046FFF784FFC4F8009037
:1014400084F82060C4F82C8084F83060C4E9096610
:101450003434BC42EFD105F2F46620463834FFF74D
:101460007FFFB442F9D105F5975614362046C034B3
:10147000FFF78AFFB442F9D1204605F580540026D3
:10148000FFF760FF1D4BC4F8F43205F59850C4F81F
:1014900014631830FFF778FF05F59E501830FFF7FA
:1014A00073FF05F5A4501830FFF74CFF144BC4F838
:1014B000983405F5A650C4F8B864C4F8BC6484F840
:1014C000C064C4F8C4640830FFF73CFF0D4BC4F897
:1014D000C834C4F8E864C4F8EC64C4F8F06484F870
:1014E000F464C4F8F864C4F8FC640CF06DF8C4F853
:1014F00000052846BDE8F883243102087856020822
:10150000D055020824560208284D0208414B70B5F8
:1015100010220446222140F8043B00230FF0E7FC90
:1015200000230822202104F124000FF0E0FC04F540
:10153000C5530833002663641423C4E91263364B91
:1015400084F85060C4E915344FF48063A4F85E3029
:10155000022384F860302046304B6366304B84F8B9
:101560005C604022314640F8683B1EF001F9C4E956
:101570002A6604F1B000FFF749FF04F5AD501430BE
:10158000FFF702FF04F5B35004F580551430FFF760
:10159000D9FE244BC5F8743604F5B550C5F89466E9
:1015A000C5F8986685F89C66C5F8A0660430FFF714
:1015B000D7FE04F5B6501C30FFF7D2FE04F5B85044
:1015C0001430FFF7E1FE04F5BE501430FFF7DCFEE7
:1015D000032385F894380BF0F7FFC5F8980804F05A
:1015E00023FFC5F89C0803F019FAC5F8A00806F017
:1015F0005DFD85F8BC68C5F8A408C5F8B068C5F8F5
:10160000B468C5F8B868C5F8C068C5F8C4682046AD
:1016100070BD00BFECBF0208C10C0108201F02080A
:10162000981F0208D055020810B50A4C2368BFF372
:101630005B8FDB070CD420461BF005FC40B106484D
:10164000FFF764FF05481CF0FBFF20461BF007FC7A
:10165000014810BDC8040020CC040020851F0008EC
:101660002DE9F04F00F5805785B0D7F89838DFF8AE
:10167000B490D3F8A4A0044600F5B8580EF0C6FE06
:101680000368DB689847D7F89838D3F8A02002EBB6
:10169000D272561005460EF0B9FE0368DB68984713
:1016A00008F114084FF0010B043E05EB450500EB73
:1016B0004000AAEB050349460022CDE90060CDF8C1
:1016C00008B0404610F0D6F819F0F8FC19F0C8FB45
:1016D000002301461A46404610F025FAD7F89838FC
:1016E000B7F92427D3F8A010CDF808B0B7F92637FA
:1016F000CDE9002304F5BE541434B7F91E378A1A15
:101700002046494610F0B6F819F0D8FC19F0A8FBAD
:10171000002301461A46204605B0BDE8F04F10F000
:1017200002BA00BFAF280208034603F5805300F554
:10173000B850D3F8A03893F88833022B0CBF024975
:101740000249143010F0ECB82C1F0208311F0208B7
:1017500000F58052D2F8A02892F88823012A05D1FA
:1017600021B100F5B850143010F0DAB8FFF7DCBF43
:1017700000F5805300F5BE50D3F8A03893F88833B5
:10178000052B00F1140002D1034910F0C9B80BB9C0
:101790000249FAE70249F8E7351F0208FD2F02085F
:1017A0001E2D020800F58052D2F8A02892F8882356
:1017B000012A05D121B100F5BE50143010F0B0B8A7
:1017C000FFF7D6BF70B500F164030446002553F857
:1017D000042F8A4218D1D4F8AC301A3354F82300BD
:1017E00003681B69984704F1B000C4F8AC5029465F
:1017F00004F014FDD4F8AC301A3354F82300036815
:10180000BDE87040DB6818470135102DDFD170BD91
:10181000D0F8AC301A3370B5044650F82300036892
:101820000D461B69984704F1B000C4F8AC50294636
:1018300004F0F4FCD4F8AC301A3354F823000368F5
:10184000BDE87040DB68184770B500F5AD5614363A
:101850008E4204460D4613D100F58054D4F8A008FA
:1018600090F86F3343B103F00DFA0021304610F0C9
:101870004FF94FF0000070BD03F0CEF90121F5E7FC
:1018800000F1B003994204D190F8DC10FFF7C0FFDB
:10189000EFE7D0F8AC301A3350F8230003689B69A7
:1018A0009847C0B20828E4D104F5B85314339D42D8
:1018B0000CD104F58054D4F8A00890F88833022B9A
:1018C00014BF8121822103F098F9D2E704F5BE53B9
:1018D00014339D42CDD104F58054D4F8A00890F87B
:1018E0008833052B02D103F0FBFDC2E7D0F880233B
:1018F0002BB980F87133C0F884231821E3E7002363
:1019000080F87133C0F884231921DCE7F7B5044669
:1019100000F1B00504F58056284604F00AFB2822A1
:101920001021D6F89838CDE9002100221146D3F8CD
:10193000A0300027284604F087FCC4F8A8700EF0F9
:10194000B3FC39460346684A284604F0F9FB674A67
:10195000D4F8A810284604F08BFBD4F8A8707B1CA0
:10196000C4F8A83002F03AFC1A3744F82700D4F83B
:10197000A8700EF099FC39465D4A0346284604F0EB
:10198000DFFBD4F8A8707B1CC4F8A83007F00AF875
:101990001A3744F82700D4F8A8700EF085FC3946B1
:1019A0000346544A284604F0CBFBD4F8A8707B1CAD
:1019B000C4F8A83001F0F8FD1A37D6F8A03844F87A
:1019C000270093F8F933CBB9D4F8A8700EF06CFC6B
:1019D00039460346484A284604F0B2FB474AD4F841
:1019E000A810284604F044FBD4F8A8707B1CC4F867
:1019F000A83009F0C1FF1A3744F82700D4F8A870BE
:101A00000EF052FC394603463D4A284604F098FB46
:101A1000D4F8A8707B1CC4F8A83009F085F91A37EF
:101A2000D6F8A03844F8270093F8F93363BBD4F80C
:101A3000A8700EF039FC39460346324A284604F0B5
:101A40007FFBD4F8A8707B1CC4F8A83007F0E8FD31
:101A50001A37D6F8A03844F8270093F8F9339BB921
:101A6000D4F8A8700EF020FC39460346264A2846D2
:101A700004F066FBD4F8A8707B1CC4F8A83005F00D
:101A800053FE1A3744F82700D4F8A8700EF00CFC67
:101A900039461E4A0346284604F052FBD4F8A87083
:101AA0007B1CC4F8A8300AF08BFB1A37D4F8A820A6
:101AB00044F82700D6F89838019228220092002294
:101AC00011462846D3F8A03004F0BEFB002321467F
:101AD00028461A4604F06CFC4FF4FA61284603B01D
:101AE000BDE8F04004F0E2B93C1F02083C000020D1
:101AF000401F0208491F0208541F02082800002046
:101B0000611F02086E1F0208741F0208871F020867
:101B10002DE9F04F044689B004F5805506F0C6FA69
:101B200006F0EAFAD5F8986806F0C0FA417900396B
:101B300018BF012130460BF030FE95F89418D5F807
:101B400098080CF0C5F9D5F89838784AC3F8982069
:101B5000D3F8A4700EF05AFC0368DB689847064679
:101B60000EF0A2FB0368DB689847D5F89838D3F8E5
:101B7000A030059382460EF097FB0268926890476A
:101B800083460EF091FB0268D268904706EB46064A
:101B9000674A059B04F5B359023F09F114094FF058
:101BA0000608BF1B40000026314608FB1B33CDE969
:101BB00001260090A7EB4A0248460DF0E3FBB5F979
:101BC0008636B5F97E2603EBD37302EB63030593E8
:101BD0000EF06AFB0268D268904782460EF064FB02
:101BE00004F5B557059B5349019004376FF07F4BBF
:101BF0000422A3EB5A033846CDF800B00DF0F1FDF6
:101C00000EF052FB03689B689847B5F9B21606912F
:101C100007900EF0FBFB0368DB68984705900EF019
:101C2000F5FBDDE90531079A04F5B65A0AF11C0AFD
:101C3000D200CB1ACDE900B03E4950460DF0D1FD9F
:101C40004FF47A7148460EF039FA40F2E9313846DD
:101C50000EF034FA40F2E93150460EF02FFAD5F882
:101C6000A00803F00FF8D5F89838D3F8A0A00EF02C
:101C70001BFB03689B689847B5F97EB681460EF05A
:101C800013FB03689B6898470123029304F5AD5743
:101C90001437B5F986362849019308FB00F00AF19C
:101CA000FF3200905B46384608FB19220FF0E2FD38
:101CB00033463246384621460FF035FF3846314626
:101CC0000FF026FF4FF47A7138460EF0F7F92046F0
:101CD000FFF7C6FC2046FFF719FE04F16407D4F8AD
:101CE000A830B34217D8A06E03680026DB68C4F89A
:101CF000AC60984704F5C553103301934323009318
:101D0000D5F89C080D4A2346214604F00BFC3046CA
:101D100009B0BDE8F08F57F8040FB5F97E260368C7
:101D2000283A9B68282198470136D8E74040400070
:101D300080808000AF2802083C1F02087F12000844
:101D4000F8B500F580550446D5F8A00890F888133A
:101D500002F088FE014604F5B550002204300DF073
:101D60008DFED5F8A00890F8D91302F083FE014645
:101D700004F5B65000221C300DF080FED5F8A038D6
:101D800095F8E82593F8CB3304F5AD501430002ACC
:101D900036D0002B0CBFFF214FF47F410FF003FE24
:101DA000D5F8A03893F8F723002683F8F763BAB183
:101DB000D4F8AC301A3304F1640754F823000368F4
:101DC0001B6998472046FFF7A1FDD4F8A830B3421D
:101DD0001CD8A06E0023C4F8AC300368DB689847B9
:101DE000D4F8AC301A33142154F8230003685B692B
:101DF0009847D5F898080BF0CCFC4FF00000F8BDE0
:101E0000002B0CBF6FF07F41FF21C7E757F8040F8D
:101E1000B5F97E260368283A9B6828219847013641
:101E2000D3E7000038B5094B094D0360044640F87C
:101E30007C5F0EF067F9204640F8385F0EF062F9DB
:101E400020460EF05FF9204638BD00BF54C002089E
:101E50007C55020810B50446FFF7E4FF2046C02178
:101E60001AF0EFFF204610BD70B5244B036000F55B
:101E700080550446224BC5F8C83400F5A6500830FA
:101E80000EF040F91F4BC5F8983404F5A4501830F3
:101E90000EF038F904F59E501830FFF7C3FF04F533
:101EA00098501830FFF7BEFF174BC5F8F43204F511
:101EB000975014300EF026F941F2342540F2346682
:101EC000635960191B68C03D9847B542F8D140F28C
:101ED000BC65635960191B68383D9847B5F54F7F5D
:101EE000F7D14FF45075635960191B689847343D1A
:101EF000F9D120460EF006F9204670BD24310208C3
:101F000024560208D0550208785602081A4B70B5BC
:101F10000446036000F5BE501430FFF783FF04F55C
:101F2000B85004F580551430FFF77CFF134EC5F808
:101F3000DC6604F5B6501C300EF0E4F804F5B5503C
:101F4000C5F8A46604300EF0DDF80D4BC5F8743604
:101F500004F5B35014300EF0D5F804F5AD5014303C
:101F6000FFF760FF04F1B000FFF77EFF2046FFF7A8
:101F7000CDF9204670BD00BF981F02082057020807
:101F8000D055020808B50248FFF7C0FF08BD00BFE2
:101F9000CC04002010B50446FFF7B8FF204641F6F8
:101FA000C8011AF04EFF204610BD10B50446FFF7D9
:101FB0005BFF204641F204511AF043FF204610BD5A
:101FC00008B598B109B9002008BD8269D0F8103170
:101FD00001FB023103699942B8BF1946436999422E
:101FE000A8BF1946CC3000F022FCECE70120EBE75B
:101FF00008B519F063F8BDE8084018F031BFC0E932
:1020000000128360704781694B1E10B55942044627
:10201000594100F5F2700FF07BFDA169A1F10A02B0
:102020005142514104F529700FF072FDA169A1F1EF
:1020300064004142414104F55970BDE810400FF081
:1020400067BD000037B504460D4674300EF036F813
:10205000691C04F11C000EF031F8A91C04F58C6019
:102060000EF02CF8E91C04F5A4600EF027F804F03B
:10207000DBF90546FFF7BCFF04F2E45301460D4AC5
:1020800000932846234604F07CFA04F0CDF9054677
:10209000FFF7AEFF04F2FC530193032301460093C4
:1020A0002846054A234604F03DFA4FF0000003B0ED
:1020B00030BD00BFC11F00083B2400082DE9F04FD0
:1020C00089B00F460592DDE91212C0E90412C44D31
:1020D000DFF820B39942B8BF19462B68BFF35B8F76
:1020E00091420E46A8BF164613F0010F04460CD1CC
:1020F00028461AF0A8FE40B1D4F8E0352846D3F8B7
:10210000A030CBF800301AF0AAFE0EF0CDF86FF038
:102110007F4304F19405009300231A463946019049
:1021200028460DF05EFB284602210DF06EFCB4F946
:10213000A430DBF80010C91A0822002349082846F9
:1021400004F11C0A0DF0F8FF514628460EF03AF84B
:10215000012128460DF0B2FFDBF80030B4F9A2707F
:10216000A3F110080EF052F90368DB689847149B3E
:10217000029304F1CC0508370D2300EB80003A46AA
:102180000193009043462846082100F099FA4FF445
:102190007F420421284600F03DFB0EF037F9022271
:1021A0000146284600F040FC3146284600F03FFB3F
:1021B0000EF02CF90027034605222846059900F069
:1021C00049FC5146284684F8E1700DF0FBFF284693
:1021D00001210DF073FF04F58463049304F5866810
:1021E00004F5F275B4F9DC900323A9F10809B9FBF1
:1021F000F3F902F013FC049A52F8043F049201210F
:102200000A22149E8E4200F2E7804146009210227C
:1022100002F07EFD4046FDF7EDFF059B714AC0F1DF
:10222000100140441DF0DAF9B4F9D42009F1040397
:1022300007FB0322B4F9DA300792083306930EF055
:10224000E5F80168C9688847012600EB8000DDE9F0
:1022500006324146CDE90090029628460FF00AFB6F
:10226000FFF7C6FE604A2346014628460FF05BFC96
:10227000284600210FF04CFC284603210FF0DBFB21
:10228000514628460DF09EFF2B6828469B68314634
:1022900037449847032F08F1100805F1C005A1D174
:1022A0000A230025A361314604F529700FF030FCA4
:1022B00002960195B4F9F231083304F14407009312
:1022C000DBF800302A46294638460DF05BF83846E0
:1022D00004210DF0ABF838464FF6FF710DF0B6F85B
:1022E000294638460DF0C5F8514638460DF06AFFCC
:1022F000294638460DF0E2FED4F8E025B4F9563010
:10230000D2F8A4200093D21A02EBD272DBF800308C
:102310003241294650460DF0FDFDD4F8E035D3F8A2
:10232000A420009229462A4604F17400D3F8A03074
:102330000DF0AFF8D4F8E03584F88960D3F8A4A0A4
:102340000EF064F80368DB689847D4F8E035D3F8FA
:10235000A02002EBD27242FA06F781460EF056F840
:102360000368DB68984704F58C68043F09EB49096A
:1023700000EB4000CDE90070AAEB09032A461B4997
:10238000029640460FF076FAFFF732FE23460146EA
:10239000154A40460FF0C7FBD4F8E035B4F9702475
:1023A000D3F8A0100296B4F97234CDE9002304F5F5
:1023B000A467B4F96A348A1A38460D490FF05AFAFC
:1023C000FFF716FE084A0146234638460FF0ABFBDE
:1023D000284609B0BDE8F08F0A267243013110E7A4
:1023E000941D0020BC1F02083B240008C01F0208E7
:1023F000C31F0208981D002010B5044604F014F80D
:1024000004F2E45104F0D5F804F00EF804F2FC51A3
:1024100004F0A3F804F11C000DF067FE04F1740051
:102420000DF063FE04F58C600DF05FFE04F5A46012
:102430000DF05BFE4FF0000010BD2DE9F0410446A9
:10244000002867D000F58C678F4216D1FFF7D4FFC4
:10245000206858B10368D4E901125D682346A84793
:102460002046FFF7D0FD0020BDE8F0816368002B17
:10247000F6D0A06821469847F2E700F5A4658D42A2
:1024800002D1FFF7B9FFEBE700F5F273994202D1F1
:102490000123A361E4E700F52973994201D10A23DE
:1024A000F7E700F55973994201D16423F1E791F8F8
:1024B00000804E78B8F1000F17D1443046B14FF488
:1024C0007F410CF0C3FF012138460FF021FBC7E725
:1024D0004FF47F010CF0BAFF314638460FF018FB7D
:1024E00039462046FFF7A9FFBAE7B8F1010FB7D187
:1024F00044302EB1FF210CF0A9FF41462846E4E705
:102500004FF47F010CF0A2FF314628460FF000FB8C
:102510002946E6E70120A7E7B0F908007047B0F9BF
:102520000A007047B0F90C007047B0F90E00704710
:10253000B0F910007047B0F912007047407D704745
:10254000417570472DE9F341089E04461D46B0F9D8
:102550000A30B0F90800301A0090EB1A04F1480074
:1025600090460F460CF07BFCB4F90820B4F90A3011
:10257000B21A0092EB1A4246394604F1B0000DF04F
:10258000C2F894F810317BB1B4F90820B4F90A30DC
:10259000B61AEB1A4246394604F17800089602B0A2
:1025A000BDE8F0410DF0AFB802B0BDE8F0812DE913
:1025B000F341089E04461D46B0F90830B0F90A0000
:1025C000301A0090EB1A04F1480090460F460CF0C8
:1025D0009BFCB4F90A20B4F90830B21A0092EB1A45
:1025E0004246394604F1B0000DF02DF894F8103150
:1025F0007BB1B4F90A20B4F90830B61AEB1A424696
:10260000394604F17800089602B0BDE8F0410DF0BB
:102610001AB802B0BDE8F08170B5044605291AD891
:10262000DFE801F0030F191903170B4904F1480003
:102630000CF01FFF236820469B6CBDE87040002112
:102640001847006A28B10368D4E909125D68234677
:10265000A8470021EAE770BD8080800010B10368C0
:102660009B6818477047000038B50C4B0C4D036051
:10267000044640F8B05F0DF045FD204640F8785F15
:102680000DF040FD2046074B40F8483F0DF03AFD65
:1026900020460DF037FD204638BD00BFEC1F020874
:1026A00020570208D055020810B50446FFF7DCFF9A
:1026B00020464FF48C711AF0C4FB204610BD000078
:1026C0002DE9FF470C9E01811F464FF0FF33436405
:1026D000FB181944731E0E9D42811A440D9B818183
:1026E0005B1BC281C0E90E35044607824682012287
:1026F00000210A208D4256DC226404F58070002DF2
:1027000054D02D4A009510211CF068FF00250123AC
:102710002A462946CDE9015300963B4604F148007C
:102720000CF030FE0DF072FE04F1B0086FF07F4740
:1027300004F1E80101902B462A46404600970DF02F
:1027400050F8D4E90E3203EB0209D4F8E000B4F9F2
:1027500010A009F10109AA4218BF09F10109FFF708
:102760007DFFB4F9C2305FFA89F9F61A00FB19A1AE
:1027700006EBD6762B467210490840460DF0DCFC7D
:102780000DF044FE2B46CDE900700C4904F17800B1
:102790002A460DF026F823689B6C2946204604B093
:1027A000BDE8F047184742430131A3E7044A10212E
:1027B0001CF014FFAAE700BFCA1F0208AF280208D6
:1027C000DB1F0208436F994210B5044609D0483018
:1027D0000CF02CFE236820469B6CBDE810400021C5
:1027E000184710BD10B5836EC0E90C12044690F86E
:1027F0002C00002818BF114699420AD004F1480065
:102800000CF024FE236820469B6CBDE8104000219C
:10281000184710BD38B515460446FFF7D3FF2946C3
:1028200020464FF47F42BDE83840FFF7DBBF436CE2
:102830008B4273B50A4604462ED04164E56BB03036
:1028400004F1E80104F580735DB9009218220DF0DF
:1028500042F9236820469B6C00219847012002B072
:1028600070BD266C92FBF6F506FB1522002AB8BF58
:102870005242CDE9005218220DF02DF9636C002B65
:10288000E7DA226C93FBF2F3002BE2D1A36B234433
:102890002D2283F8E620DCE70020E0E790F81031F5
:1028A000022B2DE9F041044600F08580D0E90E723C
:1028B000013B1744B0F91050002A18BF013700F14E
:1028C000B006042B00F29D80DFE803F02F9B03523B
:1028D0007C00D0F8E000FFF7C1FEB4F9C230B4F9D3
:1028E0001220D21AB4F98830A91EC91A94F8DC3023
:1028F0007B4300FB131102EBD272304600235210CF
:1029000049080DF019FCB4F9BC50D4F8A800B4F98A
:10291000BE7004F17806023510B10368DB68984791
:1029200000233A1A2946304643E0B0F9C230B0F9E4
:102930001220B0F98810D21AB0F98A30D21A691A66
:1029400002EBD27200235210490878300DF0F4FBEC
:10295000D4F8E000B4F91050FFF780FE94F8DC30B2
:10296000B4F986207B4300FB135100234908DAE7C2
:10297000D0F8E000FFF772FEB4F9C230B4F91220CB
:1029800094F8DC10D21A794300FB115102EBD27299
:1029900000235210490830460DF0CEFBB4F98830C0
:1029A000B4F91010B4F9BE20C91A4908002304F183
:1029B00078000DF0C1FB236820469B6CBDE8F04118
:1029C00000211847D0F8E000FFF748FEB4F9C23004
:1029D000B4F9122094F8DC10D21A794300FB11519B
:1029E00002EBD27200235210490830460DF0A4FBCE
:1029F000B4F9BC00B4F98810B4F9BE200023411A20
:102A0000D5E7D0F8E000FFF729FEB4F9C230B4F9F9
:102A10001220D21A94F8DC3002EBD2727B4300FB16
:102A2000135152100023A1E770B500F1B00604461F
:102A3000154630460CF0AEFFE9B230460CF0E5FF2B
:102A40002046FFF72BFF236820469B6CBDE87040B3
:102A50000021184770B500F1780604460D4680F84D
:102A60001021194630460CF095FF294630460022C9
:102A70000DF004F82046FFF711FF236820469B6CF9
:102A8000BDE870400021184790F82C308B4210B5FB
:102A9000044611D0D0E90C2380F82C1000290CBF7B
:102AA0001146194648300CF0D1FC236820469B6C37
:102AB000BDE810400021184710BDC0E9081283622C
:102AC000704710B5D8B109B9002010BD0379022BA9
:102AD0000DD84FF48C725343C2188468D2F8FC208E
:102AE000B83301FB04211844FFF7A1FEECE7D0F84E
:102AF0000C3B194421EAE17100F6C820F4E70120FB
:102B0000E3E770B5044603F08FFC04F6A86103F018
:102B100050FD04F1B80510262B682846DB6898475D
:102B2000D5F8483305F55270DB689847D5F89036EC
:102B300005F5D260DB689847A359A019DB683836E1
:102B40009847B82E05F58C75E6D14FF43E6563596C
:102B50006019DB68C0359847B5F5626FF7D104F6A8
:102B6000C8200DF0C2FA04F529600DF0BEFA04F594
:102B700066600DF0BAFAD4F8980E0368DB689847DF
:102B8000D4F89C0E0368DB6898474FF0000070BDD6
:102B900073B5044600F1B80510262B6864219B68C4
:102BA00028469847D5F8483364219B6805F552704C
:102BB0009847D5F8903664219B6805F5D260984710
:102BC000A359A0199B68642138369847B82E05F59B
:102BD0008C75E2D14FF43E65635960199B6865219D
:102BE000C0359847B5F5626FF6D1642104F6C82068
:102BF0000DF064FA642104F529600DF05FFA652197
:102C000004F566600DF05AFAD4F8980E0368662150
:102C10009B689847D4F89C0E036866219B68984788
:102C200003F002FC0546FFF7E3F904F6A86301464A
:102C300000932846034A234603F0A3FC4FF000000C
:102C400002B070BDC32A00082DE9F04F8DB0834655
:102C50000D460DF0DBFB0368DB68984700EB800353
:102C60000593043B5B080893059B083309932B1DD0
:102C70005C4606935F464FF0000ADBF8A42EDBF8B3
:102C8000A03E92F8F823D3F8A010A94E002A14BF52
:102C900004220322A1F108030292072204F1B805DD
:102CA000019203EBD373059A00925B10069A0620FB
:102CB00091FBF0F12846FFF703FDFF22042128468F
:102CC000FFF7A8FD0DF0A2FB022201462846FFF700
:102CD000ABFE5FFA8AF31946DBF8A40E079301F006
:102CE000FAFE01462846FFF7A2FDDBF8A43E914A12
:102CF00093F8F833002B08BF16460DF087FB3146DA
:102D0000034605222846FFF7A5FEFFF771F90023C9
:102D10001A4601462846FFF7D0FED4F8B830012104
:102D200028465B6C9847D4F8B83028461B6B984708
:102D3000D4F8B83000F10408DB6A28469847DBF87D
:102D4000A03ED3F8A020D4F8B8300A9281461B6B7D
:102D5000284698470A9A131ADBF8A42E92F8F8230B
:102D60000721002A14BF0422032204F58066019182
:102D700008990292083B4A46304600914146FFF7C7
:102D80009FFC6D4A02213046FFF744FD0DF03EFBEB
:102D9000012201463046FFF747FE00213046FFF78B
:102DA00046FDDBF8A43E634A93F8F8336049002BF4
:102DB00008BF114688460DF0EDFA4146032203464E
:102DC0003046FFF747FED4F8003430469B6A9847F8
:102DD000D4F8B8300B905B6B28469847D4F8003491
:102DE0008146DB6B30469847D4F80034A9EB0009E4
:102DF0009B6B30469847D4F800240A90D26B30463B
:102E00009047DBF8A42E0B9992F8F823484E002A3D
:102E100014BF0422032204F5E9680723CDE9000367
:102E200002920A9B4A464046FFF74AFC424A022168
:102E30004046FFF7EFFC0DF0E9FA0122014640465B
:102E4000FFF7F2FD00214046FFF7F1FCDBF8A43E5E
:102E5000384A93F8F833002B08BF16460DF09AFA5B
:102E60000322034631464046FFF7F4FD0799DBF89D
:102E7000A40E01F0EFFD80460DF016FA6FF07F43CF
:102E800007F11006009300231A4641460190304690
:102E90000CF0A7FC022130460CF0B7FD3B699B69A2
:102EA0000793D4F8B83028469B6A98473B69814617
:102EB0009B6B3046984700EBD07009EBD9734FEA13
:102EC0006009C9EB6309D4F8B8302846DB6A984733
:102ED000D4F8B8308046DB6B284698473B6900EB56
:102EE000D07008EB6005DB6B3046984700EBD07084
:102EF000A5EB60020023079D49463046A847069B84
:102F0000099A0AF1010A1344BAF1030F04F58C740B
:102F100007F1380706937FF4B0AE0BF53A730BF563
:102F200062690BF63B680BF53E650027079305E0E9
:102F300038200208AE27020880808000DBF8A43E1B
:102F4000079893F8F833002B14BF41464946DBF845
:102F5000A03E0891D3F8A04094FBFAF47C43231DD3
:102F60000693DBF8E8325B6B9847DBF8A02E04464B
:102F7000D2F8A06096FBFAF60DF048FA0268D26823
:102F80009047083E012300EB8000069A08990293BF
:102F9000CDE9006004F1080328460EF06BFCFFF752
:102FA00027F8002301461A4628460EF0BCFD0137DB
:102FB000284603210EF03FFD032F09F1090908F10E
:102FC0000C0805F1C005B9D1DBF8A03EBBF9EE2B2A
:102FD000D3F8A01005980090A1F1080300240BF687
:102FE000C825042603EBD37301EBD1715B10CDE947
:102FF0000164284608324910FFF762FB3146FF2280
:103000002846FFF707FC0DF001FA02220146284688
:10301000FFF70AFD4FF496712846FFF708FCDBF82E
:10302000A43E344E93F8F823334BA24208BF1E4609
:103030000DF0ECF93146034605222846FFF70AFD5C
:10304000FEF7D6FF01270146234622462846FFF712
:1030500034FD8BF8DD7A0DF027F90BF529656FF05B
:103060007F462346224601902449009628460CF0CC
:10307000B8FB284602210CF0C8FCBBF9DA3ABBF9D0
:10308000D20ABBF9D81A03EBD37300EB6300BBF988
:10309000A23A03EBD372DBF8A03ED3F8A03003EBE7
:1030A000D373C1EB630101EBD171A0EB6202234644
:1030B000394128460DF040F80A23CBF8083039464C
:1030C0000BF54A600EF024FDBBF9C050BBF9C2708D
:1030D0000DF09CF908350837CDE9006008490BF57B
:1030E00066603B462A460CF07CFB20460DB0BDE8EE
:1030F000F08F00BF442002083D2002084F20020844
:10310000AF28020838B50446FEF71CF91C4B2360B3
:1031100000254FF47F420123C4E90D23C4E90F5376
:103120004FF0FF336364C4E90855A56284F82C505E
:10313000256304F14800FEF705F9124BA364C4E9C6
:103140001A5584F87050656704F17800FEF708F9A5
:1031500004F1B000FEF704F92946182204F1E80052
:103160001CF006FB1022294604F580701CF000FBC1
:1031700084F810510AF028FAC4F81401204638BD2A
:10318000EC1F0208D0550208017902292DE9F0410F
:1031900098BF0021044688BF012100F6C820FFF730
:1031A00073FC04F1B80600254FF6FF77E9B2D4F8B6
:1031B000A40ED6F8448001F08EFC4FF47F424045C7
:1031C00014BF3946FF213046FFF70CFB2179A1EBF4
:1031D000050CDCF1000141EB0C0130460135FFF735
:1031E00053FC032D06F58C76E0D1A1684B1E5942A5
:1031F000594104F53E600EF08BFCA168A1F10A0272
:103200005142514104F54A600EF082FCA168A1F1DF
:1032100064004142414104F55660BDE8F0410EF0C2
:1032200077BC00002DE9F041D0F8A43E93F8F923D3
:10323000022A044600F5666048D193F8CC532F4922
:103240002F4B0022954218BF19460CF017FC01F0D5
:10325000E5FB237B90F88863B34202D0032B38D080
:103260002673FEF7E1F92749FEF772FAFEF7DCF95B
:103270002549FEF797FA00272646B846F9B2D4F852
:10328000A40E01F028FC014606F58060FFF7CFFA96
:10329000D6F8FC10D6F844340546C91A06F5E9609C
:1032A000FFF7C5FA0137054348EA0505032F5FFA22
:1032B00085F806F58C76E1D1B8F1000F02D02046F2
:1032C000FFF762FF4FF00000BDE8F0810F490022D8
:1032D000BBE7012EC4D104F1B8070025E9B2D4F848
:1032E000A40E01F0F8FB013501463846FFF79FFABE
:1032F000032D07F58C77F1D1B2E700BF5F200208FC
:1033000056200208662002086A200208AF28020838
:1033100000F53E63994273B5044608D10123A360CA
:1033200000252046FFF730FF284602B070BD00F5AB
:103330004A63994201D10A23F1E700F556639942A5
:1033400001D16423EBE7D0F8983E8B4214D1D0F83A
:10335000A40E90F88833012B43D10193D4F80C3B91
:10336000642253430093D4F82C33D4F81422D4F8B5
:10337000FC1002F045FAD3E7D0F89C3E8B4217D1FF
:10338000D0F8A43E93F88833012B2AD100F1B80677
:103390000025E9B2D4F8A40E01F09DFB01350146E9
:1033A0003046FFF744FA032D06F58C76F1D1B7E7E6
:1033B00000F6C82399420DD000F1B80399420CD011
:1033C00000F5E87399420AD000F53A739942A7D103
:1033D000022300E003232371A2E70023FBE701237C
:1033E000F9E708259DE700002DE9F84F694B0360D8
:1033F0000323037100260A230546836006731030F9
:10340000FDF7AEFF05F14800FDF7AAFF05F18000CA
:10341000FDF7A6FF05F1B800FFF774FE05F5E870AB
:10342000FFF770FE05F53A70FFF76CFE05F580605A
:10343000FFF768FE05F5A360FFF764FE05F5C660BB
:10344000FFF760FE05F5E960FFF75CFE05F5066035
:10345000FFF758FE05F67810FFF754FE05F52960D2
:10346000FDF77EFF05F6C820FFF74CFEDFF830B110
:10347000DFF8309105F53E6405F5626A2046FDF7F8
:1034800061FF6FF07F4323630127C4F800B084F825
:10349000346084F83560C4E90866C4E90A6604F15A
:1034A00038004FF0FF38FDF74DFFC4F8389026661E
:1034B00084F86470A66684F86C6084F86D6084F8A3
:1034C0006E6084F86F70C4F87080A4F87860C4E906
:1034D000166604F17C00FDF735FFC4F87C90C4F853
:1034E000A46084F8A870C4F8AC6084F8B06084F874
:1034F000B16084F8B26084F8B370C4F8B480A4F802
:10350000BC60C4E92766C0345445B7D1224B03F1EF
:10351000180618685968224603C20833B342144695
:10352000F7D11A889B78A3701C4B228003F12401E9
:1035300005F63B6253F8040B42F8040B8B42F9D1B9
:1035400005F56660FDF70CFFFEF76EF800F5B85064
:103550001430C5F8980EFEF767F800F5BE50143029
:10356000C5F89C0E0AF030F8C5F8A00E01F056FA26
:10357000002385F8B43EC5F8A40EC5F8A83EC5F8EA
:10358000AC3EC5F8B03EC5F8B83EC5F8BC3E2846CE
:10359000BDE8F88F7C200208D81A0208F31A020846
:1035A00054C002087C55020810B50A4C2368BFF3CA
:1035B0005B8FDB070CD4204619F045FC40B1064870
:1035C000FFF712FF05481BF03BF8204619F047FCB7
:1035D000014810BD9C1D0020A01D00207936000868
:1035E00070B5234B234E0360C0F8606E044600F5AF
:1035F00066600CF087FD4FF45665635960191B68CF
:10360000C03D9847B5F5326FF7D104F6C820FFF7F3
:103610002BF8C4F8906A04F529600CF073FD40F6AD
:103620007815635960191B68A5F58C759847B5F531
:10363000C66FF6D1635960191B68A5F58C7598475C
:10364000B5F53A7FF6D1635960191B68A5F58C75FD
:10365000984715F1600FF6D18025635960191B68F2
:10366000383D984715F1280FF7D1204670BD00BFAF
:103670007C2002082057020808B50248FFF7B0FF77
:1036800008BD00BFA01D002010B50446FFF7A8FF2D
:1036900020464FF46C6119F0D4FB204610BD58B1A0
:1036A00090F84830022B01D90020704700EB8300CE
:1036B000C36B1944C163F7E701207047F8B50446AE
:1036C00002F0B2FE04F58F5102F073FF201D0CF0E2
:1036D0000CFD04F6B830FEF78FFE04F1500704F538
:1036E0008866F82563596019DB6898473B68384657
:1036F000DB68984733683046DB6805F58C7598477A
:10370000B5F5886F07F1380706F1C006EAD14FF426
:10371000EF6540F6782663596019DB68C035984735
:10372000B542F8D104F5D0600CF0DFFC04F5E86098
:103730000CF0DBFC04F6F82004F580540CF0D5FC0A
:10374000D4F8CC010368DB689847D4F8D00103684B
:10375000DB6898474FF00000F8BD00002DE9F34703
:1037600000F580570446D7F8D83193F8F923022A98
:103770000BD193F8CC034B494B4B0022904218BF1E
:10378000194604F5E8600CF079F9FDF74DFFFDF7F7
:10379000CBFFFDF749FFFDF7EBFF04F1F80600252D
:1037A000E9B2D7F8D80101F096F901350146304663
:1037B000FFF73DF8032D06F58C76F1D1E56B002D72
:1037C0005CD1256C002D5BD1656C45B30226E36CA2
:1037D0005D4302F029FED0F88C30E26C142B38BF28
:1037E000142353433C2253430A22B3FBF2F336B96A
:1037F000D7F8D82192F8F923022A08BF6D424FF07A
:103800000008CDF800802A463146D7F8D80101F0EB
:103810003DFF0E3604EB8606C5B2C6F80480D7F825
:10382000D83193F8CB2304F6F82A04F5D06904F5CF
:10383000886804F5A06704F5B8661ABB93F86E2390
:1038400002BB93F8883303F0FD03012B1AD004F672
:10385000B830FEF7D1FD50460EF03EF948460EF066
:103860003BF940460EF038F938460EF035F930464F
:103870000EF032F9284602B0BDE8F0870026A6E730
:103880000126A4E750460EF00BF948460EF008F961
:1038900040460EF005F938460EF002F930460EF0BB
:1038A000FFF8E7E75F200208562002082DE9F04FF5
:1038B0008DB0044608910A920CF0A8FD0368DB68FD
:1038C000984700EB8003079304F588630593079BF3
:1038D00008330993089B0433069304F58053264666
:1038E000A0464FF0000A0493049A049BD2F8D82112
:1038F000D3F8D43192F8F823D3F8A000002A14BFEB
:10390000042203220292072206F1F805A0F108031F
:103910000192079A00920621069A9B0093FBF1F30D
:1039200090FBF1F12846FEF7CBFEFF22042128464A
:10393000FEF770FF0CF06AFD022201462846FFF7F1
:1039400073F800212846FEF772FF049BC44AD3F89F
:10395000D83193F8F813C34B002914BF9146994608
:103960000CF054FD4946034603222846FFF772F83F
:10397000FEF73EFB00231A4601462846FFF79DF856
:10398000D6F8F83028465B6C01219847049B5FFA13
:103990008AF1D3F8D80101F05DF883460CF084FC7D
:1039A0006FF07F4308F15009009300231A465946EF
:1039B000019048460BF015FF022148460CF025F80F
:1039C000D8F850309B691F46D6F8F83028469B6AD5
:1039D0009847D8F850208346926B4846904700EBB2
:1039E000D0700BEBDB734110C1EB6301D6F8F830FC
:1039F0000B91DB6A28469847D6F8F8208346D26BAD
:103A000028469047D8F8503000EBD0700BEB600B95
:103A1000DB6B4846984700EBD070ABEB60020B992C
:103A200000234846B847D6F8F83028461B6B98471D
:103A3000D6F8F8308346DB6A28469847049BD3F8CB
:103A4000D431D3F8A020D6F8F8300B921B6B074680
:103A500028469847D6F8F8108146C96B284688470B
:103A60000B9A8149A2EB09090125A9F108030BF181
:103A70000402CDE90105009305983B460DF0FAFEDE
:103A8000FEF7B6FA00231A46014605980EF04BF8E9
:103A9000059B099AC0330593069BAA441344BAF1C7
:103AA000030F06F58C7608F1380806937FF41CAFF7
:103AB00004F54A7304F6782A04F5EF684FF000091C
:103AC0001F46049BD3F8D431D3F8A060049BD3F8ED
:103AD000D83193F8F833143EB608002B40F0BA8082
:103AE0005146D4F8283305915B6B38469847834696
:103AF0000CF08CFC0268D2689047321D09FB02F280
:103B000000EB8000059902950BF108030432CDE922
:103B1000006040460DF0AEFEFEF76AFA0023014653
:103B20001A4640460DF0FFFF09F101094046032106
:103B30000DF081FFB9F1040F0AF10C0A08F1C00879
:103B4000BFD1012104F6F8000DF0E2FF049BD3F889
:103B5000D83193F8F833002B7FD1D4F8E03AE364FE
:103B60004FF00109CDF80890B4F90A310193B4F986
:103B700000313E49083B04F5D0650093B4F90231A9
:103B8000042228460DF076FEFEF732FA00230146A5
:103B90001A4628460DF0C7FFB4F90051B4F9028166
:103BA0000CF034FC6FF07F46083508F108082A460F
:103BB0002E490190434604F5E86000960BF011FE93
:103BC0000CF024FC0368DB689847049BD3F8D431DD
:103BD0000546D3F8A0700CF019FC0368DB68984721
:103BE0000A9B089A2249CDF808901A4404F6F8284E
:103BF000083F043A05EB850500EB8000531BCDE937
:103C00000070042240460DF035FEFEF7F1F9002366
:103C100001461A4640460DF086FFB4F98687B4F98E
:103C2000025B0CF0F3FB0368DB68984707460CF077
:103C3000EDFBA5EB08050422ED1BCDE900600D4965
:103C4000A01808EB55030BF0CCFD4FF000000DB0B1
:103C5000BDE8F08F0AF1300143E7D4F8F03A7EE78F
:103C600038200208AE27020898200208AF28020870
:103C70009C200208D4200208F7B504460121043034
:103C80000CF01CFA04F1500704F58866F825635916
:103C900064219B68601998473B6864219B6838469B
:103CA0009847336830469B68642105F58C759847C2
:103CB000B5F5886F07F1380706F1C006E7D14FF474
:103CC000EF6540F67826635960199B686421C0351A
:103CD0009847B542F7D1032384F84830002104F116
:103CE000F800FEF7D1FE04F58055002104F50470BC
:103CF000FEF7CAFE002104F54A70FEF7C5FED5F8AE
:103D0000D83193F8F933022B09D1652104F5E86025
:103D10000CF0D4F9632104F5D0600CF0CFF96621E2
:103D200004F6F8200CF0CAF9D5F8CC010368662136
:103D30009B689847D5F8D001036866219B6898472F
:103D400002F072FB0546FEF753F904F58F53014666
:103D500000932846034A234602F013FC4FF000006C
:103D600003B0F0BD9F36000870B50A230025044655
:103D7000C0E90055C0E90255C0E9045583611C3013
:103D8000FDF7E0FA314BE361C4E90F5504F144005B
:103D9000FDF7D8FA2E4B6364C4E9195584F86C50CA
:103DA000256704F17400FDF7CDFA2A4B636704F12F
:103DB0009400FDF7D5FA04F1CC00FFF7A3F904F560
:103DC000F270FDF7E1FA04F52970FDF7DDFA04F56C
:103DD0005970FDF7D9FA204B93E8070004F2244507
:103DE00085E8070004F5866603F10C023C33106891
:103DF0005168354603C508329A422E46F7D104F57C
:103E00008C60FDF7C1FA04F5A460FDF7BDFA09F076
:103E1000DBFB002384F8F03584F80836C4F8E005AD
:103E2000C4F8E435C4F8E835C4F8EC35C4F8F43522
:103E3000C4F8F835C4F8FC35C4F80036C4F80436C4
:103E4000C4F80C36C4F81036204670BD745702080A
:103E5000D055020824560208181B020810B500218C
:103E6000044600F5EF600DF053FE04F63800002123
:103E70000DF04EFE04F6F80000210DF049FE04F6A8
:103E8000B8100021BDE810400DF042BE2DE9FF4101
:103E900000F580560446D6F8CC318B420D4600F032
:103EA000EC80D6F8D0318B4200F0E78000F5D0638B
:103EB00099420DD1D6F8D80190F8CC332BB101F04E
:103EC000D1FB002004B0BDE8F08101F0D5FBF8E79C
:103ED00000F6F82088422AD194F82C3B04F5886833
:103EE00004F5A06704F5B865A3B9D6F8D83193F8FE
:103EF000881301290ED10DF00BFE614940460DF0EB
:103F00000FFD5F4938460DF00BFD5D4928460DF069
:103F100007FDD6E700210DF0FBFD5A4940460DF0A4
:103F2000FFFC584938460DF0FBFC5649EEE704F615
:103F3000B838884519D004F5EF67B9421ED004F6A9
:103F40003807B9422DD004F6F807B9422BD004F651
:103F5000B817B94229D004F1F800814241D004F5E4
:103F60008863994276D100253EE0D4F8C82C94F8B5
:103F7000C41BD6F8D80101F087FDA2E70025204632
:103F8000FFF76CFF012138460DF0C2FDD6F8D8319D
:103F900093F8F8335BB905F2B62554F82530E3649D
:103FA0008FE70125EBE70225E9E70325E7E705F2BF
:103FB000BA25F2E701260021FEF766FD002104F58F
:103FC0000470FEF761FD002104F54A70FEF75CFD08
:103FD00001212846FEF758FD84F8486071E7022663
:103FE000E9E70026E7E7012594F82C3BD6F8D8014D
:103FF000E9B213B901F01CFD63E700F02BFDD6F820
:10400000D83193F8F833002B4FF48C7303FB05433E
:1040100014BF04220322D3F83C31029201461A4A0B
:104020001A48CDE900201A481A4A08BF02464046FD
:10403000FEF744F8FDF7DCFF002301461A46404630
:10404000FDF7DDFFC4F8C45B42F210714046FDF796
:10405000F9FF36E704F504739942ABD004F5A06389
:104060009942C0D004F54A739942B8D004F5B863B8
:1040700099427FF426AF0225B6E7082022E700BF69
:10408000AB43020898200208806967FF8096980079
:10409000AE27020838200208F8B54C4B044640F819
:1040A000043BFDF75DF90023C4E90F336364032388
:1040B00084F848300123E36404F15000FDF750F91F
:1040C00004F18800FDF74CF904F1C000FDF748F950
:1040D00004F1F800FFF716F804F50470FFF712F882
:1040E00004F54A70FFF70EF804F58860FDF74CF907
:1040F00004F5A060FDF748F904F5B860FDF744F950
:1041000004F5D060FDF740F904F5E860FDF728F903
:1041100004F5EF6504F678262846C035FDF734F936
:10412000B542F9D12A4B03F13006186859682A467E
:1041300003C20833B3421546F7D1264B03F13007CB
:1041400004F6A8263A4618685968354603C5083368
:10415000BB422E46F7D10FCA04F6D82585E80F00DA
:104160001D4B0FCB04F6E82585E80F0004F6F82078
:10417000FDF70AF904F6B830FFF7F6FDFDF754FA3B
:1041800004F5805500F5B8501430C5F8CC01FDF7A2
:104190004BFA00F5BE501430C5F8D00109F014FAFE
:1041A000C5F8D40100F03AFCC5F8D80103F07EFF51
:1041B000002385F8EC31C5F8DC01C5E97833C5E9A1
:1041C0007C33C5F8E8312046F8BD00BFB8200208AE
:1041D000541B0208841B0208C41B020810B50A4CB9
:1041E0002368BFF35B8FDB070CD4204618F02BFE4F
:1041F00040B10648FFF750FF05481AF021FA204663
:1042000018F02DFE014810BD602C0020642C002009
:104210002D43000810B5034B036004460BF072FFFA
:10422000204610BD2057020810B50446FFF7F2FFE4
:104230002046382118F005FE204610BD38B504464A
:1042400000F5A460FDF7EEFD04F58C60FDF7EAFDD6
:104250004FF45975635960191B68C03D9847B5F50F
:10426000927FF7D104F1CC00FEF7FEF904F194003F
:10427000FFF7D0FF2046094B40F8743F0BF042FF98
:104280002046074B40F8443F0BF03CFF2046054BCF
:1042900040F81C3F0BF036FF204638BD245602087C
:1042A000D05502087457020838B51F4B0360044606
:1042B00000F6B830FFF7C2FF04F6F820FDF7B2FDB4
:1042C00040F6B815635960191B68C03D9847B5F5AD
:1042D000D76FF7D104F5E860FFF79CFF04F5D060D5
:1042E000FDF7A0FD4FF4B865635960191B68C03D28
:1042F0009847B5F5607FF7D14FF44A756359601957
:104300001B68A5F58C75984715F1200FF6D1C025CF
:10431000635960191B68383D9847182DF8D1201D46
:10432000FFF778FF204638BDB820020808B50248DC
:10433000FFF7BAFF08BD00BF642C002010B504468B
:10434000FFF7B2FF204641F2F81118F07AFD20463F
:1043500010BD4FF0000070474FF0000070474FF065
:104360000000704708B5806E032109F0B1FD4FF0E1
:10437000000008BD61B990F8313083F0010380F886
:104380003130012213B103490AF0CABA0249FBE7EE
:10439000704700BF000000201400002010B5034B40
:1043A000036004460BF0AEFE204610BD284D020807
:1043B00010B50446FFF7F2FF2046342118F041FD06
:1043C000204610BD10B5034B03600446FCF79EFF6A
:1043D000204610BD1021020808B50248FFF7F2FF81
:1043E00008BD00BF503F002010B50446FFF7EAFFAC
:1043F00020466C2118F025FD204610BD70B51E4EDC
:104400003568BFF35B8F15F0010532D1304618F0E7
:104410001AFD70B3194C1A4B2046102240F8043B89
:1044200002212B460CF063FD2A4629462B4604F157
:1044300024000CF05CFD134BE564C4E915344FF423
:104440008063A4F85E30022384F860300E4B63660C
:104450000E4B2360C4E9115584F8505084F85C5029
:1044600009F0B2F8A0660A481AF0EAF8304618F0E7
:10447000F6FC024870BD00BF4C3F0020503F0020BA
:10448000ECBF0208C10C0108EE200208102102084E
:10449000D943000838B50023016083808371044646
:1044A00009F092F8A0601AF007F9062590FBF5F3E1
:1044B00003FB1500013020711AF0FEF890FBF5F3B4
:1044C00003FB1500013001236071A371204638BD44
:1044D0002DE9F0410446006803681B6B98470646C7
:1044E000206803689B6A98470746206803685B6BEF
:1044F0009847054620680368DB6A984794F90420CA
:104500002B18F01900EBD07003EBD37312EB6000A3
:104510004FEA6303114604D4A568D5F8A050A84219
:1045200002DB52422271002194F90500C3180246B1
:1045300004D4A568D5F8A450AB4202DB40426071B8
:104540000022206803689C690123A446BDE8F0416D
:104550006047000038B504461D46084B0AF0BAF91A
:10456000074B236084F8315025B904492A46204678
:104570000AF0D6F901236375204638BD00000020FB
:104580003C2102082DE9F0430022ADF5177D0546D8
:104590001146012343A8FFF7DDFFAB6EBDF91E11E5
:1045A000D3F8A420BDF91C01DFF85882521AD3F8C1
:1045B000A010091A02EBD27201EBD1710023521044
:1045C000491043A80BF0B8FD4FF0FF1601274FF438
:1045D000004143A80BF072FD1E239622CDE900672F
:1045E000782117A80BF002F8282117A800240BF057
:1045F00065FD4FF47F03CDE9003478221E23962118
:1046000021A80AF0F3FF322121A80BF057FD4FF447
:104610007F4978232222CDE900392E21602305A885
:104620000AF098FF1E2105A80BF048FD4C2322221A
:10463000CDE900382E216E230EA80AF08BFF1E2133
:104640000EA80BF03BFD0BF06BFE22460A23CDE9D2
:1046500000606A4950A80BF00FF9462150A80BF0F2
:104660002DFD0BF097FE22461423CDE9008063490F
:104670005EA80BF001F950215EA80BF01FFD0BF0B6
:10468000FFFE4FF6FF7822461E235C490190CDF8CD
:1046900000806CA80BF0F0F85A216CA80BF00EFD0E
:1046A0000BF078FE22463223CDE901605349CDF864
:1046B00000907AA80BF04CF964217AA80BF0FEFC6C
:1046C0000BF0B8FDFF26224646234C490190009688
:1046D00088A80BF0D1F86E2188A80BF0EFFCCDE98B
:1046E00001670A2622466423214600962BA80AF079
:1046F0007BFE31462BA80BF0E1FC142346220096EA
:104700006421CDE9018737A80AF06EFE142137A88D
:104710000BF0D4FC0C2008F0FFFE394C17A906461C
:10472000FFF7B8FE0C20266008F0F6FE21A9064629
:10473000FFF7B0FE0C20666008F0EEFE05A9064605
:10474000FFF7A8FE0C20A66008F0E6FE0EA90646BC
:10475000FFF7A0FE0C20E66008F0DEFE50A906463A
:10476000FFF798FE0C20266108F0D6FE5EA90646EB
:10477000FFF790FE0C20666108F0CEFE6CA906469D
:10478000FFF788FE0C20A66108F0C6FE7AA906464F
:10479000FFF780FE0C20E66108F0BEFE88A9064601
:1047A000FFF778FE0C20266208F0B6FE2BA906461D
:1047B000FFF770FE0C20666208F0AEFE37A90646D1
:1047C000FFF768FEA662A86E4FF0FF3108F0CDFF3C
:1047D000C4B2002CF7D10A4E56F8040B0134FFF78F
:1047E00077FE0B2CF8D1A86E08F0C4FFA86E08F075
:1047F000D0FF01200CF0EDFCE5E700BFF820020837
:104800005C3E002000FFFF00034BD3F85C23034B0A
:104810001A615A62704700BF744D02080000002000
:1048200008B5806E03689B6898474FF0000008BD8C
:1048300070B50446806E03681B6A9847B0B90625B8
:10484000D4F8FC3333B194F8CB331BB994F86E33FE
:10485000002B4CD00023012204F57F7120460CF080
:1048600012FAC5B201200CF0B6FC40E0D4F8FC33DB
:10487000C3B904F16C054FF4807204F580612846D9
:104880001AF09DFFA66E2846FBF7B4FC336802467B
:104890002946DB6930469847C5B2062DCFD0222D78
:1048A00024D1CDE794F8CB2312B994F86E2302B348
:1048B00094F87123EAB994F8D923AAB90CF087FCCB
:1048C00004F59065C4F87C034FF0FF3128460CF0E6
:1048D0009FFA012384F87133D4F8FC33C4F884338D
:1048E00028460CF0BAFAC4E7C4F8843300252846F9
:1048F00070BD0625A7E7000010B5064B036004460F
:1049000000F590600CF07CFA2046FCF7FFFC204696
:1049100010BD00BFD430020808B50248FFF7ECFF15
:1049200008BD00BFC03F002010B50446FFF7E4FFFC
:10493000204640F2746118F084FA204610BD000051
:10494000F8B5314B314F0446102240F8043B222188
:1049500000230CF0CCFA00238422202104F124004F
:104960000CF0C5FA2A49C4E915144FF48061A4F883
:104970005E10022184F860102649616604F57F7399
:10498000254963640122002321604FF08071C4E94E
:104990001232C4E9DD33C4E9DF3284F8503084F8E0
:1049A0005C20A366C4F86C13A4F87023C4F88433A5
:1049B000A4F8F623A4F8F83304F590600CF016FA86
:1049C00097E80F0004F2844507F1100685E80F0010
:1049D0000FCE04F294450FC50FCE0FC596E8070021
:1049E00085E8070007F13C01502204F598601BF0B0
:1049F00026F84FF4B27207F18C0104F5A2601BF0A7
:104A00001EF82046F8BD00BFECBF0208D41B020808
:104A1000C10C0108A8270208D430020810B50A4CBE
:104A20002368BFF35B8FDB070CD4204618F00BFA2A
:104A300040B10648FFF784FF054819F001FE204603
:104A400018F00DFA014810BDBC3F0020C03F002007
:104A500019490008032928BF032100EB8100D0F881
:104A6000840470470B2928BF002100EB8100D0F897
:104A700094047047582928BF582101F5A27150F8B5
:104A800021007047022970B505460C4621D800F573
:104A900090664FF0FF3130460CF0BAF995F8F833D4
:104AA000002B42F2107308BF4FF47A7307EE903A6E
:104AB00005EB840494EDE37AF8EEE77A304667EE8E
:104AC000877AFDEEE77A17EE904A0CF0C6F9204699
:104AD00070BD0024FBE7022970B505460C4625D8B9
:104AE00000F590664FF0FF3130460CF091F995F8E3
:104AF000F83305EB8404D4EDE67A94EDE37A002BE9
:104B000042F2107308BF4FF47A7337EE677A07EEFC
:104B1000903AF8EEE77A304667EE877AFDEEE77A6C
:104B200017EE904A0CF099F9204670BD0024FBE77F
:104B3000022970B505460C4621D800F590664FF065
:104B4000FF3130460CF064F995F8F833002B42F24F
:104B5000107308BF4FF47A7307EE903A05EB8404A4
:104B600094EDE97AF8EEE77A304667EE877AFDEE63
:104B7000E77A17EE904A0CF070F9204670BD0024D9
:104B8000FBE7022970B505460C4625D800F590666E
:104B90004FF0FF3130460CF03BF995F8F83305EB58
:104BA0008404D4EDE67A94EDE97A002B42F2107396
:104BB00008BF4FF47A7337EE677A07EE903AF8EE53
:104BC000E77A304667EE877AFDEEE77A17EE904A8D
:104BD0000CF043F9204670BD0024FBE790F87123E8
:104BE000D0F8843322B9994202D190F8D9037047A2
:104BF000994234BF54205520704700B5A3B000231C
:104C00008DF80810012201A901938DF809300CF0EC
:104C10003AF823B05DF804FB10B5044603F046FAF9
:104C2000027972B916484FF400510DF0F5FA94F874
:104C3000D4336FF3000384F8D433012384F86F3343
:104C400010BD03F033FA0379012B0CD194F86F33C4
:104C5000002BECD18B212046FFF7CFFF0CF0B7FAE9
:104C6000C4F87803E3E703F021FA0379022BDED1DD
:104C7000034800224FF400510DF0CEFAE6E700BFE2
:104C80000008024038B5044603F010FA0579BDB9B2
:104C90001E4801224FF400510DF0BEFA84F86F5304
:104CA000D4F88023C4F8842394F8D423002363F336
:104CB000000284F8713384F8D93384F8D42324E0D3
:104CC00003F0F4F90379012B0DD194F86F3333B16C
:104CD00094F8CB331BB18B212046FFF78EFF0023C6
:104CE00084F86F33DCE703F0E1F90379022B06D196
:104CF000064801224FF400510DF08EFAE5E703F06B
:104D0000D5F994F86F33002BCAD038BD00080240A3
:104D100073B5069D83EAE3741846A4EBE37442F28C
:104D200010739D420E46114612D1B4FBF5F305FBFC
:104D30001344264ACDE90034254B13EA200338BF3B
:104D40001346244A30461AF049FC304602B070BD82
:104D5000B5F57A7F0DD1B4FBF5F305FB13441B4A7F
:104D6000CDE900341A4B13EA200338BF13461A4A20
:104D7000E8E7642D0DD1B4FBF5F305FB1344134AAA
:104D8000CDE90034124B13EA200338BF1346134A0F
:104D9000D8E70A2D0DD1B4FBF5F305FB13440B4AFC
:104DA000CDE900340A4B13EA200338BF13460C4AFE
:104DB000C8E7064A064B009413EA200338BF13469F
:104DC000084A30461AF00AFCBFE700BFAF280208C5
:104DD000B1270208B3270208BF270208CB27020821
:104DE000D7270208E32702082DE9F0410F460546C0
:104DF0003A2138461AF0C4FC38B3002300F8013BCE
:104E000019F027FCC4B205F59268002658F8041F73
:104E10003846FBF7E5F908B9F6B203E001360B2E88
:104E2000F4D1002695F88833B34203D195F889234D
:104E3000A2420CD013B9012385F8F63385F88863B4
:104E400085F889430120BDE8F0810446DBE70020B6
:104E5000F9E710B510460C4619F0F8FB51EC100BB1
:104E6000FBF7DAFE94ED007A07EE900AB4EE677A6B
:104E7000F1EE10FA16BF01200020C4ED007A10BD3B
:104E800010B510460C4619F0E4FB22680346824236
:104E900016BF01200020236010BD2DE9F041074618
:104EA0000C46154602F10C080026294622463846D3
:104EB000FFF7CFFF2C21002818BF064620461AF026
:104EC0005FFC20B10435454500F10104EDD13046C9
:104ED000BDE8F08190F8C83310B5044663B3D0ED57
:104EE000E67AF5EE407AF1EE10FA0FD1D0EDE77ADE
:104EF000F5EE407AF1EE10FA08D1D0EDE87AF5EE51
:104F0000407AF1EE10FA14BF0123002394F8D02365
:104F100063F3C302002384F8D023C4F89833C4F8A1
:104F20009C33C4F8A03394F8D03394F8C92362F3C7
:104F3000451384F8D03310BD00F56672FFF7ADFF5E
:104F400094F8D03360F3C30384F8D033EBE770B543
:104F50000E4604462C2130461AF012FC054600236A
:104F600005F8013B324604F56F712046FFF788FFD4
:104F700028B194F8D23343F0010384F8D2332C21C2
:104F800028461AF0FDFB0646002306F8013B2A4698
:104F900004F570712046FFF773FF28B194F8D233FF
:104FA00043F0020384F8D233324604F57C71204684
:104FB000FFF766FF28B194F8D23343F0040384F876
:104FC000D23370BD70B50D4604462C2128461AF028
:104FD000D7FB0646002306F8013B2A4604F571710B
:104FE0002046FFF736FF28B194F8D13343F002038F
:104FF00084F8D1332C2130461AF0C2FB054610B19B
:10500000002305F8013B324604F579712046FFF78D
:1050100020FF28B194F8D13343F0040384F8D1334E
:1050200065B12A4604F57A712046FFF712FF28B1D0
:1050300094F8D13343F0040384F8D13370BD0000F9
:105040002DE9F84300F5B6760446B9493046FBF73A
:10505000C7F828B984F8710384F8D903BDE8F88348
:1050600094F86C31242B10D13D2130461AF088FB86
:10507000054650B1002305F8013B04F26D1019F00C
:10508000E8FA0D284DD020285BD094F86C313C2BE9
:1050900040F03581012384F870330CF098F8A5496D
:1050A000C4F8780304F26D101AF09CFB0546F8B1C1
:1050B00001462046FFF798FE28B194F8D03343F01C
:1050C000020384F8D03394F8D83363B194F888336A
:1050D000052B08D094F8D133002262F3C30384F87F
:1050E000D82384F8D133934900201AF07BFB05467E
:1050F000914FDFF86482DFF86492002675BB002EC2
:10510000ACD194F8DA33002B94F8D13314BF0122D8
:10511000002262F3861384F8D1339FD084F8DA63D7
:105120009CE7284694F8F87319F093FA8742ACD0BC
:10513000284619F08EFA84F8F803012384F8F7332F
:10514000A3E7284694F8F97319F083FA87429CD0B4
:10515000284619F07EFA84F8F903EEE7052239466D
:1051600028461AF01AFBE8B994F8C83343B901236A
:1051700084F8C83394F8D03343F0080384F8D0336C
:1051800004F56372691D2046FFF787FE94F8D0335B
:1051900060F3820384F8D033664900201AF022FBC2
:1051A0000546ABE70522414628461AF0F6FA30B923
:1051B00094F8C833002BE3D084F8C803DAE703225D
:1051C000494628461AF0E9FA20B9E91C2046FFF7BB
:1051D000F9FEE1E75949042228461AF0DEFA20B91F
:1051E000291D2046FFF776FED6E7554903222846BB
:1051F0001AF0D3FAA8B904F2DA3603352946304654
:10520000FAF7EEFF94F8D133003818BF012060F3AD
:10521000861384F8D133304629461AF008FC01265B
:10522000BAE74849022228461AF0B7FA68B9AB78BB
:10523000A3F131004342434184F8CC3394F8D13395
:1052400043F0200384F8D133A6E73F4902222846E1
:105250001AF0A3FA30BB94F8D033A4F8F40343F067
:1052600040030235A4F8EC0384F8D033012240F265
:10527000011115F8013B002B8ED04D2B0CD006D818
:10528000432B0CD0462BF4D184F8F423F1E7532BB5
:10529000EFD1A4F8EC23ECE784F8F523E9E7A4F8D0
:1052A000EC13E6E72949032228461AF076FA20B9DA
:1052B000E91C2046FFF74BFE6EE7254904222846ED
:1052C0001AF06BFA00287FF467AF2A7994F8CB3391
:1052D000A2F131014A424A419A4209D083F00103C6
:1052E00084F8CB3394F8D03343F0010384F8D033FF
:1052F00094F8D43343F0010384F8D4334CE75B2BA8
:1053000042D104F26D151349042228461AF045FAD9
:1053100030BB04F5697204F271112046FFF7BDFD40
:1053200094F8D23360F3C30384F8D23396E600BF17
:10533000E9270208EC270208EE270208FE270208E8
:10534000032802085B430208072802080A2802080B
:105350000E28020813280208F4270208FA27020878
:105360001F49042228461AF018FA00287FF476AE66
:1053700004F56C7204F271112046FFF78EFD94F86B
:10538000D23360F30413CFE71649062230461AF0F1
:1053900004FA054670B904F5B97019F05AF994F891
:1053A000D13384F8D90343F0100384F8D13384F85F
:1053B000715353E60C49062230461AF0EEF90028E4
:1053C0007FF44CAE04F5B97019F043F994F8D13379
:1053D00084F8D80343F0080384F8D1333EE600BFD5
:1053E000182802081D2802082428020873B5002680
:1053F00004468DF80760A06E03680DF107011B6974
:105400009847C0B208B102B070BD9DF80720182AB5
:1054100002D1A4F86C63EEE70A2AB4F86C3301D029
:105420000D2A13D1002BF4D02344002204F59065FB
:1054300083F86C214FF0FF3128460BF0E9FC204641
:10544000FFF7FEFD28460BF008FDE2E7B3F5FE7F0F
:105450009FBF591C1B19A4F86C1383F86C21CAE771
:1054600070B5044600F590664FF0FF3130460BF002
:10547000CFFCD4F880536B1C012B38BF0123C4F838
:10548000803330460BF0E9FC284670BD70B590F8CB
:10549000CB33A2B004460D46164613B990F86E33CE
:1054A0008BB194F8883373B12046FFF7D9FF6A1E99
:1054B00001900DF107017F3512F8013F01F8013F1E
:1054C00023B1AA42F8D10C2022B070BD1A4601A91E
:1054D00020460BF0D8FB019B3360C0B2F4E700001C
:1054E00007B50022044980F8D92301AAFFF7CEFFAF
:1054F00003B05DF804FB00BF1231020807B5034991
:1055000001AAFFF7C3FF03B05DF804FB0D310208E9
:1055100010B50446FFF76AFF0BF059FED4F8783354
:10552000C01AB0F5967F81BF002384F88833012329
:1055300084F8703394F8CB3313B994F86E3313B105
:1055400094F8883363B994F871334BB1002384F82D
:105550007133D4F88033C4F88433562384F8D933B4
:1055600002F0A4FD0379012B0DD194F86F2394F878
:10557000CB3372B994F8CB3363B994F86E334BB92B
:105580004FF0000010BD02F091FD0379022BF1D124
:10559000EBE773B394F8F6332BB12046FFF7AEFF79
:1055A000002384F8F63394F8CB331BB994F86E33A8
:1055B000002BE5D094F87033002BE1D00BF007FE00
:1055C000D4F87433C01A6428DAD9A06E03681B6A51
:1055D00098470028D4D00BF0FAFDC4F87403A06EED
:1055E0001549002384F8703303680122DB6998476A
:1055F000C6E794F86E33002BCCD194F8D433DB0794
:1056000011D58B212046FFF7F8FA0BF0E0FD94F856
:10561000D433C4F87403002262F3000384F87023C7
:1056200084F8D433A6E70BF0D2FDD4F87833C01A4F
:10563000B0F5967FE5D89DE72B28020807B503490A
:1056400001AAFFF723FF03B05DF804FB083102084D
:1056500007B5034901AAFFF719FF03B05DF804FB82
:105660000231020807B5034901AAFFF70FFF03B093
:105670005DF804FBFD30020807B5034901AAFFF7F6
:1056800005FF03B05DF804FBF83002082DE9F04196
:105690000229AEB004460D4617461E464FD890F874
:1056A000CB331BB990F86E33002B4AD094F8883373
:1056B00003F0FD03012B44D12046FFF7D1FE94F8FF
:1056C000F8330D90002B0DF1140842F2107308BF4F
:1056D0004FF47A73009310223B4641462046FFF771
:1056E00017FB09AF64230093102233463946204646
:1056F000FFF70EFB94F8F8139DF8D000124B134AF5
:10570000CDE9028704EB8505002818BF1A46D5F8B5
:105710008434CDE900230E4A0E4B0EA8002908BFA1
:1057200013460D4A802119F059FF00231A460DA98E
:1057300020460BF0A8FAC0B22EB0BDE8F0810220DE
:10574000FAE70C20F8E700BF3528020839280208DC
:105750002D280208312802083D2802082DE9F041D1
:105760000229AAB004460D4617461E463ED890F8B8
:10577000CB331BB990F86E33002B39D094F88833B3
:1057800003F0FD03012B33D12046FFF769FE94F8A7
:10579000F8330990002B0DF1140842F2107308BF82
:1057A0004FF47A73009310223B4641462046FFF7A0
:1057B000AFFA94F8F8130F4ACDE9018604EB85059A
:1057C0000AA8D5F8843400930B4B002908BF134670
:1057D0000A4A802119F002FF00231A4609A920462F
:1057E0000BF051FAC0B22AB0BDE8F0810220FAE70E
:1057F0000C20F8E72D280208312802084E2802085C
:105800002DE9F0431E4690F8CB33BBB004468846E2
:1058100091461BB990F86E33002B6DD094F8883305
:1058200003F0FD03012B67D12046FFF719FE94F822
:10583000F833199042F21075002B14BF2B464FF429
:105840007A7309AF00931022434639462046FFF78A
:105850005FFA94F8F833002B14BF2B464FF47A7399
:105860000DF13408009310224B4641462046FFF7C5
:105870004FFA94F8F833002B08BF4FF47A750DF106
:10588000440900953346102249462046FFF740FA66
:1058900015AD642300931022429B29462046FFF752
:1058A00037FA94F8F8139DF80C01144B144ACDE91B
:1058B0000695002818BF1A46D4F88C34CDE9048325
:1058C000D4F88834CDE90273D4F88434CDE90023C8
:1058D0000C4A0D4B1AA8002908BF13460B4A802119
:1058E00019F07CFE00231A4619A920460BF0CBF9CB
:1058F000C0B23BB0BDE8F0830C20FAE735280208BF
:10590000392802082D2802083128020864280208D4
:105910002DE9F043994690F8CB33BBB004460F46CF
:1059200090461BB990F86E33002B71D094F88833F1
:10593000013B022B6CD82046FFF792FD94F8F83318
:10594000199042F21075002B14BF2B464FF47A7356
:1059500009AE009310223B4631462046FFF7D8F9A6
:1059600094F8F833002B14BF2B464FF47A730DAF25
:1059700000931022434639462046FFF7C9F994F8B0
:10598000F833002B08BF4FF47A750DF144080095E9
:105990004B46102241462046FFF7BAF915AD642365
:1059A00000931022429B29462046FFF7B1F99DF84B
:1059B0001001184B184A94F8F8139DF80CC105977C
:1059C000CDE90685002818BF1A46144B1448BCF1CF
:1059D000000F18BF1846D4F88834CDE90363D4F813
:1059E00084340092CDE901030E4A0F4B1AA8002916
:1059F00008BF13460D4A802119F0F0FD00231A4616
:105A000019A920460BF03FF9C0B23BB0BDE8F083C6
:105A10000C20FAE735280208392802087D280208F8
:105A2000812802082D28020831280208852802084A
:105A300030B50229A3B004460D461FD890F8CB33E9
:105A400013B990F86E33DBB194F88833012B17D17A
:105A50002046FFF705FD04EB85050A4AD5F8843496
:105A60000190802102A819F0B9FD00231A4601A96E
:105A700020460BF008F9C0B223B030BD0220FBE78E
:105A80000C20F9E79F280208F0B50229A9B00446C6
:105A90000D46164639D890F8CB331BB990F86E33C3
:105AA000002B34D094F88833012B30D12046FFF7F7
:105AB000D7FC94F8F8330790002B03AF42F2107331
:105AC00008BF4FF47A7300931022334639462046BC
:105AD00004EB8505FFF71CF994F8F8130197D5F846
