:020000040800F2
:1000000000000220051702085D0E02085F0E0208BC
:10001000610E0208630E0208650E0208000000006F
:100020000000000000000000000000006100020865
:10003000670E020800000000F1000208690E0208C5
:1000400055170208551702085517020855170208D8
:1000500055170208551702085517020855170208C8
:1000600055170208551702085517020855170208B8
:1000700055170208551702085517020855170208A8
:10008000551702085517020855170208000000000E
:1000900000000000000000000000000055170208EA
:1000A0005517020855170208551702085517020878
:1000B0005517020855170208551702085517020868
:1000C0005517020855170208551702085517020858
:1000D00055170208810E020855170208000000009B
:1000E00055170208551702085517020800000000AE
:1000F000000000000000000000000000551702088A
:10010000000000008D0E020855170208551702085E
:1001100000000000000000000000000000000000DF
:100120005517020855170208990E0208A50E020875
:100130005517020800000000000000000000000049
:10014000000000000000000000000000B10E0208E6
:10015000BD0E020855170208C90E020855170208FD
:1001600055170208551702080000000000000000A3
:10017000000000000000000000000000000000007F
:1001800000000000551702080000000000000000F9
:0801900055170208551702087B
:1001A00010B5054C237833B9044B13B10448AFF3B1
:1001B00000800123237010BD3803002000000000E0
:1001C000E863020808B5034B1BB103490348AFF3CA
:1001D000008008BD000000003C030020E863020826
:1001E00010F8012B11F8013B012A28BF9A42F7D0E1
:1001F000D01A7047034613F8012B002AFBD1181AB6
:1002000001387047000000000000000000000000FE
:1002100001F0FF01102A2BDB10F0070F08D010F8B7
:10022000013B013A8B422DD010F0070F42B3F6D1BB
:10023000F0B441EA012141EA014122F007047FF0D4
:1002400000070023F0E80256083C85EA010586EA2B
:10025000010685FA47F5A3FA87F586FA47F6A5FA67
:1002600087F68EB9EED1F0BC01F0FF0102F0070273
:1002700032B110F8013B013A83EA010313B1F8D11E
:100280000020704701387047002D06BF35460338FF
:10029000073815F0010F07D1013015F4807F02BF38
:1002A000013015F4C03F0130F0BC0138704700BF89
:1002B00081F0004102E000BF83F0004330B54FEA17
:1002C00041044FEA430594EA050F08BF90EA020F84
:1002D0001FBF54EA000C55EA020C7FEA645C7FEA17
:1002E000655C00F0E2804FEA5454D4EB5555B8BF3A
:1002F0006D420CDD2C4480EA020281EA030382EAAB
:10030000000083EA010180EA020281EA0303362D3C
:1003100088BF30BD11F0004F4FEA01314FF4801C0F
:100320004CEA113102D0404261EB410113F0004F21
:100330004FEA03334CEA133302D0524263EB4303D8
:1003400094EA050F00F0A780A4F10104D5F1200E76
:100350000DDB02FA0EFC22FA05F2801841F10001D1
:1003600003FA0EF2801843FA05F359410EE0A5F1A5
:1003700020050EF1200E012A03FA0EFC28BF4CF0D6
:10038000020C43FA05F3C01851EBE37101F000458C
:1003900007D54FF0000EDCF1000C7EEB00006EEB99
:1003A0000101B1F5801F1BD3B1F5001F0CD3490823
:1003B0005FEA30004FEA3C0C04F101044FEA44527A
:1003C00012F5800F80F09A80BCF1004F08BF5FEA01
:1003D000500C50F1000041EB045141EA050130BDE1
:1003E0005FEA4C0C404141EB0101013C28BFB1F5F3
:1003F000801FE9D291F0000F04BF01460020B1FA3E
:1004000081F308BF2033A3F10B03B3F120020CDA10
:100410000C3208DD02F1140CC2F10C0201FA0CF0EE
:1004200021FA02F10CE002F11402D8BFC2F1200C53
:1004300001FA02F120FA0CFCDCBF41EA0C01904009
:10044000E41AA2BF01EB0451294330BD6FEA040452
:100450001F3C1CDA0C340EDC04F11404C4F120023D
:1004600020FA04F001FA02F340EA030021FA04F34F
:1004700045EA030130BDC4F10C04C4F1200220FAA6
:1004800002F001FA04F340EA0300294630BD21FAE4
:1004900004F0294630BD94F0000F83F4801306BFAA
:1004A00081F480110134013D4EE77FEA645C18BF9E
:1004B0007FEA655C29D094EA050F08BF90EA020F35
:1004C00005D054EA000C04BF1946104630BD91EA2D
:1004D000030F1EBF0021002030BD5FEA545C05D130
:1004E0004000494128BF41F0004130BD14F580046F
:1004F0003CBF01F5801130BD01F0004545F0FE41E3
:1005000041F470014FF0000030BD7FEA645C1ABF17
:10051000194610467FEA655C1CBF0B46024650EA4E
:10052000013406BF52EA033591EA030F41F400217A
:1005300030BD00BF90F0000F04BF0021704730B500
:100540004FF4806404F132044FF000054FF00001D5
:1005500050E700BF90F0000F04BF0021704730B596
:100560004FF4806404F1320410F0004548BF40426B
:100570004FF000013EE700BF42004FEAE2014FEAC0
:1005800031014FEA02701FBF12F07F4393F07F4F9B
:1005900081F06051704732F07F4208BF704793F09E
:1005A0007F4F04BF41F40021704730B54FF46074B1
:1005B00001F0004521F000411CE700BF50EA0102B4
:1005C00008BF704730B54FF000050AE050EA01025D
:1005D00008BF704730B511F0004502D5404261EBCD
:1005E00041014FF4806404F132045FEA915C3FF40E
:1005F000D8AE4FF003025FEADC0C18BF03325FEAAB
:10060000DC0C18BF033202EBDC02C2F1200300FA5B
:1006100003FC20FA02F001FA03FE40EA0E0021FA80
:1006200002F11444BDE600BF70B54FF0FF0C4CF46E
:10063000E06C1CEA11541DBF1CEA135594EA0C0F20
:1006400095EA0C0F00F0DEF82C4481EA030621EA5B
:100650004C5123EA4C5350EA013518BF52EA033596
:1006600041F4801143F4801338D0A0FB02CE4FF048
:100670000005E1FB02E506F00042E0FB03E54FF078
:100680000006E1FB03569CF0000F18BF4EF0010E70
:10069000A4F1FF04B6F5007F64F5407404D25FEA6C
:1006A0004E0E6D4146EB060642EAC62141EA55511F
:1006B0004FEAC52040EA5E504FEACE2EB4F1FD0C61
:1006C00088BFBCF5E06F1ED8BEF1004F08BF5FEADF
:1006D000500E50F1000041EB045170BD06F0004691
:1006E00046EA010140EA020081EA0301B4EB5C043E
:1006F000C2BFD4EB0C0541EA045170BD41F4801136
:100700004FF0000E013C00F3AB8014F1360FDEBF5A
:10071000002001F0004170BDC4F10004203C35DA36
:100720000C341BDC04F11404C4F1200500FA05F3B9
:1007300020FA04F001FA05F240EA020001F000425A
:1007400021F0004110EBD37021FA04F642EB0601D0
:100750005EEA430E08BF20EAD37070BDC4F10C04FA
:10076000C4F1200500FA04F320FA05F001FA04F2BE
:1007700040EA020001F0004110EBD37041F10001AA
:100780005EEA430E08BF20EAD37070BDC4F12005B5
:1007900000FA05F24EEA020E20FA04F301FA05F21D
:1007A00043EA020321FA04F001F0004121FA04F2C5
:1007B00020EA020000EBD3705EEA430E08BF20EA95
:1007C000D37070BD94F0000F0FD101F000464000CF
:1007D00041EB010111F4801F08BF013CF7D041EA51
:1007E000060195F0000F18BF704703F00046520055
:1007F00043EB030313F4801F08BF013DF7D043EA26
:100800000603704794EA0C0F0CEA135518BF95EADB
:100810000C0F0CD050EA410618BF52EA4306D1D162
:1008200081EA030101F000414FF0000070BD50EA81
:10083000410606BF1046194652EA430619D094EA0B
:100840000C0F02D150EA013613D195EA0C0F05D1F5
:1008500052EA03361CBF104619460AD181EA030149
:1008600001F0004141F0FE4141F470014FF0000001
:1008700070BD41F0FE4141F4780170BD70B54FF09C
:10088000FF0C4CF4E06C1CEA11541DBF1CEA13551C
:1008900094EA0C0F95EA0C0F00F0A7F8A4EB0504FE
:1008A00081EA030E52EA03354FEA013100F08880F5
:1008B0004FEA03334FF0805545EA131343EA1263BE
:1008C0004FEA022245EA111545EA10654FEA002673
:1008D0000EF000419D4208BF964244F1FD0404F52C
:1008E000407402D25B084FEA3202B61A65EB030588
:1008F0005B084FEA32024FF480104FF4002CB6EB45
:10090000020E75EB030E22BFB61A754640EA0C00C4
:100910005B084FEA3202B6EB020E75EB030E22BF04
:10092000B61A754640EA5C005B084FEA3202B6EB45
:10093000020E75EB030E22BFB61A754640EA9C0004
:100940005B084FEA3202B6EB020E75EB030E22BFD4
:10095000B61A754640EADC0055EA060E18D04FEA92
:10096000051545EA16754FEA06164FEAC30343EA32
:1009700052734FEAC2025FEA1C1CC0D111F4801FFF
:100980000BD141EA00014FF000004FF0004CB6E7F8
:1009900011F4801F04BF01430020B4F1FD0C88BF97
:1009A000BCF5E06F3FF6AFAEB5EB030C04BFB6EBA2
:1009B000020C5FEA500C50F1000041EB045170BD95
:1009C0000EF0004E4EEA113114EB5C04C2BFD4EBC2
:1009D0000C0541EA045170BD41F480114FF0000E46
:1009E000013C90E645EA060E8DE60CEA135594EAC2
:1009F0000C0F08BF95EA0C0F3FF43BAF94EA0C0FC5
:100A00000AD150EA01347FF434AF95EA0C0F7FF439
:100A100025AF104619462CE795EA0C0F06D152EA8D
:100A200003353FF4FDAE1046194622E750EA410671
:100A300018BF52EA43067FF4C5AE50EA41047FF482
:100A40000DAF52EA43057FF4EBAE12E74FF0FF3CE7
:100A500006E000BF4FF0010C02E000BF4FF0010CB8
:100A60004DF804CD4FEA410C7FEA6C5C4FEA430C31
:100A700018BF7FEA6C5C1BD001B050EA410C0CBF80
:100A800052EA430C91EA030F02BF90EA020F0020E2
:100A9000704710F1000F91EA030F58BF994208BF49
:100AA00090422CBFD8176FEAE37040F00100704706
:100AB0004FEA410C7FEA6C5C02D150EA013C07D15D
:100AC0004FEA430C7FEA6C5CD6D152EA033CD3D0A8
:100AD0005DF8040B704700BF8446104662468C46A2
:100AE0001946634600E000BF01B5FFF7B7FF0028D5
:100AF00048BF10F1000F01BD4DF808EDFFF7F4FFFE
:100B00000CBF012000205DF808FB00BF4DF808ED88
:100B1000FFF7EAFF34BF012000205DF808FB00BFAB
:100B20004DF808EDFFF7E0FF94BF012000205DF8CD
:100B300008FB00BF4DF808EDFFF7CEFF94BF012082
:100B400000205DF808FB00BF4DF808EDFFF7C4FF7B
:100B500034BF012000205DF808FB00BF4FEA410CC4
:100B60007FEA6C5C02D150EA013C0AD14FEA430CA7
:100B70007FEA6C5C02D152EA033C02D14FF00000E4
:100B800070474FF0010070474FEA410212F5001222
:100B900015D211D56FF47873B3EB625212D94FEAC4
:100BA000C12343F0004343EA505311F0004F23FAAE
:100BB00002F018BF404270474FF00000704750EA03
:100BC000013005D111F0004008BF6FF000407047C0
:100BD0004FF00000704700BF4A0011D212F500121A
:100BE00011D20DD56FF47873B3EB62520ED44FEA85
:100BF000C12343F0004343EA505323FA02F0704705
:100C00004FF00000704750EA013002D14FF0FF3042
:100C100070474FF0000070474FEA4102B2F1E043E5
:100C200024BFB3F5001CDCF1FE5C0DD901F0004CD3
:100C30004FEAC0024CEA5070B2F1004F40EB830023
:100C400008BF20F00100704711F0804F21D113F14F
:100C50003872BCBF01F00040704741F480114FEA88
:100C60005252C2F11802C2F1200C10FA0CF320FA11
:100C700002F018BF40F001004FEAC1234FEAD3232E
:100C800003FA0CFC40EA0C0023FA02F34FEA430398
:100C9000CCE77FEA625307D150EA01331EBF4FF021
:100CA000FE4040F44000704701F0004040F0FE403C
:100CB00040F40000704700BF53B94AB9002908BF8B
:100CC00000281CBF4FF0FF314FF0FF3000F0BEB9DD
:100CD000ADF1080C6DE904CE00F03CF8DDF804E05D
:100CE000DDE9022304B0704738B500220023044632
:100CF0000D46FFF70BFF28B920462946BDE83840CE
:100D000000F00AB8204605F1004100F005F8404225
:100D100061EB410138BD00BFD0B50C4B0022064647
:100D20000F46FFF781FCFFF757FF0446FFF702FC71
:100D3000074B0022FFF778FC02460B463046394647
:100D4000FFF7BAFAFFF748FF2146D0BD0000F03D9B
:100D50000000F0412DE9F047089D8E460446884684
:100D6000002B4AD18A42174662D9B2FA82F64EB1B6
:100D7000C6F1200301FA06F820FA03F3B74043EA6C
:100D80000808B4404FEA174E1FFA87FCB8FBFEF183
:100D9000230C0EFB118843EA084301FB0CF29A4234
:100DA00009D9FB1801F1FF3080F0EA809A4240F245
:100DB000E78002393B449A1AA3B2B2FBFEF00EFB65
:100DC000102243EA024300FB0CFC9C4509D9FB18A6
:100DD00000F1FF3280F0D6809C4540F2D3803B4446
:100DE000023840EA0140A3EB0C0300211DB1F3409F
:100DF0000022C5E90032BDE8F0878B4205D90DB16C
:100E0000C5E9000100210846F5E7B3FA83F100299E
:100E100046D1734502D3824200F20581841A6EEBFB
:100E2000030201209046002DE5D0C5E90048E2E725
:100E3000002A00F09080B2FA82F6002E40F0A480E2
:100E40008A1A030C4FEA174E80B2BCB20121B2FBE2
:100E5000FEFC0EFB1C2243EA024304FB0CF29A4206
:100E600007D9FB180CF1FF3802D29A4200F2E08059
:100E7000C4469B1AB3FBFEF20EFB123340EA034357
:100E800002FB04F49C4207D9FB1802F1FF3002D2A6
:100E90009C4200F2CA8002461B1B42EA0C40A5E7B6
:100EA000C1F120068B4022FA06F71F430EFA01F427
:100EB00020FA06F32EFA06FE4FEA1749234300FAFA
:100EC00001F81FFA87FCBEFBF9F01C0C09FB10EEC1
:100ED00044EA0E4400FB0CFEA64502FA01F209D9D1
:100EE0003C1900F1FF3A80F09C80A64540F29980C1
:100EF00002383C44A4EB0E041FFA83FEB4FBF9F362
:100F000009FB13444EEA044403FB0CFCA44508D936
:100F10003C1903F1FF3E80F08280A4457FD9023B5B
:100F20003C4443EA0040A4EB0C04A0FB02EC644503
:100F30007346E14662D35FD05DB1B8EB030264EB68
:100F4000090404FA06F622FA01F31E43CC40C5E96F
:100F5000006400214FE7B1FBF2FC010C41EA0E41B5
:100F600080B240EA01423B4638463C46B846BE465F
:100F70002026B1FBF7F1A2EB080241EA0C4166E73B
:100F8000014618E710462CE7C6F120022EFA02F3BC
:100F9000B740B14020FA02F24FEA174E0A43B3FBC2
:100FA000FEF8BCB20EFB1833110C41EA034108FBFA
:100FB00004F9B04089454FEA104380B23ED9791810
:100FC00008F1FF3C01D289451FD8A1EB0901B1FB13
:100FD000FEF909FB04F80EFB191192B242EA014234
:100FE000424529D2BA1809F1FF31C4D24245C2D2D2
:100FF000A9F102013A44BEE7F0459DD2BEEB0203DF
:101000006CEB070C0138E14696E7A7EB0909494468
:10101000A8F1020CB1FBFEF909FB04F8DBE773460B
:101020007FE7504666E70846FDE63B44023A33E771
:10103000ACF1020C3B441CE749469CE7A1EB0901DB
:10104000C446B1FBFEF909FB04F8C4E7704700BFD2
:1010500003798B4228BF0431C91AC9B24171704764
:1010600008B503681B699847B0FA80F0400908BDCD
:1010700010B509F093F9184909F0B4F910F022FA03
:10108000164A174910F0A6FA14F006F90368154934
:101090005C6A154B0022A04706F092FD134900221E
:1010A00006F0EAFD1248FFF7DBFF30B10FF0B8FBA6
:1010B0000368BDE810401B6818470E48FFF7D0FFD3
:1010C00010B104F025FCF3E704F0E8FE0A4904F04F
:1010D0007DFF00F0CDFCEBE7540300206C03002003
:1010E0008C030020B4DB0120600400206CDB0120B5
:1010F0008004002070040020B803002000BEFEE73A
:10110000704700002DE9F0474049DFF85091404F0B
:10111000404B4148DFF84881DFF848A1C9F800306A
:101120001022C9E902120822FA603C4AB960002480
:101130004FF48066C2E900349060D660384A394E78
:1011400090600125C8E902050220C2E90034D060A0
:10115000354AC9F80450C2E90035C8E90035C7E985
:1011600000354FF48073D3604FF06413CAF8043035
:101170002E4BCAF800302E4BCAF808304FF005133A
:1011800073602C4B336006F10C002B4B9160B36005
:1011900013F034FD294B2A4A1A602A4AC3F88420E6
:1011A000A3F88840284B294818604FF4F07228486B
:1011B0001C760321C3E901124FF4A071C3E90312A5
:1011C00059610571C180234D0281C3E907A9C3E9B3
:1011D00009872146204B03604471C6600474C0F83F
:1011E0001240C0F81640C0F81A40FFF731FF4FF424
:1011F00000404023C5E900034220C5E903462C72A4
:101200006C6110F01FF9E860BDE8F0870000024053
:1012100090040020640F03080004024080040020B2
:10122000700400204404002060040020D40F030850
:1012300010DB0120880F030874D90120B8030020B7
:1012400024100308BCDC01208C030020389D020818
:101250006C03002054030020109D0208B0040020FD
:10126000A00400205404002008B5074BD86810B132
:10127000012120F070FA0548054B40F80C3BBDE811
:10128000084013F0C5BC00BF5403002044040020F4
:10129000880F03084FF00000704700F5805090F869
:1012A000BC0E003818BF01208000704713F046BB09
:1012B00038B568B30B784D78DBB900F5B254636983
:1012C00014341B692046984788B1236820461B6C5C
:1012D000984760B12946204614F038FB3DB9236891
:1012E00020461B6C984710B1204614F03EFB0020AE
:1012F00038BD012B02D100F5BE54E0E7062BF6D134
:10130000002DF4D0036800F65441DB699847EEE7FE
:101310000220EDE708B51EF01DFBBDE808401EF0F9
:10132000EBB9000010B5074B044640F8483B13F0FA
:101330006BFE04F1240013F0BDFC201D13F0BAFC79
:10134000204610BD5010030810B50446FFF7EAFF11
:101350002046682120F0FFF9204610BD054A0260B2
:101360000022C0E90122C0E90322C0E90522C261CE
:10137000704700BF38A8020810B50446FFF7EEFF1B
:10138000044B23600023C4E9083384F82830E36267
:10139000204610BD3CA6020810B50446FFF7DEFF4C
:1013A000064B23600122002384F82C20C4E9083373
:1013B000A362236384F83430204610BD8CA7020852
:1013C0002DE9F8430446FFF7C9FF1C4B23600025B5
:1013D0006FF07F43DFF8689023634FF001084FF010
:1013E00080774FF0FF36C4E90855C4E90A55A58651
:1013F00004F13800FFF7B2FFC4E91655C4E91B76C3
:10140000C4F83890256684F86480A566A4F87850FE
:1014100004F17C00FFF7A2FFC4E92B5784F8A880F1
:10142000C4E92755C4F87C90C4F8A450C4F8B4604B
:10143000A4F8BC502046BDE8F88300BFAC100308F8
:10144000E8A5020810B5034B0360044612F04EFDF8
:10145000204610BD8CA7020810B50446FFF7F2FF26
:101460002046382120F077F9204610BD38B50446D3
:10147000FFF774FF1C4B236000254FF47F420123CC
:10148000C4E90D234FF00041C4E90F536FF000434E
:10149000C4E911134FF0FF33E364C4E90855A562B2
:1014A00084F82C50256304F15000FFF765FF04F128
:1014B0008000FFF771FF04F1B800FFF76DFF2946C8
:1014C000182204F1F00022F0EBFD1022294604F569
:1014D000847022F0E5FD84F818510FF0F3FFC4F892
:1014E0001C01204638BD00BFD87B020838B5094B27
:1014F000094D0360044640F87C5F12F0F7FC20467B
:1015000040F8385F12F0F2FC204612F0EFFC204663
:1015100038BD00BFAC100308E8A5020810B50446AA
:10152000FFF7E4FF2046C02120F015F9204610BD4A
:101530002DE9F84304460026FFF710FFC4E90866CA
:10154000C4E90A662D4BDFF8C0902360266304F1DE
:10155000340504F5EA774FF0FF382846FFF7FEFE22
:10156000C5F8009085F82060C5F82C8085F83060BB
:10157000C5E909663435BD42EFD104F565762846E4
:101580003835FFF709FFAE42F9D1354604F6941617
:101590002846C035FFF714FFAE42F9D1304600258A
:1015A000FFF7DCFE164BC4F89439C4F8B45904F6BE
:1015B000B810FFF705FF04F67820FFF701FF04F6E7
:1015C0003830FFF7D9FE04F66830FFF7C7FE0D4B41
:1015D000C4F8683BC4F8885BC4F88C5BC4F8905BC3
:1015E00084F8945BC4F8985BC4F89C5B0FF06AFFC6
:1015F000C4F8A00B2046BDE8F88300BF8083020832
:10160000E4A6020890A60208949D02080A4B10B5B1
:10161000044640F8B83BFFF715FF04F18000FFF7E0
:1016200011FF2046054B40F8503F12F05FFC20466A
:1016300012F05CFC204610BDD87B02083CA60208D4
:1016400010B50446FFF7E2FF20464FF4907120F0FA
:1016500082F8204610BD000070B50A23002504461C
:10166000C0E90055C0E9025503611430FFF776FE6A
:101670002E4B6361C4E90D5504F13C00FFF77CFE7D
:1016800004F16C00FFF76AFE294BE36604F18C005D
:10169000FFF782FE04F1C400FFF7E8FE04F5F270E4
:1016A000FFF78EFE04F52970FFF78AFE04F55970E6
:1016B000FFF786FE1F4B93E8070004F2244585E8F8
:1016C000070004F5866603F10C023C33106851688C
:1016D000354603C508329A422E46F7D104F58C6090
:1016E000FFF76EFE04F5A460FFF76AFE0FF0EAFE56
:1016F000002384F8F03584F80836C4F8E005C4F80F
:10170000E435C4F8E835C4F8EC35C4F8F435C4F869
:10171000F835C4F8FC35C4F80036C4F80436C4F80B
:101720000C36C4F81036204670BD00BFE0A7020892
:1017300090A602080064020838B5204B0360204BD5
:10174000C0F8683B044600F6683012F0CFFB1D4B32
:10175000C4F8383B04F6383012F0C8FB04F67820A1
:10176000FFF7C4FE04F6B810FFF7C0FE164BC4F82E
:10177000943904F6941012F0B9FB40F6D40563597D
:1017800060191B68C03D9847B5F5357FF7D14FF418
:101790005775635960191B68383D9847B5F5CE7F7A
:1017A000F7D14FF4D075635960191B689847343DE1
:1017B000F9D1204612F09AFB204638BD80830208FA
:1017C00090A602083CA60208E4A6020810B504464A
:1017D000FFF7B2FF204640F6A4311FF0BCFF2046C1
:1017E00010BD000038B5044600F5A460FFF77EFE8A
:1017F00004F58C60FFF77AFE4FF459756359601950
:101800001B68C03D9847B5F5927FF7D104F1C4003D
:10181000FFF7FCFE04F18C00FFF714FE2046094B95
:1018200040F86C3F12F062FB2046074B40F83C3F0B
:1018300012F05CFB2046054B40F8143F12F056FBBB
:10184000204638BD90A602083CA60208E0A7020880
:10185000294B70B50360044600F5C4501430FFF7FF
:10186000C1FF04F5BE501430FFF740FE04F5B85038
:101870001430FFF73BFE04F5B2501430FFF736FE8C
:1018800004F5AF501C30FFF7DDFD41F2C45541F2C5
:101890007446635960191B68383D9847B542F8D1C2
:1018A00041F28C3540F6CC46635960191B68A5F5AA
:1018B00090759847B542F7D104F6B450FFF7C2FDD2
:1018C00004F67C50FFF7BEFD04F64450FFF7BAFD66
:1018D0000A4BC4F8143D04F6145012F007FB04F64A
:1018E0005440FFF703FE04F1B000FFF725FF204648
:1018F000FFF718FD204670BDAC7B02083CA602082D
:1019000008B50248FFF7A4FF08BD00BFC4040020CB
:1019100010B50446FFF79CFF204641F6DC611FF03E
:101920001AFF204610BD00004D4B70B51022044632
:10193000222140F8043B002313F0E1F900230822A0
:10194000202104F1240013F0DAF904F5F5531C33D7
:10195000002563641423C4E91253424B84F85050A9
:10196000C4E915344FF48063A4F85E30022384F890
:10197000603020463C4B63663C4B84F85C50294603
:1019800040F8683B402222F08BFBC4E92A5504F161
:10199000B000FFF7CDFD04F65440FFF711FD04F64B
:1019A0001450FFF7E9FC04F64450FFF7F5FC04F689
:1019B0007C50FFF7F1FC04F6B450FFF7EDFC04F5A2
:1019C000A55604F6EC550C36284605F59075FFF73C
:1019D0004DFDB542F8D104F5AF561C3628463835D2
:1019E000FFF7DAFCB542F9D12846FFF7D5FC04F53C
:1019F000B2501430FFF7E4FC04F5B8501430FFF790
:101A0000DFFC04F5BE501430FFF7DAFC04F5C450D7
:101A100004F580551430FFF71FFE032385F8A83E18
:101A20000FF050FDC5F8AC0E06F0CAF8C5F8B00EC0
:101A300004F034FAC5F8B40E08F0B0FC002385F8C1
:101A4000D03EC5F8B80EC5F8C43EC5F8C83EC5F8C6
:101A5000CC3EC5F8D43EC5F8D83E204670BD00BF88
:101A600050100308D14A010898680208AC7B0208AC
:101A700010B50A4C2368BFF35B8FDB070CD42046FC
:101A80001FF06BFE40B10648FFF74EFF054821F0FE
:101A900053FA20461FF06DFE014810BDC00400201F
:101AA000C4040020011900082DE9F04F00F580560C
:101AB00085B0D6F8AC3E0546D3F8A0400F460029C5
:101AC00070D0083C032294FBF2F4D3F8A4B012F0D7
:101AD00095FB0368DB689847804612F08FFB03682C
:101AE000DB68984705F5B25909F1140900EB40008D
:101AF00008EB48084FF0010A2D49CDF808A0ABEBE0
:101B000008030022CDE90040484613F081FDFFF7AD
:101B100001FC002301461A46484613F022FF4846BE
:101B200013F0DDFEE7B1B6F96026CDF808A0B6F9EE
:101B300066361F49CDE9004305F5B8571437B6F9A5
:101B40005E360532384613F063FDFFF7E3FB0023F2
:101B500001461A46384613F004FF384613F0BFFE1C
:101B6000D6F8AC3E1249D3F8A02001230293B6F96F
:101B70006636CDE9004305F5BE551435B6F95E3637
:101B8000121B284613F044FDFFF7C4FB0023014657
:101B90001A46284613F0E5FE284605B0BDE8F04F8A
:101BA00013F09DBE04EBD4746410043C8DE700BFB9
:101BB000286A020800F5805300F5B250D3F8B43E0D
:101BC00093F88C33022B0CBF02490349143013F0F5
:101BD000C6BD00BFA4680208A968020800F58052CB
:101BE000D2F8B42E92F88C23012A05D821B100F541
:101BF000B250143013F0B3BDFFF7DCBF00F58053D3
:101C000000F5BE50D3F8B42E92F88C33052B00F1BA
:101C1000140008D192F80D344F2B02D1054913F06E
:101C20009EBD0549FBE7002BF8D0092BF6D00349F0
:101C3000F5E700BFE7740208AD6802080872020801
:101C400000F58052D2F8B42E92F88C23012A05D1E7
:101C500021B100F5BE50143013F081BDFFF7CEBFA7
:101C600070B500F164030446002553F8042F8A423E
:101C700018D1D4F8AC301A3354F8230003681B6928
:101C8000984704F1B000C4F8AC50294605F072FE44
:101C9000D4F8AC301A3354F823000368BDE8704020
:101CA000DB6818470135102DDFD170BD70B50446D3
:101CB0008AB004F5B155143503A804F5AF561EF0EB
:101CC0001FFC1C36049B134A04F58054202128462F
:101CD00022F016F929463046012211F0B9FDD4F858
:101CE000AC3ED3F8A020B4F90C3603EBD37302EB6F
:101CF000D2725C10C4EB620412F044FA6FF07F43BE
:101D00000190009322461E232946304611F052FCD2
:101D10000AB070BDB4680208D0F8AC301A3370B5A0
:101D2000044650F8230003680D461B69984704F1E8
:101D3000B000C4F8AC50294605F01CFED4F8AC3015
:101D40001A3354F823000368BDE87040DB68184775
:101D500073B500F654468E4204460D460DD190F8F8
:101D6000693C53B100F58054D4F8B40E90F86E334A
:101D70006BB904F02FFA01210CE004F1B0039D428D
:101D80000FD194F8DC102046FFF7C6FF05E004F001
:101D900057FA0021304613F0D9FD4FF0000002B091
:101DA00070BDD4F8AC301A33294654F823000368C8
:101DB0009B699847C0B20928EFD104F5B253143398
:101DC0009D420CD104F58054D4F8B40E90F88C33B5
:101DD000022B14BF8121822104F0EDF9DDE704F527
:101DE000BE5314339D42D8D104F58054D4F8B40EB8
:101DF00090F88C13D0F88423052913D190F80D3472
:101E0000C0F888234F2B4FF0000380F80D3480F882
:101E1000703301D11821DFE70B49019301AA04F0C7
:101E2000B1FEBAE7002339B1092905D080F8703333
:101E3000C0F888231921CFE780F80D3480F870337B
:101E4000C0F88823E6E700BFCA680208F7B5044671
:101E500000F1B00504F58056284605F020FC282244
:101E60000821D6F8AC3ECDE9002100221146D3F876
:101E7000A0300027284605F093FDC4F8A87012F0A2
:101E80000BF939460346644A284605F005FD634AC6
:101E9000D4F8A810284605F096FCD4F8A8707B1C4E
:101EA000C4F8A83002F048FD1A3744F82700D4F8E7
:101EB000A87012F0F1F83946594A0346284605F051
:101EC000EBFCD4F8A8707B1CC4F8A83008F044FFE1
:101ED0001A3744F82700D4F8A87012F0DDF8394614
:101EE0000346504A284605F0D7FCD4F8A8707B1C5E
:101EF000C4F8A83001F0E6FD1A37D6F8B43E44F82D
:101F0000270093F831349BB9D4F8A87012F0C4F8C4
:101F100039460346444A284605F0BEFCD4F8A8706A
:101F20007B1CC4F8A8300DF057FB1A3744F8270083
:101F3000D4F8A87012F0B0F839463C4A0346284657
:101F400005F0AAFCD4F8A8707B1CC4F8A8300CF0EB
:101F500061FD1A3744F82700D4F8A87012F09CF8F5
:101F600039460346324A284605F096FCD4F8A87054
:101F70007B1CC4F8A83003F059FC1A37D6F8B43EDD
:101F800044F8270093F831349BB9D4F8A87012F0C4
:101F900083F839460346274A284605F07DFCD4F8E5
:101FA000A8707B1CC4F8A8300AF020FB1A3744F84C
:101FB0002700D4F8A87012F06FF839461E4A03467D
:101FC000284605F069FCD4F8A8707B1CC4F8A8303A
:101FD0000EF09AF81A37D4F8A82044F82700D6F85B
:101FE000AC3E01922822009200221146D3F8A03084
:101FF000284605F0D5FC284605F082FD0023214641
:1020000028461A4605F078FD4FF4FA61284603B0D9
:10201000BDE8F04005F003BBCE6802083C0000209C
:10202000D2680208DB680208E6680208F368020862
:102030000069020810690208166902082DE9F04FCC
:10204000044689B004F5805608F0A8F908F0CEF9E6
:10205000D6F8AC5E08F0A2F98168003918BF0121FA
:1020600028460FF0C4FA96F8A81ED6F8AC0E0FF06A
:1020700001FED6F8AC3E9A4AC3F89820D3F8A47073
:1020800012F0BCF80368DB689847054612F004F8C4
:102090000368DB689847D6F8AC3ED3F8A0300593C8
:1020A000824611F0F9FF026892689047834611F06A
:1020B000F3FF0268D268904705EB4505894A059B06
:1020C000023F4FF0060804F614597F1B400000251C
:1020D00008FB1B33CDE901250090A7EB4A024846D7
:1020E000294610F0AFFF4FF47A71484611F0DBFE3D
:1020F000D6F8B40E04F0A4F8D6F8AC3ED3F8A0A0FD
:1021000011F0CAFF03689B689847B4F91EBD814669
:1021100011F0C2FF03689B6898470123029304F6FD
:102120005447B4F9263D7049019308FB00F00AF1C9
:10213000FF3208FB19225B460090384613F068FA1C
:102140002A462B463846214613F00BFC38462946D2
:1021500013F0FCFB4FF47A71384611F0A4FEB4F989
:10216000263DB4F91EAD03EBD3730AEB630A11F0FD
:1021700093FF0368DB689847074611F08DFF6FF007
:102180007F4904F64458042258490190AAEB5703AA
:102190004046CDF8009011F00DFAB4F94CBD11F0A5
:1021A0007BFF03689B689847074612F027F803688F
:1021B0009B689847B4F9223D0693079012F01EF8E9
:1021C0000168C9688847059012F018F8069B079ABD
:1021D000059904F67C5A07EB87075A44023B5B1AC1
:1021E0003A444249CDE90090504611F0E3F9B4F980
:1021F0005C2C069212F03CF803689B689847B4F98F
:102200001E3D04330746059312F032F8069A059BEB
:102210000190FF2104F6B45B00910B2101FB172212
:102220005846324911F0C6F940F2E931404611F002
:102230003AFE40F2EA31504611F035FE40F2EB3101
:10224000584611F030FE29462046FFF72DFC204667
:10225000FFF7FCFD11F096FF04F5B151CDE90090B8
:1022600004F5AF502B462A4614311C3011F0A2F968
:1022700004F16407D4F8A830AB4225D8A06E00233F
:10228000C4F8AC300368DB68984704F5F6530433B0
:1022900001934323009321462346154AD6F8B00EF6
:1022A00005F00BFD04F6EC5504F5A5540C34284656
:1022B000002105F5907500F0B6FCA542F7D14FF06E
:1022C000000009B0BDE8F08F57F8040FB4F91E2DD7
:1022D0000368283A9B68282198470135CAE700BF60
:1022E0004040400080808000CE680208286A0208D2
:1022F000B1120008F8B500F580550446D5F8B40EC3
:1023000090F88C1303F06FFE0022014604F644504F
:1023100011F09EFAD5F8B40E90F80D1403F06BFE90
:102320000022014604F67C5011F092FAD5F8B41E52
:1023300091F80524134623F0400381F80534C2F3D5
:10234000801201F20E4104F6B45011F081FA04F645
:10235000EC570026F1B2D5F8B40E03F07FFE01363B
:102360000146384600F05FFC062E07F59077F1D164
:10237000D5F8B43E94F8882C93F8FF3304F6544013
:10238000002A39D0002B0CBFFF214FF47F4113F0FE
:1023900029FAD5F8B43E93F82B24002683F82B6451
:1023A000BAB1D4F8AC301A3304F1640754F82300FE
:1023B00003681B6998472046FFF748FDD4F8A8300A
:1023C000B3421FD8A06E0023C4F8AC300368DB68AA
:1023D0009847D4F8AC301A33142154F8230003681A
:1023E0005B699847D5F8AC0E00F5C1501C3012F06F
:1023F000BFFD4FF00000F8BD002B0CBF6FF07F4118
:10240000FF21C4E757F8040FB4F91E2D0368283ADA
:102410009B68282198470136D0E708B558B109B91B
:10242000002008BD0269D0F81031C43001FB023130
:1024300000F0F9FBF4E70220F3E7C0E90012836043
:10244000704701694B1E10B559420446594100F5C9
:10245000F27013F07BFA2169A1F10A025142514155
:1024600004F5297013F072FA2169A1F16400414268
:10247000414104F55970BDE8104013F067BA32B914
:1024800001207047484301339342FBD1704708460F
:102490000123F9E737B504460D466C3011F003FD12
:1024A000691C04F1140011F0FEFCA91C04F58C60F9
:1024B00011F0F9FCE91C04F5A46011F0F4FC05F03E
:1024C0007FFB0546FEF726FF04F2E45301460D4A62
:1024D00000932846234605F01FFC05F071FB0546D6
:1024E000FEF718FF04F2FC53019303230146009307
:1024F0002846054A234605F0E0FB4FF0000003B0F4
:1025000030BD00BF1B240008932800082DE9F04FC0
:1025100089B0C94D05921E462B68DFF830B3BFF372
:102520005B8F13F0010F04460F460CD128461FF0B5
:1025300014F940B1D4F8E0352846D3F8A030CBF8F0
:1025400000301FF016F911F0A7FD6FF07F4304F182
:102550008C05009300231A4639460190284611F055
:1025600029F828469DF8541011F039F9B4F99C3037
:10257000DBF80010C91A082200234908284604F194
:10258000140A11F0D1FC5146284611F013FD012127
:10259000284611F088FCDBF80030B4F99A70A3F1FA
:1025A000100811F02BFE0368DB689847149B029318
:1025B00004F1C40508370D2300EB80003A4601936F
:1025C000009043462846082100F05EFA4FF47F420F
:1025D0000421284600F01AFB11F010FE02220146E9
:1025E000284600F032FCDDE91212284600F05AFBC2
:1025F0003146284600F017FB11F000FE0027034685
:1026000005222846059900F036FC5146284684F8F4
:10261000D97011F0CFFC2846012111F044FC04F5DB
:102620008463049304F5866804F5F275B4F9D490D4
:102630000323A9F10809B9FBF3F903F02FFC149A5D
:1026400006460A212046FFF71AFF049A009052F826
:10265000043F049241461022304603F037FE4046C4
:10266000FDF7C8FD059B754AC0F11001404421F0FB
:1026700047FCB4F9CC2009F1040307FB0322B4F9A9
:10268000D23007920833069311F0B8FD0168C9688B
:102690008847012600EB8000DDE906324146CDE99E
:1026A00000900296284612F0B3FFFEF733FE644A0C
:1026B00023460146284613F054F92846002113F01A
:1026C00045F92846032113F0D5F85146284611F064
:1026D00071FC2B6828469B68314637449847032F86
:1026E00008F1100805F1C005A0D1149A022A28BFEC
:1026F00002220A212046FFF7C2FE2061C02000FB13
:1027000002400025314600F5F27013F01FF90296E1
:102710000195B4F9F231083304F13C070093DBF87A
:1027200000302A462946384610F08CFC38460421F1
:1027300010F0DCFC38464FF6FF7110F0E7FC29463C
:10274000384610F0F6FC5146384611F033FC294665
:10275000384611F0A8FBD4F8E025B4F94E30D2F891
:10276000A4200093D21A02EBD272DBF8003032417F
:102770002946504611F0B8FAD4F8E035D3F8A42031
:10278000009229462A4604F16C00D3F8A03010F0DC
:10279000E0FCD4F8E03584F88160D3F8A4A011F00F
:1027A0002DFD0368DB689847D4F8E035D3F8A02006
:1027B00002EBD27242FA06F7814611F01FFD036860
:1027C000DB68984704F58C68043F09EB490900EB86
:1027D0004000CDE90070AAEB09032A461949029688
:1027E000404612F015FFFEF795FD23460146144AB8
:1027F000404613F0B6F8D4F8E035B4F97024D3F8B5
:10280000A0100296B4F97234CDE9002304F5A46750
:10281000B4F96A348A1A38460B4912F0F9FEFEF709
:1028200079FD074A01462346384613F09AF82846B0
:1028300009B0BDE8F08F00BFA02300201F69020887
:10284000932800082369020826690208A4230020AF
:1028500010B5044605F0B4F904F2E45105F074FA39
:1028600005F0AEF904F2FC5105F042FA04F114004F
:1028700011F030FB04F16C0011F02CFB04F58C60BE
:1028800011F028FB04F5A46011F024FB4FF00000C8
:1028900010BDF8B5044600284BD000F58C678F4278
:1028A00015D1FFF7D5FF206850B10368D4E90112B4
:1028B0005D682346A8472046FFF7C3FD0020F8BD0A
:1028C0006368002BF7D0A06821469847F3E700F52E
:1028D000A4668E4202D1FFF7BBFFECE700F5F2736E
:1028E000994202D101232361E5E700F5297399425A
:1028F00001D10A23F7E700F55973994201D1642306
:10290000F1E70B784D7853B92946384613F01EF895
:10291000002DD0D139462046FFF7BBFFCBE7012B76
:10292000C9D12946304613F011F8002DC3D13146E4
:10293000F1E70220C3E7B0F908007047B0F90A00D8
:102940007047B0F90C007047B0F90E007047B0F94D
:1029500010007047B0F912007047407D7047417514
:1029600070472DE9F341089E04461D46B0F90A3030
:10297000B0F90800301A0090EB1A04F150009046AC
:102980000F4610F03EF9B4F90820B4F90A30B21A33
:102990000092EB1A4246394604F1B80010F09AFD55
:1029A00094F818317BB1B4F90820B4F90A30B61A9A
:1029B000EB1A4246394604F18000089602B0BDE8A1
:1029C000F04110F087BD02B0BDE8F0812DE9F34180
:1029D000089E04461D46B0F90830B0F90A00301AC6
:1029E0000090EB1A04F1500090460F4610F05EF98B
:1029F000B4F90A20B4F90830B21A0092EB1A424630
:102A0000394604F1B80010F005FD94F818317BB197
:102A1000B4F90A20B4F90830B61AEB1A424639461E
:102A200004F18000089602B0BDE8F04110F0F2BC5D
:102A300002B0BDE8F081000070B5044605291AD83F
:102A4000DFE801F0030F191903170B4904F15000D7
:102A500010F06FFB236820469B6CBDE8704000219E
:102A60001847006A28B10368D4E909125D68234653
:102A7000A8470021EAE770BD8080800010B103689C
:102A80009B681847704700002DE9FF470446DDE9C1
:102A90000C651F464FF0FF30E06438182181014477
:102AA0000E9BA181711E62810A44E281EA1AC4E987
:102AB0000E2327826682012100204FF00A0C8342F8
:102AC0006BDC216404F58470002B6AD00093102124
:102AD0001346374A21F014FA013504F1F00948464B
:102AE000FDF788FBA8420CD004F1EF0100239D42C2
:102AF00094BF0022012201335201182B01F8012F4B
:102B0000F5D1002501232A462946CDE90153009637
:102B10003B4604F1500010F095FA11F06FFB04F100
:102B2000B8086FF07F47494601902B462A46404639
:102B3000009710F03FFDD4E90E3203EB0209D4F800
:102B4000E800B4F910A009F10109AA4218BF09F17F
:102B50000109FFF793FFB4F9CA305FFA89F9F61A51
:102B600000FB19A106EBD6762B46721049084046A9
:102B700011F0DAF911F042FB2B46CDE900700D4956
:102B800004F180002A4610F015FD23689B6C29464D
:102B9000204604B0BDE8F04718470CFB01F10130B6
:102BA0008DE713461021044A21F0AAF995E700BFEA
:102BB0002D690208286A02083E690208C36F99421B
:102BC00010B5044609D0503010F090FA2368204622
:102BD0009B6CBDE810400021184710BD10B5036F75
:102BE000C0E90C12044690F82C00002818BF1146CA
:102BF00099420AD004F1500010F088FA2368204668
:102C00009B6CBDE810400021184710BD38B5154633
:102C10000446FFF7D3FF294620464FF47F42BDE824
:102C20003840FFF7DBBF436C99420A46B8BF1A46EB
:102C3000836C9A42A8BF1A46C36C934273B504468C
:102C40002ED0C56BC26400F5847300F1F001B8307A
:102C50005DB90092182210F028FE236820469B6C74
:102C600000219847012002B070BD266C92FBF6F55A
:102C700006FB1522002AB8BF5242CDE900521822A5
:102C800010F013FEE36C002BE7DA226C93FBF2F3F7
:102C9000002BE2D1A36B23442D2283F8EE20DCE746
:102CA0000020E0E7C0E91112C16CFFF7BCBF2DE9BD
:102CB000F041D0E90E531D44002B18BF013590F8A8
:102CC0001831013B0446042B00F2AA80DFE803F030
:102CD0003A3303618600B0F91060D0F8E800FFF7DE
:102CE000CDFEB4F9CA30B4F91220D21AB4F990303A
:102CF000B11EC91A94F8E4306B4300FB131102EBC8
:102D0000D27200235210490804F1B80011F00CF9F6
:102D1000B4F9C450D4F8B000B4F9C67004F1800618
:102D2000023510B10368DB6898473A1A0023294638
:102D3000304611F0F9F8236820469B6CBDE8F0415D
:102D400000211847B0F9CA30B0F91220B0F91010BC
:102D5000D21AB0F99230D21AB0F9903002EBD27296
:102D6000C91A521000234908803011F0DDF8D4F858
:102D7000E800B4F91060FFF781FE94F8E430B4F98C
:102D80008E206B4300FB13610023490804F1B80057
:102D9000CFE7B0F91060D0F8E800FFF76FFEB4F9A4
:102DA000CA30B4F91220D21A94F8E4306B4300FB15
:102DB000136102EBD27200235210490804F1B800EB
:102DC00011F0B2F8B4F99030B4F91010B4F9C6208B
:102DD000C91A4908002304F18000AAE7B0F910607D
:102DE000D0F8E800FFF74AFEB4F9CA30B4F912206F
:102DF000D21A94F8E4306B4300FB136102EBD272F9
:102E000000235210490804F1B80011F08DF8B4F90C
:102E1000C400B4F99010B4F9C6200023411ADAE7CF
:102E2000B0F91060D0F8E800FFF728FEB4F9CA3016
:102E3000B4F91220D21A94F8E43002EBD2726B4348
:102E400000FB1361521000239FE770B500F1B80634
:102E500004461546304610F087FCE9B2304610F0C3
:102E6000BEFC2046FFF723FF236820469B6CBDE88D
:102E700070400021184770B500F1800604460D46E9
:102E800080F818211946304610F06EFC294630466D
:102E9000002210F0DDFC2046FFF709FF23682046E2
:102EA0009B6CBDE870400021184790F82C308B4295
:102EB00010B5044611D0D0E90C2380F82C1000295D
:102EC0000CBF11461946503010F020F923682046F7
:102ED0009B6CBDE810400021184710BDC0E90812E6
:102EE0008362704710B5D0B109B9002010BD0379D5
:102EF000052B0ED84FF490725343C2188468D2F851
:102F0000AC2103F5B07301FB04211844FFF78BFEDD
:102F1000EBE7D0F8643F00F618701944F6E702209A
:102F2000E4E72DE9F041044604F04AFE04F5985127
:102F300004F00AFF04F5B07504F1100700264FF401
:102F400090782B682846DB689847FEF791FD08FBD0
:102F500006F303F6EC5203441044D3F8EC3DDB686F
:102F60009847D5F8C03605F5D860DB6898473B68C8
:102F70003846DB6801369847062E05F5907507F14F
:102F80003807DED141F2380541F2782663596019DD
:102F9000DB68C0359847B542F8D104F6187010F0D8
:102FA00099FF04F56E6010F095FF04F5955004F557
:102FB0008054183010F08EFFD4F8F0020368DB68FC
:102FC0009847D4F8F4020368DB6898474FF0000094
:102FD000BDE8F08100F580532DE9F04FD3F8FC32C5
:102FE000D3F82C34062B8DB028BF06230233B2FB56
:102FF000F3F2A2F108030C1D0493834611F0FEF8CE
:103000000368DB689847049B00EB8000984207D276
:1030100011F0F4F80368DB68984700EB8003049331
:10302000049B0694043B5B080793049B08330993B5
:1030300000235E465F4605930BF58054D4E9BE231A
:10304000D2F8A01093F83024D3F82C340598062B2E
:1030500028BF06239842C0F0F7800BF593580BF574
:1030600094570BF5815508F11808133718350026C9
:103070004FF003094FF4907AD4F8FC3293F83024DF
:10308000D3F82C34002A14BF39464146062B28BFFA
:103090000623013B0AFB03F3D4F8F822069103F55B
:1030A000B0705B44D2F8A020D3F8603192FBF9F203
:1030B000724304325B6B0592584498470123029394
:1030C000049B0193D4F8F832D3F8A03093FBF9F3C2
:1030D000083BDDE90521009300F10803284612F0C2
:1030E00097FAFEF717F9002301461A46284612F010
:1030F00038FC01362846032112F0BCFB032E08F1F0
:10310000090807F10C0705F1C005B5D110F0C4FF9F
:1031100003689B689847D4F8F832B4F94690D3F81E
:10312000A080054610F0B8FF03689B689847A8F197
:1031300010034FF00A0808FB05F1052200250BF6E5
:103140001877CDE9012509F10809049A009208FBD6
:1031500010334A4638460C31FFF796FCFF22042113
:103160003846FFF753FD11F049F802220146384670
:10317000FFF76BFE42F2107238460121FFF792FD15
:103180004FF496713846FFF74EFDD4F8FC32A84C48
:1031900093F83024A74BAA4208BF1C4611F02EF822
:1031A0003246034621463846FFF765FEFEF7B2F881
:1031B0002B4601462A4638460127FFF78FFE8BF83B
:1031C0002D7F10F069FF0BF56E646FF07F462B4684
:1031D0002A46019098490096204610F0EBF92046C7
:1031E000022110F0FCFABBF92A3FBBF9221F03EBC6
:1031F000D37301EB6301BBF9F23E03EBD372A1EB96
:1032000062022B460421204610F08EFE0BF58750FB
:103210003946CBF80880183012F098FBBBF96841AA
:10322000BBF96A7110F0EAFF0834CDE90060083795
:103230000BF5955081493B462246183010F0BAF9FB
:1032400028460DB0BDE8F08F002A14BF04220322E7
:10325000A1F108030292072206F5B075019203EB73
:10326000D373049A00925B10069ADFF8DC91062073
:1032700091FBF0F12846FFF707FCFF2204212846C6
:10328000FFF7C4FC10F0BAFF022201462846FFF700
:10329000DCFD9DF814A0D4F8FC02514602F0DEFEDD
:1032A00001462846FFF7BFFCD4F8FC32644A93F885
:1032B0003034002B08BF4A46904610F09FFF41462D
:1032C000034603222846FFF7D6FDFEF723F8002326
:1032D0001A4601462846FFF701FED6F86031012163
:1032E00028465B6C9847D6F8603128461B6B984798
:1032F000D6F86031011D0B915B6B28469847079B00
:10330000C31A0893D4F8F832D3F8A020D6F8603165
:103310000A921B6B284698470A9A0B99131AD4F8FD
:10332000FC2292F83024002A14BF042203220292C5
:10333000082206F502680192079A0092083B40466F
:10334000089AFFF7A1FB3F4A02214046FFF75EFCC7
:1033500010F054FF012201464046FFF776FD0021A0
:103360004046FFF760FCD4F8FC32354A93F830341D
:10337000002B18BF914610F005FF03220346494673
:103380004046FFF778FD5146D4F8FC0202F021FEDA
:10339000814610F081FE6FF07F4307F11008009323
:1033A00000231A4649460190404610F003F90221D5
:1033B000404610F014FA3B699B690893D6F86031D7
:1033C00028469B6A98473B6982469B6B40469847D4
:1033D00000EBD0700AEBDA734FEA600ACAEB630ABB
:1033E000D6F860312846DB6A9847D6F860318146C6
:1033F000DB6B284698473B6900EBD07009EB600512
:10340000DB6B4046984700EBD070A5EB60020023D1
:10341000089D51464046A847059B099A01330593EC
:10342000069B134406F590763837069306E600BFF0
:10343000526902084B6902085D690208286A02089D
:103440004669020880808000756C02082DE9F04F03
:1034500004468BB000F1100905464FF0000800F556
:103460008057D7F8FC32D3F82C34062B28BF06231C
:1034700098453AD341F2380541F2782663596019EC
:103480009B686521C0359847B542F7D1642104F6A1
:10349000187010F008FD642104F56E6010F003FD53
:1034A00004F595506521183010F0FDFCD7F8F002B6
:1034B000036866219B689847D7F8F4020368662181
:1034C0009B68984704F07CFB0546FDF723FF04F555
:1034D00098530146009328463F4A234604F01CFCBB
:1034E0004FF000000BB0BDE8F08FFEF7C1FA4FF4CB
:1034F000907303FB08FBD5F82038059005F5026AA8
:103500000BF6EC5606449B6A5046984705F5B07397
:103510000693D5F860310790DB6A06989847D5F88E
:10352000203809909B6B50469847D5F82018089092
:10353000C96B50468847D7F8FC1291F8301400291F
:1035400014BF0421032102910821DDE90832CDE9ED
:10355000000107993046FFF797FA204A02213046CA
:10356000FFF754FB10F04AFE012201463046FFF7F8
:103570006CFCD7F8FC321A4993F83024194B002A16
:1035800008BF1946079110F0FDFD03220346079975
:103590003046FFF770FCD5F8603106989B686421CF
:1035A0009847059B5B446421D3F8EC3D30469B680B
:1035B0009847D5F8203864219B6850469847D9F839
:1035C000003048469B686421984708F1010805F5DA
:1035D000907509F1380944E7E52E000880808000E5
:1035E00046690208756C0208F8B5204B036000F5C7
:1035F00080531F4EC3F8B862044600F5955018304A
:1036000010F074FC41F2B81540F6787763596019F0
:103610001B68C03D9847BD42F8D104F61870FDF70D
:10362000F5FFC4F8E06E04F56E6010F05FFC4FF437
:103630005C65635960191B68A5F590759847B5F5E9
:10364000E06FF6D1635960191B68A5F5907598472E
:10365000402DF7D14FF49475635960191B68383DBC
:10366000984715F1280FF7D12046F8BD2C7C0208A9
:103670008CA7020808B50248FFF7B6FF08BD00BFD7
:10368000AC23002010B50446FFF7AEFF204641F200
:1036900018311EF060F8204610BD017905292DE98A
:1036A000F84398BF0021044688BF012100F6187036
:1036B000FFF7FBFB04F5B076002504F580594FF6C3
:1036C000FF77E9B2D9F8FC02D6F84C8002F0C6FCCC
:1036D0004FF47F42404514BF3946FF213046FFF783
:1036E0007DFA2179A1EB050CDCF1000141EB0C0125
:1036F00030460135FFF7D9FB062D06F59076E0D16F
:10370000A1684B1E594204F581505941183012F0FE
:103710001DF9A168A1F10A02514204F587505141F7
:10372000183012F013F9A168A1F16400414241413F
:1037300004F58D501830BDE8F84312F007B90000C9
:103740002DE9F04700F580570446D7F8FC3293F88E
:10375000312400F59550022A00F1180033D193F876
:1037600000542F492F4B0022954218BF194610F0E4
:103770006FF802F093FB237B90F88C63B34202D086
:10378000032B23D02673FEF773F92749FEF726FA99
:10379000FEF76EF92549FEF753FA0025A0462E469E
:1037A000D7F8FC02D0F82C34062B28BF06239D4204
:1037B00008F5907923D316B12046FFF76EFF4FF03E
:1037C0000000BDE8F0871A490022D0E7012ED9D1C8
:1037D00004F5B0780025D7F8FC02D0F82C34062B7D
:1037E00028BF06239D42CDD2E9B202F037FC014644
:1037F0004046FFF718FA013508F59078EBE7E9B293
:10380000D9F88CA002F02AFCAAEB000108F50260AE
:10381000FFF709FA3043C6B20135C846C0E700BF1A
:103820006C69020863690208736902087769020813
:10383000286A020800F5815318339942F7B5044607
:1038400008D10123A36000252046FFF726FF284664
:1038500003B0F0BD00F587531833994201D10A2314
:10386000F0E700F58D531833994201D16423E9E75D
:1038700000F58055D5F8F0328B4214D1D5F8FC0212
:1038800090F88C33012B49D10193D4F8643F642222
:1038900053430093D4F8EC33D4F8CC22D4F8AC11D1
:1038A00003F0ECFACFE7D5F8F4328B421FD1D5F80C
:1038B000FC3293F88C33012B30D100F5B077002621
:1038C000D5F8FC02D0F82C34062B28BF06239E42E4
:1038D000B9D297F82C3033B1F1B202F0BFFB0146F8
:1038E0003846FFF7A0F9013607F59077E8E700F6CC
:1038F000187399420FD000F5B07291424FF0000357
:103900000AD04FF490700133062B9CD000FB0325A6
:10391000A942F8D100E00623237194E7092593E733
:103920002DE9F84F624B0360062303710A2383607D
:1039300000230646037300F1100400F5B07520461D
:103940003834FDF729FDAC42F9D106F50265204671
:1039500004F59074FDF78AFDAC42F8D106F56E656A
:10396000204604F59074FDF781FDAC42F8D1204665
:10397000FDF712FD06F61870FDF778FD06F5815487
:1039800006F59358DFF834B1DFF834A1183408F1A4
:10399000180800252046FDF7E1FC6FF07F43236304
:1039A0000127C4F800B084F8345084F83550C4E9D5
:1039B0000855C4E90A5504F138004FF0FF39FDF706
:1039C000CDFCC4F838A0256684F86470A56684F838
:1039D0006C5084F86D5084F86E5084F86F70C4F8A1
:1039E0007090A4F87850C4E9165504F17C00FDF7F6
:1039F000B5FCC4F87CA0C4F8A45084F8A870C4F83E
:103A0000AC5084F8B05084F8B15084F8B25084F8C7
:103A1000B370C4F8B490A4F8BC50C4E92755C034BE
:103A20004445B7D1234B06F5805404F51E7203F1CB
:103A3000180718685968154603C50833BB422A465B
:103A4000F7D119889B78AB701B4B298004F2932225
:103A500003F1240153F8040B42F8040B8B42F9D113
:103A600006F595501830FDF797FCFEF701F800F5C4
:103A7000B2501430C4F8F002FDF7FAFF00F5BE5062
:103A80001430C4F8F4020DF01DFDC4F8F80202F081
:103A900005FA002384F80C33C4F8FC02C4E9C033EF
:103AA000C4E9C433C4F808333046BDE8F88F00BF1A
:103AB0002C7C02083C64020857640208AC1003081E
:103AC000E8A5020810B50A4C2368BFF35B8FDB073B
:103AD0000CD420461DF041FE40B10648FFF720FF00
:103AE00005481FF029FA20461DF043FE014810BD8D
:103AF000A8230020AC2300207536000870B190F890
:103B00007030052B06D800EB8300036C0B44036474
:103B100000207047C36B0B44C363F9E70220704772
:103B20002DE9F843044604F04BF804F5A351103195
:103B300004F5805604F008F9201D10F0CBF9D6F8F2
:103B40006404FEF785FE04F1780804F688074FF454
:103B5000E47540F6880963596019DB689847D8F81E
:103B600000304046DB6898473B683846DB6805F51F
:103B7000907598474D4508F1380807F1C007EAD11C
:103B80004FF4606563596019DB68C0359847B5F537
:103B9000885FF7D104F6085010F09CF904F6C8507D
:103BA00010F098F904F58C5010F094F904F5955044
:103BB00010F090F904F59650183010F08BF904F5D8
:103BC0009C50183010F086F9D6F858040368DB686A
:103BD0009847D6F85C040368DB689847D6F8600419
:103BE0000368DB689847FDF743FF0021FDF75CFFA2
:103BF0004FF00000BDE8F8832DE9F347044604F5D3
:103C00008059FDF735FFFDF7D5FFFDF731FFFDF7D3
:103C1000F5FFD9F86C3493F83124022A0BD193F8CC
:103C200000047C497C4B0022904218BF194604F6E0
:103C3000C8500FF00DFE04F5E4760025D9F86C04A9
:103C4000D0F82C34062B28BF06239D421DD304F147
:103C50003C03002753F8045F002D00F0B180636F30
:103C600003FB05F82FB990F83134022B08BFC8F1D7
:103C7000000804EB8706B36D002B11DA002D14DB6E
:103C80000123B3654EF660231DE0E9B202F0E6F9C8
:103C900001463046FEF7C7FF013506F59076CDE7C1
:103CA00000F08580002D40F3888003F089FFD0F874
:103CB0008C30626F142B38BF142353433C22534380
:103CC0000A22B3FBF2F34FF0000ACDF800A0D9F8B6
:103CD0006C044246F9B203F015F8C6F840A0C5B22C
:103CE000D9F86C3493F8213404F596561836002B25
:103CF0006BD04A49304611F032FDD9F86C3493F854
:103D0000203404F59C571837002B60D044493846BE
:103D100011F025FDD9F86C3403F58363D3ED007AF7
:103D2000FCEEE77A04F58C5017EE903A99B2FEF764
:103D30007AFFE36BABB1D9F8CC210A2101FB032157
:103D400004F58C50FEF76FFFD9F86C040023E36391
:103D500090F820342BB190F82124D9F8CC1103F03D
:103D6000A1FBD9F86C3493F8FF3304F6085804F635
:103D700088048BB3D9F86C3493F88C3303F0FD03CB
:103D8000012B2ED1404611F0AAFD2046C03411F07F
:103D9000A6FDA045F9D1384611F0A1FDD9F86C3443
:103DA00093F82034304673B311F0B4FD2DE0002DAC
:103DB000CCBF01234FF0FF3363E74FF0FF3360E7E1
:103DC0000137062F7FF446AF8AE7164992E7164976
:103DD000384611F0C4FCACE706F0E0FA0379032B97
:103DE000C8D0D9F86404FEF733FD404611F092FDC7
:103DF0002046C03411F08EFDA045F9D1384611F0AF
:103E000089FD3046D0E711F06AFD284602B0BDE8D2
:103E1000F08700BF6C690208636902087F690208C5
:103E20008369020880690208886902082DE9F74F52
:103E300004460121043010F036F804F5E47604F667
:103E4000880704F17809B0464FF0000BBA4604F534
:103E50008055D5F86C34D3F82C34062B28BF0623B4
:103E60009B4571D34FF46067E359E0199B68642167
:103E7000C0379847B7F5885FF6D1062384F87030CD
:103E80003046002106F59076FFF70FF8B245F7D1DE
:103E9000D5F86C3493F83134022B09D1652104F63E
:103EA000C85010F000F8632104F608500FF0FBFF33
:103EB000642104F58C500FF0F6FF652104F5955050
:103EC0000FF0F1FF04F59650642118300FF0EBFF6E
:103ED00004F59C50642118300FF0E5FFD5F86C34E0
:103EE000B3F83234DB070FD5FDF7C2FD0121FDF732
:103EF000DBFD2249D5F85C0411F031FCD5F85C04F7
:103F0000036866219B689847D5F8580403686621C2
:103F10009B689847D5F86004036866219B689847BA
:103F200003F04EFE0546FDF7F5F904F5A3531033F3
:103F3000014600932846124A234603F0EDFE4FF057
:103F4000000003B0BDE8F08FD8F8003064219B6812
:103F500040469847D9F8003064219B684846984706
:103F60003B6838469B68642198470BF1010B08F5C4
:103F7000907809F13809C0376BE700BF8E690208F5
:103F8000FD3A00082DE9F04F8DB0CDE908120D1D66
:103F9000044610F033F90368DB689847099B1E1F3D
:103FA00004F58053361AD3F86C34D3F82C34062B2E
:103FB00028BF06230233B6FBF3F6A6F108030493E9
:103FC00010F01CF90368DB689847049B00EB800045
:103FD000984207D210F012F90368DB68984700EBAB
:103FE0008003049304F688030693049B0795083323
:103FF0000A930023A046A146059304F58055D5F801
:104000006C34D5F868240598D2F8A01093F83024C1
:10401000D3F82C34062B28BF06239842C0F05681D3
:1040200004F5885904F560674FF000084FF4907B61
:104030004FF0010AD5F86834D3F8A020D5F86C34D5
:1040400093F83014143A9208002940F0148249463B
:10405000D3F82C34062B28BF0623013B0BFB03F3BC
:1040600003F5E4702344CDE90512D3F8C8312044A8
:104070005B6B9847069A049B0599CDF808A002F15E
:10408000040C08FB0CFCCDE900230CF1040200F148
:104090000803384611F0BCFAFDF73CF9002301464D
:1040A0001A46384611F05DFC08F101083846032134
:1040B00011F0E0FBB8F1040F09F10C0907F1C0079A
:1040C000B8D1012104F5786011F040FCD5F86C34CA
:1040D00093F83034002B40F0D181D5F86831636714
:1040E0004FF00108CDF80880B4F9DA310193B4F942
:1040F000D0317049083B04F608570093B4F9D23127
:104100000422384611F084FAFDF704F90023014631
:104110001A46384611F025FCB4F9D071B4F9D2A191
:1041200010F06CF86FF07F4908370AF1080A019027
:1041300053463A4604F6C8505E49CDF800900FF059
:1041400039FAD5F86834DDE90821D3F8A0304FF00A
:10415000000A0A440521CDE9011A03EBD37304993F
:10416000009104F58C5743FA08F3043A063B521ABF
:1041700038460421FEF788FCFF2204213846FEF76A
:1041800045FD10F03BF8022201463846FEF75DFE81
:10419000D5F86C343846B3F83614FEF744FDD5F83C
:1041A0006C343846B3F83424B3F83614FEF77AFD8D
:1041B00010F024F84049034603223846FEF75BFE20
:1041C000FDF7A8F85346524601463846FEF786FEEC
:1041D000414685F895813846FEF767FE10F00EF8E7
:1041E00004F59557CDE90090534652463846334979
:1041F0000FF0E0F9B5F98A21B5F988115346083274
:10420000083138460FF090FE049BB5F98C21CDF8AB
:1042100008800193B5F990312949043B03EBD3732E
:1042200043FA08F304F5965718370093B5F98A3125
:104230000532384611F0ECF9FDF76CF853460146AB
:104240005246384611F08DFB049BB5F9E422CDF8B7
:1042500008800193B5F9E832009304F59C571837AC
:10426000B5F9E23217490532384611F0D1F9FDF7B8
:1042700051F8524601465346384611F072FBB4F9E4
:104280000E7EB5F98A510FF0B9FF0368DB689847D5
:1042900006460FF0B3FFED1B0422AD1BCDE90090E5
:1042A0000949A01807EB55030FF084F950460DB0EB
:1042B000BDE8F08F286A0208976902089B69020826
:1042C00080690208886902086C7C0208002A14BF11
:1042D000042203220292082208F5E477A1F10803E0
:1042E0000192049A00920620079A91FBF0F19B003C
:1042F00093FBF0F33846FEF7C7FBFF220421384654
:10430000FEF784FC0FF07AFF022201463846FEF7E2
:104310009CFD00213846FEF786FCD5F86C345949DF
:1043200093F83024584B002A08BF19468A460FF0EC
:1043300065FF5146034603223846FEF79CFDFCF715
:10434000E9FF00231A4601463846FEF7C7FDD8F8B4
:10435000C83101215B6C384698479DF81410D5F898
:104360006C0401F036FE83460FF096FE6FF07F433B
:1043700009F1780A009300231A46594601905046E5
:104380000FF018F9022150460FF029FAD9F87830C9
:104390009B691E46D8F8C83138469B6A9847D9F8B9
:1043A00078208346926B5046904700EBD0700BEB21
:1043B000DB734110C1EB6301D8F8C8310B91DB6AA4
:1043C00038469847D8F8C8218346D26B384690477C
:1043D000D9F8783000EBD0700BEB600BDB6B5046FC
:1043E000984700EBD070ABEB60020B99002350466E
:1043F000B047D8F8C83138461B6B9847D8F8C83151
:104400008346DB6A38469847D5F868240B90D2F883
:10441000A030D8F8C8213846126B1E469047D8F80D
:10442000C8118246C96B38468847A6EB0A0A0121A3
:10443000AAF10802CDE901010B9B144906980092EC
:104440000BF1040211F0E4F8FCF764FF00231A46B4
:104450000146069811F085FA059B0A9A01330593E7
:10446000069BC0330693079B134408F5907809F127
:1044700038090793C3E509F13001E9E5D5F878314A
:104480002DE600BF46690208756C020893690208B0
:1044900038B5244B0360044600F59C501830FDF7F6
:1044A00025F804F596501830FDF720F804F59550DE
:1044B000FCF7C8FF04F58C50FDF7A8F84FF48255BF
:1044C000635960191B68C03D9847B5F5546FF7D123
:1044D00004F6C850FCF7B6FF04F60850FDF706F8DE
:1044E00040F64845635960191B68C03D9847B5F5CB
:1044F000F96FF7D14FF4ED65635960191B68A5F5A5
:1045000090759847A82DF7D14FF4C8756359601975
:104510001B68383D9847402DF8D1201DFCF792FFCD
:10452000204638BD507C020808B50248FFF7B0FFAE
:1045300008BD00BFC836002010B50446FFF7A8FF2D
:10454000204641F288411DF006F9204610BD10B505
:104550000021044600F5606011F0F8F904F56C6084
:10456000002111F0F3F904F57860002111F0EEF963
:1045700004F582500021BDE8104011F0E7B90000B9
:104580002DE9F04F00F5805689B0D6F858348B42AB
:1045900004460D4600F00581D6F860348B4200F0E9
:1045A0000081D6F85C348B420BD100237E49D6F8CB
:1045B0006C04079307AA02F0E5FA002009B0BDE8F1
:1045C000F08F00F6085399420DD1D6F86C0490F89C
:1045D000003423B100237549079307AAEBE7744918
:1045E000079307AAE7E7D6F864348B4207D1D3F8DC
:1045F0001021197BD6F86C0402F086FDDDE700F58A
:104600009C53183399420ED1D6F86C0490F820349C
:1046100013B102F099FFD0E790F82124D6F8CC111D
:1046200002F040FFC9E700F596531833994211D0C4
:1046300000F56063994216D000F56C67B94226D048
:1046400000F57867B94224D000F58257B94225D1E8
:1046500003250AE0D6F86C0490F8211481F00101DA
:1046600002F04EFFA9E70F4600252046FFF76FFF37
:104670000121384611F06AF9D6F86C3493F83034D9
:104680004BB905F58B6554F82530636795E701252F
:10469000EBE70225E9E705F25C45F4E700F5E4778E
:1046A00000F6880AB9464FF00008CDF810A0A945D9
:1046B0006ED199F82C305FFA88FB002B3DD0D6F8EC
:1046C0006434D6F86C040593594601F082FCD6F8A0
:1046D0006C3493F83024D9F84C30002A0CBF0322F4
:1046E000042201464FF00200CDE90220314A32484F
:1046F000CDE900203148324A08BF02460598FDF74F
:1047000005FFD6F864B4FCF705FE002301461A46FF
:104710005846FDF792FED6F8640442F21071C0F8D4
:104720000C80FDF7B7FE08F10108B8F1060F09F596
:1047300090790AF1C00ABAD114E03E463046002111
:10474000FEF7B3FB049B06F590769E42F6D100215E
:1047500004F58C50FEF7A9FB01214846FEF7A5FBA6
:1047600084F870B004F58C53AB427FF426AF01217E
:104770002846FEF79AFB062384F87030384600215D
:10478000FEF793FB049B07F590779F42F6D114E761
:104790005545C8D1D6F86C045FFA88F102F086FC62
:1047A000C1E709200AE700BFA3690208A769020858
:1047B000AB690208806967FF80969800756C0208F3
:1047C00046690208F8B50446574B40F8043B0025FB
:1047D000FCF7E2FD2946E563182204F140001FF0D2
:1047E0005FFC2946182204F158001FF059FC0623EB
:1047F00084F870300123636704F1780504F5E476EA
:1048000028463835FCF7C8FDB542F9D104F68806CC
:10481000284605F59075FCF729FEB542F8D104F657
:1048200008562846C035FCF7CBFDB542F9D12846DD
:10483000FCF7C6FD04F6C850FCF7AEFD04F5606554
:1048400004F588562846C035FCF7BAFDB542F9D1C3
:10485000364B03F13006186859682A4603C20833FC
:10486000B3421546F7D1324B04F5805503F1300CB5
:1048700005F598776246186859683E4603C60833BE
:1048800063453746F7D10FCA04F58B5686E80F000B
:10489000284B0FCB05F5B87686E80F0004F58C5051
:1048A000FCF7E4FD04F59550FCF776FD04F5965011
:1048B0001830FCF785FD04F59C501830FCF780FD9E
:1048C000FDF7D6F800F5B2501430C5F85804FDF7DE
:1048D000CFF800F5B8501430C5F85C04FDF7C8F8FF
:1048E00000F5BE501430C5F86004FDF7C1F800F5BE
:1048F000C4501430C5F864040CF0E4FDC5F8680435
:1049000001F0CCFA002385F87C34C5F86C04C5F8B6
:104910007034C5F87434C5F87834C5F88034C5F8F7
:1049200084342046F8BD00BF507C02087C64020835
:10493000AC640208EC64020810B50A4C2368BFF3AB
:104940005B8FDB070CD420461CF007FF40B1064804
:10495000FFF738FF05481EF0EFFA20461CF009FF6C
:10496000014810BDC4360020C83600202945000883
:104970004FF00000704738B50446FDF779F805465A
:10498000FDF794F905F5AF5004F58B5542F210711F
:104990001C3014350FF087FA4FF4FA6128460BF0FB
:1049A000D0FB63681BB9012128460BF03CFE23684D
:1049B00029469B69204698474FF0000038BD10B546
:1049C0000446FDF755F800F5AF501C300FF082FAA1
:1049D00004F50053D3F8B805FDF73AFF04F503508A
:1049E000303005F06FFA04F58B5014300BF0B8FB43
:1049F0004FF0000010BD00002DE9FF470446884637
:104A0000154600F58B560CF05DFD28230222CDE9FA
:104A100000321436D0F8A0304246002130460BF068
:104A2000E1FB0FF0FFFA00231946364A00903046AA
:104A30000BF02DFD0FF0F6FA334A00900023012110
:104A400030460BF024FDFCF765FC002301461A46B6
:104A5000304604F5C7570BF009FE103704F5A6538E
:104A600004F5035210333E4630322121C6E90031AD
:104A70004036964203F12103F8D1FCF74BFC04F5D4
:104A80008059224B0093014622463046204B05F0C8
:104A9000D8F9B9F98631984404F50053083DD3F8A4
:104AA000EC35D3F8A0A00FF0A9FB0368DB689847AA
:104AB000B9F98631CDF80080ED1AA5EB4005002349
:104AC00020223946CDE901A5304605F0ADF9304642
:104AD000002105F027FA04F50C540E4A183411464B
:104AE0000223204605F0C0FAFCF714FC002301461F
:104AF0001A46204605F0B4FA4FF0000004B0BDE8B5
:104B0000F08700BF83750208AF6902086D4F000887
:104B100091510008286A020810B50446FCF71EFCF3
:104B2000012284F82C204FF080714FF0FF32C4E94D
:104B30000D12054B23600023C4E90833A3622363ED
:104B4000A4F84030204610BDE8A5020838B51B4B3C
:104B500003601B4BC0F81833044600F546700FF095
:104B6000C5F9184BC4F8E83204F53A700FF0BEF9F5
:104B70004FF42C75635960191B68383D9847B5F59B
:104B8000B07FF7D14FF4B275635960191B68343D9B
:104B90009847C82DF8D1CC25635960191B68303D62
:104BA00098473C2DF8D12046074B40F8443F0FF082
:104BB0009DF920460FF09AF9204638BD109602085C
:104BC00090A602083CA60208E0A702082DE9F843D7
:104BD000314B036000F50C55044605F5EE7004F505
:104BE0000056FCF783FC05F58E70FCF77FFC2B4B21
:104BF000C6F8D83304F50F5018300FF077F9284F66
:104C0000C6F8A07304F50E5020300FF06FF9254B55
:104C1000C6F8803304F50E500FF068F9DFF888907D
:104C2000C6F8509304F50D5010300FF05FF9DFF81F
:104C30007C80C6F8288304F50C5004F50355283011
:104C40000FF054F905F5B270FCF750FC05F1A40023
:104C5000FCF74CFC04F50450C6F8309130300FF0EE
:104C600045F9C6F8008104F504500FF03FF904F54A
:104C7000C75630351036B54206D0403D284640F87C
:104C8000087F0FF033F9F6E704F58B501430FFF787
:104C90005DFF2046BDE8F883907C0208E8A5020885
:104CA0008CA7020890A602083CA60208E0A702080A
:104CB00008B50248FFF78AFF08BD00BF544B00202B
:104CC00010B50446FFF782FF204642F2F4511CF073
:104CD00042FD204610BD10B50446FFF737FF2046C1
:104CE0004FF44F711CF037FD204610BD13B504463C
:104CF000406818B10CF0AAFB002363600022114643
:104D000004F1080003F0BCF80FF08CF900230090C8
:104D100004F58B50054A194614300BF0B8FBFCF72C
:104D2000A7FE02B0BDE81040FCF7C0BF83750208C3
:104D300038B50D460446FFF7D9FF28460CF082FB34
:104D4000002303706060FCF793FEFCF7AFFF606820
:104D500038BD0000F7B51546002401AA0830089FA9
:104D600001941E4603F0B8F860BB002003B0F0BD0C
:104D70003B2B08BF013101320192019A13780D2BB0
:104D800023D9B942F4D301990B78202B24D0092BD5
:104D900022D00D2B05D842F2014222FA03F3DF079D
:104DA000E3D42A4601392E44B242DFD011F8013F44
:104DB0000D2B14D842F20144DC40E40711D5002346
:104DC0001370D3E72146084CD7E744FA03F3DB0717
:104DD000D9D5B942CFD3D6E701310191D3E73B2BE7
:104DE000EDD002F8013BDFE7FEDBFFFF2DE9F341E9
:104DF0000024009405460E4617469846FFF7AAFF82
:104E0000044630B943463A46314605F1080003F0FE
:104E1000A3F9204602B0BDE8F08137B50225009520
:104E20001446FFF797FF00B9207003B030BDF7B507
:104E30001646002401AA08301F46019403F04CF8DE
:104E4000054648B90025284603B0F0BD3B2900F1CE
:104E5000010008BF01340190019801780A2906D0A9
:104E60000D2904D019B1BC42F0D30D2904D842F267
:104E70000143CB40DB07E5D41EF067F83060E2E782
:104E800010B501231446FFF7D2FF08B901232360B0
:104E900010BD00002DE9F04790B005461822002112
:104EA0000AA81FF0FDF804AF1022002106A81FF089
:104EB000F7F80024012305F5C75605F50358D5F882
:104EC0007C9004947C6002931036A24608F130086E
:104ED0004C4532D01F2C02D110B0BDE8F0872146DE
:104EE00003AA05F10800CDF80CA002F0D8FF1823A2
:104EF00021460AAA2846FFF779FF214602AA28463A
:104F0000FFF7BEFF214608233A462846FFF785FFF4
:104F1000029B009305F500500197039BD0F8F00524
:104F2000102206A901F03EFA314603460AAA40467D
:104F300004F08EFF01344036CAE71F2CCCD005F5B3
:104F4000035605EB8411303601F5C751054B064A6F
:104F50001031304604F07CFF611C304604F0E2FF63
:104F6000BAE700BF286A0208B769020810B504460C
:104F700090B100F58052D2F8AC2152B9C26F914283
:104F800005D2083003F072FD2046FFF783FF0020B2
:104F900010BDFFF7ABFEFAE70220F9E72DE9F0417B
:104FA00000F58B5514358D429AB0044640F0B5801B
:104FB00000F58053D3F8AC31012B40F09A80FCF718
:104FC000A9F90021483010F081F81BF023FB60495B
:104FD0006048002218F0CCFBE8B1002604F5A65288
:104FE0003346103200211F2B7ED9FCF793F904F5CC
:104FF000035400213034483010F030F83146204658
:1050000004F090FF6421204604F0C4FF4FF000003C
:105010001AB0BDE8F08150490DA818F032FF0646DD
:105020000028DAD14D4F02A90DA818F088FF0028FA
:105030004AD19DF81E30002B46D00DF11D0313F808
:10504000012F12B101301528F9D100F1140502AB7E
:10505000A0F103081D44B8F1000F01D1434616E04A
:1050600015F8013D2E2B02D008F1FF38F3E7A878A0
:105070001EF07AFE7328F7D100F010FF90F831345B
:1050800033BB68781EF070FE6D2821D101239DF896
:105090001020D206C7D4002BC5D004EB8611029B8A
:1050A000019308460DF11E0341F6F40241F6F005A6
:1050B000009300F5C7508A5849593B4618300136CD
:1050C0000EF0F3FB202EAED10DA818F021FF85E7DE
:1050D00000F0E4FE90F83134022BC5D168781EF060
:1050E00043FE6C28C0D1D1E703EB431001331154C8
:1050F00079E7436800F50354303453B1FFF7CAFE33
:105100006421204604F046FF002128460BF08BFA6C
:105110007CE7204604F0D6FE78E700F50053D3F88C
:10512000B8358B4209D1D3F81021D968083002F084
:10513000C5FE2046FFF7AEFE68E700F50C541834B4
:10514000A1427FF463AF09F065FC09F05DF95DE70A
:1051500020D20120E8CF0120AF690208C06902080F
:1051600010B503231446FFF762FE08B9014B236014
:1051700010BD00BF806967FF10B504231446FFF718
:1051800056FE08B9014B236010BD00BF8096980001
:105190002DE9F0430D4691B00446002800F05081FF
:1051A00000F58053D3F8AC61002E40F09A8043683C
:1051B00033B3C36F99423CD100F50053D3F8F035B7
:1051C00093F88C33012B1FD8089609F023FC08A90B
:1051D00009F076FA04F1080605460146089A3046B9
:1051E00002F053FE60B1304604F0B2F8D8B1FCF7DB
:1051F0003FFC044609F00EFC01462046FCF730FD5A
:10520000002011B0BDE8F08300F50C548D4A18342D
:1052100002238D49204604F027FF42F210712046F8
:1052200005F022F8ECE704F50C54183402232A4662
:10523000EFE704F51657012305AA08303C37089319
:10524000CDE90566079604F5175802F028FE2023DD
:105250003A4629462046FFF7C9FD08F11C0808AA6E
:1052600029462046FFF70CFE1023424629462046D9
:10527000FFF7D3FD06AA29462046FFF771FF07AACC
:1052800029462046FFF778FF089B0A22092B24DCD9
:105290000123CDE90263079B019304F50059069BA6
:1052A00000934246059BD9F8B8053946FDF72EF91B
:1052B000D9F8B865FCF72EF8002301461A463046A7
:1052C000FDF7BBF8D9F8B80542F21071C560FDF7DB
:1052D000E1F82046FFF7DEFD92E7013693FBF2F39B
:1052E000D4E708AE5949202230461EF000FF304670
:1052F000FAF780FFAF0104EB851505F5C7553118A6
:105300000023C0F1200010352A68D25CCA54002A5C
:1053100076D10DF13F03002213F80119202973D92A
:10532000DFF82C9101223146484618F061FA054613
:10533000002861D1D9F80C3003F1010809F06AFBAB
:1053400009F062F841462046FFF7F2FC002871D0D0
:1053500042466168069506AB484618F04DFB069B31
:105360006268D55404F1080642466168304602F08E
:1053700087FD079509F04EFB07A909F0A1F9079AE7
:1053800001468046304602F080FD304604F00DFBB9
:1053900000283DD041F6F0032744F95804F5A55301
:1053A0000F334A5D03F8012F22B12E2A02D00135B6
:1053B000202DF6D1254441F2B0470026EE550EF0DF
:1053C00031FE04F58B5514353346E2193146009011
:1053D00028460BF05CF82046FFF75CFD04F503500F
:1053E0006421303004F0D6FD314628460BF01BF91D
:1053F00009F010FB09F008F8154818F018FCFFE652
:105400000133984280D184E7B3425A7084D187E750
:10541000204604F50C54FFF769FC18340223424679
:105420000949204604F020FE42F21071204604F0A3
:105430001BFFE1E704F50C54064A18340223EFE79A
:105440000220DEE6CC690208B2720208F76902089F
:10545000B8CD0120006A02082DE9F84F00F580540C
:105460000025D24B03600646C0E90455C0E91D552E
:10547000C0E91F55C0E92155CD49456085617822B5
:1054800004F12C001EF07BFF2946D02204F1A40079
:105490001EF006FEC74BC4F8A830022384F8AC30D7
:1054A000C54BC4F8B0300C2384F8B430C34BC4F8F7
:1054B000B8300E2384F8BC30C14BC4F8C03013237D
:1054C00084F8C430BF4BC4F8C830072384F8CC300C
:1054D000BD4BC4F8D030112384F8D430BB4BC4F892
:1054E000D830122384F8DC30B94BC4F8E0300923FB
:1054F00084F8E430B74BC4F8E830062384F8EC3085
:10550000B54BC4F8F0300A2384F8F430B34BC4F838
:10551000F8300B2384F8FC30B14BC4F8003105237C
:1055200084F80431AF4BC4F80831032384F80C31FC
:10553000AD4BC4F81031042384F81431AB4BC4F8DC
:105540001831142384F81C31A94BC4F820311523D9
:1055500084F82431A74BC4F828310D2384F82C316A
:10556000A54BC4F83031012384F83431A34BC4F87F
:105570003831082384F83C31A14BC4F840310F2363
:1055800084F844319F4BC4F84831102384F84C31DF
:105590009D4BC4F85031162384F854319B4BC4F80A
:1055A000583106F58B5A172384F85C310AF1140A36
:1055B000974BC4F860315046FBF7D0FE954BC4F8CA
:1055C0007431954BDFF85C82C4F89C516FF07F42D8
:1055D000C4E96823914B06F58D50C4E96A35C4E9E6
:1055E0006555C4E96C551830FBF7B8FEC4E976552B
:1055F000C4F8B88106F58F50FBF7BEFE06F5905053
:105600001030FBF7B9FE06F59250FBF7B5FE06F534
:10561000935706F59859103709F10C094FF0FF3BE5
:105620003846FBF79BFE7E4B3B6087F82050C7F85F
:105630002CB087F83050C7E909553437B945EFD158
:1056400006F5A2571C374846FBF7A6FE09F13800BD
:1056500009F17009FBF7A0FE4F45F4D10AF53A7045
:10566000FBF78AFE06F5A450DFF8BC910C30FBF77F
:1056700075FEC4F88C940BF025FF4FF48462C4F8D7
:10568000AC04002104F59A601EF00AFD06F5C7542B
:1056900006F5035718343837002544E902552046EB
:1056A0004034FBF779FEA742F7D106F5005406F522
:1056B0000357C4E93C55C4E93E5506F50450FBF7D1
:1056C0004DFEC4E94855C4E94A55C4F8008107F1C4
:1056D0007000FBF751FEC4F8605107F1A400FBF71E
:1056E0006FFE07F5B270FBF76BFE0BF0EBFE0123CC
:1056F000C4E9B90506F50C5084F8243306F50C57B7
:10570000C4E9BB55C4E9BE55C4E9C055C4E9C45594
:10571000C4E9C65584F8F452C4F8085384F80C530D
:10572000C4F820532830FBF719FEC4E9D255C4F859
:10573000288307F15000FBF71FFE06F50E50FBF71C
:105740000DFEC4F8809307F1A000FBF725FE07F1DA
:10575000D800FFF7E1F907F58E70FBF731FE07F58A
:10576000EE70FBF72DFE0BF0ADFEC4F8A055C4F8AB
:105770009C05C4F8A455C4F8A85584F8AC55C4F8E1
:10578000B055C4F8B455FCF773F900F5C4501430A3
:10579000C4F8B8050BF096FEC4F8EC0500F07EFBEB
:1057A000C4F8F0053046BDE8F88F00BF907C0208D1
:1057B000FC640208296A0208366A02084C6A020878
:1057C000616A0208786A02088A6A02089C6A02080A
:1057D000B46A0208CC6A0208E46A0208F76A02089E
:1057E000166B02082A6B02083A6B0208496B020822
:1057F000566B0208866B0208956B0208A46B0208C0
:10580000BB6B0208CE6B0208E76B0208F86B02085C
:10581000086C02081096020880808000404040001A
:10582000949D0208E0A7020890A6020810B50A4C51
:105830002368BFF35B8FDB070CD420461BF08DFF82
:1058400040B10648FFF708FE05481DF075FB2046ED
:105850001BF08FFF014810BD504B0020544B00201F
:10586000B14C00084FF0000070474FF00000704747
:105870004FF00000704708B5806E03210CF0FAF974
:105880004FF0000008BD000061B990F8313083F09E
:10589000010380F83130012213B103490CF012BF2B
:1058A0000249FBE7704700BF000000201400002001
:1058B00010B5034B036004460EF018FB204610BDE4
:1058C000949D020810B50446FFF7F2FF20463421EC
:1058D0001BF041FF204610BD10B5034B036004468A
:1058E000FBF720FD204610BDB47C020808B5024835
:1058F000FFF7F2FF08BD00BF3C72002010B5044660
:10590000FFF7EAFF20466C211BF025FF204610BD63
:1059100070B51E4E3568BFF35B8F15F0010532D1AF
:1059200030461BF01AFF70B3194C1A4B2046102258
:1059300040F8043B02212B460FF0E1F92A462946A4
:105940002B4604F124000FF0DAF9134BE564C4E9A7
:1059500015344FF48063A4F85E30022384F860307D
:105960000E4B63660E4B2360C4E9115584F850500A
:1059700084F85C500BF0A6FDA0660A481DF0DCFA26
:1059800030461BF0F6FE024870BD00BF38720020A2
:105990003C72002050100308D14A0108586C0208DC
:1059A000B47C0208ED58000838B5002301608380FC
:1059B000837104460BF086FDA0601DF0FDFA0625FC
:1059C00090FBF5F303FB1500013020711DF0F4FA94
:1059D00090FBF5F303FB1500013001236071A37107
:1059E000204638BD2DE9F0410446006803681B6B72
:1059F00098470646206803689B6A984707462068D0
:105A000003685B6B9847054620680368DB6A984724
:105A100094F904202B18F01900EBD07003EBD3732A
:105A200012EB60004FEA6303114604D4A568D5F871
:105A3000A050A84202DB52422271002194F90500D5
:105A4000C318024604D4A568D5F8A450AB4202DBC3
:105A5000404260710022206803689C690123A446CB
:105A6000BDE8F0416047000038B504461D46084BCC
:105A70000CF002FE074B236084F8315025B904492D
:105A80002A4620460CF01EFE01236375204638BDD1
:105A900000000020E07C02082DE9F0430022ADF573
:105AA000177D05461146012343A8FFF7DDFFAB6EC6
:105AB000BDF91E11D3F8A420BDF91C01DFF86482E2
:105AC000521AD3F8A010091A02EBD27201EBD1716D
:105AD00000235210491043A80EF026FA4FF0FF168B
