:020000040800F2
:100000000000022055D90108ADD00108AFD0010889
:10001000B1D00108B3D00108B5D00108000000003C
:10002000000000000000000000000000B1C2010854
:10003000B7D001080000000041C30108B9D0010891
:10004000A5D90108A5D90108A5D90108A5D9010894
:10005000A5D90108A5D90108A5D90108A5D9010884
:10006000A5D90108A5D90108A5D90108A5D9010874
:10007000A5D90108A5D90108A5D90108A5D9010864
:10008000A5D90108A5D90108A5D9010800000000DB
:10009000000000000000000000000000A5D90108D9
:1000A000A5D90108A5D90108A5D90108A5D9010834
:1000B000A5D90108A5D90108A5D90108A5D9010824
:1000C000A5D90108A5D90108A5D90108A5D9010814
:1000D000A5D90108D1D00108A5D901080000000068
:1000E000A5D90108A5D90108A5D90108000000007B
:1000F000000000000000000000000000A5D9010879
:1001000000000000DDD00108A5D90108A5D901082B
:1001100000000000000000000000000000000000DF
:10012000A5D90108A5D90108E9D00108F5D0010831
:10013000A5D9010800000000000000000000000038
:1001400000000000000000000000000001D10108D4
:100150000DD10108A5D9010819D10108A5D90108B7
:10016000A5D90108A5D90108000000000000000081
:10017000000000000000000000000000000000007F
:1001800000000000A5D901080000000000000000E8
:08019000A5D90108A5D9010859
:1001A00010B5054C237833B9044B13B10448AFF3B1
:1001B00000800123237010BD5003002000000000C8
:1001C0002426020808B5034B1BB103490348AFF3CB
:1001D000008008BD0000000054030020242602080F
:1001E00010F8012B11F8013B012A28BF9A42F7D0E1
:1001F000D01A7047034613F8012B002AFBD1181AB6
:1002000001387047000000000000000000000000FE
:1002100001F0FF01102A2BDB10F0070F08D010F8B7
:10022000013B013A8B422DD010F0070F42B3F6D1BB
:10023000F0B441EA012141EA014122F007047FF0D4
:1002400000070023F0E80256083C85EA010586EA2B
:10025000010685FA47F5A3FA87F586FA47F6A5FA67
:1002600087F68EB9EED1F0BC01F0FF0102F0070273
:1002700032B110F8013B013A83EA010313B1F8D11E
:100280000020704701387047002D06BF35460338FF
:10029000073815F0010F07D1013015F4807F02BF38
:1002A000013015F4C03F0130F0BC0138704700BF89
:1002B00081F0004102E000BF83F0004330B54FEA17
:1002C00041044FEA430594EA050F08BF90EA020F84
:1002D0001FBF54EA000C55EA020C7FEA645C7FEA17
:1002E000655C00F0E2804FEA5454D4EB5555B8BF3A
:1002F0006D420CDD2C4480EA020281EA030382EAAB
:10030000000083EA010180EA020281EA0303362D3C
:1003100088BF30BD11F0004F4FEA01314FF4801C0F
:100320004CEA113102D0404261EB410113F0004F21
:100330004FEA03334CEA133302D0524263EB4303D8
:1003400094EA050F00F0A780A4F10104D5F1200E76
:100350000DDB02FA0EFC22FA05F2801841F10001D1
:1003600003FA0EF2801843FA05F359410EE0A5F1A5
:1003700020050EF1200E012A03FA0EFC28BF4CF0D6
:10038000020C43FA05F3C01851EBE37101F000458C
:1003900007D54FF0000EDCF1000C7EEB00006EEB99
:1003A0000101B1F5801F1BD3B1F5001F0CD3490823
:1003B0005FEA30004FEA3C0C04F101044FEA44527A
:1003C00012F5800F80F09A80BCF1004F08BF5FEA01
:1003D000500C50F1000041EB045141EA050130BDE1
:1003E0005FEA4C0C404141EB0101013C28BFB1F5F3
:1003F000801FE9D291F0000F04BF01460020B1FA3E
:1004000081F308BF2033A3F10B03B3F120020CDA10
:100410000C3208DD02F1140CC2F10C0201FA0CF0EE
:1004200021FA02F10CE002F11402D8BFC2F1200C53
:1004300001FA02F120FA0CFCDCBF41EA0C01904009
:10044000E41AA2BF01EB0451294330BD6FEA040452
:100450001F3C1CDA0C340EDC04F11404C4F120023D
:1004600020FA04F001FA02F340EA030021FA04F34F
:1004700045EA030130BDC4F10C04C4F1200220FAA6
:1004800002F001FA04F340EA0300294630BD21FAE4
:1004900004F0294630BD94F0000F83F4801306BFAA
:1004A00081F480110134013D4EE77FEA645C18BF9E
:1004B0007FEA655C29D094EA050F08BF90EA020F35
:1004C00005D054EA000C04BF1946104630BD91EA2D
:1004D000030F1EBF0021002030BD5FEA545C05D130
:1004E0004000494128BF41F0004130BD14F580046F
:1004F0003CBF01F5801130BD01F0004545F0FE41E3
:1005000041F470014FF0000030BD7FEA645C1ABF17
:10051000194610467FEA655C1CBF0B46024650EA4E
:10052000013406BF52EA033591EA030F41F400217A
:1005300030BD00BF90F0000F04BF0021704730B500
:100540004FF4806404F132044FF000054FF00001D5
:1005500050E700BF90F0000F04BF0021704730B596
:100560004FF4806404F1320410F0004548BF40426B
:100570004FF000013EE700BF42004FEAE2014FEAC0
:1005800031014FEA02701FBF12F07F4393F07F4F9B
:1005900081F06051704732F07F4208BF704793F09E
:1005A0007F4F04BF41F40021704730B54FF46074B1
:1005B00001F0004521F000411CE700BF50EA0102B4
:1005C00008BF704730B54FF000050AE050EA01025D
:1005D00008BF704730B511F0004502D5404261EBCD
:1005E00041014FF4806404F132045FEA915C3FF40E
:1005F000D8AE4FF003025FEADC0C18BF03325FEAAB
:10060000DC0C18BF033202EBDC02C2F1200300FA5B
:1006100003FC20FA02F001FA03FE40EA0E0021FA80
:1006200002F11444BDE600BF70B54FF0FF0C4CF46E
:10063000E06C1CEA11541DBF1CEA135594EA0C0F20
:1006400095EA0C0F00F0DEF82C4481EA030621EA5B
:100650004C5123EA4C5350EA013518BF52EA033596
:1006600041F4801143F4801338D0A0FB02CE4FF048
:100670000005E1FB02E506F00042E0FB03E54FF078
:100680000006E1FB03569CF0000F18BF4EF0010E70
:10069000A4F1FF04B6F5007F64F5407404D25FEA6C
:1006A0004E0E6D4146EB060642EAC62141EA55511F
:1006B0004FEAC52040EA5E504FEACE2EB4F1FD0C61
:1006C00088BFBCF5E06F1ED8BEF1004F08BF5FEADF
:1006D000500E50F1000041EB045170BD06F0004691
:1006E00046EA010140EA020081EA0301B4EB5C043E
:1006F000C2BFD4EB0C0541EA045170BD41F4801136
:100700004FF0000E013C00F3AB8014F1360FDEBF5A
:10071000002001F0004170BDC4F10004203C35DA36
:100720000C341BDC04F11404C4F1200500FA05F3B9
:1007300020FA04F001FA05F240EA020001F000425A
:1007400021F0004110EBD37021FA04F642EB0601D0
:100750005EEA430E08BF20EAD37070BDC4F10C04FA
:10076000C4F1200500FA04F320FA05F001FA04F2BE
:1007700040EA020001F0004110EBD37041F10001AA
:100780005EEA430E08BF20EAD37070BDC4F12005B5
:1007900000FA05F24EEA020E20FA04F301FA05F21D
:1007A00043EA020321FA04F001F0004121FA04F2C5
:1007B00020EA020000EBD3705EEA430E08BF20EA95
:1007C000D37070BD94F0000F0FD101F000464000CF
:1007D00041EB010111F4801F08BF013CF7D041EA51
:1007E000060195F0000F18BF704703F00046520055
:1007F00043EB030313F4801F08BF013DF7D043EA26
:100800000603704794EA0C0F0CEA135518BF95EADB
:100810000C0F0CD050EA410618BF52EA4306D1D162
:1008200081EA030101F000414FF0000070BD50EA81
:10083000410606BF1046194652EA430619D094EA0B
:100840000C0F02D150EA013613D195EA0C0F05D1F5
:1008500052EA03361CBF104619460AD181EA030149
:1008600001F0004141F0FE4141F470014FF0000001
:1008700070BD41F0FE4141F4780170BD70B54FF09C
:10088000FF0C4CF4E06C1CEA11541DBF1CEA13551C
:1008900094EA0C0F95EA0C0F00F0A7F8A4EB0504FE
:1008A00081EA030E52EA03354FEA013100F08880F5
:1008B0004FEA03334FF0805545EA131343EA1263BE
:1008C0004FEA022245EA111545EA10654FEA002673
:1008D0000EF000419D4208BF964244F1FD0404F52C
:1008E000407402D25B084FEA3202B61A65EB030588
:1008F0005B084FEA32024FF480104FF4002CB6EB45
:10090000020E75EB030E22BFB61A754640EA0C00C4
:100910005B084FEA3202B6EB020E75EB030E22BF04
:10092000B61A754640EA5C005B084FEA3202B6EB45
:10093000020E75EB030E22BFB61A754640EA9C0004
:100940005B084FEA3202B6EB020E75EB030E22BFD4
:10095000B61A754640EADC0055EA060E18D04FEA92
:10096000051545EA16754FEA06164FEAC30343EA32
:1009700052734FEAC2025FEA1C1CC0D111F4801FFF
:100980000BD141EA00014FF000004FF0004CB6E7F8
:1009900011F4801F04BF01430020B4F1FD0C88BF97
:1009A000BCF5E06F3FF6AFAEB5EB030C04BFB6EBA2
:1009B000020C5FEA500C50F1000041EB045170BD95
:1009C0000EF0004E4EEA113114EB5C04C2BFD4EBC2
:1009D0000C0541EA045170BD41F480114FF0000E46
:1009E000013C90E645EA060E8DE60CEA135594EAC2
:1009F0000C0F08BF95EA0C0F3FF43BAF94EA0C0FC5
:100A00000AD150EA01347FF434AF95EA0C0F7FF439
:100A100025AF104619462CE795EA0C0F06D152EA8D
:100A200003353FF4FDAE1046194622E750EA410671
:100A300018BF52EA43067FF4C5AE50EA41047FF482
:100A40000DAF52EA43057FF4EBAE12E74FF0FF3CE7
:100A500006E000BF4FF0010C02E000BF4FF0010CB8
:100A60004DF804CD4FEA410C7FEA6C5C4FEA430C31
:100A700018BF7FEA6C5C1BD001B050EA410C0CBF80
:100A800052EA430C91EA030F02BF90EA020F0020E2
:100A9000704710F1000F91EA030F58BF994208BF49
:100AA00090422CBFD8176FEAE37040F00100704706
:100AB0004FEA410C7FEA6C5C02D150EA013C07D15D
:100AC0004FEA430C7FEA6C5CD6D152EA033CD3D0A8
:100AD0005DF8040B704700BF8446104662468C46A2
:100AE0001946634600E000BF01B5FFF7B7FF0028D5
:100AF00048BF10F1000F01BD4DF808EDFFF7F4FFFE
:100B00000CBF012000205DF808FB00BF4DF808ED88
:100B1000FFF7EAFF34BF012000205DF808FB00BFAB
:100B20004DF808EDFFF7E0FF94BF012000205DF8CD
:100B300008FB00BF4DF808EDFFF7CEFF94BF012082
:100B400000205DF808FB00BF4DF808EDFFF7C4FF7B
:100B500034BF012000205DF808FB00BF4FEA410CC4
:100B60007FEA6C5C02D150EA013C0AD14FEA430CA7
:100B70007FEA6C5C02D152EA033C02D14FF00000E4
:100B800070474FF0010070474FEA410212F5001222
:100B900015D211D56FF47873B3EB625212D94FEAC4
:100BA000C12343F0004343EA505311F0004F23FAAE
:100BB00002F018BF404270474FF00000704750EA03
:100BC000013005D111F0004008BF6FF000407047C0
:100BD0004FF00000704700BF4A0011D212F500121A
:100BE00011D20DD56FF47873B3EB62520ED44FEA85
:100BF000C12343F0004343EA505323FA02F0704705
:100C00004FF00000704750EA013002D14FF0FF3042
:100C100070474FF0000070474FEA4102B2F1E043E5
:100C200024BFB3F5001CDCF1FE5C0DD901F0004CD3
:100C30004FEAC0024CEA5070B2F1004F40EB830023
:100C400008BF20F00100704711F0804F21D113F14F
:100C50003872BCBF01F00040704741F480114FEA88
:100C60005252C2F11802C2F1200C10FA0CF320FA11
:100C700002F018BF40F001004FEAC1234FEAD3232E
:100C800003FA0CFC40EA0C0023FA02F34FEA430398
:100C9000CCE77FEA625307D150EA01331EBF4FF021
:100CA000FE4040F44000704701F0004040F0FE403C
:100CB00040F40000704700BF53B94AB9002908BF8B
:100CC00000281CBF4FF0FF314FF0FF3000F0A0B9FB
:100CD000ADF1080C6DE904CE00F03CF8DDF804E05D
:100CE000DDE9022304B0704738B500220023044632
:100CF0000D46FFF70BFF28B920462946BDE83840CE
:100D000000F00AB8204605F1004100F005F8404225
:100D100061EB410138BD00BFD0B50C4B0022064647
:100D20000F46FFF781FCFFF757FF0446FFF702FC71
:100D3000074B0022FFF778FC02460B463046394647
:100D4000FFF7BAFAFFF748FF2146D0BD0000F03D9B
:100D50000000F0412DE9F047089D0C46002B4ED1D4
:100D600094468C458646B2FA82F262D94AB1C2F103
:100D70002003914020FA03F30CFA02FC194300FA15
:100D800002FE4FEA1C471FFA8CF6B1FBF7F44FEA5C
:100D90001E4307FB141143EA014304FB06F1994289
:100DA0000AD91CEB030304F1FF3080F01281994251
:100DB00040F20F81023C6344591A1FFA8EF3B1FBD3
:100DC000F7F007FB101143EA014300FB06F69E42D1
:100DD0000AD91CEB030300F1FF3180F0FC809E4236
:100DE00040F2F980634402389B1B40EA0440002132
:100DF0001DB1D3400022C5E90032BDE8F0878B4227
:100E000005D90DB1C5E9000100210846F5E7B3FA9F
:100E100083F1002946D1A34202D39042C0F0F08072
:100E2000861A64EB03030120002DE6D0C5E90063B8
:100E3000E3E7002A40F09080A1EB0C044FEA1C4845
:100E40001FFA8CF70121B4FBF8F64FEA1E4308FBAA
:100E5000164443EA044307FB06F0984208D91CEB0A
:100E6000030306F1FF3402D2984200F2CD802646F9
:100E70001C1A1FFA8EF3B4FBF8F008FB104443EA87
:100E8000044300FB07F79F4208D91CEB030300F162
:100E9000FF3402D29F4200F2B0802046DB1B40EAC2
:100EA0000640A5E7C1F120068B4022FA06F71F4352
:100EB00020FA06FC04FA01F343EA0C03F44000FABA
:100EC00001F8380C4FEA1349B4FBF0FE1FFA87FC17
:100ED00000FB1E4449EA04440EFB0CF9A14502FA4A
:100EE00001F20AD93C190EF1FF3A80F08480A14545
:100EF00040F28180AEF1020E3C44A4EB09041FFADB
:100F000083F9B4FBF0F300FB134449EA044403FB08
:100F10000CFCA44507D93C1903F1FF3067D2A44566
:100F200065D9023B3C4443EA0E40A0FB0293A4EB8C
:100F30000C049C42CE469C4651D34ED055B1B8EBE2
:100F40000E0364EB0C0404FA06F6CB401E43CC40BF
:100F5000C5E90064002150E7C2F1200320FA03F143
:100F60000CFA02FC24FA03F394400C434FEA1C48A9
:100F700000FA02FE1FFA8CF7B3FBF8F008FB103101
:100F8000230C43EA014300FB07F1994208D91CEB0B
:100F9000030300F1FF362CD299422AD90238634468
:100FA0005B1AA4B2B3FBF8F108FB113344EA034423
:100FB00001FB07F3A34208D91CEB040401F1FF363F
:100FC00013D2A34211D902396444E41A41EA004120
:100FD00039E70446F0E6084606E7C845AED2B9EB65
:100FE000020E63EB070C0138A8E73146EDE7034634
:100FF00099E73046D4E7D6467FE7634402384DE7A9
:101000000646234608460FE7023E634430E700BF2A
:10101000704700BF03798B4228BF0431C91AC9B297
:101020004171704708B503681B699847B0FA80F0B2
:10103000400908BD10B507F087F9204907F0A6F967
:101040000DF01CF81E490DF0D7F80DF017F81D49EA
:101050000DF016F90DF012F803681B68984710F0B0
:1010600069FF036818495B6A984705F085FA1749D4
:10107000002205F0DFFA05F07FFA03681B68984745
:101080001348FFF7CFFF30B10CF050FA0368BDE80A
:1010900010401B6818470F48FFF7C4FF10B103F05A
:1010A000F7F9F3E703F0A4FC0B4B836603F0A0FC15
:1010B00003681B68984700F0BBFAE7E76C03002061
:1010C000A40300208403002084DC01203CDC0120F8
:1010D0008804002078040020D003002000BEFEE732
:1010E000704700002DE9F0473D4ADFF840913D4F41
:1010F0003D4BBA601021C9E902210822FA603B4A3F
:101100003B49916000244FF48060C2E90034D06014
:10111000DFF81C81374ADFF81CA1C9F8003001252F
:10112000C8E90035C7E90035C2E900340223D360BD
:101130004FF06413CAF804302F4B304ECAF8003019
:101140002F4BCAF808304FF0051373602D4B3360F6
:1011500006F10C002C4B9160C8E90215C9F8045047
:10116000B36010F09DFB294B294A1A60294AC3F845
:101170008420A3F88840284B284818604FF4F07268
:1011800027481C760321C3E901124FF4A071C3E97B
:10119000031259610571C180224D0281C3E907A97B
:1011A000C3E909872146204B03604471C66004747B
:1011B000C0F81240C0F81640C0F81A40FFF72AFFE6
:1011C0004FF400404023C5E900034220C5E903462F
:1011D0002C726C610CF0FCFEE860BDE8F08700BF8B
:1011E000000002409804002008CB02088804002078
:1011F000000402407804002078CB02085C04002040
:10120000E0DB01202CCB020844DA0120D0030020CF
:10121000C8CB02088CDD0120A4030020DC580208A2
:10122000840300206C030020B4580208B804002096
:10123000A80400206C04002008B5074BD86810B142
:1012400001211CF0B0FB0548054B40F80C3BBDE804
:10125000084010F02FBB00BF6C0300205C0400208E
:101260002CCB02084FF00000704700F5805090F83A
:10127000E008002818BF0320704710F0B9B9F8B58E
:101280000446002840D00E784F7826BB00F5BA55AA
:10129000EB680C351B692846984760B32B682846D5
:1012A0001B6C984738B3DFB10121284611F08AF949
:1012B000062E1ED103F09CFB90F86F3304F5AD545D
:1012C0001434DBB103F094FB03F04AFD0021204607
:1012D00011F078F90DE0012E0DD100F5C055D7E7DA
:1012E0003946284611F06EF923682946DB69204605
:1012F00098470020F8BD002FDAD1FAE703F078FB19
:1013000003F0F8FC0121E2E70120F3E710B5074BF9
:10131000044640F8483B10F0C9FC04F1240010F0EA
:101320001BFB201D10F018FB204610BDFCCB020853
:1013300010B50446FFF7EAFF204668211CF033FB96
:10134000204610BD054A02600022C0E90122C0E922
:101350000322C0E90522C261704700BFDC630208B6
:1013600010B50446FFF7EEFF064B23600122002371
:1013700084F82C20C4E90833A362236384F8343052
:10138000204610BD306302082DE9F8430446FFF7FC
:10139000D9FF1C4B236000256FF07F43DFF8689076
:1013A00023634FF001084FF080774FF0FF36C4E918
:1013B0000855C4E90A55A58604F13800FFF7C2FFB5
:1013C000C4E91655C4E91B76C4F83890256684F83C
:1013D0006480A566A4F8785004F17C00FFF7B2FFA2
:1013E000C4E92B5784F8A880C4E92755C4F87C9039
:1013F000C4F8A450C4F8B460A4F8BC502046BDE8BA
:10140000F88300BF64CC02088C6102082DE9F84320
:1014100005460026FFF796FFC5E90866C5E90A6696
:10142000354BDFF8E4902B602E6305F1340405F5AD
:101430005D774FF0FF382046FFF784FFC4F8009037
:1014400084F82060C4F82C8084F83060C4E9096610
:101450003434BC42EFD105F2F46620463834FFF74D
:101460007FFFB442F9D105F5975614362046C034B3
:10147000FFF78AFFB442F9D1204605F580540026D3
:10148000FFF760FF1D4BC4F8F43205F59850C4F81F
:1014900014631830FFF778FF05F59E501830FFF7FA
:1014A00073FF05F5A4501830FFF74CFF144BC4F838
:1014B000983405F5A650C4F8B864C4F8BC6484F840
:1014C000C064C4F8C4640830FFF73CFF0D4BC4F897
:1014D000C834C4F8E864C4F8EC64C4F8F06484F870
:1014E000F464C4F8F864C4F8FC640CF0C7FDC4F8F4
:1014F00000052846BDE8F883B03C0208886202086F
:10150000E06102083462020838590208434B70B5A2
:1015100010220446222140F8043B002310F041FA37
:1015200000230822202104F1240010F03AFA04F5E7
:10153000C753002663641423C4E91263384B84F84C
:101540005060C4E915344FF48063A4F85E30022380
:1015500084F860302046334B6366334B84F85C601C
:101560004022314640F8683B1EF0B6FEC4E92A66C8
:1015700004F1B000FFF74AFF04F5AD501430FFF757
:1015800003FF04F5B35004F580551430FFF7DAFE7D
:10159000264BC5F8743604F5B550C5F89466C5F801
:1015A000986685F89C66C5F8A0660430FFF7D8FEFB
:1015B00004F5B6501C30FFF7D3FE04F5B8501430D4
:1015C000FFF7CEFE04F5BA500C30FFF7DDFE04F550
:1015D000C0500C30FFF7D8FE032385F8CC380CF050
:1015E0004DFDC5F8D00804F0C7FFC5F8D40803F0D6
:1015F000FFF9C5F8D80806F0A7FE85F8F468C5F825
:10160000DC08C5F8E868C5F8EC68C5F8F068C5F806
:10161000F868C5F8FC68204670BD00BFFCCB020826
:10162000751701089C2A0208142B0208E0610208C1
:1016300010B50A4C2368BFF35B8FDB070CD4204640
:101640001CF0B3F940B10648FFF760FF05481DF0F4
:10165000ABFD20461CF0B5F9014810BDC8040020C0
:10166000CC040020192000082DE9F04F00F5805728
:1016700085B0D7F8D038DFF8B490D3F8A4A00446EA
:1016800000F5BA580FF01CFC0368DB689847D7F8E0
:10169000D038D3F8A02002EBD272561005460FF0D6
:1016A0000FFC0368DB68984708F10C084FF0010B4A
:1016B000043E05EB450500EB4000AAEB0503494657
:1016C0000022CDE90060CDF808B0404610F02CFEB5
:1016D0001AF06AFA1AF03AF9002301461A4640460F
:1016E00010F07BFFD7F8D038B7F95C27D3F8A010FB
:1016F000CDF808B0B7F95E37CDE9002304F5C05442
:101700000C34B7F956378A1A2046494610F00CFEB9
:101710001AF04AFA1AF01AF9002301461A4620462E
:1017200005B0BDE8F04F10F058BF00BF29340208E3
:10173000034603F5805300F5BA50D3F8D83893F830
:101740008C33022B0CBF024902490C3010F042BE10
:10175000A82A0208AD2A020800F58052D2F8D8283B
:1017600092F88C23012A05D121B100F5BA500C3032
:1017700010F030BEFFF7DCBF00F5805300F5C0501D
:10178000D3F8D83893F88C33052B00F10C0002D134
:10179000034910F01FBE0BB90249FAE70249F8E706
:1017A000B12A0208893B0208AA38020800F58052D3
:1017B000D2F8D82892F88C23012A05D121B100F55E
:1017C000C0500C3010F006BEFFF7D6BF70B500F168
:1017D00064030446002553F8042F8A4218D1D4F834
:1017E000AC301A3354F8230003681B69984704F19E
:1017F000B000C4F8AC50294604F0B8FDD4F8AC30C1
:101800001A3354F823000368BDE87040DB681847BA
:101810000135102DDFD170BDD0F8AC301A3370B562
:10182000044650F8230003680D461B69984704F1ED
:10183000B000C4F8AC50294604F098FDD4F8AC30A0
:101840001A3354F823000368BDE87040DB6818477A
:1018500070B500F5AD5614368E4204460D4613D1D0
:1018600000F58054D4F8D80890F86F3343B103F0F2
:1018700077FA0021304610F0A5FE4FF0000070BD51
:1018800003F038FA0121F5E700F1B003994204D1E1
:1018900090F8DC10FFF7C0FFEFE7D0F8AC301A3358
:1018A00050F8230003689B699847C0B20828E4D128
:1018B00004F5BA530C339D420CD104F58054D4F88E
:1018C000D80890F88C33022B14BF8121822103F0B9
:1018D00001FAD2E704F5C0530C339D42CDD104F593
:1018E0008054D4F8D80890F88C33052B02D103F03B
:1018F0008BFEC2E7D0F884232BB980F87133C0F88F
:1019000088231821E3E7002380F87133C0F8882387
:101910001921DCE7F7B5044600F1B00504F580565F
:10192000284604F0AEFB28221021D6F8D038CDE9A5
:10193000002100221146D3F8A0300027284604F0E9
:101940002BFDC4F8A8700FF009FA39460346684A1F
:10195000284604F09DFC674AD4F8A810284604F0F5
:101960002FFCD4F8A8707B1CC4F8A83002F080FCCF
:101970001A3744F82700D4F8A8700FF0EFF9394669
:101980005D4A0346284604F083FCD4F8A8707B1C0B
:10199000C4F8A83007F054F91A3744F82700D4F8EF
:1019A000A8700FF0DBF939460346544A284604F084
:1019B0006FFCD4F8A8707B1CC4F8A83001F03EFE80
:1019C0001A37D6F8D83844F8270093F8FD33CBB946
:1019D000D4F8A8700FF0C2F939460346484A2846A1
:1019E00004F056FC474AD4F8A810284604F0E8FB57
:1019F000D4F8A8707B1CC4F8A8300AF017FD1A3779
:101A000044F82700D4F8A8700FF0A8F93946034627
:101A10003D4A284604F03CFCD4F8A8707B1CC4F86E
:101A2000A83009F0D5FE1A37D6F8D83844F8270080
:101A300093F8FD3363BBD4F8A8700FF08FF93946E3
:101A40000346324A284604F023FCD4F8A8707B1CD5
:101A5000C4F8A83008F062F91A37D6F8D83844F834
:101A6000270093F8FD339BB9D4F8A8700FF076F9EE
:101A700039460346264A284604F00AFCD4F8A870E2
:101A80007B1CC4F8A83005F03FFF1A3744F8270044
:101A9000D4F8A8700FF062F939461E4A034628466A
:101AA00004F0F6FBD4F8A8707B1CC4F8A8300BF047
:101AB000E1F81A37D4F8A82044F82700D6F8D0382F
:101AC000019228220092002211462846D3F8A03025
:101AD00004F062FC0023214628461A4604F010FD5B
:101AE0004FF4FA61284603B0BDE8F04004F086BA2E
:101AF000B82A02083C000020BC2A0208C52A0208B5
:101B0000D02A020828000020DD2A0208EA2A02085A
:101B1000F02A0208032B02082DE9F04F054689B090
:101B200005F5805406F010FC06F034FCD4F8D068BB
:101B300006F00AFC4179003918BF012130460CF04B
:101B400086FB94F8CC18D4F8D0080CF01BFFD4F81E
:101B5000D0388F4AC3F89820D3F8A4700FF0B0F9AA
:101B60000368DB68984706460FF0F8F80368DB68FF
:101B70009847D4F8D038D3F8A030059382460FF0B8
:101B8000EDF802689268904783460FF0E7F8026824
:101B9000D268904706EB46067E4A059B05F5B35989
:101BA000023F4FF0060809F11409BF1B4000002650
:101BB00008FB1B33CDE901260090A7EB4A024846FB
:101BC00031460EF039F94FF47A7148460EF0D0FFE5
:101BD000D4F8D80803F0C4F8D4F8D038D3F8A0A0CB
:101BE0000FF0BCF803689B689847B4F97EB681464D
:101BF0000FF0B4F803689B6898470123029305F53A
:101C0000AD571437B4F986366349019308FB00F0E9
:101C10000AF1FF3208FB19225B460090384610F0AB
:101C200083FB324633463846294610F0D6FC384608
:101C3000314610F0C7FC4FF47A7138460EF098FF29
:101C4000B4F98636B4F97E9603EBD37309EB6309D6
:101C50000FF084F80368DB68984707460FF07EF8BA
:101C600005F5B5586FF07F4A08F1040804224B4986
:101C70000190A9EB5703CDF800A040460EF00BFBF6
:101C8000B4F9ACB60FF06AF803689B68984707464A
:101C90000FF016F903689B689847B4F982360693EB
:101CA00007900FF00DF90168C968884705900FF09B
:101CB00007F9069B079A059905F5B65909F11C091C
:101CC00007EB87075A44023B3A445B1ACDE900A070
:101CD000324948460EF0DFFAB4F9BC1505910FF011
:101CE00029F903689B689847B4F97EB682460FF0DD
:101CF00021F905F5B857059901901437FF230BF129
:101D0000040B0B2202FB1A123846244900935B464F
:101D10000EF0C1FA40F2E93140460EF029FF40F2E0
:101D2000EA3148460EF024FF40F2EB3138460EF01F
:101D30001FFF2846FFF798FC2846FFF7EBFD05F14B
:101D40006407D5F8A830B34217D8A86E03680026F8
:101D5000DB68C5F8AC60984705F5C75308330193B5
:101D600043230093D4F8D4080D4A2B46294604F0A7
:101D700081FC304609B0BDE8F08F57F8040FB4F984
:101D80007E260368283A9B68282198470136D8E7C1
:101D90004040400080808000B82A020829340208B0
:101DA0007F120008F8B500F580550446D5F8D8082C
:101DB00090F88C1302F0AEFE014604F5B5500022F7
:101DC00004300EF0B5FBD5F8D80890F8DD1302F01A
:101DD000A9FE014604F5B65000221C300EF0A8FB07
:101DE000D5F8D81891F8D52313466FF3861304F568
:101DF000B85081F8D533C2F38012143001F2DE31CD
:101E00000EF096FBD5F8D83895F8E82593F8CF333F
:101E100004F5AD501430002A36D0002B0CBFFF2142
:101E20004FF47F4110F019FBD5F8D83893F8FB2315
:101E3000002683F8FB63BAB1D4F8AC301A3304F14E
:101E4000640754F8230003681B6998472046FFF78E
:101E500061FDD4F8A830B3421CD8A06E0023C4F8AA
:101E6000AC300368DB689847D4F8AC301A331421DF
:101E700054F8230003685B699847D5F8D0080CF044
:101E8000E2F94FF00000F8BD002B0CBF6FF07F416E
:101E9000FF21C7E757F8040FB5F97E260368283AF3
:101EA0009B68282198470136D3E7000038B5094BD5
:101EB000094D0360044640F87C5F0EF07DFE20462D
:101EC00040F8385F0EF078FE20460EF075FE204692
:101ED00038BD00BF64CC02088C61020810B504460E
:101EE000FFF7E4FF2046C0211BF05DFD204610BD3A
:101EF00070B5244B036000F580550446224BC5F8AD
:101F0000C83400F5A65008300EF056FE1F4BC5F839
:101F1000983404F5A45018300EF04EFE04F59E508F
:101F20001830FFF7C3FF04F598501830FFF7BEFFD5
:101F3000174BC5F8F43204F5975014300EF03CFE00
:101F400041F2342540F23466635960191B68C03D84
:101F50009847B542F8D140F2BC65635960191B68D7
:101F6000383D9847B5F54F7FF7D14FF45075635919
:101F700060191B689847343DF9D120460EF01CFECD
:101F8000204670BDB03C020834620208E0610208DD
:101F9000886202081D4B70B50446036000F5C0500E
:101FA0000C30FFF783FF04F5BA5004F580550C3070
:101FB000FFF77CFF164EC5F8146704F5B8501430CF
:101FC0000EF0FAFD04F5B650C5F8DC661C300EF0D4
:101FD000F3FD04F5B550C5F8A46604300EF0ECFD31
:101FE0000C4BC5F8743604F5B35014300EF0E4FD14
:101FF00004F5AD501430FFF759FF04F1B000FFF7BE
:1020000077FF2046FFF782F9204670BD142B0208A7
:1020100030630208E061020808B50248FFF7BAFF22
:1020200008BD00BFCC04002010B50446FFF7B2FF86
:1020300020464FF4C8511BF0B6FC204610BD10B529
:102040000446FFF755FF204641F204511BF0ABFC5C
:10205000204610BD08B598B109B9002008BD8269B5
:10206000D0F8103101FB023103699942B8BF19461B
:1020700043699942A8BF1946CC3000F022FCECE736
:102080000120EBE708B519F08FFDBDE8084019F015
:102090005DBCC0E900128360704781694B1E10B5BA
:1020A00059420446594100F5F27010F08BFAA169CB
:1020B000A1F10A025142514104F5297010F082FA4F
:1020C000A169A1F164004142414104F55970BDE8A4
:1020D000104010F077BA000037B504460D46743052
:1020E0000EF046FD691C04F11C000EF041FDA91C18
:1020F00004F58C600EF03CFDE91C04F5A4600EF0C4
:1021000037FD04F039FA0546FFF7BCFF04F2E4534B
:1021100001460D4A00932846234604F0DAFA04F0FB
:102120002BFA0546FFF7AEFF04F2FC53019303239D
:10213000014600932846054A234604F09BFA4FF0D7
:10214000000003B030BD00BF55200008CF240008B8
:102150002DE9F04F89B00F460592DDE91212C0E972
:102160000412C44DDFF820B39942B8BF19462B685A
:10217000BFF35B8F91420E46A8BF164613F0010FC6
:1021800004460CD128461BF010FC40B1D4F8E035D1
:102190002846D3F8A030CBF800301BF012FC0EF02C
:1021A000DDFD6FF07F4304F19405009300231A4690
:1021B0003946019028460EF06EF8284602210EF0AE
:1021C0007EF9B4F9A430DBF80010C91A0822002304
:1021D0004908284604F11C0A0EF008FD514628461D
:1021E0000EF04AFD012128460EF0C2FCDBF800305B
:1021F000B4F9A270A3F110080EF062FE0368DB6868
:102200009847149B029304F1CC0508370D2300EB8B
:1022100080003A460193009043462846082100F08A
:1022200099FA4FF47F420421284600F03DFB0EF05E
:1022300047FE02220146284600F040FC314628466F
:1022400000F03FFB0EF03CFE002703460522284627
:10225000059900F049FC5146284684F8E1700EF0DB
:102260000BFD284601210EF083FC04F584630493E2
:1022700004F5866804F5F275B4F9DC900323A9F13E
:102280000809B9FBF3F902F0B3FB049A52F8043FD2
:10229000049201210A22149E8E4200F2E7804146F8
:1022A0000092102202F0A2FD4046FDF7A3FF059B1D
:1022B000714AC0F1100140441DF044FFB4F9D4202C
:1022C00009F1040307FB0322B4F9DA30079208335B
:1022D00006930EF0F5FD0168C9688847012600EBFA
:1022E0008000DDE906324146CDE90090029628469D
:1022F00010F01AF8FFF7C6FE604A2346014628464A
:1023000010F06BF92846002110F05CF928460321F3
:1023100010F0EBF8514628460EF0AEFC2B6828462C
:102320009B68314637449847032F08F1100805F1A0
:10233000C005A1D10A230025A361314604F5297007
:1023400010F040F902960195B4F9F231083304F126
:1023500044070093DBF800302A46294638460DF042
:102360006BFD384604210DF0BBFD38464FF6FF717A
:102370000DF0C6FD294638460DF0D5FD51463846CC
:102380000EF07AFC294638460EF0F2FBD4F8E02530
:10239000B4F95630D2F8A4200093D21A02EBD272CC
:1023A000DBF800303241294650460EF00DFBD4F8E0
:1023B000E035D3F8A420009229462A4604F174009F
:1023C000D3F8A0300DF0BFFDD4F8E03584F8896073
:1023D000D3F8A4A00EF074FD0368DB689847D4F826
:1023E000E035D3F8A02002EBD27242FA06F781461C
:1023F0000EF066FD0368DB68984704F58C68043FBF
:1024000009EB490900EB4000CDE90070AAEB090394
:102410002A461B49029640460FF086FFFFF732FE20
:1024200023460146154A404610F0D7F8D4F8E03567
:10243000B4F97024D3F8A0100296B4F97234CDE93F
:10244000002304F5A467B4F96A348A1A38460D49A2
:102450000FF06AFFFFF716FE084A0146234638468A
:1024600010F0BBF8284609B0BDE8F08F0A26724389
:10247000013110E7CC1D0020382B0208CF240008C2
:102480003C2B02083F2B0208D01D002010B504464B
:1024900004F072F804F2E45104F033F904F06CF83B
:1024A00004F2FC5104F001F904F11C000EF077FB7A
:1024B00004F174000EF073FB04F58C600EF06FFBFA
:1024C00004F5A4600EF06BFB4FF0000010BD2DE989
:1024D000F0410446002867D000F58C678F4216D182
:1024E000FFF7D4FF206858B10368D4E901125D6892
:1024F0002346A8472046FFF7D0FD0020BDE8F08125
:102500006368002BF6D0A06821469847F2E700F5F3
:10251000A4658D4202D1FFF7B9FFEBE700F5F27336
:10252000994202D10123A361E4E700F5297399429E
:1025300001D10A23F7E700F55973994201D16423C9
:10254000F1E791F800804E78B8F1000F17D14430D0
:1025500046B14FF47F410DF0D3FC0121384610F015
:1025600031F8C7E74FF47F010DF0CAFC3146384619
:1025700010F028F839462046FFF7A9FFBAE7B8F16E
:10258000010FB7D144302EB1FF210DF0B9FC414607
:102590002846E4E74FF47F010DF0B2FC31462846AF
:1025A00010F010F82946E6E70120A7E7B0F9080087
:1025B0007047B0F90A007047B0F90C007047B0F9E5
:1025C0000E007047B0F910007047B0F91200704764
:1025D000407D7047417570472DE9F341089E0446E0
:1025E0001D46B0F90A30B0F90800301A0090EB1A15
:1025F00004F1480090460F460DF08BF9B4F908201D
:10260000B4F90A30B21A0092EB1A4246394604F184
:10261000B0000DF0D2FD94F810317BB1B4F9082070
:10262000B4F90A30B61AEB1A4246394604F178007A
:10263000089602B0BDE8F0410DF0BFBD02B0BDE8A4
:10264000F0812DE9F341089E04461D46B0F908309B
:10265000B0F90A00301A0090EB1A04F148009046D5
:102660000F460DF0ABF9B4F90A20B4F90830B21AEC
:102670000092EB1A4246394604F1B0000DF03DFDE0
:1026800094F810317BB1B4F90A20B4F90830B61AC5
:10269000EB1A4246394604F17800089602B0BDE8CC
:1026A000F0410DF02ABD02B0BDE8F08170B50446DE
:1026B00005291AD8DFE801F0030F191903170B4990
:1026C00004F148000DF02FFC236820469B6CBDE808
:1026D000704000211847006A28B10368D4E9091244
:1026E0005D682346A8470021EAE770BD808080002E
:1026F00010B103689B6818477047000038B50C4B51
:102700000C4D0360044640F8B05F0EF055FA2046C9
:1027100040F8785F0EF050FA2046074B40F8483FEB
:102720000EF04AFA20460EF047FA204638BD00BFA8
:10273000682B020830630208E061020810B5044605
:10274000FFF7DCFF20464FF48C711BF02CF920467C
:1027500010BD00002DE9FF470C9E01811F464FF080
:10276000FF334364FB181944731E0E9D42811A44C3
:102770000D9B81815B1BC281C0E90E350446078237
:102780004682012200210A208D4256DC226404F593
:102790008070002D54D02D4A009510211DF0D2FCE0
:1027A000002501232A462946CDE9015300963B46E0
:1027B00004F148000DF040FB0EF082FB04F1B0087C
:1027C0006FF07F4704F1E80101902B462A4640460E
:1027D00000970DF060FDD4E90E3203EB0209D4F846
:1027E000E000B4F910A009F10109AA4218BF09F1EB
:1027F0000109FFF77DFFB4F9C2305FFA89F9F61AD3
:1028000000FB19A106EBD6762B467210490840460C
:102810000EF0ECF90EF054FB2B46CDE900700C499C
:1028200004F178002A460DF036FD23689B6C29469A
:10283000204604B0BDE8F047184742430131A3E702
:10284000044A10211DF07EFCAAE700BF462B0208B7
:1028500029340208572B0208436F994210B50446E9
:1028600009D048300DF03CFB236820469B6CBDE846
:1028700010400021184710BD10B5836EC0E90C123E
:10288000044690F82C00002818BF114699420AD03F
:1028900004F148000DF034FB236820469B6CBDE832
:1028A00010400021184710BD38B515460446FFF703
:1028B000D3FF294620464FF47F42BDE83840FFF75A
:1028C000DBBF436C8B4273B50A4604462ED041648D
:1028D000E56BB03004F1E80104F580735DB9009256
:1028E00018220DF052FE236820469B6C0021984769
:1028F000012002B070BD266C92FBF6F506FB152296
:10290000002AB8BF5242CDE9005218220DF03DFE18
:10291000636C002BE7DA226C93FBF2F3002BE2D11D
:10292000A36B23442D2283F8E620DCE70020E0E7B8
:1029300090F81031022B2DE9F041044600F085801B
:10294000D0E90E72013B1744B0F91050002A18BFAD
:10295000013700F1B006042B00F29D80DFE803F0A0
:102960002F9B03527C00D0F8E000FFF7C1FEB4F9C2
:10297000C230B4F91220D21AB4F98830A91EC91A8B
:1029800094F8DC307B4300FB131102EBD27230462B
:102990000023521049080EF029F9B4F9BC50D4F8BC
:1029A000A800B4F9BE7004F17806023510B10368CE
:1029B000DB68984700233A1A2946304643E0B0F9CD
:1029C000C230B0F91220B0F98810D21AB0F98A30AA
:1029D000D21A691A02EBD2720023521049087830D9
:1029E0000EF004F9D4F8E000B4F91050FFF780FEBF
:1029F00094F8DC30B4F986207B4300FB13510023AC
:102A00004908DAE7D0F8E000FFF772FEB4F9C23007
:102A1000B4F9122094F8DC10D21A794300FB11515A
:102A200002EBD27200235210490830460EF0DEF855
:102A3000B4F98830B4F91010B4F9BE20C91A4908A5
:102A4000002304F178000EF0D1F8236820469B6C37
:102A5000BDE8F04100211847D0F8E000FFF748FE3C
:102A6000B4F9C230B4F9122094F8DC10D21A7943C8
:102A700000FB115102EBD27200235210490830467C
:102A80000EF0B4F8B4F9BC00B4F98810B4F9BE2063
:102A90000023411AD5E7D0F8E000FFF729FEB4F98A
:102AA000C230B4F91220D21A94F8DC3002EBD272A0
:102AB0007B4300FB135152100023A1E770B500F1D6
:102AC000B0060446154630460DF0BEFCE9B230466D
:102AD0000DF0F5FC2046FFF72BFF236820469B6C8A
:102AE000BDE870400021184770B500F17806044633
:102AF0000D4680F81021194630460DF0A5FC2946F8
:102B0000304600220DF014FD2046FFF711FF236828
:102B100020469B6CBDE870400021184790F82C308F
:102B20008B4210B5044611D0D0E90C2380F82C104C
:102B300000290CBF1146194648300DF0E1F9236811
:102B400020469B6CBDE810400021184710BDC0E92D
:102B500008128362704710B5D8B109B9002010BDC2
:102B60000379022B0DD84FF48C725343C21884683A
:102B7000D2F8FC20B83301FB04211844FFF7A1FE72
:102B8000ECE7D0F80C3B194421EAE17100F6C820CB
:102B9000F4E70120E3E770B5044603F0EDFC04F62A
:102BA000A86103F0AEFD04F1B80510262B68284695
:102BB000DB689847D5F8483305F55270DB689847CD
:102BC000D5F8903605F5D260DB689847A359A0196F
:102BD000DB6838369847B82E05F58C75E6D14FF48A
:102BE0003E6563596019DB68C0359847B5F5626F7B
:102BF000F7D104F6C8200DF0D2FF04F529600DF0DE
:102C0000CEFF04F566600DF0CAFFD4F8980E036895
:102C1000DB689847D4F89C0E0368DB6898474FF050
:102C2000000070BD73B5044600F1B80510262B688E
:102C300064219B6828469847D5F8483364219B68EF
:102C400005F552709847D5F8903664219B6805F5D4
:102C5000D2609847A359A0199B68642138369847D9
:102C6000B82E05F58C75E2D14FF43E6563596019B5
:102C70009B686521C0359847B5F5626FF6D1642130
:102C800004F6C8200DF074FF642104F529600DF0EE
:102C90006FFF652104F566600DF06AFFD4F8980EA9
:102CA000036866219B689847D4F89C0E03686621E8
:102CB0009B68984703F060FC0546FFF7E3F904F6CC
:102CC000A863014600932846034A234603F001FD0A
:102CD0004FF0000002B070BD572B00082DE9F04FF7
:102CE0008DB083460D460EF0EBF80368DB6898471D
:102CF00000EB80030593043B5B080893059B0833B6
:102D000009932B1D5C4606935F464FF0000ADBF8E3
:102D1000A42EDBF8A03E92F8FC23D3F8A010A94E15
:102D2000002A14BF04220322A1F108030292072201
:102D300004F1B805019203EBD373059A00925B107E
:102D4000069A062091FBF0F12846FFF703FDFF22CB
:102D500004212846FFF7A8FD0EF0B2F80222014632
:102D60002846FFF7ABFE5FFA8AF31946DBF8A40E9C
:102D7000079301F008FF01462846FFF7A2FDDBF8A4
:102D8000A43E914A93F8FC33002B08BF16460EF080
:102D900097F83146034605222846FFF7A5FEFFF7C0
:102DA00071F900231A4601462846FFF7D0FED4F8F1
:102DB000B830012128465B6C9847D4F8B8302846D3
:102DC0001B6B9847D4F8B83000F10408DB6A28463A
:102DD0009847DBF8A03ED3F8A020D4F8B8300A9288
:102DE00081461B6B284698470A9A131ADBF8A42ED3
:102DF00092F8FC230721002A14BF0422032204F5C1
:102E00008066019108990292083B4A46304600913B
:102E10004146FFF79FFC6D4A02213046FFF744FD13
:102E20000EF04EF8012201463046FFF747FE002122
:102E30003046FFF746FDDBF8A43E634A93F8FC33C7
:102E40006049002B08BF114688460DF0FDFF414642
:102E5000032203463046FFF747FED4F800343046DD
:102E60009B6A9847D4F8B8300B905B6B284698471C
:102E7000D4F800348146DB6B30469847D4F80034F0
:102E8000A9EB00099B6B30469847D4F800240A90C0
:102E9000D26B30469047DBF8A42E0B9992F8FC23B6
:102EA000484E002A14BF0422032204F5E9680723D0
:102EB000CDE9000302920A9B4A464046FFF74AFCCE
:102EC000424A02214046FFF7EFFC0DF0F9FF0122D4
:102ED00001464046FFF7F2FD00214046FFF7F1FCB6
:102EE000DBF8A43E384A93F8FC33002B08BF1646A3
:102EF0000DF0AAFF0322034631464046FFF7F4FDDA
:102F00000799DBF8A40E01F0FDFD80460DF026FFC9
:102F10006FF07F4307F11006009300231A464146E5
:102F2000019030460DF0B7F9022130460DF0C7FA96
:102F30003B699B690793D4F8B83028469B6A984749
:102F40003B6981469B6B3046984700EBD07009EB9C
:102F5000D9734FEA6009C9EB6309D4F8B830284641
:102F6000DB6A9847D4F8B8308046DB6B2846984730
:102F70003B6900EBD07008EB6005DB6B304698478F
:102F800000EBD070A5EB60020023079D4946304658
:102F9000A847069B099A0AF1010A1344BAF1030FE4
:102FA00004F58C7407F1380706937FF4B0AE0BF587
:102FB0003A730BF562690BF63B680BF53E6500272B
:102FC000079305E0B42B02082A33020880808000B2
:102FD000DBF8A43E079893F8FC33002B14BF41465E
:102FE0004946DBF8A03E0891D3F8A04094FBFAF4E0
:102FF0007C43231D0693DBF8E8325B6B9847DBF8D4
:10300000A02E0446D2F8A06096FBFAF60DF058FF09
:103010000268D2689047083E012300EB8000069AC0
:1030200008990293CDE9006004F1080328460FF0E7
:103030007BF9FFF727F8002301461A4628460FF0D0
:10304000CCFA0137284603210FF04FFA032F09F17C
:10305000090908F10C0805F1C005B9D1DBF8A03E5B
:10306000BBF9EE2BD3F8A01005980090A1F108034E
:1030700000240BF6C825042603EBD37301EBD171B2
:103080005B10CDE90164284608324910FFF762FB66
:103090003146FF222846FFF707FC0DF011FF022200
:1030A00001462846FFF70AFD4FF496712846FFF7C0
:1030B00008FCDBF8A43E344E93F8FC23334BA242C9
:1030C00008BF1E460DF0FCFE314603460522284689
:1030D000FFF70AFDFEF7D6FF0127014623462246E9
:1030E0002846FFF734FD8BF8DD7A0DF037FE0BF53F
:1030F00029656FF07F4623462246019024490096B9
:1031000028460DF0C8F8284602210DF0D8F9BBF981
:10311000DA3ABBF9D20ABBF9D81A03EBD37300EB46
:103120006300BBF9A23A03EBD372DBF8A03ED3F8FD
:10313000A03003EBD373C1EB630101EBD171A0EBC2
:1031400062022346394128460DF050FD0A23CBF890
:10315000083039460BF54A600FF034FABBF9C0501D
:10316000BBF9C2700DF0ACFE08350837CDE9006040
:1031700008490BF566603B462A460DF08CF8204660
:103180000DB0BDE8F08F00BFC02B0208B92B0208BC
:10319000CB2B02082934020838B50446FEF7D2F8D2
:1031A0001C4B236000254FF47F420123C4E90D230B
:1031B000C4E90F534FF0FF336364C4E90855A562B7
:1031C00084F82C50256304F14800FEF7BBF8124B3D
:1031D000A364C4E91A5584F87050656704F1780057
:1031E000FEF7BEF804F1B000FEF7BAF8294618223F
:1031F00004F1E8001DF070F81022294604F58070F3
:103200001DF06AF884F810510AF038FFC4F8140170
:10321000204638BD682B0208E061020801790229C6
:103220002DE9F04198BF0021044688BF012100F636
:10323000C820FFF773FC04F1B80600254FF6FF77AE
:10324000E9B2D4F8A40ED6F8448001F09CFC4FF407
:103250007F42404514BF3946FF213046FFF70CFB43
:103260002179A1EB050CDCF1000141EB0C013046AA
:103270000135FFF753FC032D06F58C76E0D1A168EC
:103280004B1E5942594104F53E600FF09BF9A1686D
:10329000A1F10A025142514104F54A600FF092F93E
:1032A000A168A1F164004142414104F55660BDE8C6
:1032B000F0410FF087B900002DE9F041D0F8A43EAD
:1032C00093F8FD23022A044600F5666048D193F87E
:1032D000D0532F492F4B0022954218BF19460DF0AD
:1032E00027F901F085FB237B90F88C63B34202D071
:1032F000032B38D02673FEF79BF92749FEF72CFAEB
:10330000FEF796F92549FEF751FA00272646B846FA
:10331000F9B2D4F8A40E01F036FC014606F580603F
:10332000FFF7CFFAD6F8FC10D6F844340546C91A90
:1033300006F5E960FFF7C5FA0137054348EA0505D8
:10334000032F5FFA85F806F58C76E1D1B8F1000F0E
:1033500002D02046FFF762FF4FF00000BDE8F08189
:103360000F490022BBE7012EC4D104F1B8070025A4
:10337000E9B2D4F8A40E01F006FC01350146384646
:10338000FFF79FFA032D07F58C77F1D1B2E700BF65
:10339000DA2B0208D12B0208E12B0208E52B0208E8
:1033A0002934020800F53E63994273B5044608D1FA
:1033B0000123A36000252046FFF730FF284602B016
:1033C00070BD00F54A63994201D10A23F1E700F587
:1033D0005663994201D16423EBE7D0F8983E8B42C3
:1033E00014D1D0F8A40E90F88C33012B43D1019363
:1033F000D4F80C3B642253430093D4F82C33D4F814
:103400001422D4F8FC1002F09DFAD3E7D0F89C3EC9
:103410008B4217D1D0F8A43E93F88C33012B2AD1DC
:1034200000F1B8060025E9B2D4F8A40E01F0ABFB18
:10343000013501463046FFF744FA032D06F58C7638
:10344000F1D1B7E700F6C82399420DD000F1B803D7
:1034500099420CD000F5E87399420AD000F53A730E
:103460009942A7D1022300E003232371A2E700239E
:10347000FBE70123F9E708259DE700002DE9F84F58
:10348000694B03600323037100260A23054683600A
:1034900006731030FDF764FF05F14800FDF760FF8B
:1034A00005F18000FDF75CFF05F1B800FFF774FE41
:1034B00005F5E870FFF770FE05F53A70FFF76CFE52
:1034C00005F58060FFF768FE05F5A360FFF764FE71
:1034D00005F5C660FFF760FE05F5E960FFF75CFEE5
:1034E00005F50660FFF758FE05F67810FFF754FE65
:1034F00005F52960FDF734FF05F6C820FFF74CFEFF
:10350000DFF830B1DFF8309105F53E6405F5626A09
:103510002046FDF717FF6FF07F4323630127C4F8B0
:1035200000B084F8346084F83560C4E90866C4E902
:103530000A6604F138004FF0FF38FDF703FFC4F8C6
:103540003890266684F86470A66684F86C6084F807
:103550006D6084F86E6084F86F70C4F87080A4F8B1
:103560007860C4E9166604F17C00FDF7EBFEC4F850
:103570007C90C4F8A46084F8A870C4F8AC6084F8A7
:10358000B06084F8B16084F8B26084F8B370C4F8B5
:10359000B480A4F8BC60C4E92766C0345445B7D1F0
:1035A000224B03F1180618685968224603C20833F3
:1035B000B3421446F7D11A889B78A3701C4B228023
:1035C00003F1240105F63B6253F8040B42F8040BA7
:1035D0008B42F9D105F56660FDF7C2FEFEF728F8CB
:1035E00000F5BA500C30C5F8980EFEF721F800F53A
:1035F000C0500C30C5F89C0E0AF040FDC5F8A00E76
:1036000001F0F6F9002385F8B43EC5F8A40EC5F81C
:10361000A83EC5F8AC3EC5F8B03EC5F8B83EC5F802
:10362000BC3E2846BDE8F88FF82B02084026020869
:103630005B26020864CC02088C61020810B50A4CB3
:103640002368BFF35B8FDB070CD420461AF0ADF97B
:1036500040B10648FFF712FF05481BF0A5FD2046C4
:103660001AF0AFF9014810BDD41D0020D81D00206C
:103670000D37000870B5234B234E0360C0F8606E11
:10368000044600F566600DF097FA4FF456656359ED
:1036900060191B68C03D9847B5F5326FF7D104F645
:1036A000C820FFF72BF8C4F8906A04F529600DF0E4
:1036B00083FA40F67815635960191B68A5F58C7577
:1036C0009847B5F5C66FF6D1635960191B68A5F523
:1036D0008C759847B5F53A7FF6D1635960191B6828
:1036E000A5F58C75984715F1600FF6D180256359C3
:1036F00060191B68383D984715F1280FF7D120460F
:1037000070BD00BFF82B02083063020808B50248FC
:10371000FFF7B0FF08BD00BFD81D002010B504465C
:10372000FFF7A8FF20464FF46C611AF03CF92046E1
:1037300010BD58B190F84830022B01D900207047D5
:1037400000EB8300C36B1944C163F7E701207047A6
:10375000F8B5044602F010FF04F58F5102F0D1FFD6
:10376000201D0DF01CFA04F6B830FEF78FFE04F1B0
:10377000500704F58866F82563596019DB68984797
:103780003B683846DB68984733683046DB6805F5A8
:103790008C759847B5F5886F07F1380706F1C006B4
:1037A000EAD14FF4EF6540F6782663596019DB687B
:1037B000C0359847B542F8D104F5D0600DF0EFF967
:1037C00004F5E8600DF0EBF904F6F82004F58054F8
:1037D0000DF0E5F9D4F8CC010368DB689847D4F81C
:1037E000D0010368DB6898474FF00000F8BD000087
:1037F0002DE9F34700F580570446D7F8D83193F800
:10380000FD23022A0BD193F8D0034B494B4B0022E6
:10381000904218BF194604F5E8600CF089FEFDF7E8
:1038200007FFFDF785FFFDF703FFFDF7A5FF04F197
:10383000F8060025E9B2D7F8D80101F0A4F901355E
:1038400001463046FFF73DF8032D06F58C76F1D1A1
:10385000E56B002D5CD1256C002D5BD1656C45B30B
:103860000226E36C5D4302F087FED0F88C30E26CF8
:10387000142B38BF142353433C2253430A22B3FB77
:10388000F2F336B9D7F8D82192F8FD23022A08BFFF
:103890006D424FF00008CDF800802A463146D7F837
:1038A000D80101F095FF0E3604EB8606C5B2C6F8C6
:1038B0000480D7F8D83193F8CF2304F6F82A04F51A
:1038C000D06904F5886804F5A06704F5B8661ABBEA
:1038D00093F86E2302BB93F88C3303F0FD03012BA6
:1038E0001AD004F6B830FEF7D1FD50460EF04EFE69
:1038F00048460EF04BFE40460EF048FE38460EF0AD
:1039000045FE30460EF042FE284602B0BDE8F08784
:103910000026A6E70126A4E750460EF01BFE484607
:103920000EF018FE40460EF015FE38460EF012FE60
:1039300030460EF00FFEE7E7DA2B0208D12B020823
:103940002DE9F04F8DB0044608910A920DF0B8FAB7
:103950000368DB68984700EB8003079304F58863EE
:103960000593079B08330993089B0433069304F5DA
:1039700080532646A0464FF0000A0493049A049B05
:10398000D2F8D821D3F8D43192F8FC23D3F8A00090
:10399000002A14BF042203220292072206F1F8052E
:1039A000A0F108030192079A00920621069A9B0053
:1039B00093FBF1F390FBF1F12846FEF7CBFEFF22DB
:1039C00004212846FEF770FF0DF07AFA0222014624
:1039D0002846FFF773F800212846FEF772FF049B84
:1039E000C44AD3F8D83193F8FC13C34B002914BF51
:1039F000914699460DF064FA49460346032228464B
:103A0000FFF772F8FEF73EFB00231A4601462846F0
:103A1000FFF79DF8D6F8F83028465B6C01219847EF
:103A2000049B5FFA8AF1D3F8D80101F06BF8834662
:103A30000DF094F96FF07F4308F1500900930023D3
:103A40001A465946019048460CF025FC022148468A
:103A50000CF035FDD8F850309B691F46D6F8F83089
:103A600028469B6A9847D8F850208346926B484670
:103A7000904700EBD0700BEBDB734110C1EB63019F
:103A8000D6F8F8300B91DB6A28469847D6F8F8202C
:103A90008346D26B28469047D8F8503000EBD07060
:103AA0000BEB600BDB6B4846984700EBD070ABEB41
:103AB00060020B9900234846B847D6F8F8302846EC
:103AC0001B6B9847D6F8F8308346DB6A2846984740
:103AD000049BD3F8D431D3F8A020D6F8F8300B9259
:103AE0001B6B074628469847D6F8F8108146C96BE5
:103AF000284688470B9A8149A2EB09090125A9F1BB
:103B000008030BF10402CDE90105009305983B463B
:103B10000EF00AFCFEF7B6FA00231A460146059895
:103B20000EF05BFD059B099AC0330593069BAA44E2
:103B30001344BAF1030F06F58C7608F138080693A2
:103B40007FF41CAF04F54A7304F6782A04F5EF6895
:103B50004FF000091F46049BD3F8D431D3F8A0607E
:103B6000049BD3F8D83193F8FC33143EB608002BED
:103B700040F0BA805146D4F8283305915B6B384643
:103B8000984783460DF09CF90268D2689047321D31
:103B900009FB02F200EB8000059902950BF1080386
:103BA0000432CDE9006040460EF0BEFBFEF76AFA33
:103BB000002301461A4640460EF00FFD09F10109A7
:103BC000404603210EF091FCB9F1040F0AF10C0AF2
:103BD00008F1C008BFD1012104F6F8000EF0F2FC94
:103BE000049BD3F8D83193F8FC33002B7FD1D4F861
:103BF000E03AE3644FF00109CDF80890B4F90A31D6
:103C00000193B4F900313E49083B04F5D0650093B7
:103C1000B4F90231042228460EF086FBFEF732FA90
:103C2000002301461A4628460EF0D7FCB4F900518D
:103C3000B4F902810DF044F96FF07F46083508F1C0
:103C400008082A462E490190434604F5E86000968C
:103C50000CF021FB0DF034F90368DB689847049BF6
:103C6000D3F8D4310546D3F8A0700DF029F90368D4
:103C7000DB6898470A9B089A2249CDF808901A44B5
:103C800004F6F828083F043A05EB850500EB8000B0
:103C9000531BCDE90070042240460EF045FBFEF7B1
:103CA000F1F9002301461A4640460EF096FCB4F99D
:103CB0008687B4F9025B0DF003F90368DB68984767
:103CC00007460DF0FDF8A5EB08050422ED1BCDE934
:103CD00000600D49A01808EB55030CF0DCFA4FF01A
:103CE00000000DB0BDE8F08F0AF1300143E7D4F8D1
:103CF000F03A7EE7B42B02082A330208142C02089B
:103D000029340208182C0208502C0208F7B5044682
:103D1000012104300CF02CFF04F1500704F58866F3
:103D2000F825635964219B68601998473B686421B2
:103D30009B6838469847336830469B68642105F590
:103D40008C759847B5F5886F07F1380706F1C006FE
:103D5000E7D14FF4EF6540F67826635960199B6808
:103D60006421C0359847B542F7D1032384F8483021
:103D7000002104F1F800FEF7D1FE04F58055002182
:103D800004F50470FEF7CAFE002104F54A70FEF740
:103D9000C5FED5F8D83193F8FD33022B09D1652142
:103DA00004F5E8600CF0E4FE632104F5D0600CF04B
:103DB000DFFE662104F6F8200CF0DAFED5F8CC011F
:103DC000036866219B689847D5F8D001036866218F
:103DD0009B68984702F0D0FB0546FEF753F904F5BF
:103DE0008F53014600932846034A234602F071FC94
:103DF0004FF0000003B0F0BD3337000870B50A2360
:103E000000250446C0E90055C0E90255C0E9045543
:103E100083611C30FDF796FA314BE361C4E90F551D
:103E200004F14400FDF78EFA2E4B6364C4E9195582
:103E300084F86C50256704F17400FDF783FA2A4B6F
:103E4000636704F19400FDF78BFA04F1CC00FFF7EF
:103E5000A3F904F5F270FDF797FA04F52970FDF760
:103E600093FA04F55970FDF78FFA204B93E8070099
:103E700004F2244585E8070004F5866603F10C0288
:103E80003C3310685168354603C508329A422E46C5
:103E9000F7D104F58C60FDF777FA04F5A460FDF71F
:103EA00073FA0AF0EBF8002384F8F03584F808364A
:103EB000C4F8E005C4F8E435C4F8E835C4F8EC35D6
:103EC000C4F8F435C4F8F835C4F8FC35C4F8003645
:103ED000C4F80436C4F80C36C4F81036204670BD59
:103EE00084630208E0610208346202088026020846
:103EF00010B50021044600F5EF600EF063FB04F6F8
:103F0000380000210EF05EFB04F6F80000210EF0F0
:103F100059FB04F6B8100021BDE810400EF052BB6A
:103F20002DE9FF4100F580560446D6F8CC318B428E
:103F30000D4600F0EC80D6F8D0318B4200F0E780DF
:103F400000F5D06399420DD1D6F8D80190F8D0335E
:103F50002BB101F029FC002004B0BDE8F08101F094
:103F60002DFCF8E700F6F82088422AD194F82C3B83
:103F700004F5886804F5A06704F5B865A3B9D6F818
:103F8000D83193F88C1301290ED10EF01BFB614937
:103F900040460EF01FFA5F4938460EF01BFA5D49A5
:103FA00028460EF017FAD6E700210EF00BFB5A490F
:103FB00040460EF00FFA584938460EF00BFA5649B3
:103FC000EEE704F6B838884519D004F5EF67B94232
:103FD0001ED004F63807B9422DD004F6F807B942CE
:103FE0002BD004F6B817B94229D004F1F800814269
:103FF00041D004F58863994276D100253EE0D4F89B
:10400000C82C94F8C41BD6F8D80101F0DFFDA2E754
:1040100000252046FFF76CFF012138460EF0D2FA4A
:10402000D6F8D83193F8FC335BB905F2B62554F8CD
:104030002530E3648FE70125EBE70225E9E7032557
:10404000E7E705F2BA25F2E701260021FEF766FD53
:10405000002104F50470FEF761FD002104F54A70AB
:10406000FEF75CFD01212846FEF758FD84F8486004
:1040700071E70226E9E70026E7E7012594F82C3BE3
:10408000D6F8D801E9B213B901F074FD63E700F086
:1040900039FDD6F8D83193F8FC33002B4FF48C73EC
:1040A00003FB054314BF04220322D3F83C310292E0
:1040B00001461A4A1A48CDE900201A481A4A08BF90
:1040C00002464046FEF744F8FDF7DCFF00230146B8
:1040D0001A464046FDF7DDFFC4F8C45B42F210719A
:1040E0004046FDF7F9FF36E704F504739942ABD07B
:1040F00004F5A0639942C0D004F54A739942B8D040
:1041000004F5B86399427FF426AF0225B6E708208C
:1041100022E700BF7A4F0208142C0208806967FF6B
:10412000809698002A330208B42B0208F8B54C4B4D
:10413000044640F8043BFDF713F90023C4E90F33AC
:104140006364032384F848300123E36404F15000DE
:10415000FDF706F904F18800FDF702F904F1C0004B
:10416000FDF7FEF804F1F800FFF716F804F5047007
:10417000FFF712F804F54A70FFF70EF804F58860AF
:10418000FDF702F904F5A060FDF7FEF804F5B8604C
:10419000FDF7FAF804F5D060FDF7F6F804F5E860ED
:1041A000FDF7DEF804F5EF6504F678262846C035FD
:1041B000FDF7EAF8B542F9D12A4B03F13006186849
:1041C00059682A4603C20833B3421546F7D1264B35
:1041D00003F1300704F6A8263A46186859683546B0
:1041E00003C50833BB422E46F7D10FCA04F6D825C3
:1041F00085E80F001D4B0FCB04F6E82585E80F007E
:1042000004F6F820FDF7C0F804F6B830FFF7F6FD25
:10421000FDF70EFA04F5805500F5BA500C30C5F8DC
:10422000CC01FDF705FA00F5C0500C30C5F8D001FF
:1042300009F024FFC5F8D40100F0DAFBC5F8D80175
:1042400004F082F8002385F8EC31C5F8DC01C5E9FB
:104250007833C5E97C33C5F8E8312046F8BD00BFA6
:10426000342C0208BC260208EC2602082C2702087F
:1042700010B50A4C2368BFF35B8FDB070CD42046D4
:1042800019F093FB40B10648FFF750FF05481AF0BC
:104290008BFF204619F095FB014810BD982C00209B
:1042A0009C2C0020C143000810B5034B036004465A
:1042B0000CF082FC204610BD3063020810B50446A5
:1042C000FFF7F2FF2046382119F06DFB204610BDA4
:1042D00038B5044600F5A460FDF7E8FD04F58C60F0
:1042E000FDF7E4FD4FF45975635960191B68C03D33
:1042F0009847B5F5927FF7D104F1CC00FEF7FEF9AF
:1043000004F19400FFF7D0FF2046094B40F8743FBA
:104310000CF052FC2046074B40F8443F0CF04CFC9C
:104320002046054B40F81C3F0CF046FC204638BDAB
:1043300034620208E06102088463020838B51F4B4A
:104340000360044600F6B830FFF7C2FF04F6F82019
:10435000FDF7ACFD40F6B815635960191B68C03D08
:104360009847B5F5D76FF7D104F5E860FFF79CFFE4
:1043700004F5D060FDF79AFD4FF4B86563596019F4
:104380001B68C03D9847B5F5607FF7D14FF44A757B
:10439000635960191B68A5F58C75984715F1200FB6
:1043A000F6D1C025635960191B68383D9847182D10
:1043B000F8D1201DFFF778FF204638BD342C0208C5
:1043C00008B50248FFF7BAFF08BD00BF9C2C0020CB
:1043D00010B50446FFF7B2FF204641F2F81119F07C
:1043E000E2FA204610BD4FF0000070474FF0000089
:1043F00070474FF00000704708B5806E03210AF047
:10440000C1FA4FF0000008BD61B990F8313083F077
:10441000010380F83130012213B103490AF0DABFF9
:104420000249FBE7704700BF000000201400002095
:1044300010B5034B036004460CF0BEFB204610BDD4
:104440003859020810B50446FFF7F2FF2046342120
:1044500019F0A9FA204610BD10B5034B03600446BD
:10446000FCF754FF204610BD8C2C020808B502480A
:10447000FFF7F2FF08BD00BF883F002010B50446DB
:10448000FFF7EAFF20466C2119F08DFA204610BD97
:1044900070B51E4E3568BFF35B8F15F0010532D144
:1044A000304619F082FA70B3194C1A4B204610228C
:1044B00040F8043B02212B460DF073FA2A462946A8
:1044C0002B4604F124000DF06CFA134BE564C4E9AB
:1044D00015344FF48063A4F85E30022384F8603012
:1044E0000E4B63660E4B2360C4E9115584F850509F
:1044F00084F85C5009F0C2FDA0660A481AF054FE28
:10450000304619F05EFA024870BD00BF843F0020BB
:10451000883F0020FCCB0208751701086A2C0208AE
:104520008C2C02086D44000838B50023016083809C
:104530008371044609F0A2FDA0601AF071FE062501
:1045400090FBF5F303FB1500013020711AF068FEB3
:1045500090FBF5F303FB1500013001236071A3719B
:10456000204638BD2DE9F0410446006803681B6B06
:1045700098470646206803689B6A98470746206864
:1045800003685B6B9847054620680368DB6A9847B9
:1045900094F904202B18F01900EBD07003EBD373BF
:1045A00012EB60004FEA6303114604D4A568D5F806
:1045B000A050A84202DB52422271002194F905006A
:1045C000C318024604D4A568D5F8A450AB4202DB58
:1045D000404260710022206803689C690123A44660
:1045E000BDE8F0416047000038B504461D46084B61
:1045F0000AF0CAFE074B236084F8315025B90449FC
:104600002A4620460AF0E6FE01236375204638BD9F
:1046100000000020B82C02082DE9F0430022ADF57F
:10462000177D05461146012343A8FFF7DDFFAB6E5A
:10463000BDF91E11D3F8A420BDF91C01DFF8588282
:10464000521AD3F8A010091A02EBD27201EBD17101
:1046500000235210491043A80CF0C8FA4FF0FF167F
:1046600001274FF4004143A80CF082FA1E23962242
:10467000CDE90067782117A80BF012FD282117A8B3
:1046800000240CF075FA4FF47F03CDE90034782252
:104690001E23962121A80BF003FD322121A80CF046
:1046A00067FA4FF47F4978232222CDE900392E2181
:1046B000602305A80BF0A8FC1E2105A80CF058FAF1
:1046C0004C232222CDE900382E216E230EA80BF0B8
:1046D0009BFC1E210EA80CF04BFA0CF07BFB224633
:1046E0000A23CDE900606A4950A80BF01FFE46215D
:1046F00050A80CF03DFA0CF0A7FB22461423CDE99C
:10470000008063495EA80BF011FE50215EA80CF0FA
:104710002FFA0CF00FFC4FF6FF7822461E235C495F
:104720000190CDF800806CA80BF000FE5A216CA817
:104730000CF01EFA0CF088FB22463223CDE9016012
:104740005349CDF800907AA80BF05CFE64217AA85A
:104750000CF00EFA0CF0C8FAFF26224646234C490C
:104760000190009688A80BF0E1FD6E2188A80CF05E
:10477000FFF9CDE901670A26224664232146009607
:104780002BA80BF08BFB31462BA80CF0F1F914236E
:10479000462200966421CDE9018737A80BF07EFB05
:1047A000142137A80CF0E4F90C2009F00FFC394C67
:1047B00017A90646FFF7B8FE0C20266009F006FC94
:1047C00021A90646FFF7B0FE0C20666009F0FEFB4B
:1047D00005A90646FFF7A8FE0C20A66009F0F6FB27
:1047E0000EA90646FFF7A0FE0C20E66009F0EEFBDE
:1047F00050A90646FFF798FE0C20266109F0E6FB5B
:104800005EA90646FFF790FE0C20666109F0DEFB0C
:104810006CA90646FFF788FE0C20A66109F0D6FBBE
:104820007AA90646FFF780FE0C20E66109F0CEFB70
:1048300088A90646FFF778FE0C20266209F0C6FB21
:104840002BA90646FFF770FE0C20666209F0BEFB3E
:1048500037A90646FFF768FEA662A86E4FF0FF3143
:1048600009F0DDFCC4B2002CF7D10A4E56F8040B57
:104870000134FFF777FE0B2CF8D1A86E09F0D4FCB9
:10488000A86E09F0E0FC01200DF0FDF9E5E700BF9E
:10489000742C0208943E002000FFFF00034BD3F865
:1048A0005C23034B1A615A62704700BF84590208A7
:1048B0000000002008B5806E03689B6898474FF0A1
:1048C000000008BD70B50446806E03681B6A9847F7
:1048D000B0B90625D4F8003433B194F8CF331BB9FE
:1048E00094F86E33002B58D00023012204F5806128
:1048F00020460CF022FFC5B201200DF0C6F94CE0B5
:10490000D4F8003423BB04F16C064FF4807204F237
:10491000044130461BF007FDA56E3046FBF76AFCEC
:104920002B6802463146DB6928469847C5B23046B7
:10493000FBF760FC314602461A4813F0A6FE10B998
:10494000184813F0BCFE062DC3D0222D24D1C1E798
:1049500094F8CF2312B994F86E2302B394F871231C
:10496000EAB994F8DD23AAB904F284454FF0FF3187
:1049700028460CF0A7FF0DF084F9012384F8713369
:10498000D4F80034C4F87C03C4F8883328460CF00B
:10499000BEFFB8E7C4F888330025284670BD062559
:1049A0009BE700BFD4DD012010B5064B0360044631
:1049B00000F284400CF07EFF2046FCF7A7FC204666
:1049C00010BD00BF603C020808B50248FFF7ECFFCD
:1049D00008BD00BFF83F002010B50446FFF7E4FF14
:1049E00020464FF4CF6118F0DEFF204610BD0000D6
:1049F0002DE9F041DFF80881D8F80050BFF35B8F54
:104A000015F001056AD1404618F0CFFF002865D0A7
:104A1000344C354B354F2046102240F8043B2221C0
:104A20002B460CF0BEFF2B462021842204F12400EB
:104A30000CF0B7FF2E4A84F85050C4E915244FF407
:104A40008062A4F85E20022284F86020294A62660F
:104A500004F58063284A2260C4E911354FF0807262
:104A6000012304F28440C4E9E135C4E9DD55C4E919
:104A7000DF55E36484F85C30A566C4F86C23A4F8C1
:104A80007033A4F8FA33A4F8FC530CF009FF97E84C
:104A90000F0004F5916507F1100685E80F000FCEB1
:104AA00004F593650FC50FCE0FC596E8070085E89E
:104AB0000700502207F13C0104F2C4401BF073FDD3
:104AC0004FF4B27207F18C0104F214501BF06BFD2D
:104AD0000A481AF069FB404618F073FF0148BDE828
:104AE000F08100BFF83F0020FCCB02083C27020801
:104AF0007517010824330208603C0208C949000800
:104B0000F43F0020032928BF032101F5917150F8DB
:104B1000210070470B2928BF002101F5937150F83F
:104B200021007047582928BF582100EB8100D0F898
:104B300014057047022970B505460C4621D800F2CD
:104B400084464FF0FF3130460CF0BCFE95F8FC3344
:104B5000002B42F2107308BF4FF47A7307EE903ABD
:104B600005EB840494EDE47AF8EEE77A304667EEDC
:104B7000877AFDEEE77A17EE904A0CF0C8FE2046E1
:104B800070BD0024FBE7022970B505460C4625D808
:104B900000F284464FF0FF3130460CF093FE95F85A
:104BA000FC3305EB8404D4EDE77A94EDE47A002B32
:104BB00042F2107308BF4FF47A7337EE677A07EE4C
:104BC000903AF8EEE77A304667EE877AFDEEE77ABC
:104BD00017EE904A0CF09BFE204670BD0024FBE7C8
:104BE000022970B505460C4621D800F284464FF0E4
:104BF000FF3130460CF066FE95F8FC33002B42F294
:104C0000107308BF4FF47A7307EE903A05EB8404F3
:104C100094EDEA7AF8EEE77A304667EE877AFDEEB1
:104C2000E77A17EE904A0CF072FE204670BD002421
:104C3000FBE7022970B505460C4625D800F28446EC
:104C40004FF0FF3130460CF03DFE95F8FC3305EB9C
:104C50008404D4EDE77A94EDEA7A002B42F21073E3
:104C600008BF4FF47A7337EE677A07EE903AF8EEA2
:104C7000E77A304667EE877AFDEEE77A17EE904ADC
:104C80000CF045FE204670BD0024FBE790F8712330
:104C9000D0F8883322B9994202D190F8DD037047E9
:104CA000994234BF54205520704710B50446FFF791
:104CB000EDFF40B9D4F88003D4F8783398422CBF84
:104CC0000020012010BD542802D1D4F87C03F3E762
:104CD0000020F7E700B5A3B000238DF808100122EB
:104CE00001A901938DF809300CF027FD23B05DF880
:104CF00004FB000010B5044603F026FB027972B9EC
:104D000016484FF400510DF0E1FF94F8D8336FF3DB
:104D1000000384F8D833012384F86F3310BD03F007
:104D200013FB0379012B0CD194F86F33002BECD1DA
:104D30008B212046FFF7CEFF0CF0A3FFC4F87803C9
:104D4000E3E703F001FB0379022BDED103480022E5
:104D50004FF400510DF0BAFFE6E700BF0008024033
:104D600038B5044603F0F0FA0579BDB91E480122B2
:104D70004FF400510DF0AAFF84F86F53D4F8842348
:104D8000C4F8882394F8D823002363F3000284F83E
:104D9000713384F8DD3384F8D82324E003F0D4FAA7
:104DA0000379012B0DD194F86F3333B194F8CF33DD
:104DB0001BB18B212046FFF78DFF002384F86F3352
:104DC000DCE703F0C1FA0379022B06D10648012281
:104DD0004FF400510DF07AFFE5E703F0B5FA94F8CF
:104DE0006F33002BCAD038BD0008024073B5069D52
:104DF00083EAE3741846A4EBE37442F210739D4215
:104E00000E46114612D1B4FBF5F305FB1344264AB6
:104E1000CDE90034254B13EA200338BF1346244A5A
:104E200030461BF08FF9304602B070BDB5F57A7F81
:104E30000DD1B4FBF5F305FB13441B4ACDE9003457
:104E40001A4B13EA200338BF13461A4AE8E7642DC9
:104E50000DD1B4FBF5F305FB1344134ACDE900343F
:104E6000124B13EA200338BF1346134AD8E70A2D22
:104E70000DD1B4FBF5F305FB13440B4ACDE9003427
:104E80000A4B13EA200338BF13460C4AC8E7064A08
:104E9000064B009413EA200338BF1346084A3046F5
:104EA0001BF050F9BFE700BF29340208283C020874
:104EB0002D33020839330208453302085133020802
:104EC0005D3302082DE9F0410F4605463A21384688
:104ED0001BF00AFA38B3002300F8013B1AF06DF911
:104EE000C4B205F29448002658F8041F3846FBF770
:104EF00077F908B9F6B203E001360B2EF4D100269B
:104F000095F88C33B34203D195F88D23A2420CD08F
:104F100013B9012385F8FA3385F88C6385F88D433E
:104F20000120BDE8F0810446DBE70020F9E710B579
:104F300010460C461AF03EF951EC100BFBF76CFED4
:104F400094ED007A07EE900AB4EE677AF1EE10FA6B
:104F500016BF01200020C4ED007A10BD10B5104628
:104F60000C461AF02AF922680346824216BF012035
:104F70000020236010BD2DE9F04107460C46154680
:104F800002F10C080026294622463846FFF7CFFFDB
:104F90002C21002818BF064620461BF0A5F920B199
:104FA0000435454500F10104EDD13046BDE8F081FE
:104FB00090F8CC3310B5044663B3D0EDE77AF5EE44
:104FC000407AF1EE10FA0FD1D0EDE87AF5EE407AA2
:104FD000F1EE10FA08D1D0EDE97AF5EE407AF1EE73
:104FE00010FA14BF0123002394F8D42363F3C302FF
:104FF000002384F8D423C4F89C33C4F8A033C4F845
:10500000A43394F8D43394F8CD2362F3451384F891
:10501000D43310BD00F56772FFF7ADFF94F8D433B9
:1050200060F3C30384F8D433EBE770B50E4604464F
:105030002C2130461BF058F90546002305F8013BAA
:10504000324604F570712046FFF788FF28B194F8C6
:10505000D63343F0010384F8D6332C2128461BF0C5
:1050600043F90646002306F8013B2A4604F5717110
:105070002046FFF773FF28B194F8D63343F00203BC
:1050800084F8D633324604F57D712046FFF766FF7B
:1050900028B194F8D63343F0040384F8D63370BDB6
:1050A00070B50D4604462C2128461BF01DF9064616
:1050B000002306F8013B2A4604F572712046FFF7EB
:1050C00036FF28B194F8D53343F0020384F8D53382
:1050D0002C2130461BF008F9054610B1002305F8D5
:1050E000013B324604F57A712046FFF720FF28B1D4
:1050F00094F8D53343F0040384F8D53365B12A46D8
:1051000004F57B712046FFF712FF28B194F8D533E0
:1051100043F0040384F8D53370BD00002DE9F84353
:1051200000F5B676B24904463046FBF759F8054615
:1051300048B90CF0A6FD84F87153C4F8800384F8D4
:10514000DD53BDE8F88394F86C31242B10D13D2158
:1051500030461BF0C9F8054650B1002305F8013B65
:1051600004F26D101AF029F80D284DD020285BD0DC
:1051700094F86C313C2B40F05181012384F870335A
:105180000CF07FFD9B49C4F8780304F26D101BF00E
:10519000DDF80546F8B101462046FFF793FE28B139
:1051A00094F8D43343F0020384F8D43394F8DC3316
:1051B00063B194F88C33052B08D094F8D5330022D2
:1051C00062F3C30384F8DC2384F8D53389490020D3
:1051D0001BF0BCF80546884FDFF83882DFF83892BC
:1051E000002675BB002EACD194F8DE33002B94F86A
:1051F000D53314BF0122002262F3861384F8D5331D
:105200009FD084F8DE639CE7284694F8FC7319F07D
:10521000D4FF8742ACD0284619F0CFFF84F8FC03B6
:10522000012384F8FB33A3E7284694F8FD7319F0B3
:10523000C4FF87429CD0284619F0BFFF84F8FD03C5
:10524000EEE70522394628461BF05BF8E8B994F8EA
:10525000CC3343B9012384F8CC3394F8D43343F0EE
:10526000080384F8D43304F56472691D2046FFF7FF
:1052700082FE94F8D43360F3820384F8D4335D491A
:1052800000201BF063F80546ABE70522414628469F
:105290001BF037F830B994F8CC33002BE3D084F806
:1052A000CC03DAE70322494628461BF02AF820B946
:1052B000E91C2046FFF7F4FEE1E7504904222846A6
:1052C0001BF01FF820B9291D2046FFF771FED6E715
:1052D0004B49032228461BF014F8D0B904F2DD3301
:1052E000023504F2E73103F8010F15F8012F5AB126
:1052F0003E2A09D094F8D52342F0400284F8D52301
:105300002A781A708B42EED1002384F8E733012605
:10531000B5E73C49022228461AF0F3FF68B9AB789A
:10532000A3F131004342434184F8D03394F8D5339C
:1053300043F0200384F8D533A1E7334902222846FD
:105340001AF0DFFF30BB94F8D433A4F8F80343F02D
:1053500040030235A4F8F00384F8D433012240F26C
:10536000011115F8013B002B89D04D2B0CD006D82C
:10537000432B0CD0462BF4D184F8F823F1E7532BC0
:10538000EFD1A4F8F023ECE784F8F923E9E7A4F8D7
:10539000F013E6E71D49032228461AF0B2FF20B9B0
:1053A000E91C2046FFF741FE69E719490422284617
:1053B0001AF0A7FF00287FF462AF2A7994F8CF3360
:1053C000A2F131014A424A419A4209D083F00103D5
:1053D00084F8CF3394F8D43343F0010384F8D43302
:1053E00094F8D83343F0010384F8D83347E700BF7B
:1053F0006333020866330208683302087833020810
:105400007D330208CE2B0208813302088433020860
:10541000883302086E330208743302085B2B29D1EB
:1054200004F26D152949042228461AF06AFF68B96A
:1054300004F56A7204F271112046FFF79CFD94F89E
:10544000D63360F3C30384F8D6337AE620490422C6
:1054500028461AF056FF00287FF473AE04F56D72EB
:1054600004F271112046FFF786FD94F8D63360F3FD
:105470000413E8E71749062230461AF042FF0546B2
:1054800070B904F5B97019F098FE94F8D53384F822
:10549000DD0343F0100384F8D53384F8715350E6EC
:1054A0000D49062230461AF02CFF00287FF449AE41
:1054B00004F5B97019F081FE94F8D53384F8DC0353
:1054C00043F0080384F8D5333BE600BF8D33020870
:1054D00092330208973302089E33020873B5002600
:1054E00004468DF80760A06E03680DF107011B6983
:1054F0009847C0B208B102B070BD9DF80720182AC5
:1055000002D1A4F86C63EEE70A2AB4F86C3301D038
:105510000D2A2DD1002BF4D023440A2283F86C21CC
:105520000D2283F86D2104F5B675002283F86E21F3
:105530002846FAF75FFE29460246124813F0A5F8FE
:1055400010B9104813F0BBF8B4F86C3323440022B0
:1055500004F2844583F86C214FF0FF3128460CF0AB
:10556000B1F92046FFF7DAFD28460CF0D0F9C8E77C
:10557000B3F5FE7F9FBF591C1B19A4F86C1383F869
:105580006C21B0E7D4DD012070B5044600F28446FA
:105590004FF0FF3130460CF095F9D4F884536B1C72
:1055A000012B38BF0123C4F8843330460CF0AFF927
:1055B000284670BD70B590F8CF33A2B004460D46B2
:1055C000164613B990F86E338BB194F88C3373B1DF
:1055D0002046FFF7D9FF6A1E01900DF107017F35C4
:1055E00012F8013F01F8013F23B1AA42F8D10C2083
:1055F00022B070BD1A4601A920460CF09EF8019B0E
:105600003360C0B2F4E7000007B50022044980F817
:10561000DD2301AAFFF7CEFF03B05DF804FB00BF56
:105620009E3C020807B5034901AAFFF7C3FF03B078
:105630005DF804FB993C020810B50446FFF74EFFE5
:105640000CF01FFBD4F87833C01AB0F5967F81BFF9
:10565000002384F88C33012384F8703394F8CF331B
:1056600013B994F86E3313B194F88C3363B994F88A
:1056700071334BB1002384F87133D4F88433C4F808
:105680008833562384F8DD3302F05EFE0379012B64
:105690000DD194F86F2394F8CF3372B994F8CF33C7
:1056A0006BB994F86E3353B94FF0000010BD02F09F
:1056B0004BFE0379022BF1D1EBE7002B38D094F8A5
:1056C000FA332BB12046FFF7ADFF002384F8FA33FD
:1056D00094F8CF331BB994F86E33002BE4D094F8D0
:1056E0007033002BE0D00CF0CCFAD4F87433C01A2D
:1056F0006428D9D9A06E03681B6A98470028D3D0C4
:105700000CF0BFFAC4F87403A06E1B49002384F8A0
:10571000703303680122DB69984717491748012253
:1057200012F0B3FF0028BFD1144812F0C8FFBBE746
:1057300094F86E33002BC2D194F8D833DB0711D51F
:105740008B212046FFF7C6FA0CF09BFA94F8D83369
:10575000C4F87403002262F3000384F8702384F811
:10576000D8339BE70CF08DFAD4F87833C01AB0F533
:10577000967FE5D892E700BFA5330208D4DD01206B
:1057800007B5034901AAFFF715FF03B05DF804FB55
:10579000943C020807B5034901AAFFF70BFF03B0C9
:1057A0005DF804FB8E3C020807B5034901AAFFF728
:1057B00001FF03B05DF804FB893C020807B503490B
:1057C00001AAFFF7F7FE03B05DF804FB843C020872
:1057D0002DE9F0410229AEB004460D4617461E469B
:1057E0004FD890F8CF331BB990F86E33002B4AD0C6
:1057F00094F88C3303F0FD03012B44D12046FFF7CE
:10580000C3FE94F8FC330D90002B0DF1140842F206
:10581000107308BF4FF47A73009310223B46414641
:105820002046FFF7E3FA09AF6423009310223346C2
:1058300039462046FFF7DAFA94F8FC139DF8D000B9
:10584000124B134ACDE9028705F59175002818BF60
:105850001A4654F82530CDE900230E4A0E4B0EA807
:10586000002908BF13460D4A80211AF06BFC002363
:105870001A460DA920460BF060FFC0B22EB0BDE85D
:10588000F0810220FAE70C20F8E700BFAF330208EE
:10589000B3330208A7330208AB330208B733020858
:1058A0002DE9F0410229AAB004460D4617461E46CE
:1058B0003ED890F8CF331BB990F86E33002B39D017
:1058C00094F88C3303F0FD03012B33D12046FFF70E
:1058D0005BFE94F8FC330990002B0DF1140842F2A2
:1058E000107308BF4FF47A73009310223B46414671
:1058F0002046FFF77BFA94F8FC130F4ACDE90186A6
:1059000005F591750AA854F8253000930B4B002932
:1059100008BF13460A4A80211AF014FC00231A46D5
:1059200009A920460BF009FFC0B22AB0BDE8F081FA
:105930000220FAE70C20F8E7A7330208AB3302088D
:10594000C83302082DE9F0431E4690F8CF33BBB0B0
:105950000446884691461BB990F86E33002B6DD0F3
:1059600094F88C3303F0FD03012B67D12046FFF739
:105970000BFE94F8FC33199042F21075002B14BF03
:105980002B464FF47A7309AF0093102243463946F1
:105990002046FFF72BFA94F8FC33002B14BF2B465C
:1059A0004FF47A730DF13408009310224B464146B0
:1059B0002046FFF71BFA94F8FC33002B08BF4FF486
:1059C0007A750DF144090095334610224946204668
:1059D000FFF70CFA15AD642300931022429B294671
:1059E0002046FFF703FA94F8FC139DF80C01144BC2
:1059F000144ACDE90695002818BF1A46D4F8903409
:105A0000CDE90483D4F88C34CDE90273D4F888341A
:105A1000CDE900230C4A0D4B1AA8002908BF1346F4
:105A20000B4A80211AF08EFB00231A4619A9204642
:105A30000BF083FEC0B23BB0BDE8F0830C20FAE768
:105A4000AF330208B3330208A7330208AB330208AE
:105A5000DE3302082DE9F043994690F8CF33BBB00E
:105A600004460F4690461BB990F86E33002B71D058
:105A700094F88C33013B022B6CD82046FFF784FD51
:105A800094F8FC33199042F21075002B14BF2B468A
:105A90004FF47A7309AE009310223B4631462046FC
:105AA000FFF7A4F994F8FC33002B14BF2B464FF4F6
:105AB0007A730DAF00931022434639462046FFF714
:105AC00095F994F8FC33002B08BF4FF47A750DF16B
:105AD000440800954B46102241462046FFF786F9C0
