:020000040800F2
:1000000000000220912B020831220208332202084C
:1000100035220208372202083922020800000000B7
:100020000000000000000000000000003114020881
:100030003B22020800000000C11402083D22020811
:10004000E12B0208E12B0208E12B0208E12B020858
:10005000E12B0208E12B0208E12B0208E12B020848
:10006000E12B0208E12B0208E12B0208E12B020838
:10007000E12B0208E12B0208E12B0208E12B020828
:10008000E12B0208E12B0208E12B0208000000002E
:10009000000000000000000000000000E12B02084A
:1000A000E12B0208E12B0208E12B0208E12B0208F8
:1000B000E12B0208E12B0208E12B0208E12B0208E8
:1000C000E12B0208E12B0208E12B0208E12B0208D8
:1000D000E12B020855220208E12B02080000000073
:1000E000E12B0208E12B0208E12B020800000000CE
:1000F000000000000000000000000000E12B0208EA
:100100000000000061220208E12B0208E12B020836
:1001100000000000000000000000000000000000DF
:10012000E12B0208E12B02086D2202087922020865
:10013000E12B0208000000000000000000000000A9
:1001400000000000000000000000000085220208FE
:1001500091220208E12B02089D220208E12B0208ED
:10016000E12B0208E12B0208000000000000000063
:10017000000000000000000000000000000000007F
:1001800000000000E12B0208000000000000000059
:08019000E12B0208E12B02083B
:1001A00010B5054C237833B9044B13B10448AFF3B1
:1001B00000800123237010BD100300200000000008
:1001C0007078020808B5034B1BB103490348AFF32D
:1001D000008008BD000000001403002070780208B1
:1001E00010F8012B11F8013B012A28BF9A42F7D0E1
:1001F000D01A7047034613F8012B002AFBD1181AB6
:1002000001387047000000000000000000000000FE
:1002100001F0FF01102A2BDB10F0070F08D010F8B7
:10022000013B013A8B422DD010F0070F42B3F6D1BB
:10023000F0B441EA012141EA014122F007047FF0D4
:1002400000070023F0E80256083C85EA010586EA2B
:10025000010685FA47F5A3FA87F586FA47F6A5FA67
:1002600087F68EB9EED1F0BC01F0FF0102F0070273
:1002700032B110F8013B013A83EA010313B1F8D11E
:100280000020704701387047002D06BF35460338FF
:10029000073815F0010F07D1013015F4807F02BF38
:1002A000013015F4C03F0130F0BC0138704700BF89
:1002B00081F0004102E000BF83F0004330B54FEA17
:1002C00041044FEA430594EA050F08BF90EA020F84
:1002D0001FBF54EA000C55EA020C7FEA645C7FEA17
:1002E000655C00F0E2804FEA5454D4EB5555B8BF3A
:1002F0006D420CDD2C4480EA020281EA030382EAAB
:10030000000083EA010180EA020281EA0303362D3C
:1003100088BF30BD11F0004F4FEA01314FF4801C0F
:100320004CEA113102D0404261EB410113F0004F21
:100330004FEA03334CEA133302D0524263EB4303D8
:1003400094EA050F00F0A780A4F10104D5F1200E76
:100350000DDB02FA0EFC22FA05F2801841F10001D1
:1003600003FA0EF2801843FA05F359410EE0A5F1A5
:1003700020050EF1200E012A03FA0EFC28BF4CF0D6
:10038000020C43FA05F3C01851EBE37101F000458C
:1003900007D54FF0000EDCF1000C7EEB00006EEB99
:1003A0000101B1F5801F1BD3B1F5001F0CD3490823
:1003B0005FEA30004FEA3C0C04F101044FEA44527A
:1003C00012F5800F80F09A80BCF1004F08BF5FEA01
:1003D000500C50F1000041EB045141EA050130BDE1
:1003E0005FEA4C0C404141EB0101013C28BFB1F5F3
:1003F000801FE9D291F0000F04BF01460020B1FA3E
:1004000081F308BF2033A3F10B03B3F120020CDA10
:100410000C3208DD02F1140CC2F10C0201FA0CF0EE
:1004200021FA02F10CE002F11402D8BFC2F1200C53
:1004300001FA02F120FA0CFCDCBF41EA0C01904009
:10044000E41AA2BF01EB0451294330BD6FEA040452
:100450001F3C1CDA0C340EDC04F11404C4F120023D
:1004600020FA04F001FA02F340EA030021FA04F34F
:1004700045EA030130BDC4F10C04C4F1200220FAA6
:1004800002F001FA04F340EA0300294630BD21FAE4
:1004900004F0294630BD94F0000F83F4801306BFAA
:1004A00081F480110134013D4EE77FEA645C18BF9E
:1004B0007FEA655C29D094EA050F08BF90EA020F35
:1004C00005D054EA000C04BF1946104630BD91EA2D
:1004D000030F1EBF0021002030BD5FEA545C05D130
:1004E0004000494128BF41F0004130BD14F580046F
:1004F0003CBF01F5801130BD01F0004545F0FE41E3
:1005000041F470014FF0000030BD7FEA645C1ABF17
:10051000194610467FEA655C1CBF0B46024650EA4E
:10052000013406BF52EA033591EA030F41F400217A
:1005300030BD00BF90F0000F04BF0021704730B500
:100540004FF4806404F132044FF000054FF00001D5
:1005500050E700BF90F0000F04BF0021704730B596
:100560004FF4806404F1320410F0004548BF40426B
:100570004FF000013EE700BF42004FEAE2014FEAC0
:1005800031014FEA02701FBF12F07F4393F07F4F9B
:1005900081F06051704732F07F4208BF704793F09E
:1005A0007F4F04BF41F40021704730B54FF46074B1
:1005B00001F0004521F000411CE700BF50EA0102B4
:1005C00008BF704730B54FF000050AE050EA01025D
:1005D00008BF704730B511F0004502D5404261EBCD
:1005E00041014FF4806404F132045FEA915C3FF40E
:1005F000D8AE4FF003025FEADC0C18BF03325FEAAB
:10060000DC0C18BF033202EBDC02C2F1200300FA5B
:1006100003FC20FA02F001FA03FE40EA0E0021FA80
:1006200002F11444BDE600BF70B54FF0FF0C4CF46E
:10063000E06C1CEA11541DBF1CEA135594EA0C0F20
:1006400095EA0C0F00F0DEF82C4481EA030621EA5B
:100650004C5123EA4C5350EA013518BF52EA033596
:1006600041F4801143F4801338D0A0FB02CE4FF048
:100670000005E1FB02E506F00042E0FB03E54FF078
:100680000006E1FB03569CF0000F18BF4EF0010E70
:10069000A4F1FF04B6F5007F64F5407404D25FEA6C
:1006A0004E0E6D4146EB060642EAC62141EA55511F
:1006B0004FEAC52040EA5E504FEACE2EB4F1FD0C61
:1006C00088BFBCF5E06F1ED8BEF1004F08BF5FEADF
:1006D000500E50F1000041EB045170BD06F0004691
:1006E00046EA010140EA020081EA0301B4EB5C043E
:1006F000C2BFD4EB0C0541EA045170BD41F4801136
:100700004FF0000E013C00F3AB8014F1360FDEBF5A
:10071000002001F0004170BDC4F10004203C35DA36
:100720000C341BDC04F11404C4F1200500FA05F3B9
:1007300020FA04F001FA05F240EA020001F000425A
:1007400021F0004110EBD37021FA04F642EB0601D0
:100750005EEA430E08BF20EAD37070BDC4F10C04FA
:10076000C4F1200500FA04F320FA05F001FA04F2BE
:1007700040EA020001F0004110EBD37041F10001AA
:100780005EEA430E08BF20EAD37070BDC4F12005B5
:1007900000FA05F24EEA020E20FA04F301FA05F21D
:1007A00043EA020321FA04F001F0004121FA04F2C5
:1007B00020EA020000EBD3705EEA430E08BF20EA95
:1007C000D37070BD94F0000F0FD101F000464000CF
:1007D00041EB010111F4801F08BF013CF7D041EA51
:1007E000060195F0000F18BF704703F00046520055
:1007F00043EB030313F4801F08BF013DF7D043EA26
:100800000603704794EA0C0F0CEA135518BF95EADB
:100810000C0F0CD050EA410618BF52EA4306D1D162
:1008200081EA030101F000414FF0000070BD50EA81
:10083000410606BF1046194652EA430619D094EA0B
:100840000C0F02D150EA013613D195EA0C0F05D1F5
:1008500052EA03361CBF104619460AD181EA030149
:1008600001F0004141F0FE4141F470014FF0000001
:1008700070BD41F0FE4141F4780170BD70B54FF09C
:10088000FF0C4CF4E06C1CEA11541DBF1CEA13551C
:1008900094EA0C0F95EA0C0F00F0A7F8A4EB0504FE
:1008A00081EA030E52EA03354FEA013100F08880F5
:1008B0004FEA03334FF0805545EA131343EA1263BE
:1008C0004FEA022245EA111545EA10654FEA002673
:1008D0000EF000419D4208BF964244F1FD0404F52C
:1008E000407402D25B084FEA3202B61A65EB030588
:1008F0005B084FEA32024FF480104FF4002CB6EB45
:10090000020E75EB030E22BFB61A754640EA0C00C4
:100910005B084FEA3202B6EB020E75EB030E22BF04
:10092000B61A754640EA5C005B084FEA3202B6EB45
:10093000020E75EB030E22BFB61A754640EA9C0004
:100940005B084FEA3202B6EB020E75EB030E22BFD4
:10095000B61A754640EADC0055EA060E18D04FEA92
:10096000051545EA16754FEA06164FEAC30343EA32
:1009700052734FEAC2025FEA1C1CC0D111F4801FFF
:100980000BD141EA00014FF000004FF0004CB6E7F8
:1009900011F4801F04BF01430020B4F1FD0C88BF97
:1009A000BCF5E06F3FF6AFAEB5EB030C04BFB6EBA2
:1009B000020C5FEA500C50F1000041EB045170BD95
:1009C0000EF0004E4EEA113114EB5C04C2BFD4EBC2
:1009D0000C0541EA045170BD41F480114FF0000E46
:1009E000013C90E645EA060E8DE60CEA135594EAC2
:1009F0000C0F08BF95EA0C0F3FF43BAF94EA0C0FC5
:100A00000AD150EA01347FF434AF95EA0C0F7FF439
:100A100025AF104619462CE795EA0C0F06D152EA8D
:100A200003353FF4FDAE1046194622E750EA410671
:100A300018BF52EA43067FF4C5AE50EA41047FF482
:100A40000DAF52EA43057FF4EBAE12E74FF0FF3CE7
:100A500006E000BF4FF0010C02E000BF4FF0010CB8
:100A60004DF804CD4FEA410C7FEA6C5C4FEA430C31
:100A700018BF7FEA6C5C1BD001B050EA410C0CBF80
:100A800052EA430C91EA030F02BF90EA020F0020E2
:100A9000704710F1000F91EA030F58BF994208BF49
:100AA00090422CBFD8176FEAE37040F00100704706
:100AB0004FEA410C7FEA6C5C02D150EA013C07D15D
:100AC0004FEA430C7FEA6C5CD6D152EA033CD3D0A8
:100AD0005DF8040B704700BF8446104662468C46A2
:100AE0001946634600E000BF01B5FFF7B7FF0028D5
:100AF00048BF10F1000F01BD4DF808EDFFF7F4FFFE
:100B00000CBF012000205DF808FB00BF4DF808ED88
:100B1000FFF7EAFF34BF012000205DF808FB00BFAB
:100B20004DF808EDFFF7E0FF94BF012000205DF8CD
:100B300008FB00BF4DF808EDFFF7CEFF94BF012082
:100B400000205DF808FB00BF4DF808EDFFF7C4FF7B
:100B500034BF012000205DF808FB00BF4FEA410CC4
:100B60007FEA6C5C02D150EA013C0AD14FEA430CA7
:100B70007FEA6C5C02D152EA033C02D14FF00000E4
:100B800070474FF0010070474FEA410212F5001222
:100B900015D211D56FF47873B3EB625212D94FEAC4
:100BA000C12343F0004343EA505311F0004F23FAAE
:100BB00002F018BF404270474FF00000704750EA03
:100BC000013005D111F0004008BF6FF000407047C0
:100BD0004FF00000704700BF4A0011D212F500121A
:100BE00011D20DD56FF47873B3EB62520ED44FEA85
:100BF000C12343F0004343EA505323FA02F0704705
:100C00004FF00000704750EA013002D14FF0FF3042
:100C100070474FF0000070474FEA4102B2F1E043E5
:100C200024BFB3F5001CDCF1FE5C0DD901F0004CD3
:100C30004FEAC0024CEA5070B2F1004F40EB830023
:100C400008BF20F00100704711F0804F21D113F14F
:100C50003872BCBF01F00040704741F480114FEA88
:100C60005252C2F11802C2F1200C10FA0CF320FA11
:100C700002F018BF40F001004FEAC1234FEAD3232E
:100C800003FA0CFC40EA0C0023FA02F34FEA430398
:100C9000CCE77FEA625307D150EA01331EBF4FF021
:100CA000FE4040F44000704701F0004040F0FE403C
:100CB00040F40000704700BF53B94AB9002908BF8B
:100CC00000281CBF4FF0FF314FF0FF3000F0BEB9DD
:100CD000ADF1080C6DE904CE00F03CF8DDF804E05D
:100CE000DDE9022304B0704738B500220023044632
:100CF0000D46FFF70BFF28B920462946BDE83840CE
:100D000000F00AB8204605F1004100F005F8404225
:100D100061EB410138BD00BFD0B50C4B0022064647
:100D20000F46FFF781FCFFF757FF0446FFF702FC71
:100D3000074B0022FFF778FC02460B463046394647
:100D4000FFF7BAFAFFF748FF2146D0BD0000F03D9B
:100D50000000F0412DE9F047089D8E460446884684
:100D6000002B4AD18A42174662D9B2FA82F64EB1B6
:100D7000C6F1200301FA06F820FA03F3B74043EA6C
:100D80000808B4404FEA174E1FFA87FCB8FBFEF183
:100D9000230C0EFB118843EA084301FB0CF29A4234
:100DA00009D9FB1801F1FF3080F0EA809A4240F245
:100DB000E78002393B449A1AA3B2B2FBFEF00EFB65
:100DC000102243EA024300FB0CFC9C4509D9FB18A6
:100DD00000F1FF3280F0D6809C4540F2D3803B4446
:100DE000023840EA0140A3EB0C0300211DB1F3409F
:100DF0000022C5E90032BDE8F0878B4205D90DB16C
:100E0000C5E9000100210846F5E7B3FA83F100299E
:100E100046D1734502D3824200F20581841A6EEBFB
:100E2000030201209046002DE5D0C5E90048E2E725
:100E3000002A00F09080B2FA82F6002E40F0A480E2
:100E40008A1A030C4FEA174E80B2BCB20121B2FBE2
:100E5000FEFC0EFB1C2243EA024304FB0CF29A4206
:100E600007D9FB180CF1FF3802D29A4200F2E08059
:100E7000C4469B1AB3FBFEF20EFB123340EA034357
:100E800002FB04F49C4207D9FB1802F1FF3002D2A6
:100E90009C4200F2CA8002461B1B42EA0C40A5E7B6
:100EA000C1F120068B4022FA06F71F430EFA01F427
:100EB00020FA06F32EFA06FE4FEA1749234300FAFA
:100EC00001F81FFA87FCBEFBF9F01C0C09FB10EEC1
:100ED00044EA0E4400FB0CFEA64502FA01F209D9D1
:100EE0003C1900F1FF3A80F09C80A64540F29980C1
:100EF00002383C44A4EB0E041FFA83FEB4FBF9F362
:100F000009FB13444EEA044403FB0CFCA44508D936
:100F10003C1903F1FF3E80F08280A4457FD9023B5B
:100F20003C4443EA0040A4EB0C04A0FB02EC644503
:100F30007346E14662D35FD05DB1B8EB030264EB68
:100F4000090404FA06F622FA01F31E43CC40C5E96F
:100F5000006400214FE7B1FBF2FC010C41EA0E41B5
:100F600080B240EA01423B4638463C46B846BE465F
:100F70002026B1FBF7F1A2EB080241EA0C4166E73B
:100F8000014618E710462CE7C6F120022EFA02F3BC
:100F9000B740B14020FA02F24FEA174E0A43B3FBC2
:100FA000FEF8BCB20EFB1833110C41EA034108FBFA
:100FB00004F9B04089454FEA104380B23ED9791810
:100FC00008F1FF3C01D289451FD8A1EB0901B1FB13
:100FD000FEF909FB04F80EFB191192B242EA014234
:100FE000424529D2BA1809F1FF31C4D24245C2D2D2
:100FF000A9F102013A44BEE7F0459DD2BEEB0203DF
:101000006CEB070C0138E14696E7A7EB0909494468
:10101000A8F1020CB1FBFEF909FB04F8DBE773460B
:101020007FE7504666E70846FDE63B44023A33E771
:10103000ACF1020C3B441CE749469CE7A1EB0901DB
:10104000C446B1FBFEF909FB04F8C4E7704700BFD2
:1010500003798B4228BF0431C91AC9B24171704764
:10106000036810B504461B6998476379003B18BFB5
:1010700001231B1A5842584110BD000038B5124CCC
:10108000236800255D622946204619F0FBFE2946AB
:10109000204619F078FB226813699907FCD50A48A5
:1010A000002119F070FB2268054613699B07FCD5E7
:1010B0000021054819F067FB00210446024819F099
:1010C00047FF601B38BD00BF40DE012010B5144B48
:1010D0001A689403FCD59A6822F0030242F00102D8
:1010E0009A60104A002414661A689201FCD45A6867
:1010F00022F48002104358605A6822F03F021143E4
:101100005960084B01221A66054A13689B01FCD5F9
:10111000936823F0030343F00203936010BD00BF04
:1011200000380240000047427FB510210020FFF741
:10113000CDFFFFF7A3FF134B134A1B6803EB4303D9
:10114000B3FBF2F398421AD91422002101A824F02B
:10115000EBF90223009368460C4B049317F014FE3E
:1011600008B120F023FE0A4B0122C3F83C2E0821CF
:101170004FF4800007B05DF804EBFFF7A7BF19211B
:10118000F6E700BFDC00002080841E00000308009A
:101190000000474270B510210020FFF797FF0F4D68
:1011A0000F4E1F24FFF76AFF2B6832680D49B2FB10
:1011B000F1F28242C3F3C4030BD243B1013B2A686C
:1011C00022F0F80242EAC302013C2A60EAD1184642
:1011D00070BDFCD91F2BFAD00133F0E70038024074
:1011E000DC00002040420F0013B5FFF7D3FF044698
:1011F00017F06CFE15F00EFA114A136823F0F8038D
:1012000043EAC40313604FF0E02300221A615A61DD
:101210009A610C4B0193019B596862B60A4B1A689C
:1012200022F003021A601A6842F001021A60019B60
:101230001B6883F3088802B0BDE81040084700BF70
:10124000003802400000FF1F0038014010B5FFF7D2
:101250006BFF1C48FFF704FF08B1FFF7C5FF09F05B
:10126000E7FB194909F006FC10F0B6FE174A1849C9
:1012700010F03CFF14F028FE036816491C6A164B58
:101280000022A04706F0D8FF1449002207F030F8EA
:101290001348FFF7E5FE30B110F050F80368BDE8E1
:1012A00010401B6818470F48FFF7DAFE10B104F032
:1012B000E5FDF3E705F0C8F80B4905F061F900F02A
:1012C00039FDEBE7480400202C03002044030020F4
:1012D00064030020D0DE01203804002088DE0120D5
:1012E00068040020580400209003002000BEFEE7A0
:1012F000704700002DE9F0474349DFF86091434F04
:10130000434B4448DFF85881DFF858A1C9F8003052
:101310001022C9E902120822FA603F4AB96000248B
:101320004FF48066C2E900349060D6603B4A3C4E80
:1013300090600125C8E902050220C2E90034D060AE
:10134000384AC9F80450C2E90215C2E90034364AE5
:10135000C8E90035C2E90035C7E900354FF48073AC
:10136000D3604FF06413CAF80430304BCAF8003031
:101370002F4B9160CAF808304FF0051373602D4B66
:10138000336006F10C002C4BB36014F069FA2B4B60
:101390002B4A1A602B4AC3F88420A3F888402A4BB2
:1013A0002A4818604FF4F07229481C760321C3E9DB
:1013B00001124FF4A071C3E9031259610571C18094
:1013C000244D0281C3E907A9C3E909872146224BBD
:1013D00003604471C6600474C0F81240C0F816403F
:1013E000C0F81A40FFF734FE4FF400404023C5E92F
:1013F00000034220C5E903462C726C6110F0ACFD7D
:10140000E860BDE8F08700BF0000024078040020DB
:10141000B426030800040240680400205804002099
:101420001C0400204804002038040020242703085E
:10143000E4DD0120D826030848DC012090030020C9
:1014400074270308D8DF01206403002064B4020875
:10145000440300202C0300203CB402089804002020
:10146000880400202C04002008B5074BD86810B170
:10147000012121F0B6FB0548054B40F80C3BBDE8C7
:10148000084014F0F7B900BF2C0300201C04002012
:10149000D82603084FF0000070474FF00000704757
:1014A0004FF0000070474FF0000070474FF0000011
:1014B000704700F5005090F86C01003818BF01200B
:1014C0008000704710B5074B044640F8283B14F0E5
:1014D000AEFB04F1140014F027FA201D14F024FAD6
:1014E000204610BDA092020810B50446FFF7EAFF9F
:1014F00020464C2121F075FB204610BD14F046B863
:1015000038B568B30B784D78DBB900F5B154A369F1
:1015100018345B692046984788B1236820465B6C85
:10152000984760B12946204615F024F83DB9236854
:1015300020465B6C984710B1204615F02AF8002031
:1015400038BD012B02D100F5BD54E0E7062BF6D1E2
:10155000002DF4D0036800F638419B699847EEE708
:101560000220EDE708B51FF0DFFBBDE808401FF0E3
:10157000ADBA000010B5044613F0E8FA044B23603E
:101580000023C4E9083384F82830E362204610BD04
:1015900070BD020810B5044613F0D8FA064B23605C
:1015A0000122002384F82C20C4E90833A3622363BA
:1015B00084F83430204610BDD0BE020810B5044671
:1015C00013F0C4FA012284F82C204FF080714FF000
:1015D000FF32C4E90D12054B23600023C4E9083330
:1015E000A3622363A4F84030204610BD18BD020852
:1015F00010B5044613F0AAFA0A4B23606FF07F423D
:101600000023C4E90833C4E90A332263A38604F142
:101610003800FFF7D3FF04F17C00FFF7CFFF20462F
:1016200010BD00BFCC27030810B5034B0360044670
:1016300013F09EFA204610BD70BD020810B5044696
:10164000FFF7F2FF2046302121F0CBFA204610BDF3
:1016500010B5034B0360044613F08AFA204610BD10
:10166000D0BE020810B50446FFF7F2FF204638212D
:1016700021F0B7FA204610BD38B5044613F066FADB
:101680001C4B236000254FF47F420123C4E90D2346
:101690004FF00041C4E90F536FF00043C4E9111348
:1016A0004FF0FF33E364C4E90855A56284F82C5079
:1016B000256304F15000FFF75DFF04F18000FFF7A0
:1016C00069FF04F1B800FFF765FF2946182204F10D
:1016D000F00023F029FF1022294604F5847023F03E
:1016E00023FF84F8185110F077FCC4F81C01204641
:1016F00038BD00BFF092020838B5094B094D0360B0
:10170000044640F87C5F13F033FA204640F8385F17
:1017100013F02EFA204613F02BFA204638BD00BFF6
:10172000CC27030818BD020810B50446FFF7E4FFF4
:101730002046C02121F055FA204610BD2DE9F8437E
:101740000446002613F002FAC4E90866C4E90A66F2
:101750002D4BDFF8C0902360266304F1340504F5B7
:10176000EA774FF0FF38284613F0F0F9C5F80090FB
:1017700085F82060C5F82C8085F83060C5E90966D9
:101780003435BD42EFD104F5657628463835FFF78C
:1017900001FFAE42F9D1354604F694162846C0350D
:1017A000FFF726FFAE42F9D13046002513F0CEF9FF
:1017B000164BC4F89439C4F8B45904F6B810FFF7BE
:1017C00017FF04F67820FFF713FF04F63830FFF711
:1017D000D1FE04F6683013F0B9F90D4BC4F8683B3C
:1017E000C4F8885BC4F88C5BC4F8905B84F8945BA5
:1017F000C4F8985BC4F89C5B10F0EEFBC4F8A00B37
:101800002046BDE8F88300BFA49A020820BE020863
:10181000C8BD0208C0B4020810B5094B044640F820
:10182000B83BFFF715FF04F18000FFF711FF04F14B
:101830005000FFF7F9FE204613F09AF9204610BD3C
:10184000F092020810B50446FFF7E6FF20464FF479
:10185000907121F0C6F9204610BD00000A22002335
:1018600070B5C0E905230446C0E90033C0E902337E
:101870000374C361203013F02DF804F14C00FFF71E
:1018800079FE04F17C0013F061F9284BE36704F161
:101890009C00FFF77FFE04F1D400FFF7EDFE04F596
:1018A000FA70FFF7A5FE04F52D70FFF7A1FE04F511
:1018B0005D70FFF79DFE1E4B93E8070004F2344570
:1018C00085E8070004F5886603F10C023C331068D4
:1018D0005168354603C508329A422E46F7D104F5C1
:1018E0008E60FFF785FE04F5A660FFF781FE10F01D
:1018F00073FB002384F8003684F81836C4F8F0052A
:10190000C4F8F435C4F8F835C4F8FC35C4F8043626
:10191000C4F80836C4F80C36C4F81036C4F81436C7
:10192000C4F81C36C4F82036204670BDC8BD020875
:101930008878020838B51F4B03601F4BC0F8683B1E
:10194000044600F6683013F013F904F63830FFF758
:101950006BFE04F67820FFF7CFFE04F6B810FFF711
:10196000CBFE164BC4F8943904F6941013F000F92A
:1019700040F6D405635960191B68C03D9847B5F51A
:10198000357FF7D14FF45775635960191B68383D9F
:101990009847B5F5CE7FF7D14FF4D07563596019EC
:1019A0001B689847343DF9D1204613F0E1F82046F2
:1019B00038BD00BFA49A0208C8BD020820BE0208B4
:1019C0002DE9F04100F5D955524B0360143504461A
:1019D00005F5A660FFF790FE05F58E60FFF78CFE1B
:1019E00041F6A86641F66847A359A0191B68C03E96
:1019F0009847BE42F8D105F1D400FFF70DFF05F17D
:101A00009C0004F58055FFF723FEDFF81481C5F82C
:101A1000B08B04F5DD50103013F0AAF804F5DC505B
:101A2000FFF702FE3C4FC5F8547B04F5DA50143042
:101A300013F09EF804F5D250FFF75EFE04F5CC508B
:101A4000FFF75AFE354BC5F83C3904F5C95004F58B
:101A5000C3561C3013F08CF806F1A400FFF7F8FD14
:101A600004F5C750C5F8E488043013F081F806F196
:101A70005400FFF7D9FD04F5C450C5F88878083044
:101A800013F076F804F5BD501830FFF735FE04F575
:101A9000B7501830FFF730FE04F5B1501830FFF79B
:101AA0002BFE04F5AF50FFF7D3FD41F2A85541F2EC
:101AB0005846635960191B68383D9847B542F8D1BC
:101AC00041F27035635960191B68A5F59075984708
:101AD000B5F54B6FF6D104F69850FFF7B9FD04F554
:101AE0005660FFF7B5FD04F62850FFF7B1FD04F688
:101AF000F840FFF799FD04F63840FFF7FDFD04F1CB
:101B00009400FFF717FF2046FFF7DCFC2046BDE8F6
:101B1000F08100BFC892020828BF020818BD020861
:101B2000C8BD020808B50248FFF74AFF08BD00BF5C
:101B3000AC04002010B50446FFF742FF204642F2F5
:101B40008C1121F04EF8204610BD10B50446FFF769
:101B5000F1FE204640F6A43121F043F8204610BDA6
:101B6000F8B56F4B0446102240F8043B22210023B5
:101B700013F0D2FE00230822202104F1140013F0F8
:101B8000CBFE04F505532C33002563621423C4E90E
:101B90000A53644B84F83050C4E90D344FF4C063E9
:101BA000A4F84430022384F8463020465E4BA364F8
:101BB0005E4B84F83C5029464022256440F84C3B5B
:101BC00023F0B2FCC4E9235504F19400FFF7B6FDFD
:101BD00004F63840FFF70CFD04F6F840FFF7CAFCA6
:101BE00004F62850FFF7D6FC04F55660FFF7D2FC48
:101BF00004F69850FFF7CEFC04F5A45604F55D6595
:101C00001036284605F59075FFF736FDB542F8D138
:101C100004F5AF5628463835FFF7BCFCB542F9D17C
:101C20002846FFF7B7FC04F5B1501830FFF7E0FC89
:101C300004F5B7501830FFF7DBFC04F5BD5004F590
:101C4000805618300025FFF7D3FC04F5C357012355
:101C500086F88438C6F87858C6F87C58C6F8805894
:101C600007F1280012F036FE07F15400FFF782FC5E
:101C700004F5C750043012F069FF2D4BC6F8E43864
:101C800007F1A400FFF786FC07F1DC00FFF796FCE4
:101C900004F5CC50FFF7ACFC04F5D250FFF7A8FCDC
:101CA00010F09AF9C6F8000B04F5D950C6F8045B99
:101CB000C6F8085BC6F80C5B86F8105BC6F8145BC8
:101CC000C6F8185BC6F81C5BC6F8205BC6F8245B38
:101CD00086F8285BC6F82C5BC6F8305B143004F538
:101CE0000056FFF7BBFD032386F8583110F074F956
:101CF000C6F85C0106F0A0FAC6F8600104F0A4FB87
:101D0000C6F8640108F094FE86F88051C6F86801B0
:101D1000C6E95D55C6E96155C6F87C512046F8BD57
:101D2000A09202082B570108607D0208C8920208A1
:101D3000C8BD020810B50A4C2368BFF35B8FDB07F0
:101D40000CD4204620F04FFF40B10648FFF708FFB3
:101D5000054822F035FB204620F051FF014810BD18
:101D6000A8040020AC040020251B00082DE9F04F3A
:101D700000F5005785B0D7F85C310546D3F88840A8
:101D80000E46002972D0083C032294FBF2F4D3F8EB
:101D90008CB013F061F80368DB689847804613F055
:101DA0005BF80368DB68984705F5B15909F1180934
:101DB00008EB480800EB40004FF0010AABEB0803CA
:101DC0002D49CDF808A00022CDE90040484614F086
:101DD00033FAFFF7C7FB002301461A46484614F0C2
:101DE000D4FB484614F08FFB05F58058E6B1B8F9EE
:101DF0004026CDF808A0B8F946361F49CDE9004382
:101E000005F5B7561836B8F93E360532304614F0A7
:101E100013FAFFF7A7FB002301461A46304614F0D9
:101E2000B4FB304614F06FFBD7F85C311249D3F89D
:101E3000882001230293B8F94636CDE9004305F521
:101E4000BD551835B8F93E36121B284614F0F4F982
:101E5000FFF788FB002301461A46284614F095FB3D
:101E6000284605B0BDE8F04F14F04DBB04EBD47428
:101E70006410043C8BE700BFF37F020800F50053B9
:101E800000F5B150D3F8643193F87033022B0CBFD6
:101E900002490349183014F076BA00BF6C7D02087D
:101EA000717D020800F50052D2F8642192F8702387
:101EB000012A05D821B100F5B150183014F063BAE9
:101EC000FFF7DCBF00F5005300F5BD50D3F86421E7
:101ED00092F87033052B00F1180008D192F8F13315
:101EE0004F2B02D1054914F04EBA0549FBE7002BF0
:101EF000F8D0092BF6D00349F5E700BFBF8A0208E6
:101F0000757D0208E087020800F50052D2F86421CE
:101F100092F87023012A05D121B100F5BD50183087
:101F200014F031BAFFF7CEBF70B500F14803044694
:101F3000002553F8042F8A4218D1D4F8903004EBCE
:101F40008303D86C03681B69984704F19400C4F8B4
:101F50009050294606F04AF8D4F8903004EB8303F9
:101F6000BDE87040D86C0368DB6818470135102D58
:101F7000DFD170BD70B504468AB004F5B055183590
:101F800003A81FF0A5FC04F5AF56049B144A2021BA
:101F9000284623F0F9F929463046012212F034FA96
:101FA00004F5005304F58054D3F85C31D3F888204D
:101FB000B4F9EC3503EBD37302EBD2725C10C4EBD3
:101FC000620412F00DFF6FF07F43019000932246F0
:101FD0001E232946304612F0C3F80AB070BD00BF78
:101FE0007C7D0208D0F8903000EB830370B5044686
:101FF000D86C03680D461B699847C4F8905004F1EB
:102000009400294605F0F2FFD4F8903004EB8304E5
:10201000E06C0368BDE87040DB68184700F63843A1
:10202000994237B504460D460CD190F8483C4BB167
:1020300000F50054D4F8640190F8523363B904F009
:10204000F9FB0BE004F194039D420BD194F8C0100E
:102050002046FFF7C7FF01E004F022FC4FF000002C
:1020600003B030BDD4F8903004EB83032946D86C1C
:1020700003689B699847C0B20928EFD104F5B153B2
:1020800018339D420CD104F50054D4F8640190F843
:102090007033022B14BF8121822104F0BBFBDDE7EA
:1020A00004F5BD5318339D42D8D104F50054D4F83B
:1020B000640190F87013D0F86823052913D190F8C3
:1020C000F133C0F86C234F2B4FF0000380F8F1334D
:1020D00080F8553301D11821DFE70B49019301AA9C
:1020E00005F0A8F8BAE7002339B1092905D080F82E
:1020F0005533C0F86C231921CFE780F8F13380F80D
:102100005533C0F86C23E6E7927D0208F7B5044624
:1021100000F1940504F50056284605F0B6FD282286
:102120000821D6F85C31CDE9002100221146D3F810
:1021300088300027284605F06FFFC4F88C7012F035
:10214000D9FD39460346644A284605F0E1FE634A54
:10215000D4F88C10284605F073FED4F88C707B1CE4
:10216000C4F88C3002F09CFE04EB8707F864D4F8C6
:102170008C7012F0BFFD3946594A0346284605F0D7
:10218000C7FED4F88C707B1CC4F88C3009F034F98D
:1021900004EB8707F864D4F88C7012F0ABFD394675
:1021A0000346504A284605F0B3FED4F88C707B1CD9
:1021B000C4F88C3001F084FE04EB8707D6F8643154
:1021C000F86493F81D349BB9D4F88C7012F092FD2A
:1021D00039460346444A284605F09AFED4F88C70E6
:1021E0007B1CC4F88C300DF0FBFC04EB8707F86413
:1021F000D4F88C7012F07EFD39463C4A03462846DE
:1022000005F086FED4F88C707B1CC4F88C300CF082
:1022100021FF04EB8707F864D4F88C7012F06AFD94
:1022200039460346324A284605F072FED4F88C70CF
:102230007B1CC4F88C3003F0BBFD04EB8707D6F899
:102240006431F86493F81D349BB9D4F88C7012F0A3
:1022500051FD39460346274A284605F059FED4F871
:102260008C707B1CC4F88C300AF0AEFC04EB870742
:10227000F864D4F88C7012F03DFD39461E4A0346CE
:10228000284605F045FED4F88C707B1CC4F88C30D1
:102290000EF0C4FC04EB8707D4F88C20D6F85C3130
:1022A000F86401922822009200221146D3F8883067
:1022B000284605F0B1FE284605F05EFF00232146C2
:1022C00028461A4605F054FF4FF4FA61284603B039
:1022D000BDE8F04005F099BC967D0208140000208E
:1022E0009A7D0208A37D0208AE7D0208BB7D02082C
:1022F000C87D0208D87D0208DE7D02082DE9F04F76
:102300008BB0044608F094FB08F0B8FB04F50055C8
:102310008DF81B00D5F85C6108F08AFBC1680039B4
:1023200018BF012130460FF0EEFE95F85811D5F890
:102330005C0110F007FAD5F85C31B84AC3F8802088
:10234000D3F88C7012F088FD0368DB689847064666
:1023500012F0D0FC0368DB689847D5F85C31D3F8FD
:1023600088300593824612F0C5FC02689268904757
:10237000834612F0BFFC0268D268904706EB46061F
:10238000A749059BBA1E4FF0060804F6F849921BB0
:102390004000002608FB1B33A2EB4A02CDE90116E0
:1023A00000903146484611F0FDFB4FF47A714846E3
:1023B00012F0AFFB04F5C3579A4A183711460223AF
:1023C000384608F087F9214633463246384608F049
:1023D0007CF9D5F8640104F063FAD5F85C31D3F8E0
:1023E0008820059212F086FC03689B689847B4F930
:1023F000FEBC824612F07EFC03689B689847059AF3
:1024000089490123029304F63849B4F9063D019342
:1024100008FB00F0013A08FB1A225B460090484690
:1024200013F00AFF324633464846214614F0ADF811
:102430003146484614F09EF84FF47A71484612F03F
:1024400068FBB4F9063DB4F9FE9C03EBD37309EBCA
:10245000630912F04FFC0368DB689847804612F06E
:1024600049FC6FF07F4B04F6285A0422A9EB58036D
:102470006C490190CDF800B0504611F071FEB4F9EE
:102480002C1D099112F036FC03689B689847804622
:1024900012F0E2FC03689B689847B4F9023D05938B
:1024A000089012F0D9FC0368DB689847079012F097
:1024B000D3FCDDE90821059BA3F1020C079B04F581
:1024C000566908EB88080A44ACEB03035549CDE98B
:1024D00000B04244484611F043FEB4F93C2C079248
:1024E00012F0F4FC03689B689847B4F9FEBC0590B1
:1024F00012F0ECFC0599079A019004F69858FF2316
:102500000B200BF1040B00FB1122009340465B46AD
:10251000444911F025FE40F2E931504612F0F9FA33
:1025200040F2EA31484612F0F4FA40F2EB3140460C
:1025300012F0EFFA04F5055334330193432300936B
:102540003A4AD5F860012346214605F0F2FE3146AD
:102550002046FFF70BFC2046FFF7D8FD04F5A458F2
:1025600004F55D6608F110083046002106F5907606
:1025700000F037FD4645F7D112F032FC6FF07F4393
:10258000009304F5B051002301901A46183104F568
:10259000AF5011F0E5FD04F148080026D4F88C3066
:1025A000B34230D80023C4F890309DF81B307BB183
:1025B00002231F4A1F49384608F08CF842F2107176
:1025C000384608F087F9D4F88C30013BC4F89030D5
:1025D000D4F8901004F1940005F008FDD4F8903080
:1025E00004EB8304E06C0368DB68984708F020FA8A
:1025F00003691BB1D5F8640104F01CF94FF0000029
:102600000BB0BDE8F08F58F8040FB4F9FE2C036846
:10261000283A9B68282198470136BFE74040400090
:1026200080808000F37F0208967D02080115000873
:10263000E77D0208307E0208F8B500F50055044633
:10264000D5F8640190F8701303F0C8FF002201462A
:1026500004F6285011F0D8FED5F8640190F8F11373
:1026600003F0C4FF0022014604F5566011F0CCFED1
:10267000D5F8641191F8E923134623F0400381F85B
:10268000E933C2F3801201F2F23104F6985011F0EE
:10269000BBFE04F55D670026F1B2D5F8640103F0D6
:1026A000E7FF01360146384600F09BFC062E07F591
:1026B0009077F1D1D5F8643193F8521304F6384687
:1026C000002955D00121304613F054FFD5F864316C
:1026D00093F8E333002B0CBFFF214FF47F413046CA
:1026E00013F094FED5F8643193F80F24002183F899
:1026F0000F1452B3D3F818349B060DD404F5C35607
:1027000018362749274A0223304607F0E3FF42F2F2
:102710001071304608F0DEF8D4F8903004EB8303F3
:1027200004F14807D86C03681B6998472046FFF7F7
:10273000EDFC0026D4F88C30B34226D8E06C0023A0
:10274000C4F890300368DB689847D4F8903004EB05
:1027500083041421E06C03685B699847D5F85C0139
:1027600000F5C150043013F016FA4FF00000F8BD28
:10277000304613F0FFFED5F8643193F8E333002BB5
:102780000CBF6FF07F41FF21A9E757F8040FB4F9A0
:10279000FE2C0368283A9B68282198470136C9E730
:1027A000C87E02083A7E020838B50446B8B109B9B5
:1027B000002038BDD0F82031426900F1D40501FB7A
:1027C0000231284600F00DFCA369002BF0D0D4F8AC
:1027D0002021284653F8221000F048FCE8E70220A8
:1027E000E7E7C0E900128360704741694B1E10B5EE
:1027F00059420446594100F5FA7013F0BBFE616975
:10280000A1F10A025142514104F52D7013F0B2FEBC
:102810006169A1F164004142414104F55D70BDE888
:10282000104013F0A7BE32B901207047484301336E
:102830009342FBD1704708460123F9E737B50446B8
:102840000D467C3012F065F9691C04F1200012F08D
:1028500060F9A91C04F58E6012F05BF9E91C04F51F
:10286000A66012F056F905F0E7FC0546FEF77AFE81
:1028700004F2F45301460D4A00932846234605F01E
:1028800086FD05F0D9FC0546FEF76CFE04F20C63EC
:1028900001937F23014600932846054A234605F00D
:1028A00048FD4FF0000003B030BD00BFA92700086D
:1028B0004F2C00082DE9F04F8BB0CE4D07921E46ED
:1028C000002383612B68DFF840A3BFF35B8F13F015
:1028D000010F04460F460CD1284620F084F940B180
:1028E000D4F8F0352846D3F88830CAF8003020F004
:1028F00086F912F0FFF96FF07F4304F19C05009315
:1029000000231A4639460190284611F029FC284632
:102910009DF85C1011F03DFDB4F9A830DAF8001014
:10292000C91A082200234908284604F1200912F098
:1029300039F94946284612F0AFF80121284612F02D
:10294000E8F8DAF80030B4F9A670A3F1100812F034
:1029500083FA0368DB689847169B029304F1D40559
:1029600008370D2300EB80003A4601930090434660
:102970000821284600F066FA4FF47F4204212846D9
:1029800000F022FB12F068FA02220146284600F00D
:102990005FFCDDE91412284600F062FB3146284650
:1029A00000F01FFB12F058FA002703460522079992
:1029B000284600F063FC494684F8E470284612F08B
:1029C0006BF80121284612F0A4F804F586630693FB
:1029D00004F58866A3460597B4F9E0800323A8F1BF
:1029E0000808B8FBF3F803F02FFD169A05460A21F4
:1029F0002046FFF718FF069A009052F8043F06920F
:102A000031461022284603F091FF3046FDF7F2FBD5
:102A1000079B794AC0F11001304422F0B5FC0599BA
:102A2000B4F9D82008F1040301FB0322B4F9DE3025
:102A300009920833089312F00FFA0168C9688847B1
:102A40000BF5FA77012500EB8000DDE9083231460D
:102A5000CDE900800295384613F0EEFBFEF782FDCB
:102A6000664A23460146384613F08FFD002138465A
:102A700013F080FD0321384613F010FDDBF8F4312C
:102A800049469B6838469847DBF8F4312946DB68AD
:102A900038469847059B2B44032B059306F11006F7
:102AA0000BF1C00B98D1169A022A28BF02220A21E4
:102AB0002046FFF7B8FE6061C02000FB0240002600
:102AC000294600F5FA7013F055FD02950196B4F908
:102AD000FE31083304F14C070093DAF80030324637
:102AE0003146384611F05EF83846042111F0ACF852
:102AF00038464FF6FF7111F0BEF83146384611F0F6
:102B0000D1F84946384611F0C7FF3146384612F031
:102B100000F8D4F8F025B4F95A30D2F88C2000939C
:102B2000D21A02EBD272DAF800302A413146484616
:102B300011F00BFFD4F8F035D3F88C200092314619
:102B4000324604F17C00D3F8883011F0BFF8D4F895
:102B5000F03584F88C50D3F88CA012F07DF903681E
:102B6000DB689847D4F8F035D3F8882002EBD272AE
:102B700042FA05F7814612F06FF90368DB6898475F
:102B800004F58E68043F09EB490900EB4000CDE9EC
:102B90000070AAEB0903324619490295404613F02A
:102BA0004BFBFEF7DFFC23460146144A404613F078
:102BB000ECFCD4F8F035B4F97C24D3F888100295F5
:102BC000B4F97E34CDE9002304F5A667B4F9763470
:102BD0008A1A38460B4913F02FFBFEF7C3FC074A4D
:102BE00001462346384613F0D0FC30460BB0BDE812
:102BF000F08F00BF38260020D47E02084F2C00083A
:102C0000D87E0208DB7E02083C26002010B5044670
:102C100005F012FB04F2F45105F0D0FB05F00CFBBB
:102C200004F20C6105F09FFB04F1200011F081FF1C
:102C300004F17C0011F07DFF04F58E6011F079FF46
:102C400004F5A66011F075FF4FF0000010BDF8B557
:102C5000044600284CD000F58E658D4203D000F567
:102C6000A6678F4219D16B1A5D425D4125742046DB
:102C7000FFF7CCFF206848B1D4E90112234612F0D7
:102C80000AFD2046FFF7B1FD0020F8BD6368002B68
:102C9000F7D0A06821469847F3E700F5FA73994208
:102CA00002D101236361ECE700F52D73994201D154
:102CB0000A23F7E700F55D73994201D16423F1E738
:102CC0000B784E7853B93146284613F053FC002E4A
:102CD000D7D129462046FFF7BAFFD2E7012BD0D142
:102CE0003146384613F046FC002ECAD13946F1E78A
:102CF0000220CAE7B0F904007047B0F90600704737
:102D0000B0F908007047B0F90A007047B0F90C003C
:102D10007047B0F90E007047007C7047017470472F
:102D20002DE9F341089E04461D46B0F90630B0F97E
:102D30000400301A0090EB1A04F1500090460F4640
:102D400010F023FDB4F90420B4F90630B21A009251
:102D5000EB1A4246394604F1B80011F091F994F8A3
:102D600018317BB1B4F90420B4F90630B61AEB1A65
:102D70004246394604F18000089602B0BDE8F041B1
:102D800011F07EB902B0BDE8F0812DE9F341089E53
:102D900004461D46B0F90430B0F90600301A009020
:102DA000EB1A04F1500090460F4610F043FDB4F9C1
:102DB0000620B4F90430B21A0092EB1A42463946A2
:102DC00004F1B80011F0FCF894F818317BB1B4F9B3
:102DD0000620B4F90430B61AEB1A4246394604F11B
:102DE0008000089602B0BDE8F04111F0E9B802B0E9
:102DF000BDE8F08110B50446052919D8DFE801F0D7
:102E0000030F181803160B4904F1500010F04AFF85
:102E100023682046DB6CBDE8104000211847006A9B
:102E200020B1D4E90912234612F035FC0021EBE76A
:102E300010BD00BF8080800010B103689B681847F8
:102E4000704700002DE9FF470446DDE90C651F4689
:102E50004FF0FF30E0643818A18001440E9B2181BF
:102E6000711EE2800A446281EA1AC4E90E23A78136
:102E7000E681012100204FF00A0C83426BDC2164C3
:102E800004F58470002B6AD0009310211346374A52
:102E900022F07AFA013504F1F0094846FDF7AAF963
:102EA000A8420CD004F1EF0100239D4294BF002200
:102EB000012201335201182B01F8012FF5D1002511
:102EC00001232A462946CDE9015300963B4604F1E9
:102ED000500010F067FE11F0BFFF04F1B8086FF06A
:102EE0007F47494601902B462A464046009711F0FD
:102EF00037F9D4E90E3203EB0209D4F8E800B4F94B
:102F00000CA009F10109AA4218BF09F10109FFF754
:102F100093FFB4F9C6305FFA89F9F61A00FB19A1DC
:102F200006EBD6762B4672104908404611F03AFE61
:102F300011F092FF2B46CDE900700D4904F180009D
:102F40002A4611F00DF92368DB6C2946204604B0AF
:102F5000BDE8F04718470CFB01F101308DE713463F
:102F60001021044A22F010FA95E700BFE27E020821
:102F7000F37F0208F37E0208C36F994210B504463E
:102F800009D0503010F060FE23682046DB6CBDE8AD
:102F900010400021184710BD10B5036FC0E90C1296
:102FA000044690F82C00002818BF114699420AD018
:102FB00004F1500010F05FFE23682046DB6CBDE892
:102FC00010400021184710BD38B515460446FFF7DC
:102FD000D3FF294620464FF47F42BDE83840FFF733
:102FE000DBBF436C99420A46B8BF1A46836C9A42CB
:102FF000A8BF1A46C36C934273B504462ED0C56B66
:10300000C26400F5847300F1F001B8305DB900923C
:10301000182211F028FA23682046DB6C002198471B
:10302000012002B070BD266C92FBF6F506FB15225E
:10303000002AB8BF5242CDE90052182211F013FA0B
:10304000E36C002BE7DA226C93FBF2F3002BE2D166
:10305000A36B23442D2283F8EE20DCE70020E0E779
:10306000C0E91112C16CFFF7BCBF000037B50446C0
:1030700000F1B80500910E4B00F1F001182228462E
:1030800011F0F1F9B4F9C630B4F90E20B4F90C100E
:10309000D21AB4F9C43002EBD272C91A521000230A
:1030A0004908284603B0BDE8304011F07BBD00BFA1
:1030B000D57E02082DE9F041D0E90E531D44002BC6
:1030C00018BF013590F81831013B0446042B00F27B
:1030D000AA80DFE803F03A3303618600B0F90C60A0
:1030E000D0F8E800FFF7A8FEB4F9C630B4F90E2016
:1030F000D21AB4F98C30B11EC91A94F8E4306B437B
:1031000000FB131102EBD27200235210490804F1A4
:10311000B80011F047FDB4F9C050D4F8B000B4F9CC
:10312000C27004F18006023510B10368DB6898476D
:103130003A1A00232946304611F034FD2368204610
:10314000DB6CBDE8F04100211847B0F9C630B0F99A
:103150000E20B0F90C10D21AB0F98E30D21AB0F994
:103160008C3002EBD272C91A521000234908803009
:1031700011F018FDD4F8E800B4F90C60FFF75CFE1C
:1031800094F8E430B4F98A206B4300FB1361002308
:10319000490804F1B800CFE7B0F90C60D0F8E800B6
:1031A000FFF74AFEB4F9C630B4F90E20D21A94F8EB
:1031B000E4306B4300FB136102EBD2720023521028
:1031C000490804F1B80011F0EDFCB4F98C30B4F901
:1031D0000C10B4F9C220C91A4908002304F1800078
:1031E000AAE7B0F90C60D0F8E800FFF725FEB4F9C3
:1031F000C630B4F90E20D21A94F8E4306B4300FBC9
:10320000136102EBD27200235210490804F1B80096
:1032100011F0C8FCB4F9C000B4F98C10B4F9C220A4
:103220000023411ADAE7B0F90C60D0F8E800FFF7A4
:1032300003FEB4F9C630B4F90E20D21A94F8E43083
:1032400002EBD2726B4300FB1361521000239FE725
:1032500070B500F1B80604461546304611F05CF82A
:10326000E9B2304611F095F82046FFF723FF2368B6
:103270002046DB6CBDE870400021184770B500F1B6
:10328000800604460D4680F818211946304611F094
:1032900043F829463046002211F0B6F82046FFF7E1
:1032A00009FF23682046DB6CBDE870400021184709
:1032B00090F82C308B4210B5044611D0D0E90C2385
:1032C00080F82C1000290CBF11461946503010F020
:1032D000D2FC23682046DB6CBDE810400021184773
:1032E00010BDC0E908128362704710B5D0B109B9AA
:1032F000002010BD0379052B0ED84FF49072534374
:10330000C2188468D2F8AC2103F5B07301FB042124
:103310001844FFF766FEEBE7D0F8643F00F618703C
:103320001944F6E70220E4E72DE9F041044604F0F1
:1033300083FF04F5985105F041F804F5B07504F1E8
:10334000100700264FF490782B6828461B69984791
:10335000FEF7F0FC08FB06F303F55D62034410443E
:10336000D3F8D03D1B699847D5F8C03605F5D8602D
:103370001B6998473B6838461B6901369847062EFB
:1033800005F5907507F13807DED141F2380541F2B5
:103390007826635960191B69C0359847B542F8D142
:1033A00004F6187011F0C5FB04F56E6011F0C1FB56
:1033B00004F5955004F58054183011F0BAFBD4F898
:1033C000F00203681B699847D4F8F40203681B698C
:1033D00098474FF00000BDE8F081000010B50446AA
:1033E00003F0DBF8034B08B1987810BD94F81C2467
:1033F000985CFAE7749A020800F580532DE9F04FC3
:10340000D3F8FC32D3F81034062B8FB028BF062334
:103410000233B2FBF3F2A2F108030C1D05938346BD
:1034200011F01AFD0368DB689847059B00EB8000EC
:10343000984207D211F010FD0368DB68984700EB53
:1034400080030593059B0894043B5B080993059B47
:1034500008330B9300235E460BF1100806930BF51F
:103460008054D4E9BE30D3F88890D0F81034069A4E
:10347000062B28BF06239A4206F5907708F1380AF2
:10348000C0F0F6800BF593580BF594570BF581556A
:1034900008F118081337183500264FF0030A4FF0CB
:1034A0000109D4F8FC3293F81C24D3F81034002A14
:1034B00014BF39464146D4F8F8220791062BD2F8BA
:1034C000882092FBFAF206FB02F228BF06230432A0
:1034D0000692013B4FF49072534303F5B0705B4486
:1034E0005844D3F860319B6B9847059BCDF8089002
:1034F0000193D4F8F832D3F8883093FBFAF3083B01
:10350000DDE90621009300F10803284612F094FE3D
:10351000FEF728F8002301461A46284613F035F82E
:1035200001362846032112F0B9FF032E08F10908DD
:1035300007F10C0705F1C005B3D111F0DBFB0368FF
:103540009B689847D4F8F832B4F942A0D3F8888041
:10355000054611F0CFFB03689B689847A8F110035C
:103560004FF00A0808FB05F1052200250BF6187735
:10357000CDE901250AF1080A059A009208FB1033EB
:10358000524638460C31FFF75DFCFF2204213846D5
:10359000FFF71AFD11F060FC022201463846FFF7E2
:1035A00057FE42F2107238460121FFF759FD4FF4E1
:1035B00096713846FFF715FDD4F8FC3293F81C24B9
:1035C0009E4B53F8224011F047FC324603462146F9
:1035D0003846FFF753FEFDF7C5FF2B4601462A4646
:1035E0003846FFF77EFE8BF8289F11F083FB0BF522
:1035F0006E646FF07F462B462A46019090490096F4
:10360000204610F0ADFD2046022110F0C2FEBBF9AD
:10361000263FBBF91E1F03EBD37301EB6301BBF91C
:10362000EE3E03EBD372A1EB62022B46042120464F
:1036300011F0B8FA0BF587500121CBF8088018304B
:1036400012F098FFBBF96441BBF9667111F004FCFC
:103650000834CDE9006008370BF5955079493B46B1
:103660002246183010F07CFD28460FB0BDE8F08FE0
:103670009DF8183007931946FFF7B0FEA9F108032B
:10368000072206F5B075019203EBD373059A0290F9
:103690005B10284600920621089A99FBF1F1FFF78A
:1036A000D1FBFF2204212846FFF78EFC11F0D4FB4A
:1036B000022201462846FFF7CBFD0799D4F8FC0209
:1036C00002F0D6FF01462846FFF78BFCD4F8FC3207
:1036D0005D4A93F81C3452F8239011F0BDFB494623
:1036E000034603222846FFF7C9FDFDF73BFF0023F1
:1036F0001A4601462846FFF7F4FD3B6C0121284697
:103700009B6C98473B6C28465B6B98473B6C8146AB
:103710009B6B28469847D4F8F8320A90D3F8882053
:103720003B6C0D925B6B2846984707990C90D4F838
:10373000FC02FFF753FEDDE90C320999029000917B
:10374000DDE9090106F50266D31A0822083B019259
:103750000A1A09F104013046FFF774FB3B4A0221C3
:103760003046FFF731FC11F077FB0122014630466D
:10377000FFF76EFD00213046FFF733FCD4F8FC3232
:10378000314A93F81C3452F8239011F029FB03229C
:10379000034649463046FFF771FD0799D4F8FC020D
:1037A00002F0F1FE064611F0A5FA6FF07F43009398
:1037B00000231A4631460190404610F0D1FC022108
:1037C000404610F0E6FD5AF8383CDE693B6C28466E
:1037D000DB6A98475AF8383C8146DB6B404698478D
:1037E00000EBD07009EBD9734FEA6009C9EB6301B4
:1037F0003B6C07911B6B284698473B6C81461B6CC2
:10380000284698475AF8383C00EBD0701B6C09EBFF
:1038100060054046984700EBD070A5EB600200239E
:1038200040460799B047069B0B9A01330693089BC5
:1038300013440893D0463E4613E600BF849A02081C
:10384000FB7E0208F37F0208909A020880808000C5
:103850002DE9F04F04468BB000F1100A06464FF0F8
:10386000000900F58058D8F8FC32D3F81034062B44
:1038700028BF0623994506F590753AD341F23805DD
:1038800041F2782663596019DB686521C035984795
:10389000B542F7D1642104F6187011F03AF96421A9
:1038A00004F56E6011F035F904F595506521183076
:1038B00011F02FF9D8F8F00203686621DB68984709
:1038C000D8F8F40203686621DB68984704F0B4FC7A
:1038D0000546FDF747FE04F5985301460093284638
:1038E0003D4A234604F053FD4FF000000BB0BDE805
:1038F000F08FFEF71FFA4FF4907303FB09F3059363
:1039000003F55D67D5F80037049006F5026B0744B0
:10391000DB6A584698472B6C069006F5B0761B6B11
:1039200030469847D5F800370790DB6B58469847E4
:10393000D5F800270990126C584690475FFA89F134
:103940000890D8F8FC02FFF749FD089A099B0290FD
:103950000821019100923846DDE90612FFF772FA5C
:103960001E4A02213846FFF72FFB11F075FA01229B
:1039700001463846FFF76CFCD8F8FC3293F81C245B
:10398000174B53F82210069111F02AFA032203462E
:1039900006993846FFF772FC2B6C6421DB683046D1
:1039A0009847DDE9043213446421D3F8D03D38460A
:1039B000DB689847D5F800376421DB68584698479C
:1039C000DAF800305046DB686421984709F10109B4
:1039D0000AF1380A2E4646E7EB3200088080800064
:1039E000909A0208F8B5204B036000F580531F4EF3
:1039F000C3F8B862044600F59550183011F0B8F8D5
:103A000041F2B81540F67877635960191B68C03DDC
:103A10009847BD42F8D104F61870FDF7FDFEC4F8D2
:103A2000E06E04F56E6011F0A3F84FF45C65635925
:103A300060191B68A5F590759847B5F5E06FF6D14C
:103A4000635960191B68A5F590759847402DF7D10B
:103A50004FF49475635960191B68383D984715F108
:103A6000280FF7D12046F8BD48930208D0BE0208BF
:103A700008B50248FFF7B6FF08BD00BF4426002086
:103A800010B50446FFF7AEFF204641F218311FF093
:103A9000A8F8204610BD017905292DE9F84398BF03
:103AA0000021044688BF012100F61870FFF700FCD2
:103AB00004F5B076002504F580594FF6FF77E9B29A
:103AC000D9F8FC02D6F84C8002F0D2FD4FF47F42C8
:103AD000404514BF3946FF213046FFF75DFA217992
:103AE000A1EB050CDCF1000141EB0C013046013586
:103AF000FFF7DEFB062D06F59076E0D1A1684B1EA0
:103B0000594204F581505941183012F033FDA16833
:103B1000A1F10A02514204F587505141183012F0C8
:103B200029FDA168A1F164004142414104F58D5095
:103B30001830BDE8F84312F01DBD00002DE9F04734
:103B400000F580570446D7F8FC3293F81D2400F5A1
:103B50009550022A00F1180033D193F8E4532F490D
:103B60002F4B0022954218BF194610F04DFC02F071
:103B70006BFC237B90F87063B34202D0032B23D0FD
:103B80002673FEF7D7F82749FEF78CF9FEF7D2F82F
:103B90002549FEF7B9F90025A0462E46D7F8FC02C4
:103BA000D0F81034062B28BF06239D4208F59079E3
:103BB00023D316B12046FFF76EFF4FF00000BDE89B
:103BC000F0871A490022D0E7012ED9D104F5B07848
:103BD0000025D7F8FC02D0F81034062B28BF0623A6
:103BE0009D42CDD2E9B202F043FD01464046FFF7C7
:103BF000F8F9013508F59078EBE7E9B2D9F88CA02F
:103C000002F036FDAAEB000108F50260FFF7E9F9C2
:103C10003043C6B20135C846C0E700BF0A7F02087C
:103C2000017F0208117F0208157F0208F37F020856
:103C300000F5815318339942F7B5044608D10123A2
:103C4000A36000252046FFF726FF284603B0F0BDFD
:103C500000F587531833994201D10A23F0E700F5A4
:103C60008D531833994201D16423E9E700F580555B
:103C7000D5F8F0328B4214D1D5F8FC0290F87033AD
:103C8000012B49D10193D4F8643F6422534300933C
:103C9000D4F8EC33D4F8CC22D4F8AC1103F040FCC7
:103CA000CFE7D5F8F4328B421FD1D5F8FC3293F828
:103CB0007033012B30D100F5B0770026D5F8FC0227
:103CC000D0F81034062B28BF06239E42B9D297F8AD
:103CD0002C3033B1F1B202F0CBFC01463846FFF78D
:103CE00080F9013607F59077E8E700F618739942F6
:103CF0000FD000F5B07291424FF000030AD04FF49C
:103D000090700133062B9CD000FB0325A942F8D10B
:103D100000E00623237194E7092593E72DE9F84F86
:103D2000624B0360062303710A2383600023064667
:103D3000037300F1100400F5B07520463834FDF728
:103D400029FCAC42F9D106F50265204604F59074D1
:103D5000FDF792FCAC42F8D106F56E65204604F5FD
:103D60009074FDF789FCAC42F8D12046FDF712FCB7
:103D700006F61870FDF780FC06F5815406F5935899
:103D8000DFF834B1DFF834A1183408F11808002541
:103D9000204610F0DBFE6FF07F4323630127C4F859
:103DA00000B084F8345084F83550C4E90855C4E9AB
:103DB0000A5504F138004FF0FF3910F0C7FEC4F87F
:103DC00038A0256684F86470A56684F86C5084F881
:103DD0006D5084F86E5084F86F70C4F87090A4F839
:103DE0007850C4E9165504F17C0010F0AFFEC4F819
:103DF0007CA0C4F8A45084F8A870C4F8AC5084F82F
:103E0000B05084F8B15084F8B25084F8B370C4F85C
:103E1000B490A4F8BC50C4E92755C0344445B7D188
:103E2000234B06F5805404F51E7203F11807186839
:103E30005968154603C50833BB422A46F7D119888D
:103E40009B78AB701B4B298004F2932203F1240171
:103E500053F8040B42F8040B8B42F9D106F5955048
:103E60001830FDF797FBFDF765FF00F5B1501830EE
:103E7000C4F8F002FDF75EFF00F5BD501830C4F83D
:103E8000F4020EF0A9F8C4F8F80202F0DDFA0023FB
:103E900084F80C33C4F8FC02C4E9C033C4E9C43369
:103EA000C4F808333046BDE8F88F00BF48930208D5
:103EB000C4780208DF780208CC27030818BD02087E
:103EC00010B50A4C2368BFF35B8FDB070CD4204688
:103ED0001EF089FE40B10648FFF720FF054820F09C
:103EE0006FFA20461EF08BFE014810BD40260020D0
:103EF00044260020713A000870B190F89830052BE4
:103F000006D800EB8300836E0B4483660020704765
:103F1000436E0B444366F9E7022070472DE9F041F8
:103F2000044604F089F904F5A251183104F58056CD
:103F300004F044FA201D10F0FCFDD6F84C04FEF706
:103F400065FE04F1A00804F50B674FF4F87563599A
:103F500060191B699847D8F8003040461B6998479C
:103F60003B6838461B6905F590759847B5F50B6FAA
:103F700008F1380807F1C007E9D140F6286541F299
:103F80002817635960191B69C0359847BD42F8D19D
:103F900004F5536010F0CDFD04F55F6010F0C9FD2D
:103FA00004F58B50083010F0C4FD04F5945008302F
:103FB00010F0BFFD04F5965010F0BBFD04F59C50C9
:103FC00010F0B7FDD6F8400403681B699847D6F88F
:103FD000440403681B699847D6F8480403681B69C2
:103FE0009847FDF7A7FE0021FDF7C0FE4FF0000047
:103FF000BDE8F0812DE9F743044604F58059FDF74B
:1040000099FEFDF73BFFFDF795FEFDF75BFFD9F845
:10401000543493F81D24022A0BD193F8E403814908
:10402000814B0022904218BF194604F55F6010F0E2
:10403000EBF904F5F8760025D9F85404D0F81034DB
:10404000062B28BF06239D42C0F0A98004F164031B
:10405000002653F8045F002D00F0BB80D4F89C309C
:104060005D4326B990F81D34022B08BF6D4294F8C9
:10407000981004EB860702F090FA6C4AD7F880108B
:104080004EF66023002818BF13460029BA6E80F24E
:104090009180002A80F2958004F0CEF8036FD4F866
:1040A0009C20142B38BF142353433C2253430A2231
:1040B000B3FBF2F34FF00008CDF800802A46D9F8A0
:1040C0005404F1B203F078F9C7F86880C5B2D9F8A2
:1040D000543493F8053404F59656002B7ED0544999
:1040E000304612F050F9D9F8543493F8043404F5FA
:1040F0009C57002B74D04F49384612F044F9D9F838
:104100005434D3EDFF7AFCEEE77A04F58B5017EECA
:10411000903A083099B2FEF764FF636EBBB1D4F8F1
:104120009C10D9F8B42104F58B5001FB0321083011
:10413000FEF757FFD9F854040023636690F804345F
:104140002BB190F80524D9F8B41103F0EBFCD9F8A1
:10415000543493F8E33304F5536804F50B64002BEF
:1041600043D0D9F8543493F8703303F0FD03012B96
:1041700040D1404612F0C7F92046C03412F0C3F9CE
:10418000A045F9D1384612F0BEF9D9F8543493F865
:1041900004343046002B3FD012F0D0F93EE0E9B2B3
:1041A00002F066FA01463046FEF71BFF013506F5C0
:1041B000907641E705D0002A3FF76EAF4FF0FF320F
:1041C00004E0002ACCBF01224FF0FF32C7F8802064
:1041D00070E70136062E7FF43CAF78E716497FE79B
:1041E0001649384612F0CFF897E706F021FC8368AD
:1041F000032BB6D0D9F84C04FEF708FD404612F068
:104200009DF92046C03412F099F9A045F9D13846FD
:1042100012F094F93046BFE712F075F9284603B062
:10422000BDE8F0830A7F0208017F020880F52000C4
:104230001D7F0208217F02081E7F0208267F0208D8
:1042400010B5044602F0A9F9044B08B1986810BDF6
:1042500094F81C2453F82200F9E700BF909A020852
:104260002DE9F04FCF4B5B688FB003F03F03CDE9F2
:1042700009120F1D04460B9310F0EEFD0368DB6876
:1042800098470A9B1D1F04F580532D1AD3F8543408
:10429000D3F81034062B28BF06230233B5FBF3F501
:1042A000A5F10803049310F0D7FD0368DB68984775
:1042B000049B00EB8000984207D210F0CDFD03680C
:1042C000DB68984700EB80030493049B089708334E
:1042D0000C9304F50B6307930023069304F58053B6
:1042E000264604F1A0080593059B069AD3F85404CA
:1042F000D3F85034D3F888B0D0F81034062B28BF48
:1043000006239A4206F5907708F13809C0F05881E3
:1043100004F5895A04F628690AF1080A002704F509
:1043200080564FF4907BD6F85034D3F88810D6F8E6
:104330005434D3F81034062B28BF0623013B0BFB63
:1043400003F303F5F87023441439D3F8F0318908E6
:104350009B6B0591204498470599049B0A1D7A435D
:104360004FF00108CDE90013043200F10803514673
:104370004846CDF8088011F05FFFFDF7F3F8002301
:1043800001461A46484612F000F94846032112F049
:1043900085F847444846002112F0ECF8042F09F153
:1043A000C0090AF10C0ABED1414604F6A87012F009
:1043B000E1F8CDF80880B4F9FE310193B4F9F43195
:1043C0007949083B04F553690093B4F9F6313A464C
:1043D000484611F031FFFDF7C5F8002301461A46A3
:1043E000484612F0D2F8B4F9F491B4F9F6B110F0ED
:1043F00033FD6FF07F4A09F108090BF1080B0190BA
:104400005B464A4604F55F606749CDF800A00FF0AF
:10441000A7FED6F85034DDE90921D3F888304FF0F3
:10442000000B0A440521CDE9011B04F58B590499C1
:10443000009103EBD37309F1080943FA08F3043A36
:10444000063B521A48463946FEF7FCFC3946FF2225
:104450004846FEF7B9FD10F0FFFC0222014648462F
:10446000FEF7F6FED6F854344846B3F82214FEF7A9
:10447000B8FDD6F854344846B3F82024B3F82214D3
:10448000FEF7EEFD10F0E8FC4849034603224846DB
:10449000FEF7F4FEFDF766F85B465A4601464846CD
:1044A000FEF71FFF414686F878814846FEF700FF79
:1044B00010F0D2FC04F5945909F10809CDE900A0E7
:1044C0005B465A4648463A490FF04AFEB6F96E2115
:1044D000B6F96C115B4608320831484610F062FBB1
:1044E000049BB6F97021CDF808800193B6F97431B8
:1044F0003049043B03EBD37343FA08F304F59659B0
:104500000093B6F96E310532484611F095FEFDF77D
:1045100029F85B4601465A46484612F036F8049B95
:10452000B6F9C822CDF808800193B6F9CC320093D1
:1045300004F59C59B6F9C6321F490532484611F0B8
:104540007BFEFDF70FF85B4601465A46484612F0DF
:104550001CF80B9B194ACDE901B304F13C08212357
:104560002821009340465B4620F00EFFB4F9329EAE
:10457000B6F96E5110F070FC0368DB689847064688
:1045800010F06AFCA5EB0905AD1BCDE900A009EB15
:104590005503201D3A4641460FF0E2FD58460FB044
:1045A000BDE8F08F00380240F37F0208307F020838
:1045B000347F02081E7F0208267F02083C7F020823
:1045C0009DF818A05146FEF709FF08220192049AAF
:1045D000009206F5F8760622ABF108030290114628
:1045E00030469BFBF1F19B0093FBF2F3089AFEF738
:1045F00029FCFF2204213046FEF7E6FC10F02CFCDB
:10460000022201463046FEF723FE00213046FEF727
:10461000E8FC059B5146D3F85404FFF711FE83468E
:1046200010F01AFC5946034603223046FEF726FED8
:10463000FCF798FF00231A4601463046FEF751FE6C
:10464000D7F8D03030469B6C01219847059B5146E6
:10465000D3F8540401F097FF824610F04BFB6FF043
:104660007F43009300231A465146019040460FF0C5
:1046700077FD022140460FF08CFE59F8383CDB698B
:104680001D46D7F8D0303046DB6A984759F8383C99
:104690008346DB6B4046984700EBD0700BEBDB7337
:1046A0004FEA600BCBEB630BD7F8D03030461B6B77
:1046B0009847D7F8D03082461B6C3046984759F857
:1046C000383C00EBD0700AEB600A1B6C4046984700
:1046D00000EBD070AAEB6002594600234046A84781
:1046E000D7F8D03030465B6B9847D7F8D030824649
:1046F0001B6B30469847059BD3F85034D3F888108D
:10470000D7F8D0300D915B6B834630469847D7F889
:10471000D0208046126C304690470D99A1EB0808D6
:10472000A8F108030122CDE901020E490798009380
:104730000AF104025B4611F07FFDFCF713FF002332
:104740001A460146079811F020FF069B0C9A013388
:104750000693089B13440893079BC0330793C846EE
:104760003E46C1E52C7F0208254B70B50360044628
:1047700000F59C50FCF7C0FF04F59650FCF7BCFF19
:1047800004F594500830FCF763FF04F58B500830B3
:10479000FDF742F841F2680540F668566359601922
:1047A0001B68C03D9847B542F8D104F55F60FCF73F
:1047B0004FFF04F55360FCF79FFF4FF447656359C3
:1047C00060191B68C03D9847B5F5FE6FF7D14FF4EF
:1047D000F265635960191B68A5F590759847D02D4F
:1047E000F7D14FF4DC75635960191B68383D984761
:1047F000682DF8D1201DFCF72BFF204670BD00BFAF
:104800006C93020808B50248FFF7AEFF08BD00BF71
:104810006039002010B50446FFF7A6FF204641F29C
:1048200070411EF0DEF9204610BD10B5002104468F
:1048300000F6286011F09EFE04F6E860002111F0F9
:1048400099FE04F6A870002111F094FE04F583503F
:104850000021BDE81040083011F08CBE2DE9F04F6A
:1048600000F5895500F58A56002789B004460835B9
:10487000143600F62868BA46C5F800A0C5F804A0AA
:10488000C5F808A094F89810052904F5805969D84E
:10489000D9F8540490F81C34002B14BF4FF0090BC6
:1048A0004FF0050B01F079FE002818BF4FF00D0BFB
:1048B00006F0BEF8BB445FFA8BFB00EB8B00D9F827
:1048C00054B4436894F8981073605846059301F007
:1048D00064FE002840D02E4B9A6894F89810D9F8BE
:1048E00054040792FFF7ACFC94F898100690D9F89E
:1048F000540401F052FE069B079A0193059B029017
:10490000009229460C22584602F07CF86B1E0022C9
:1049100013F8011F202937D10C2303FB074313444D
:1049200041F228120A219954D8F800306421DB683A
:104930004046984798F8343013B17368C4F89C30F7
:104940000137042F05F10C0506F1040608F1C00833
:1049500092D109B0BDE8F08F9BF81C340C4A52F894
:104960002320BAE777B133680A225343094A7360B8
:10497000019201220092CDF808A0D9F854040C222B
:104980002946C1E70123F1E701320C2AC0D1CBE768
:10499000789A02085B7F02082DE9F74F044601214F
:1049A000043010F0B6F82046FFF758FF04F5F8760B
:1049B00004F50B6704F1A009B0464FF0000BBA46AE
:1049C00004F58055D5F85434D3F81034062B28BF9D
:1049D00006239B456BD3062384F89830304600218C
:1049E00006F59076FEF764FCB245F7D1D5F854345D
:1049F00093F81D34022B09D1652104F55F6010F096
:104A000088F8632104F5536010F083F804F58B56A1
:104A100008366421304610F07CF800213046FEF75D
:104A200047FC04F594506521083010F072F86421B9
:104A300004F5965010F06DF8642104F59C5010F0C8
:104A400068F8D5F85434B3F81E34DB070FD5FDF7FA
:104A500071F90121FDF78AF92149D5F8440411F0D3
:104A600092FCD5F8440403686621DB689847D5F8C2
:104A7000400403686621DB689847D5F8480403685A
:104A80006621DB68984703F0D7FB0546FCF76AFD13
:104A900004F5A2531833014600932846114A2346D1
:104AA00003F075FC4FF0000003B0BDE8F08FD8F8BC
:104AB00000306421DB6840469847D9F80030642113
:104AC000DB68484698473B683846DB68642198476E
:104AD0000BF1010B08F5907809F13809C03771E73F
:104AE0005F7F0208F93E00082DE9F04F00F5805580
:104AF0008BB0D5F840348B4204460E4600F01D8141
:104B0000D5F848348B4200F01881D5F844348B42F4
:104B10000BD100238A49D5F85404099309AA02F05D
:104B200089FB00200BB0BDE8F08F00F5536399427C
:104B30000DD1D5F8540490F8E43323B10023814912
:104B4000099309AAEBE78049099309AAE7E7D5F891
:104B50004C348B420AD11A7C002AE2D0D3F82021AF
:104B6000197BD5F8540402F013FEDAE700F59C53E4
:104B700099420ED1D5F8540490F8043413B103F0DF
:104B800021F8CEE790F80524D5F8B41102F0CAFF59
:104B9000C7E700F59653994212D000F62863994270
:104BA00017D000F6E867B94223D000F6A877B942DB
:104BB00021D000F583570837B9421ED103250AE0FA
:104BC000D5F8540490F8051481F0010102F0D8FFE3
:104BD000A7E70F460025204605F25645FFF725FEBC
:104BE0000121384611F0C6FC54F82530C4F89C3039
:104BF00097E70125EFE70225EDE700F5F87700F5E7
:104C00000B6AB9464FF00008B14540F08D8099F825
:104C10002C305FFA88FB002B3FD0D5F84C34D5F808
:104C200054040493594601F0AEFC0590D5F85404A1
:104C3000464B90F81C24594653F82220D9F84C30A2
:104C400007920693FEF7CAFB0221CDE90201404B11
:104C50004049CDE90013DDE90632DDE90401FDF745
:104C600029FED5F84CB4FCF77DFC002301461A461A
:104C70005846FDF7B6FDD5F84C0442F21071C0F865
:104C80000C80FDF7DBFD08F10108B8F1060F09F50E
:104C900090790AF1C00AB7D119E004F50B6AB84659
:104CA0004046002108F59078FEF702FBD045F7D189
:104CB00004F58B5000210830FEF7FAFA484601212E
:104CC000FEF7F6FA84F898B02046FFF7C7FD04F522
:104CD0008B5808F10808B0457FF423AFD5F8540489
:104CE000D0F80834642B0AD0992101F093FDD5F84F
:104CF0005404D5F8B41190F8052402F013FF0121F3
:104D00004046FEF7D5FA062384F8983004F50B6583
:104D10003846002107F59077FEF7CAFAAF42F7D17F
:104D20002046FFF79BFDFCE65645ACD1D5F8540470
:104D30005FFA88F102F0FEFCA5E70920F2E600BF69
:104D4000647F0208687F02086C7F0208909A02085C
:104D500080969800806967FF504B70B5044640F814
:104D6000043BFCF717FC00252822002104F13C003D
:104D700020F0DAFB29466566182204F1680020F06D
:104D8000D3FB2946182204F1800020F0CDFB062336
:104D900084F898300123C4F89C3004F1A00504F590
:104DA000F87628463835FCF7F5FBB542F9D104F51D
:104DB0000B66284605F59075FCF75EFCB542F8D108
:104DC00004F553662846C035FCF712FCB542F9D10C
:104DD0002846FCF70DFC04F55F60FCF7DBFB04F5EF
:104DE000895604F6286508362846C035FCF700FCCD
:104DF000B542F9D104F580553022002105F59470B3
:104E000020F092FB1022002105F5AC7020F08CFB05
:104E100004F58B500830FCF72FFC04F59450083053
:104E2000FCF7B8FB04F59650FCF7E2FB04F59C5048
:104E3000FCF7DEFBFCF77EFF00F5B1501830C5F83B
:104E40004004FCF777FF00F5B7501830C5F844046C
:104E5000FCF770FF00F5BD501830C5F84804FCF7AA
:104E600069FF00F5D9501430C5F84C040DF0B4F8C2
:104E7000C5F8500401F0E8FA002385F86434C5F859
:104E80005404C5F85834C5F85C34C5F86034C5F826
:104E90006834C5F86C34204670BD00BF6C930208BE
:104EA00010B50A4C2368BFF35B8FDB070CD4204698
:104EB0001DF099FE40B10648FFF74EFF05481FF070
:104EC0007FFA20461DF09BFE014810BD5C39002092
:104ED00060390020054800084FF00000704738B5E1
:104EE0000446FCF727FF0546FDF744F805F5AF50EB
:104EF00004F58B5542F2107114350FF00AFE4FF491
:104F0000FA6128460BF0A7FE63681BB90121284609
:104F10000CF016F9236829469B69204698474FF004
:104F2000000038BD10B50446FCF704FF00F5AF5093
:104F30000FF0FFFD04F50053D3F82403FDF766FEE0
:104F400004F50350343005F0F0FA04F58B501430BA
:104F50000BF090FE4FF0000010BD00002DE9F04373
:104F600085B004468846154600F58B560DF034F89A
:104F700028230222CDE900321436D0F88830424688
:104F8000002130460BF0B5FE0FF07AFE00231946E3
:104F90002D4A009030460CF005F80FF071FE2B4AB8
:104FA00000900023012130460BF0FCFFFCF7DAFAF9
:104FB000002301461A46304604F5C7570CF0E3F8C3
:104FC000143704F5A65304F5035214333E46343225
:104FD0002121C6E900314036964203F12103F8D180
:104FE000FCF7C0FA04F58059194B0093014622469C
:104FF0003046184B05F0A3F904F50054B9F9823195
:105000009844D4F85833D3F888400FF025FF03684C
:10501000DB689847B9F98231CDF80080083DED1A78
:10502000A5EB4005002320223946CDE90145304655
:1050300005F06EFA3046002105F0A7FA4FF00000A7
:1050400005B0BDE8F08300BF5B8B0208707F0208EB
:1050500091550008BD5700082DE9F84304460FF0AC
:1050600075FD364B2360364BDFF8E0906FF07F42E2
:10507000C4E90B23334B0027C4E90D37C4E9087793
:10508000C4E90F77A76204F144000FF023FC04F198
:105090007000FCF76FFA04F1A000FCF76BFA04F162
:1050A000D000FCF767FA04F5807604F5CE754FF072
:1050B000FF3830460FF04AFDC6F8009086F82070A1
:1050C000C6F82C8086F83070C6E909773436B542C8
:1050D000EFD1DFF87C8004F53B79002601272846D4
:1050E0000FF034FDC5F80080AE6285F82C702E6399
:1050F00085F83460C5E9086605F138000FF026FD33
:10510000C5F838802E6685F86470AE6685F86C60E8
:10511000C5E9166670354D45E1D12846FCF72AFAF7
:1051200004F547700FF012FD074BC4F81C330CF068
:1051300053FFC4F83C032046BDE8F88334AD0208B1
:105140008080800040404000C8BD0208C0B4020812
:10515000D0BE020838B51B4B03601B4BC0F81C3394
:10516000044600F547700FF003FD184BC4F8EC320D
:1051700004F53B700FF0FCFC4FF42D75635960197A
:105180001B68383D9847B5F5B27FF7D14FF4B47539
:10519000635960191B68343D9847CC2DF8D1D02550
:1051A000635960191B68303D9847402DF8D120465F
:1051B000074B40F8443F0FF0DBFC20460FF0D8FCD3
:1051C000204638BD34AD0208C8BD020870BD0208D3
:1051D00028BF0208F8B51A4B036000F503550446D2
:1051E00005F5B670FCF788FA04F5005605F1AC0039
:1051F000FCF782FA134BC6F8383104F50450383006
:105200000FF0B6FC104BC6F8043104F5045004301E
:105210000FF0AEFC04F5C7560C4F34351436B542CA
:1052200006D0403D284640F8087F0FF0A1FCF6E785
:1052300004F58B501430FFF78DFF2046F8BD00BFFA
:105240009093020870BD020828BF0208D0BE020871
:1052500008B50248FFF7BEFF08BD00BFD44D0020CF
:1052600010B50446FFF7B6FF204642F260311DF04C
:10527000B8FC204610BD10B50446FFF76BFF204672
:105280004FF450711DF0ADFC204610BD13B504461F
:10529000406818B10CF064FE0023636000221146E0
:1052A00004F1080003F020F90FF0EAFC002300905D
:1052B00004F58B50054A194614300BF073FEFCF7C9
:1052C00039FD02B0BDE81040FCF754BE5B8B02080C
:1052D00038B50D460446FFF7D9FF28460CF03CFED2
:1052E000002303706060FCF725FDFCF743FE606857
:1052F00038BD0000F7B51546002401AA0830089F04
:1053000001941E4603F01CF918BB002003B0F0BD49
:105310003B2B08BF013101320192019A13780D2B0A
:105320001AD9B942F4D301990B78202B1BD0092B41
:1053300019D00D2B05D842F2014222FA03F3DF0700
:10534000E3D42A4601393544AA420FD1002EDDD0DC
:1053500017E021460F4CE0E744FA03F3DB07E2D500
:10536000B942D8D3DFE701310191DCE711F8013F01
:105370000D2B0AD842F20144DC40E40707D5002394
:105380001370002305F8013CC0E73B2BF7D002F86F
:10539000013BD9E7FEDBFFFF2DE9F3410024009438
:1053A00005460E4617469846FFF7A4FF044630B957
:1053B00043463A46314605F1080003F001FA20461B
:1053C00002B0BDE8F08137B5022500951446FFF71D
:1053D00091FF00B9207003B030BD37B5069D02358E
:1053E00000951446FFF786FF08B904B1207003B09A
:1053F00030BD73B505460E460024002300941A46BE
:1054000031462846FFF7E9FF10B9204602B070BDCB
:105410000134F2E7F7B51646002401AA08301F460A
:10542000019403F08DF8054648B90025284603B0DD
:10543000F0BD3B2900F1010008BF01340190019843
:1054400001780A2906D00D2904D019B1BC42F0D345
:105450000D2904D842F20143CB40DB07E5D41EF00E
:10546000B8FF3060E2E710B501231446FFF7D2FF22
:1054700008B90123236010BD07B5002301AA0193D9
:10548000FFF7F1FF18B10198B0FA80F0400903B0BE
:105490005DF804FB2DE9F04F95B005461822002178
:1054A00008A820F041F80DF11809182200210EA8D3
:1054B00020F03AF80024012305F5C75605F50357F7
:1054C000D5F87CA00694C9F8044004931436A3468A
:1054D0003437544543D01F2C02D115B0BDE8F08FAE
:1054E00005AA214605F10800CDF814B003F00BF829
:1054F000182308AA21462846FFF74EFF21462846D2
:10550000FFF7BAFF804680B1059B00930EAA1823CF
:1055100021462846FFF761FF0EAB314608AA384600
:1055200004F014FF01344036D3E704AA214628468C
:10553000FFF799FF08234A4621462846FFF743FF15
:10554000CDE90198049B009305F50050059BD0F828
:105550005C0318220EA901F055FA0346DDE71F2C63
:10556000BBD005F5035605EB8411343601F5C75160
:10557000054B064A1431304604F0E8FE611C304603
:1055800005F003F8A9E700BFF37F0208787F02085F
:1055900010B5044690B100F58052D2F8AC2152B952
:1055A000C26F914205D2083003F094FD2046FFF708
:1055B00071FF002010BDFFF769FEFAE70220F9E74E
:1055C0002DE9F04100F58B5514358D429AB0044613
:1055D00040F0B58000F58053D3F8AC31012B40F09A
:1055E0009A80FBF7BFFF0021283010F083FB1CF0EE
:1055F000F9F962496248002219F0C6F9E8B10026BB
:1056000004F5A6523346143200211F2B7ED9FBF736
:10561000A9FF04F5035400213434283010F032FB84
:105620003146204604F0B1FF6421204604F0E4FF37
:105630004FF000001AB0BDE8F08152490DA819F0F2
:1056400009FE06460028DAD14F4F02A90DA819F02D
:105650005FFE00284AD19DF81E30002B46D00DF188
:105660001D0313F8012F12B101301528F9D100F1F3
:10567000140502ABA0F103081D44B8F1000F01D1DD
:10568000434616E015F8013D2E2B02D008F1FF38F5
:10569000F3E7A8781FF0ACFD7328F7D100F0D4FE33
:1056A00090F81D3433BB68781FF0A2FD6D2821D11E
:1056B00001239DF81020D206C7D4002BC5D004EBDF
:1056C0008611029B019308460DF11E0341F6F80274
:1056D00041F6F405009300F5C7508A5849593B46F6
:1056E0001C3001360EF0BFFE202EAED10DA819F0F1
:1056F000F8FD85E700F0A8FE90F81D34022BC5D117
:1057000068781FF075FD6C28C0D1D1E703EB43101A
:105710000133115479E7436800F50354343453B12D
:10572000FFF7B8FE6421204604F066FF00212846FA
:105730000BF006FD7CE7204604F0F7FE78E700F565
:105740000052D2F824338B420DD11A7C002A3FF448
:105750006FAFD3F82021D968083002F0E3FE20466D
:10576000FFF798FE64E7D2F820338B427FF460AFF6
:1057700009F070FC09F06EF95AE700BFF4D401207B
:10578000BCD20120707F0208817F020810B503237C
:105790001446FFF73FFE08B9014B236010BD00BF60
:1057A000806967FF10B504231446FFF733FE08B97C
:1057B000014B236010BD00BF809698002DE9F04397
:1057C0000D4691B00446002800F0918100F5805309
:1057D000D3F8AC61002E40F0DB804368002B55D03D
:1057E000C36F994267D100F50055D5F85C3393F843
:1057F0007033012B4ED8079609F02CFC07A909F04D
:1058000089FA083407460146079A204602F071FEDD
:1058100000283BD0204604F0CFF8002848D005F0FF
:1058200007F943694BB3FBF79DFE3146283010F072
:1058300061FAB049B048324619F0A6F8B8B9AF4994
:10584000AF480A2219F0E0F888B909F003FC0469AE
:1058500009F000FC0069FAF7CDFC08AB02462146CE
:10586000A74819F09DFA10B9A54819F0C9FBFBF734
:1058700079FE0021283010F005FAFCF75BFA0446A7
:1058800009F0E8FB01462046FCF74EFB002011B072
:10589000BDE8F0839B4A02239B49D5F8200304F01E
:1058A00019FFD5F8200342F2107105F013F8EDE767
:1058B00002233A46F0E700F1080904F50C580123E9
:1058C00005AA484608F128080693059602F01BFE33
:1058D0002023424629462046FFF75EFD06AA2946B8
:1058E0002046FFF7C0FD069F9FB9059B294601335F
:1058F00020460593FFF77DFD059B9842D8BF05978D
:10590000059A2946484602F00DFE2046FFF7C2FDE3
:10591000BCE707AA2946204604F50D59CDE90766DC
:1059200009F10809FFF732FF08AA29462046FFF7C8
:1059300039FF10234A4629462046FFF744FD0A2333
:10594000092F21DC0123CDE90263089B019304F5B3
:105950000057079B00934A46059BD7F8240341460E
:10596000FCF7A8FFD7F82463FBF7FCFD00230146F2
:105970001A463046FCF735FFD7F8240342F210717F
:10598000C560FCF75BFFC0E7013697FBF3F7D7E78D
:1059900008AE5E49202230461FF0EDFD3046FAF792
:1059A00029FCAF0104EB851505F5C7553118002317
:1059B000C0F1200014352A68D25CCA54002A76D17E
:1059C0000DF13F03002213F80119202973D9DFF8E4
:1059D000309101223146484619F016F80546002854
:1059E00061D1D9F80C3003F1010809F033FB09F05B
:1059F00031F841462046FFF76BFC002872D0424642
:105A00006168069506AB484619F002F9069B626884
:105A1000D55404F1080642466168304602F064FD40
:105A2000079509F017FB07A909F074F9079A0146D1
:105A30008046304602F05DFD304604F0EAFA002868
:105A40003DD041F6F4032744F95804F5A553133328
:105A50004A5D03F8012F22B12E2A02D00135202DF4
:105A6000F6D1254441F2B4470026EE550FF008F96F
:105A700004F58B5514353346E2193146009028461B
:105A80000BF090FA2046FFF705FD04F50350642162
:105A9000343004F0B1FD314628460BF051FB09F0DB
:105AA000D9FA08F0D7FF164819F0AAFAEEE6013342
:105AB000984280D184E7B3425A7084D187E7204668
:105AC000FFF7E4FB04F50054022342460E49D4F8E4
:105AD000200304F0FFFDD4F8200342F2107104F01B
